{
	"FunctionTypes.sol": {
		"FunctionTypes": {
			"abi": [
				{
					"inputs": [
						{
							"internalType": "uint256",
							"name": "a",
							"type": "uint256"
						},
						{
							"internalType": "uint256",
							"name": "b",
							"type": "uint256"
						}
					],
					"name": "add",
					"outputs": [
						{
							"internalType": "uint256",
							"name": "",
							"type": "uint256"
						}
					],
					"stateMutability": "pure",
					"type": "function"
				},
				{
					"inputs": [],
					"name": "getNum",
					"outputs": [
						{
							"internalType": "uint256",
							"name": "",
							"type": "uint256"
						}
					],
					"stateMutability": "view",
					"type": "function"
				},
				{
					"inputs": [],
					"name": "num",
					"outputs": [
						{
							"internalType": "uint256",
							"name": "",
							"type": "uint256"
						}
					],
					"stateMutability": "view",
					"type": "function"
				},
				{
					"inputs": [],
					"name": "payNow",
					"outputs": [],
					"stateMutability": "payable",
					"type": "function"
				},
				{
					"inputs": [
						{
							"internalType": "uint256",
							"name": "_n",
							"type": "uint256"
						}
					],
					"name": "setNum",
					"outputs": [],
					"stateMutability": "nonpayable",
					"type": "function"
				}
			],
			"devdoc": {
				"kind": "dev",
				"methods": {},
				"version": 1
			},
			"evm": {
				"assembly": "    /* \"FunctionTypes.sol\":57:515  contract FunctionTypes {... */\n  mstore(0x40, 0x80)\n  callvalue\n  dup1\n  iszero\n  tag_1\n  jumpi\n  revert(0x00, 0x00)\ntag_1:\n  pop\n  dataSize(sub_0)\n  dup1\n  dataOffset(sub_0)\n  0x00\n  codecopy\n  0x00\n  return\nstop\n\nsub_0: assembly {\n        /* \"FunctionTypes.sol\":57:515  contract FunctionTypes {... */\n      mstore(0x40, 0x80)\n      jumpi(tag_1, lt(calldatasize, 0x04))\n      shr(0xe0, calldataload(0x00))\n      dup1\n      0x4e70b1dc\n      eq\n      tag_2\n      jumpi\n      dup1\n      0x67e0badb\n      eq\n      tag_3\n      jumpi\n      dup1\n      0x6a0202c1\n      eq\n      tag_4\n      jumpi\n      dup1\n      0x771602f7\n      eq\n      tag_5\n      jumpi\n      dup1\n      0xcd16ecbf\n      eq\n      tag_6\n      jumpi\n    tag_1:\n      revert(0x00, 0x00)\n        /* \"FunctionTypes.sol\":86:101  uint public num */\n    tag_2:\n      callvalue\n      dup1\n      iszero\n      tag_7\n      jumpi\n      revert(0x00, 0x00)\n    tag_7:\n      pop\n      tag_8\n      tag_9\n      jump\t// in\n    tag_8:\n      mload(0x40)\n      tag_10\n      swap2\n      swap1\n      tag_11\n      jump\t// in\n    tag_10:\n      mload(0x40)\n      dup1\n      swap2\n      sub\n      swap1\n      return\n        /* \"FunctionTypes.sol\":207:295  function getNum() public view returns(uint) {... */\n    tag_3:\n      callvalue\n      dup1\n      iszero\n      tag_12\n      jumpi\n      revert(0x00, 0x00)\n    tag_12:\n      pop\n      tag_13\n      tag_14\n      jump\t// in\n    tag_13:\n      mload(0x40)\n      tag_15\n      swap2\n      swap1\n      tag_11\n      jump\t// in\n    tag_15:\n      mload(0x40)\n      dup1\n      swap2\n      sub\n      swap1\n      return\n        /* \"FunctionTypes.sol\":408:513  function payNow() public payable {... */\n    tag_4:\n      tag_16\n      tag_17\n      jump\t// in\n    tag_16:\n      stop\n        /* \"FunctionTypes.sol\":301:402  function add(uint a, uint b) public pure returns(uint) {... */\n    tag_5:\n      callvalue\n      dup1\n      iszero\n      tag_18\n      jumpi\n      revert(0x00, 0x00)\n    tag_18:\n      pop\n      tag_19\n      0x04\n      dup1\n      calldatasize\n      sub\n      dup2\n      add\n      swap1\n      tag_20\n      swap2\n      swap1\n      tag_21\n      jump\t// in\n    tag_20:\n      tag_22\n      jump\t// in\n    tag_19:\n      mload(0x40)\n      tag_23\n      swap2\n      swap1\n      tag_11\n      jump\t// in\n    tag_23:\n      mload(0x40)\n      dup1\n      swap2\n      sub\n      swap1\n      return\n        /* \"FunctionTypes.sol\":108:201  function setNum(uint _n) public {... */\n    tag_6:\n      callvalue\n      dup1\n      iszero\n      tag_24\n      jumpi\n      revert(0x00, 0x00)\n    tag_24:\n      pop\n      tag_25\n      0x04\n      dup1\n      calldatasize\n      sub\n      dup2\n      add\n      swap1\n      tag_26\n      swap2\n      swap1\n      tag_27\n      jump\t// in\n    tag_26:\n      tag_28\n      jump\t// in\n    tag_25:\n      stop\n        /* \"FunctionTypes.sol\":86:101  uint public num */\n    tag_9:\n      sload(0x00)\n      dup2\n      jump\t// out\n        /* \"FunctionTypes.sol\":207:295  function getNum() public view returns(uint) {... */\n    tag_14:\n        /* \"FunctionTypes.sol\":245:249  uint */\n      0x00\n        /* \"FunctionTypes.sol\":268:271  num */\n      sload(0x00)\n        /* \"FunctionTypes.sol\":261:271  return num */\n      swap1\n      pop\n        /* \"FunctionTypes.sol\":207:295  function getNum() public view returns(uint) {... */\n      swap1\n      jump\t// out\n        /* \"FunctionTypes.sol\":408:513  function payNow() public payable {... */\n    tag_17:\n        /* \"FunctionTypes.sol\":471:472  0 */\n      0x00\n        /* \"FunctionTypes.sol\":459:468  msg.value */\n      callvalue\n        /* \"FunctionTypes.sol\":459:472  msg.value > 0 */\n      gt\n        /* \"FunctionTypes.sol\":451:486  require(msg.value > 0, \"Send ETH!\") */\n      tag_31\n      jumpi\n      mload(0x40)\n      0x08c379a000000000000000000000000000000000000000000000000000000000\n      dup2\n      mstore\n      0x04\n      add\n      tag_32\n      swap1\n      tag_33\n      jump\t// in\n    tag_32:\n      mload(0x40)\n      dup1\n      swap2\n      sub\n      swap1\n      revert\n    tag_31:\n        /* \"FunctionTypes.sol\":408:513  function payNow() public payable {... */\n      jump\t// out\n        /* \"FunctionTypes.sol\":301:402  function add(uint a, uint b) public pure returns(uint) {... */\n    tag_22:\n        /* \"FunctionTypes.sol\":350:354  uint */\n      0x00\n        /* \"FunctionTypes.sol\":377:378  b */\n      dup2\n        /* \"FunctionTypes.sol\":373:374  a */\n      dup4\n        /* \"FunctionTypes.sol\":373:378  a + b */\n      tag_35\n      swap2\n      swap1\n      tag_36\n      jump\t// in\n    tag_35:\n        /* \"FunctionTypes.sol\":366:378  return a + b */\n      swap1\n      pop\n        /* \"FunctionTypes.sol\":301:402  function add(uint a, uint b) public pure returns(uint) {... */\n      swap3\n      swap2\n      pop\n      pop\n      jump\t// out\n        /* \"FunctionTypes.sol\":108:201  function setNum(uint _n) public {... */\n    tag_28:\n        /* \"FunctionTypes.sol\":156:158  _n */\n      dup1\n        /* \"FunctionTypes.sol\":150:153  num */\n      0x00\n        /* \"FunctionTypes.sol\":150:158  num = _n */\n      dup2\n      swap1\n      sstore\n      pop\n        /* \"FunctionTypes.sol\":108:201  function setNum(uint _n) public {... */\n      pop\n      jump\t// out\n        /* \"#utility.yul\":7:84   */\n    tag_38:\n        /* \"#utility.yul\":44:51   */\n      0x00\n        /* \"#utility.yul\":73:78   */\n      dup2\n        /* \"#utility.yul\":62:78   */\n      swap1\n      pop\n        /* \"#utility.yul\":7:84   */\n      swap2\n      swap1\n      pop\n      jump\t// out\n        /* \"#utility.yul\":90:208   */\n    tag_39:\n        /* \"#utility.yul\":177:201   */\n      tag_52\n        /* \"#utility.yul\":195:200   */\n      dup2\n        /* \"#utility.yul\":177:201   */\n      tag_38\n      jump\t// in\n    tag_52:\n        /* \"#utility.yul\":172:175   */\n      dup3\n        /* \"#utility.yul\":165:202   */\n      mstore\n        /* \"#utility.yul\":90:208   */\n      pop\n      pop\n      jump\t// out\n        /* \"#utility.yul\":214:436   */\n    tag_11:\n        /* \"#utility.yul\":307:311   */\n      0x00\n        /* \"#utility.yul\":345:347   */\n      0x20\n        /* \"#utility.yul\":334:343   */\n      dup3\n        /* \"#utility.yul\":330:348   */\n      add\n        /* \"#utility.yul\":322:348   */\n      swap1\n      pop\n        /* \"#utility.yul\":358:429   */\n      tag_54\n        /* \"#utility.yul\":426:427   */\n      0x00\n        /* \"#utility.yul\":415:424   */\n      dup4\n        /* \"#utility.yul\":411:428   */\n      add\n        /* \"#utility.yul\":402:408   */\n      dup5\n        /* \"#utility.yul\":358:429   */\n      tag_39\n      jump\t// in\n    tag_54:\n        /* \"#utility.yul\":214:436   */\n      swap3\n      swap2\n      pop\n      pop\n      jump\t// out\n        /* \"#utility.yul\":523:640   */\n    tag_41:\n        /* \"#utility.yul\":632:633   */\n      0x00\n        /* \"#utility.yul\":629:630   */\n      0x00\n        /* \"#utility.yul\":622:634   */\n      revert\n        /* \"#utility.yul\":769:891   */\n    tag_43:\n        /* \"#utility.yul\":842:866   */\n      tag_59\n        /* \"#utility.yul\":860:865   */\n      dup2\n        /* \"#utility.yul\":842:866   */\n      tag_38\n      jump\t// in\n    tag_59:\n        /* \"#utility.yul\":835:840   */\n      dup2\n        /* \"#utility.yul\":832:867   */\n      eq\n        /* \"#utility.yul\":822:885   */\n      tag_60\n      jumpi\n        /* \"#utility.yul\":881:882   */\n      0x00\n        /* \"#utility.yul\":878:879   */\n      0x00\n        /* \"#utility.yul\":871:883   */\n      revert\n        /* \"#utility.yul\":822:885   */\n    tag_60:\n        /* \"#utility.yul\":769:891   */\n      pop\n      jump\t// out\n        /* \"#utility.yul\":897:1036   */\n    tag_44:\n        /* \"#utility.yul\":943:948   */\n      0x00\n        /* \"#utility.yul\":981:987   */\n      dup2\n        /* \"#utility.yul\":968:988   */\n      calldataload\n        /* \"#utility.yul\":959:988   */\n      swap1\n      pop\n        /* \"#utility.yul\":997:1030   */\n      tag_62\n        /* \"#utility.yul\":1024:1029   */\n      dup2\n        /* \"#utility.yul\":997:1030   */\n      tag_43\n      jump\t// in\n    tag_62:\n        /* \"#utility.yul\":897:1036   */\n      swap3\n      swap2\n      pop\n      pop\n      jump\t// out\n        /* \"#utility.yul\":1042:1516   */\n    tag_21:\n        /* \"#utility.yul\":1110:1116   */\n      0x00\n        /* \"#utility.yul\":1118:1124   */\n      0x00\n        /* \"#utility.yul\":1167:1169   */\n      0x40\n        /* \"#utility.yul\":1155:1164   */\n      dup4\n        /* \"#utility.yul\":1146:1153   */\n      dup6\n        /* \"#utility.yul\":1142:1165   */\n      sub\n        /* \"#utility.yul\":1138:1170   */\n      slt\n        /* \"#utility.yul\":1135:1254   */\n      iszero\n      tag_64\n      jumpi\n        /* \"#utility.yul\":1173:1252   */\n      tag_65\n      tag_41\n      jump\t// in\n    tag_65:\n        /* \"#utility.yul\":1135:1254   */\n    tag_64:\n        /* \"#utility.yul\":1293:1294   */\n      0x00\n        /* \"#utility.yul\":1318:1371   */\n      tag_66\n        /* \"#utility.yul\":1363:1370   */\n      dup6\n        /* \"#utility.yul\":1354:1360   */\n      dup3\n        /* \"#utility.yul\":1343:1352   */\n      dup7\n        /* \"#utility.yul\":1339:1361   */\n      add\n        /* \"#utility.yul\":1318:1371   */\n      tag_44\n      jump\t// in\n    tag_66:\n        /* \"#utility.yul\":1308:1371   */\n      swap3\n      pop\n        /* \"#utility.yul\":1264:1381   */\n      pop\n        /* \"#utility.yul\":1420:1422   */\n      0x20\n        /* \"#utility.yul\":1446:1499   */\n      tag_67\n        /* \"#utility.yul\":1491:1498   */\n      dup6\n        /* \"#utility.yul\":1482:1488   */\n      dup3\n        /* \"#utility.yul\":1471:1480   */\n      dup7\n        /* \"#utility.yul\":1467:1489   */\n      add\n        /* \"#utility.yul\":1446:1499   */\n      tag_44\n      jump\t// in\n    tag_67:\n        /* \"#utility.yul\":1436:1499   */\n      swap2\n      pop\n        /* \"#utility.yul\":1391:1509   */\n      pop\n        /* \"#utility.yul\":1042:1516   */\n      swap3\n      pop\n      swap3\n      swap1\n      pop\n      jump\t// out\n        /* \"#utility.yul\":1522:1851   */\n    tag_27:\n        /* \"#utility.yul\":1581:1587   */\n      0x00\n        /* \"#utility.yul\":1630:1632   */\n      0x20\n        /* \"#utility.yul\":1618:1627   */\n      dup3\n        /* \"#utility.yul\":1609:1616   */\n      dup5\n        /* \"#utility.yul\":1605:1628   */\n      sub\n        /* \"#utility.yul\":1601:1633   */\n      slt\n        /* \"#utility.yul\":1598:1717   */\n      iszero\n      tag_69\n      jumpi\n        /* \"#utility.yul\":1636:1715   */\n      tag_70\n      tag_41\n      jump\t// in\n    tag_70:\n        /* \"#utility.yul\":1598:1717   */\n    tag_69:\n        /* \"#utility.yul\":1756:1757   */\n      0x00\n        /* \"#utility.yul\":1781:1834   */\n      tag_71\n        /* \"#utility.yul\":1826:1833   */\n      dup5\n        /* \"#utility.yul\":1817:1823   */\n      dup3\n        /* \"#utility.yul\":1806:1815   */\n      dup6\n        /* \"#utility.yul\":1802:1824   */\n      add\n        /* \"#utility.yul\":1781:1834   */\n      tag_44\n      jump\t// in\n    tag_71:\n        /* \"#utility.yul\":1771:1834   */\n      swap2\n      pop\n        /* \"#utility.yul\":1727:1844   */\n      pop\n        /* \"#utility.yul\":1522:1851   */\n      swap3\n      swap2\n      pop\n      pop\n      jump\t// out\n        /* \"#utility.yul\":1857:2026   */\n    tag_45:\n        /* \"#utility.yul\":1941:1952   */\n      0x00\n        /* \"#utility.yul\":1975:1981   */\n      dup3\n        /* \"#utility.yul\":1970:1973   */\n      dup3\n        /* \"#utility.yul\":1963:1982   */\n      mstore\n        /* \"#utility.yul\":2015:2019   */\n      0x20\n        /* \"#utility.yul\":2010:2013   */\n      dup3\n        /* \"#utility.yul\":2006:2020   */\n      add\n        /* \"#utility.yul\":1991:2020   */\n      swap1\n      pop\n        /* \"#utility.yul\":1857:2026   */\n      swap3\n      swap2\n      pop\n      pop\n      jump\t// out\n        /* \"#utility.yul\":2032:2191   */\n    tag_46:\n        /* \"#utility.yul\":2172:2183   */\n      0x53656e6420455448210000000000000000000000000000000000000000000000\n        /* \"#utility.yul\":2168:2169   */\n      0x00\n        /* \"#utility.yul\":2160:2166   */\n      dup3\n        /* \"#utility.yul\":2156:2170   */\n      add\n        /* \"#utility.yul\":2149:2184   */\n      mstore\n        /* \"#utility.yul\":2032:2191   */\n      pop\n      jump\t// out\n        /* \"#utility.yul\":2197:2562   */\n    tag_47:\n        /* \"#utility.yul\":2339:2342   */\n      0x00\n        /* \"#utility.yul\":2360:2426   */\n      tag_75\n        /* \"#utility.yul\":2424:2425   */\n      0x09\n        /* \"#utility.yul\":2419:2422   */\n      dup4\n        /* \"#utility.yul\":2360:2426   */\n      tag_45\n      jump\t// in\n    tag_75:\n        /* \"#utility.yul\":2353:2426   */\n      swap2\n      pop\n        /* \"#utility.yul\":2435:2528   */\n      tag_76\n        /* \"#utility.yul\":2524:2527   */\n      dup3\n        /* \"#utility.yul\":2435:2528   */\n      tag_46\n      jump\t// in\n    tag_76:\n        /* \"#utility.yul\":2553:2555   */\n      0x20\n        /* \"#utility.yul\":2548:2551   */\n      dup3\n        /* \"#utility.yul\":2544:2556   */\n      add\n        /* \"#utility.yul\":2537:2556   */\n      swap1\n      pop\n        /* \"#utility.yul\":2197:2562   */\n      swap2\n      swap1\n      pop\n      jump\t// out\n        /* \"#utility.yul\":2568:2987   */\n    tag_33:\n        /* \"#utility.yul\":2734:2738   */\n      0x00\n        /* \"#utility.yul\":2772:2774   */\n      0x20\n        /* \"#utility.yul\":2761:2770   */\n      dup3\n        /* \"#utility.yul\":2757:2775   */\n      add\n        /* \"#utility.yul\":2749:2775   */\n      swap1\n      pop\n        /* \"#utility.yul\":2821:2830   */\n      dup2\n        /* \"#utility.yul\":2815:2819   */\n      dup2\n        /* \"#utility.yul\":2811:2831   */\n      sub\n        /* \"#utility.yul\":2807:2808   */\n      0x00\n        /* \"#utility.yul\":2796:2805   */\n      dup4\n        /* \"#utility.yul\":2792:2809   */\n      add\n        /* \"#utility.yul\":2785:2832   */\n      mstore\n        /* \"#utility.yul\":2849:2980   */\n      tag_78\n        /* \"#utility.yul\":2975:2979   */\n      dup2\n        /* \"#utility.yul\":2849:2980   */\n      tag_47\n      jump\t// in\n    tag_78:\n        /* \"#utility.yul\":2841:2980   */\n      swap1\n      pop\n        /* \"#utility.yul\":2568:2987   */\n      swap2\n      swap1\n      pop\n      jump\t// out\n        /* \"#utility.yul\":2993:3173   */\n    tag_48:\n        /* \"#utility.yul\":3041:3118   */\n      0x4e487b7100000000000000000000000000000000000000000000000000000000\n        /* \"#utility.yul\":3038:3039   */\n      0x00\n        /* \"#utility.yul\":3031:3119   */\n      mstore\n        /* \"#utility.yul\":3138:3142   */\n      0x11\n        /* \"#utility.yul\":3135:3136   */\n      0x04\n        /* \"#utility.yul\":3128:3143   */\n      mstore\n        /* \"#utility.yul\":3162:3166   */\n      0x24\n        /* \"#utility.yul\":3159:3160   */\n      0x00\n        /* \"#utility.yul\":3152:3167   */\n      revert\n        /* \"#utility.yul\":3179:3370   */\n    tag_36:\n        /* \"#utility.yul\":3219:3222   */\n      0x00\n        /* \"#utility.yul\":3238:3258   */\n      tag_81\n        /* \"#utility.yul\":3256:3257   */\n      dup3\n        /* \"#utility.yul\":3238:3258   */\n      tag_38\n      jump\t// in\n    tag_81:\n        /* \"#utility.yul\":3233:3258   */\n      swap2\n      pop\n        /* \"#utility.yul\":3272:3292   */\n      tag_82\n        /* \"#utility.yul\":3290:3291   */\n      dup4\n        /* \"#utility.yul\":3272:3292   */\n      tag_38\n      jump\t// in\n    tag_82:\n        /* \"#utility.yul\":3267:3292   */\n      swap3\n      pop\n        /* \"#utility.yul\":3315:3316   */\n      dup3\n        /* \"#utility.yul\":3312:3313   */\n      dup3\n        /* \"#utility.yul\":3308:3317   */\n      add\n        /* \"#utility.yul\":3301:3317   */\n      swap1\n      pop\n        /* \"#utility.yul\":3336:3339   */\n      dup1\n        /* \"#utility.yul\":3333:3334   */\n      dup3\n        /* \"#utility.yul\":3330:3340   */\n      gt\n        /* \"#utility.yul\":3327:3363   */\n      iszero\n      tag_83\n      jumpi\n        /* \"#utility.yul\":3343:3361   */\n      tag_84\n      tag_48\n      jump\t// in\n    tag_84:\n        /* \"#utility.yul\":3327:3363   */\n    tag_83:\n        /* \"#utility.yul\":3179:3370   */\n      swap3\n      swap2\n      pop\n      pop\n      jump\t// out\n\n    auxdata: 0xa2646970667358221220773a69feb28be08601df524572ff3e8eafa4b5b130155d5a88a25684723cb65e64736f6c634300081e0033\n}\n",
				"bytecode": {
					"linkReferences": {},
					"object": "6080604052348015600e575f5ffd5b506103548061001c5f395ff3fe608060405260043610610049575f3560e01c80634e70b1dc1461004d57806367e0badb146100775780636a0202c1146100a1578063771602f7146100ab578063cd16ecbf146100e7575b5f5ffd5b348015610058575f5ffd5b5061006161010f565b60405161006e9190610196565b60405180910390f35b348015610082575f5ffd5b5061008b610114565b6040516100989190610196565b60405180910390f35b6100a961011c565b005b3480156100b6575f5ffd5b506100d160048036038101906100cc91906101dd565b610160565b6040516100de9190610196565b60405180910390f35b3480156100f2575f5ffd5b5061010d6004803603810190610108919061021b565b610175565b005b5f5481565b5f5f54905090565b5f341161015e576040517f08c379a0000000000000000000000000000000000000000000000000000000008152600401610155906102a0565b60405180910390fd5b565b5f818361016d91906102eb565b905092915050565b805f8190555050565b5f819050919050565b6101908161017e565b82525050565b5f6020820190506101a95f830184610187565b92915050565b5f5ffd5b6101bc8161017e565b81146101c6575f5ffd5b50565b5f813590506101d7816101b3565b92915050565b5f5f604083850312156101f3576101f26101af565b5b5f610200858286016101c9565b9250506020610211858286016101c9565b9150509250929050565b5f602082840312156102305761022f6101af565b5b5f61023d848285016101c9565b91505092915050565b5f82825260208201905092915050565b7f53656e64204554482100000000000000000000000000000000000000000000005f82015250565b5f61028a600983610246565b915061029582610256565b602082019050919050565b5f6020820190508181035f8301526102b78161027e565b9050919050565b7f4e487b71000000000000000000000000000000000000000000000000000000005f52601160045260245ffd5b5f6102f58261017e565b91506103008361017e565b9250828201905080821115610318576103176102be565b5b9291505056fea2646970667358221220773a69feb28be08601df524572ff3e8eafa4b5b130155d5a88a25684723cb65e64736f6c634300081e0033",
					"opcodes": "PUSH1 0x80 PUSH1 0x40 MSTORE CALLVALUE DUP1 ISZERO PUSH1 0xE JUMPI PUSH0 PUSH0 REVERT JUMPDEST POP PUSH2 0x354 DUP1 PUSH2 0x1C PUSH0 CODECOPY PUSH0 RETURN INVALID PUSH1 0x80 PUSH1 0x40 MSTORE PUSH1 0x4 CALLDATASIZE LT PUSH2 0x49 JUMPI PUSH0 CALLDATALOAD PUSH1 0xE0 SHR DUP1 PUSH4 0x4E70B1DC EQ PUSH2 0x4D JUMPI DUP1 PUSH4 0x67E0BADB EQ PUSH2 0x77 JUMPI DUP1 PUSH4 0x6A0202C1 EQ PUSH2 0xA1 JUMPI DUP1 PUSH4 0x771602F7 EQ PUSH2 0xAB JUMPI DUP1 PUSH4 0xCD16ECBF EQ PUSH2 0xE7 JUMPI JUMPDEST PUSH0 PUSH0 REVERT JUMPDEST CALLVALUE DUP1 ISZERO PUSH2 0x58 JUMPI PUSH0 PUSH0 REVERT JUMPDEST POP PUSH2 0x61 PUSH2 0x10F JUMP JUMPDEST PUSH1 0x40 MLOAD PUSH2 0x6E SWAP2 SWAP1 PUSH2 0x196 JUMP JUMPDEST PUSH1 0x40 MLOAD DUP1 SWAP2 SUB SWAP1 RETURN JUMPDEST CALLVALUE DUP1 ISZERO PUSH2 0x82 JUMPI PUSH0 PUSH0 REVERT JUMPDEST POP PUSH2 0x8B PUSH2 0x114 JUMP JUMPDEST PUSH1 0x40 MLOAD PUSH2 0x98 SWAP2 SWAP1 PUSH2 0x196 JUMP JUMPDEST PUSH1 0x40 MLOAD DUP1 SWAP2 SUB SWAP1 RETURN JUMPDEST PUSH2 0xA9 PUSH2 0x11C JUMP JUMPDEST STOP JUMPDEST CALLVALUE DUP1 ISZERO PUSH2 0xB6 JUMPI PUSH0 PUSH0 REVERT JUMPDEST POP PUSH2 0xD1 PUSH1 0x4 DUP1 CALLDATASIZE SUB DUP2 ADD SWAP1 PUSH2 0xCC SWAP2 SWAP1 PUSH2 0x1DD JUMP JUMPDEST PUSH2 0x160 JUMP JUMPDEST PUSH1 0x40 MLOAD PUSH2 0xDE SWAP2 SWAP1 PUSH2 0x196 JUMP JUMPDEST PUSH1 0x40 MLOAD DUP1 SWAP2 SUB SWAP1 RETURN JUMPDEST CALLVALUE DUP1 ISZERO PUSH2 0xF2 JUMPI PUSH0 PUSH0 REVERT JUMPDEST POP PUSH2 0x10D PUSH1 0x4 DUP1 CALLDATASIZE SUB DUP2 ADD SWAP1 PUSH2 0x108 SWAP2 SWAP1 PUSH2 0x21B JUMP JUMPDEST PUSH2 0x175 JUMP JUMPDEST STOP JUMPDEST PUSH0 SLOAD DUP2 JUMP JUMPDEST PUSH0 PUSH0 SLOAD SWAP1 POP SWAP1 JUMP JUMPDEST PUSH0 CALLVALUE GT PUSH2 0x15E JUMPI PUSH1 0x40 MLOAD PUSH32 0x8C379A000000000000000000000000000000000000000000000000000000000 DUP2 MSTORE PUSH1 0x4 ADD PUSH2 0x155 SWAP1 PUSH2 0x2A0 JUMP JUMPDEST PUSH1 0x40 MLOAD DUP1 SWAP2 SUB SWAP1 REVERT JUMPDEST JUMP JUMPDEST PUSH0 DUP2 DUP4 PUSH2 0x16D SWAP2 SWAP1 PUSH2 0x2EB JUMP JUMPDEST SWAP1 POP SWAP3 SWAP2 POP POP JUMP JUMPDEST DUP1 PUSH0 DUP2 SWAP1 SSTORE POP POP JUMP JUMPDEST PUSH0 DUP2 SWAP1 POP SWAP2 SWAP1 POP JUMP JUMPDEST PUSH2 0x190 DUP2 PUSH2 0x17E JUMP JUMPDEST DUP3 MSTORE POP POP JUMP JUMPDEST PUSH0 PUSH1 0x20 DUP3 ADD SWAP1 POP PUSH2 0x1A9 PUSH0 DUP4 ADD DUP5 PUSH2 0x187 JUMP JUMPDEST SWAP3 SWAP2 POP POP JUMP JUMPDEST PUSH0 PUSH0 REVERT JUMPDEST PUSH2 0x1BC DUP2 PUSH2 0x17E JUMP JUMPDEST DUP2 EQ PUSH2 0x1C6 JUMPI PUSH0 PUSH0 REVERT JUMPDEST POP JUMP JUMPDEST PUSH0 DUP2 CALLDATALOAD SWAP1 POP PUSH2 0x1D7 DUP2 PUSH2 0x1B3 JUMP JUMPDEST SWAP3 SWAP2 POP POP JUMP JUMPDEST PUSH0 PUSH0 PUSH1 0x40 DUP4 DUP6 SUB SLT ISZERO PUSH2 0x1F3 JUMPI PUSH2 0x1F2 PUSH2 0x1AF JUMP JUMPDEST JUMPDEST PUSH0 PUSH2 0x200 DUP6 DUP3 DUP7 ADD PUSH2 0x1C9 JUMP JUMPDEST SWAP3 POP POP PUSH1 0x20 PUSH2 0x211 DUP6 DUP3 DUP7 ADD PUSH2 0x1C9 JUMP JUMPDEST SWAP2 POP POP SWAP3 POP SWAP3 SWAP1 POP JUMP JUMPDEST PUSH0 PUSH1 0x20 DUP3 DUP5 SUB SLT ISZERO PUSH2 0x230 JUMPI PUSH2 0x22F PUSH2 0x1AF JUMP JUMPDEST JUMPDEST PUSH0 PUSH2 0x23D DUP5 DUP3 DUP6 ADD PUSH2 0x1C9 JUMP JUMPDEST SWAP2 POP POP SWAP3 SWAP2 POP POP JUMP JUMPDEST PUSH0 DUP3 DUP3 MSTORE PUSH1 0x20 DUP3 ADD SWAP1 POP SWAP3 SWAP2 POP POP JUMP JUMPDEST PUSH32 0x53656E6420455448210000000000000000000000000000000000000000000000 PUSH0 DUP3 ADD MSTORE POP JUMP JUMPDEST PUSH0 PUSH2 0x28A PUSH1 0x9 DUP4 PUSH2 0x246 JUMP JUMPDEST SWAP2 POP PUSH2 0x295 DUP3 PUSH2 0x256 JUMP JUMPDEST PUSH1 0x20 DUP3 ADD SWAP1 POP SWAP2 SWAP1 POP JUMP JUMPDEST PUSH0 PUSH1 0x20 DUP3 ADD SWAP1 POP DUP2 DUP2 SUB PUSH0 DUP4 ADD MSTORE PUSH2 0x2B7 DUP2 PUSH2 0x27E JUMP JUMPDEST SWAP1 POP SWAP2 SWAP1 POP JUMP JUMPDEST PUSH32 0x4E487B7100000000000000000000000000000000000000000000000000000000 PUSH0 MSTORE PUSH1 0x11 PUSH1 0x4 MSTORE PUSH1 0x24 PUSH0 REVERT JUMPDEST PUSH0 PUSH2 0x2F5 DUP3 PUSH2 0x17E JUMP JUMPDEST SWAP2 POP PUSH2 0x300 DUP4 PUSH2 0x17E JUMP JUMPDEST SWAP3 POP DUP3 DUP3 ADD SWAP1 POP DUP1 DUP3 GT ISZERO PUSH2 0x318 JUMPI PUSH2 0x317 PUSH2 0x2BE JUMP JUMPDEST JUMPDEST SWAP3 SWAP2 POP POP JUMP INVALID LOG2 PUSH5 0x6970667358 0x22 SLT KECCAK256 PUSH24 0x3A69FEB28BE08601DF524572FF3E8EAFA4B5B130155D5A88 LOG2 JUMP DUP5 PUSH19 0x3CB65E64736F6C634300081E00330000000000 "
				},
				"gasEstimates": {
					"creation": {
						"codeDepositCost": "170400",
						"executionCost": "212",
						"totalCost": "170612"
					},
					"external": {
						"add(uint256,uint256)": "infinite",
						"getNum()": "2431",
						"num()": "2402",
						"payNow()": "446",
						"setNum(uint256)": "22580"
					}
				},
				"methodIdentifiers": {
					"add(uint256,uint256)": "771602f7",
					"getNum()": "67e0badb",
					"num()": "4e70b1dc",
					"payNow()": "6a0202c1",
					"setNum(uint256)": "cd16ecbf"
				}
			},
			"storageLayout": {
				"storage": [
					{
						"astId": 3,
						"contract": "FunctionTypes.sol:FunctionTypes",
						"label": "num",
						"offset": 0,
						"slot": "0",
						"type": "t_uint256"
					}
				],
				"types": {
					"t_uint256": {
						"encoding": "inplace",
						"label": "uint256",
						"numberOfBytes": "32"
					}
				}
			},
			"userdoc": {
				"kind": "user",
				"methods": {},
				"version": 1
			}
		}
	}
}