{
	"PayAndWithdraw.sol": {
		"PayAndWithdraw": {
			"abi": [
				{
					"inputs": [],
					"stateMutability": "nonpayable",
					"type": "constructor"
				},
				{
					"anonymous": false,
					"inputs": [
						{
							"indexed": true,
							"internalType": "address",
							"name": "sender",
							"type": "address"
						},
						{
							"indexed": false,
							"internalType": "uint256",
							"name": "amount",
							"type": "uint256"
						},
						{
							"indexed": false,
							"internalType": "string",
							"name": "name",
							"type": "string"
						}
					],
					"name": "Paid",
					"type": "event"
				},
				{
					"anonymous": false,
					"inputs": [
						{
							"indexed": true,
							"internalType": "address",
							"name": "sender",
							"type": "address"
						},
						{
							"indexed": false,
							"internalType": "uint256",
							"name": "amount",
							"type": "uint256"
						}
					],
					"name": "Received",
					"type": "event"
				},
				{
					"anonymous": false,
					"inputs": [
						{
							"indexed": true,
							"internalType": "address",
							"name": "to",
							"type": "address"
						},
						{
							"indexed": false,
							"internalType": "uint256",
							"name": "amount",
							"type": "uint256"
						}
					],
					"name": "Withdrawn",
					"type": "event"
				},
				{
					"stateMutability": "payable",
					"type": "fallback"
				},
				{
					"inputs": [
						{
							"internalType": "string",
							"name": "_name",
							"type": "string"
						}
					],
					"name": "contribute",
					"outputs": [],
					"stateMutability": "payable",
					"type": "function"
				},
				{
					"inputs": [
						{
							"internalType": "address",
							"name": "",
							"type": "address"
						}
					],
					"name": "contributors",
					"outputs": [
						{
							"internalType": "string",
							"name": "name",
							"type": "string"
						},
						{
							"internalType": "uint256",
							"name": "amount",
							"type": "uint256"
						}
					],
					"stateMutability": "view",
					"type": "function"
				},
				{
					"inputs": [],
					"name": "getContractBalance",
					"outputs": [
						{
							"internalType": "uint256",
							"name": "",
							"type": "uint256"
						}
					],
					"stateMutability": "view",
					"type": "function"
				},
				{
					"inputs": [],
					"name": "getMyContribution",
					"outputs": [
						{
							"internalType": "uint256",
							"name": "",
							"type": "uint256"
						}
					],
					"stateMutability": "view",
					"type": "function"
				},
				{
					"inputs": [
						{
							"internalType": "uint256",
							"name": "a",
							"type": "uint256"
						},
						{
							"internalType": "uint256",
							"name": "b",
							"type": "uint256"
						}
					],
					"name": "mathExample",
					"outputs": [
						{
							"internalType": "uint256",
							"name": "",
							"type": "uint256"
						}
					],
					"stateMutability": "pure",
					"type": "function"
				},
				{
					"inputs": [],
					"name": "owner",
					"outputs": [
						{
							"internalType": "address",
							"name": "",
							"type": "address"
						}
					],
					"stateMutability": "view",
					"type": "function"
				},
				{
					"inputs": [
						{
							"internalType": "address payable",
							"name": "_to",
							"type": "address"
						}
					],
					"name": "withdraw",
					"outputs": [],
					"stateMutability": "nonpayable",
					"type": "function"
				},
				{
					"stateMutability": "payable",
					"type": "receive"
				}
			],
			"devdoc": {
				"kind": "dev",
				"methods": {},
				"version": 1
			},
			"evm": {
				"assembly": "    /* \"PayAndWithdraw.sol\":58:1948  contract PayAndWithdraw {... */\n  mstore(0x40, 0x80)\n    /* \"PayAndWithdraw.sol\":473:522  constructor() {... */\n  callvalue\n  dup1\n  iszero\n  tag_1\n  jumpi\n  revert(0x00, 0x00)\ntag_1:\n  pop\n    /* \"PayAndWithdraw.sol\":505:515  msg.sender */\n  caller\n    /* \"PayAndWithdraw.sol\":497:502  owner */\n  0x00\n  0x00\n    /* \"PayAndWithdraw.sol\":497:515  owner = msg.sender */\n  0x0100\n  exp\n  dup2\n  sload\n  dup2\n  0xffffffffffffffffffffffffffffffffffffffff\n  mul\n  not\n  and\n  swap1\n  dup4\n  0xffffffffffffffffffffffffffffffffffffffff\n  and\n  mul\n  or\n  swap1\n  sstore\n  pop\n    /* \"PayAndWithdraw.sol\":58:1948  contract PayAndWithdraw {... */\n  dataSize(sub_0)\n  dup1\n  dataOffset(sub_0)\n  0x00\n  codecopy\n  0x00\n  return\nstop\n\nsub_0: assembly {\n        /* \"PayAndWithdraw.sol\":58:1948  contract PayAndWithdraw {... */\n      mstore(0x40, 0x80)\n      jumpi(tag_1, lt(calldatasize, 0x04))\n      shr(0xe0, calldataload(0x00))\n      dup1\n      0x5c43217b\n      gt\n      tag_10\n      jumpi\n      dup1\n      0x5c43217b\n      eq\n      tag_6\n      jumpi\n      dup1\n      0x6f9fb98a\n      eq\n      tag_7\n      jumpi\n      dup1\n      0x81c35cbd\n      eq\n      tag_8\n      jumpi\n      dup1\n      0x8da5cb5b\n      eq\n      tag_9\n      jumpi\n      jump(tag_2)\n    tag_10:\n      dup1\n      0xc07d09\n      eq\n      tag_3\n      jumpi\n      dup1\n      0x1f6d4942\n      eq\n      tag_4\n      jumpi\n      dup1\n      0x51cff8d9\n      eq\n      tag_5\n      jumpi\n      jump(tag_2)\n    tag_1:\n      jumpi(tag_2, calldatasize)\n        /* \"PayAndWithdraw.sol\":1762:1772  msg.sender */\n      caller\n        /* \"PayAndWithdraw.sol\":1753:1784  Received(msg.sender, msg.value) */\n      0xffffffffffffffffffffffffffffffffffffffff\n      and\n      0x88a5966d370b9919b20f3e2c13ff65706f196a4e32cc2c12bf57088f88525874\n        /* \"PayAndWithdraw.sol\":1774:1783  msg.value */\n      callvalue\n        /* \"PayAndWithdraw.sol\":1753:1784  Received(msg.sender, msg.value) */\n      mload(0x40)\n      tag_13\n      swap2\n      swap1\n      tag_14\n      jump\t// in\n    tag_13:\n      mload(0x40)\n      dup1\n      swap2\n      sub\n      swap1\n      log2\n        /* \"PayAndWithdraw.sol\":58:1948  contract PayAndWithdraw {... */\n      stop\n    tag_2:\n        /* \"PayAndWithdraw.sol\":1917:1927  msg.sender */\n      caller\n        /* \"PayAndWithdraw.sol\":1908:1939  Received(msg.sender, msg.value) */\n      0xffffffffffffffffffffffffffffffffffffffff\n      and\n      0x88a5966d370b9919b20f3e2c13ff65706f196a4e32cc2c12bf57088f88525874\n        /* \"PayAndWithdraw.sol\":1929:1938  msg.value */\n      callvalue\n        /* \"PayAndWithdraw.sol\":1908:1939  Received(msg.sender, msg.value) */\n      mload(0x40)\n      tag_17\n      swap2\n      swap1\n      tag_14\n      jump\t// in\n    tag_17:\n      mload(0x40)\n      dup1\n      swap2\n      sub\n      swap1\n      log2\n        /* \"PayAndWithdraw.sol\":58:1948  contract PayAndWithdraw {... */\n      stop\n        /* \"PayAndWithdraw.sol\":1584:1677  function mathExample(uint a, uint b) public pure returns (uint) {... */\n    tag_3:\n      callvalue\n      dup1\n      iszero\n      tag_18\n      jumpi\n      revert(0x00, 0x00)\n    tag_18:\n      pop\n      tag_19\n      0x04\n      dup1\n      calldatasize\n      sub\n      dup2\n      add\n      swap1\n      tag_20\n      swap2\n      swap1\n      tag_21\n      jump\t// in\n    tag_20:\n      tag_22\n      jump\t// in\n    tag_19:\n      mload(0x40)\n      tag_23\n      swap2\n      swap1\n      tag_14\n      jump\t// in\n    tag_23:\n      mload(0x40)\n      dup1\n      swap2\n      sub\n      swap1\n      return\n        /* \"PayAndWithdraw.sol\":228:279  mapping(address => Contributor) public contributors */\n    tag_4:\n      callvalue\n      dup1\n      iszero\n      tag_24\n      jumpi\n      revert(0x00, 0x00)\n    tag_24:\n      pop\n      tag_25\n      0x04\n      dup1\n      calldatasize\n      sub\n      dup2\n      add\n      swap1\n      tag_26\n      swap2\n      swap1\n      tag_27\n      jump\t// in\n    tag_26:\n      tag_28\n      jump\t// in\n    tag_25:\n      mload(0x40)\n      tag_29\n      swap3\n      swap2\n      swap1\n      tag_30\n      jump\t// in\n    tag_29:\n      mload(0x40)\n      dup1\n      swap2\n      sub\n      swap1\n      return\n        /* \"PayAndWithdraw.sol\":1065:1401  function withdraw(address payable _to) external {... */\n    tag_5:\n      callvalue\n      dup1\n      iszero\n      tag_31\n      jumpi\n      revert(0x00, 0x00)\n    tag_31:\n      pop\n      tag_32\n      0x04\n      dup1\n      calldatasize\n      sub\n      dup2\n      add\n      swap1\n      tag_33\n      swap2\n      swap1\n      tag_34\n      jump\t// in\n    tag_33:\n      tag_35\n      jump\t// in\n    tag_32:\n      stop\n        /* \"PayAndWithdraw.sol\":576:865  function contribute(string calldata _name) external payable {... */\n    tag_6:\n      tag_36\n      0x04\n      dup1\n      calldatasize\n      sub\n      dup2\n      add\n      swap1\n      tag_37\n      swap2\n      swap1\n      tag_38\n      jump\t// in\n    tag_37:\n      tag_39\n      jump\t// in\n    tag_36:\n      stop\n        /* \"PayAndWithdraw.sol\":1437:1542  function getContractBalance() public view returns (uint256) {... */\n    tag_7:\n      callvalue\n      dup1\n      iszero\n      tag_40\n      jumpi\n      revert(0x00, 0x00)\n    tag_40:\n      pop\n      tag_41\n      tag_42\n      jump\t// in\n    tag_41:\n      mload(0x40)\n      tag_43\n      swap2\n      swap1\n      tag_14\n      jump\t// in\n    tag_43:\n      mload(0x40)\n      dup1\n      swap2\n      sub\n      swap1\n      return\n        /* \"PayAndWithdraw.sol\":904:1018  function getMyContribution() public view returns (uint256) {... */\n    tag_8:\n      callvalue\n      dup1\n      iszero\n      tag_44\n      jumpi\n      revert(0x00, 0x00)\n    tag_44:\n      pop\n      tag_45\n      tag_46\n      jump\t// in\n    tag_45:\n      mload(0x40)\n      tag_47\n      swap2\n      swap1\n      tag_14\n      jump\t// in\n    tag_47:\n      mload(0x40)\n      dup1\n      swap2\n      sub\n      swap1\n      return\n        /* \"PayAndWithdraw.sol\":88:108  address public owner */\n    tag_9:\n      callvalue\n      dup1\n      iszero\n      tag_48\n      jumpi\n      revert(0x00, 0x00)\n    tag_48:\n      pop\n      tag_49\n      tag_50\n      jump\t// in\n    tag_49:\n      mload(0x40)\n      tag_51\n      swap2\n      swap1\n      tag_52\n      jump\t// in\n    tag_51:\n      mload(0x40)\n      dup1\n      swap2\n      sub\n      swap1\n      return\n        /* \"PayAndWithdraw.sol\":1584:1677  function mathExample(uint a, uint b) public pure returns (uint) {... */\n    tag_22:\n        /* \"PayAndWithdraw.sol\":1642:1646  uint */\n      0x00\n        /* \"PayAndWithdraw.sol\":1669:1670  b */\n      dup2\n        /* \"PayAndWithdraw.sol\":1665:1666  a */\n      dup4\n        /* \"PayAndWithdraw.sol\":1665:1670  a + b */\n      tag_54\n      swap2\n      swap1\n      tag_55\n      jump\t// in\n    tag_54:\n        /* \"PayAndWithdraw.sol\":1658:1670  return a + b */\n      swap1\n      pop\n        /* \"PayAndWithdraw.sol\":1584:1677  function mathExample(uint a, uint b) public pure returns (uint) {... */\n      swap3\n      swap2\n      pop\n      pop\n      jump\t// out\n        /* \"PayAndWithdraw.sol\":228:279  mapping(address => Contributor) public contributors */\n    tag_28:\n      mstore(0x20, 0x01)\n      dup1\n      0x00\n      mstore\n      keccak256(0x00, 0x40)\n      0x00\n      swap2\n      pop\n      swap1\n      pop\n      dup1\n      0x00\n      add\n      dup1\n      sload\n      tag_56\n      swap1\n      tag_57\n      jump\t// in\n    tag_56:\n      dup1\n      0x1f\n      add\n      0x20\n      dup1\n      swap2\n      div\n      mul\n      0x20\n      add\n      mload(0x40)\n      swap1\n      dup2\n      add\n      0x40\n      mstore\n      dup1\n      swap3\n      swap2\n      swap1\n      dup2\n      dup2\n      mstore\n      0x20\n      add\n      dup3\n      dup1\n      sload\n      tag_58\n      swap1\n      tag_57\n      jump\t// in\n    tag_58:\n      dup1\n      iszero\n      tag_59\n      jumpi\n      dup1\n      0x1f\n      lt\n      tag_60\n      jumpi\n      0x0100\n      dup1\n      dup4\n      sload\n      div\n      mul\n      dup4\n      mstore\n      swap2\n      0x20\n      add\n      swap2\n      jump(tag_59)\n    tag_60:\n      dup3\n      add\n      swap2\n      swap1\n      0x00\n      mstore\n      keccak256(0x00, 0x20)\n      swap1\n    tag_61:\n      dup2\n      sload\n      dup2\n      mstore\n      swap1\n      0x01\n      add\n      swap1\n      0x20\n      add\n      dup1\n      dup4\n      gt\n      tag_61\n      jumpi\n      dup3\n      swap1\n      sub\n      0x1f\n      and\n      dup3\n      add\n      swap2\n    tag_59:\n      pop\n      pop\n      pop\n      pop\n      pop\n      swap1\n      dup1\n      0x01\n      add\n      sload\n      swap1\n      pop\n      dup3\n      jump\t// out\n        /* \"PayAndWithdraw.sol\":1065:1401  function withdraw(address payable _to) external {... */\n    tag_35:\n        /* \"PayAndWithdraw.sol\":1145:1150  owner */\n      0x00\n      0x00\n      swap1\n      sload\n      swap1\n      0x0100\n      exp\n      swap1\n      div\n      0xffffffffffffffffffffffffffffffffffffffff\n      and\n        /* \"PayAndWithdraw.sol\":1131:1150  msg.sender == owner */\n      0xffffffffffffffffffffffffffffffffffffffff\n      and\n        /* \"PayAndWithdraw.sol\":1131:1141  msg.sender */\n      caller\n        /* \"PayAndWithdraw.sol\":1131:1150  msg.sender == owner */\n      0xffffffffffffffffffffffffffffffffffffffff\n      and\n      eq\n        /* \"PayAndWithdraw.sol\":1123:1165  require(msg.sender == owner, \"Only owner\") */\n      tag_63\n      jumpi\n      mload(0x40)\n      0x08c379a000000000000000000000000000000000000000000000000000000000\n      dup2\n      mstore\n      0x04\n      add\n      tag_64\n      swap1\n      tag_65\n      jump\t// in\n    tag_64:\n      mload(0x40)\n      dup1\n      swap2\n      sub\n      swap1\n      revert\n    tag_63:\n        /* \"PayAndWithdraw.sol\":1175:1190  uint256 balance */\n      0x00\n        /* \"PayAndWithdraw.sol\":1193:1214  address(this).balance */\n      selfbalance\n        /* \"PayAndWithdraw.sol\":1175:1214  uint256 balance = address(this).balance */\n      swap1\n      pop\n        /* \"PayAndWithdraw.sol\":1242:1243  0 */\n      0x00\n        /* \"PayAndWithdraw.sol\":1232:1239  balance */\n      dup2\n        /* \"PayAndWithdraw.sol\":1232:1243  balance > 0 */\n      gt\n        /* \"PayAndWithdraw.sol\":1224:1258  require(balance > 0, \"No balance\") */\n      tag_66\n      jumpi\n      mload(0x40)\n      0x08c379a000000000000000000000000000000000000000000000000000000000\n      dup2\n      mstore\n      0x04\n      add\n      tag_67\n      swap1\n      tag_68\n      jump\t// in\n    tag_67:\n      mload(0x40)\n      dup1\n      swap2\n      sub\n      swap1\n      revert\n    tag_66:\n        /* \"PayAndWithdraw.sol\":1270:1279  bool sent */\n      0x00\n        /* \"PayAndWithdraw.sol\":1285:1288  _to */\n      dup3\n        /* \"PayAndWithdraw.sol\":1285:1293  _to.call */\n      0xffffffffffffffffffffffffffffffffffffffff\n      and\n        /* \"PayAndWithdraw.sol\":1301:1308  balance */\n      dup3\n        /* \"PayAndWithdraw.sol\":1285:1313  _to.call{value: balance}(\"\") */\n      mload(0x40)\n      tag_69\n      swap1\n      tag_70\n      jump\t// in\n    tag_69:\n      0x00\n      mload(0x40)\n      dup1\n      dup4\n      sub\n      dup2\n      dup6\n      dup8\n      gas\n      call\n      swap3\n      pop\n      pop\n      pop\n      returndatasize\n      dup1\n      0x00\n      dup2\n      eq\n      tag_73\n      jumpi\n      mload(0x40)\n      swap2\n      pop\n      and(add(returndatasize, 0x3f), not(0x1f))\n      dup3\n      add\n      0x40\n      mstore\n      returndatasize\n      dup3\n      mstore\n      returndatasize\n      0x00\n      0x20\n      dup5\n      add\n      returndatacopy\n      jump(tag_72)\n    tag_73:\n      0x60\n      swap2\n      pop\n    tag_72:\n      pop\n        /* \"PayAndWithdraw.sol\":1269:1313  (bool sent, ) = _to.call{value: balance}(\"\") */\n      pop\n      swap1\n      pop\n        /* \"PayAndWithdraw.sol\":1331:1335  sent */\n      dup1\n        /* \"PayAndWithdraw.sol\":1323:1355  require(sent, \"Transfer failed\") */\n      tag_74\n      jumpi\n      mload(0x40)\n      0x08c379a000000000000000000000000000000000000000000000000000000000\n      dup2\n      mstore\n      0x04\n      add\n      tag_75\n      swap1\n      tag_76\n      jump\t// in\n    tag_75:\n      mload(0x40)\n      dup1\n      swap2\n      sub\n      swap1\n      revert\n    tag_74:\n        /* \"PayAndWithdraw.sol\":1381:1384  _to */\n      dup3\n        /* \"PayAndWithdraw.sol\":1371:1394  Withdrawn(_to, balance) */\n      0xffffffffffffffffffffffffffffffffffffffff\n      and\n      0x7084f5476618d8e60b11ef0d7d3f06914655adb8793e28ff7f018d4c76d505d5\n        /* \"PayAndWithdraw.sol\":1386:1393  balance */\n      dup4\n        /* \"PayAndWithdraw.sol\":1371:1394  Withdrawn(_to, balance) */\n      mload(0x40)\n      tag_77\n      swap2\n      swap1\n      tag_14\n      jump\t// in\n    tag_77:\n      mload(0x40)\n      dup1\n      swap2\n      sub\n      swap1\n      log2\n        /* \"PayAndWithdraw.sol\":1113:1401  {... */\n      pop\n      pop\n        /* \"PayAndWithdraw.sol\":1065:1401  function withdraw(address payable _to) external {... */\n      pop\n      jump\t// out\n        /* \"PayAndWithdraw.sol\":576:865  function contribute(string calldata _name) external payable {... */\n    tag_39:\n        /* \"PayAndWithdraw.sol\":666:667  0 */\n      0x00\n        /* \"PayAndWithdraw.sol\":654:663  msg.value */\n      callvalue\n        /* \"PayAndWithdraw.sol\":654:667  msg.value > 0 */\n      gt\n        /* \"PayAndWithdraw.sol\":646:694  require(msg.value > 0, \"Send ETH to contribute\") */\n      tag_79\n      jumpi\n      mload(0x40)\n      0x08c379a000000000000000000000000000000000000000000000000000000000\n      dup2\n      mstore\n      0x04\n      add\n      tag_80\n      swap1\n      tag_81\n      jump\t// in\n    tag_80:\n      mload(0x40)\n      dup1\n      swap2\n      sub\n      swap1\n      revert\n    tag_79:\n        /* \"PayAndWithdraw.sol\":705:726  Contributor storage c */\n      0x00\n        /* \"PayAndWithdraw.sol\":729:741  contributors */\n      0x01\n        /* \"PayAndWithdraw.sol\":729:753  contributors[msg.sender] */\n      0x00\n        /* \"PayAndWithdraw.sol\":742:752  msg.sender */\n      caller\n        /* \"PayAndWithdraw.sol\":729:753  contributors[msg.sender] */\n      0xffffffffffffffffffffffffffffffffffffffff\n      and\n      0xffffffffffffffffffffffffffffffffffffffff\n      and\n      dup2\n      mstore\n      0x20\n      add\n      swap1\n      dup2\n      mstore\n      0x20\n      add\n      0x00\n      keccak256\n        /* \"PayAndWithdraw.sol\":705:753  Contributor storage c = contributors[msg.sender] */\n      swap1\n      pop\n        /* \"PayAndWithdraw.sol\":772:777  _name */\n      dup3\n      dup3\n        /* \"PayAndWithdraw.sol\":763:764  c */\n      dup3\n        /* \"PayAndWithdraw.sol\":763:769  c.name */\n      0x00\n      add\n        /* \"PayAndWithdraw.sol\":763:777  c.name = _name */\n      swap2\n      dup3\n      tag_82\n      swap3\n      swap2\n      swap1\n      tag_83\n      jump\t// in\n    tag_82:\n      pop\n        /* \"PayAndWithdraw.sol\":799:808  msg.value */\n      callvalue\n        /* \"PayAndWithdraw.sol\":787:788  c */\n      dup2\n        /* \"PayAndWithdraw.sol\":787:795  c.amount */\n      0x01\n      add\n      0x00\n        /* \"PayAndWithdraw.sol\":787:808  c.amount += msg.value */\n      dup3\n      dup3\n      sload\n      tag_84\n      swap2\n      swap1\n      tag_55\n      jump\t// in\n    tag_84:\n      swap3\n      pop\n      pop\n      dup2\n      swap1\n      sstore\n      pop\n        /* \"PayAndWithdraw.sol\":829:839  msg.sender */\n      caller\n        /* \"PayAndWithdraw.sol\":824:858  Paid(msg.sender, msg.value, _name) */\n      0xffffffffffffffffffffffffffffffffffffffff\n      and\n      0x301e53e15e76435e17105dd850449ba166cf4c46826c93a338cb73191b5a7420\n        /* \"PayAndWithdraw.sol\":841:850  msg.value */\n      callvalue\n        /* \"PayAndWithdraw.sol\":852:857  _name */\n      dup6\n      dup6\n        /* \"PayAndWithdraw.sol\":824:858  Paid(msg.sender, msg.value, _name) */\n      mload(0x40)\n      tag_85\n      swap4\n      swap3\n      swap2\n      swap1\n      tag_86\n      jump\t// in\n    tag_85:\n      mload(0x40)\n      dup1\n      swap2\n      sub\n      swap1\n      log2\n        /* \"PayAndWithdraw.sol\":636:865  {... */\n      pop\n        /* \"PayAndWithdraw.sol\":576:865  function contribute(string calldata _name) external payable {... */\n      pop\n      pop\n      jump\t// out\n        /* \"PayAndWithdraw.sol\":1437:1542  function getContractBalance() public view returns (uint256) {... */\n    tag_42:\n        /* \"PayAndWithdraw.sol\":1488:1495  uint256 */\n      0x00\n        /* \"PayAndWithdraw.sol\":1514:1535  address(this).balance */\n      selfbalance\n        /* \"PayAndWithdraw.sol\":1507:1535  return address(this).balance */\n      swap1\n      pop\n        /* \"PayAndWithdraw.sol\":1437:1542  function getContractBalance() public view returns (uint256) {... */\n      swap1\n      jump\t// out\n        /* \"PayAndWithdraw.sol\":904:1018  function getMyContribution() public view returns (uint256) {... */\n    tag_46:\n        /* \"PayAndWithdraw.sol\":954:961  uint256 */\n      0x00\n        /* \"PayAndWithdraw.sol\":980:992  contributors */\n      0x01\n        /* \"PayAndWithdraw.sol\":980:1004  contributors[msg.sender] */\n      0x00\n        /* \"PayAndWithdraw.sol\":993:1003  msg.sender */\n      caller\n        /* \"PayAndWithdraw.sol\":980:1004  contributors[msg.sender] */\n      0xffffffffffffffffffffffffffffffffffffffff\n      and\n      0xffffffffffffffffffffffffffffffffffffffff\n      and\n      dup2\n      mstore\n      0x20\n      add\n      swap1\n      dup2\n      mstore\n      0x20\n      add\n      0x00\n      keccak256\n        /* \"PayAndWithdraw.sol\":980:1011  contributors[msg.sender].amount */\n      0x01\n      add\n      sload\n        /* \"PayAndWithdraw.sol\":973:1011  return contributors[msg.sender].amount */\n      swap1\n      pop\n        /* \"PayAndWithdraw.sol\":904:1018  function getMyContribution() public view returns (uint256) {... */\n      swap1\n      jump\t// out\n        /* \"PayAndWithdraw.sol\":88:108  address public owner */\n    tag_50:\n      0x00\n      0x00\n      swap1\n      sload\n      swap1\n      0x0100\n      exp\n      swap1\n      div\n      0xffffffffffffffffffffffffffffffffffffffff\n      and\n      dup2\n      jump\t// out\n        /* \"#utility.yul\":7:84   */\n    tag_89:\n        /* \"#utility.yul\":44:51   */\n      0x00\n        /* \"#utility.yul\":73:78   */\n      dup2\n        /* \"#utility.yul\":62:78   */\n      swap1\n      pop\n        /* \"#utility.yul\":7:84   */\n      swap2\n      swap1\n      pop\n      jump\t// out\n        /* \"#utility.yul\":90:208   */\n    tag_90:\n        /* \"#utility.yul\":177:201   */\n      tag_148\n        /* \"#utility.yul\":195:200   */\n      dup2\n        /* \"#utility.yul\":177:201   */\n      tag_89\n      jump\t// in\n    tag_148:\n        /* \"#utility.yul\":172:175   */\n      dup3\n        /* \"#utility.yul\":165:202   */\n      mstore\n        /* \"#utility.yul\":90:208   */\n      pop\n      pop\n      jump\t// out\n        /* \"#utility.yul\":214:436   */\n    tag_14:\n        /* \"#utility.yul\":307:311   */\n      0x00\n        /* \"#utility.yul\":345:347   */\n      0x20\n        /* \"#utility.yul\":334:343   */\n      dup3\n        /* \"#utility.yul\":330:348   */\n      add\n        /* \"#utility.yul\":322:348   */\n      swap1\n      pop\n        /* \"#utility.yul\":358:429   */\n      tag_150\n        /* \"#utility.yul\":426:427   */\n      0x00\n        /* \"#utility.yul\":415:424   */\n      dup4\n        /* \"#utility.yul\":411:428   */\n      add\n        /* \"#utility.yul\":402:408   */\n      dup5\n        /* \"#utility.yul\":358:429   */\n      tag_90\n      jump\t// in\n    tag_150:\n        /* \"#utility.yul\":214:436   */\n      swap3\n      swap2\n      pop\n      pop\n      jump\t// out\n        /* \"#utility.yul\":523:640   */\n    tag_92:\n        /* \"#utility.yul\":632:633   */\n      0x00\n        /* \"#utility.yul\":629:630   */\n      0x00\n        /* \"#utility.yul\":622:634   */\n      revert\n        /* \"#utility.yul\":646:763   */\n    tag_93:\n        /* \"#utility.yul\":755:756   */\n      0x00\n        /* \"#utility.yul\":752:753   */\n      0x00\n        /* \"#utility.yul\":745:757   */\n      revert\n        /* \"#utility.yul\":769:891   */\n    tag_94:\n        /* \"#utility.yul\":842:866   */\n      tag_155\n        /* \"#utility.yul\":860:865   */\n      dup2\n        /* \"#utility.yul\":842:866   */\n      tag_89\n      jump\t// in\n    tag_155:\n        /* \"#utility.yul\":835:840   */\n      dup2\n        /* \"#utility.yul\":832:867   */\n      eq\n        /* \"#utility.yul\":822:885   */\n      tag_156\n      jumpi\n        /* \"#utility.yul\":881:882   */\n      0x00\n        /* \"#utility.yul\":878:879   */\n      0x00\n        /* \"#utility.yul\":871:883   */\n      revert\n        /* \"#utility.yul\":822:885   */\n    tag_156:\n        /* \"#utility.yul\":769:891   */\n      pop\n      jump\t// out\n        /* \"#utility.yul\":897:1036   */\n    tag_95:\n        /* \"#utility.yul\":943:948   */\n      0x00\n        /* \"#utility.yul\":981:987   */\n      dup2\n        /* \"#utility.yul\":968:988   */\n      calldataload\n        /* \"#utility.yul\":959:988   */\n      swap1\n      pop\n        /* \"#utility.yul\":997:1030   */\n      tag_158\n        /* \"#utility.yul\":1024:1029   */\n      dup2\n        /* \"#utility.yul\":997:1030   */\n      tag_94\n      jump\t// in\n    tag_158:\n        /* \"#utility.yul\":897:1036   */\n      swap3\n      swap2\n      pop\n      pop\n      jump\t// out\n        /* \"#utility.yul\":1042:1516   */\n    tag_21:\n        /* \"#utility.yul\":1110:1116   */\n      0x00\n        /* \"#utility.yul\":1118:1124   */\n      0x00\n        /* \"#utility.yul\":1167:1169   */\n      0x40\n        /* \"#utility.yul\":1155:1164   */\n      dup4\n        /* \"#utility.yul\":1146:1153   */\n      dup6\n        /* \"#utility.yul\":1142:1165   */\n      sub\n        /* \"#utility.yul\":1138:1170   */\n      slt\n        /* \"#utility.yul\":1135:1254   */\n      iszero\n      tag_160\n      jumpi\n        /* \"#utility.yul\":1173:1252   */\n      tag_161\n      tag_92\n      jump\t// in\n    tag_161:\n        /* \"#utility.yul\":1135:1254   */\n    tag_160:\n        /* \"#utility.yul\":1293:1294   */\n      0x00\n        /* \"#utility.yul\":1318:1371   */\n      tag_162\n        /* \"#utility.yul\":1363:1370   */\n      dup6\n        /* \"#utility.yul\":1354:1360   */\n      dup3\n        /* \"#utility.yul\":1343:1352   */\n      dup7\n        /* \"#utility.yul\":1339:1361   */\n      add\n        /* \"#utility.yul\":1318:1371   */\n      tag_95\n      jump\t// in\n    tag_162:\n        /* \"#utility.yul\":1308:1371   */\n      swap3\n      pop\n        /* \"#utility.yul\":1264:1381   */\n      pop\n        /* \"#utility.yul\":1420:1422   */\n      0x20\n        /* \"#utility.yul\":1446:1499   */\n      tag_163\n        /* \"#utility.yul\":1491:1498   */\n      dup6\n        /* \"#utility.yul\":1482:1488   */\n      dup3\n        /* \"#utility.yul\":1471:1480   */\n      dup7\n        /* \"#utility.yul\":1467:1489   */\n      add\n        /* \"#utility.yul\":1446:1499   */\n      tag_95\n      jump\t// in\n    tag_163:\n        /* \"#utility.yul\":1436:1499   */\n      swap2\n      pop\n        /* \"#utility.yul\":1391:1509   */\n      pop\n        /* \"#utility.yul\":1042:1516   */\n      swap3\n      pop\n      swap3\n      swap1\n      pop\n      jump\t// out\n        /* \"#utility.yul\":1522:1648   */\n    tag_96:\n        /* \"#utility.yul\":1559:1566   */\n      0x00\n        /* \"#utility.yul\":1599:1641   */\n      0xffffffffffffffffffffffffffffffffffffffff\n        /* \"#utility.yul\":1592:1597   */\n      dup3\n        /* \"#utility.yul\":1588:1642   */\n      and\n        /* \"#utility.yul\":1577:1642   */\n      swap1\n      pop\n        /* \"#utility.yul\":1522:1648   */\n      swap2\n      swap1\n      pop\n      jump\t// out\n        /* \"#utility.yul\":1654:1750   */\n    tag_97:\n        /* \"#utility.yul\":1691:1698   */\n      0x00\n        /* \"#utility.yul\":1720:1744   */\n      tag_166\n        /* \"#utility.yul\":1738:1743   */\n      dup3\n        /* \"#utility.yul\":1720:1744   */\n      tag_96\n      jump\t// in\n    tag_166:\n        /* \"#utility.yul\":1709:1744   */\n      swap1\n      pop\n        /* \"#utility.yul\":1654:1750   */\n      swap2\n      swap1\n      pop\n      jump\t// out\n        /* \"#utility.yul\":1756:1878   */\n    tag_98:\n        /* \"#utility.yul\":1829:1853   */\n      tag_168\n        /* \"#utility.yul\":1847:1852   */\n      dup2\n        /* \"#utility.yul\":1829:1853   */\n      tag_97\n      jump\t// in\n    tag_168:\n        /* \"#utility.yul\":1822:1827   */\n      dup2\n        /* \"#utility.yul\":1819:1854   */\n      eq\n        /* \"#utility.yul\":1809:1872   */\n      tag_169\n      jumpi\n        /* \"#utility.yul\":1868:1869   */\n      0x00\n        /* \"#utility.yul\":1865:1866   */\n      0x00\n        /* \"#utility.yul\":1858:1870   */\n      revert\n        /* \"#utility.yul\":1809:1872   */\n    tag_169:\n        /* \"#utility.yul\":1756:1878   */\n      pop\n      jump\t// out\n        /* \"#utility.yul\":1884:2023   */\n    tag_99:\n        /* \"#utility.yul\":1930:1935   */\n      0x00\n        /* \"#utility.yul\":1968:1974   */\n      dup2\n        /* \"#utility.yul\":1955:1975   */\n      calldataload\n        /* \"#utility.yul\":1946:1975   */\n      swap1\n      pop\n        /* \"#utility.yul\":1984:2017   */\n      tag_171\n        /* \"#utility.yul\":2011:2016   */\n      dup2\n        /* \"#utility.yul\":1984:2017   */\n      tag_98\n      jump\t// in\n    tag_171:\n        /* \"#utility.yul\":1884:2023   */\n      swap3\n      swap2\n      pop\n      pop\n      jump\t// out\n        /* \"#utility.yul\":2029:2358   */\n    tag_27:\n        /* \"#utility.yul\":2088:2094   */\n      0x00\n        /* \"#utility.yul\":2137:2139   */\n      0x20\n        /* \"#utility.yul\":2125:2134   */\n      dup3\n        /* \"#utility.yul\":2116:2123   */\n      dup5\n        /* \"#utility.yul\":2112:2135   */\n      sub\n        /* \"#utility.yul\":2108:2140   */\n      slt\n        /* \"#utility.yul\":2105:2224   */\n      iszero\n      tag_173\n      jumpi\n        /* \"#utility.yul\":2143:2222   */\n      tag_174\n      tag_92\n      jump\t// in\n    tag_174:\n        /* \"#utility.yul\":2105:2224   */\n    tag_173:\n        /* \"#utility.yul\":2263:2264   */\n      0x00\n        /* \"#utility.yul\":2288:2341   */\n      tag_175\n        /* \"#utility.yul\":2333:2340   */\n      dup5\n        /* \"#utility.yul\":2324:2330   */\n      dup3\n        /* \"#utility.yul\":2313:2322   */\n      dup6\n        /* \"#utility.yul\":2309:2331   */\n      add\n        /* \"#utility.yul\":2288:2341   */\n      tag_99\n      jump\t// in\n    tag_175:\n        /* \"#utility.yul\":2278:2341   */\n      swap2\n      pop\n        /* \"#utility.yul\":2234:2351   */\n      pop\n        /* \"#utility.yul\":2029:2358   */\n      swap3\n      swap2\n      pop\n      pop\n      jump\t// out\n        /* \"#utility.yul\":2364:2463   */\n    tag_100:\n        /* \"#utility.yul\":2416:2422   */\n      0x00\n        /* \"#utility.yul\":2450:2455   */\n      dup2\n        /* \"#utility.yul\":2444:2456   */\n      mload\n        /* \"#utility.yul\":2434:2456   */\n      swap1\n      pop\n        /* \"#utility.yul\":2364:2463   */\n      swap2\n      swap1\n      pop\n      jump\t// out\n        /* \"#utility.yul\":2469:2638   */\n    tag_101:\n        /* \"#utility.yul\":2553:2564   */\n      0x00\n        /* \"#utility.yul\":2587:2593   */\n      dup3\n        /* \"#utility.yul\":2582:2585   */\n      dup3\n        /* \"#utility.yul\":2575:2594   */\n      mstore\n        /* \"#utility.yul\":2627:2631   */\n      0x20\n        /* \"#utility.yul\":2622:2625   */\n      dup3\n        /* \"#utility.yul\":2618:2632   */\n      add\n        /* \"#utility.yul\":2603:2632   */\n      swap1\n      pop\n        /* \"#utility.yul\":2469:2638   */\n      swap3\n      swap2\n      pop\n      pop\n      jump\t// out\n        /* \"#utility.yul\":2644:2783   */\n    tag_102:\n        /* \"#utility.yul\":2733:2739   */\n      dup3\n        /* \"#utility.yul\":2728:2731   */\n      dup2\n        /* \"#utility.yul\":2723:2726   */\n      dup4\n        /* \"#utility.yul\":2717:2740   */\n      mcopy\n        /* \"#utility.yul\":2774:2775   */\n      0x00\n        /* \"#utility.yul\":2765:2771   */\n      dup4\n        /* \"#utility.yul\":2760:2763   */\n      dup4\n        /* \"#utility.yul\":2756:2772   */\n      add\n        /* \"#utility.yul\":2749:2776   */\n      mstore\n        /* \"#utility.yul\":2644:2783   */\n      pop\n      pop\n      pop\n      jump\t// out\n        /* \"#utility.yul\":2789:2891   */\n    tag_103:\n        /* \"#utility.yul\":2830:2836   */\n      0x00\n        /* \"#utility.yul\":2881:2883   */\n      0x1f\n        /* \"#utility.yul\":2877:2884   */\n      not\n        /* \"#utility.yul\":2872:2874   */\n      0x1f\n        /* \"#utility.yul\":2865:2870   */\n      dup4\n        /* \"#utility.yul\":2861:2875   */\n      add\n        /* \"#utility.yul\":2857:2885   */\n      and\n        /* \"#utility.yul\":2847:2885   */\n      swap1\n      pop\n        /* \"#utility.yul\":2789:2891   */\n      swap2\n      swap1\n      pop\n      jump\t// out\n        /* \"#utility.yul\":2897:3274   */\n    tag_104:\n        /* \"#utility.yul\":2985:2988   */\n      0x00\n        /* \"#utility.yul\":3013:3052   */\n      tag_181\n        /* \"#utility.yul\":3046:3051   */\n      dup3\n        /* \"#utility.yul\":3013:3052   */\n      tag_100\n      jump\t// in\n    tag_181:\n        /* \"#utility.yul\":3068:3139   */\n      tag_182\n        /* \"#utility.yul\":3132:3138   */\n      dup2\n        /* \"#utility.yul\":3127:3130   */\n      dup6\n        /* \"#utility.yul\":3068:3139   */\n      tag_101\n      jump\t// in\n    tag_182:\n        /* \"#utility.yul\":3061:3139   */\n      swap4\n      pop\n        /* \"#utility.yul\":3148:3213   */\n      tag_183\n        /* \"#utility.yul\":3206:3212   */\n      dup2\n        /* \"#utility.yul\":3201:3204   */\n      dup6\n        /* \"#utility.yul\":3194:3198   */\n      0x20\n        /* \"#utility.yul\":3187:3192   */\n      dup7\n        /* \"#utility.yul\":3183:3199   */\n      add\n        /* \"#utility.yul\":3148:3213   */\n      tag_102\n      jump\t// in\n    tag_183:\n        /* \"#utility.yul\":3238:3267   */\n      tag_184\n        /* \"#utility.yul\":3260:3266   */\n      dup2\n        /* \"#utility.yul\":3238:3267   */\n      tag_103\n      jump\t// in\n    tag_184:\n        /* \"#utility.yul\":3233:3236   */\n      dup5\n        /* \"#utility.yul\":3229:3268   */\n      add\n        /* \"#utility.yul\":3222:3268   */\n      swap2\n      pop\n        /* \"#utility.yul\":2989:3274   */\n      pop\n        /* \"#utility.yul\":2897:3274   */\n      swap3\n      swap2\n      pop\n      pop\n      jump\t// out\n        /* \"#utility.yul\":3280:3703   */\n    tag_30:\n        /* \"#utility.yul\":3421:3425   */\n      0x00\n        /* \"#utility.yul\":3459:3461   */\n      0x40\n        /* \"#utility.yul\":3448:3457   */\n      dup3\n        /* \"#utility.yul\":3444:3462   */\n      add\n        /* \"#utility.yul\":3436:3462   */\n      swap1\n      pop\n        /* \"#utility.yul\":3508:3517   */\n      dup2\n        /* \"#utility.yul\":3502:3506   */\n      dup2\n        /* \"#utility.yul\":3498:3518   */\n      sub\n        /* \"#utility.yul\":3494:3495   */\n      0x00\n        /* \"#utility.yul\":3483:3492   */\n      dup4\n        /* \"#utility.yul\":3479:3496   */\n      add\n        /* \"#utility.yul\":3472:3519   */\n      mstore\n        /* \"#utility.yul\":3536:3614   */\n      tag_186\n        /* \"#utility.yul\":3609:3613   */\n      dup2\n        /* \"#utility.yul\":3600:3606   */\n      dup6\n        /* \"#utility.yul\":3536:3614   */\n      tag_104\n      jump\t// in\n    tag_186:\n        /* \"#utility.yul\":3528:3614   */\n      swap1\n      pop\n        /* \"#utility.yul\":3624:3696   */\n      tag_187\n        /* \"#utility.yul\":3692:3694   */\n      0x20\n        /* \"#utility.yul\":3681:3690   */\n      dup4\n        /* \"#utility.yul\":3677:3695   */\n      add\n        /* \"#utility.yul\":3668:3674   */\n      dup5\n        /* \"#utility.yul\":3624:3696   */\n      tag_90\n      jump\t// in\n    tag_187:\n        /* \"#utility.yul\":3280:3703   */\n      swap4\n      swap3\n      pop\n      pop\n      pop\n      jump\t// out\n        /* \"#utility.yul\":3709:3813   */\n    tag_105:\n        /* \"#utility.yul\":3754:3761   */\n      0x00\n        /* \"#utility.yul\":3783:3807   */\n      tag_189\n        /* \"#utility.yul\":3801:3806   */\n      dup3\n        /* \"#utility.yul\":3783:3807   */\n      tag_96\n      jump\t// in\n    tag_189:\n        /* \"#utility.yul\":3772:3807   */\n      swap1\n      pop\n        /* \"#utility.yul\":3709:3813   */\n      swap2\n      swap1\n      pop\n      jump\t// out\n        /* \"#utility.yul\":3819:3957   */\n    tag_106:\n        /* \"#utility.yul\":3900:3932   */\n      tag_191\n        /* \"#utility.yul\":3926:3931   */\n      dup2\n        /* \"#utility.yul\":3900:3932   */\n      tag_105\n      jump\t// in\n    tag_191:\n        /* \"#utility.yul\":3893:3898   */\n      dup2\n        /* \"#utility.yul\":3890:3933   */\n      eq\n        /* \"#utility.yul\":3880:3951   */\n      tag_192\n      jumpi\n        /* \"#utility.yul\":3947:3948   */\n      0x00\n        /* \"#utility.yul\":3944:3945   */\n      0x00\n        /* \"#utility.yul\":3937:3949   */\n      revert\n        /* \"#utility.yul\":3880:3951   */\n    tag_192:\n        /* \"#utility.yul\":3819:3957   */\n      pop\n      jump\t// out\n        /* \"#utility.yul\":3963:4118   */\n    tag_107:\n        /* \"#utility.yul\":4017:4022   */\n      0x00\n        /* \"#utility.yul\":4055:4061   */\n      dup2\n        /* \"#utility.yul\":4042:4062   */\n      calldataload\n        /* \"#utility.yul\":4033:4062   */\n      swap1\n      pop\n        /* \"#utility.yul\":4071:4112   */\n      tag_194\n        /* \"#utility.yul\":4106:4111   */\n      dup2\n        /* \"#utility.yul\":4071:4112   */\n      tag_106\n      jump\t// in\n    tag_194:\n        /* \"#utility.yul\":3963:4118   */\n      swap3\n      swap2\n      pop\n      pop\n      jump\t// out\n        /* \"#utility.yul\":4124:4469   */\n    tag_34:\n        /* \"#utility.yul\":4191:4197   */\n      0x00\n        /* \"#utility.yul\":4240:4242   */\n      0x20\n        /* \"#utility.yul\":4228:4237   */\n      dup3\n        /* \"#utility.yul\":4219:4226   */\n      dup5\n        /* \"#utility.yul\":4215:4238   */\n      sub\n        /* \"#utility.yul\":4211:4243   */\n      slt\n        /* \"#utility.yul\":4208:4327   */\n      iszero\n      tag_196\n      jumpi\n        /* \"#utility.yul\":4246:4325   */\n      tag_197\n      tag_92\n      jump\t// in\n    tag_197:\n        /* \"#utility.yul\":4208:4327   */\n    tag_196:\n        /* \"#utility.yul\":4366:4367   */\n      0x00\n        /* \"#utility.yul\":4391:4452   */\n      tag_198\n        /* \"#utility.yul\":4444:4451   */\n      dup5\n        /* \"#utility.yul\":4435:4441   */\n      dup3\n        /* \"#utility.yul\":4424:4433   */\n      dup6\n        /* \"#utility.yul\":4420:4442   */\n      add\n        /* \"#utility.yul\":4391:4452   */\n      tag_107\n      jump\t// in\n    tag_198:\n        /* \"#utility.yul\":4381:4452   */\n      swap2\n      pop\n        /* \"#utility.yul\":4337:4462   */\n      pop\n        /* \"#utility.yul\":4124:4469   */\n      swap3\n      swap2\n      pop\n      pop\n      jump\t// out\n        /* \"#utility.yul\":4475:4592   */\n    tag_108:\n        /* \"#utility.yul\":4584:4585   */\n      0x00\n        /* \"#utility.yul\":4581:4582   */\n      0x00\n        /* \"#utility.yul\":4574:4586   */\n      revert\n        /* \"#utility.yul\":4598:4715   */\n    tag_109:\n        /* \"#utility.yul\":4707:4708   */\n      0x00\n        /* \"#utility.yul\":4704:4705   */\n      0x00\n        /* \"#utility.yul\":4697:4709   */\n      revert\n        /* \"#utility.yul\":4721:4838   */\n    tag_110:\n        /* \"#utility.yul\":4830:4831   */\n      0x00\n        /* \"#utility.yul\":4827:4828   */\n      0x00\n        /* \"#utility.yul\":4820:4832   */\n      revert\n        /* \"#utility.yul\":4858:5411   */\n    tag_111:\n        /* \"#utility.yul\":4916:4924   */\n      0x00\n        /* \"#utility.yul\":4926:4932   */\n      0x00\n        /* \"#utility.yul\":4976:4979   */\n      dup4\n        /* \"#utility.yul\":4969:4973   */\n      0x1f\n        /* \"#utility.yul\":4961:4967   */\n      dup5\n        /* \"#utility.yul\":4957:4974   */\n      add\n        /* \"#utility.yul\":4953:4980   */\n      slt\n        /* \"#utility.yul\":4943:5065   */\n      tag_203\n      jumpi\n        /* \"#utility.yul\":4984:5063   */\n      tag_204\n      tag_108\n      jump\t// in\n    tag_204:\n        /* \"#utility.yul\":4943:5065   */\n    tag_203:\n        /* \"#utility.yul\":5097:5103   */\n      dup3\n        /* \"#utility.yul\":5084:5104   */\n      calldataload\n        /* \"#utility.yul\":5074:5104   */\n      swap1\n      pop\n        /* \"#utility.yul\":5127:5145   */\n      0xffffffffffffffff\n        /* \"#utility.yul\":5119:5125   */\n      dup2\n        /* \"#utility.yul\":5116:5146   */\n      gt\n        /* \"#utility.yul\":5113:5230   */\n      iszero\n      tag_205\n      jumpi\n        /* \"#utility.yul\":5149:5228   */\n      tag_206\n      tag_109\n      jump\t// in\n    tag_206:\n        /* \"#utility.yul\":5113:5230   */\n    tag_205:\n        /* \"#utility.yul\":5263:5267   */\n      0x20\n        /* \"#utility.yul\":5255:5261   */\n      dup4\n        /* \"#utility.yul\":5251:5268   */\n      add\n        /* \"#utility.yul\":5239:5268   */\n      swap2\n      pop\n        /* \"#utility.yul\":5317:5320   */\n      dup4\n        /* \"#utility.yul\":5309:5313   */\n      0x01\n        /* \"#utility.yul\":5301:5307   */\n      dup3\n        /* \"#utility.yul\":5297:5314   */\n      mul\n        /* \"#utility.yul\":5287:5295   */\n      dup4\n        /* \"#utility.yul\":5283:5315   */\n      add\n        /* \"#utility.yul\":5280:5321   */\n      gt\n        /* \"#utility.yul\":5277:5405   */\n      iszero\n      tag_207\n      jumpi\n        /* \"#utility.yul\":5324:5403   */\n      tag_208\n      tag_110\n      jump\t// in\n    tag_208:\n        /* \"#utility.yul\":5277:5405   */\n    tag_207:\n        /* \"#utility.yul\":4858:5411   */\n      swap3\n      pop\n      swap3\n      swap1\n      pop\n      jump\t// out\n        /* \"#utility.yul\":5417:5946   */\n    tag_38:\n        /* \"#utility.yul\":5488:5494   */\n      0x00\n        /* \"#utility.yul\":5496:5502   */\n      0x00\n        /* \"#utility.yul\":5545:5547   */\n      0x20\n        /* \"#utility.yul\":5533:5542   */\n      dup4\n        /* \"#utility.yul\":5524:5531   */\n      dup6\n        /* \"#utility.yul\":5520:5543   */\n      sub\n        /* \"#utility.yul\":5516:5548   */\n      slt\n        /* \"#utility.yul\":5513:5632   */\n      iszero\n      tag_210\n      jumpi\n        /* \"#utility.yul\":5551:5630   */\n      tag_211\n      tag_92\n      jump\t// in\n    tag_211:\n        /* \"#utility.yul\":5513:5632   */\n    tag_210:\n        /* \"#utility.yul\":5699:5700   */\n      0x00\n        /* \"#utility.yul\":5688:5697   */\n      dup4\n        /* \"#utility.yul\":5684:5701   */\n      add\n        /* \"#utility.yul\":5671:5702   */\n      calldataload\n        /* \"#utility.yul\":5729:5747   */\n      0xffffffffffffffff\n        /* \"#utility.yul\":5721:5727   */\n      dup2\n        /* \"#utility.yul\":5718:5748   */\n      gt\n        /* \"#utility.yul\":5715:5832   */\n      iszero\n      tag_212\n      jumpi\n        /* \"#utility.yul\":5751:5830   */\n      tag_213\n      tag_93\n      jump\t// in\n    tag_213:\n        /* \"#utility.yul\":5715:5832   */\n    tag_212:\n        /* \"#utility.yul\":5864:5929   */\n      tag_214\n        /* \"#utility.yul\":5921:5928   */\n      dup6\n        /* \"#utility.yul\":5912:5918   */\n      dup3\n        /* \"#utility.yul\":5901:5910   */\n      dup7\n        /* \"#utility.yul\":5897:5919   */\n      add\n        /* \"#utility.yul\":5864:5929   */\n      tag_111\n      jump\t// in\n    tag_214:\n        /* \"#utility.yul\":5846:5929   */\n      swap3\n      pop\n      swap3\n      pop\n        /* \"#utility.yul\":5642:5939   */\n      pop\n        /* \"#utility.yul\":5417:5946   */\n      swap3\n      pop\n      swap3\n      swap1\n      pop\n      jump\t// out\n        /* \"#utility.yul\":5952:6070   */\n    tag_112:\n        /* \"#utility.yul\":6039:6063   */\n      tag_216\n        /* \"#utility.yul\":6057:6062   */\n      dup2\n        /* \"#utility.yul\":6039:6063   */\n      tag_97\n      jump\t// in\n    tag_216:\n        /* \"#utility.yul\":6034:6037   */\n      dup3\n        /* \"#utility.yul\":6027:6064   */\n      mstore\n        /* \"#utility.yul\":5952:6070   */\n      pop\n      pop\n      jump\t// out\n        /* \"#utility.yul\":6076:6298   */\n    tag_52:\n        /* \"#utility.yul\":6169:6173   */\n      0x00\n        /* \"#utility.yul\":6207:6209   */\n      0x20\n        /* \"#utility.yul\":6196:6205   */\n      dup3\n        /* \"#utility.yul\":6192:6210   */\n      add\n        /* \"#utility.yul\":6184:6210   */\n      swap1\n      pop\n        /* \"#utility.yul\":6220:6291   */\n      tag_218\n        /* \"#utility.yul\":6288:6289   */\n      0x00\n        /* \"#utility.yul\":6277:6286   */\n      dup4\n        /* \"#utility.yul\":6273:6290   */\n      add\n        /* \"#utility.yul\":6264:6270   */\n      dup5\n        /* \"#utility.yul\":6220:6291   */\n      tag_112\n      jump\t// in\n    tag_218:\n        /* \"#utility.yul\":6076:6298   */\n      swap3\n      swap2\n      pop\n      pop\n      jump\t// out\n        /* \"#utility.yul\":6304:6484   */\n    tag_113:\n        /* \"#utility.yul\":6352:6429   */\n      0x4e487b7100000000000000000000000000000000000000000000000000000000\n        /* \"#utility.yul\":6349:6350   */\n      0x00\n        /* \"#utility.yul\":6342:6430   */\n      mstore\n        /* \"#utility.yul\":6449:6453   */\n      0x11\n        /* \"#utility.yul\":6446:6447   */\n      0x04\n        /* \"#utility.yul\":6439:6454   */\n      mstore\n        /* \"#utility.yul\":6473:6477   */\n      0x24\n        /* \"#utility.yul\":6470:6471   */\n      0x00\n        /* \"#utility.yul\":6463:6478   */\n      revert\n        /* \"#utility.yul\":6490:6681   */\n    tag_55:\n        /* \"#utility.yul\":6530:6533   */\n      0x00\n        /* \"#utility.yul\":6549:6569   */\n      tag_221\n        /* \"#utility.yul\":6567:6568   */\n      dup3\n        /* \"#utility.yul\":6549:6569   */\n      tag_89\n      jump\t// in\n    tag_221:\n        /* \"#utility.yul\":6544:6569   */\n      swap2\n      pop\n        /* \"#utility.yul\":6583:6603   */\n      tag_222\n        /* \"#utility.yul\":6601:6602   */\n      dup4\n        /* \"#utility.yul\":6583:6603   */\n      tag_89\n      jump\t// in\n    tag_222:\n        /* \"#utility.yul\":6578:6603   */\n      swap3\n      pop\n        /* \"#utility.yul\":6626:6627   */\n      dup3\n        /* \"#utility.yul\":6623:6624   */\n      dup3\n        /* \"#utility.yul\":6619:6628   */\n      add\n        /* \"#utility.yul\":6612:6628   */\n      swap1\n      pop\n        /* \"#utility.yul\":6647:6650   */\n      dup1\n        /* \"#utility.yul\":6644:6645   */\n      dup3\n        /* \"#utility.yul\":6641:6651   */\n      gt\n        /* \"#utility.yul\":6638:6674   */\n      iszero\n      tag_223\n      jumpi\n        /* \"#utility.yul\":6654:6672   */\n      tag_224\n      tag_113\n      jump\t// in\n    tag_224:\n        /* \"#utility.yul\":6638:6674   */\n    tag_223:\n        /* \"#utility.yul\":6490:6681   */\n      swap3\n      swap2\n      pop\n      pop\n      jump\t// out\n        /* \"#utility.yul\":6687:6867   */\n    tag_114:\n        /* \"#utility.yul\":6735:6812   */\n      0x4e487b7100000000000000000000000000000000000000000000000000000000\n        /* \"#utility.yul\":6732:6733   */\n      0x00\n        /* \"#utility.yul\":6725:6813   */\n      mstore\n        /* \"#utility.yul\":6832:6836   */\n      0x22\n        /* \"#utility.yul\":6829:6830   */\n      0x04\n        /* \"#utility.yul\":6822:6837   */\n      mstore\n        /* \"#utility.yul\":6856:6860   */\n      0x24\n        /* \"#utility.yul\":6853:6854   */\n      0x00\n        /* \"#utility.yul\":6846:6861   */\n      revert\n        /* \"#utility.yul\":6873:7193   */\n    tag_57:\n        /* \"#utility.yul\":6917:6923   */\n      0x00\n        /* \"#utility.yul\":6954:6955   */\n      0x02\n        /* \"#utility.yul\":6948:6952   */\n      dup3\n        /* \"#utility.yul\":6944:6956   */\n      div\n        /* \"#utility.yul\":6934:6956   */\n      swap1\n      pop\n        /* \"#utility.yul\":7001:7002   */\n      0x01\n        /* \"#utility.yul\":6995:6999   */\n      dup3\n        /* \"#utility.yul\":6991:7003   */\n      and\n        /* \"#utility.yul\":7022:7040   */\n      dup1\n        /* \"#utility.yul\":7012:7093   */\n      tag_227\n      jumpi\n        /* \"#utility.yul\":7078:7082   */\n      0x7f\n        /* \"#utility.yul\":7070:7076   */\n      dup3\n        /* \"#utility.yul\":7066:7083   */\n      and\n        /* \"#utility.yul\":7056:7083   */\n      swap2\n      pop\n        /* \"#utility.yul\":7012:7093   */\n    tag_227:\n        /* \"#utility.yul\":7140:7142   */\n      0x20\n        /* \"#utility.yul\":7132:7138   */\n      dup3\n        /* \"#utility.yul\":7129:7143   */\n      lt\n        /* \"#utility.yul\":7109:7127   */\n      dup2\n        /* \"#utility.yul\":7106:7144   */\n      sub\n        /* \"#utility.yul\":7103:7187   */\n      tag_228\n      jumpi\n        /* \"#utility.yul\":7159:7177   */\n      tag_229\n      tag_114\n      jump\t// in\n    tag_229:\n        /* \"#utility.yul\":7103:7187   */\n    tag_228:\n        /* \"#utility.yul\":6924:7193   */\n      pop\n        /* \"#utility.yul\":6873:7193   */\n      swap2\n      swap1\n      pop\n      jump\t// out\n        /* \"#utility.yul\":7199:7359   */\n    tag_115:\n        /* \"#utility.yul\":7339:7351   */\n      0x4f6e6c79206f776e657200000000000000000000000000000000000000000000\n        /* \"#utility.yul\":7335:7336   */\n      0x00\n        /* \"#utility.yul\":7327:7333   */\n      dup3\n        /* \"#utility.yul\":7323:7337   */\n      add\n        /* \"#utility.yul\":7316:7352   */\n      mstore\n        /* \"#utility.yul\":7199:7359   */\n      pop\n      jump\t// out\n        /* \"#utility.yul\":7365:7731   */\n    tag_116:\n        /* \"#utility.yul\":7507:7510   */\n      0x00\n        /* \"#utility.yul\":7528:7595   */\n      tag_232\n        /* \"#utility.yul\":7592:7594   */\n      0x0a\n        /* \"#utility.yul\":7587:7590   */\n      dup4\n        /* \"#utility.yul\":7528:7595   */\n      tag_101\n      jump\t// in\n    tag_232:\n        /* \"#utility.yul\":7521:7595   */\n      swap2\n      pop\n        /* \"#utility.yul\":7604:7697   */\n      tag_233\n        /* \"#utility.yul\":7693:7696   */\n      dup3\n        /* \"#utility.yul\":7604:7697   */\n      tag_115\n      jump\t// in\n    tag_233:\n        /* \"#utility.yul\":7722:7724   */\n      0x20\n        /* \"#utility.yul\":7717:7720   */\n      dup3\n        /* \"#utility.yul\":7713:7725   */\n      add\n        /* \"#utility.yul\":7706:7725   */\n      swap1\n      pop\n        /* \"#utility.yul\":7365:7731   */\n      swap2\n      swap1\n      pop\n      jump\t// out\n        /* \"#utility.yul\":7737:8156   */\n    tag_65:\n        /* \"#utility.yul\":7903:7907   */\n      0x00\n        /* \"#utility.yul\":7941:7943   */\n      0x20\n        /* \"#utility.yul\":7930:7939   */\n      dup3\n        /* \"#utility.yul\":7926:7944   */\n      add\n        /* \"#utility.yul\":7918:7944   */\n      swap1\n      pop\n        /* \"#utility.yul\":7990:7999   */\n      dup2\n        /* \"#utility.yul\":7984:7988   */\n      dup2\n        /* \"#utility.yul\":7980:8000   */\n      sub\n        /* \"#utility.yul\":7976:7977   */\n      0x00\n        /* \"#utility.yul\":7965:7974   */\n      dup4\n        /* \"#utility.yul\":7961:7978   */\n      add\n        /* \"#utility.yul\":7954:8001   */\n      mstore\n        /* \"#utility.yul\":8018:8149   */\n      tag_235\n        /* \"#utility.yul\":8144:8148   */\n      dup2\n        /* \"#utility.yul\":8018:8149   */\n      tag_116\n      jump\t// in\n    tag_235:\n        /* \"#utility.yul\":8010:8149   */\n      swap1\n      pop\n        /* \"#utility.yul\":7737:8156   */\n      swap2\n      swap1\n      pop\n      jump\t// out\n        /* \"#utility.yul\":8162:8322   */\n    tag_117:\n        /* \"#utility.yul\":8302:8314   */\n      0x4e6f2062616c616e636500000000000000000000000000000000000000000000\n        /* \"#utility.yul\":8298:8299   */\n      0x00\n        /* \"#utility.yul\":8290:8296   */\n      dup3\n        /* \"#utility.yul\":8286:8300   */\n      add\n        /* \"#utility.yul\":8279:8315   */\n      mstore\n        /* \"#utility.yul\":8162:8322   */\n      pop\n      jump\t// out\n        /* \"#utility.yul\":8328:8694   */\n    tag_118:\n        /* \"#utility.yul\":8470:8473   */\n      0x00\n        /* \"#utility.yul\":8491:8558   */\n      tag_238\n        /* \"#utility.yul\":8555:8557   */\n      0x0a\n        /* \"#utility.yul\":8550:8553   */\n      dup4\n        /* \"#utility.yul\":8491:8558   */\n      tag_101\n      jump\t// in\n    tag_238:\n        /* \"#utility.yul\":8484:8558   */\n      swap2\n      pop\n        /* \"#utility.yul\":8567:8660   */\n      tag_239\n        /* \"#utility.yul\":8656:8659   */\n      dup3\n        /* \"#utility.yul\":8567:8660   */\n      tag_117\n      jump\t// in\n    tag_239:\n        /* \"#utility.yul\":8685:8687   */\n      0x20\n        /* \"#utility.yul\":8680:8683   */\n      dup3\n        /* \"#utility.yul\":8676:8688   */\n      add\n        /* \"#utility.yul\":8669:8688   */\n      swap1\n      pop\n        /* \"#utility.yul\":8328:8694   */\n      swap2\n      swap1\n      pop\n      jump\t// out\n        /* \"#utility.yul\":8700:9119   */\n    tag_68:\n        /* \"#utility.yul\":8866:8870   */\n      0x00\n        /* \"#utility.yul\":8904:8906   */\n      0x20\n        /* \"#utility.yul\":8893:8902   */\n      dup3\n        /* \"#utility.yul\":8889:8907   */\n      add\n        /* \"#utility.yul\":8881:8907   */\n      swap1\n      pop\n        /* \"#utility.yul\":8953:8962   */\n      dup2\n        /* \"#utility.yul\":8947:8951   */\n      dup2\n        /* \"#utility.yul\":8943:8963   */\n      sub\n        /* \"#utility.yul\":8939:8940   */\n      0x00\n        /* \"#utility.yul\":8928:8937   */\n      dup4\n        /* \"#utility.yul\":8924:8941   */\n      add\n        /* \"#utility.yul\":8917:8964   */\n      mstore\n        /* \"#utility.yul\":8981:9112   */\n      tag_241\n        /* \"#utility.yul\":9107:9111   */\n      dup2\n        /* \"#utility.yul\":8981:9112   */\n      tag_118\n      jump\t// in\n    tag_241:\n        /* \"#utility.yul\":8973:9112   */\n      swap1\n      pop\n        /* \"#utility.yul\":8700:9119   */\n      swap2\n      swap1\n      pop\n      jump\t// out\n        /* \"#utility.yul\":9125:9272   */\n    tag_119:\n        /* \"#utility.yul\":9226:9237   */\n      0x00\n        /* \"#utility.yul\":9263:9266   */\n      dup2\n        /* \"#utility.yul\":9248:9266   */\n      swap1\n      pop\n        /* \"#utility.yul\":9125:9272   */\n      swap3\n      swap2\n      pop\n      pop\n      jump\t// out\n        /* \"#utility.yul\":9278:9392   */\n    tag_120:\n      pop\n      jump\t// out\n        /* \"#utility.yul\":9398:9796   */\n    tag_121:\n        /* \"#utility.yul\":9557:9560   */\n      0x00\n        /* \"#utility.yul\":9578:9661   */\n      tag_245\n        /* \"#utility.yul\":9659:9660   */\n      0x00\n        /* \"#utility.yul\":9654:9657   */\n      dup4\n        /* \"#utility.yul\":9578:9661   */\n      tag_119\n      jump\t// in\n    tag_245:\n        /* \"#utility.yul\":9571:9661   */\n      swap2\n      pop\n        /* \"#utility.yul\":9670:9763   */\n      tag_246\n        /* \"#utility.yul\":9759:9762   */\n      dup3\n        /* \"#utility.yul\":9670:9763   */\n      tag_120\n      jump\t// in\n    tag_246:\n        /* \"#utility.yul\":9788:9789   */\n      0x00\n        /* \"#utility.yul\":9783:9786   */\n      dup3\n        /* \"#utility.yul\":9779:9790   */\n      add\n        /* \"#utility.yul\":9772:9790   */\n      swap1\n      pop\n        /* \"#utility.yul\":9398:9796   */\n      swap2\n      swap1\n      pop\n      jump\t// out\n        /* \"#utility.yul\":9802:10181   */\n    tag_70:\n        /* \"#utility.yul\":9986:9989   */\n      0x00\n        /* \"#utility.yul\":10008:10155   */\n      tag_248\n        /* \"#utility.yul\":10151:10154   */\n      dup3\n        /* \"#utility.yul\":10008:10155   */\n      tag_121\n      jump\t// in\n    tag_248:\n        /* \"#utility.yul\":10001:10155   */\n      swap2\n      pop\n        /* \"#utility.yul\":10172:10175   */\n      dup2\n        /* \"#utility.yul\":10165:10175   */\n      swap1\n      pop\n        /* \"#utility.yul\":9802:10181   */\n      swap2\n      swap1\n      pop\n      jump\t// out\n        /* \"#utility.yul\":10187:10352   */\n    tag_122:\n        /* \"#utility.yul\":10327:10344   */\n      0x5472616e73666572206661696c65640000000000000000000000000000000000\n        /* \"#utility.yul\":10323:10324   */\n      0x00\n        /* \"#utility.yul\":10315:10321   */\n      dup3\n        /* \"#utility.yul\":10311:10325   */\n      add\n        /* \"#utility.yul\":10304:10345   */\n      mstore\n        /* \"#utility.yul\":10187:10352   */\n      pop\n      jump\t// out\n        /* \"#utility.yul\":10358:10724   */\n    tag_123:\n        /* \"#utility.yul\":10500:10503   */\n      0x00\n        /* \"#utility.yul\":10521:10588   */\n      tag_251\n        /* \"#utility.yul\":10585:10587   */\n      0x0f\n        /* \"#utility.yul\":10580:10583   */\n      dup4\n        /* \"#utility.yul\":10521:10588   */\n      tag_101\n      jump\t// in\n    tag_251:\n        /* \"#utility.yul\":10514:10588   */\n      swap2\n      pop\n        /* \"#utility.yul\":10597:10690   */\n      tag_252\n        /* \"#utility.yul\":10686:10689   */\n      dup3\n        /* \"#utility.yul\":10597:10690   */\n      tag_122\n      jump\t// in\n    tag_252:\n        /* \"#utility.yul\":10715:10717   */\n      0x20\n        /* \"#utility.yul\":10710:10713   */\n      dup3\n        /* \"#utility.yul\":10706:10718   */\n      add\n        /* \"#utility.yul\":10699:10718   */\n      swap1\n      pop\n        /* \"#utility.yul\":10358:10724   */\n      swap2\n      swap1\n      pop\n      jump\t// out\n        /* \"#utility.yul\":10730:11149   */\n    tag_76:\n        /* \"#utility.yul\":10896:10900   */\n      0x00\n        /* \"#utility.yul\":10934:10936   */\n      0x20\n        /* \"#utility.yul\":10923:10932   */\n      dup3\n        /* \"#utility.yul\":10919:10937   */\n      add\n        /* \"#utility.yul\":10911:10937   */\n      swap1\n      pop\n        /* \"#utility.yul\":10983:10992   */\n      dup2\n        /* \"#utility.yul\":10977:10981   */\n      dup2\n        /* \"#utility.yul\":10973:10993   */\n      sub\n        /* \"#utility.yul\":10969:10970   */\n      0x00\n        /* \"#utility.yul\":10958:10967   */\n      dup4\n        /* \"#utility.yul\":10954:10971   */\n      add\n        /* \"#utility.yul\":10947:10994   */\n      mstore\n        /* \"#utility.yul\":11011:11142   */\n      tag_254\n        /* \"#utility.yul\":11137:11141   */\n      dup2\n        /* \"#utility.yul\":11011:11142   */\n      tag_123\n      jump\t// in\n    tag_254:\n        /* \"#utility.yul\":11003:11142   */\n      swap1\n      pop\n        /* \"#utility.yul\":10730:11149   */\n      swap2\n      swap1\n      pop\n      jump\t// out\n        /* \"#utility.yul\":11155:11327   */\n    tag_124:\n        /* \"#utility.yul\":11295:11319   */\n      0x53656e642045544820746f20636f6e7472696275746500000000000000000000\n        /* \"#utility.yul\":11291:11292   */\n      0x00\n        /* \"#utility.yul\":11283:11289   */\n      dup3\n        /* \"#utility.yul\":11279:11293   */\n      add\n        /* \"#utility.yul\":11272:11320   */\n      mstore\n        /* \"#utility.yul\":11155:11327   */\n      pop\n      jump\t// out\n        /* \"#utility.yul\":11333:11699   */\n    tag_125:\n        /* \"#utility.yul\":11475:11478   */\n      0x00\n        /* \"#utility.yul\":11496:11563   */\n      tag_257\n        /* \"#utility.yul\":11560:11562   */\n      0x16\n        /* \"#utility.yul\":11555:11558   */\n      dup4\n        /* \"#utility.yul\":11496:11563   */\n      tag_101\n      jump\t// in\n    tag_257:\n        /* \"#utility.yul\":11489:11563   */\n      swap2\n      pop\n        /* \"#utility.yul\":11572:11665   */\n      tag_258\n        /* \"#utility.yul\":11661:11664   */\n      dup3\n        /* \"#utility.yul\":11572:11665   */\n      tag_124\n      jump\t// in\n    tag_258:\n        /* \"#utility.yul\":11690:11692   */\n      0x20\n        /* \"#utility.yul\":11685:11688   */\n      dup3\n        /* \"#utility.yul\":11681:11693   */\n      add\n        /* \"#utility.yul\":11674:11693   */\n      swap1\n      pop\n        /* \"#utility.yul\":11333:11699   */\n      swap2\n      swap1\n      pop\n      jump\t// out\n        /* \"#utility.yul\":11705:12124   */\n    tag_81:\n        /* \"#utility.yul\":11871:11875   */\n      0x00\n        /* \"#utility.yul\":11909:11911   */\n      0x20\n        /* \"#utility.yul\":11898:11907   */\n      dup3\n        /* \"#utility.yul\":11894:11912   */\n      add\n        /* \"#utility.yul\":11886:11912   */\n      swap1\n      pop\n        /* \"#utility.yul\":11958:11967   */\n      dup2\n        /* \"#utility.yul\":11952:11956   */\n      dup2\n        /* \"#utility.yul\":11948:11968   */\n      sub\n        /* \"#utility.yul\":11944:11945   */\n      0x00\n        /* \"#utility.yul\":11933:11942   */\n      dup4\n        /* \"#utility.yul\":11929:11946   */\n      add\n        /* \"#utility.yul\":11922:11969   */\n      mstore\n        /* \"#utility.yul\":11986:12117   */\n      tag_260\n        /* \"#utility.yul\":12112:12116   */\n      dup2\n        /* \"#utility.yul\":11986:12117   */\n      tag_125\n      jump\t// in\n    tag_260:\n        /* \"#utility.yul\":11978:12117   */\n      swap1\n      pop\n        /* \"#utility.yul\":11705:12124   */\n      swap2\n      swap1\n      pop\n      jump\t// out\n        /* \"#utility.yul\":12130:12227   */\n    tag_126:\n        /* \"#utility.yul\":12189:12195   */\n      0x00\n        /* \"#utility.yul\":12217:12220   */\n      dup3\n        /* \"#utility.yul\":12207:12220   */\n      swap1\n      pop\n        /* \"#utility.yul\":12130:12227   */\n      swap3\n      swap2\n      pop\n      pop\n      jump\t// out\n        /* \"#utility.yul\":12233:12413   */\n    tag_127:\n        /* \"#utility.yul\":12281:12358   */\n      0x4e487b7100000000000000000000000000000000000000000000000000000000\n        /* \"#utility.yul\":12278:12279   */\n      0x00\n        /* \"#utility.yul\":12271:12359   */\n      mstore\n        /* \"#utility.yul\":12378:12382   */\n      0x41\n        /* \"#utility.yul\":12375:12376   */\n      0x04\n        /* \"#utility.yul\":12368:12383   */\n      mstore\n        /* \"#utility.yul\":12402:12406   */\n      0x24\n        /* \"#utility.yul\":12399:12400   */\n      0x00\n        /* \"#utility.yul\":12392:12407   */\n      revert\n        /* \"#utility.yul\":12419:12560   */\n    tag_128:\n        /* \"#utility.yul\":12468:12472   */\n      0x00\n        /* \"#utility.yul\":12491:12494   */\n      dup2\n        /* \"#utility.yul\":12483:12494   */\n      swap1\n      pop\n        /* \"#utility.yul\":12514:12517   */\n      dup2\n        /* \"#utility.yul\":12511:12512   */\n      0x00\n        /* \"#utility.yul\":12504:12518   */\n      mstore\n        /* \"#utility.yul\":12548:12552   */\n      0x20\n        /* \"#utility.yul\":12545:12546   */\n      0x00\n        /* \"#utility.yul\":12535:12553   */\n      keccak256\n        /* \"#utility.yul\":12527:12553   */\n      swap1\n      pop\n        /* \"#utility.yul\":12419:12560   */\n      swap2\n      swap1\n      pop\n      jump\t// out\n        /* \"#utility.yul\":12566:12659   */\n    tag_129:\n        /* \"#utility.yul\":12603:12609   */\n      0x00\n        /* \"#utility.yul\":12650:12652   */\n      0x20\n        /* \"#utility.yul\":12645:12647   */\n      0x1f\n        /* \"#utility.yul\":12638:12643   */\n      dup4\n        /* \"#utility.yul\":12634:12648   */\n      add\n        /* \"#utility.yul\":12630:12653   */\n      div\n        /* \"#utility.yul\":12620:12653   */\n      swap1\n      pop\n        /* \"#utility.yul\":12566:12659   */\n      swap2\n      swap1\n      pop\n      jump\t// out\n        /* \"#utility.yul\":12665:12772   */\n    tag_130:\n        /* \"#utility.yul\":12709:12717   */\n      0x00\n        /* \"#utility.yul\":12759:12764   */\n      dup3\n        /* \"#utility.yul\":12753:12757   */\n      dup3\n        /* \"#utility.yul\":12749:12765   */\n      shl\n        /* \"#utility.yul\":12728:12765   */\n      swap1\n      pop\n        /* \"#utility.yul\":12665:12772   */\n      swap3\n      swap2\n      pop\n      pop\n      jump\t// out\n        /* \"#utility.yul\":12778:13171   */\n    tag_131:\n        /* \"#utility.yul\":12847:12853   */\n      0x00\n        /* \"#utility.yul\":12897:12898   */\n      0x08\n        /* \"#utility.yul\":12885:12895   */\n      dup4\n        /* \"#utility.yul\":12881:12899   */\n      mul\n        /* \"#utility.yul\":12920:13017   */\n      tag_267\n        /* \"#utility.yul\":12950:13016   */\n      0xffffffffffffffffffffffffffffffffffffffffffffffffffffffffffffffff\n        /* \"#utility.yul\":12939:12948   */\n      dup3\n        /* \"#utility.yul\":12920:13017   */\n      tag_130\n      jump\t// in\n    tag_267:\n        /* \"#utility.yul\":13038:13077   */\n      tag_268\n        /* \"#utility.yul\":13068:13076   */\n      dup7\n        /* \"#utility.yul\":13057:13066   */\n      dup4\n        /* \"#utility.yul\":13038:13077   */\n      tag_130\n      jump\t// in\n    tag_268:\n        /* \"#utility.yul\":13026:13077   */\n      swap6\n      pop\n        /* \"#utility.yul\":13110:13114   */\n      dup1\n        /* \"#utility.yul\":13106:13115   */\n      not\n        /* \"#utility.yul\":13099:13104   */\n      dup5\n        /* \"#utility.yul\":13095:13116   */\n      and\n        /* \"#utility.yul\":13086:13116   */\n      swap4\n      pop\n        /* \"#utility.yul\":13159:13163   */\n      dup1\n        /* \"#utility.yul\":13149:13157   */\n      dup7\n        /* \"#utility.yul\":13145:13164   */\n      and\n        /* \"#utility.yul\":13138:13143   */\n      dup5\n        /* \"#utility.yul\":13135:13165   */\n      or\n        /* \"#utility.yul\":13125:13165   */\n      swap3\n      pop\n        /* \"#utility.yul\":12854:13171   */\n      pop\n      pop\n        /* \"#utility.yul\":12778:13171   */\n      swap4\n      swap3\n      pop\n      pop\n      pop\n      jump\t// out\n        /* \"#utility.yul\":13177:13237   */\n    tag_132:\n        /* \"#utility.yul\":13205:13208   */\n      0x00\n        /* \"#utility.yul\":13226:13231   */\n      dup2\n        /* \"#utility.yul\":13219:13231   */\n      swap1\n      pop\n        /* \"#utility.yul\":13177:13237   */\n      swap2\n      swap1\n      pop\n      jump\t// out\n        /* \"#utility.yul\":13243:13385   */\n    tag_133:\n        /* \"#utility.yul\":13293:13302   */\n      0x00\n        /* \"#utility.yul\":13326:13379   */\n      tag_271\n        /* \"#utility.yul\":13344:13378   */\n      tag_272\n        /* \"#utility.yul\":13353:13377   */\n      tag_273\n        /* \"#utility.yul\":13371:13376   */\n      dup5\n        /* \"#utility.yul\":13353:13377   */\n      tag_89\n      jump\t// in\n    tag_273:\n        /* \"#utility.yul\":13344:13378   */\n      tag_132\n      jump\t// in\n    tag_272:\n        /* \"#utility.yul\":13326:13379   */\n      tag_89\n      jump\t// in\n    tag_271:\n        /* \"#utility.yul\":13313:13379   */\n      swap1\n      pop\n        /* \"#utility.yul\":13243:13385   */\n      swap2\n      swap1\n      pop\n      jump\t// out\n        /* \"#utility.yul\":13391:13466   */\n    tag_134:\n        /* \"#utility.yul\":13434:13437   */\n      0x00\n        /* \"#utility.yul\":13455:13460   */\n      dup2\n        /* \"#utility.yul\":13448:13460   */\n      swap1\n      pop\n        /* \"#utility.yul\":13391:13466   */\n      swap2\n      swap1\n      pop\n      jump\t// out\n        /* \"#utility.yul\":13472:13741   */\n    tag_135:\n        /* \"#utility.yul\":13582:13621   */\n      tag_276\n        /* \"#utility.yul\":13613:13620   */\n      dup4\n        /* \"#utility.yul\":13582:13621   */\n      tag_133\n      jump\t// in\n    tag_276:\n        /* \"#utility.yul\":13643:13734   */\n      tag_277\n        /* \"#utility.yul\":13692:13733   */\n      tag_278\n        /* \"#utility.yul\":13716:13732   */\n      dup3\n        /* \"#utility.yul\":13692:13733   */\n      tag_134\n      jump\t// in\n    tag_278:\n        /* \"#utility.yul\":13684:13690   */\n      dup5\n        /* \"#utility.yul\":13677:13681   */\n      dup5\n        /* \"#utility.yul\":13671:13682   */\n      sload\n        /* \"#utility.yul\":13643:13734   */\n      tag_131\n      jump\t// in\n    tag_277:\n        /* \"#utility.yul\":13637:13641   */\n      dup3\n        /* \"#utility.yul\":13630:13735   */\n      sstore\n        /* \"#utility.yul\":13548:13741   */\n      pop\n        /* \"#utility.yul\":13472:13741   */\n      pop\n      pop\n      pop\n      jump\t// out\n        /* \"#utility.yul\":13747:13820   */\n    tag_136:\n        /* \"#utility.yul\":13792:13795   */\n      0x00\n        /* \"#utility.yul\":13813:13814   */\n      0x00\n        /* \"#utility.yul\":13806:13814   */\n      swap1\n      pop\n        /* \"#utility.yul\":13747:13820   */\n      swap1\n      jump\t// out\n        /* \"#utility.yul\":13826:14015   */\n    tag_137:\n        /* \"#utility.yul\":13903:13935   */\n      tag_281\n      tag_136\n      jump\t// in\n    tag_281:\n        /* \"#utility.yul\":13944:14009   */\n      tag_282\n        /* \"#utility.yul\":14002:14008   */\n      dup2\n        /* \"#utility.yul\":13994:14000   */\n      dup5\n        /* \"#utility.yul\":13988:13992   */\n      dup5\n        /* \"#utility.yul\":13944:14009   */\n      tag_135\n      jump\t// in\n    tag_282:\n        /* \"#utility.yul\":13879:14015   */\n      pop\n        /* \"#utility.yul\":13826:14015   */\n      pop\n      pop\n      jump\t// out\n        /* \"#utility.yul\":14021:14207   */\n    tag_138:\n        /* \"#utility.yul\":14081:14201   */\n    tag_284:\n        /* \"#utility.yul\":14098:14101   */\n      dup2\n        /* \"#utility.yul\":14091:14096   */\n      dup2\n        /* \"#utility.yul\":14088:14102   */\n      lt\n        /* \"#utility.yul\":14081:14201   */\n      iszero\n      tag_286\n      jumpi\n        /* \"#utility.yul\":14152:14191   */\n      tag_287\n        /* \"#utility.yul\":14189:14190   */\n      0x00\n        /* \"#utility.yul\":14182:14187   */\n      dup3\n        /* \"#utility.yul\":14152:14191   */\n      tag_137\n      jump\t// in\n    tag_287:\n        /* \"#utility.yul\":14125:14126   */\n      0x01\n        /* \"#utility.yul\":14118:14123   */\n      dup2\n        /* \"#utility.yul\":14114:14127   */\n      add\n        /* \"#utility.yul\":14105:14127   */\n      swap1\n      pop\n        /* \"#utility.yul\":14081:14201   */\n      jump(tag_284)\n    tag_286:\n        /* \"#utility.yul\":14021:14207   */\n      pop\n      pop\n      jump\t// out\n        /* \"#utility.yul\":14213:14756   */\n    tag_139:\n        /* \"#utility.yul\":14314:14316   */\n      0x1f\n        /* \"#utility.yul\":14309:14312   */\n      dup3\n        /* \"#utility.yul\":14306:14317   */\n      gt\n        /* \"#utility.yul\":14303:14749   */\n      iszero\n      tag_289\n      jumpi\n        /* \"#utility.yul\":14348:14386   */\n      tag_290\n        /* \"#utility.yul\":14380:14385   */\n      dup2\n        /* \"#utility.yul\":14348:14386   */\n      tag_128\n      jump\t// in\n    tag_290:\n        /* \"#utility.yul\":14432:14461   */\n      tag_291\n        /* \"#utility.yul\":14450:14460   */\n      dup5\n        /* \"#utility.yul\":14432:14461   */\n      tag_129\n      jump\t// in\n    tag_291:\n        /* \"#utility.yul\":14422:14430   */\n      dup2\n        /* \"#utility.yul\":14418:14462   */\n      add\n        /* \"#utility.yul\":14615:14617   */\n      0x20\n        /* \"#utility.yul\":14603:14613   */\n      dup6\n        /* \"#utility.yul\":14600:14618   */\n      lt\n        /* \"#utility.yul\":14597:14646   */\n      iszero\n      tag_292\n      jumpi\n        /* \"#utility.yul\":14636:14644   */\n      dup2\n        /* \"#utility.yul\":14621:14644   */\n      swap1\n      pop\n        /* \"#utility.yul\":14597:14646   */\n    tag_292:\n        /* \"#utility.yul\":14659:14739   */\n      tag_293\n        /* \"#utility.yul\":14715:14737   */\n      tag_294\n        /* \"#utility.yul\":14733:14736   */\n      dup6\n        /* \"#utility.yul\":14715:14737   */\n      tag_129\n      jump\t// in\n    tag_294:\n        /* \"#utility.yul\":14705:14713   */\n      dup4\n        /* \"#utility.yul\":14701:14738   */\n      add\n        /* \"#utility.yul\":14688:14699   */\n      dup3\n        /* \"#utility.yul\":14659:14739   */\n      tag_138\n      jump\t// in\n    tag_293:\n        /* \"#utility.yul\":14318:14749   */\n      pop\n      pop\n        /* \"#utility.yul\":14303:14749   */\n    tag_289:\n        /* \"#utility.yul\":14213:14756   */\n      pop\n      pop\n      pop\n      jump\t// out\n        /* \"#utility.yul\":14762:14879   */\n    tag_140:\n        /* \"#utility.yul\":14816:14824   */\n      0x00\n        /* \"#utility.yul\":14866:14871   */\n      dup3\n        /* \"#utility.yul\":14860:14864   */\n      dup3\n        /* \"#utility.yul\":14856:14872   */\n      shr\n        /* \"#utility.yul\":14835:14872   */\n      swap1\n      pop\n        /* \"#utility.yul\":14762:14879   */\n      swap3\n      swap2\n      pop\n      pop\n      jump\t// out\n        /* \"#utility.yul\":14885:15054   */\n    tag_141:\n        /* \"#utility.yul\":14929:14935   */\n      0x00\n        /* \"#utility.yul\":14962:15013   */\n      tag_297\n        /* \"#utility.yul\":15010:15011   */\n      0x00\n        /* \"#utility.yul\":15006:15012   */\n      not\n        /* \"#utility.yul\":14998:15003   */\n      dup5\n        /* \"#utility.yul\":14995:14996   */\n      0x08\n        /* \"#utility.yul\":14991:15004   */\n      mul\n        /* \"#utility.yul\":14962:15013   */\n      tag_140\n      jump\t// in\n    tag_297:\n        /* \"#utility.yul\":14958:15014   */\n      not\n        /* \"#utility.yul\":15043:15047   */\n      dup1\n        /* \"#utility.yul\":15037:15041   */\n      dup4\n        /* \"#utility.yul\":15033:15048   */\n      and\n        /* \"#utility.yul\":15023:15048   */\n      swap2\n      pop\n        /* \"#utility.yul\":14936:15054   */\n      pop\n        /* \"#utility.yul\":14885:15054   */\n      swap3\n      swap2\n      pop\n      pop\n      jump\t// out\n        /* \"#utility.yul\":15059:15354   */\n    tag_142:\n        /* \"#utility.yul\":15135:15139   */\n      0x00\n        /* \"#utility.yul\":15281:15310   */\n      tag_299\n        /* \"#utility.yul\":15306:15309   */\n      dup4\n        /* \"#utility.yul\":15300:15304   */\n      dup4\n        /* \"#utility.yul\":15281:15310   */\n      tag_141\n      jump\t// in\n    tag_299:\n        /* \"#utility.yul\":15273:15310   */\n      swap2\n      pop\n        /* \"#utility.yul\":15343:15346   */\n      dup3\n        /* \"#utility.yul\":15340:15341   */\n      0x02\n        /* \"#utility.yul\":15336:15347   */\n      mul\n        /* \"#utility.yul\":15330:15334   */\n      dup3\n        /* \"#utility.yul\":15327:15348   */\n      or\n        /* \"#utility.yul\":15319:15348   */\n      swap1\n      pop\n        /* \"#utility.yul\":15059:15354   */\n      swap3\n      swap2\n      pop\n      pop\n      jump\t// out\n        /* \"#utility.yul\":15359:16762   */\n    tag_83:\n        /* \"#utility.yul\":15483:15527   */\n      tag_301\n        /* \"#utility.yul\":15523:15526   */\n      dup4\n        /* \"#utility.yul\":15518:15521   */\n      dup4\n        /* \"#utility.yul\":15483:15527   */\n      tag_126\n      jump\t// in\n    tag_301:\n        /* \"#utility.yul\":15592:15610   */\n      0xffffffffffffffff\n        /* \"#utility.yul\":15584:15590   */\n      dup2\n        /* \"#utility.yul\":15581:15611   */\n      gt\n        /* \"#utility.yul\":15578:15634   */\n      iszero\n      tag_302\n      jumpi\n        /* \"#utility.yul\":15614:15632   */\n      tag_303\n      tag_127\n      jump\t// in\n    tag_303:\n        /* \"#utility.yul\":15578:15634   */\n    tag_302:\n        /* \"#utility.yul\":15658:15696   */\n      tag_304\n        /* \"#utility.yul\":15690:15694   */\n      dup3\n        /* \"#utility.yul\":15684:15695   */\n      sload\n        /* \"#utility.yul\":15658:15696   */\n      tag_57\n      jump\t// in\n    tag_304:\n        /* \"#utility.yul\":15743:15810   */\n      tag_305\n        /* \"#utility.yul\":15803:15809   */\n      dup3\n        /* \"#utility.yul\":15795:15801   */\n      dup3\n        /* \"#utility.yul\":15789:15793   */\n      dup6\n        /* \"#utility.yul\":15743:15810   */\n      tag_139\n      jump\t// in\n    tag_305:\n        /* \"#utility.yul\":15837:15838   */\n      0x00\n        /* \"#utility.yul\":15866:15868   */\n      0x1f\n        /* \"#utility.yul\":15858:15864   */\n      dup4\n        /* \"#utility.yul\":15855:15869   */\n      gt\n        /* \"#utility.yul\":15883:15884   */\n      0x01\n        /* \"#utility.yul\":15878:16510   */\n      dup2\n      eq\n      tag_307\n      jumpi\n        /* \"#utility.yul\":16554:16555   */\n      0x00\n        /* \"#utility.yul\":16571:16577   */\n      dup5\n        /* \"#utility.yul\":16568:16652   */\n      iszero\n      tag_308\n      jumpi\n        /* \"#utility.yul\":16627:16636   */\n      dup3\n        /* \"#utility.yul\":16622:16625   */\n      dup8\n        /* \"#utility.yul\":16618:16637   */\n      add\n        /* \"#utility.yul\":16605:16638   */\n      calldataload\n        /* \"#utility.yul\":16596:16638   */\n      swap1\n      pop\n        /* \"#utility.yul\":16568:16652   */\n    tag_308:\n        /* \"#utility.yul\":16678:16745   */\n      tag_309\n        /* \"#utility.yul\":16738:16744   */\n      dup6\n        /* \"#utility.yul\":16731:16736   */\n      dup3\n        /* \"#utility.yul\":16678:16745   */\n      tag_142\n      jump\t// in\n    tag_309:\n        /* \"#utility.yul\":16672:16676   */\n      dup7\n        /* \"#utility.yul\":16665:16746   */\n      sstore\n        /* \"#utility.yul\":16527:16756   */\n      pop\n        /* \"#utility.yul\":15848:16756   */\n      jump(tag_306)\n        /* \"#utility.yul\":15878:16510   */\n    tag_307:\n        /* \"#utility.yul\":15930:15934   */\n      0x1f\n        /* \"#utility.yul\":15926:15935   */\n      not\n        /* \"#utility.yul\":15918:15924   */\n      dup5\n        /* \"#utility.yul\":15914:15936   */\n      and\n        /* \"#utility.yul\":15964:16001   */\n      tag_310\n        /* \"#utility.yul\":15996:16000   */\n      dup7\n        /* \"#utility.yul\":15964:16001   */\n      tag_128\n      jump\t// in\n    tag_310:\n        /* \"#utility.yul\":16023:16024   */\n      0x00\n        /* \"#utility.yul\":16037:16252   */\n    tag_311:\n        /* \"#utility.yul\":16051:16058   */\n      dup3\n        /* \"#utility.yul\":16048:16049   */\n      dup2\n        /* \"#utility.yul\":16045:16059   */\n      lt\n        /* \"#utility.yul\":16037:16252   */\n      iszero\n      tag_313\n      jumpi\n        /* \"#utility.yul\":16137:16146   */\n      dup5\n        /* \"#utility.yul\":16132:16135   */\n      dup10\n        /* \"#utility.yul\":16128:16147   */\n      add\n        /* \"#utility.yul\":16115:16148   */\n      calldataload\n        /* \"#utility.yul\":16107:16113   */\n      dup3\n        /* \"#utility.yul\":16100:16149   */\n      sstore\n        /* \"#utility.yul\":16188:16189   */\n      0x01\n        /* \"#utility.yul\":16180:16186   */\n      dup3\n        /* \"#utility.yul\":16176:16190   */\n      add\n        /* \"#utility.yul\":16166:16190   */\n      swap2\n      pop\n        /* \"#utility.yul\":16235:16237   */\n      0x20\n        /* \"#utility.yul\":16224:16233   */\n      dup6\n        /* \"#utility.yul\":16220:16238   */\n      add\n        /* \"#utility.yul\":16207:16238   */\n      swap5\n      pop\n        /* \"#utility.yul\":16074:16078   */\n      0x20\n        /* \"#utility.yul\":16071:16072   */\n      dup2\n        /* \"#utility.yul\":16067:16079   */\n      add\n        /* \"#utility.yul\":16062:16079   */\n      swap1\n      pop\n        /* \"#utility.yul\":16037:16252   */\n      jump(tag_311)\n    tag_313:\n        /* \"#utility.yul\":16280:16286   */\n      dup7\n        /* \"#utility.yul\":16271:16278   */\n      dup4\n        /* \"#utility.yul\":16268:16287   */\n      lt\n        /* \"#utility.yul\":16265:16451   */\n      iszero\n      tag_314\n      jumpi\n        /* \"#utility.yul\":16345:16354   */\n      dup5\n        /* \"#utility.yul\":16340:16343   */\n      dup10\n        /* \"#utility.yul\":16336:16355   */\n      add\n        /* \"#utility.yul\":16323:16356   */\n      calldataload\n        /* \"#utility.yul\":16388:16436   */\n      tag_315\n        /* \"#utility.yul\":16430:16434   */\n      0x1f\n        /* \"#utility.yul\":16422:16428   */\n      dup10\n        /* \"#utility.yul\":16418:16435   */\n      and\n        /* \"#utility.yul\":16407:16416   */\n      dup3\n        /* \"#utility.yul\":16388:16436   */\n      tag_141\n      jump\t// in\n    tag_315:\n        /* \"#utility.yul\":16380:16386   */\n      dup4\n        /* \"#utility.yul\":16373:16437   */\n      sstore\n        /* \"#utility.yul\":16288:16451   */\n      pop\n        /* \"#utility.yul\":16265:16451   */\n    tag_314:\n        /* \"#utility.yul\":16497:16498   */\n      0x01\n        /* \"#utility.yul\":16493:16494   */\n      0x02\n        /* \"#utility.yul\":16485:16491   */\n      dup9\n        /* \"#utility.yul\":16481:16495   */\n      mul\n        /* \"#utility.yul\":16477:16499   */\n      add\n        /* \"#utility.yul\":16471:16475   */\n      dup9\n        /* \"#utility.yul\":16464:16500   */\n      sstore\n        /* \"#utility.yul\":15885:16510   */\n      pop\n      pop\n      pop\n        /* \"#utility.yul\":15848:16756   */\n    tag_306:\n      pop\n        /* \"#utility.yul\":15458:16762   */\n      pop\n      pop\n      pop\n        /* \"#utility.yul\":15359:16762   */\n      pop\n      pop\n      pop\n      jump\t// out\n        /* \"#utility.yul\":16768:16916   */\n    tag_143:\n        /* \"#utility.yul\":16866:16872   */\n      dup3\n        /* \"#utility.yul\":16861:16864   */\n      dup2\n        /* \"#utility.yul\":16856:16859   */\n      dup4\n        /* \"#utility.yul\":16843:16873   */\n      calldatacopy\n        /* \"#utility.yul\":16907:16908   */\n      0x00\n        /* \"#utility.yul\":16898:16904   */\n      dup4\n        /* \"#utility.yul\":16893:16896   */\n      dup4\n        /* \"#utility.yul\":16889:16905   */\n      add\n        /* \"#utility.yul\":16882:16909   */\n      mstore\n        /* \"#utility.yul\":16768:16916   */\n      pop\n      pop\n      pop\n      jump\t// out\n        /* \"#utility.yul\":16946:17263   */\n    tag_144:\n        /* \"#utility.yul\":17044:17047   */\n      0x00\n        /* \"#utility.yul\":17065:17136   */\n      tag_318\n        /* \"#utility.yul\":17129:17135   */\n      dup4\n        /* \"#utility.yul\":17124:17127   */\n      dup6\n        /* \"#utility.yul\":17065:17136   */\n      tag_101\n      jump\t// in\n    tag_318:\n        /* \"#utility.yul\":17058:17136   */\n      swap4\n      pop\n        /* \"#utility.yul\":17146:17202   */\n      tag_319\n        /* \"#utility.yul\":17195:17201   */\n      dup4\n        /* \"#utility.yul\":17190:17193   */\n      dup6\n        /* \"#utility.yul\":17183:17188   */\n      dup5\n        /* \"#utility.yul\":17146:17202   */\n      tag_143\n      jump\t// in\n    tag_319:\n        /* \"#utility.yul\":17227:17256   */\n      tag_320\n        /* \"#utility.yul\":17249:17255   */\n      dup4\n        /* \"#utility.yul\":17227:17256   */\n      tag_103\n      jump\t// in\n    tag_320:\n        /* \"#utility.yul\":17222:17225   */\n      dup5\n        /* \"#utility.yul\":17218:17257   */\n      add\n        /* \"#utility.yul\":17211:17257   */\n      swap1\n      pop\n        /* \"#utility.yul\":16946:17263   */\n      swap4\n      swap3\n      pop\n      pop\n      pop\n      jump\t// out\n        /* \"#utility.yul\":17269:17712   */\n    tag_86:\n        /* \"#utility.yul\":17420:17424   */\n      0x00\n        /* \"#utility.yul\":17458:17460   */\n      0x40\n        /* \"#utility.yul\":17447:17456   */\n      dup3\n        /* \"#utility.yul\":17443:17461   */\n      add\n        /* \"#utility.yul\":17435:17461   */\n      swap1\n      pop\n        /* \"#utility.yul\":17471:17542   */\n      tag_322\n        /* \"#utility.yul\":17539:17540   */\n      0x00\n        /* \"#utility.yul\":17528:17537   */\n      dup4\n        /* \"#utility.yul\":17524:17541   */\n      add\n        /* \"#utility.yul\":17515:17521   */\n      dup7\n        /* \"#utility.yul\":17471:17542   */\n      tag_90\n      jump\t// in\n    tag_322:\n        /* \"#utility.yul\":17589:17598   */\n      dup2\n        /* \"#utility.yul\":17583:17587   */\n      dup2\n        /* \"#utility.yul\":17579:17599   */\n      sub\n        /* \"#utility.yul\":17574:17576   */\n      0x20\n        /* \"#utility.yul\":17563:17572   */\n      dup4\n        /* \"#utility.yul\":17559:17577   */\n      add\n        /* \"#utility.yul\":17552:17600   */\n      mstore\n        /* \"#utility.yul\":17617:17705   */\n      tag_323\n        /* \"#utility.yul\":17700:17704   */\n      dup2\n        /* \"#utility.yul\":17691:17697   */\n      dup5\n        /* \"#utility.yul\":17683:17689   */\n      dup7\n        /* \"#utility.yul\":17617:17705   */\n      tag_144\n      jump\t// in\n    tag_323:\n        /* \"#utility.yul\":17609:17705   */\n      swap1\n      pop\n        /* \"#utility.yul\":17269:17712   */\n      swap5\n      swap4\n      pop\n      pop\n      pop\n      pop\n      jump\t// out\n\n    auxdata: 0xa264697066735822122096131d065fb5b0b0bd3d4845d42d6bdbf235a0dc5cb291fd61292902681a21f264736f6c634300081e0033\n}\n",
				"bytecode": {
					"linkReferences": {},
					"object": "6080604052348015600e575f5ffd5b50335f5f6101000a81548173ffffffffffffffffffffffffffffffffffffffff021916908373ffffffffffffffffffffffffffffffffffffffff160217905550610f348061005b5f395ff3fe608060405260043610610072575f3560e01c80635c43217b1161004d5780635c43217b146101b85780636f9fb98a146101d457806381c35cbd146101fe5780638da5cb5b14610228576100c7565b8062c07d09146101175780631f6d49421461015357806351cff8d914610190576100c7565b366100c7573373ffffffffffffffffffffffffffffffffffffffff167f88a5966d370b9919b20f3e2c13ff65706f196a4e32cc2c12bf57088f88525874346040516100bd919061066c565b60405180910390a2005b3373ffffffffffffffffffffffffffffffffffffffff167f88a5966d370b9919b20f3e2c13ff65706f196a4e32cc2c12bf57088f885258743460405161010d919061066c565b60405180910390a2005b348015610122575f5ffd5b5061013d600480360381019061013891906106b7565b610252565b60405161014a919061066c565b60405180910390f35b34801561015e575f5ffd5b506101796004803603810190610174919061074f565b610267565b6040516101879291906107ea565b60405180910390f35b34801561019b575f5ffd5b506101b660048036038101906101b19190610853565b61030d565b005b6101d260048036038101906101cd91906108df565b6104dc565b005b3480156101df575f5ffd5b506101e86105e2565b6040516101f5919061066c565b60405180910390f35b348015610209575f5ffd5b506102126105e9565b60405161021f919061066c565b60405180910390f35b348015610233575f5ffd5b5061023c610630565b6040516102499190610939565b60405180910390f35b5f818361025f919061097f565b905092915050565b6001602052805f5260405f205f91509050805f018054610286906109df565b80601f01602080910402602001604051908101604052809291908181526020018280546102b2906109df565b80156102fd5780601f106102d4576101008083540402835291602001916102fd565b820191905f5260205f20905b8154815290600101906020018083116102e057829003601f168201915b5050505050908060010154905082565b5f5f9054906101000a900473ffffffffffffffffffffffffffffffffffffffff1673ffffffffffffffffffffffffffffffffffffffff163373ffffffffffffffffffffffffffffffffffffffff161461039b576040517f08c379a000000000000000000000000000000000000000000000000000000000815260040161039290610a59565b60405180910390fd5b5f4790505f81116103e1576040517f08c379a00000000000000000000000000000000000000000000000000000000081526004016103d890610ac1565b60405180910390fd5b5f8273ffffffffffffffffffffffffffffffffffffffff168260405161040690610b0c565b5f6040518083038185875af1925050503d805f8114610440576040519150601f19603f3d011682016040523d82523d5f602084013e610445565b606091505b5050905080610489576040517f08c379a000000000000000000000000000000000000000000000000000000000815260040161048090610b6a565b60405180910390fd5b8273ffffffffffffffffffffffffffffffffffffffff167f7084f5476618d8e60b11ef0d7d3f06914655adb8793e28ff7f018d4c76d505d5836040516104cf919061066c565b60405180910390a2505050565b5f341161051e576040517f08c379a000000000000000000000000000000000000000000000000000000000815260040161051590610bd2565b60405180910390fd5b5f60015f3373ffffffffffffffffffffffffffffffffffffffff1673ffffffffffffffffffffffffffffffffffffffff1681526020019081526020015f2090508282825f019182610570929190610dc7565b5034816001015f828254610584919061097f565b925050819055503373ffffffffffffffffffffffffffffffffffffffff167f301e53e15e76435e17105dd850449ba166cf4c46826c93a338cb73191b5a74203485856040516105d593929190610ece565b60405180910390a2505050565b5f47905090565b5f60015f3373ffffffffffffffffffffffffffffffffffffffff1673ffffffffffffffffffffffffffffffffffffffff1681526020019081526020015f2060010154905090565b5f5f9054906101000a900473ffffffffffffffffffffffffffffffffffffffff1681565b5f819050919050565b61066681610654565b82525050565b5f60208201905061067f5f83018461065d565b92915050565b5f5ffd5b5f5ffd5b61069681610654565b81146106a0575f5ffd5b50565b5f813590506106b18161068d565b92915050565b5f5f604083850312156106cd576106cc610685565b5b5f6106da858286016106a3565b92505060206106eb858286016106a3565b9150509250929050565b5f73ffffffffffffffffffffffffffffffffffffffff82169050919050565b5f61071e826106f5565b9050919050565b61072e81610714565b8114610738575f5ffd5b50565b5f8135905061074981610725565b92915050565b5f6020828403121561076457610763610685565b5b5f6107718482850161073b565b91505092915050565b5f81519050919050565b5f82825260208201905092915050565b8281835e5f83830152505050565b5f601f19601f8301169050919050565b5f6107bc8261077a565b6107c68185610784565b93506107d6818560208601610794565b6107df816107a2565b840191505092915050565b5f6040820190508181035f83015261080281856107b2565b9050610811602083018461065d565b9392505050565b5f610822826106f5565b9050919050565b61083281610818565b811461083c575f5ffd5b50565b5f8135905061084d81610829565b92915050565b5f6020828403121561086857610867610685565b5b5f6108758482850161083f565b91505092915050565b5f5ffd5b5f5ffd5b5f5ffd5b5f5f83601f84011261089f5761089e61087e565b5b8235905067ffffffffffffffff8111156108bc576108bb610882565b5b6020830191508360018202830111156108d8576108d7610886565b5b9250929050565b5f5f602083850312156108f5576108f4610685565b5b5f83013567ffffffffffffffff81111561091257610911610689565b5b61091e8582860161088a565b92509250509250929050565b61093381610714565b82525050565b5f60208201905061094c5f83018461092a565b92915050565b7f4e487b71000000000000000000000000000000000000000000000000000000005f52601160045260245ffd5b5f61098982610654565b915061099483610654565b92508282019050808211156109ac576109ab610952565b5b92915050565b7f4e487b71000000000000000000000000000000000000000000000000000000005f52602260045260245ffd5b5f60028204905060018216806109f657607f821691505b602082108103610a0957610a086109b2565b5b50919050565b7f4f6e6c79206f776e6572000000000000000000000000000000000000000000005f82015250565b5f610a43600a83610784565b9150610a4e82610a0f565b602082019050919050565b5f6020820190508181035f830152610a7081610a37565b9050919050565b7f4e6f2062616c616e6365000000000000000000000000000000000000000000005f82015250565b5f610aab600a83610784565b9150610ab682610a77565b602082019050919050565b5f6020820190508181035f830152610ad881610a9f565b9050919050565b5f81905092915050565b50565b5f610af75f83610adf565b9150610b0282610ae9565b5f82019050919050565b5f610b1682610aec565b9150819050919050565b7f5472616e73666572206661696c656400000000000000000000000000000000005f82015250565b5f610b54600f83610784565b9150610b5f82610b20565b602082019050919050565b5f6020820190508181035f830152610b8181610b48565b9050919050565b7f53656e642045544820746f20636f6e74726962757465000000000000000000005f82015250565b5f610bbc601683610784565b9150610bc782610b88565b602082019050919050565b5f6020820190508181035f830152610be981610bb0565b9050919050565b5f82905092915050565b7f4e487b71000000000000000000000000000000000000000000000000000000005f52604160045260245ffd5b5f819050815f5260205f209050919050565b5f6020601f8301049050919050565b5f82821b905092915050565b5f60088302610c837fffffffffffffffffffffffffffffffffffffffffffffffffffffffffffffffff82610c48565b610c8d8683610c48565b95508019841693508086168417925050509392505050565b5f819050919050565b5f610cc8610cc3610cbe84610654565b610ca5565b610654565b9050919050565b5f819050919050565b610ce183610cae565b610cf5610ced82610ccf565b848454610c54565b825550505050565b5f5f905090565b610d0c610cfd565b610d17818484610cd8565b505050565b5b81811015610d3a57610d2f5f82610d04565b600181019050610d1d565b5050565b601f821115610d7f57610d5081610c27565b610d5984610c39565b81016020851015610d68578190505b610d7c610d7485610c39565b830182610d1c565b50505b505050565b5f82821c905092915050565b5f610d9f5f1984600802610d84565b1980831691505092915050565b5f610db78383610d90565b9150826002028217905092915050565b610dd18383610bf0565b67ffffffffffffffff811115610dea57610de9610bfa565b5b610df482546109df565b610dff828285610d3e565b5f601f831160018114610e2c575f8415610e1a578287013590505b610e248582610dac565b865550610e8b565b601f198416610e3a86610c27565b5f5b82811015610e6157848901358255600182019150602085019450602081019050610e3c565b86831015610e7e5784890135610e7a601f891682610d90565b8355505b6001600288020188555050505b50505050505050565b828183375f83830152505050565b5f610ead8385610784565b9350610eba838584610e94565b610ec3836107a2565b840190509392505050565b5f604082019050610ee15f83018661065d565b8181036020830152610ef4818486610ea2565b905094935050505056fea264697066735822122096131d065fb5b0b0bd3d4845d42d6bdbf235a0dc5cb291fd61292902681a21f264736f6c634300081e0033",
					"opcodes": "PUSH1 0x80 PUSH1 0x40 MSTORE CALLVALUE DUP1 ISZERO PUSH1 0xE JUMPI PUSH0 PUSH0 REVERT JUMPDEST POP CALLER PUSH0 PUSH0 PUSH2 0x100 EXP DUP2 SLOAD DUP2 PUSH20 0xFFFFFFFFFFFFFFFFFFFFFFFFFFFFFFFFFFFFFFFF MUL NOT AND SWAP1 DUP4 PUSH20 0xFFFFFFFFFFFFFFFFFFFFFFFFFFFFFFFFFFFFFFFF AND MUL OR SWAP1 SSTORE POP PUSH2 0xF34 DUP1 PUSH2 0x5B PUSH0 CODECOPY PUSH0 RETURN INVALID PUSH1 0x80 PUSH1 0x40 MSTORE PUSH1 0x4 CALLDATASIZE LT PUSH2 0x72 JUMPI PUSH0 CALLDATALOAD PUSH1 0xE0 SHR DUP1 PUSH4 0x5C43217B GT PUSH2 0x4D JUMPI DUP1 PUSH4 0x5C43217B EQ PUSH2 0x1B8 JUMPI DUP1 PUSH4 0x6F9FB98A EQ PUSH2 0x1D4 JUMPI DUP1 PUSH4 0x81C35CBD EQ PUSH2 0x1FE JUMPI DUP1 PUSH4 0x8DA5CB5B EQ PUSH2 0x228 JUMPI PUSH2 0xC7 JUMP JUMPDEST DUP1 PUSH3 0xC07D09 EQ PUSH2 0x117 JUMPI DUP1 PUSH4 0x1F6D4942 EQ PUSH2 0x153 JUMPI DUP1 PUSH4 0x51CFF8D9 EQ PUSH2 0x190 JUMPI PUSH2 0xC7 JUMP JUMPDEST CALLDATASIZE PUSH2 0xC7 JUMPI CALLER PUSH20 0xFFFFFFFFFFFFFFFFFFFFFFFFFFFFFFFFFFFFFFFF AND PUSH32 0x88A5966D370B9919B20F3E2C13FF65706F196A4E32CC2C12BF57088F88525874 CALLVALUE PUSH1 0x40 MLOAD PUSH2 0xBD SWAP2 SWAP1 PUSH2 0x66C JUMP JUMPDEST PUSH1 0x40 MLOAD DUP1 SWAP2 SUB SWAP1 LOG2 STOP JUMPDEST CALLER PUSH20 0xFFFFFFFFFFFFFFFFFFFFFFFFFFFFFFFFFFFFFFFF AND PUSH32 0x88A5966D370B9919B20F3E2C13FF65706F196A4E32CC2C12BF57088F88525874 CALLVALUE PUSH1 0x40 MLOAD PUSH2 0x10D SWAP2 SWAP1 PUSH2 0x66C JUMP JUMPDEST PUSH1 0x40 MLOAD DUP1 SWAP2 SUB SWAP1 LOG2 STOP JUMPDEST CALLVALUE DUP1 ISZERO PUSH2 0x122 JUMPI PUSH0 PUSH0 REVERT JUMPDEST POP PUSH2 0x13D PUSH1 0x4 DUP1 CALLDATASIZE SUB DUP2 ADD SWAP1 PUSH2 0x138 SWAP2 SWAP1 PUSH2 0x6B7 JUMP JUMPDEST PUSH2 0x252 JUMP JUMPDEST PUSH1 0x40 MLOAD PUSH2 0x14A SWAP2 SWAP1 PUSH2 0x66C JUMP JUMPDEST PUSH1 0x40 MLOAD DUP1 SWAP2 SUB SWAP1 RETURN JUMPDEST CALLVALUE DUP1 ISZERO PUSH2 0x15E JUMPI PUSH0 PUSH0 REVERT JUMPDEST POP PUSH2 0x179 PUSH1 0x4 DUP1 CALLDATASIZE SUB DUP2 ADD SWAP1 PUSH2 0x174 SWAP2 SWAP1 PUSH2 0x74F JUMP JUMPDEST PUSH2 0x267 JUMP JUMPDEST PUSH1 0x40 MLOAD PUSH2 0x187 SWAP3 SWAP2 SWAP1 PUSH2 0x7EA JUMP JUMPDEST PUSH1 0x40 MLOAD DUP1 SWAP2 SUB SWAP1 RETURN JUMPDEST CALLVALUE DUP1 ISZERO PUSH2 0x19B JUMPI PUSH0 PUSH0 REVERT JUMPDEST POP PUSH2 0x1B6 PUSH1 0x4 DUP1 CALLDATASIZE SUB DUP2 ADD SWAP1 PUSH2 0x1B1 SWAP2 SWAP1 PUSH2 0x853 JUMP JUMPDEST PUSH2 0x30D JUMP JUMPDEST STOP JUMPDEST PUSH2 0x1D2 PUSH1 0x4 DUP1 CALLDATASIZE SUB DUP2 ADD SWAP1 PUSH2 0x1CD SWAP2 SWAP1 PUSH2 0x8DF JUMP JUMPDEST PUSH2 0x4DC JUMP JUMPDEST STOP JUMPDEST CALLVALUE DUP1 ISZERO PUSH2 0x1DF JUMPI PUSH0 PUSH0 REVERT JUMPDEST POP PUSH2 0x1E8 PUSH2 0x5E2 JUMP JUMPDEST PUSH1 0x40 MLOAD PUSH2 0x1F5 SWAP2 SWAP1 PUSH2 0x66C JUMP JUMPDEST PUSH1 0x40 MLOAD DUP1 SWAP2 SUB SWAP1 RETURN JUMPDEST CALLVALUE DUP1 ISZERO PUSH2 0x209 JUMPI PUSH0 PUSH0 REVERT JUMPDEST POP PUSH2 0x212 PUSH2 0x5E9 JUMP JUMPDEST PUSH1 0x40 MLOAD PUSH2 0x21F SWAP2 SWAP1 PUSH2 0x66C JUMP JUMPDEST PUSH1 0x40 MLOAD DUP1 SWAP2 SUB SWAP1 RETURN JUMPDEST CALLVALUE DUP1 ISZERO PUSH2 0x233 JUMPI PUSH0 PUSH0 REVERT JUMPDEST POP PUSH2 0x23C PUSH2 0x630 JUMP JUMPDEST PUSH1 0x40 MLOAD PUSH2 0x249 SWAP2 SWAP1 PUSH2 0x939 JUMP JUMPDEST PUSH1 0x40 MLOAD DUP1 SWAP2 SUB SWAP1 RETURN JUMPDEST PUSH0 DUP2 DUP4 PUSH2 0x25F SWAP2 SWAP1 PUSH2 0x97F JUMP JUMPDEST SWAP1 POP SWAP3 SWAP2 POP POP JUMP JUMPDEST PUSH1 0x1 PUSH1 0x20 MSTORE DUP1 PUSH0 MSTORE PUSH1 0x40 PUSH0 KECCAK256 PUSH0 SWAP2 POP SWAP1 POP DUP1 PUSH0 ADD DUP1 SLOAD PUSH2 0x286 SWAP1 PUSH2 0x9DF JUMP JUMPDEST DUP1 PUSH1 0x1F ADD PUSH1 0x20 DUP1 SWAP2 DIV MUL PUSH1 0x20 ADD PUSH1 0x40 MLOAD SWAP1 DUP2 ADD PUSH1 0x40 MSTORE DUP1 SWAP3 SWAP2 SWAP1 DUP2 DUP2 MSTORE PUSH1 0x20 ADD DUP3 DUP1 SLOAD PUSH2 0x2B2 SWAP1 PUSH2 0x9DF JUMP JUMPDEST DUP1 ISZERO PUSH2 0x2FD JUMPI DUP1 PUSH1 0x1F LT PUSH2 0x2D4 JUMPI PUSH2 0x100 DUP1 DUP4 SLOAD DIV MUL DUP4 MSTORE SWAP2 PUSH1 0x20 ADD SWAP2 PUSH2 0x2FD JUMP JUMPDEST DUP3 ADD SWAP2 SWAP1 PUSH0 MSTORE PUSH1 0x20 PUSH0 KECCAK256 SWAP1 JUMPDEST DUP2 SLOAD DUP2 MSTORE SWAP1 PUSH1 0x1 ADD SWAP1 PUSH1 0x20 ADD DUP1 DUP4 GT PUSH2 0x2E0 JUMPI DUP3 SWAP1 SUB PUSH1 0x1F AND DUP3 ADD SWAP2 JUMPDEST POP POP POP POP POP SWAP1 DUP1 PUSH1 0x1 ADD SLOAD SWAP1 POP DUP3 JUMP JUMPDEST PUSH0 PUSH0 SWAP1 SLOAD SWAP1 PUSH2 0x100 EXP SWAP1 DIV PUSH20 0xFFFFFFFFFFFFFFFFFFFFFFFFFFFFFFFFFFFFFFFF AND PUSH20 0xFFFFFFFFFFFFFFFFFFFFFFFFFFFFFFFFFFFFFFFF AND CALLER PUSH20 0xFFFFFFFFFFFFFFFFFFFFFFFFFFFFFFFFFFFFFFFF AND EQ PUSH2 0x39B JUMPI PUSH1 0x40 MLOAD PUSH32 0x8C379A000000000000000000000000000000000000000000000000000000000 DUP2 MSTORE PUSH1 0x4 ADD PUSH2 0x392 SWAP1 PUSH2 0xA59 JUMP JUMPDEST PUSH1 0x40 MLOAD DUP1 SWAP2 SUB SWAP1 REVERT JUMPDEST PUSH0 SELFBALANCE SWAP1 POP PUSH0 DUP2 GT PUSH2 0x3E1 JUMPI PUSH1 0x40 MLOAD PUSH32 0x8C379A000000000000000000000000000000000000000000000000000000000 DUP2 MSTORE PUSH1 0x4 ADD PUSH2 0x3D8 SWAP1 PUSH2 0xAC1 JUMP JUMPDEST PUSH1 0x40 MLOAD DUP1 SWAP2 SUB SWAP1 REVERT JUMPDEST PUSH0 DUP3 PUSH20 0xFFFFFFFFFFFFFFFFFFFFFFFFFFFFFFFFFFFFFFFF AND DUP3 PUSH1 0x40 MLOAD PUSH2 0x406 SWAP1 PUSH2 0xB0C JUMP JUMPDEST PUSH0 PUSH1 0x40 MLOAD DUP1 DUP4 SUB DUP2 DUP6 DUP8 GAS CALL SWAP3 POP POP POP RETURNDATASIZE DUP1 PUSH0 DUP2 EQ PUSH2 0x440 JUMPI PUSH1 0x40 MLOAD SWAP2 POP PUSH1 0x1F NOT PUSH1 0x3F RETURNDATASIZE ADD AND DUP3 ADD PUSH1 0x40 MSTORE RETURNDATASIZE DUP3 MSTORE RETURNDATASIZE PUSH0 PUSH1 0x20 DUP5 ADD RETURNDATACOPY PUSH2 0x445 JUMP JUMPDEST PUSH1 0x60 SWAP2 POP JUMPDEST POP POP SWAP1 POP DUP1 PUSH2 0x489 JUMPI PUSH1 0x40 MLOAD PUSH32 0x8C379A000000000000000000000000000000000000000000000000000000000 DUP2 MSTORE PUSH1 0x4 ADD PUSH2 0x480 SWAP1 PUSH2 0xB6A JUMP JUMPDEST PUSH1 0x40 MLOAD DUP1 SWAP2 SUB SWAP1 REVERT JUMPDEST DUP3 PUSH20 0xFFFFFFFFFFFFFFFFFFFFFFFFFFFFFFFFFFFFFFFF AND PUSH32 0x7084F5476618D8E60B11EF0D7D3F06914655ADB8793E28FF7F018D4C76D505D5 DUP4 PUSH1 0x40 MLOAD PUSH2 0x4CF SWAP2 SWAP1 PUSH2 0x66C JUMP JUMPDEST PUSH1 0x40 MLOAD DUP1 SWAP2 SUB SWAP1 LOG2 POP POP POP JUMP JUMPDEST PUSH0 CALLVALUE GT PUSH2 0x51E JUMPI PUSH1 0x40 MLOAD PUSH32 0x8C379A000000000000000000000000000000000000000000000000000000000 DUP2 MSTORE PUSH1 0x4 ADD PUSH2 0x515 SWAP1 PUSH2 0xBD2 JUMP JUMPDEST PUSH1 0x40 MLOAD DUP1 SWAP2 SUB SWAP1 REVERT JUMPDEST PUSH0 PUSH1 0x1 PUSH0 CALLER PUSH20 0xFFFFFFFFFFFFFFFFFFFFFFFFFFFFFFFFFFFFFFFF AND PUSH20 0xFFFFFFFFFFFFFFFFFFFFFFFFFFFFFFFFFFFFFFFF AND DUP2 MSTORE PUSH1 0x20 ADD SWAP1 DUP2 MSTORE PUSH1 0x20 ADD PUSH0 KECCAK256 SWAP1 POP DUP3 DUP3 DUP3 PUSH0 ADD SWAP2 DUP3 PUSH2 0x570 SWAP3 SWAP2 SWAP1 PUSH2 0xDC7 JUMP JUMPDEST POP CALLVALUE DUP2 PUSH1 0x1 ADD PUSH0 DUP3 DUP3 SLOAD PUSH2 0x584 SWAP2 SWAP1 PUSH2 0x97F JUMP JUMPDEST SWAP3 POP POP DUP2 SWAP1 SSTORE POP CALLER PUSH20 0xFFFFFFFFFFFFFFFFFFFFFFFFFFFFFFFFFFFFFFFF AND PUSH32 0x301E53E15E76435E17105DD850449BA166CF4C46826C93A338CB73191B5A7420 CALLVALUE DUP6 DUP6 PUSH1 0x40 MLOAD PUSH2 0x5D5 SWAP4 SWAP3 SWAP2 SWAP1 PUSH2 0xECE JUMP JUMPDEST PUSH1 0x40 MLOAD DUP1 SWAP2 SUB SWAP1 LOG2 POP POP POP JUMP JUMPDEST PUSH0 SELFBALANCE SWAP1 POP SWAP1 JUMP JUMPDEST PUSH0 PUSH1 0x1 PUSH0 CALLER PUSH20 0xFFFFFFFFFFFFFFFFFFFFFFFFFFFFFFFFFFFFFFFF AND PUSH20 0xFFFFFFFFFFFFFFFFFFFFFFFFFFFFFFFFFFFFFFFF AND DUP2 MSTORE PUSH1 0x20 ADD SWAP1 DUP2 MSTORE PUSH1 0x20 ADD PUSH0 KECCAK256 PUSH1 0x1 ADD SLOAD SWAP1 POP SWAP1 JUMP JUMPDEST PUSH0 PUSH0 SWAP1 SLOAD SWAP1 PUSH2 0x100 EXP SWAP1 DIV PUSH20 0xFFFFFFFFFFFFFFFFFFFFFFFFFFFFFFFFFFFFFFFF AND DUP2 JUMP JUMPDEST PUSH0 DUP2 SWAP1 POP SWAP2 SWAP1 POP JUMP JUMPDEST PUSH2 0x666 DUP2 PUSH2 0x654 JUMP JUMPDEST DUP3 MSTORE POP POP JUMP JUMPDEST PUSH0 PUSH1 0x20 DUP3 ADD SWAP1 POP PUSH2 0x67F PUSH0 DUP4 ADD DUP5 PUSH2 0x65D JUMP JUMPDEST SWAP3 SWAP2 POP POP JUMP JUMPDEST PUSH0 PUSH0 REVERT JUMPDEST PUSH0 PUSH0 REVERT JUMPDEST PUSH2 0x696 DUP2 PUSH2 0x654 JUMP JUMPDEST DUP2 EQ PUSH2 0x6A0 JUMPI PUSH0 PUSH0 REVERT JUMPDEST POP JUMP JUMPDEST PUSH0 DUP2 CALLDATALOAD SWAP1 POP PUSH2 0x6B1 DUP2 PUSH2 0x68D JUMP JUMPDEST SWAP3 SWAP2 POP POP JUMP JUMPDEST PUSH0 PUSH0 PUSH1 0x40 DUP4 DUP6 SUB SLT ISZERO PUSH2 0x6CD JUMPI PUSH2 0x6CC PUSH2 0x685 JUMP JUMPDEST JUMPDEST PUSH0 PUSH2 0x6DA DUP6 DUP3 DUP7 ADD PUSH2 0x6A3 JUMP JUMPDEST SWAP3 POP POP PUSH1 0x20 PUSH2 0x6EB DUP6 DUP3 DUP7 ADD PUSH2 0x6A3 JUMP JUMPDEST SWAP2 POP POP SWAP3 POP SWAP3 SWAP1 POP JUMP JUMPDEST PUSH0 PUSH20 0xFFFFFFFFFFFFFFFFFFFFFFFFFFFFFFFFFFFFFFFF DUP3 AND SWAP1 POP SWAP2 SWAP1 POP JUMP JUMPDEST PUSH0 PUSH2 0x71E DUP3 PUSH2 0x6F5 JUMP JUMPDEST SWAP1 POP SWAP2 SWAP1 POP JUMP JUMPDEST PUSH2 0x72E DUP2 PUSH2 0x714 JUMP JUMPDEST DUP2 EQ PUSH2 0x738 JUMPI PUSH0 PUSH0 REVERT JUMPDEST POP JUMP JUMPDEST PUSH0 DUP2 CALLDATALOAD SWAP1 POP PUSH2 0x749 DUP2 PUSH2 0x725 JUMP JUMPDEST SWAP3 SWAP2 POP POP JUMP JUMPDEST PUSH0 PUSH1 0x20 DUP3 DUP5 SUB SLT ISZERO PUSH2 0x764 JUMPI PUSH2 0x763 PUSH2 0x685 JUMP JUMPDEST JUMPDEST PUSH0 PUSH2 0x771 DUP5 DUP3 DUP6 ADD PUSH2 0x73B JUMP JUMPDEST SWAP2 POP POP SWAP3 SWAP2 POP POP JUMP JUMPDEST PUSH0 DUP2 MLOAD SWAP1 POP SWAP2 SWAP1 POP JUMP JUMPDEST PUSH0 DUP3 DUP3 MSTORE PUSH1 0x20 DUP3 ADD SWAP1 POP SWAP3 SWAP2 POP POP JUMP JUMPDEST DUP3 DUP2 DUP4 MCOPY PUSH0 DUP4 DUP4 ADD MSTORE POP POP POP JUMP JUMPDEST PUSH0 PUSH1 0x1F NOT PUSH1 0x1F DUP4 ADD AND SWAP1 POP SWAP2 SWAP1 POP JUMP JUMPDEST PUSH0 PUSH2 0x7BC DUP3 PUSH2 0x77A JUMP JUMPDEST PUSH2 0x7C6 DUP2 DUP6 PUSH2 0x784 JUMP JUMPDEST SWAP4 POP PUSH2 0x7D6 DUP2 DUP6 PUSH1 0x20 DUP7 ADD PUSH2 0x794 JUMP JUMPDEST PUSH2 0x7DF DUP2 PUSH2 0x7A2 JUMP JUMPDEST DUP5 ADD SWAP2 POP POP SWAP3 SWAP2 POP POP JUMP JUMPDEST PUSH0 PUSH1 0x40 DUP3 ADD SWAP1 POP DUP2 DUP2 SUB PUSH0 DUP4 ADD MSTORE PUSH2 0x802 DUP2 DUP6 PUSH2 0x7B2 JUMP JUMPDEST SWAP1 POP PUSH2 0x811 PUSH1 0x20 DUP4 ADD DUP5 PUSH2 0x65D JUMP JUMPDEST SWAP4 SWAP3 POP POP POP JUMP JUMPDEST PUSH0 PUSH2 0x822 DUP3 PUSH2 0x6F5 JUMP JUMPDEST SWAP1 POP SWAP2 SWAP1 POP JUMP JUMPDEST PUSH2 0x832 DUP2 PUSH2 0x818 JUMP JUMPDEST DUP2 EQ PUSH2 0x83C JUMPI PUSH0 PUSH0 REVERT JUMPDEST POP JUMP JUMPDEST PUSH0 DUP2 CALLDATALOAD SWAP1 POP PUSH2 0x84D DUP2 PUSH2 0x829 JUMP JUMPDEST SWAP3 SWAP2 POP POP JUMP JUMPDEST PUSH0 PUSH1 0x20 DUP3 DUP5 SUB SLT ISZERO PUSH2 0x868 JUMPI PUSH2 0x867 PUSH2 0x685 JUMP JUMPDEST JUMPDEST PUSH0 PUSH2 0x875 DUP5 DUP3 DUP6 ADD PUSH2 0x83F JUMP JUMPDEST SWAP2 POP POP SWAP3 SWAP2 POP POP JUMP JUMPDEST PUSH0 PUSH0 REVERT JUMPDEST PUSH0 PUSH0 REVERT JUMPDEST PUSH0 PUSH0 REVERT JUMPDEST PUSH0 PUSH0 DUP4 PUSH1 0x1F DUP5 ADD SLT PUSH2 0x89F JUMPI PUSH2 0x89E PUSH2 0x87E JUMP JUMPDEST JUMPDEST DUP3 CALLDATALOAD SWAP1 POP PUSH8 0xFFFFFFFFFFFFFFFF DUP2 GT ISZERO PUSH2 0x8BC JUMPI PUSH2 0x8BB PUSH2 0x882 JUMP JUMPDEST JUMPDEST PUSH1 0x20 DUP4 ADD SWAP2 POP DUP4 PUSH1 0x1 DUP3 MUL DUP4 ADD GT ISZERO PUSH2 0x8D8 JUMPI PUSH2 0x8D7 PUSH2 0x886 JUMP JUMPDEST JUMPDEST SWAP3 POP SWAP3 SWAP1 POP JUMP JUMPDEST PUSH0 PUSH0 PUSH1 0x20 DUP4 DUP6 SUB SLT ISZERO PUSH2 0x8F5 JUMPI PUSH2 0x8F4 PUSH2 0x685 JUMP JUMPDEST JUMPDEST PUSH0 DUP4 ADD CALLDATALOAD PUSH8 0xFFFFFFFFFFFFFFFF DUP2 GT ISZERO PUSH2 0x912 JUMPI PUSH2 0x911 PUSH2 0x689 JUMP JUMPDEST JUMPDEST PUSH2 0x91E DUP6 DUP3 DUP7 ADD PUSH2 0x88A JUMP JUMPDEST SWAP3 POP SWAP3 POP POP SWAP3 POP SWAP3 SWAP1 POP JUMP JUMPDEST PUSH2 0x933 DUP2 PUSH2 0x714 JUMP JUMPDEST DUP3 MSTORE POP POP JUMP JUMPDEST PUSH0 PUSH1 0x20 DUP3 ADD SWAP1 POP PUSH2 0x94C PUSH0 DUP4 ADD DUP5 PUSH2 0x92A JUMP JUMPDEST SWAP3 SWAP2 POP POP JUMP JUMPDEST PUSH32 0x4E487B7100000000000000000000000000000000000000000000000000000000 PUSH0 MSTORE PUSH1 0x11 PUSH1 0x4 MSTORE PUSH1 0x24 PUSH0 REVERT JUMPDEST PUSH0 PUSH2 0x989 DUP3 PUSH2 0x654 JUMP JUMPDEST SWAP2 POP PUSH2 0x994 DUP4 PUSH2 0x654 JUMP JUMPDEST SWAP3 POP DUP3 DUP3 ADD SWAP1 POP DUP1 DUP3 GT ISZERO PUSH2 0x9AC JUMPI PUSH2 0x9AB PUSH2 0x952 JUMP JUMPDEST JUMPDEST SWAP3 SWAP2 POP POP JUMP JUMPDEST PUSH32 0x4E487B7100000000000000000000000000000000000000000000000000000000 PUSH0 MSTORE PUSH1 0x22 PUSH1 0x4 MSTORE PUSH1 0x24 PUSH0 REVERT JUMPDEST PUSH0 PUSH1 0x2 DUP3 DIV SWAP1 POP PUSH1 0x1 DUP3 AND DUP1 PUSH2 0x9F6 JUMPI PUSH1 0x7F DUP3 AND SWAP2 POP JUMPDEST PUSH1 0x20 DUP3 LT DUP2 SUB PUSH2 0xA09 JUMPI PUSH2 0xA08 PUSH2 0x9B2 JUMP JUMPDEST JUMPDEST POP SWAP2 SWAP1 POP JUMP JUMPDEST PUSH32 0x4F6E6C79206F776E657200000000000000000000000000000000000000000000 PUSH0 DUP3 ADD MSTORE POP JUMP JUMPDEST PUSH0 PUSH2 0xA43 PUSH1 0xA DUP4 PUSH2 0x784 JUMP JUMPDEST SWAP2 POP PUSH2 0xA4E DUP3 PUSH2 0xA0F JUMP JUMPDEST PUSH1 0x20 DUP3 ADD SWAP1 POP SWAP2 SWAP1 POP JUMP JUMPDEST PUSH0 PUSH1 0x20 DUP3 ADD SWAP1 POP DUP2 DUP2 SUB PUSH0 DUP4 ADD MSTORE PUSH2 0xA70 DUP2 PUSH2 0xA37 JUMP JUMPDEST SWAP1 POP SWAP2 SWAP1 POP JUMP JUMPDEST PUSH32 0x4E6F2062616C616E636500000000000000000000000000000000000000000000 PUSH0 DUP3 ADD MSTORE POP JUMP JUMPDEST PUSH0 PUSH2 0xAAB PUSH1 0xA DUP4 PUSH2 0x784 JUMP JUMPDEST SWAP2 POP PUSH2 0xAB6 DUP3 PUSH2 0xA77 JUMP JUMPDEST PUSH1 0x20 DUP3 ADD SWAP1 POP SWAP2 SWAP1 POP JUMP JUMPDEST PUSH0 PUSH1 0x20 DUP3 ADD SWAP1 POP DUP2 DUP2 SUB PUSH0 DUP4 ADD MSTORE PUSH2 0xAD8 DUP2 PUSH2 0xA9F JUMP JUMPDEST SWAP1 POP SWAP2 SWAP1 POP JUMP JUMPDEST PUSH0 DUP2 SWAP1 POP SWAP3 SWAP2 POP POP JUMP JUMPDEST POP JUMP JUMPDEST PUSH0 PUSH2 0xAF7 PUSH0 DUP4 PUSH2 0xADF JUMP JUMPDEST SWAP2 POP PUSH2 0xB02 DUP3 PUSH2 0xAE9 JUMP JUMPDEST PUSH0 DUP3 ADD SWAP1 POP SWAP2 SWAP1 POP JUMP JUMPDEST PUSH0 PUSH2 0xB16 DUP3 PUSH2 0xAEC JUMP JUMPDEST SWAP2 POP DUP2 SWAP1 POP SWAP2 SWAP1 POP JUMP JUMPDEST PUSH32 0x5472616E73666572206661696C65640000000000000000000000000000000000 PUSH0 DUP3 ADD MSTORE POP JUMP JUMPDEST PUSH0 PUSH2 0xB54 PUSH1 0xF DUP4 PUSH2 0x784 JUMP JUMPDEST SWAP2 POP PUSH2 0xB5F DUP3 PUSH2 0xB20 JUMP JUMPDEST PUSH1 0x20 DUP3 ADD SWAP1 POP SWAP2 SWAP1 POP JUMP JUMPDEST PUSH0 PUSH1 0x20 DUP3 ADD SWAP1 POP DUP2 DUP2 SUB PUSH0 DUP4 ADD MSTORE PUSH2 0xB81 DUP2 PUSH2 0xB48 JUMP JUMPDEST SWAP1 POP SWAP2 SWAP1 POP JUMP JUMPDEST PUSH32 0x53656E642045544820746F20636F6E7472696275746500000000000000000000 PUSH0 DUP3 ADD MSTORE POP JUMP JUMPDEST PUSH0 PUSH2 0xBBC PUSH1 0x16 DUP4 PUSH2 0x784 JUMP JUMPDEST SWAP2 POP PUSH2 0xBC7 DUP3 PUSH2 0xB88 JUMP JUMPDEST PUSH1 0x20 DUP3 ADD SWAP1 POP SWAP2 SWAP1 POP JUMP JUMPDEST PUSH0 PUSH1 0x20 DUP3 ADD SWAP1 POP DUP2 DUP2 SUB PUSH0 DUP4 ADD MSTORE PUSH2 0xBE9 DUP2 PUSH2 0xBB0 JUMP JUMPDEST SWAP1 POP SWAP2 SWAP1 POP JUMP JUMPDEST PUSH0 DUP3 SWAP1 POP SWAP3 SWAP2 POP POP JUMP JUMPDEST PUSH32 0x4E487B7100000000000000000000000000000000000000000000000000000000 PUSH0 MSTORE PUSH1 0x41 PUSH1 0x4 MSTORE PUSH1 0x24 PUSH0 REVERT JUMPDEST PUSH0 DUP2 SWAP1 POP DUP2 PUSH0 MSTORE PUSH1 0x20 PUSH0 KECCAK256 SWAP1 POP SWAP2 SWAP1 POP JUMP JUMPDEST PUSH0 PUSH1 0x20 PUSH1 0x1F DUP4 ADD DIV SWAP1 POP SWAP2 SWAP1 POP JUMP JUMPDEST PUSH0 DUP3 DUP3 SHL SWAP1 POP SWAP3 SWAP2 POP POP JUMP JUMPDEST PUSH0 PUSH1 0x8 DUP4 MUL PUSH2 0xC83 PUSH32 0xFFFFFFFFFFFFFFFFFFFFFFFFFFFFFFFFFFFFFFFFFFFFFFFFFFFFFFFFFFFFFFFF DUP3 PUSH2 0xC48 JUMP JUMPDEST PUSH2 0xC8D DUP7 DUP4 PUSH2 0xC48 JUMP JUMPDEST SWAP6 POP DUP1 NOT DUP5 AND SWAP4 POP DUP1 DUP7 AND DUP5 OR SWAP3 POP POP POP SWAP4 SWAP3 POP POP POP JUMP JUMPDEST PUSH0 DUP2 SWAP1 POP SWAP2 SWAP1 POP JUMP JUMPDEST PUSH0 PUSH2 0xCC8 PUSH2 0xCC3 PUSH2 0xCBE DUP5 PUSH2 0x654 JUMP JUMPDEST PUSH2 0xCA5 JUMP JUMPDEST PUSH2 0x654 JUMP JUMPDEST SWAP1 POP SWAP2 SWAP1 POP JUMP JUMPDEST PUSH0 DUP2 SWAP1 POP SWAP2 SWAP1 POP JUMP JUMPDEST PUSH2 0xCE1 DUP4 PUSH2 0xCAE JUMP JUMPDEST PUSH2 0xCF5 PUSH2 0xCED DUP3 PUSH2 0xCCF JUMP JUMPDEST DUP5 DUP5 SLOAD PUSH2 0xC54 JUMP JUMPDEST DUP3 SSTORE POP POP POP POP JUMP JUMPDEST PUSH0 PUSH0 SWAP1 POP SWAP1 JUMP JUMPDEST PUSH2 0xD0C PUSH2 0xCFD JUMP JUMPDEST PUSH2 0xD17 DUP2 DUP5 DUP5 PUSH2 0xCD8 JUMP JUMPDEST POP POP POP JUMP JUMPDEST JUMPDEST DUP2 DUP2 LT ISZERO PUSH2 0xD3A JUMPI PUSH2 0xD2F PUSH0 DUP3 PUSH2 0xD04 JUMP JUMPDEST PUSH1 0x1 DUP2 ADD SWAP1 POP PUSH2 0xD1D JUMP JUMPDEST POP POP JUMP JUMPDEST PUSH1 0x1F DUP3 GT ISZERO PUSH2 0xD7F JUMPI PUSH2 0xD50 DUP2 PUSH2 0xC27 JUMP JUMPDEST PUSH2 0xD59 DUP5 PUSH2 0xC39 JUMP JUMPDEST DUP2 ADD PUSH1 0x20 DUP6 LT ISZERO PUSH2 0xD68 JUMPI DUP2 SWAP1 POP JUMPDEST PUSH2 0xD7C PUSH2 0xD74 DUP6 PUSH2 0xC39 JUMP JUMPDEST DUP4 ADD DUP3 PUSH2 0xD1C JUMP JUMPDEST POP POP JUMPDEST POP POP POP JUMP JUMPDEST PUSH0 DUP3 DUP3 SHR SWAP1 POP SWAP3 SWAP2 POP POP JUMP JUMPDEST PUSH0 PUSH2 0xD9F PUSH0 NOT DUP5 PUSH1 0x8 MUL PUSH2 0xD84 JUMP JUMPDEST NOT DUP1 DUP4 AND SWAP2 POP POP SWAP3 SWAP2 POP POP JUMP JUMPDEST PUSH0 PUSH2 0xDB7 DUP4 DUP4 PUSH2 0xD90 JUMP JUMPDEST SWAP2 POP DUP3 PUSH1 0x2 MUL DUP3 OR SWAP1 POP SWAP3 SWAP2 POP POP JUMP JUMPDEST PUSH2 0xDD1 DUP4 DUP4 PUSH2 0xBF0 JUMP JUMPDEST PUSH8 0xFFFFFFFFFFFFFFFF DUP2 GT ISZERO PUSH2 0xDEA JUMPI PUSH2 0xDE9 PUSH2 0xBFA JUMP JUMPDEST JUMPDEST PUSH2 0xDF4 DUP3 SLOAD PUSH2 0x9DF JUMP JUMPDEST PUSH2 0xDFF DUP3 DUP3 DUP6 PUSH2 0xD3E JUMP JUMPDEST PUSH0 PUSH1 0x1F DUP4 GT PUSH1 0x1 DUP2 EQ PUSH2 0xE2C JUMPI PUSH0 DUP5 ISZERO PUSH2 0xE1A JUMPI DUP3 DUP8 ADD CALLDATALOAD SWAP1 POP JUMPDEST PUSH2 0xE24 DUP6 DUP3 PUSH2 0xDAC JUMP JUMPDEST DUP7 SSTORE POP PUSH2 0xE8B JUMP JUMPDEST PUSH1 0x1F NOT DUP5 AND PUSH2 0xE3A DUP7 PUSH2 0xC27 JUMP JUMPDEST PUSH0 JUMPDEST DUP3 DUP2 LT ISZERO PUSH2 0xE61 JUMPI DUP5 DUP10 ADD CALLDATALOAD DUP3 SSTORE PUSH1 0x1 DUP3 ADD SWAP2 POP PUSH1 0x20 DUP6 ADD SWAP5 POP PUSH1 0x20 DUP2 ADD SWAP1 POP PUSH2 0xE3C JUMP JUMPDEST DUP7 DUP4 LT ISZERO PUSH2 0xE7E JUMPI DUP5 DUP10 ADD CALLDATALOAD PUSH2 0xE7A PUSH1 0x1F DUP10 AND DUP3 PUSH2 0xD90 JUMP JUMPDEST DUP4 SSTORE POP JUMPDEST PUSH1 0x1 PUSH1 0x2 DUP9 MUL ADD DUP9 SSTORE POP POP POP JUMPDEST POP POP POP POP POP POP POP JUMP JUMPDEST DUP3 DUP2 DUP4 CALLDATACOPY PUSH0 DUP4 DUP4 ADD MSTORE POP POP POP JUMP JUMPDEST PUSH0 PUSH2 0xEAD DUP4 DUP6 PUSH2 0x784 JUMP JUMPDEST SWAP4 POP PUSH2 0xEBA DUP4 DUP6 DUP5 PUSH2 0xE94 JUMP JUMPDEST PUSH2 0xEC3 DUP4 PUSH2 0x7A2 JUMP JUMPDEST DUP5 ADD SWAP1 POP SWAP4 SWAP3 POP POP POP JUMP JUMPDEST PUSH0 PUSH1 0x40 DUP3 ADD SWAP1 POP PUSH2 0xEE1 PUSH0 DUP4 ADD DUP7 PUSH2 0x65D JUMP JUMPDEST DUP2 DUP2 SUB PUSH1 0x20 DUP4 ADD MSTORE PUSH2 0xEF4 DUP2 DUP5 DUP7 PUSH2 0xEA2 JUMP JUMPDEST SWAP1 POP SWAP5 SWAP4 POP POP POP POP JUMP INVALID LOG2 PUSH5 0x6970667358 0x22 SLT KECCAK256 SWAP7 SGT SAR MOD PUSH0 0xB5 0xB0 0xB0 0xBD RETURNDATASIZE BASEFEE GASLIMIT 0xD4 0x2D PUSH12 0xDBF235A0DC5CB291FD612929 MUL PUSH9 0x1A21F264736F6C6343 STOP ADDMOD 0x1E STOP CALLER "
				},
				"gasEstimates": {
					"creation": {
						"codeDepositCost": "778400",
						"executionCost": "25074",
						"totalCost": "803474"
					},
					"external": {
						"": "1721",
						"contribute(string)": "infinite",
						"contributors(address)": "infinite",
						"getContractBalance()": "356",
						"getMyContribution()": "2569",
						"mathExample(uint256,uint256)": "infinite",
						"owner()": "2573",
						"withdraw(address)": "infinite"
					}
				},
				"methodIdentifiers": {
					"contribute(string)": "5c43217b",
					"contributors(address)": "1f6d4942",
					"getContractBalance()": "6f9fb98a",
					"getMyContribution()": "81c35cbd",
					"mathExample(uint256,uint256)": "00c07d09",
					"owner()": "8da5cb5b",
					"withdraw(address)": "51cff8d9"
				}
			},
			"storageLayout": {
				"storage": [
					{
						"astId": 3,
						"contract": "PayAndWithdraw.sol:PayAndWithdraw",
						"label": "owner",
						"offset": 0,
						"slot": "0",
						"type": "t_address"
					},
					{
						"astId": 13,
						"contract": "PayAndWithdraw.sol:PayAndWithdraw",
						"label": "contributors",
						"offset": 0,
						"slot": "1",
						"type": "t_mapping(t_address,t_struct(Contributor)8_storage)"
					}
				],
				"types": {
					"t_address": {
						"encoding": "inplace",
						"label": "address",
						"numberOfBytes": "20"
					},
					"t_mapping(t_address,t_struct(Contributor)8_storage)": {
						"encoding": "mapping",
						"key": "t_address",
						"label": "mapping(address => struct PayAndWithdraw.Contributor)",
						"numberOfBytes": "32",
						"value": "t_struct(Contributor)8_storage"
					},
					"t_string_storage": {
						"encoding": "bytes",
						"label": "string",
						"numberOfBytes": "32"
					},
					"t_struct(Contributor)8_storage": {
						"encoding": "inplace",
						"label": "struct PayAndWithdraw.Contributor",
						"members": [
							{
								"astId": 5,
								"contract": "PayAndWithdraw.sol:PayAndWithdraw",
								"label": "name",
								"offset": 0,
								"slot": "0",
								"type": "t_string_storage"
							},
							{
								"astId": 7,
								"contract": "PayAndWithdraw.sol:PayAndWithdraw",
								"label": "amount",
								"offset": 0,
								"slot": "1",
								"type": "t_uint256"
							}
						],
						"numberOfBytes": "64"
					},
					"t_uint256": {
						"encoding": "inplace",
						"label": "uint256",
						"numberOfBytes": "32"
					}
				}
			},
			"userdoc": {
				"kind": "user",
				"methods": {},
				"version": 1
			}
		}
	}
}