{
	"ErrorDemo.sol": {
		"ErrorDemo": {
			"abi": [
				{
					"inputs": [],
					"stateMutability": "nonpayable",
					"type": "constructor"
				},
				{
					"inputs": [],
					"name": "balance",
					"outputs": [
						{
							"internalType": "uint256",
							"name": "",
							"type": "uint256"
						}
					],
					"stateMutability": "view",
					"type": "function"
				},
				{
					"inputs": [],
					"name": "deposit",
					"outputs": [],
					"stateMutability": "payable",
					"type": "function"
				},
				{
					"inputs": [],
					"name": "owner",
					"outputs": [
						{
							"internalType": "address",
							"name": "",
							"type": "address"
						}
					],
					"stateMutability": "view",
					"type": "function"
				},
				{
					"inputs": [],
					"name": "testAssert",
					"outputs": [],
					"stateMutability": "view",
					"type": "function"
				},
				{
					"inputs": [
						{
							"internalType": "uint256",
							"name": "_amount",
							"type": "uint256"
						}
					],
					"name": "withdraw",
					"outputs": [],
					"stateMutability": "nonpayable",
					"type": "function"
				}
			],
			"devdoc": {
				"kind": "dev",
				"methods": {},
				"version": 1
			},
			"evm": {
				"assembly": "    /* \"ErrorDemo.sol\":57:616  contract ErrorDemo {... */\n  mstore(0x40, 0xa0)\n    /* \"ErrorDemo.sol\":144:193  constructor() {... */\n  callvalue\n  dup1\n  iszero\n  tag_1\n  jumpi\n  revert(0x00, 0x00)\ntag_1:\n  pop\n    /* \"ErrorDemo.sol\":176:186  msg.sender */\n  caller\n    /* \"ErrorDemo.sol\":168:186  owner = msg.sender */\n  0xffffffffffffffffffffffffffffffffffffffff\n  and\n  0x80\n  dup2\n  0xffffffffffffffffffffffffffffffffffffffff\n  and\n  dup2\n  mstore\n  pop\n  pop\n    /* \"ErrorDemo.sol\":57:616  contract ErrorDemo {... */\n  mload(0x80)\n  codecopy(0x00, dataOffset(sub_0), dataSize(sub_0))\n  0x00\n  assignImmutable(\"0x2a80e1ef1d7842f27f2e6be0972bb708b9a135c38860dbe73c27c3486c34f4de\")\n  return(0x00, dataSize(sub_0))\nstop\n\nsub_0: assembly {\n        /* \"ErrorDemo.sol\":57:616  contract ErrorDemo {... */\n      mstore(0x40, 0x80)\n      jumpi(tag_1, lt(calldatasize, 0x04))\n      shr(0xe0, calldataload(0x00))\n      dup1\n      0x2b813bc0\n      eq\n      tag_2\n      jumpi\n      dup1\n      0x2e1a7d4d\n      eq\n      tag_3\n      jumpi\n      dup1\n      0x8da5cb5b\n      eq\n      tag_4\n      jumpi\n      dup1\n      0xb69ef8a8\n      eq\n      tag_5\n      jumpi\n      dup1\n      0xd0e30db0\n      eq\n      tag_6\n      jumpi\n    tag_1:\n      revert(0x00, 0x00)\n        /* \"ErrorDemo.sol\":543:614  function testAssert() public view {... */\n    tag_2:\n      callvalue\n      dup1\n      iszero\n      tag_7\n      jumpi\n      revert(0x00, 0x00)\n    tag_7:\n      pop\n      tag_8\n      tag_9\n      jump\t// in\n    tag_8:\n      stop\n        /* \"ErrorDemo.sol\":325:537  function withdraw(uint _amount) public {... */\n    tag_3:\n      callvalue\n      dup1\n      iszero\n      tag_10\n      jumpi\n      revert(0x00, 0x00)\n    tag_10:\n      pop\n      tag_11\n      0x04\n      dup1\n      calldatasize\n      sub\n      dup2\n      add\n      swap1\n      tag_12\n      swap2\n      swap1\n      tag_13\n      jump\t// in\n    tag_12:\n      tag_14\n      jump\t// in\n    tag_11:\n      stop\n        /* \"ErrorDemo.sol\":82:112  address public immutable owner */\n    tag_4:\n      callvalue\n      dup1\n      iszero\n      tag_15\n      jumpi\n      revert(0x00, 0x00)\n    tag_15:\n      pop\n      tag_16\n      tag_17\n      jump\t// in\n    tag_16:\n      mload(0x40)\n      tag_18\n      swap2\n      swap1\n      tag_19\n      jump\t// in\n    tag_18:\n      mload(0x40)\n      dup1\n      swap2\n      sub\n      swap1\n      return\n        /* \"ErrorDemo.sol\":118:137  uint public balance */\n    tag_5:\n      callvalue\n      dup1\n      iszero\n      tag_20\n      jumpi\n      revert(0x00, 0x00)\n    tag_20:\n      pop\n      tag_21\n      tag_22\n      jump\t// in\n    tag_21:\n      mload(0x40)\n      tag_23\n      swap2\n      swap1\n      tag_24\n      jump\t// in\n    tag_23:\n      mload(0x40)\n      dup1\n      swap2\n      sub\n      swap1\n      return\n        /* \"ErrorDemo.sol\":199:319  function deposit() public payable {... */\n    tag_6:\n      tag_25\n      tag_26\n      jump\t// in\n    tag_25:\n      stop\n        /* \"ErrorDemo.sol\":543:614  function testAssert() public view {... */\n    tag_9:\n        /* \"ErrorDemo.sol\":605:606  0 */\n      0x00\n        /* \"ErrorDemo.sol\":594:601  balance */\n      sload(0x00)\n        /* \"ErrorDemo.sol\":594:606  balance >= 0 */\n      lt\n      iszero\n        /* \"ErrorDemo.sol\":587:607  assert(balance >= 0) */\n      tag_28\n      jumpi\n      tag_29\n      tag_30\n      jump\t// in\n    tag_29:\n    tag_28:\n        /* \"ErrorDemo.sol\":543:614  function testAssert() public view {... */\n      jump\t// out\n        /* \"ErrorDemo.sol\":325:537  function withdraw(uint _amount) public {... */\n    tag_14:\n        /* \"ErrorDemo.sol\":396:401  owner */\n      immutable(\"0x2a80e1ef1d7842f27f2e6be0972bb708b9a135c38860dbe73c27c3486c34f4de\")\n        /* \"ErrorDemo.sol\":382:401  msg.sender == owner */\n      0xffffffffffffffffffffffffffffffffffffffff\n      and\n        /* \"ErrorDemo.sol\":382:392  msg.sender */\n      caller\n        /* \"ErrorDemo.sol\":382:401  msg.sender == owner */\n      0xffffffffffffffffffffffffffffffffffffffff\n      and\n      eq\n        /* \"ErrorDemo.sol\":374:415  require(msg.sender == owner, \"Not owner\") */\n      tag_32\n      jumpi\n      mload(0x40)\n      0x08c379a000000000000000000000000000000000000000000000000000000000\n      dup2\n      mstore\n      0x04\n      add\n      tag_33\n      swap1\n      tag_34\n      jump\t// in\n    tag_33:\n      mload(0x40)\n      dup1\n      swap2\n      sub\n      swap1\n      revert\n    tag_32:\n        /* \"ErrorDemo.sol\":439:446  balance */\n      sload(0x00)\n        /* \"ErrorDemo.sol\":429:436  _amount */\n      dup2\n        /* \"ErrorDemo.sol\":429:446  _amount > balance */\n      gt\n        /* \"ErrorDemo.sol\":425:503  if (_amount > balance) {... */\n      iszero\n      tag_35\n      jumpi\n        /* \"ErrorDemo.sol\":462:492  revert(\"Insufficient balance\") */\n      mload(0x40)\n      0x08c379a000000000000000000000000000000000000000000000000000000000\n      dup2\n      mstore\n      0x04\n      add\n      tag_36\n      swap1\n      tag_37\n      jump\t// in\n    tag_36:\n      mload(0x40)\n      dup1\n      swap2\n      sub\n      swap1\n      revert\n        /* \"ErrorDemo.sol\":425:503  if (_amount > balance) {... */\n    tag_35:\n        /* \"ErrorDemo.sol\":523:530  _amount */\n      dup1\n        /* \"ErrorDemo.sol\":512:519  balance */\n      0x00\n      0x00\n        /* \"ErrorDemo.sol\":512:530  balance -= _amount */\n      dup3\n      dup3\n      sload\n      tag_38\n      swap2\n      swap1\n      tag_39\n      jump\t// in\n    tag_38:\n      swap3\n      pop\n      pop\n      dup2\n      swap1\n      sstore\n      pop\n        /* \"ErrorDemo.sol\":325:537  function withdraw(uint _amount) public {... */\n      pop\n      jump\t// out\n        /* \"ErrorDemo.sol\":82:112  address public immutable owner */\n    tag_17:\n      immutable(\"0x2a80e1ef1d7842f27f2e6be0972bb708b9a135c38860dbe73c27c3486c34f4de\")\n      dup2\n      jump\t// out\n        /* \"ErrorDemo.sol\":118:137  uint public balance */\n    tag_22:\n      sload(0x00)\n      dup2\n      jump\t// out\n        /* \"ErrorDemo.sol\":199:319  function deposit() public payable {... */\n    tag_26:\n        /* \"ErrorDemo.sol\":263:264  0 */\n      0x00\n        /* \"ErrorDemo.sol\":251:260  msg.value */\n      callvalue\n        /* \"ErrorDemo.sol\":251:264  msg.value > 0 */\n      gt\n        /* \"ErrorDemo.sol\":243:282  require(msg.value > 0, \"Must send ETH\") */\n      tag_41\n      jumpi\n      mload(0x40)\n      0x08c379a000000000000000000000000000000000000000000000000000000000\n      dup2\n      mstore\n      0x04\n      add\n      tag_42\n      swap1\n      tag_43\n      jump\t// in\n    tag_42:\n      mload(0x40)\n      dup1\n      swap2\n      sub\n      swap1\n      revert\n    tag_41:\n        /* \"ErrorDemo.sol\":303:312  msg.value */\n      callvalue\n        /* \"ErrorDemo.sol\":292:299  balance */\n      0x00\n      0x00\n        /* \"ErrorDemo.sol\":292:312  balance += msg.value */\n      dup3\n      dup3\n      sload\n      tag_44\n      swap2\n      swap1\n      tag_45\n      jump\t// in\n    tag_44:\n      swap3\n      pop\n      pop\n      dup2\n      swap1\n      sstore\n      pop\n        /* \"ErrorDemo.sol\":199:319  function deposit() public payable {... */\n      jump\t// out\n        /* \"#utility.yul\":88:205   */\n    tag_47:\n        /* \"#utility.yul\":197:198   */\n      0x00\n        /* \"#utility.yul\":194:195   */\n      0x00\n        /* \"#utility.yul\":187:199   */\n      revert\n        /* \"#utility.yul\":334:411   */\n    tag_49:\n        /* \"#utility.yul\":371:378   */\n      0x00\n        /* \"#utility.yul\":400:405   */\n      dup2\n        /* \"#utility.yul\":389:405   */\n      swap1\n      pop\n        /* \"#utility.yul\":334:411   */\n      swap2\n      swap1\n      pop\n      jump\t// out\n        /* \"#utility.yul\":417:539   */\n    tag_50:\n        /* \"#utility.yul\":490:514   */\n      tag_70\n        /* \"#utility.yul\":508:513   */\n      dup2\n        /* \"#utility.yul\":490:514   */\n      tag_49\n      jump\t// in\n    tag_70:\n        /* \"#utility.yul\":483:488   */\n      dup2\n        /* \"#utility.yul\":480:515   */\n      eq\n        /* \"#utility.yul\":470:533   */\n      tag_71\n      jumpi\n        /* \"#utility.yul\":529:530   */\n      0x00\n        /* \"#utility.yul\":526:527   */\n      0x00\n        /* \"#utility.yul\":519:531   */\n      revert\n        /* \"#utility.yul\":470:533   */\n    tag_71:\n        /* \"#utility.yul\":417:539   */\n      pop\n      jump\t// out\n        /* \"#utility.yul\":545:684   */\n    tag_51:\n        /* \"#utility.yul\":591:596   */\n      0x00\n        /* \"#utility.yul\":629:635   */\n      dup2\n        /* \"#utility.yul\":616:636   */\n      calldataload\n        /* \"#utility.yul\":607:636   */\n      swap1\n      pop\n        /* \"#utility.yul\":645:678   */\n      tag_73\n        /* \"#utility.yul\":672:677   */\n      dup2\n        /* \"#utility.yul\":645:678   */\n      tag_50\n      jump\t// in\n    tag_73:\n        /* \"#utility.yul\":545:684   */\n      swap3\n      swap2\n      pop\n      pop\n      jump\t// out\n        /* \"#utility.yul\":690:1019   */\n    tag_13:\n        /* \"#utility.yul\":749:755   */\n      0x00\n        /* \"#utility.yul\":798:800   */\n      0x20\n        /* \"#utility.yul\":786:795   */\n      dup3\n        /* \"#utility.yul\":777:784   */\n      dup5\n        /* \"#utility.yul\":773:796   */\n      sub\n        /* \"#utility.yul\":769:801   */\n      slt\n        /* \"#utility.yul\":766:885   */\n      iszero\n      tag_75\n      jumpi\n        /* \"#utility.yul\":804:883   */\n      tag_76\n      tag_47\n      jump\t// in\n    tag_76:\n        /* \"#utility.yul\":766:885   */\n    tag_75:\n        /* \"#utility.yul\":924:925   */\n      0x00\n        /* \"#utility.yul\":949:1002   */\n      tag_77\n        /* \"#utility.yul\":994:1001   */\n      dup5\n        /* \"#utility.yul\":985:991   */\n      dup3\n        /* \"#utility.yul\":974:983   */\n      dup6\n        /* \"#utility.yul\":970:992   */\n      add\n        /* \"#utility.yul\":949:1002   */\n      tag_51\n      jump\t// in\n    tag_77:\n        /* \"#utility.yul\":939:1002   */\n      swap2\n      pop\n        /* \"#utility.yul\":895:1012   */\n      pop\n        /* \"#utility.yul\":690:1019   */\n      swap3\n      swap2\n      pop\n      pop\n      jump\t// out\n        /* \"#utility.yul\":1025:1151   */\n    tag_52:\n        /* \"#utility.yul\":1062:1069   */\n      0x00\n        /* \"#utility.yul\":1102:1144   */\n      0xffffffffffffffffffffffffffffffffffffffff\n        /* \"#utility.yul\":1095:1100   */\n      dup3\n        /* \"#utility.yul\":1091:1145   */\n      and\n        /* \"#utility.yul\":1080:1145   */\n      swap1\n      pop\n        /* \"#utility.yul\":1025:1151   */\n      swap2\n      swap1\n      pop\n      jump\t// out\n        /* \"#utility.yul\":1157:1253   */\n    tag_53:\n        /* \"#utility.yul\":1194:1201   */\n      0x00\n        /* \"#utility.yul\":1223:1247   */\n      tag_80\n        /* \"#utility.yul\":1241:1246   */\n      dup3\n        /* \"#utility.yul\":1223:1247   */\n      tag_52\n      jump\t// in\n    tag_80:\n        /* \"#utility.yul\":1212:1247   */\n      swap1\n      pop\n        /* \"#utility.yul\":1157:1253   */\n      swap2\n      swap1\n      pop\n      jump\t// out\n        /* \"#utility.yul\":1259:1377   */\n    tag_54:\n        /* \"#utility.yul\":1346:1370   */\n      tag_82\n        /* \"#utility.yul\":1364:1369   */\n      dup2\n        /* \"#utility.yul\":1346:1370   */\n      tag_53\n      jump\t// in\n    tag_82:\n        /* \"#utility.yul\":1341:1344   */\n      dup3\n        /* \"#utility.yul\":1334:1371   */\n      mstore\n        /* \"#utility.yul\":1259:1377   */\n      pop\n      pop\n      jump\t// out\n        /* \"#utility.yul\":1383:1605   */\n    tag_19:\n        /* \"#utility.yul\":1476:1480   */\n      0x00\n        /* \"#utility.yul\":1514:1516   */\n      0x20\n        /* \"#utility.yul\":1503:1512   */\n      dup3\n        /* \"#utility.yul\":1499:1517   */\n      add\n        /* \"#utility.yul\":1491:1517   */\n      swap1\n      pop\n        /* \"#utility.yul\":1527:1598   */\n      tag_84\n        /* \"#utility.yul\":1595:1596   */\n      0x00\n        /* \"#utility.yul\":1584:1593   */\n      dup4\n        /* \"#utility.yul\":1580:1597   */\n      add\n        /* \"#utility.yul\":1571:1577   */\n      dup5\n        /* \"#utility.yul\":1527:1598   */\n      tag_54\n      jump\t// in\n    tag_84:\n        /* \"#utility.yul\":1383:1605   */\n      swap3\n      swap2\n      pop\n      pop\n      jump\t// out\n        /* \"#utility.yul\":1611:1729   */\n    tag_55:\n        /* \"#utility.yul\":1698:1722   */\n      tag_86\n        /* \"#utility.yul\":1716:1721   */\n      dup2\n        /* \"#utility.yul\":1698:1722   */\n      tag_49\n      jump\t// in\n    tag_86:\n        /* \"#utility.yul\":1693:1696   */\n      dup3\n        /* \"#utility.yul\":1686:1723   */\n      mstore\n        /* \"#utility.yul\":1611:1729   */\n      pop\n      pop\n      jump\t// out\n        /* \"#utility.yul\":1735:1957   */\n    tag_24:\n        /* \"#utility.yul\":1828:1832   */\n      0x00\n        /* \"#utility.yul\":1866:1868   */\n      0x20\n        /* \"#utility.yul\":1855:1864   */\n      dup3\n        /* \"#utility.yul\":1851:1869   */\n      add\n        /* \"#utility.yul\":1843:1869   */\n      swap1\n      pop\n        /* \"#utility.yul\":1879:1950   */\n      tag_88\n        /* \"#utility.yul\":1947:1948   */\n      0x00\n        /* \"#utility.yul\":1936:1945   */\n      dup4\n        /* \"#utility.yul\":1932:1949   */\n      add\n        /* \"#utility.yul\":1923:1929   */\n      dup5\n        /* \"#utility.yul\":1879:1950   */\n      tag_55\n      jump\t// in\n    tag_88:\n        /* \"#utility.yul\":1735:1957   */\n      swap3\n      swap2\n      pop\n      pop\n      jump\t// out\n        /* \"#utility.yul\":1963:2143   */\n    tag_30:\n        /* \"#utility.yul\":2011:2088   */\n      0x4e487b7100000000000000000000000000000000000000000000000000000000\n        /* \"#utility.yul\":2008:2009   */\n      0x00\n        /* \"#utility.yul\":2001:2089   */\n      mstore\n        /* \"#utility.yul\":2108:2112   */\n      0x01\n        /* \"#utility.yul\":2105:2106   */\n      0x04\n        /* \"#utility.yul\":2098:2113   */\n      mstore\n        /* \"#utility.yul\":2132:2136   */\n      0x24\n        /* \"#utility.yul\":2129:2130   */\n      0x00\n        /* \"#utility.yul\":2122:2137   */\n      revert\n        /* \"#utility.yul\":2149:2318   */\n    tag_56:\n        /* \"#utility.yul\":2233:2244   */\n      0x00\n        /* \"#utility.yul\":2267:2273   */\n      dup3\n        /* \"#utility.yul\":2262:2265   */\n      dup3\n        /* \"#utility.yul\":2255:2274   */\n      mstore\n        /* \"#utility.yul\":2307:2311   */\n      0x20\n        /* \"#utility.yul\":2302:2305   */\n      dup3\n        /* \"#utility.yul\":2298:2312   */\n      add\n        /* \"#utility.yul\":2283:2312   */\n      swap1\n      pop\n        /* \"#utility.yul\":2149:2318   */\n      swap3\n      swap2\n      pop\n      pop\n      jump\t// out\n        /* \"#utility.yul\":2324:2483   */\n    tag_57:\n        /* \"#utility.yul\":2464:2475   */\n      0x4e6f74206f776e65720000000000000000000000000000000000000000000000\n        /* \"#utility.yul\":2460:2461   */\n      0x00\n        /* \"#utility.yul\":2452:2458   */\n      dup3\n        /* \"#utility.yul\":2448:2462   */\n      add\n        /* \"#utility.yul\":2441:2476   */\n      mstore\n        /* \"#utility.yul\":2324:2483   */\n      pop\n      jump\t// out\n        /* \"#utility.yul\":2489:2854   */\n    tag_58:\n        /* \"#utility.yul\":2631:2634   */\n      0x00\n        /* \"#utility.yul\":2652:2718   */\n      tag_93\n        /* \"#utility.yul\":2716:2717   */\n      0x09\n        /* \"#utility.yul\":2711:2714   */\n      dup4\n        /* \"#utility.yul\":2652:2718   */\n      tag_56\n      jump\t// in\n    tag_93:\n        /* \"#utility.yul\":2645:2718   */\n      swap2\n      pop\n        /* \"#utility.yul\":2727:2820   */\n      tag_94\n        /* \"#utility.yul\":2816:2819   */\n      dup3\n        /* \"#utility.yul\":2727:2820   */\n      tag_57\n      jump\t// in\n    tag_94:\n        /* \"#utility.yul\":2845:2847   */\n      0x20\n        /* \"#utility.yul\":2840:2843   */\n      dup3\n        /* \"#utility.yul\":2836:2848   */\n      add\n        /* \"#utility.yul\":2829:2848   */\n      swap1\n      pop\n        /* \"#utility.yul\":2489:2854   */\n      swap2\n      swap1\n      pop\n      jump\t// out\n        /* \"#utility.yul\":2860:3279   */\n    tag_34:\n        /* \"#utility.yul\":3026:3030   */\n      0x00\n        /* \"#utility.yul\":3064:3066   */\n      0x20\n        /* \"#utility.yul\":3053:3062   */\n      dup3\n        /* \"#utility.yul\":3049:3067   */\n      add\n        /* \"#utility.yul\":3041:3067   */\n      swap1\n      pop\n        /* \"#utility.yul\":3113:3122   */\n      dup2\n        /* \"#utility.yul\":3107:3111   */\n      dup2\n        /* \"#utility.yul\":3103:3123   */\n      sub\n        /* \"#utility.yul\":3099:3100   */\n      0x00\n        /* \"#utility.yul\":3088:3097   */\n      dup4\n        /* \"#utility.yul\":3084:3101   */\n      add\n        /* \"#utility.yul\":3077:3124   */\n      mstore\n        /* \"#utility.yul\":3141:3272   */\n      tag_96\n        /* \"#utility.yul\":3267:3271   */\n      dup2\n        /* \"#utility.yul\":3141:3272   */\n      tag_58\n      jump\t// in\n    tag_96:\n        /* \"#utility.yul\":3133:3272   */\n      swap1\n      pop\n        /* \"#utility.yul\":2860:3279   */\n      swap2\n      swap1\n      pop\n      jump\t// out\n        /* \"#utility.yul\":3285:3455   */\n    tag_59:\n        /* \"#utility.yul\":3425:3447   */\n      0x496e73756666696369656e742062616c616e6365000000000000000000000000\n        /* \"#utility.yul\":3421:3422   */\n      0x00\n        /* \"#utility.yul\":3413:3419   */\n      dup3\n        /* \"#utility.yul\":3409:3423   */\n      add\n        /* \"#utility.yul\":3402:3448   */\n      mstore\n        /* \"#utility.yul\":3285:3455   */\n      pop\n      jump\t// out\n        /* \"#utility.yul\":3461:3827   */\n    tag_60:\n        /* \"#utility.yul\":3603:3606   */\n      0x00\n        /* \"#utility.yul\":3624:3691   */\n      tag_99\n        /* \"#utility.yul\":3688:3690   */\n      0x14\n        /* \"#utility.yul\":3683:3686   */\n      dup4\n        /* \"#utility.yul\":3624:3691   */\n      tag_56\n      jump\t// in\n    tag_99:\n        /* \"#utility.yul\":3617:3691   */\n      swap2\n      pop\n        /* \"#utility.yul\":3700:3793   */\n      tag_100\n        /* \"#utility.yul\":3789:3792   */\n      dup3\n        /* \"#utility.yul\":3700:3793   */\n      tag_59\n      jump\t// in\n    tag_100:\n        /* \"#utility.yul\":3818:3820   */\n      0x20\n        /* \"#utility.yul\":3813:3816   */\n      dup3\n        /* \"#utility.yul\":3809:3821   */\n      add\n        /* \"#utility.yul\":3802:3821   */\n      swap1\n      pop\n        /* \"#utility.yul\":3461:3827   */\n      swap2\n      swap1\n      pop\n      jump\t// out\n        /* \"#utility.yul\":3833:4252   */\n    tag_37:\n        /* \"#utility.yul\":3999:4003   */\n      0x00\n        /* \"#utility.yul\":4037:4039   */\n      0x20\n        /* \"#utility.yul\":4026:4035   */\n      dup3\n        /* \"#utility.yul\":4022:4040   */\n      add\n        /* \"#utility.yul\":4014:4040   */\n      swap1\n      pop\n        /* \"#utility.yul\":4086:4095   */\n      dup2\n        /* \"#utility.yul\":4080:4084   */\n      dup2\n        /* \"#utility.yul\":4076:4096   */\n      sub\n        /* \"#utility.yul\":4072:4073   */\n      0x00\n        /* \"#utility.yul\":4061:4070   */\n      dup4\n        /* \"#utility.yul\":4057:4074   */\n      add\n        /* \"#utility.yul\":4050:4097   */\n      mstore\n        /* \"#utility.yul\":4114:4245   */\n      tag_102\n        /* \"#utility.yul\":4240:4244   */\n      dup2\n        /* \"#utility.yul\":4114:4245   */\n      tag_60\n      jump\t// in\n    tag_102:\n        /* \"#utility.yul\":4106:4245   */\n      swap1\n      pop\n        /* \"#utility.yul\":3833:4252   */\n      swap2\n      swap1\n      pop\n      jump\t// out\n        /* \"#utility.yul\":4258:4438   */\n    tag_61:\n        /* \"#utility.yul\":4306:4383   */\n      0x4e487b7100000000000000000000000000000000000000000000000000000000\n        /* \"#utility.yul\":4303:4304   */\n      0x00\n        /* \"#utility.yul\":4296:4384   */\n      mstore\n        /* \"#utility.yul\":4403:4407   */\n      0x11\n        /* \"#utility.yul\":4400:4401   */\n      0x04\n        /* \"#utility.yul\":4393:4408   */\n      mstore\n        /* \"#utility.yul\":4427:4431   */\n      0x24\n        /* \"#utility.yul\":4424:4425   */\n      0x00\n        /* \"#utility.yul\":4417:4432   */\n      revert\n        /* \"#utility.yul\":4444:4638   */\n    tag_39:\n        /* \"#utility.yul\":4484:4488   */\n      0x00\n        /* \"#utility.yul\":4504:4524   */\n      tag_105\n        /* \"#utility.yul\":4522:4523   */\n      dup3\n        /* \"#utility.yul\":4504:4524   */\n      tag_49\n      jump\t// in\n    tag_105:\n        /* \"#utility.yul\":4499:4524   */\n      swap2\n      pop\n        /* \"#utility.yul\":4538:4558   */\n      tag_106\n        /* \"#utility.yul\":4556:4557   */\n      dup4\n        /* \"#utility.yul\":4538:4558   */\n      tag_49\n      jump\t// in\n    tag_106:\n        /* \"#utility.yul\":4533:4558   */\n      swap3\n      pop\n        /* \"#utility.yul\":4582:4583   */\n      dup3\n        /* \"#utility.yul\":4579:4580   */\n      dup3\n        /* \"#utility.yul\":4575:4584   */\n      sub\n        /* \"#utility.yul\":4567:4584   */\n      swap1\n      pop\n        /* \"#utility.yul\":4606:4607   */\n      dup2\n        /* \"#utility.yul\":4600:4604   */\n      dup2\n        /* \"#utility.yul\":4597:4608   */\n      gt\n        /* \"#utility.yul\":4594:4631   */\n      iszero\n      tag_107\n      jumpi\n        /* \"#utility.yul\":4611:4629   */\n      tag_108\n      tag_61\n      jump\t// in\n    tag_108:\n        /* \"#utility.yul\":4594:4631   */\n    tag_107:\n        /* \"#utility.yul\":4444:4638   */\n      swap3\n      swap2\n      pop\n      pop\n      jump\t// out\n        /* \"#utility.yul\":4644:4807   */\n    tag_62:\n        /* \"#utility.yul\":4784:4799   */\n      0x4d7573742073656e642045544800000000000000000000000000000000000000\n        /* \"#utility.yul\":4780:4781   */\n      0x00\n        /* \"#utility.yul\":4772:4778   */\n      dup3\n        /* \"#utility.yul\":4768:4782   */\n      add\n        /* \"#utility.yul\":4761:4800   */\n      mstore\n        /* \"#utility.yul\":4644:4807   */\n      pop\n      jump\t// out\n        /* \"#utility.yul\":4813:5179   */\n    tag_63:\n        /* \"#utility.yul\":4955:4958   */\n      0x00\n        /* \"#utility.yul\":4976:5043   */\n      tag_111\n        /* \"#utility.yul\":5040:5042   */\n      0x0d\n        /* \"#utility.yul\":5035:5038   */\n      dup4\n        /* \"#utility.yul\":4976:5043   */\n      tag_56\n      jump\t// in\n    tag_111:\n        /* \"#utility.yul\":4969:5043   */\n      swap2\n      pop\n        /* \"#utility.yul\":5052:5145   */\n      tag_112\n        /* \"#utility.yul\":5141:5144   */\n      dup3\n        /* \"#utility.yul\":5052:5145   */\n      tag_62\n      jump\t// in\n    tag_112:\n        /* \"#utility.yul\":5170:5172   */\n      0x20\n        /* \"#utility.yul\":5165:5168   */\n      dup3\n        /* \"#utility.yul\":5161:5173   */\n      add\n        /* \"#utility.yul\":5154:5173   */\n      swap1\n      pop\n        /* \"#utility.yul\":4813:5179   */\n      swap2\n      swap1\n      pop\n      jump\t// out\n        /* \"#utility.yul\":5185:5604   */\n    tag_43:\n        /* \"#utility.yul\":5351:5355   */\n      0x00\n        /* \"#utility.yul\":5389:5391   */\n      0x20\n        /* \"#utility.yul\":5378:5387   */\n      dup3\n        /* \"#utility.yul\":5374:5392   */\n      add\n        /* \"#utility.yul\":5366:5392   */\n      swap1\n      pop\n        /* \"#utility.yul\":5438:5447   */\n      dup2\n        /* \"#utility.yul\":5432:5436   */\n      dup2\n        /* \"#utility.yul\":5428:5448   */\n      sub\n        /* \"#utility.yul\":5424:5425   */\n      0x00\n        /* \"#utility.yul\":5413:5422   */\n      dup4\n        /* \"#utility.yul\":5409:5426   */\n      add\n        /* \"#utility.yul\":5402:5449   */\n      mstore\n        /* \"#utility.yul\":5466:5597   */\n      tag_114\n        /* \"#utility.yul\":5592:5596   */\n      dup2\n        /* \"#utility.yul\":5466:5597   */\n      tag_63\n      jump\t// in\n    tag_114:\n        /* \"#utility.yul\":5458:5597   */\n      swap1\n      pop\n        /* \"#utility.yul\":5185:5604   */\n      swap2\n      swap1\n      pop\n      jump\t// out\n        /* \"#utility.yul\":5610:5801   */\n    tag_45:\n        /* \"#utility.yul\":5650:5653   */\n      0x00\n        /* \"#utility.yul\":5669:5689   */\n      tag_116\n        /* \"#utility.yul\":5687:5688   */\n      dup3\n        /* \"#utility.yul\":5669:5689   */\n      tag_49\n      jump\t// in\n    tag_116:\n        /* \"#utility.yul\":5664:5689   */\n      swap2\n      pop\n        /* \"#utility.yul\":5703:5723   */\n      tag_117\n        /* \"#utility.yul\":5721:5722   */\n      dup4\n        /* \"#utility.yul\":5703:5723   */\n      tag_49\n      jump\t// in\n    tag_117:\n        /* \"#utility.yul\":5698:5723   */\n      swap3\n      pop\n        /* \"#utility.yul\":5746:5747   */\n      dup3\n        /* \"#utility.yul\":5743:5744   */\n      dup3\n        /* \"#utility.yul\":5739:5748   */\n      add\n        /* \"#utility.yul\":5732:5748   */\n      swap1\n      pop\n        /* \"#utility.yul\":5767:5770   */\n      dup1\n        /* \"#utility.yul\":5764:5765   */\n      dup3\n        /* \"#utility.yul\":5761:5771   */\n      gt\n        /* \"#utility.yul\":5758:5794   */\n      iszero\n      tag_118\n      jumpi\n        /* \"#utility.yul\":5774:5792   */\n      tag_119\n      tag_61\n      jump\t// in\n    tag_119:\n        /* \"#utility.yul\":5758:5794   */\n    tag_118:\n        /* \"#utility.yul\":5610:5801   */\n      swap3\n      swap2\n      pop\n      pop\n      jump\t// out\n\n    auxdata: 0xa26469706673582212201c5201ea2eaab05c4ed7ffafb4a52d32f5463bf3d2594a2120c002197fd7703d64736f6c634300081e0033\n}\n",
				"bytecode": {
					"linkReferences": {},
					"object": "60a0604052348015600e575f5ffd5b503373ffffffffffffffffffffffffffffffffffffffff1660808173ffffffffffffffffffffffffffffffffffffffff168152505060805161058d6100615f395f818160ff01526101eb015261058d5ff3fe608060405260043610610049575f3560e01c80632b813bc01461004d5780632e1a7d4d146100635780638da5cb5b1461008b578063b69ef8a8146100b5578063d0e30db0146100df575b5f5ffd5b348015610058575f5ffd5b506100616100e9565b005b34801561006e575f5ffd5b50610089600480360381019061008491906102a4565b6100fd565b005b348015610096575f5ffd5b5061009f6101e9565b6040516100ac919061030e565b60405180910390f35b3480156100c0575f5ffd5b506100c961020d565b6040516100d69190610336565b60405180910390f35b6100e7610212565b005b5f5f5410156100fb576100fa61034f565b5b565b7f000000000000000000000000000000000000000000000000000000000000000073ffffffffffffffffffffffffffffffffffffffff163373ffffffffffffffffffffffffffffffffffffffff161461018b576040517f08c379a0000000000000000000000000000000000000000000000000000000008152600401610182906103d6565b60405180910390fd5b5f548111156101cf576040517f08c379a00000000000000000000000000000000000000000000000000000000081526004016101c69061043e565b60405180910390fd5b805f5f8282546101df9190610489565b9250508190555050565b7f000000000000000000000000000000000000000000000000000000000000000081565b5f5481565b5f3411610254576040517f08c379a000000000000000000000000000000000000000000000000000000000815260040161024b90610506565b60405180910390fd5b345f5f8282546102649190610524565b92505081905550565b5f5ffd5b5f819050919050565b61028381610271565b811461028d575f5ffd5b50565b5f8135905061029e8161027a565b92915050565b5f602082840312156102b9576102b861026d565b5b5f6102c684828501610290565b91505092915050565b5f73ffffffffffffffffffffffffffffffffffffffff82169050919050565b5f6102f8826102cf565b9050919050565b610308816102ee565b82525050565b5f6020820190506103215f8301846102ff565b92915050565b61033081610271565b82525050565b5f6020820190506103495f830184610327565b92915050565b7f4e487b71000000000000000000000000000000000000000000000000000000005f52600160045260245ffd5b5f82825260208201905092915050565b7f4e6f74206f776e657200000000000000000000000000000000000000000000005f82015250565b5f6103c060098361037c565b91506103cb8261038c565b602082019050919050565b5f6020820190508181035f8301526103ed816103b4565b9050919050565b7f496e73756666696369656e742062616c616e63650000000000000000000000005f82015250565b5f61042860148361037c565b9150610433826103f4565b602082019050919050565b5f6020820190508181035f8301526104558161041c565b9050919050565b7f4e487b71000000000000000000000000000000000000000000000000000000005f52601160045260245ffd5b5f61049382610271565b915061049e83610271565b92508282039050818111156104b6576104b561045c565b5b92915050565b7f4d7573742073656e6420455448000000000000000000000000000000000000005f82015250565b5f6104f0600d8361037c565b91506104fb826104bc565b602082019050919050565b5f6020820190508181035f83015261051d816104e4565b9050919050565b5f61052e82610271565b915061053983610271565b92508282019050808211156105515761055061045c565b5b9291505056fea26469706673582212201c5201ea2eaab05c4ed7ffafb4a52d32f5463bf3d2594a2120c002197fd7703d64736f6c634300081e0033",
					"opcodes": "PUSH1 0xA0 PUSH1 0x40 MSTORE CALLVALUE DUP1 ISZERO PUSH1 0xE JUMPI PUSH0 PUSH0 REVERT JUMPDEST POP CALLER PUSH20 0xFFFFFFFFFFFFFFFFFFFFFFFFFFFFFFFFFFFFFFFF AND PUSH1 0x80 DUP2 PUSH20 0xFFFFFFFFFFFFFFFFFFFFFFFFFFFFFFFFFFFFFFFF AND DUP2 MSTORE POP POP PUSH1 0x80 MLOAD PUSH2 0x58D PUSH2 0x61 PUSH0 CODECOPY PUSH0 DUP2 DUP2 PUSH1 0xFF ADD MSTORE PUSH2 0x1EB ADD MSTORE PUSH2 0x58D PUSH0 RETURN INVALID PUSH1 0x80 PUSH1 0x40 MSTORE PUSH1 0x4 CALLDATASIZE LT PUSH2 0x49 JUMPI PUSH0 CALLDATALOAD PUSH1 0xE0 SHR DUP1 PUSH4 0x2B813BC0 EQ PUSH2 0x4D JUMPI DUP1 PUSH4 0x2E1A7D4D EQ PUSH2 0x63 JUMPI DUP1 PUSH4 0x8DA5CB5B EQ PUSH2 0x8B JUMPI DUP1 PUSH4 0xB69EF8A8 EQ PUSH2 0xB5 JUMPI DUP1 PUSH4 0xD0E30DB0 EQ PUSH2 0xDF JUMPI JUMPDEST PUSH0 PUSH0 REVERT JUMPDEST CALLVALUE DUP1 ISZERO PUSH2 0x58 JUMPI PUSH0 PUSH0 REVERT JUMPDEST POP PUSH2 0x61 PUSH2 0xE9 JUMP JUMPDEST STOP JUMPDEST CALLVALUE DUP1 ISZERO PUSH2 0x6E JUMPI PUSH0 PUSH0 REVERT JUMPDEST POP PUSH2 0x89 PUSH1 0x4 DUP1 CALLDATASIZE SUB DUP2 ADD SWAP1 PUSH2 0x84 SWAP2 SWAP1 PUSH2 0x2A4 JUMP JUMPDEST PUSH2 0xFD JUMP JUMPDEST STOP JUMPDEST CALLVALUE DUP1 ISZERO PUSH2 0x96 JUMPI PUSH0 PUSH0 REVERT JUMPDEST POP PUSH2 0x9F PUSH2 0x1E9 JUMP JUMPDEST PUSH1 0x40 MLOAD PUSH2 0xAC SWAP2 SWAP1 PUSH2 0x30E JUMP JUMPDEST PUSH1 0x40 MLOAD DUP1 SWAP2 SUB SWAP1 RETURN JUMPDEST CALLVALUE DUP1 ISZERO PUSH2 0xC0 JUMPI PUSH0 PUSH0 REVERT JUMPDEST POP PUSH2 0xC9 PUSH2 0x20D JUMP JUMPDEST PUSH1 0x40 MLOAD PUSH2 0xD6 SWAP2 SWAP1 PUSH2 0x336 JUMP JUMPDEST PUSH1 0x40 MLOAD DUP1 SWAP2 SUB SWAP1 RETURN JUMPDEST PUSH2 0xE7 PUSH2 0x212 JUMP JUMPDEST STOP JUMPDEST PUSH0 PUSH0 SLOAD LT ISZERO PUSH2 0xFB JUMPI PUSH2 0xFA PUSH2 0x34F JUMP JUMPDEST JUMPDEST JUMP JUMPDEST PUSH32 0x0 PUSH20 0xFFFFFFFFFFFFFFFFFFFFFFFFFFFFFFFFFFFFFFFF AND CALLER PUSH20 0xFFFFFFFFFFFFFFFFFFFFFFFFFFFFFFFFFFFFFFFF AND EQ PUSH2 0x18B JUMPI PUSH1 0x40 MLOAD PUSH32 0x8C379A000000000000000000000000000000000000000000000000000000000 DUP2 MSTORE PUSH1 0x4 ADD PUSH2 0x182 SWAP1 PUSH2 0x3D6 JUMP JUMPDEST PUSH1 0x40 MLOAD DUP1 SWAP2 SUB SWAP1 REVERT JUMPDEST PUSH0 SLOAD DUP2 GT ISZERO PUSH2 0x1CF JUMPI PUSH1 0x40 MLOAD PUSH32 0x8C379A000000000000000000000000000000000000000000000000000000000 DUP2 MSTORE PUSH1 0x4 ADD PUSH2 0x1C6 SWAP1 PUSH2 0x43E JUMP JUMPDEST PUSH1 0x40 MLOAD DUP1 SWAP2 SUB SWAP1 REVERT JUMPDEST DUP1 PUSH0 PUSH0 DUP3 DUP3 SLOAD PUSH2 0x1DF SWAP2 SWAP1 PUSH2 0x489 JUMP JUMPDEST SWAP3 POP POP DUP2 SWAP1 SSTORE POP POP JUMP JUMPDEST PUSH32 0x0 DUP2 JUMP JUMPDEST PUSH0 SLOAD DUP2 JUMP JUMPDEST PUSH0 CALLVALUE GT PUSH2 0x254 JUMPI PUSH1 0x40 MLOAD PUSH32 0x8C379A000000000000000000000000000000000000000000000000000000000 DUP2 MSTORE PUSH1 0x4 ADD PUSH2 0x24B SWAP1 PUSH2 0x506 JUMP JUMPDEST PUSH1 0x40 MLOAD DUP1 SWAP2 SUB SWAP1 REVERT JUMPDEST CALLVALUE PUSH0 PUSH0 DUP3 DUP3 SLOAD PUSH2 0x264 SWAP2 SWAP1 PUSH2 0x524 JUMP JUMPDEST SWAP3 POP POP DUP2 SWAP1 SSTORE POP JUMP JUMPDEST PUSH0 PUSH0 REVERT JUMPDEST PUSH0 DUP2 SWAP1 POP SWAP2 SWAP1 POP JUMP JUMPDEST PUSH2 0x283 DUP2 PUSH2 0x271 JUMP JUMPDEST DUP2 EQ PUSH2 0x28D JUMPI PUSH0 PUSH0 REVERT JUMPDEST POP JUMP JUMPDEST PUSH0 DUP2 CALLDATALOAD SWAP1 POP PUSH2 0x29E DUP2 PUSH2 0x27A JUMP JUMPDEST SWAP3 SWAP2 POP POP JUMP JUMPDEST PUSH0 PUSH1 0x20 DUP3 DUP5 SUB SLT ISZERO PUSH2 0x2B9 JUMPI PUSH2 0x2B8 PUSH2 0x26D JUMP JUMPDEST JUMPDEST PUSH0 PUSH2 0x2C6 DUP5 DUP3 DUP6 ADD PUSH2 0x290 JUMP JUMPDEST SWAP2 POP POP SWAP3 SWAP2 POP POP JUMP JUMPDEST PUSH0 PUSH20 0xFFFFFFFFFFFFFFFFFFFFFFFFFFFFFFFFFFFFFFFF DUP3 AND SWAP1 POP SWAP2 SWAP1 POP JUMP JUMPDEST PUSH0 PUSH2 0x2F8 DUP3 PUSH2 0x2CF JUMP JUMPDEST SWAP1 POP SWAP2 SWAP1 POP JUMP JUMPDEST PUSH2 0x308 DUP2 PUSH2 0x2EE JUMP JUMPDEST DUP3 MSTORE POP POP JUMP JUMPDEST PUSH0 PUSH1 0x20 DUP3 ADD SWAP1 POP PUSH2 0x321 PUSH0 DUP4 ADD DUP5 PUSH2 0x2FF JUMP JUMPDEST SWAP3 SWAP2 POP POP JUMP JUMPDEST PUSH2 0x330 DUP2 PUSH2 0x271 JUMP JUMPDEST DUP3 MSTORE POP POP JUMP JUMPDEST PUSH0 PUSH1 0x20 DUP3 ADD SWAP1 POP PUSH2 0x349 PUSH0 DUP4 ADD DUP5 PUSH2 0x327 JUMP JUMPDEST SWAP3 SWAP2 POP POP JUMP JUMPDEST PUSH32 0x4E487B7100000000000000000000000000000000000000000000000000000000 PUSH0 MSTORE PUSH1 0x1 PUSH1 0x4 MSTORE PUSH1 0x24 PUSH0 REVERT JUMPDEST PUSH0 DUP3 DUP3 MSTORE PUSH1 0x20 DUP3 ADD SWAP1 POP SWAP3 SWAP2 POP POP JUMP JUMPDEST PUSH32 0x4E6F74206F776E65720000000000000000000000000000000000000000000000 PUSH0 DUP3 ADD MSTORE POP JUMP JUMPDEST PUSH0 PUSH2 0x3C0 PUSH1 0x9 DUP4 PUSH2 0x37C JUMP JUMPDEST SWAP2 POP PUSH2 0x3CB DUP3 PUSH2 0x38C JUMP JUMPDEST PUSH1 0x20 DUP3 ADD SWAP1 POP SWAP2 SWAP1 POP JUMP JUMPDEST PUSH0 PUSH1 0x20 DUP3 ADD SWAP1 POP DUP2 DUP2 SUB PUSH0 DUP4 ADD MSTORE PUSH2 0x3ED DUP2 PUSH2 0x3B4 JUMP JUMPDEST SWAP1 POP SWAP2 SWAP1 POP JUMP JUMPDEST PUSH32 0x496E73756666696369656E742062616C616E6365000000000000000000000000 PUSH0 DUP3 ADD MSTORE POP JUMP JUMPDEST PUSH0 PUSH2 0x428 PUSH1 0x14 DUP4 PUSH2 0x37C JUMP JUMPDEST SWAP2 POP PUSH2 0x433 DUP3 PUSH2 0x3F4 JUMP JUMPDEST PUSH1 0x20 DUP3 ADD SWAP1 POP SWAP2 SWAP1 POP JUMP JUMPDEST PUSH0 PUSH1 0x20 DUP3 ADD SWAP1 POP DUP2 DUP2 SUB PUSH0 DUP4 ADD MSTORE PUSH2 0x455 DUP2 PUSH2 0x41C JUMP JUMPDEST SWAP1 POP SWAP2 SWAP1 POP JUMP JUMPDEST PUSH32 0x4E487B7100000000000000000000000000000000000000000000000000000000 PUSH0 MSTORE PUSH1 0x11 PUSH1 0x4 MSTORE PUSH1 0x24 PUSH0 REVERT JUMPDEST PUSH0 PUSH2 0x493 DUP3 PUSH2 0x271 JUMP JUMPDEST SWAP2 POP PUSH2 0x49E DUP4 PUSH2 0x271 JUMP JUMPDEST SWAP3 POP DUP3 DUP3 SUB SWAP1 POP DUP2 DUP2 GT ISZERO PUSH2 0x4B6 JUMPI PUSH2 0x4B5 PUSH2 0x45C JUMP JUMPDEST JUMPDEST SWAP3 SWAP2 POP POP JUMP JUMPDEST PUSH32 0x4D7573742073656E642045544800000000000000000000000000000000000000 PUSH0 DUP3 ADD MSTORE POP JUMP JUMPDEST PUSH0 PUSH2 0x4F0 PUSH1 0xD DUP4 PUSH2 0x37C JUMP JUMPDEST SWAP2 POP PUSH2 0x4FB DUP3 PUSH2 0x4BC JUMP JUMPDEST PUSH1 0x20 DUP3 ADD SWAP1 POP SWAP2 SWAP1 POP JUMP JUMPDEST PUSH0 PUSH1 0x20 DUP3 ADD SWAP1 POP DUP2 DUP2 SUB PUSH0 DUP4 ADD MSTORE PUSH2 0x51D DUP2 PUSH2 0x4E4 JUMP JUMPDEST SWAP1 POP SWAP2 SWAP1 POP JUMP JUMPDEST PUSH0 PUSH2 0x52E DUP3 PUSH2 0x271 JUMP JUMPDEST SWAP2 POP PUSH2 0x539 DUP4 PUSH2 0x271 JUMP JUMPDEST SWAP3 POP DUP3 DUP3 ADD SWAP1 POP DUP1 DUP3 GT ISZERO PUSH2 0x551 JUMPI PUSH2 0x550 PUSH2 0x45C JUMP JUMPDEST JUMPDEST SWAP3 SWAP2 POP POP JUMP INVALID LOG2 PUSH5 0x6970667358 0x22 SLT KECCAK256 SHR MSTORE ADD 0xEA 0x2E 0xAA 0xB0 TLOAD 0x4E 0xD7 SELFDESTRUCT 0xAF 0xB4 0xA5 0x2D ORIGIN CREATE2 CHAINID EXTCODESIZE RETURN 0xD2 MSIZE BLOBBASEFEE 0x21 KECCAK256 0xC0 MUL NOT PUSH32 0xD7703D64736F6C634300081E0033000000000000000000000000000000000000 "
				},
				"gasEstimates": {
					"creation": {
						"codeDepositCost": "284200",
						"executionCost": "infinite",
						"totalCost": "infinite"
					},
					"external": {
						"balance()": "2468",
						"deposit()": "infinite",
						"owner()": "infinite",
						"testAssert()": "2245",
						"withdraw(uint256)": "infinite"
					}
				},
				"methodIdentifiers": {
					"balance()": "b69ef8a8",
					"deposit()": "d0e30db0",
					"owner()": "8da5cb5b",
					"testAssert()": "2b813bc0",
					"withdraw(uint256)": "2e1a7d4d"
				}
			},
			"storageLayout": {
				"storage": [
					{
						"astId": 5,
						"contract": "ErrorDemo.sol:ErrorDemo",
						"label": "balance",
						"offset": 0,
						"slot": "0",
						"type": "t_uint256"
					}
				],
				"types": {
					"t_uint256": {
						"encoding": "inplace",
						"label": "uint256",
						"numberOfBytes": "32"
					}
				}
			},
			"userdoc": {
				"kind": "user",
				"methods": {},
				"version": 1
			}
		}
	}
}