{
	"contracts/messageBoard.sol": {
		"MessageBoard": {
			"abi": [
				{
					"anonymous": false,
					"inputs": [
						{
							"indexed": true,
							"internalType": "address",
							"name": "user",
							"type": "address"
						},
						{
							"indexed": false,
							"internalType": "string",
							"name": "newMessage",
							"type": "string"
						}
					],
					"name": "MessageUpdated",
					"type": "event"
				},
				{
					"inputs": [],
					"name": "getMessage",
					"outputs": [
						{
							"internalType": "string",
							"name": "",
							"type": "string"
						}
					],
					"stateMutability": "view",
					"type": "function"
				},
				{
					"inputs": [],
					"name": "lastUpdatedBy",
					"outputs": [
						{
							"internalType": "address",
							"name": "",
							"type": "address"
						}
					],
					"stateMutability": "view",
					"type": "function"
				},
				{
					"inputs": [],
					"name": "message",
					"outputs": [
						{
							"internalType": "string",
							"name": "",
							"type": "string"
						}
					],
					"stateMutability": "view",
					"type": "function"
				},
				{
					"inputs": [
						{
							"internalType": "string",
							"name": "newMessage",
							"type": "string"
						}
					],
					"name": "updateMessage",
					"outputs": [],
					"stateMutability": "nonpayable",
					"type": "function"
				}
			],
			"devdoc": {
				"kind": "dev",
				"methods": {},
				"version": 1
			},
			"evm": {
				"assembly": "    /* \"contracts/messageBoard.sol\":58:497  contract MessageBoard {... */\n  mstore(0x40, 0x80)\n  callvalue\n  dup1\n  iszero\n  tag_1\n  jumpi\n  revert(0x00, 0x00)\ntag_1:\n  pop\n  dataSize(sub_0)\n  dup1\n  dataOffset(sub_0)\n  0x00\n  codecopy\n  0x00\n  return\nstop\n\nsub_0: assembly {\n        /* \"contracts/messageBoard.sol\":58:497  contract MessageBoard {... */\n      mstore(0x40, 0x80)\n      callvalue\n      dup1\n      iszero\n      tag_1\n      jumpi\n      revert(0x00, 0x00)\n    tag_1:\n      pop\n      jumpi(tag_2, lt(calldatasize, 0x04))\n      shr(0xe0, calldataload(0x00))\n      dup1\n      0x177b1ef5\n      eq\n      tag_3\n      jumpi\n      dup1\n      0x1923be24\n      eq\n      tag_4\n      jumpi\n      dup1\n      0xce6d41de\n      eq\n      tag_5\n      jumpi\n      dup1\n      0xe21f37ce\n      eq\n      tag_6\n      jumpi\n    tag_2:\n      revert(0x00, 0x00)\n        /* \"contracts/messageBoard.sol\":113:141  address public lastUpdatedBy */\n    tag_3:\n      tag_7\n      tag_8\n      jump\t// in\n    tag_7:\n      mload(0x40)\n      tag_9\n      swap2\n      swap1\n      tag_10\n      jump\t// in\n    tag_9:\n      mload(0x40)\n      dup1\n      swap2\n      sub\n      swap1\n      return\n        /* \"contracts/messageBoard.sol\":216:400  function updateMessage(string calldata newMessage) public {... */\n    tag_4:\n      tag_11\n      0x04\n      dup1\n      calldatasize\n      sub\n      dup2\n      add\n      swap1\n      tag_12\n      swap2\n      swap1\n      tag_13\n      jump\t// in\n    tag_12:\n      tag_14\n      jump\t// in\n    tag_11:\n      stop\n        /* \"contracts/messageBoard.sol\":406:495  function getMessage() public view returns (string memory) {... */\n    tag_5:\n      tag_15\n      tag_16\n      jump\t// in\n    tag_15:\n      mload(0x40)\n      tag_17\n      swap2\n      swap1\n      tag_18\n      jump\t// in\n    tag_17:\n      mload(0x40)\n      dup1\n      swap2\n      sub\n      swap1\n      return\n        /* \"contracts/messageBoard.sol\":86:107  string public message */\n    tag_6:\n      tag_19\n      tag_20\n      jump\t// in\n    tag_19:\n      mload(0x40)\n      tag_21\n      swap2\n      swap1\n      tag_18\n      jump\t// in\n    tag_21:\n      mload(0x40)\n      dup1\n      swap2\n      sub\n      swap1\n      return\n        /* \"contracts/messageBoard.sol\":113:141  address public lastUpdatedBy */\n    tag_8:\n      0x01\n      0x00\n      swap1\n      sload\n      swap1\n      0x0100\n      exp\n      swap1\n      div\n      0xffffffffffffffffffffffffffffffffffffffff\n      and\n      dup2\n      jump\t// out\n        /* \"contracts/messageBoard.sol\":216:400  function updateMessage(string calldata newMessage) public {... */\n    tag_14:\n        /* \"contracts/messageBoard.sol\":294:304  newMessage */\n      dup2\n      dup2\n        /* \"contracts/messageBoard.sol\":284:291  message */\n      0x00\n        /* \"contracts/messageBoard.sol\":284:304  message = newMessage */\n      swap2\n      dup3\n      tag_23\n      swap3\n      swap2\n      swap1\n      tag_24\n      jump\t// in\n    tag_23:\n      pop\n        /* \"contracts/messageBoard.sol\":330:340  msg.sender */\n      caller\n        /* \"contracts/messageBoard.sol\":314:327  lastUpdatedBy */\n      0x01\n      0x00\n        /* \"contracts/messageBoard.sol\":314:340  lastUpdatedBy = msg.sender */\n      0x0100\n      exp\n      dup2\n      sload\n      dup2\n      0xffffffffffffffffffffffffffffffffffffffff\n      mul\n      not\n      and\n      swap1\n      dup4\n      0xffffffffffffffffffffffffffffffffffffffff\n      and\n      mul\n      or\n      swap1\n      sstore\n      pop\n        /* \"contracts/messageBoard.sol\":370:380  msg.sender */\n      caller\n        /* \"contracts/messageBoard.sol\":355:393  MessageUpdated(msg.sender, newMessage) */\n      0xffffffffffffffffffffffffffffffffffffffff\n      and\n      0x3f784155aa459466ce143eb76c376834c30b26979da03bd4be74cd146c4bb1c3\n        /* \"contracts/messageBoard.sol\":382:392  newMessage */\n      dup4\n      dup4\n        /* \"contracts/messageBoard.sol\":355:393  MessageUpdated(msg.sender, newMessage) */\n      mload(0x40)\n      tag_25\n      swap3\n      swap2\n      swap1\n      tag_26\n      jump\t// in\n    tag_25:\n      mload(0x40)\n      dup1\n      swap2\n      sub\n      swap1\n      log2\n        /* \"contracts/messageBoard.sol\":216:400  function updateMessage(string calldata newMessage) public {... */\n      pop\n      pop\n      jump\t// out\n        /* \"contracts/messageBoard.sol\":406:495  function getMessage() public view returns (string memory) {... */\n    tag_16:\n        /* \"contracts/messageBoard.sol\":449:462  string memory */\n      0x60\n        /* \"contracts/messageBoard.sol\":481:488  message */\n      0x00\n        /* \"contracts/messageBoard.sol\":474:488  return message */\n      dup1\n      sload\n      tag_28\n      swap1\n      tag_29\n      jump\t// in\n    tag_28:\n      dup1\n      0x1f\n      add\n      0x20\n      dup1\n      swap2\n      div\n      mul\n      0x20\n      add\n      mload(0x40)\n      swap1\n      dup2\n      add\n      0x40\n      mstore\n      dup1\n      swap3\n      swap2\n      swap1\n      dup2\n      dup2\n      mstore\n      0x20\n      add\n      dup3\n      dup1\n      sload\n      tag_30\n      swap1\n      tag_29\n      jump\t// in\n    tag_30:\n      dup1\n      iszero\n      tag_31\n      jumpi\n      dup1\n      0x1f\n      lt\n      tag_32\n      jumpi\n      0x0100\n      dup1\n      dup4\n      sload\n      div\n      mul\n      dup4\n      mstore\n      swap2\n      0x20\n      add\n      swap2\n      jump(tag_31)\n    tag_32:\n      dup3\n      add\n      swap2\n      swap1\n      0x00\n      mstore\n      keccak256(0x00, 0x20)\n      swap1\n    tag_33:\n      dup2\n      sload\n      dup2\n      mstore\n      swap1\n      0x01\n      add\n      swap1\n      0x20\n      add\n      dup1\n      dup4\n      gt\n      tag_33\n      jumpi\n      dup3\n      swap1\n      sub\n      0x1f\n      and\n      dup3\n      add\n      swap2\n    tag_31:\n      pop\n      pop\n      pop\n      pop\n      pop\n      swap1\n      pop\n        /* \"contracts/messageBoard.sol\":406:495  function getMessage() public view returns (string memory) {... */\n      swap1\n      jump\t// out\n        /* \"contracts/messageBoard.sol\":86:107  string public message */\n    tag_20:\n      0x00\n      dup1\n      sload\n      tag_34\n      swap1\n      tag_29\n      jump\t// in\n    tag_34:\n      dup1\n      0x1f\n      add\n      0x20\n      dup1\n      swap2\n      div\n      mul\n      0x20\n      add\n      mload(0x40)\n      swap1\n      dup2\n      add\n      0x40\n      mstore\n      dup1\n      swap3\n      swap2\n      swap1\n      dup2\n      dup2\n      mstore\n      0x20\n      add\n      dup3\n      dup1\n      sload\n      tag_35\n      swap1\n      tag_29\n      jump\t// in\n    tag_35:\n      dup1\n      iszero\n      tag_36\n      jumpi\n      dup1\n      0x1f\n      lt\n      tag_37\n      jumpi\n      0x0100\n      dup1\n      dup4\n      sload\n      div\n      mul\n      dup4\n      mstore\n      swap2\n      0x20\n      add\n      swap2\n      jump(tag_36)\n    tag_37:\n      dup3\n      add\n      swap2\n      swap1\n      0x00\n      mstore\n      keccak256(0x00, 0x20)\n      swap1\n    tag_38:\n      dup2\n      sload\n      dup2\n      mstore\n      swap1\n      0x01\n      add\n      swap1\n      0x20\n      add\n      dup1\n      dup4\n      gt\n      tag_38\n      jumpi\n      dup3\n      swap1\n      sub\n      0x1f\n      and\n      dup3\n      add\n      swap2\n    tag_36:\n      pop\n      pop\n      pop\n      pop\n      pop\n      dup2\n      jump\t// out\n        /* \"#utility.yul\":7:133   */\n    tag_39:\n        /* \"#utility.yul\":44:51   */\n      0x00\n        /* \"#utility.yul\":84:126   */\n      0xffffffffffffffffffffffffffffffffffffffff\n        /* \"#utility.yul\":77:82   */\n      dup3\n        /* \"#utility.yul\":73:127   */\n      and\n        /* \"#utility.yul\":62:127   */\n      swap1\n      pop\n        /* \"#utility.yul\":7:133   */\n      swap2\n      swap1\n      pop\n      jump\t// out\n        /* \"#utility.yul\":139:235   */\n    tag_40:\n        /* \"#utility.yul\":176:183   */\n      0x00\n        /* \"#utility.yul\":205:229   */\n      tag_78\n        /* \"#utility.yul\":223:228   */\n      dup3\n        /* \"#utility.yul\":205:229   */\n      tag_39\n      jump\t// in\n    tag_78:\n        /* \"#utility.yul\":194:229   */\n      swap1\n      pop\n        /* \"#utility.yul\":139:235   */\n      swap2\n      swap1\n      pop\n      jump\t// out\n        /* \"#utility.yul\":241:359   */\n    tag_41:\n        /* \"#utility.yul\":328:352   */\n      tag_80\n        /* \"#utility.yul\":346:351   */\n      dup2\n        /* \"#utility.yul\":328:352   */\n      tag_40\n      jump\t// in\n    tag_80:\n        /* \"#utility.yul\":323:326   */\n      dup3\n        /* \"#utility.yul\":316:353   */\n      mstore\n        /* \"#utility.yul\":241:359   */\n      pop\n      pop\n      jump\t// out\n        /* \"#utility.yul\":365:587   */\n    tag_10:\n        /* \"#utility.yul\":458:462   */\n      0x00\n        /* \"#utility.yul\":496:498   */\n      0x20\n        /* \"#utility.yul\":485:494   */\n      dup3\n        /* \"#utility.yul\":481:499   */\n      add\n        /* \"#utility.yul\":473:499   */\n      swap1\n      pop\n        /* \"#utility.yul\":509:580   */\n      tag_82\n        /* \"#utility.yul\":577:578   */\n      0x00\n        /* \"#utility.yul\":566:575   */\n      dup4\n        /* \"#utility.yul\":562:579   */\n      add\n        /* \"#utility.yul\":553:559   */\n      dup5\n        /* \"#utility.yul\":509:580   */\n      tag_41\n      jump\t// in\n    tag_82:\n        /* \"#utility.yul\":365:587   */\n      swap3\n      swap2\n      pop\n      pop\n      jump\t// out\n        /* \"#utility.yul\":674:791   */\n    tag_43:\n        /* \"#utility.yul\":783:784   */\n      0x00\n        /* \"#utility.yul\":780:781   */\n      0x00\n        /* \"#utility.yul\":773:785   */\n      revert\n        /* \"#utility.yul\":797:914   */\n    tag_44:\n        /* \"#utility.yul\":906:907   */\n      0x00\n        /* \"#utility.yul\":903:904   */\n      0x00\n        /* \"#utility.yul\":896:908   */\n      revert\n        /* \"#utility.yul\":920:1037   */\n    tag_45:\n        /* \"#utility.yul\":1029:1030   */\n      0x00\n        /* \"#utility.yul\":1026:1027   */\n      0x00\n        /* \"#utility.yul\":1019:1031   */\n      revert\n        /* \"#utility.yul\":1043:1160   */\n    tag_46:\n        /* \"#utility.yul\":1152:1153   */\n      0x00\n        /* \"#utility.yul\":1149:1150   */\n      0x00\n        /* \"#utility.yul\":1142:1154   */\n      revert\n        /* \"#utility.yul\":1166:1283   */\n    tag_47:\n        /* \"#utility.yul\":1275:1276   */\n      0x00\n        /* \"#utility.yul\":1272:1273   */\n      0x00\n        /* \"#utility.yul\":1265:1277   */\n      revert\n        /* \"#utility.yul\":1303:1856   */\n    tag_48:\n        /* \"#utility.yul\":1361:1369   */\n      0x00\n        /* \"#utility.yul\":1371:1377   */\n      0x00\n        /* \"#utility.yul\":1421:1424   */\n      dup4\n        /* \"#utility.yul\":1414:1418   */\n      0x1f\n        /* \"#utility.yul\":1406:1412   */\n      dup5\n        /* \"#utility.yul\":1402:1419   */\n      add\n        /* \"#utility.yul\":1398:1425   */\n      slt\n        /* \"#utility.yul\":1388:1510   */\n      tag_90\n      jumpi\n        /* \"#utility.yul\":1429:1508   */\n      tag_91\n      tag_45\n      jump\t// in\n    tag_91:\n        /* \"#utility.yul\":1388:1510   */\n    tag_90:\n        /* \"#utility.yul\":1542:1548   */\n      dup3\n        /* \"#utility.yul\":1529:1549   */\n      calldataload\n        /* \"#utility.yul\":1519:1549   */\n      swap1\n      pop\n        /* \"#utility.yul\":1572:1590   */\n      0xffffffffffffffff\n        /* \"#utility.yul\":1564:1570   */\n      dup2\n        /* \"#utility.yul\":1561:1591   */\n      gt\n        /* \"#utility.yul\":1558:1675   */\n      iszero\n      tag_92\n      jumpi\n        /* \"#utility.yul\":1594:1673   */\n      tag_93\n      tag_46\n      jump\t// in\n    tag_93:\n        /* \"#utility.yul\":1558:1675   */\n    tag_92:\n        /* \"#utility.yul\":1708:1712   */\n      0x20\n        /* \"#utility.yul\":1700:1706   */\n      dup4\n        /* \"#utility.yul\":1696:1713   */\n      add\n        /* \"#utility.yul\":1684:1713   */\n      swap2\n      pop\n        /* \"#utility.yul\":1762:1765   */\n      dup4\n        /* \"#utility.yul\":1754:1758   */\n      0x01\n        /* \"#utility.yul\":1746:1752   */\n      dup3\n        /* \"#utility.yul\":1742:1759   */\n      mul\n        /* \"#utility.yul\":1732:1740   */\n      dup4\n        /* \"#utility.yul\":1728:1760   */\n      add\n        /* \"#utility.yul\":1725:1766   */\n      gt\n        /* \"#utility.yul\":1722:1850   */\n      iszero\n      tag_94\n      jumpi\n        /* \"#utility.yul\":1769:1848   */\n      tag_95\n      tag_47\n      jump\t// in\n    tag_95:\n        /* \"#utility.yul\":1722:1850   */\n    tag_94:\n        /* \"#utility.yul\":1303:1856   */\n      swap3\n      pop\n      swap3\n      swap1\n      pop\n      jump\t// out\n        /* \"#utility.yul\":1862:2391   */\n    tag_13:\n        /* \"#utility.yul\":1933:1939   */\n      0x00\n        /* \"#utility.yul\":1941:1947   */\n      0x00\n        /* \"#utility.yul\":1990:1992   */\n      0x20\n        /* \"#utility.yul\":1978:1987   */\n      dup4\n        /* \"#utility.yul\":1969:1976   */\n      dup6\n        /* \"#utility.yul\":1965:1988   */\n      sub\n        /* \"#utility.yul\":1961:1993   */\n      slt\n        /* \"#utility.yul\":1958:2077   */\n      iszero\n      tag_97\n      jumpi\n        /* \"#utility.yul\":1996:2075   */\n      tag_98\n      tag_43\n      jump\t// in\n    tag_98:\n        /* \"#utility.yul\":1958:2077   */\n    tag_97:\n        /* \"#utility.yul\":2144:2145   */\n      0x00\n        /* \"#utility.yul\":2133:2142   */\n      dup4\n        /* \"#utility.yul\":2129:2146   */\n      add\n        /* \"#utility.yul\":2116:2147   */\n      calldataload\n        /* \"#utility.yul\":2174:2192   */\n      0xffffffffffffffff\n        /* \"#utility.yul\":2166:2172   */\n      dup2\n        /* \"#utility.yul\":2163:2193   */\n      gt\n        /* \"#utility.yul\":2160:2277   */\n      iszero\n      tag_99\n      jumpi\n        /* \"#utility.yul\":2196:2275   */\n      tag_100\n      tag_44\n      jump\t// in\n    tag_100:\n        /* \"#utility.yul\":2160:2277   */\n    tag_99:\n        /* \"#utility.yul\":2309:2374   */\n      tag_101\n        /* \"#utility.yul\":2366:2373   */\n      dup6\n        /* \"#utility.yul\":2357:2363   */\n      dup3\n        /* \"#utility.yul\":2346:2355   */\n      dup7\n        /* \"#utility.yul\":2342:2364   */\n      add\n        /* \"#utility.yul\":2309:2374   */\n      tag_48\n      jump\t// in\n    tag_101:\n        /* \"#utility.yul\":2291:2374   */\n      swap3\n      pop\n      swap3\n      pop\n        /* \"#utility.yul\":2087:2384   */\n      pop\n        /* \"#utility.yul\":1862:2391   */\n      swap3\n      pop\n      swap3\n      swap1\n      pop\n      jump\t// out\n        /* \"#utility.yul\":2397:2496   */\n    tag_49:\n        /* \"#utility.yul\":2449:2455   */\n      0x00\n        /* \"#utility.yul\":2483:2488   */\n      dup2\n        /* \"#utility.yul\":2477:2489   */\n      mload\n        /* \"#utility.yul\":2467:2489   */\n      swap1\n      pop\n        /* \"#utility.yul\":2397:2496   */\n      swap2\n      swap1\n      pop\n      jump\t// out\n        /* \"#utility.yul\":2502:2671   */\n    tag_50:\n        /* \"#utility.yul\":2586:2597   */\n      0x00\n        /* \"#utility.yul\":2620:2626   */\n      dup3\n        /* \"#utility.yul\":2615:2618   */\n      dup3\n        /* \"#utility.yul\":2608:2627   */\n      mstore\n        /* \"#utility.yul\":2660:2664   */\n      0x20\n        /* \"#utility.yul\":2655:2658   */\n      dup3\n        /* \"#utility.yul\":2651:2665   */\n      add\n        /* \"#utility.yul\":2636:2665   */\n      swap1\n      pop\n        /* \"#utility.yul\":2502:2671   */\n      swap3\n      swap2\n      pop\n      pop\n      jump\t// out\n        /* \"#utility.yul\":2677:2816   */\n    tag_51:\n        /* \"#utility.yul\":2766:2772   */\n      dup3\n        /* \"#utility.yul\":2761:2764   */\n      dup2\n        /* \"#utility.yul\":2756:2759   */\n      dup4\n        /* \"#utility.yul\":2750:2773   */\n      mcopy\n        /* \"#utility.yul\":2807:2808   */\n      0x00\n        /* \"#utility.yul\":2798:2804   */\n      dup4\n        /* \"#utility.yul\":2793:2796   */\n      dup4\n        /* \"#utility.yul\":2789:2805   */\n      add\n        /* \"#utility.yul\":2782:2809   */\n      mstore\n        /* \"#utility.yul\":2677:2816   */\n      pop\n      pop\n      pop\n      jump\t// out\n        /* \"#utility.yul\":2822:2924   */\n    tag_52:\n        /* \"#utility.yul\":2863:2869   */\n      0x00\n        /* \"#utility.yul\":2914:2916   */\n      0x1f\n        /* \"#utility.yul\":2910:2917   */\n      not\n        /* \"#utility.yul\":2905:2907   */\n      0x1f\n        /* \"#utility.yul\":2898:2903   */\n      dup4\n        /* \"#utility.yul\":2894:2908   */\n      add\n        /* \"#utility.yul\":2890:2918   */\n      and\n        /* \"#utility.yul\":2880:2918   */\n      swap1\n      pop\n        /* \"#utility.yul\":2822:2924   */\n      swap2\n      swap1\n      pop\n      jump\t// out\n        /* \"#utility.yul\":2930:3307   */\n    tag_53:\n        /* \"#utility.yul\":3018:3021   */\n      0x00\n        /* \"#utility.yul\":3046:3085   */\n      tag_107\n        /* \"#utility.yul\":3079:3084   */\n      dup3\n        /* \"#utility.yul\":3046:3085   */\n      tag_49\n      jump\t// in\n    tag_107:\n        /* \"#utility.yul\":3101:3172   */\n      tag_108\n        /* \"#utility.yul\":3165:3171   */\n      dup2\n        /* \"#utility.yul\":3160:3163   */\n      dup6\n        /* \"#utility.yul\":3101:3172   */\n      tag_50\n      jump\t// in\n    tag_108:\n        /* \"#utility.yul\":3094:3172   */\n      swap4\n      pop\n        /* \"#utility.yul\":3181:3246   */\n      tag_109\n        /* \"#utility.yul\":3239:3245   */\n      dup2\n        /* \"#utility.yul\":3234:3237   */\n      dup6\n        /* \"#utility.yul\":3227:3231   */\n      0x20\n        /* \"#utility.yul\":3220:3225   */\n      dup7\n        /* \"#utility.yul\":3216:3232   */\n      add\n        /* \"#utility.yul\":3181:3246   */\n      tag_51\n      jump\t// in\n    tag_109:\n        /* \"#utility.yul\":3271:3300   */\n      tag_110\n        /* \"#utility.yul\":3293:3299   */\n      dup2\n        /* \"#utility.yul\":3271:3300   */\n      tag_52\n      jump\t// in\n    tag_110:\n        /* \"#utility.yul\":3266:3269   */\n      dup5\n        /* \"#utility.yul\":3262:3301   */\n      add\n        /* \"#utility.yul\":3255:3301   */\n      swap2\n      pop\n        /* \"#utility.yul\":3022:3307   */\n      pop\n        /* \"#utility.yul\":2930:3307   */\n      swap3\n      swap2\n      pop\n      pop\n      jump\t// out\n        /* \"#utility.yul\":3313:3626   */\n    tag_18:\n        /* \"#utility.yul\":3426:3430   */\n      0x00\n        /* \"#utility.yul\":3464:3466   */\n      0x20\n        /* \"#utility.yul\":3453:3462   */\n      dup3\n        /* \"#utility.yul\":3449:3467   */\n      add\n        /* \"#utility.yul\":3441:3467   */\n      swap1\n      pop\n        /* \"#utility.yul\":3513:3522   */\n      dup2\n        /* \"#utility.yul\":3507:3511   */\n      dup2\n        /* \"#utility.yul\":3503:3523   */\n      sub\n        /* \"#utility.yul\":3499:3500   */\n      0x00\n        /* \"#utility.yul\":3488:3497   */\n      dup4\n        /* \"#utility.yul\":3484:3501   */\n      add\n        /* \"#utility.yul\":3477:3524   */\n      mstore\n        /* \"#utility.yul\":3541:3619   */\n      tag_112\n        /* \"#utility.yul\":3614:3618   */\n      dup2\n        /* \"#utility.yul\":3605:3611   */\n      dup5\n        /* \"#utility.yul\":3541:3619   */\n      tag_53\n      jump\t// in\n    tag_112:\n        /* \"#utility.yul\":3533:3619   */\n      swap1\n      pop\n        /* \"#utility.yul\":3313:3626   */\n      swap3\n      swap2\n      pop\n      pop\n      jump\t// out\n        /* \"#utility.yul\":3632:3729   */\n    tag_54:\n        /* \"#utility.yul\":3691:3697   */\n      0x00\n        /* \"#utility.yul\":3719:3722   */\n      dup3\n        /* \"#utility.yul\":3709:3722   */\n      swap1\n      pop\n        /* \"#utility.yul\":3632:3729   */\n      swap3\n      swap2\n      pop\n      pop\n      jump\t// out\n        /* \"#utility.yul\":3735:3915   */\n    tag_55:\n        /* \"#utility.yul\":3783:3860   */\n      0x4e487b7100000000000000000000000000000000000000000000000000000000\n        /* \"#utility.yul\":3780:3781   */\n      0x00\n        /* \"#utility.yul\":3773:3861   */\n      mstore\n        /* \"#utility.yul\":3880:3884   */\n      0x41\n        /* \"#utility.yul\":3877:3878   */\n      0x04\n        /* \"#utility.yul\":3870:3885   */\n      mstore\n        /* \"#utility.yul\":3904:3908   */\n      0x24\n        /* \"#utility.yul\":3901:3902   */\n      0x00\n        /* \"#utility.yul\":3894:3909   */\n      revert\n        /* \"#utility.yul\":3921:4101   */\n    tag_56:\n        /* \"#utility.yul\":3969:4046   */\n      0x4e487b7100000000000000000000000000000000000000000000000000000000\n        /* \"#utility.yul\":3966:3967   */\n      0x00\n        /* \"#utility.yul\":3959:4047   */\n      mstore\n        /* \"#utility.yul\":4066:4070   */\n      0x22\n        /* \"#utility.yul\":4063:4064   */\n      0x04\n        /* \"#utility.yul\":4056:4071   */\n      mstore\n        /* \"#utility.yul\":4090:4094   */\n      0x24\n        /* \"#utility.yul\":4087:4088   */\n      0x00\n        /* \"#utility.yul\":4080:4095   */\n      revert\n        /* \"#utility.yul\":4107:4427   */\n    tag_29:\n        /* \"#utility.yul\":4151:4157   */\n      0x00\n        /* \"#utility.yul\":4188:4189   */\n      0x02\n        /* \"#utility.yul\":4182:4186   */\n      dup3\n        /* \"#utility.yul\":4178:4190   */\n      div\n        /* \"#utility.yul\":4168:4190   */\n      swap1\n      pop\n        /* \"#utility.yul\":4235:4236   */\n      0x01\n        /* \"#utility.yul\":4229:4233   */\n      dup3\n        /* \"#utility.yul\":4225:4237   */\n      and\n        /* \"#utility.yul\":4256:4274   */\n      dup1\n        /* \"#utility.yul\":4246:4327   */\n      tag_117\n      jumpi\n        /* \"#utility.yul\":4312:4316   */\n      0x7f\n        /* \"#utility.yul\":4304:4310   */\n      dup3\n        /* \"#utility.yul\":4300:4317   */\n      and\n        /* \"#utility.yul\":4290:4317   */\n      swap2\n      pop\n        /* \"#utility.yul\":4246:4327   */\n    tag_117:\n        /* \"#utility.yul\":4374:4376   */\n      0x20\n        /* \"#utility.yul\":4366:4372   */\n      dup3\n        /* \"#utility.yul\":4363:4377   */\n      lt\n        /* \"#utility.yul\":4343:4361   */\n      dup2\n        /* \"#utility.yul\":4340:4378   */\n      sub\n        /* \"#utility.yul\":4337:4421   */\n      tag_118\n      jumpi\n        /* \"#utility.yul\":4393:4411   */\n      tag_119\n      tag_56\n      jump\t// in\n    tag_119:\n        /* \"#utility.yul\":4337:4421   */\n    tag_118:\n        /* \"#utility.yul\":4158:4427   */\n      pop\n        /* \"#utility.yul\":4107:4427   */\n      swap2\n      swap1\n      pop\n      jump\t// out\n        /* \"#utility.yul\":4433:4574   */\n    tag_57:\n        /* \"#utility.yul\":4482:4486   */\n      0x00\n        /* \"#utility.yul\":4505:4508   */\n      dup2\n        /* \"#utility.yul\":4497:4508   */\n      swap1\n      pop\n        /* \"#utility.yul\":4528:4531   */\n      dup2\n        /* \"#utility.yul\":4525:4526   */\n      0x00\n        /* \"#utility.yul\":4518:4532   */\n      mstore\n        /* \"#utility.yul\":4562:4566   */\n      0x20\n        /* \"#utility.yul\":4559:4560   */\n      0x00\n        /* \"#utility.yul\":4549:4567   */\n      keccak256\n        /* \"#utility.yul\":4541:4567   */\n      swap1\n      pop\n        /* \"#utility.yul\":4433:4574   */\n      swap2\n      swap1\n      pop\n      jump\t// out\n        /* \"#utility.yul\":4580:4673   */\n    tag_58:\n        /* \"#utility.yul\":4617:4623   */\n      0x00\n        /* \"#utility.yul\":4664:4666   */\n      0x20\n        /* \"#utility.yul\":4659:4661   */\n      0x1f\n        /* \"#utility.yul\":4652:4657   */\n      dup4\n        /* \"#utility.yul\":4648:4662   */\n      add\n        /* \"#utility.yul\":4644:4667   */\n      div\n        /* \"#utility.yul\":4634:4667   */\n      swap1\n      pop\n        /* \"#utility.yul\":4580:4673   */\n      swap2\n      swap1\n      pop\n      jump\t// out\n        /* \"#utility.yul\":4679:4786   */\n    tag_59:\n        /* \"#utility.yul\":4723:4731   */\n      0x00\n        /* \"#utility.yul\":4773:4778   */\n      dup3\n        /* \"#utility.yul\":4767:4771   */\n      dup3\n        /* \"#utility.yul\":4763:4779   */\n      shl\n        /* \"#utility.yul\":4742:4779   */\n      swap1\n      pop\n        /* \"#utility.yul\":4679:4786   */\n      swap3\n      swap2\n      pop\n      pop\n      jump\t// out\n        /* \"#utility.yul\":4792:5185   */\n    tag_60:\n        /* \"#utility.yul\":4861:4867   */\n      0x00\n        /* \"#utility.yul\":4911:4912   */\n      0x08\n        /* \"#utility.yul\":4899:4909   */\n      dup4\n        /* \"#utility.yul\":4895:4913   */\n      mul\n        /* \"#utility.yul\":4934:5031   */\n      tag_124\n        /* \"#utility.yul\":4964:5030   */\n      0xffffffffffffffffffffffffffffffffffffffffffffffffffffffffffffffff\n        /* \"#utility.yul\":4953:4962   */\n      dup3\n        /* \"#utility.yul\":4934:5031   */\n      tag_59\n      jump\t// in\n    tag_124:\n        /* \"#utility.yul\":5052:5091   */\n      tag_125\n        /* \"#utility.yul\":5082:5090   */\n      dup7\n        /* \"#utility.yul\":5071:5080   */\n      dup4\n        /* \"#utility.yul\":5052:5091   */\n      tag_59\n      jump\t// in\n    tag_125:\n        /* \"#utility.yul\":5040:5091   */\n      swap6\n      pop\n        /* \"#utility.yul\":5124:5128   */\n      dup1\n        /* \"#utility.yul\":5120:5129   */\n      not\n        /* \"#utility.yul\":5113:5118   */\n      dup5\n        /* \"#utility.yul\":5109:5130   */\n      and\n        /* \"#utility.yul\":5100:5130   */\n      swap4\n      pop\n        /* \"#utility.yul\":5173:5177   */\n      dup1\n        /* \"#utility.yul\":5163:5171   */\n      dup7\n        /* \"#utility.yul\":5159:5178   */\n      and\n        /* \"#utility.yul\":5152:5157   */\n      dup5\n        /* \"#utility.yul\":5149:5179   */\n      or\n        /* \"#utility.yul\":5139:5179   */\n      swap3\n      pop\n        /* \"#utility.yul\":4868:5185   */\n      pop\n      pop\n        /* \"#utility.yul\":4792:5185   */\n      swap4\n      swap3\n      pop\n      pop\n      pop\n      jump\t// out\n        /* \"#utility.yul\":5191:5268   */\n    tag_61:\n        /* \"#utility.yul\":5228:5235   */\n      0x00\n        /* \"#utility.yul\":5257:5262   */\n      dup2\n        /* \"#utility.yul\":5246:5262   */\n      swap1\n      pop\n        /* \"#utility.yul\":5191:5268   */\n      swap2\n      swap1\n      pop\n      jump\t// out\n        /* \"#utility.yul\":5274:5334   */\n    tag_62:\n        /* \"#utility.yul\":5302:5305   */\n      0x00\n        /* \"#utility.yul\":5323:5328   */\n      dup2\n        /* \"#utility.yul\":5316:5328   */\n      swap1\n      pop\n        /* \"#utility.yul\":5274:5334   */\n      swap2\n      swap1\n      pop\n      jump\t// out\n        /* \"#utility.yul\":5340:5482   */\n    tag_63:\n        /* \"#utility.yul\":5390:5399   */\n      0x00\n        /* \"#utility.yul\":5423:5476   */\n      tag_129\n        /* \"#utility.yul\":5441:5475   */\n      tag_130\n        /* \"#utility.yul\":5450:5474   */\n      tag_131\n        /* \"#utility.yul\":5468:5473   */\n      dup5\n        /* \"#utility.yul\":5450:5474   */\n      tag_61\n      jump\t// in\n    tag_131:\n        /* \"#utility.yul\":5441:5475   */\n      tag_62\n      jump\t// in\n    tag_130:\n        /* \"#utility.yul\":5423:5476   */\n      tag_61\n      jump\t// in\n    tag_129:\n        /* \"#utility.yul\":5410:5476   */\n      swap1\n      pop\n        /* \"#utility.yul\":5340:5482   */\n      swap2\n      swap1\n      pop\n      jump\t// out\n        /* \"#utility.yul\":5488:5563   */\n    tag_64:\n        /* \"#utility.yul\":5531:5534   */\n      0x00\n        /* \"#utility.yul\":5552:5557   */\n      dup2\n        /* \"#utility.yul\":5545:5557   */\n      swap1\n      pop\n        /* \"#utility.yul\":5488:5563   */\n      swap2\n      swap1\n      pop\n      jump\t// out\n        /* \"#utility.yul\":5569:5838   */\n    tag_65:\n        /* \"#utility.yul\":5679:5718   */\n      tag_134\n        /* \"#utility.yul\":5710:5717   */\n      dup4\n        /* \"#utility.yul\":5679:5718   */\n      tag_63\n      jump\t// in\n    tag_134:\n        /* \"#utility.yul\":5740:5831   */\n      tag_135\n        /* \"#utility.yul\":5789:5830   */\n      tag_136\n        /* \"#utility.yul\":5813:5829   */\n      dup3\n        /* \"#utility.yul\":5789:5830   */\n      tag_64\n      jump\t// in\n    tag_136:\n        /* \"#utility.yul\":5781:5787   */\n      dup5\n        /* \"#utility.yul\":5774:5778   */\n      dup5\n        /* \"#utility.yul\":5768:5779   */\n      sload\n        /* \"#utility.yul\":5740:5831   */\n      tag_60\n      jump\t// in\n    tag_135:\n        /* \"#utility.yul\":5734:5738   */\n      dup3\n        /* \"#utility.yul\":5727:5832   */\n      sstore\n        /* \"#utility.yul\":5645:5838   */\n      pop\n        /* \"#utility.yul\":5569:5838   */\n      pop\n      pop\n      pop\n      jump\t// out\n        /* \"#utility.yul\":5844:5917   */\n    tag_66:\n        /* \"#utility.yul\":5889:5892   */\n      0x00\n        /* \"#utility.yul\":5910:5911   */\n      0x00\n        /* \"#utility.yul\":5903:5911   */\n      swap1\n      pop\n        /* \"#utility.yul\":5844:5917   */\n      swap1\n      jump\t// out\n        /* \"#utility.yul\":5923:6112   */\n    tag_67:\n        /* \"#utility.yul\":6000:6032   */\n      tag_139\n      tag_66\n      jump\t// in\n    tag_139:\n        /* \"#utility.yul\":6041:6106   */\n      tag_140\n        /* \"#utility.yul\":6099:6105   */\n      dup2\n        /* \"#utility.yul\":6091:6097   */\n      dup5\n        /* \"#utility.yul\":6085:6089   */\n      dup5\n        /* \"#utility.yul\":6041:6106   */\n      tag_65\n      jump\t// in\n    tag_140:\n        /* \"#utility.yul\":5976:6112   */\n      pop\n        /* \"#utility.yul\":5923:6112   */\n      pop\n      pop\n      jump\t// out\n        /* \"#utility.yul\":6118:6304   */\n    tag_68:\n        /* \"#utility.yul\":6178:6298   */\n    tag_142:\n        /* \"#utility.yul\":6195:6198   */\n      dup2\n        /* \"#utility.yul\":6188:6193   */\n      dup2\n        /* \"#utility.yul\":6185:6199   */\n      lt\n        /* \"#utility.yul\":6178:6298   */\n      iszero\n      tag_144\n      jumpi\n        /* \"#utility.yul\":6249:6288   */\n      tag_145\n        /* \"#utility.yul\":6286:6287   */\n      0x00\n        /* \"#utility.yul\":6279:6284   */\n      dup3\n        /* \"#utility.yul\":6249:6288   */\n      tag_67\n      jump\t// in\n    tag_145:\n        /* \"#utility.yul\":6222:6223   */\n      0x01\n        /* \"#utility.yul\":6215:6220   */\n      dup2\n        /* \"#utility.yul\":6211:6224   */\n      add\n        /* \"#utility.yul\":6202:6224   */\n      swap1\n      pop\n        /* \"#utility.yul\":6178:6298   */\n      jump(tag_142)\n    tag_144:\n        /* \"#utility.yul\":6118:6304   */\n      pop\n      pop\n      jump\t// out\n        /* \"#utility.yul\":6310:6853   */\n    tag_69:\n        /* \"#utility.yul\":6411:6413   */\n      0x1f\n        /* \"#utility.yul\":6406:6409   */\n      dup3\n        /* \"#utility.yul\":6403:6414   */\n      gt\n        /* \"#utility.yul\":6400:6846   */\n      iszero\n      tag_147\n      jumpi\n        /* \"#utility.yul\":6445:6483   */\n      tag_148\n        /* \"#utility.yul\":6477:6482   */\n      dup2\n        /* \"#utility.yul\":6445:6483   */\n      tag_57\n      jump\t// in\n    tag_148:\n        /* \"#utility.yul\":6529:6558   */\n      tag_149\n        /* \"#utility.yul\":6547:6557   */\n      dup5\n        /* \"#utility.yul\":6529:6558   */\n      tag_58\n      jump\t// in\n    tag_149:\n        /* \"#utility.yul\":6519:6527   */\n      dup2\n        /* \"#utility.yul\":6515:6559   */\n      add\n        /* \"#utility.yul\":6712:6714   */\n      0x20\n        /* \"#utility.yul\":6700:6710   */\n      dup6\n        /* \"#utility.yul\":6697:6715   */\n      lt\n        /* \"#utility.yul\":6694:6743   */\n      iszero\n      tag_150\n      jumpi\n        /* \"#utility.yul\":6733:6741   */\n      dup2\n        /* \"#utility.yul\":6718:6741   */\n      swap1\n      pop\n        /* \"#utility.yul\":6694:6743   */\n    tag_150:\n        /* \"#utility.yul\":6756:6836   */\n      tag_151\n        /* \"#utility.yul\":6812:6834   */\n      tag_152\n        /* \"#utility.yul\":6830:6833   */\n      dup6\n        /* \"#utility.yul\":6812:6834   */\n      tag_58\n      jump\t// in\n    tag_152:\n        /* \"#utility.yul\":6802:6810   */\n      dup4\n        /* \"#utility.yul\":6798:6835   */\n      add\n        /* \"#utility.yul\":6785:6796   */\n      dup3\n        /* \"#utility.yul\":6756:6836   */\n      tag_68\n      jump\t// in\n    tag_151:\n        /* \"#utility.yul\":6415:6846   */\n      pop\n      pop\n        /* \"#utility.yul\":6400:6846   */\n    tag_147:\n        /* \"#utility.yul\":6310:6853   */\n      pop\n      pop\n      pop\n      jump\t// out\n        /* \"#utility.yul\":6859:6976   */\n    tag_70:\n        /* \"#utility.yul\":6913:6921   */\n      0x00\n        /* \"#utility.yul\":6963:6968   */\n      dup3\n        /* \"#utility.yul\":6957:6961   */\n      dup3\n        /* \"#utility.yul\":6953:6969   */\n      shr\n        /* \"#utility.yul\":6932:6969   */\n      swap1\n      pop\n        /* \"#utility.yul\":6859:6976   */\n      swap3\n      swap2\n      pop\n      pop\n      jump\t// out\n        /* \"#utility.yul\":6982:7151   */\n    tag_71:\n        /* \"#utility.yul\":7026:7032   */\n      0x00\n        /* \"#utility.yul\":7059:7110   */\n      tag_155\n        /* \"#utility.yul\":7107:7108   */\n      0x00\n        /* \"#utility.yul\":7103:7109   */\n      not\n        /* \"#utility.yul\":7095:7100   */\n      dup5\n        /* \"#utility.yul\":7092:7093   */\n      0x08\n        /* \"#utility.yul\":7088:7101   */\n      mul\n        /* \"#utility.yul\":7059:7110   */\n      tag_70\n      jump\t// in\n    tag_155:\n        /* \"#utility.yul\":7055:7111   */\n      not\n        /* \"#utility.yul\":7140:7144   */\n      dup1\n        /* \"#utility.yul\":7134:7138   */\n      dup4\n        /* \"#utility.yul\":7130:7145   */\n      and\n        /* \"#utility.yul\":7120:7145   */\n      swap2\n      pop\n        /* \"#utility.yul\":7033:7151   */\n      pop\n        /* \"#utility.yul\":6982:7151   */\n      swap3\n      swap2\n      pop\n      pop\n      jump\t// out\n        /* \"#utility.yul\":7156:7451   */\n    tag_72:\n        /* \"#utility.yul\":7232:7236   */\n      0x00\n        /* \"#utility.yul\":7378:7407   */\n      tag_157\n        /* \"#utility.yul\":7403:7406   */\n      dup4\n        /* \"#utility.yul\":7397:7401   */\n      dup4\n        /* \"#utility.yul\":7378:7407   */\n      tag_71\n      jump\t// in\n    tag_157:\n        /* \"#utility.yul\":7370:7407   */\n      swap2\n      pop\n        /* \"#utility.yul\":7440:7443   */\n      dup3\n        /* \"#utility.yul\":7437:7438   */\n      0x02\n        /* \"#utility.yul\":7433:7444   */\n      mul\n        /* \"#utility.yul\":7427:7431   */\n      dup3\n        /* \"#utility.yul\":7424:7445   */\n      or\n        /* \"#utility.yul\":7416:7445   */\n      swap1\n      pop\n        /* \"#utility.yul\":7156:7451   */\n      swap3\n      swap2\n      pop\n      pop\n      jump\t// out\n        /* \"#utility.yul\":7456:8859   */\n    tag_24:\n        /* \"#utility.yul\":7580:7624   */\n      tag_159\n        /* \"#utility.yul\":7620:7623   */\n      dup4\n        /* \"#utility.yul\":7615:7618   */\n      dup4\n        /* \"#utility.yul\":7580:7624   */\n      tag_54\n      jump\t// in\n    tag_159:\n        /* \"#utility.yul\":7689:7707   */\n      0xffffffffffffffff\n        /* \"#utility.yul\":7681:7687   */\n      dup2\n        /* \"#utility.yul\":7678:7708   */\n      gt\n        /* \"#utility.yul\":7675:7731   */\n      iszero\n      tag_160\n      jumpi\n        /* \"#utility.yul\":7711:7729   */\n      tag_161\n      tag_55\n      jump\t// in\n    tag_161:\n        /* \"#utility.yul\":7675:7731   */\n    tag_160:\n        /* \"#utility.yul\":7755:7793   */\n      tag_162\n        /* \"#utility.yul\":7787:7791   */\n      dup3\n        /* \"#utility.yul\":7781:7792   */\n      sload\n        /* \"#utility.yul\":7755:7793   */\n      tag_29\n      jump\t// in\n    tag_162:\n        /* \"#utility.yul\":7840:7907   */\n      tag_163\n        /* \"#utility.yul\":7900:7906   */\n      dup3\n        /* \"#utility.yul\":7892:7898   */\n      dup3\n        /* \"#utility.yul\":7886:7890   */\n      dup6\n        /* \"#utility.yul\":7840:7907   */\n      tag_69\n      jump\t// in\n    tag_163:\n        /* \"#utility.yul\":7934:7935   */\n      0x00\n        /* \"#utility.yul\":7963:7965   */\n      0x1f\n        /* \"#utility.yul\":7955:7961   */\n      dup4\n        /* \"#utility.yul\":7952:7966   */\n      gt\n        /* \"#utility.yul\":7980:7981   */\n      0x01\n        /* \"#utility.yul\":7975:8607   */\n      dup2\n      eq\n      tag_165\n      jumpi\n        /* \"#utility.yul\":8651:8652   */\n      0x00\n        /* \"#utility.yul\":8668:8674   */\n      dup5\n        /* \"#utility.yul\":8665:8749   */\n      iszero\n      tag_166\n      jumpi\n        /* \"#utility.yul\":8724:8733   */\n      dup3\n        /* \"#utility.yul\":8719:8722   */\n      dup8\n        /* \"#utility.yul\":8715:8734   */\n      add\n        /* \"#utility.yul\":8702:8735   */\n      calldataload\n        /* \"#utility.yul\":8693:8735   */\n      swap1\n      pop\n        /* \"#utility.yul\":8665:8749   */\n    tag_166:\n        /* \"#utility.yul\":8775:8842   */\n      tag_167\n        /* \"#utility.yul\":8835:8841   */\n      dup6\n        /* \"#utility.yul\":8828:8833   */\n      dup3\n        /* \"#utility.yul\":8775:8842   */\n      tag_72\n      jump\t// in\n    tag_167:\n        /* \"#utility.yul\":8769:8773   */\n      dup7\n        /* \"#utility.yul\":8762:8843   */\n      sstore\n        /* \"#utility.yul\":8624:8853   */\n      pop\n        /* \"#utility.yul\":7945:8853   */\n      jump(tag_164)\n        /* \"#utility.yul\":7975:8607   */\n    tag_165:\n        /* \"#utility.yul\":8027:8031   */\n      0x1f\n        /* \"#utility.yul\":8023:8032   */\n      not\n        /* \"#utility.yul\":8015:8021   */\n      dup5\n        /* \"#utility.yul\":8011:8033   */\n      and\n        /* \"#utility.yul\":8061:8098   */\n      tag_168\n        /* \"#utility.yul\":8093:8097   */\n      dup7\n        /* \"#utility.yul\":8061:8098   */\n      tag_57\n      jump\t// in\n    tag_168:\n        /* \"#utility.yul\":8120:8121   */\n      0x00\n        /* \"#utility.yul\":8134:8349   */\n    tag_169:\n        /* \"#utility.yul\":8148:8155   */\n      dup3\n        /* \"#utility.yul\":8145:8146   */\n      dup2\n        /* \"#utility.yul\":8142:8156   */\n      lt\n        /* \"#utility.yul\":8134:8349   */\n      iszero\n      tag_171\n      jumpi\n        /* \"#utility.yul\":8234:8243   */\n      dup5\n        /* \"#utility.yul\":8229:8232   */\n      dup10\n        /* \"#utility.yul\":8225:8244   */\n      add\n        /* \"#utility.yul\":8212:8245   */\n      calldataload\n        /* \"#utility.yul\":8204:8210   */\n      dup3\n        /* \"#utility.yul\":8197:8246   */\n      sstore\n        /* \"#utility.yul\":8285:8286   */\n      0x01\n        /* \"#utility.yul\":8277:8283   */\n      dup3\n        /* \"#utility.yul\":8273:8287   */\n      add\n        /* \"#utility.yul\":8263:8287   */\n      swap2\n      pop\n        /* \"#utility.yul\":8332:8334   */\n      0x20\n        /* \"#utility.yul\":8321:8330   */\n      dup6\n        /* \"#utility.yul\":8317:8335   */\n      add\n        /* \"#utility.yul\":8304:8335   */\n      swap5\n      pop\n        /* \"#utility.yul\":8171:8175   */\n      0x20\n        /* \"#utility.yul\":8168:8169   */\n      dup2\n        /* \"#utility.yul\":8164:8176   */\n      add\n        /* \"#utility.yul\":8159:8176   */\n      swap1\n      pop\n        /* \"#utility.yul\":8134:8349   */\n      jump(tag_169)\n    tag_171:\n        /* \"#utility.yul\":8377:8383   */\n      dup7\n        /* \"#utility.yul\":8368:8375   */\n      dup4\n        /* \"#utility.yul\":8365:8384   */\n      lt\n        /* \"#utility.yul\":8362:8548   */\n      iszero\n      tag_172\n      jumpi\n        /* \"#utility.yul\":8442:8451   */\n      dup5\n        /* \"#utility.yul\":8437:8440   */\n      dup10\n        /* \"#utility.yul\":8433:8452   */\n      add\n        /* \"#utility.yul\":8420:8453   */\n      calldataload\n        /* \"#utility.yul\":8485:8533   */\n      tag_173\n        /* \"#utility.yul\":8527:8531   */\n      0x1f\n        /* \"#utility.yul\":8519:8525   */\n      dup10\n        /* \"#utility.yul\":8515:8532   */\n      and\n        /* \"#utility.yul\":8504:8513   */\n      dup3\n        /* \"#utility.yul\":8485:8533   */\n      tag_71\n      jump\t// in\n    tag_173:\n        /* \"#utility.yul\":8477:8483   */\n      dup4\n        /* \"#utility.yul\":8470:8534   */\n      sstore\n        /* \"#utility.yul\":8385:8548   */\n      pop\n        /* \"#utility.yul\":8362:8548   */\n    tag_172:\n        /* \"#utility.yul\":8594:8595   */\n      0x01\n        /* \"#utility.yul\":8590:8591   */\n      0x02\n        /* \"#utility.yul\":8582:8588   */\n      dup9\n        /* \"#utility.yul\":8578:8592   */\n      mul\n        /* \"#utility.yul\":8574:8596   */\n      add\n        /* \"#utility.yul\":8568:8572   */\n      dup9\n        /* \"#utility.yul\":8561:8597   */\n      sstore\n        /* \"#utility.yul\":7982:8607   */\n      pop\n      pop\n      pop\n        /* \"#utility.yul\":7945:8853   */\n    tag_164:\n      pop\n        /* \"#utility.yul\":7555:8859   */\n      pop\n      pop\n      pop\n        /* \"#utility.yul\":7456:8859   */\n      pop\n      pop\n      pop\n      jump\t// out\n        /* \"#utility.yul\":8865:9013   */\n    tag_73:\n        /* \"#utility.yul\":8963:8969   */\n      dup3\n        /* \"#utility.yul\":8958:8961   */\n      dup2\n        /* \"#utility.yul\":8953:8956   */\n      dup4\n        /* \"#utility.yul\":8940:8970   */\n      calldatacopy\n        /* \"#utility.yul\":9004:9005   */\n      0x00\n        /* \"#utility.yul\":8995:9001   */\n      dup4\n        /* \"#utility.yul\":8990:8993   */\n      dup4\n        /* \"#utility.yul\":8986:9002   */\n      add\n        /* \"#utility.yul\":8979:9006   */\n      mstore\n        /* \"#utility.yul\":8865:9013   */\n      pop\n      pop\n      pop\n      jump\t// out\n        /* \"#utility.yul\":9043:9360   */\n    tag_74:\n        /* \"#utility.yul\":9141:9144   */\n      0x00\n        /* \"#utility.yul\":9162:9233   */\n      tag_176\n        /* \"#utility.yul\":9226:9232   */\n      dup4\n        /* \"#utility.yul\":9221:9224   */\n      dup6\n        /* \"#utility.yul\":9162:9233   */\n      tag_50\n      jump\t// in\n    tag_176:\n        /* \"#utility.yul\":9155:9233   */\n      swap4\n      pop\n        /* \"#utility.yul\":9243:9299   */\n      tag_177\n        /* \"#utility.yul\":9292:9298   */\n      dup4\n        /* \"#utility.yul\":9287:9290   */\n      dup6\n        /* \"#utility.yul\":9280:9285   */\n      dup5\n        /* \"#utility.yul\":9243:9299   */\n      tag_73\n      jump\t// in\n    tag_177:\n        /* \"#utility.yul\":9324:9353   */\n      tag_178\n        /* \"#utility.yul\":9346:9352   */\n      dup4\n        /* \"#utility.yul\":9324:9353   */\n      tag_52\n      jump\t// in\n    tag_178:\n        /* \"#utility.yul\":9319:9322   */\n      dup5\n        /* \"#utility.yul\":9315:9354   */\n      add\n        /* \"#utility.yul\":9308:9354   */\n      swap1\n      pop\n        /* \"#utility.yul\":9043:9360   */\n      swap4\n      swap3\n      pop\n      pop\n      pop\n      jump\t// out\n        /* \"#utility.yul\":9366:9699   */\n    tag_26:\n        /* \"#utility.yul\":9489:9493   */\n      0x00\n        /* \"#utility.yul\":9527:9529   */\n      0x20\n        /* \"#utility.yul\":9516:9525   */\n      dup3\n        /* \"#utility.yul\":9512:9530   */\n      add\n        /* \"#utility.yul\":9504:9530   */\n      swap1\n      pop\n        /* \"#utility.yul\":9576:9585   */\n      dup2\n        /* \"#utility.yul\":9570:9574   */\n      dup2\n        /* \"#utility.yul\":9566:9586   */\n      sub\n        /* \"#utility.yul\":9562:9563   */\n      0x00\n        /* \"#utility.yul\":9551:9560   */\n      dup4\n        /* \"#utility.yul\":9547:9564   */\n      add\n        /* \"#utility.yul\":9540:9587   */\n      mstore\n        /* \"#utility.yul\":9604:9692   */\n      tag_180\n        /* \"#utility.yul\":9687:9691   */\n      dup2\n        /* \"#utility.yul\":9678:9684   */\n      dup5\n        /* \"#utility.yul\":9670:9676   */\n      dup7\n        /* \"#utility.yul\":9604:9692   */\n      tag_74\n      jump\t// in\n    tag_180:\n        /* \"#utility.yul\":9596:9692   */\n      swap1\n      pop\n        /* \"#utility.yul\":9366:9699   */\n      swap4\n      swap3\n      pop\n      pop\n      pop\n      jump\t// out\n\n    auxdata: 0xa264697066735822122021f87eadcfe79e2d95384d688047e2d88de10faca6baead0a67d0751f8b8fc8a64736f6c634300081e0033\n}\n",
				"bytecode": {
					"linkReferences": {},
					"object": "6080604052348015600e575f5ffd5b506107e08061001c5f395ff3fe608060405234801561000f575f5ffd5b506004361061004a575f3560e01c8063177b1ef51461004e5780631923be241461006c578063ce6d41de14610088578063e21f37ce146100a6575b5f5ffd5b6100566100c4565b60405161006391906102e7565b60405180910390f35b61008660048036038101906100819190610369565b6100e9565b005b61009061018e565b60405161009d9190610424565b60405180910390f35b6100ae61021d565b6040516100bb9190610424565b60405180910390f35b60015f9054906101000a900473ffffffffffffffffffffffffffffffffffffffff1681565b81815f91826100f9929190610681565b503360015f6101000a81548173ffffffffffffffffffffffffffffffffffffffff021916908373ffffffffffffffffffffffffffffffffffffffff1602179055503373ffffffffffffffffffffffffffffffffffffffff167f3f784155aa459466ce143eb76c376834c30b26979da03bd4be74cd146c4bb1c38383604051610182929190610788565b60405180910390a25050565b60605f805461019c906104a8565b80601f01602080910402602001604051908101604052809291908181526020018280546101c8906104a8565b80156102135780601f106101ea57610100808354040283529160200191610213565b820191905f5260205f20905b8154815290600101906020018083116101f657829003601f168201915b5050505050905090565b5f8054610229906104a8565b80601f0160208091040260200160405190810160405280929190818152602001828054610255906104a8565b80156102a05780601f10610277576101008083540402835291602001916102a0565b820191905f5260205f20905b81548152906001019060200180831161028357829003601f168201915b505050505081565b5f73ffffffffffffffffffffffffffffffffffffffff82169050919050565b5f6102d1826102a8565b9050919050565b6102e1816102c7565b82525050565b5f6020820190506102fa5f8301846102d8565b92915050565b5f5ffd5b5f5ffd5b5f5ffd5b5f5ffd5b5f5ffd5b5f5f83601f84011261032957610328610308565b5b8235905067ffffffffffffffff8111156103465761034561030c565b5b60208301915083600182028301111561036257610361610310565b5b9250929050565b5f5f6020838503121561037f5761037e610300565b5b5f83013567ffffffffffffffff81111561039c5761039b610304565b5b6103a885828601610314565b92509250509250929050565b5f81519050919050565b5f82825260208201905092915050565b8281835e5f83830152505050565b5f601f19601f8301169050919050565b5f6103f6826103b4565b61040081856103be565b93506104108185602086016103ce565b610419816103dc565b840191505092915050565b5f6020820190508181035f83015261043c81846103ec565b905092915050565b5f82905092915050565b7f4e487b71000000000000000000000000000000000000000000000000000000005f52604160045260245ffd5b7f4e487b71000000000000000000000000000000000000000000000000000000005f52602260045260245ffd5b5f60028204905060018216806104bf57607f821691505b6020821081036104d2576104d161047b565b5b50919050565b5f819050815f5260205f209050919050565b5f6020601f8301049050919050565b5f82821b905092915050565b5f600883026105347fffffffffffffffffffffffffffffffffffffffffffffffffffffffffffffffff826104f9565b61053e86836104f9565b95508019841693508086168417925050509392505050565b5f819050919050565b5f819050919050565b5f61058261057d61057884610556565b61055f565b610556565b9050919050565b5f819050919050565b61059b83610568565b6105af6105a782610589565b848454610505565b825550505050565b5f5f905090565b6105c66105b7565b6105d1818484610592565b505050565b5b818110156105f4576105e95f826105be565b6001810190506105d7565b5050565b601f8211156106395761060a816104d8565b610613846104ea565b81016020851015610622578190505b61063661062e856104ea565b8301826105d6565b50505b505050565b5f82821c905092915050565b5f6106595f198460080261063e565b1980831691505092915050565b5f610671838361064a565b9150826002028217905092915050565b61068b8383610444565b67ffffffffffffffff8111156106a4576106a361044e565b5b6106ae82546104a8565b6106b98282856105f8565b5f601f8311600181146106e6575f84156106d4578287013590505b6106de8582610666565b865550610745565b601f1984166106f4866104d8565b5f5b8281101561071b578489013582556001820191506020850194506020810190506106f6565b868310156107385784890135610734601f89168261064a565b8355505b6001600288020188555050505b50505050505050565b828183375f83830152505050565b5f61076783856103be565b935061077483858461074e565b61077d836103dc565b840190509392505050565b5f6020820190508181035f8301526107a181848661075c565b9050939250505056fea264697066735822122021f87eadcfe79e2d95384d688047e2d88de10faca6baead0a67d0751f8b8fc8a64736f6c634300081e0033",
					"opcodes": "PUSH1 0x80 PUSH1 0x40 MSTORE CALLVALUE DUP1 ISZERO PUSH1 0xE JUMPI PUSH0 PUSH0 REVERT JUMPDEST POP PUSH2 0x7E0 DUP1 PUSH2 0x1C PUSH0 CODECOPY PUSH0 RETURN INVALID PUSH1 0x80 PUSH1 0x40 MSTORE CALLVALUE DUP1 ISZERO PUSH2 0xF JUMPI PUSH0 PUSH0 REVERT JUMPDEST POP PUSH1 0x4 CALLDATASIZE LT PUSH2 0x4A JUMPI PUSH0 CALLDATALOAD PUSH1 0xE0 SHR DUP1 PUSH4 0x177B1EF5 EQ PUSH2 0x4E JUMPI DUP1 PUSH4 0x1923BE24 EQ PUSH2 0x6C JUMPI DUP1 PUSH4 0xCE6D41DE EQ PUSH2 0x88 JUMPI DUP1 PUSH4 0xE21F37CE EQ PUSH2 0xA6 JUMPI JUMPDEST PUSH0 PUSH0 REVERT JUMPDEST PUSH2 0x56 PUSH2 0xC4 JUMP JUMPDEST PUSH1 0x40 MLOAD PUSH2 0x63 SWAP2 SWAP1 PUSH2 0x2E7 JUMP JUMPDEST PUSH1 0x40 MLOAD DUP1 SWAP2 SUB SWAP1 RETURN JUMPDEST PUSH2 0x86 PUSH1 0x4 DUP1 CALLDATASIZE SUB DUP2 ADD SWAP1 PUSH2 0x81 SWAP2 SWAP1 PUSH2 0x369 JUMP JUMPDEST PUSH2 0xE9 JUMP JUMPDEST STOP JUMPDEST PUSH2 0x90 PUSH2 0x18E JUMP JUMPDEST PUSH1 0x40 MLOAD PUSH2 0x9D SWAP2 SWAP1 PUSH2 0x424 JUMP JUMPDEST PUSH1 0x40 MLOAD DUP1 SWAP2 SUB SWAP1 RETURN JUMPDEST PUSH2 0xAE PUSH2 0x21D JUMP JUMPDEST PUSH1 0x40 MLOAD PUSH2 0xBB SWAP2 SWAP1 PUSH2 0x424 JUMP JUMPDEST PUSH1 0x40 MLOAD DUP1 SWAP2 SUB SWAP1 RETURN JUMPDEST PUSH1 0x1 PUSH0 SWAP1 SLOAD SWAP1 PUSH2 0x100 EXP SWAP1 DIV PUSH20 0xFFFFFFFFFFFFFFFFFFFFFFFFFFFFFFFFFFFFFFFF AND DUP2 JUMP JUMPDEST DUP2 DUP2 PUSH0 SWAP2 DUP3 PUSH2 0xF9 SWAP3 SWAP2 SWAP1 PUSH2 0x681 JUMP JUMPDEST POP CALLER PUSH1 0x1 PUSH0 PUSH2 0x100 EXP DUP2 SLOAD DUP2 PUSH20 0xFFFFFFFFFFFFFFFFFFFFFFFFFFFFFFFFFFFFFFFF MUL NOT AND SWAP1 DUP4 PUSH20 0xFFFFFFFFFFFFFFFFFFFFFFFFFFFFFFFFFFFFFFFF AND MUL OR SWAP1 SSTORE POP CALLER PUSH20 0xFFFFFFFFFFFFFFFFFFFFFFFFFFFFFFFFFFFFFFFF AND PUSH32 0x3F784155AA459466CE143EB76C376834C30B26979DA03BD4BE74CD146C4BB1C3 DUP4 DUP4 PUSH1 0x40 MLOAD PUSH2 0x182 SWAP3 SWAP2 SWAP1 PUSH2 0x788 JUMP JUMPDEST PUSH1 0x40 MLOAD DUP1 SWAP2 SUB SWAP1 LOG2 POP POP JUMP JUMPDEST PUSH1 0x60 PUSH0 DUP1 SLOAD PUSH2 0x19C SWAP1 PUSH2 0x4A8 JUMP JUMPDEST DUP1 PUSH1 0x1F ADD PUSH1 0x20 DUP1 SWAP2 DIV MUL PUSH1 0x20 ADD PUSH1 0x40 MLOAD SWAP1 DUP2 ADD PUSH1 0x40 MSTORE DUP1 SWAP3 SWAP2 SWAP1 DUP2 DUP2 MSTORE PUSH1 0x20 ADD DUP3 DUP1 SLOAD PUSH2 0x1C8 SWAP1 PUSH2 0x4A8 JUMP JUMPDEST DUP1 ISZERO PUSH2 0x213 JUMPI DUP1 PUSH1 0x1F LT PUSH2 0x1EA JUMPI PUSH2 0x100 DUP1 DUP4 SLOAD DIV MUL DUP4 MSTORE SWAP2 PUSH1 0x20 ADD SWAP2 PUSH2 0x213 JUMP JUMPDEST DUP3 ADD SWAP2 SWAP1 PUSH0 MSTORE PUSH1 0x20 PUSH0 KECCAK256 SWAP1 JUMPDEST DUP2 SLOAD DUP2 MSTORE SWAP1 PUSH1 0x1 ADD SWAP1 PUSH1 0x20 ADD DUP1 DUP4 GT PUSH2 0x1F6 JUMPI DUP3 SWAP1 SUB PUSH1 0x1F AND DUP3 ADD SWAP2 JUMPDEST POP POP POP POP POP SWAP1 POP SWAP1 JUMP JUMPDEST PUSH0 DUP1 SLOAD PUSH2 0x229 SWAP1 PUSH2 0x4A8 JUMP JUMPDEST DUP1 PUSH1 0x1F ADD PUSH1 0x20 DUP1 SWAP2 DIV MUL PUSH1 0x20 ADD PUSH1 0x40 MLOAD SWAP1 DUP2 ADD PUSH1 0x40 MSTORE DUP1 SWAP3 SWAP2 SWAP1 DUP2 DUP2 MSTORE PUSH1 0x20 ADD DUP3 DUP1 SLOAD PUSH2 0x255 SWAP1 PUSH2 0x4A8 JUMP JUMPDEST DUP1 ISZERO PUSH2 0x2A0 JUMPI DUP1 PUSH1 0x1F LT PUSH2 0x277 JUMPI PUSH2 0x100 DUP1 DUP4 SLOAD DIV MUL DUP4 MSTORE SWAP2 PUSH1 0x20 ADD SWAP2 PUSH2 0x2A0 JUMP JUMPDEST DUP3 ADD SWAP2 SWAP1 PUSH0 MSTORE PUSH1 0x20 PUSH0 KECCAK256 SWAP1 JUMPDEST DUP2 SLOAD DUP2 MSTORE SWAP1 PUSH1 0x1 ADD SWAP1 PUSH1 0x20 ADD DUP1 DUP4 GT PUSH2 0x283 JUMPI DUP3 SWAP1 SUB PUSH1 0x1F AND DUP3 ADD SWAP2 JUMPDEST POP POP POP POP POP DUP2 JUMP JUMPDEST PUSH0 PUSH20 0xFFFFFFFFFFFFFFFFFFFFFFFFFFFFFFFFFFFFFFFF DUP3 AND SWAP1 POP SWAP2 SWAP1 POP JUMP JUMPDEST PUSH0 PUSH2 0x2D1 DUP3 PUSH2 0x2A8 JUMP JUMPDEST SWAP1 POP SWAP2 SWAP1 POP JUMP JUMPDEST PUSH2 0x2E1 DUP2 PUSH2 0x2C7 JUMP JUMPDEST DUP3 MSTORE POP POP JUMP JUMPDEST PUSH0 PUSH1 0x20 DUP3 ADD SWAP1 POP PUSH2 0x2FA PUSH0 DUP4 ADD DUP5 PUSH2 0x2D8 JUMP JUMPDEST SWAP3 SWAP2 POP POP JUMP JUMPDEST PUSH0 PUSH0 REVERT JUMPDEST PUSH0 PUSH0 REVERT JUMPDEST PUSH0 PUSH0 REVERT JUMPDEST PUSH0 PUSH0 REVERT JUMPDEST PUSH0 PUSH0 REVERT JUMPDEST PUSH0 PUSH0 DUP4 PUSH1 0x1F DUP5 ADD SLT PUSH2 0x329 JUMPI PUSH2 0x328 PUSH2 0x308 JUMP JUMPDEST JUMPDEST DUP3 CALLDATALOAD SWAP1 POP PUSH8 0xFFFFFFFFFFFFFFFF DUP2 GT ISZERO PUSH2 0x346 JUMPI PUSH2 0x345 PUSH2 0x30C JUMP JUMPDEST JUMPDEST PUSH1 0x20 DUP4 ADD SWAP2 POP DUP4 PUSH1 0x1 DUP3 MUL DUP4 ADD GT ISZERO PUSH2 0x362 JUMPI PUSH2 0x361 PUSH2 0x310 JUMP JUMPDEST JUMPDEST SWAP3 POP SWAP3 SWAP1 POP JUMP JUMPDEST PUSH0 PUSH0 PUSH1 0x20 DUP4 DUP6 SUB SLT ISZERO PUSH2 0x37F JUMPI PUSH2 0x37E PUSH2 0x300 JUMP JUMPDEST JUMPDEST PUSH0 DUP4 ADD CALLDATALOAD PUSH8 0xFFFFFFFFFFFFFFFF DUP2 GT ISZERO PUSH2 0x39C JUMPI PUSH2 0x39B PUSH2 0x304 JUMP JUMPDEST JUMPDEST PUSH2 0x3A8 DUP6 DUP3 DUP7 ADD PUSH2 0x314 JUMP JUMPDEST SWAP3 POP SWAP3 POP POP SWAP3 POP SWAP3 SWAP1 POP JUMP JUMPDEST PUSH0 DUP2 MLOAD SWAP1 POP SWAP2 SWAP1 POP JUMP JUMPDEST PUSH0 DUP3 DUP3 MSTORE PUSH1 0x20 DUP3 ADD SWAP1 POP SWAP3 SWAP2 POP POP JUMP JUMPDEST DUP3 DUP2 DUP4 MCOPY PUSH0 DUP4 DUP4 ADD MSTORE POP POP POP JUMP JUMPDEST PUSH0 PUSH1 0x1F NOT PUSH1 0x1F DUP4 ADD AND SWAP1 POP SWAP2 SWAP1 POP JUMP JUMPDEST PUSH0 PUSH2 0x3F6 DUP3 PUSH2 0x3B4 JUMP JUMPDEST PUSH2 0x400 DUP2 DUP6 PUSH2 0x3BE JUMP JUMPDEST SWAP4 POP PUSH2 0x410 DUP2 DUP6 PUSH1 0x20 DUP7 ADD PUSH2 0x3CE JUMP JUMPDEST PUSH2 0x419 DUP2 PUSH2 0x3DC JUMP JUMPDEST DUP5 ADD SWAP2 POP POP SWAP3 SWAP2 POP POP JUMP JUMPDEST PUSH0 PUSH1 0x20 DUP3 ADD SWAP1 POP DUP2 DUP2 SUB PUSH0 DUP4 ADD MSTORE PUSH2 0x43C DUP2 DUP5 PUSH2 0x3EC JUMP JUMPDEST SWAP1 POP SWAP3 SWAP2 POP POP JUMP JUMPDEST PUSH0 DUP3 SWAP1 POP SWAP3 SWAP2 POP POP JUMP JUMPDEST PUSH32 0x4E487B7100000000000000000000000000000000000000000000000000000000 PUSH0 MSTORE PUSH1 0x41 PUSH1 0x4 MSTORE PUSH1 0x24 PUSH0 REVERT JUMPDEST PUSH32 0x4E487B7100000000000000000000000000000000000000000000000000000000 PUSH0 MSTORE PUSH1 0x22 PUSH1 0x4 MSTORE PUSH1 0x24 PUSH0 REVERT JUMPDEST PUSH0 PUSH1 0x2 DUP3 DIV SWAP1 POP PUSH1 0x1 DUP3 AND DUP1 PUSH2 0x4BF JUMPI PUSH1 0x7F DUP3 AND SWAP2 POP JUMPDEST PUSH1 0x20 DUP3 LT DUP2 SUB PUSH2 0x4D2 JUMPI PUSH2 0x4D1 PUSH2 0x47B JUMP JUMPDEST JUMPDEST POP SWAP2 SWAP1 POP JUMP JUMPDEST PUSH0 DUP2 SWAP1 POP DUP2 PUSH0 MSTORE PUSH1 0x20 PUSH0 KECCAK256 SWAP1 POP SWAP2 SWAP1 POP JUMP JUMPDEST PUSH0 PUSH1 0x20 PUSH1 0x1F DUP4 ADD DIV SWAP1 POP SWAP2 SWAP1 POP JUMP JUMPDEST PUSH0 DUP3 DUP3 SHL SWAP1 POP SWAP3 SWAP2 POP POP JUMP JUMPDEST PUSH0 PUSH1 0x8 DUP4 MUL PUSH2 0x534 PUSH32 0xFFFFFFFFFFFFFFFFFFFFFFFFFFFFFFFFFFFFFFFFFFFFFFFFFFFFFFFFFFFFFFFF DUP3 PUSH2 0x4F9 JUMP JUMPDEST PUSH2 0x53E DUP7 DUP4 PUSH2 0x4F9 JUMP JUMPDEST SWAP6 POP DUP1 NOT DUP5 AND SWAP4 POP DUP1 DUP7 AND DUP5 OR SWAP3 POP POP POP SWAP4 SWAP3 POP POP POP JUMP JUMPDEST PUSH0 DUP2 SWAP1 POP SWAP2 SWAP1 POP JUMP JUMPDEST PUSH0 DUP2 SWAP1 POP SWAP2 SWAP1 POP JUMP JUMPDEST PUSH0 PUSH2 0x582 PUSH2 0x57D PUSH2 0x578 DUP5 PUSH2 0x556 JUMP JUMPDEST PUSH2 0x55F JUMP JUMPDEST PUSH2 0x556 JUMP JUMPDEST SWAP1 POP SWAP2 SWAP1 POP JUMP JUMPDEST PUSH0 DUP2 SWAP1 POP SWAP2 SWAP1 POP JUMP JUMPDEST PUSH2 0x59B DUP4 PUSH2 0x568 JUMP JUMPDEST PUSH2 0x5AF PUSH2 0x5A7 DUP3 PUSH2 0x589 JUMP JUMPDEST DUP5 DUP5 SLOAD PUSH2 0x505 JUMP JUMPDEST DUP3 SSTORE POP POP POP POP JUMP JUMPDEST PUSH0 PUSH0 SWAP1 POP SWAP1 JUMP JUMPDEST PUSH2 0x5C6 PUSH2 0x5B7 JUMP JUMPDEST PUSH2 0x5D1 DUP2 DUP5 DUP5 PUSH2 0x592 JUMP JUMPDEST POP POP POP JUMP JUMPDEST JUMPDEST DUP2 DUP2 LT ISZERO PUSH2 0x5F4 JUMPI PUSH2 0x5E9 PUSH0 DUP3 PUSH2 0x5BE JUMP JUMPDEST PUSH1 0x1 DUP2 ADD SWAP1 POP PUSH2 0x5D7 JUMP JUMPDEST POP POP JUMP JUMPDEST PUSH1 0x1F DUP3 GT ISZERO PUSH2 0x639 JUMPI PUSH2 0x60A DUP2 PUSH2 0x4D8 JUMP JUMPDEST PUSH2 0x613 DUP5 PUSH2 0x4EA JUMP JUMPDEST DUP2 ADD PUSH1 0x20 DUP6 LT ISZERO PUSH2 0x622 JUMPI DUP2 SWAP1 POP JUMPDEST PUSH2 0x636 PUSH2 0x62E DUP6 PUSH2 0x4EA JUMP JUMPDEST DUP4 ADD DUP3 PUSH2 0x5D6 JUMP JUMPDEST POP POP JUMPDEST POP POP POP JUMP JUMPDEST PUSH0 DUP3 DUP3 SHR SWAP1 POP SWAP3 SWAP2 POP POP JUMP JUMPDEST PUSH0 PUSH2 0x659 PUSH0 NOT DUP5 PUSH1 0x8 MUL PUSH2 0x63E JUMP JUMPDEST NOT DUP1 DUP4 AND SWAP2 POP POP SWAP3 SWAP2 POP POP JUMP JUMPDEST PUSH0 PUSH2 0x671 DUP4 DUP4 PUSH2 0x64A JUMP JUMPDEST SWAP2 POP DUP3 PUSH1 0x2 MUL DUP3 OR SWAP1 POP SWAP3 SWAP2 POP POP JUMP JUMPDEST PUSH2 0x68B DUP4 DUP4 PUSH2 0x444 JUMP JUMPDEST PUSH8 0xFFFFFFFFFFFFFFFF DUP2 GT ISZERO PUSH2 0x6A4 JUMPI PUSH2 0x6A3 PUSH2 0x44E JUMP JUMPDEST JUMPDEST PUSH2 0x6AE DUP3 SLOAD PUSH2 0x4A8 JUMP JUMPDEST PUSH2 0x6B9 DUP3 DUP3 DUP6 PUSH2 0x5F8 JUMP JUMPDEST PUSH0 PUSH1 0x1F DUP4 GT PUSH1 0x1 DUP2 EQ PUSH2 0x6E6 JUMPI PUSH0 DUP5 ISZERO PUSH2 0x6D4 JUMPI DUP3 DUP8 ADD CALLDATALOAD SWAP1 POP JUMPDEST PUSH2 0x6DE DUP6 DUP3 PUSH2 0x666 JUMP JUMPDEST DUP7 SSTORE POP PUSH2 0x745 JUMP JUMPDEST PUSH1 0x1F NOT DUP5 AND PUSH2 0x6F4 DUP7 PUSH2 0x4D8 JUMP JUMPDEST PUSH0 JUMPDEST DUP3 DUP2 LT ISZERO PUSH2 0x71B JUMPI DUP5 DUP10 ADD CALLDATALOAD DUP3 SSTORE PUSH1 0x1 DUP3 ADD SWAP2 POP PUSH1 0x20 DUP6 ADD SWAP5 POP PUSH1 0x20 DUP2 ADD SWAP1 POP PUSH2 0x6F6 JUMP JUMPDEST DUP7 DUP4 LT ISZERO PUSH2 0x738 JUMPI DUP5 DUP10 ADD CALLDATALOAD PUSH2 0x734 PUSH1 0x1F DUP10 AND DUP3 PUSH2 0x64A JUMP JUMPDEST DUP4 SSTORE POP JUMPDEST PUSH1 0x1 PUSH1 0x2 DUP9 MUL ADD DUP9 SSTORE POP POP POP JUMPDEST POP POP POP POP POP POP POP JUMP JUMPDEST DUP3 DUP2 DUP4 CALLDATACOPY PUSH0 DUP4 DUP4 ADD MSTORE POP POP POP JUMP JUMPDEST PUSH0 PUSH2 0x767 DUP4 DUP6 PUSH2 0x3BE JUMP JUMPDEST SWAP4 POP PUSH2 0x774 DUP4 DUP6 DUP5 PUSH2 0x74E JUMP JUMPDEST PUSH2 0x77D DUP4 PUSH2 0x3DC JUMP JUMPDEST DUP5 ADD SWAP1 POP SWAP4 SWAP3 POP POP POP JUMP JUMPDEST PUSH0 PUSH1 0x20 DUP3 ADD SWAP1 POP DUP2 DUP2 SUB PUSH0 DUP4 ADD MSTORE PUSH2 0x7A1 DUP2 DUP5 DUP7 PUSH2 0x75C JUMP JUMPDEST SWAP1 POP SWAP4 SWAP3 POP POP POP JUMP INVALID LOG2 PUSH5 0x6970667358 0x22 SLT KECCAK256 0x21 EXTCALL PUSH31 0xADCFE79E2D95384D688047E2D88DE10FACA6BAEAD0A67D0751F8B8FC8A6473 PUSH16 0x6C634300081E00330000000000000000 "
				},
				"gasEstimates": {
					"creation": {
						"codeDepositCost": "403200",
						"executionCost": "434",
						"totalCost": "403634"
					},
					"external": {
						"getMessage()": "infinite",
						"lastUpdatedBy()": "2486",
						"message()": "infinite",
						"updateMessage(string)": "infinite"
					}
				},
				"methodIdentifiers": {
					"getMessage()": "ce6d41de",
					"lastUpdatedBy()": "177b1ef5",
					"message()": "e21f37ce",
					"updateMessage(string)": "1923be24"
				}
			},
			"storageLayout": {
				"storage": [
					{
						"astId": 3,
						"contract": "contracts/messageBoard.sol:MessageBoard",
						"label": "message",
						"offset": 0,
						"slot": "0",
						"type": "t_string_storage"
					},
					{
						"astId": 5,
						"contract": "contracts/messageBoard.sol:MessageBoard",
						"label": "lastUpdatedBy",
						"offset": 0,
						"slot": "1",
						"type": "t_address"
					}
				],
				"types": {
					"t_address": {
						"encoding": "inplace",
						"label": "address",
						"numberOfBytes": "20"
					},
					"t_string_storage": {
						"encoding": "bytes",
						"label": "string",
						"numberOfBytes": "32"
					}
				}
			},
			"userdoc": {
				"kind": "user",
				"methods": {},
				"version": 1
			}
		}
	}
}