{
	"LearnCalldataMemoryStorage.sol": {
		"LearnCalldataMemoryStorage": {
			"abi": [
				{
					"inputs": [
						{
							"internalType": "string",
							"name": "userInput",
							"type": "string"
						}
					],
					"name": "saveMsg",
					"outputs": [],
					"stateMutability": "nonpayable",
					"type": "function"
				},
				{
					"inputs": [],
					"name": "savedMessage",
					"outputs": [
						{
							"internalType": "string",
							"name": "",
							"type": "string"
						}
					],
					"stateMutability": "view",
					"type": "function"
				},
				{
					"inputs": [],
					"name": "viewMsg",
					"outputs": [
						{
							"internalType": "string",
							"name": "",
							"type": "string"
						}
					],
					"stateMutability": "view",
					"type": "function"
				}
			],
			"devdoc": {
				"kind": "dev",
				"methods": {},
				"version": 1
			},
			"evm": {
				"assembly": "    /* \"LearnCalldataMemoryStorage.sol\":57:362  contract LearnCalldataMemoryStorage{... */\n  mstore(0x40, 0x80)\n  callvalue\n  dup1\n  iszero\n  tag_1\n  jumpi\n  revert(0x00, 0x00)\ntag_1:\n  pop\n  dataSize(sub_0)\n  dup1\n  dataOffset(sub_0)\n  0x00\n  codecopy\n  0x00\n  return\nstop\n\nsub_0: assembly {\n        /* \"LearnCalldataMemoryStorage.sol\":57:362  contract LearnCalldataMemoryStorage{... */\n      mstore(0x40, 0x80)\n      callvalue\n      dup1\n      iszero\n      tag_1\n      jumpi\n      revert(0x00, 0x00)\n    tag_1:\n      pop\n      jumpi(tag_2, lt(calldatasize, 0x04))\n      shr(0xe0, calldataload(0x00))\n      dup1\n      0xb6e7385e\n      eq\n      tag_3\n      jumpi\n      dup1\n      0xd53335b0\n      eq\n      tag_4\n      jumpi\n      dup1\n      0xdcdbfac5\n      eq\n      tag_5\n      jumpi\n    tag_2:\n      revert(0x00, 0x00)\n        /* \"LearnCalldataMemoryStorage.sol\":133:262  function saveMsg(string calldata userInput) external {... */\n    tag_3:\n      tag_6\n      0x04\n      dup1\n      calldatasize\n      sub\n      dup2\n      add\n      swap1\n      tag_7\n      swap2\n      swap1\n      tag_8\n      jump\t// in\n    tag_7:\n      tag_9\n      jump\t// in\n    tag_6:\n      stop\n        /* \"LearnCalldataMemoryStorage.sol\":98:124  string public savedMessage */\n    tag_4:\n      tag_10\n      tag_11\n      jump\t// in\n    tag_10:\n      mload(0x40)\n      tag_12\n      swap2\n      swap1\n      tag_13\n      jump\t// in\n    tag_12:\n      mload(0x40)\n      dup1\n      swap2\n      sub\n      swap1\n      return\n        /* \"LearnCalldataMemoryStorage.sol\":268:360  function viewMsg() external view returns (string memory){... */\n    tag_5:\n      tag_14\n      tag_15\n      jump\t// in\n    tag_14:\n      mload(0x40)\n      tag_16\n      swap2\n      swap1\n      tag_13\n      jump\t// in\n    tag_16:\n      mload(0x40)\n      dup1\n      swap2\n      sub\n      swap1\n      return\n        /* \"LearnCalldataMemoryStorage.sol\":133:262  function saveMsg(string calldata userInput) external {... */\n    tag_9:\n        /* \"LearnCalldataMemoryStorage.sol\":196:214  string memory temp */\n      0x00\n        /* \"LearnCalldataMemoryStorage.sol\":217:226  userInput */\n      dup3\n      dup3\n        /* \"LearnCalldataMemoryStorage.sol\":196:226  string memory temp = userInput */\n      dup1\n      dup1\n      0x1f\n      add\n      0x20\n      dup1\n      swap2\n      div\n      mul\n      0x20\n      add\n      mload(0x40)\n      swap1\n      dup2\n      add\n      0x40\n      mstore\n      dup1\n      swap4\n      swap3\n      swap2\n      swap1\n      dup2\n      dup2\n      mstore\n      0x20\n      add\n      dup4\n      dup4\n      dup1\n      dup3\n      dup5\n      calldatacopy\n      0x00\n      dup2\n      dup5\n      add\n      mstore\n      not(0x1f)\n      0x1f\n      dup3\n      add\n      and\n      swap1\n      pop\n      dup1\n      dup4\n      add\n      swap3\n      pop\n      pop\n      pop\n      pop\n      pop\n      pop\n      pop\n      swap1\n      pop\n        /* \"LearnCalldataMemoryStorage.sol\":251:255  temp */\n      dup1\n        /* \"LearnCalldataMemoryStorage.sol\":236:248  savedMessage */\n      0x00\n        /* \"LearnCalldataMemoryStorage.sol\":236:255  savedMessage = temp */\n      swap1\n      dup2\n      tag_18\n      swap2\n      swap1\n      tag_19\n      jump\t// in\n    tag_18:\n      pop\n        /* \"LearnCalldataMemoryStorage.sol\":186:262  {... */\n      pop\n        /* \"LearnCalldataMemoryStorage.sol\":133:262  function saveMsg(string calldata userInput) external {... */\n      pop\n      pop\n      jump\t// out\n        /* \"LearnCalldataMemoryStorage.sol\":98:124  string public savedMessage */\n    tag_11:\n      0x00\n      dup1\n      sload\n      tag_20\n      swap1\n      tag_21\n      jump\t// in\n    tag_20:\n      dup1\n      0x1f\n      add\n      0x20\n      dup1\n      swap2\n      div\n      mul\n      0x20\n      add\n      mload(0x40)\n      swap1\n      dup2\n      add\n      0x40\n      mstore\n      dup1\n      swap3\n      swap2\n      swap1\n      dup2\n      dup2\n      mstore\n      0x20\n      add\n      dup3\n      dup1\n      sload\n      tag_22\n      swap1\n      tag_21\n      jump\t// in\n    tag_22:\n      dup1\n      iszero\n      tag_23\n      jumpi\n      dup1\n      0x1f\n      lt\n      tag_24\n      jumpi\n      0x0100\n      dup1\n      dup4\n      sload\n      div\n      mul\n      dup4\n      mstore\n      swap2\n      0x20\n      add\n      swap2\n      jump(tag_23)\n    tag_24:\n      dup3\n      add\n      swap2\n      swap1\n      0x00\n      mstore\n      keccak256(0x00, 0x20)\n      swap1\n    tag_25:\n      dup2\n      sload\n      dup2\n      mstore\n      swap1\n      0x01\n      add\n      swap1\n      0x20\n      add\n      dup1\n      dup4\n      gt\n      tag_25\n      jumpi\n      dup3\n      swap1\n      sub\n      0x1f\n      and\n      dup3\n      add\n      swap2\n    tag_23:\n      pop\n      pop\n      pop\n      pop\n      pop\n      dup2\n      jump\t// out\n        /* \"LearnCalldataMemoryStorage.sol\":268:360  function viewMsg() external view returns (string memory){... */\n    tag_15:\n        /* \"LearnCalldataMemoryStorage.sol\":310:323  string memory */\n      0x60\n        /* \"LearnCalldataMemoryStorage.sol\":341:353  savedMessage */\n      0x00\n        /* \"LearnCalldataMemoryStorage.sol\":334:353  return savedMessage */\n      dup1\n      sload\n      tag_27\n      swap1\n      tag_21\n      jump\t// in\n    tag_27:\n      dup1\n      0x1f\n      add\n      0x20\n      dup1\n      swap2\n      div\n      mul\n      0x20\n      add\n      mload(0x40)\n      swap1\n      dup2\n      add\n      0x40\n      mstore\n      dup1\n      swap3\n      swap2\n      swap1\n      dup2\n      dup2\n      mstore\n      0x20\n      add\n      dup3\n      dup1\n      sload\n      tag_28\n      swap1\n      tag_21\n      jump\t// in\n    tag_28:\n      dup1\n      iszero\n      tag_29\n      jumpi\n      dup1\n      0x1f\n      lt\n      tag_30\n      jumpi\n      0x0100\n      dup1\n      dup4\n      sload\n      div\n      mul\n      dup4\n      mstore\n      swap2\n      0x20\n      add\n      swap2\n      jump(tag_29)\n    tag_30:\n      dup3\n      add\n      swap2\n      swap1\n      0x00\n      mstore\n      keccak256(0x00, 0x20)\n      swap1\n    tag_31:\n      dup2\n      sload\n      dup2\n      mstore\n      swap1\n      0x01\n      add\n      swap1\n      0x20\n      add\n      dup1\n      dup4\n      gt\n      tag_31\n      jumpi\n      dup3\n      swap1\n      sub\n      0x1f\n      and\n      dup3\n      add\n      swap2\n    tag_29:\n      pop\n      pop\n      pop\n      pop\n      pop\n      swap1\n      pop\n        /* \"LearnCalldataMemoryStorage.sol\":268:360  function viewMsg() external view returns (string memory){... */\n      swap1\n      jump\t// out\n        /* \"#utility.yul\":88:205   */\n    tag_33:\n        /* \"#utility.yul\":197:198   */\n      0x00\n        /* \"#utility.yul\":194:195   */\n      0x00\n        /* \"#utility.yul\":187:199   */\n      revert\n        /* \"#utility.yul\":211:328   */\n    tag_34:\n        /* \"#utility.yul\":320:321   */\n      0x00\n        /* \"#utility.yul\":317:318   */\n      0x00\n        /* \"#utility.yul\":310:322   */\n      revert\n        /* \"#utility.yul\":334:451   */\n    tag_35:\n        /* \"#utility.yul\":443:444   */\n      0x00\n        /* \"#utility.yul\":440:441   */\n      0x00\n        /* \"#utility.yul\":433:445   */\n      revert\n        /* \"#utility.yul\":457:574   */\n    tag_36:\n        /* \"#utility.yul\":566:567   */\n      0x00\n        /* \"#utility.yul\":563:564   */\n      0x00\n        /* \"#utility.yul\":556:568   */\n      revert\n        /* \"#utility.yul\":580:697   */\n    tag_37:\n        /* \"#utility.yul\":689:690   */\n      0x00\n        /* \"#utility.yul\":686:687   */\n      0x00\n        /* \"#utility.yul\":679:691   */\n      revert\n        /* \"#utility.yul\":717:1270   */\n    tag_38:\n        /* \"#utility.yul\":775:783   */\n      0x00\n        /* \"#utility.yul\":785:791   */\n      0x00\n        /* \"#utility.yul\":835:838   */\n      dup4\n        /* \"#utility.yul\":828:832   */\n      0x1f\n        /* \"#utility.yul\":820:826   */\n      dup5\n        /* \"#utility.yul\":816:833   */\n      add\n        /* \"#utility.yul\":812:839   */\n      slt\n        /* \"#utility.yul\":802:924   */\n      tag_70\n      jumpi\n        /* \"#utility.yul\":843:922   */\n      tag_71\n      tag_35\n      jump\t// in\n    tag_71:\n        /* \"#utility.yul\":802:924   */\n    tag_70:\n        /* \"#utility.yul\":956:962   */\n      dup3\n        /* \"#utility.yul\":943:963   */\n      calldataload\n        /* \"#utility.yul\":933:963   */\n      swap1\n      pop\n        /* \"#utility.yul\":986:1004   */\n      0xffffffffffffffff\n        /* \"#utility.yul\":978:984   */\n      dup2\n        /* \"#utility.yul\":975:1005   */\n      gt\n        /* \"#utility.yul\":972:1089   */\n      iszero\n      tag_72\n      jumpi\n        /* \"#utility.yul\":1008:1087   */\n      tag_73\n      tag_36\n      jump\t// in\n    tag_73:\n        /* \"#utility.yul\":972:1089   */\n    tag_72:\n        /* \"#utility.yul\":1122:1126   */\n      0x20\n        /* \"#utility.yul\":1114:1120   */\n      dup4\n        /* \"#utility.yul\":1110:1127   */\n      add\n        /* \"#utility.yul\":1098:1127   */\n      swap2\n      pop\n        /* \"#utility.yul\":1176:1179   */\n      dup4\n        /* \"#utility.yul\":1168:1172   */\n      0x01\n        /* \"#utility.yul\":1160:1166   */\n      dup3\n        /* \"#utility.yul\":1156:1173   */\n      mul\n        /* \"#utility.yul\":1146:1154   */\n      dup4\n        /* \"#utility.yul\":1142:1174   */\n      add\n        /* \"#utility.yul\":1139:1180   */\n      gt\n        /* \"#utility.yul\":1136:1264   */\n      iszero\n      tag_74\n      jumpi\n        /* \"#utility.yul\":1183:1262   */\n      tag_75\n      tag_37\n      jump\t// in\n    tag_75:\n        /* \"#utility.yul\":1136:1264   */\n    tag_74:\n        /* \"#utility.yul\":717:1270   */\n      swap3\n      pop\n      swap3\n      swap1\n      pop\n      jump\t// out\n        /* \"#utility.yul\":1276:1805   */\n    tag_8:\n        /* \"#utility.yul\":1347:1353   */\n      0x00\n        /* \"#utility.yul\":1355:1361   */\n      0x00\n        /* \"#utility.yul\":1404:1406   */\n      0x20\n        /* \"#utility.yul\":1392:1401   */\n      dup4\n        /* \"#utility.yul\":1383:1390   */\n      dup6\n        /* \"#utility.yul\":1379:1402   */\n      sub\n        /* \"#utility.yul\":1375:1407   */\n      slt\n        /* \"#utility.yul\":1372:1491   */\n      iszero\n      tag_77\n      jumpi\n        /* \"#utility.yul\":1410:1489   */\n      tag_78\n      tag_33\n      jump\t// in\n    tag_78:\n        /* \"#utility.yul\":1372:1491   */\n    tag_77:\n        /* \"#utility.yul\":1558:1559   */\n      0x00\n        /* \"#utility.yul\":1547:1556   */\n      dup4\n        /* \"#utility.yul\":1543:1560   */\n      add\n        /* \"#utility.yul\":1530:1561   */\n      calldataload\n        /* \"#utility.yul\":1588:1606   */\n      0xffffffffffffffff\n        /* \"#utility.yul\":1580:1586   */\n      dup2\n        /* \"#utility.yul\":1577:1607   */\n      gt\n        /* \"#utility.yul\":1574:1691   */\n      iszero\n      tag_79\n      jumpi\n        /* \"#utility.yul\":1610:1689   */\n      tag_80\n      tag_34\n      jump\t// in\n    tag_80:\n        /* \"#utility.yul\":1574:1691   */\n    tag_79:\n        /* \"#utility.yul\":1723:1788   */\n      tag_81\n        /* \"#utility.yul\":1780:1787   */\n      dup6\n        /* \"#utility.yul\":1771:1777   */\n      dup3\n        /* \"#utility.yul\":1760:1769   */\n      dup7\n        /* \"#utility.yul\":1756:1778   */\n      add\n        /* \"#utility.yul\":1723:1788   */\n      tag_38\n      jump\t// in\n    tag_81:\n        /* \"#utility.yul\":1705:1788   */\n      swap3\n      pop\n      swap3\n      pop\n        /* \"#utility.yul\":1501:1798   */\n      pop\n        /* \"#utility.yul\":1276:1805   */\n      swap3\n      pop\n      swap3\n      swap1\n      pop\n      jump\t// out\n        /* \"#utility.yul\":1811:1910   */\n    tag_39:\n        /* \"#utility.yul\":1863:1869   */\n      0x00\n        /* \"#utility.yul\":1897:1902   */\n      dup2\n        /* \"#utility.yul\":1891:1903   */\n      mload\n        /* \"#utility.yul\":1881:1903   */\n      swap1\n      pop\n        /* \"#utility.yul\":1811:1910   */\n      swap2\n      swap1\n      pop\n      jump\t// out\n        /* \"#utility.yul\":1916:2085   */\n    tag_40:\n        /* \"#utility.yul\":2000:2011   */\n      0x00\n        /* \"#utility.yul\":2034:2040   */\n      dup3\n        /* \"#utility.yul\":2029:2032   */\n      dup3\n        /* \"#utility.yul\":2022:2041   */\n      mstore\n        /* \"#utility.yul\":2074:2078   */\n      0x20\n        /* \"#utility.yul\":2069:2072   */\n      dup3\n        /* \"#utility.yul\":2065:2079   */\n      add\n        /* \"#utility.yul\":2050:2079   */\n      swap1\n      pop\n        /* \"#utility.yul\":1916:2085   */\n      swap3\n      swap2\n      pop\n      pop\n      jump\t// out\n        /* \"#utility.yul\":2091:2230   */\n    tag_41:\n        /* \"#utility.yul\":2180:2186   */\n      dup3\n        /* \"#utility.yul\":2175:2178   */\n      dup2\n        /* \"#utility.yul\":2170:2173   */\n      dup4\n        /* \"#utility.yul\":2164:2187   */\n      mcopy\n        /* \"#utility.yul\":2221:2222   */\n      0x00\n        /* \"#utility.yul\":2212:2218   */\n      dup4\n        /* \"#utility.yul\":2207:2210   */\n      dup4\n        /* \"#utility.yul\":2203:2219   */\n      add\n        /* \"#utility.yul\":2196:2223   */\n      mstore\n        /* \"#utility.yul\":2091:2230   */\n      pop\n      pop\n      pop\n      jump\t// out\n        /* \"#utility.yul\":2236:2338   */\n    tag_42:\n        /* \"#utility.yul\":2277:2283   */\n      0x00\n        /* \"#utility.yul\":2328:2330   */\n      0x1f\n        /* \"#utility.yul\":2324:2331   */\n      not\n        /* \"#utility.yul\":2319:2321   */\n      0x1f\n        /* \"#utility.yul\":2312:2317   */\n      dup4\n        /* \"#utility.yul\":2308:2322   */\n      add\n        /* \"#utility.yul\":2304:2332   */\n      and\n        /* \"#utility.yul\":2294:2332   */\n      swap1\n      pop\n        /* \"#utility.yul\":2236:2338   */\n      swap2\n      swap1\n      pop\n      jump\t// out\n        /* \"#utility.yul\":2344:2721   */\n    tag_43:\n        /* \"#utility.yul\":2432:2435   */\n      0x00\n        /* \"#utility.yul\":2460:2499   */\n      tag_87\n        /* \"#utility.yul\":2493:2498   */\n      dup3\n        /* \"#utility.yul\":2460:2499   */\n      tag_39\n      jump\t// in\n    tag_87:\n        /* \"#utility.yul\":2515:2586   */\n      tag_88\n        /* \"#utility.yul\":2579:2585   */\n      dup2\n        /* \"#utility.yul\":2574:2577   */\n      dup6\n        /* \"#utility.yul\":2515:2586   */\n      tag_40\n      jump\t// in\n    tag_88:\n        /* \"#utility.yul\":2508:2586   */\n      swap4\n      pop\n        /* \"#utility.yul\":2595:2660   */\n      tag_89\n        /* \"#utility.yul\":2653:2659   */\n      dup2\n        /* \"#utility.yul\":2648:2651   */\n      dup6\n        /* \"#utility.yul\":2641:2645   */\n      0x20\n        /* \"#utility.yul\":2634:2639   */\n      dup7\n        /* \"#utility.yul\":2630:2646   */\n      add\n        /* \"#utility.yul\":2595:2660   */\n      tag_41\n      jump\t// in\n    tag_89:\n        /* \"#utility.yul\":2685:2714   */\n      tag_90\n        /* \"#utility.yul\":2707:2713   */\n      dup2\n        /* \"#utility.yul\":2685:2714   */\n      tag_42\n      jump\t// in\n    tag_90:\n        /* \"#utility.yul\":2680:2683   */\n      dup5\n        /* \"#utility.yul\":2676:2715   */\n      add\n        /* \"#utility.yul\":2669:2715   */\n      swap2\n      pop\n        /* \"#utility.yul\":2436:2721   */\n      pop\n        /* \"#utility.yul\":2344:2721   */\n      swap3\n      swap2\n      pop\n      pop\n      jump\t// out\n        /* \"#utility.yul\":2727:3040   */\n    tag_13:\n        /* \"#utility.yul\":2840:2844   */\n      0x00\n        /* \"#utility.yul\":2878:2880   */\n      0x20\n        /* \"#utility.yul\":2867:2876   */\n      dup3\n        /* \"#utility.yul\":2863:2881   */\n      add\n        /* \"#utility.yul\":2855:2881   */\n      swap1\n      pop\n        /* \"#utility.yul\":2927:2936   */\n      dup2\n        /* \"#utility.yul\":2921:2925   */\n      dup2\n        /* \"#utility.yul\":2917:2937   */\n      sub\n        /* \"#utility.yul\":2913:2914   */\n      0x00\n        /* \"#utility.yul\":2902:2911   */\n      dup4\n        /* \"#utility.yul\":2898:2915   */\n      add\n        /* \"#utility.yul\":2891:2938   */\n      mstore\n        /* \"#utility.yul\":2955:3033   */\n      tag_92\n        /* \"#utility.yul\":3028:3032   */\n      dup2\n        /* \"#utility.yul\":3019:3025   */\n      dup5\n        /* \"#utility.yul\":2955:3033   */\n      tag_43\n      jump\t// in\n    tag_92:\n        /* \"#utility.yul\":2947:3033   */\n      swap1\n      pop\n        /* \"#utility.yul\":2727:3040   */\n      swap3\n      swap2\n      pop\n      pop\n      jump\t// out\n        /* \"#utility.yul\":3046:3226   */\n    tag_44:\n        /* \"#utility.yul\":3094:3171   */\n      0x4e487b7100000000000000000000000000000000000000000000000000000000\n        /* \"#utility.yul\":3091:3092   */\n      0x00\n        /* \"#utility.yul\":3084:3172   */\n      mstore\n        /* \"#utility.yul\":3191:3195   */\n      0x41\n        /* \"#utility.yul\":3188:3189   */\n      0x04\n        /* \"#utility.yul\":3181:3196   */\n      mstore\n        /* \"#utility.yul\":3215:3219   */\n      0x24\n        /* \"#utility.yul\":3212:3213   */\n      0x00\n        /* \"#utility.yul\":3205:3220   */\n      revert\n        /* \"#utility.yul\":3232:3412   */\n    tag_45:\n        /* \"#utility.yul\":3280:3357   */\n      0x4e487b7100000000000000000000000000000000000000000000000000000000\n        /* \"#utility.yul\":3277:3278   */\n      0x00\n        /* \"#utility.yul\":3270:3358   */\n      mstore\n        /* \"#utility.yul\":3377:3381   */\n      0x22\n        /* \"#utility.yul\":3374:3375   */\n      0x04\n        /* \"#utility.yul\":3367:3382   */\n      mstore\n        /* \"#utility.yul\":3401:3405   */\n      0x24\n        /* \"#utility.yul\":3398:3399   */\n      0x00\n        /* \"#utility.yul\":3391:3406   */\n      revert\n        /* \"#utility.yul\":3418:3738   */\n    tag_21:\n        /* \"#utility.yul\":3462:3468   */\n      0x00\n        /* \"#utility.yul\":3499:3500   */\n      0x02\n        /* \"#utility.yul\":3493:3497   */\n      dup3\n        /* \"#utility.yul\":3489:3501   */\n      div\n        /* \"#utility.yul\":3479:3501   */\n      swap1\n      pop\n        /* \"#utility.yul\":3546:3547   */\n      0x01\n        /* \"#utility.yul\":3540:3544   */\n      dup3\n        /* \"#utility.yul\":3536:3548   */\n      and\n        /* \"#utility.yul\":3567:3585   */\n      dup1\n        /* \"#utility.yul\":3557:3638   */\n      tag_96\n      jumpi\n        /* \"#utility.yul\":3623:3627   */\n      0x7f\n        /* \"#utility.yul\":3615:3621   */\n      dup3\n        /* \"#utility.yul\":3611:3628   */\n      and\n        /* \"#utility.yul\":3601:3628   */\n      swap2\n      pop\n        /* \"#utility.yul\":3557:3638   */\n    tag_96:\n        /* \"#utility.yul\":3685:3687   */\n      0x20\n        /* \"#utility.yul\":3677:3683   */\n      dup3\n        /* \"#utility.yul\":3674:3688   */\n      lt\n        /* \"#utility.yul\":3654:3672   */\n      dup2\n        /* \"#utility.yul\":3651:3689   */\n      sub\n        /* \"#utility.yul\":3648:3732   */\n      tag_97\n      jumpi\n        /* \"#utility.yul\":3704:3722   */\n      tag_98\n      tag_45\n      jump\t// in\n    tag_98:\n        /* \"#utility.yul\":3648:3732   */\n    tag_97:\n        /* \"#utility.yul\":3469:3738   */\n      pop\n        /* \"#utility.yul\":3418:3738   */\n      swap2\n      swap1\n      pop\n      jump\t// out\n        /* \"#utility.yul\":3744:3885   */\n    tag_46:\n        /* \"#utility.yul\":3793:3797   */\n      0x00\n        /* \"#utility.yul\":3816:3819   */\n      dup2\n        /* \"#utility.yul\":3808:3819   */\n      swap1\n      pop\n        /* \"#utility.yul\":3839:3842   */\n      dup2\n        /* \"#utility.yul\":3836:3837   */\n      0x00\n        /* \"#utility.yul\":3829:3843   */\n      mstore\n        /* \"#utility.yul\":3873:3877   */\n      0x20\n        /* \"#utility.yul\":3870:3871   */\n      0x00\n        /* \"#utility.yul\":3860:3878   */\n      keccak256\n        /* \"#utility.yul\":3852:3878   */\n      swap1\n      pop\n        /* \"#utility.yul\":3744:3885   */\n      swap2\n      swap1\n      pop\n      jump\t// out\n        /* \"#utility.yul\":3891:3984   */\n    tag_47:\n        /* \"#utility.yul\":3928:3934   */\n      0x00\n        /* \"#utility.yul\":3975:3977   */\n      0x20\n        /* \"#utility.yul\":3970:3972   */\n      0x1f\n        /* \"#utility.yul\":3963:3968   */\n      dup4\n        /* \"#utility.yul\":3959:3973   */\n      add\n        /* \"#utility.yul\":3955:3978   */\n      div\n        /* \"#utility.yul\":3945:3978   */\n      swap1\n      pop\n        /* \"#utility.yul\":3891:3984   */\n      swap2\n      swap1\n      pop\n      jump\t// out\n        /* \"#utility.yul\":3990:4097   */\n    tag_48:\n        /* \"#utility.yul\":4034:4042   */\n      0x00\n        /* \"#utility.yul\":4084:4089   */\n      dup3\n        /* \"#utility.yul\":4078:4082   */\n      dup3\n        /* \"#utility.yul\":4074:4090   */\n      shl\n        /* \"#utility.yul\":4053:4090   */\n      swap1\n      pop\n        /* \"#utility.yul\":3990:4097   */\n      swap3\n      swap2\n      pop\n      pop\n      jump\t// out\n        /* \"#utility.yul\":4103:4496   */\n    tag_49:\n        /* \"#utility.yul\":4172:4178   */\n      0x00\n        /* \"#utility.yul\":4222:4223   */\n      0x08\n        /* \"#utility.yul\":4210:4220   */\n      dup4\n        /* \"#utility.yul\":4206:4224   */\n      mul\n        /* \"#utility.yul\":4245:4342   */\n      tag_103\n        /* \"#utility.yul\":4275:4341   */\n      0xffffffffffffffffffffffffffffffffffffffffffffffffffffffffffffffff\n        /* \"#utility.yul\":4264:4273   */\n      dup3\n        /* \"#utility.yul\":4245:4342   */\n      tag_48\n      jump\t// in\n    tag_103:\n        /* \"#utility.yul\":4363:4402   */\n      tag_104\n        /* \"#utility.yul\":4393:4401   */\n      dup7\n        /* \"#utility.yul\":4382:4391   */\n      dup4\n        /* \"#utility.yul\":4363:4402   */\n      tag_48\n      jump\t// in\n    tag_104:\n        /* \"#utility.yul\":4351:4402   */\n      swap6\n      pop\n        /* \"#utility.yul\":4435:4439   */\n      dup1\n        /* \"#utility.yul\":4431:4440   */\n      not\n        /* \"#utility.yul\":4424:4429   */\n      dup5\n        /* \"#utility.yul\":4420:4441   */\n      and\n        /* \"#utility.yul\":4411:4441   */\n      swap4\n      pop\n        /* \"#utility.yul\":4484:4488   */\n      dup1\n        /* \"#utility.yul\":4474:4482   */\n      dup7\n        /* \"#utility.yul\":4470:4489   */\n      and\n        /* \"#utility.yul\":4463:4468   */\n      dup5\n        /* \"#utility.yul\":4460:4490   */\n      or\n        /* \"#utility.yul\":4450:4490   */\n      swap3\n      pop\n        /* \"#utility.yul\":4179:4496   */\n      pop\n      pop\n        /* \"#utility.yul\":4103:4496   */\n      swap4\n      swap3\n      pop\n      pop\n      pop\n      jump\t// out\n        /* \"#utility.yul\":4502:4579   */\n    tag_50:\n        /* \"#utility.yul\":4539:4546   */\n      0x00\n        /* \"#utility.yul\":4568:4573   */\n      dup2\n        /* \"#utility.yul\":4557:4573   */\n      swap1\n      pop\n        /* \"#utility.yul\":4502:4579   */\n      swap2\n      swap1\n      pop\n      jump\t// out\n        /* \"#utility.yul\":4585:4645   */\n    tag_51:\n        /* \"#utility.yul\":4613:4616   */\n      0x00\n        /* \"#utility.yul\":4634:4639   */\n      dup2\n        /* \"#utility.yul\":4627:4639   */\n      swap1\n      pop\n        /* \"#utility.yul\":4585:4645   */\n      swap2\n      swap1\n      pop\n      jump\t// out\n        /* \"#utility.yul\":4651:4793   */\n    tag_52:\n        /* \"#utility.yul\":4701:4710   */\n      0x00\n        /* \"#utility.yul\":4734:4787   */\n      tag_108\n        /* \"#utility.yul\":4752:4786   */\n      tag_109\n        /* \"#utility.yul\":4761:4785   */\n      tag_110\n        /* \"#utility.yul\":4779:4784   */\n      dup5\n        /* \"#utility.yul\":4761:4785   */\n      tag_50\n      jump\t// in\n    tag_110:\n        /* \"#utility.yul\":4752:4786   */\n      tag_51\n      jump\t// in\n    tag_109:\n        /* \"#utility.yul\":4734:4787   */\n      tag_50\n      jump\t// in\n    tag_108:\n        /* \"#utility.yul\":4721:4787   */\n      swap1\n      pop\n        /* \"#utility.yul\":4651:4793   */\n      swap2\n      swap1\n      pop\n      jump\t// out\n        /* \"#utility.yul\":4799:4874   */\n    tag_53:\n        /* \"#utility.yul\":4842:4845   */\n      0x00\n        /* \"#utility.yul\":4863:4868   */\n      dup2\n        /* \"#utility.yul\":4856:4868   */\n      swap1\n      pop\n        /* \"#utility.yul\":4799:4874   */\n      swap2\n      swap1\n      pop\n      jump\t// out\n        /* \"#utility.yul\":4880:5149   */\n    tag_54:\n        /* \"#utility.yul\":4990:5029   */\n      tag_113\n        /* \"#utility.yul\":5021:5028   */\n      dup4\n        /* \"#utility.yul\":4990:5029   */\n      tag_52\n      jump\t// in\n    tag_113:\n        /* \"#utility.yul\":5051:5142   */\n      tag_114\n        /* \"#utility.yul\":5100:5141   */\n      tag_115\n        /* \"#utility.yul\":5124:5140   */\n      dup3\n        /* \"#utility.yul\":5100:5141   */\n      tag_53\n      jump\t// in\n    tag_115:\n        /* \"#utility.yul\":5092:5098   */\n      dup5\n        /* \"#utility.yul\":5085:5089   */\n      dup5\n        /* \"#utility.yul\":5079:5090   */\n      sload\n        /* \"#utility.yul\":5051:5142   */\n      tag_49\n      jump\t// in\n    tag_114:\n        /* \"#utility.yul\":5045:5049   */\n      dup3\n        /* \"#utility.yul\":5038:5143   */\n      sstore\n        /* \"#utility.yul\":4956:5149   */\n      pop\n        /* \"#utility.yul\":4880:5149   */\n      pop\n      pop\n      pop\n      jump\t// out\n        /* \"#utility.yul\":5155:5228   */\n    tag_55:\n        /* \"#utility.yul\":5200:5203   */\n      0x00\n        /* \"#utility.yul\":5221:5222   */\n      0x00\n        /* \"#utility.yul\":5214:5222   */\n      swap1\n      pop\n        /* \"#utility.yul\":5155:5228   */\n      swap1\n      jump\t// out\n        /* \"#utility.yul\":5234:5423   */\n    tag_56:\n        /* \"#utility.yul\":5311:5343   */\n      tag_118\n      tag_55\n      jump\t// in\n    tag_118:\n        /* \"#utility.yul\":5352:5417   */\n      tag_119\n        /* \"#utility.yul\":5410:5416   */\n      dup2\n        /* \"#utility.yul\":5402:5408   */\n      dup5\n        /* \"#utility.yul\":5396:5400   */\n      dup5\n        /* \"#utility.yul\":5352:5417   */\n      tag_54\n      jump\t// in\n    tag_119:\n        /* \"#utility.yul\":5287:5423   */\n      pop\n        /* \"#utility.yul\":5234:5423   */\n      pop\n      pop\n      jump\t// out\n        /* \"#utility.yul\":5429:5615   */\n    tag_57:\n        /* \"#utility.yul\":5489:5609   */\n    tag_121:\n        /* \"#utility.yul\":5506:5509   */\n      dup2\n        /* \"#utility.yul\":5499:5504   */\n      dup2\n        /* \"#utility.yul\":5496:5510   */\n      lt\n        /* \"#utility.yul\":5489:5609   */\n      iszero\n      tag_123\n      jumpi\n        /* \"#utility.yul\":5560:5599   */\n      tag_124\n        /* \"#utility.yul\":5597:5598   */\n      0x00\n        /* \"#utility.yul\":5590:5595   */\n      dup3\n        /* \"#utility.yul\":5560:5599   */\n      tag_56\n      jump\t// in\n    tag_124:\n        /* \"#utility.yul\":5533:5534   */\n      0x01\n        /* \"#utility.yul\":5526:5531   */\n      dup2\n        /* \"#utility.yul\":5522:5535   */\n      add\n        /* \"#utility.yul\":5513:5535   */\n      swap1\n      pop\n        /* \"#utility.yul\":5489:5609   */\n      jump(tag_121)\n    tag_123:\n        /* \"#utility.yul\":5429:5615   */\n      pop\n      pop\n      jump\t// out\n        /* \"#utility.yul\":5621:6164   */\n    tag_58:\n        /* \"#utility.yul\":5722:5724   */\n      0x1f\n        /* \"#utility.yul\":5717:5720   */\n      dup3\n        /* \"#utility.yul\":5714:5725   */\n      gt\n        /* \"#utility.yul\":5711:6157   */\n      iszero\n      tag_126\n      jumpi\n        /* \"#utility.yul\":5756:5794   */\n      tag_127\n        /* \"#utility.yul\":5788:5793   */\n      dup2\n        /* \"#utility.yul\":5756:5794   */\n      tag_46\n      jump\t// in\n    tag_127:\n        /* \"#utility.yul\":5840:5869   */\n      tag_128\n        /* \"#utility.yul\":5858:5868   */\n      dup5\n        /* \"#utility.yul\":5840:5869   */\n      tag_47\n      jump\t// in\n    tag_128:\n        /* \"#utility.yul\":5830:5838   */\n      dup2\n        /* \"#utility.yul\":5826:5870   */\n      add\n        /* \"#utility.yul\":6023:6025   */\n      0x20\n        /* \"#utility.yul\":6011:6021   */\n      dup6\n        /* \"#utility.yul\":6008:6026   */\n      lt\n        /* \"#utility.yul\":6005:6054   */\n      iszero\n      tag_129\n      jumpi\n        /* \"#utility.yul\":6044:6052   */\n      dup2\n        /* \"#utility.yul\":6029:6052   */\n      swap1\n      pop\n        /* \"#utility.yul\":6005:6054   */\n    tag_129:\n        /* \"#utility.yul\":6067:6147   */\n      tag_130\n        /* \"#utility.yul\":6123:6145   */\n      tag_131\n        /* \"#utility.yul\":6141:6144   */\n      dup6\n        /* \"#utility.yul\":6123:6145   */\n      tag_47\n      jump\t// in\n    tag_131:\n        /* \"#utility.yul\":6113:6121   */\n      dup4\n        /* \"#utility.yul\":6109:6146   */\n      add\n        /* \"#utility.yul\":6096:6107   */\n      dup3\n        /* \"#utility.yul\":6067:6147   */\n      tag_57\n      jump\t// in\n    tag_130:\n        /* \"#utility.yul\":5726:6157   */\n      pop\n      pop\n        /* \"#utility.yul\":5711:6157   */\n    tag_126:\n        /* \"#utility.yul\":5621:6164   */\n      pop\n      pop\n      pop\n      jump\t// out\n        /* \"#utility.yul\":6170:6287   */\n    tag_59:\n        /* \"#utility.yul\":6224:6232   */\n      0x00\n        /* \"#utility.yul\":6274:6279   */\n      dup3\n        /* \"#utility.yul\":6268:6272   */\n      dup3\n        /* \"#utility.yul\":6264:6280   */\n      shr\n        /* \"#utility.yul\":6243:6280   */\n      swap1\n      pop\n        /* \"#utility.yul\":6170:6287   */\n      swap3\n      swap2\n      pop\n      pop\n      jump\t// out\n        /* \"#utility.yul\":6293:6462   */\n    tag_60:\n        /* \"#utility.yul\":6337:6343   */\n      0x00\n        /* \"#utility.yul\":6370:6421   */\n      tag_134\n        /* \"#utility.yul\":6418:6419   */\n      0x00\n        /* \"#utility.yul\":6414:6420   */\n      not\n        /* \"#utility.yul\":6406:6411   */\n      dup5\n        /* \"#utility.yul\":6403:6404   */\n      0x08\n        /* \"#utility.yul\":6399:6412   */\n      mul\n        /* \"#utility.yul\":6370:6421   */\n      tag_59\n      jump\t// in\n    tag_134:\n        /* \"#utility.yul\":6366:6422   */\n      not\n        /* \"#utility.yul\":6451:6455   */\n      dup1\n        /* \"#utility.yul\":6445:6449   */\n      dup4\n        /* \"#utility.yul\":6441:6456   */\n      and\n        /* \"#utility.yul\":6431:6456   */\n      swap2\n      pop\n        /* \"#utility.yul\":6344:6462   */\n      pop\n        /* \"#utility.yul\":6293:6462   */\n      swap3\n      swap2\n      pop\n      pop\n      jump\t// out\n        /* \"#utility.yul\":6467:6762   */\n    tag_61:\n        /* \"#utility.yul\":6543:6547   */\n      0x00\n        /* \"#utility.yul\":6689:6718   */\n      tag_136\n        /* \"#utility.yul\":6714:6717   */\n      dup4\n        /* \"#utility.yul\":6708:6712   */\n      dup4\n        /* \"#utility.yul\":6689:6718   */\n      tag_60\n      jump\t// in\n    tag_136:\n        /* \"#utility.yul\":6681:6718   */\n      swap2\n      pop\n        /* \"#utility.yul\":6751:6754   */\n      dup3\n        /* \"#utility.yul\":6748:6749   */\n      0x02\n        /* \"#utility.yul\":6744:6755   */\n      mul\n        /* \"#utility.yul\":6738:6742   */\n      dup3\n        /* \"#utility.yul\":6735:6756   */\n      or\n        /* \"#utility.yul\":6727:6756   */\n      swap1\n      pop\n        /* \"#utility.yul\":6467:6762   */\n      swap3\n      swap2\n      pop\n      pop\n      jump\t// out\n        /* \"#utility.yul\":6767:8162   */\n    tag_19:\n        /* \"#utility.yul\":6884:6921   */\n      tag_138\n        /* \"#utility.yul\":6917:6920   */\n      dup3\n        /* \"#utility.yul\":6884:6921   */\n      tag_39\n      jump\t// in\n    tag_138:\n        /* \"#utility.yul\":6986:7004   */\n      0xffffffffffffffff\n        /* \"#utility.yul\":6978:6984   */\n      dup2\n        /* \"#utility.yul\":6975:7005   */\n      gt\n        /* \"#utility.yul\":6972:7028   */\n      iszero\n      tag_139\n      jumpi\n        /* \"#utility.yul\":7008:7026   */\n      tag_140\n      tag_44\n      jump\t// in\n    tag_140:\n        /* \"#utility.yul\":6972:7028   */\n    tag_139:\n        /* \"#utility.yul\":7052:7090   */\n      tag_141\n        /* \"#utility.yul\":7084:7088   */\n      dup3\n        /* \"#utility.yul\":7078:7089   */\n      sload\n        /* \"#utility.yul\":7052:7090   */\n      tag_21\n      jump\t// in\n    tag_141:\n        /* \"#utility.yul\":7137:7204   */\n      tag_142\n        /* \"#utility.yul\":7197:7203   */\n      dup3\n        /* \"#utility.yul\":7189:7195   */\n      dup3\n        /* \"#utility.yul\":7183:7187   */\n      dup6\n        /* \"#utility.yul\":7137:7204   */\n      tag_58\n      jump\t// in\n    tag_142:\n        /* \"#utility.yul\":7231:7232   */\n      0x00\n        /* \"#utility.yul\":7255:7259   */\n      0x20\n        /* \"#utility.yul\":7242:7259   */\n      swap1\n      pop\n        /* \"#utility.yul\":7287:7289   */\n      0x1f\n        /* \"#utility.yul\":7279:7285   */\n      dup4\n        /* \"#utility.yul\":7276:7290   */\n      gt\n        /* \"#utility.yul\":7304:7305   */\n      0x01\n        /* \"#utility.yul\":7299:7917   */\n      dup2\n      eq\n      tag_144\n      jumpi\n        /* \"#utility.yul\":7961:7962   */\n      0x00\n        /* \"#utility.yul\":7978:7984   */\n      dup5\n        /* \"#utility.yul\":7975:8052   */\n      iszero\n      tag_145\n      jumpi\n        /* \"#utility.yul\":8027:8036   */\n      dup3\n        /* \"#utility.yul\":8022:8025   */\n      dup8\n        /* \"#utility.yul\":8018:8037   */\n      add\n        /* \"#utility.yul\":8012:8038   */\n      mload\n        /* \"#utility.yul\":8003:8038   */\n      swap1\n      pop\n        /* \"#utility.yul\":7975:8052   */\n    tag_145:\n        /* \"#utility.yul\":8078:8145   */\n      tag_146\n        /* \"#utility.yul\":8138:8144   */\n      dup6\n        /* \"#utility.yul\":8131:8136   */\n      dup3\n        /* \"#utility.yul\":8078:8145   */\n      tag_61\n      jump\t// in\n    tag_146:\n        /* \"#utility.yul\":8072:8076   */\n      dup7\n        /* \"#utility.yul\":8065:8146   */\n      sstore\n        /* \"#utility.yul\":7934:8156   */\n      pop\n        /* \"#utility.yul\":7269:8156   */\n      jump(tag_143)\n        /* \"#utility.yul\":7299:7917   */\n    tag_144:\n        /* \"#utility.yul\":7351:7355   */\n      0x1f\n        /* \"#utility.yul\":7347:7356   */\n      not\n        /* \"#utility.yul\":7339:7345   */\n      dup5\n        /* \"#utility.yul\":7335:7357   */\n      and\n        /* \"#utility.yul\":7385:7422   */\n      tag_147\n        /* \"#utility.yul\":7417:7421   */\n      dup7\n        /* \"#utility.yul\":7385:7422   */\n      tag_46\n      jump\t// in\n    tag_147:\n        /* \"#utility.yul\":7444:7445   */\n      0x00\n        /* \"#utility.yul\":7458:7666   */\n    tag_148:\n        /* \"#utility.yul\":7472:7479   */\n      dup3\n        /* \"#utility.yul\":7469:7470   */\n      dup2\n        /* \"#utility.yul\":7466:7480   */\n      lt\n        /* \"#utility.yul\":7458:7666   */\n      iszero\n      tag_150\n      jumpi\n        /* \"#utility.yul\":7551:7560   */\n      dup5\n        /* \"#utility.yul\":7546:7549   */\n      dup10\n        /* \"#utility.yul\":7542:7561   */\n      add\n        /* \"#utility.yul\":7536:7562   */\n      mload\n        /* \"#utility.yul\":7528:7534   */\n      dup3\n        /* \"#utility.yul\":7521:7563   */\n      sstore\n        /* \"#utility.yul\":7602:7603   */\n      0x01\n        /* \"#utility.yul\":7594:7600   */\n      dup3\n        /* \"#utility.yul\":7590:7604   */\n      add\n        /* \"#utility.yul\":7580:7604   */\n      swap2\n      pop\n        /* \"#utility.yul\":7649:7651   */\n      0x20\n        /* \"#utility.yul\":7638:7647   */\n      dup6\n        /* \"#utility.yul\":7634:7652   */\n      add\n        /* \"#utility.yul\":7621:7652   */\n      swap5\n      pop\n        /* \"#utility.yul\":7495:7499   */\n      0x20\n        /* \"#utility.yul\":7492:7493   */\n      dup2\n        /* \"#utility.yul\":7488:7500   */\n      add\n        /* \"#utility.yul\":7483:7500   */\n      swap1\n      pop\n        /* \"#utility.yul\":7458:7666   */\n      jump(tag_148)\n    tag_150:\n        /* \"#utility.yul\":7694:7700   */\n      dup7\n        /* \"#utility.yul\":7685:7692   */\n      dup4\n        /* \"#utility.yul\":7682:7701   */\n      lt\n        /* \"#utility.yul\":7679:7858   */\n      iszero\n      tag_151\n      jumpi\n        /* \"#utility.yul\":7752:7761   */\n      dup5\n        /* \"#utility.yul\":7747:7750   */\n      dup10\n        /* \"#utility.yul\":7743:7762   */\n      add\n        /* \"#utility.yul\":7737:7763   */\n      mload\n        /* \"#utility.yul\":7795:7843   */\n      tag_152\n        /* \"#utility.yul\":7837:7841   */\n      0x1f\n        /* \"#utility.yul\":7829:7835   */\n      dup10\n        /* \"#utility.yul\":7825:7842   */\n      and\n        /* \"#utility.yul\":7814:7823   */\n      dup3\n        /* \"#utility.yul\":7795:7843   */\n      tag_60\n      jump\t// in\n    tag_152:\n        /* \"#utility.yul\":7787:7793   */\n      dup4\n        /* \"#utility.yul\":7780:7844   */\n      sstore\n        /* \"#utility.yul\":7702:7858   */\n      pop\n        /* \"#utility.yul\":7679:7858   */\n    tag_151:\n        /* \"#utility.yul\":7904:7905   */\n      0x01\n        /* \"#utility.yul\":7900:7901   */\n      0x02\n        /* \"#utility.yul\":7892:7898   */\n      dup9\n        /* \"#utility.yul\":7888:7902   */\n      mul\n        /* \"#utility.yul\":7884:7906   */\n      add\n        /* \"#utility.yul\":7878:7882   */\n      dup9\n        /* \"#utility.yul\":7871:7907   */\n      sstore\n        /* \"#utility.yul\":7306:7917   */\n      pop\n      pop\n      pop\n        /* \"#utility.yul\":7269:8156   */\n    tag_143:\n      pop\n        /* \"#utility.yul\":6859:8162   */\n      pop\n      pop\n      pop\n        /* \"#utility.yul\":6767:8162   */\n      pop\n      pop\n      jump\t// out\n\n    auxdata: 0xa2646970667358221220adea930aed2cbfc41fc8f89719dc7e66763c9881a7590c834be829559853ab1064736f6c634300081e0033\n}\n",
				"bytecode": {
					"linkReferences": {},
					"object": "6080604052348015600e575f5ffd5b5061068c8061001c5f395ff3fe608060405234801561000f575f5ffd5b506004361061003f575f3560e01c8063b6e7385e14610043578063d53335b01461005f578063dcdbfac51461007d575b5f5ffd5b61005d60048036038101906100589190610279565b61009b565b005b6100676100f6565b6040516100749190610334565b60405180910390f35b610085610181565b6040516100929190610334565b60405180910390f35b5f82828080601f0160208091040260200160405190810160405280939291908181526020018383808284375f81840152601f19601f820116905080830192505050505050509050805f90816100f09190610587565b50505050565b5f8054610102906103ae565b80601f016020809104026020016040519081016040528092919081815260200182805461012e906103ae565b80156101795780601f1061015057610100808354040283529160200191610179565b820191905f5260205f20905b81548152906001019060200180831161015c57829003601f168201915b505050505081565b60605f805461018f906103ae565b80601f01602080910402602001604051908101604052809291908181526020018280546101bb906103ae565b80156102065780601f106101dd57610100808354040283529160200191610206565b820191905f5260205f20905b8154815290600101906020018083116101e957829003601f168201915b5050505050905090565b5f5ffd5b5f5ffd5b5f5ffd5b5f5ffd5b5f5ffd5b5f5f83601f84011261023957610238610218565b5b8235905067ffffffffffffffff8111156102565761025561021c565b5b60208301915083600182028301111561027257610271610220565b5b9250929050565b5f5f6020838503121561028f5761028e610210565b5b5f83013567ffffffffffffffff8111156102ac576102ab610214565b5b6102b885828601610224565b92509250509250929050565b5f81519050919050565b5f82825260208201905092915050565b8281835e5f83830152505050565b5f601f19601f8301169050919050565b5f610306826102c4565b61031081856102ce565b93506103208185602086016102de565b610329816102ec565b840191505092915050565b5f6020820190508181035f83015261034c81846102fc565b905092915050565b7f4e487b71000000000000000000000000000000000000000000000000000000005f52604160045260245ffd5b7f4e487b71000000000000000000000000000000000000000000000000000000005f52602260045260245ffd5b5f60028204905060018216806103c557607f821691505b6020821081036103d8576103d7610381565b5b50919050565b5f819050815f5260205f209050919050565b5f6020601f8301049050919050565b5f82821b905092915050565b5f6008830261043a7fffffffffffffffffffffffffffffffffffffffffffffffffffffffffffffffff826103ff565b61044486836103ff565b95508019841693508086168417925050509392505050565b5f819050919050565b5f819050919050565b5f61048861048361047e8461045c565b610465565b61045c565b9050919050565b5f819050919050565b6104a18361046e565b6104b56104ad8261048f565b84845461040b565b825550505050565b5f5f905090565b6104cc6104bd565b6104d7818484610498565b505050565b5b818110156104fa576104ef5f826104c4565b6001810190506104dd565b5050565b601f82111561053f57610510816103de565b610519846103f0565b81016020851015610528578190505b61053c610534856103f0565b8301826104dc565b50505b505050565b5f82821c905092915050565b5f61055f5f1984600802610544565b1980831691505092915050565b5f6105778383610550565b9150826002028217905092915050565b610590826102c4565b67ffffffffffffffff8111156105a9576105a8610354565b5b6105b382546103ae565b6105be8282856104fe565b5f60209050601f8311600181146105ef575f84156105dd578287015190505b6105e7858261056c565b86555061064e565b601f1984166105fd866103de565b5f5b82811015610624578489015182556001820191506020850194506020810190506105ff565b86831015610641578489015161063d601f891682610550565b8355505b6001600288020188555050505b50505050505056fea2646970667358221220adea930aed2cbfc41fc8f89719dc7e66763c9881a7590c834be829559853ab1064736f6c634300081e0033",
					"opcodes": "PUSH1 0x80 PUSH1 0x40 MSTORE CALLVALUE DUP1 ISZERO PUSH1 0xE JUMPI PUSH0 PUSH0 REVERT JUMPDEST POP PUSH2 0x68C DUP1 PUSH2 0x1C PUSH0 CODECOPY PUSH0 RETURN INVALID PUSH1 0x80 PUSH1 0x40 MSTORE CALLVALUE DUP1 ISZERO PUSH2 0xF JUMPI PUSH0 PUSH0 REVERT JUMPDEST POP PUSH1 0x4 CALLDATASIZE LT PUSH2 0x3F JUMPI PUSH0 CALLDATALOAD PUSH1 0xE0 SHR DUP1 PUSH4 0xB6E7385E EQ PUSH2 0x43 JUMPI DUP1 PUSH4 0xD53335B0 EQ PUSH2 0x5F JUMPI DUP1 PUSH4 0xDCDBFAC5 EQ PUSH2 0x7D JUMPI JUMPDEST PUSH0 PUSH0 REVERT JUMPDEST PUSH2 0x5D PUSH1 0x4 DUP1 CALLDATASIZE SUB DUP2 ADD SWAP1 PUSH2 0x58 SWAP2 SWAP1 PUSH2 0x279 JUMP JUMPDEST PUSH2 0x9B JUMP JUMPDEST STOP JUMPDEST PUSH2 0x67 PUSH2 0xF6 JUMP JUMPDEST PUSH1 0x40 MLOAD PUSH2 0x74 SWAP2 SWAP1 PUSH2 0x334 JUMP JUMPDEST PUSH1 0x40 MLOAD DUP1 SWAP2 SUB SWAP1 RETURN JUMPDEST PUSH2 0x85 PUSH2 0x181 JUMP JUMPDEST PUSH1 0x40 MLOAD PUSH2 0x92 SWAP2 SWAP1 PUSH2 0x334 JUMP JUMPDEST PUSH1 0x40 MLOAD DUP1 SWAP2 SUB SWAP1 RETURN JUMPDEST PUSH0 DUP3 DUP3 DUP1 DUP1 PUSH1 0x1F ADD PUSH1 0x20 DUP1 SWAP2 DIV MUL PUSH1 0x20 ADD PUSH1 0x40 MLOAD SWAP1 DUP2 ADD PUSH1 0x40 MSTORE DUP1 SWAP4 SWAP3 SWAP2 SWAP1 DUP2 DUP2 MSTORE PUSH1 0x20 ADD DUP4 DUP4 DUP1 DUP3 DUP5 CALLDATACOPY PUSH0 DUP2 DUP5 ADD MSTORE PUSH1 0x1F NOT PUSH1 0x1F DUP3 ADD AND SWAP1 POP DUP1 DUP4 ADD SWAP3 POP POP POP POP POP POP POP SWAP1 POP DUP1 PUSH0 SWAP1 DUP2 PUSH2 0xF0 SWAP2 SWAP1 PUSH2 0x587 JUMP JUMPDEST POP POP POP POP JUMP JUMPDEST PUSH0 DUP1 SLOAD PUSH2 0x102 SWAP1 PUSH2 0x3AE JUMP JUMPDEST DUP1 PUSH1 0x1F ADD PUSH1 0x20 DUP1 SWAP2 DIV MUL PUSH1 0x20 ADD PUSH1 0x40 MLOAD SWAP1 DUP2 ADD PUSH1 0x40 MSTORE DUP1 SWAP3 SWAP2 SWAP1 DUP2 DUP2 MSTORE PUSH1 0x20 ADD DUP3 DUP1 SLOAD PUSH2 0x12E SWAP1 PUSH2 0x3AE JUMP JUMPDEST DUP1 ISZERO PUSH2 0x179 JUMPI DUP1 PUSH1 0x1F LT PUSH2 0x150 JUMPI PUSH2 0x100 DUP1 DUP4 SLOAD DIV MUL DUP4 MSTORE SWAP2 PUSH1 0x20 ADD SWAP2 PUSH2 0x179 JUMP JUMPDEST DUP3 ADD SWAP2 SWAP1 PUSH0 MSTORE PUSH1 0x20 PUSH0 KECCAK256 SWAP1 JUMPDEST DUP2 SLOAD DUP2 MSTORE SWAP1 PUSH1 0x1 ADD SWAP1 PUSH1 0x20 ADD DUP1 DUP4 GT PUSH2 0x15C JUMPI DUP3 SWAP1 SUB PUSH1 0x1F AND DUP3 ADD SWAP2 JUMPDEST POP POP POP POP POP DUP2 JUMP JUMPDEST PUSH1 0x60 PUSH0 DUP1 SLOAD PUSH2 0x18F SWAP1 PUSH2 0x3AE JUMP JUMPDEST DUP1 PUSH1 0x1F ADD PUSH1 0x20 DUP1 SWAP2 DIV MUL PUSH1 0x20 ADD PUSH1 0x40 MLOAD SWAP1 DUP2 ADD PUSH1 0x40 MSTORE DUP1 SWAP3 SWAP2 SWAP1 DUP2 DUP2 MSTORE PUSH1 0x20 ADD DUP3 DUP1 SLOAD PUSH2 0x1BB SWAP1 PUSH2 0x3AE JUMP JUMPDEST DUP1 ISZERO PUSH2 0x206 JUMPI DUP1 PUSH1 0x1F LT PUSH2 0x1DD JUMPI PUSH2 0x100 DUP1 DUP4 SLOAD DIV MUL DUP4 MSTORE SWAP2 PUSH1 0x20 ADD SWAP2 PUSH2 0x206 JUMP JUMPDEST DUP3 ADD SWAP2 SWAP1 PUSH0 MSTORE PUSH1 0x20 PUSH0 KECCAK256 SWAP1 JUMPDEST DUP2 SLOAD DUP2 MSTORE SWAP1 PUSH1 0x1 ADD SWAP1 PUSH1 0x20 ADD DUP1 DUP4 GT PUSH2 0x1E9 JUMPI DUP3 SWAP1 SUB PUSH1 0x1F AND DUP3 ADD SWAP2 JUMPDEST POP POP POP POP POP SWAP1 POP SWAP1 JUMP JUMPDEST PUSH0 PUSH0 REVERT JUMPDEST PUSH0 PUSH0 REVERT JUMPDEST PUSH0 PUSH0 REVERT JUMPDEST PUSH0 PUSH0 REVERT JUMPDEST PUSH0 PUSH0 REVERT JUMPDEST PUSH0 PUSH0 DUP4 PUSH1 0x1F DUP5 ADD SLT PUSH2 0x239 JUMPI PUSH2 0x238 PUSH2 0x218 JUMP JUMPDEST JUMPDEST DUP3 CALLDATALOAD SWAP1 POP PUSH8 0xFFFFFFFFFFFFFFFF DUP2 GT ISZERO PUSH2 0x256 JUMPI PUSH2 0x255 PUSH2 0x21C JUMP JUMPDEST JUMPDEST PUSH1 0x20 DUP4 ADD SWAP2 POP DUP4 PUSH1 0x1 DUP3 MUL DUP4 ADD GT ISZERO PUSH2 0x272 JUMPI PUSH2 0x271 PUSH2 0x220 JUMP JUMPDEST JUMPDEST SWAP3 POP SWAP3 SWAP1 POP JUMP JUMPDEST PUSH0 PUSH0 PUSH1 0x20 DUP4 DUP6 SUB SLT ISZERO PUSH2 0x28F JUMPI PUSH2 0x28E PUSH2 0x210 JUMP JUMPDEST JUMPDEST PUSH0 DUP4 ADD CALLDATALOAD PUSH8 0xFFFFFFFFFFFFFFFF DUP2 GT ISZERO PUSH2 0x2AC JUMPI PUSH2 0x2AB PUSH2 0x214 JUMP JUMPDEST JUMPDEST PUSH2 0x2B8 DUP6 DUP3 DUP7 ADD PUSH2 0x224 JUMP JUMPDEST SWAP3 POP SWAP3 POP POP SWAP3 POP SWAP3 SWAP1 POP JUMP JUMPDEST PUSH0 DUP2 MLOAD SWAP1 POP SWAP2 SWAP1 POP JUMP JUMPDEST PUSH0 DUP3 DUP3 MSTORE PUSH1 0x20 DUP3 ADD SWAP1 POP SWAP3 SWAP2 POP POP JUMP JUMPDEST DUP3 DUP2 DUP4 MCOPY PUSH0 DUP4 DUP4 ADD MSTORE POP POP POP JUMP JUMPDEST PUSH0 PUSH1 0x1F NOT PUSH1 0x1F DUP4 ADD AND SWAP1 POP SWAP2 SWAP1 POP JUMP JUMPDEST PUSH0 PUSH2 0x306 DUP3 PUSH2 0x2C4 JUMP JUMPDEST PUSH2 0x310 DUP2 DUP6 PUSH2 0x2CE JUMP JUMPDEST SWAP4 POP PUSH2 0x320 DUP2 DUP6 PUSH1 0x20 DUP7 ADD PUSH2 0x2DE JUMP JUMPDEST PUSH2 0x329 DUP2 PUSH2 0x2EC JUMP JUMPDEST DUP5 ADD SWAP2 POP POP SWAP3 SWAP2 POP POP JUMP JUMPDEST PUSH0 PUSH1 0x20 DUP3 ADD SWAP1 POP DUP2 DUP2 SUB PUSH0 DUP4 ADD MSTORE PUSH2 0x34C DUP2 DUP5 PUSH2 0x2FC JUMP JUMPDEST SWAP1 POP SWAP3 SWAP2 POP POP JUMP JUMPDEST PUSH32 0x4E487B7100000000000000000000000000000000000000000000000000000000 PUSH0 MSTORE PUSH1 0x41 PUSH1 0x4 MSTORE PUSH1 0x24 PUSH0 REVERT JUMPDEST PUSH32 0x4E487B7100000000000000000000000000000000000000000000000000000000 PUSH0 MSTORE PUSH1 0x22 PUSH1 0x4 MSTORE PUSH1 0x24 PUSH0 REVERT JUMPDEST PUSH0 PUSH1 0x2 DUP3 DIV SWAP1 POP PUSH1 0x1 DUP3 AND DUP1 PUSH2 0x3C5 JUMPI PUSH1 0x7F DUP3 AND SWAP2 POP JUMPDEST PUSH1 0x20 DUP3 LT DUP2 SUB PUSH2 0x3D8 JUMPI PUSH2 0x3D7 PUSH2 0x381 JUMP JUMPDEST JUMPDEST POP SWAP2 SWAP1 POP JUMP JUMPDEST PUSH0 DUP2 SWAP1 POP DUP2 PUSH0 MSTORE PUSH1 0x20 PUSH0 KECCAK256 SWAP1 POP SWAP2 SWAP1 POP JUMP JUMPDEST PUSH0 PUSH1 0x20 PUSH1 0x1F DUP4 ADD DIV SWAP1 POP SWAP2 SWAP1 POP JUMP JUMPDEST PUSH0 DUP3 DUP3 SHL SWAP1 POP SWAP3 SWAP2 POP POP JUMP JUMPDEST PUSH0 PUSH1 0x8 DUP4 MUL PUSH2 0x43A PUSH32 0xFFFFFFFFFFFFFFFFFFFFFFFFFFFFFFFFFFFFFFFFFFFFFFFFFFFFFFFFFFFFFFFF DUP3 PUSH2 0x3FF JUMP JUMPDEST PUSH2 0x444 DUP7 DUP4 PUSH2 0x3FF JUMP JUMPDEST SWAP6 POP DUP1 NOT DUP5 AND SWAP4 POP DUP1 DUP7 AND DUP5 OR SWAP3 POP POP POP SWAP4 SWAP3 POP POP POP JUMP JUMPDEST PUSH0 DUP2 SWAP1 POP SWAP2 SWAP1 POP JUMP JUMPDEST PUSH0 DUP2 SWAP1 POP SWAP2 SWAP1 POP JUMP JUMPDEST PUSH0 PUSH2 0x488 PUSH2 0x483 PUSH2 0x47E DUP5 PUSH2 0x45C JUMP JUMPDEST PUSH2 0x465 JUMP JUMPDEST PUSH2 0x45C JUMP JUMPDEST SWAP1 POP SWAP2 SWAP1 POP JUMP JUMPDEST PUSH0 DUP2 SWAP1 POP SWAP2 SWAP1 POP JUMP JUMPDEST PUSH2 0x4A1 DUP4 PUSH2 0x46E JUMP JUMPDEST PUSH2 0x4B5 PUSH2 0x4AD DUP3 PUSH2 0x48F JUMP JUMPDEST DUP5 DUP5 SLOAD PUSH2 0x40B JUMP JUMPDEST DUP3 SSTORE POP POP POP POP JUMP JUMPDEST PUSH0 PUSH0 SWAP1 POP SWAP1 JUMP JUMPDEST PUSH2 0x4CC PUSH2 0x4BD JUMP JUMPDEST PUSH2 0x4D7 DUP2 DUP5 DUP5 PUSH2 0x498 JUMP JUMPDEST POP POP POP JUMP JUMPDEST JUMPDEST DUP2 DUP2 LT ISZERO PUSH2 0x4FA JUMPI PUSH2 0x4EF PUSH0 DUP3 PUSH2 0x4C4 JUMP JUMPDEST PUSH1 0x1 DUP2 ADD SWAP1 POP PUSH2 0x4DD JUMP JUMPDEST POP POP JUMP JUMPDEST PUSH1 0x1F DUP3 GT ISZERO PUSH2 0x53F JUMPI PUSH2 0x510 DUP2 PUSH2 0x3DE JUMP JUMPDEST PUSH2 0x519 DUP5 PUSH2 0x3F0 JUMP JUMPDEST DUP2 ADD PUSH1 0x20 DUP6 LT ISZERO PUSH2 0x528 JUMPI DUP2 SWAP1 POP JUMPDEST PUSH2 0x53C PUSH2 0x534 DUP6 PUSH2 0x3F0 JUMP JUMPDEST DUP4 ADD DUP3 PUSH2 0x4DC JUMP JUMPDEST POP POP JUMPDEST POP POP POP JUMP JUMPDEST PUSH0 DUP3 DUP3 SHR SWAP1 POP SWAP3 SWAP2 POP POP JUMP JUMPDEST PUSH0 PUSH2 0x55F PUSH0 NOT DUP5 PUSH1 0x8 MUL PUSH2 0x544 JUMP JUMPDEST NOT DUP1 DUP4 AND SWAP2 POP POP SWAP3 SWAP2 POP POP JUMP JUMPDEST PUSH0 PUSH2 0x577 DUP4 DUP4 PUSH2 0x550 JUMP JUMPDEST SWAP2 POP DUP3 PUSH1 0x2 MUL DUP3 OR SWAP1 POP SWAP3 SWAP2 POP POP JUMP JUMPDEST PUSH2 0x590 DUP3 PUSH2 0x2C4 JUMP JUMPDEST PUSH8 0xFFFFFFFFFFFFFFFF DUP2 GT ISZERO PUSH2 0x5A9 JUMPI PUSH2 0x5A8 PUSH2 0x354 JUMP JUMPDEST JUMPDEST PUSH2 0x5B3 DUP3 SLOAD PUSH2 0x3AE JUMP JUMPDEST PUSH2 0x5BE DUP3 DUP3 DUP6 PUSH2 0x4FE JUMP JUMPDEST PUSH0 PUSH1 0x20 SWAP1 POP PUSH1 0x1F DUP4 GT PUSH1 0x1 DUP2 EQ PUSH2 0x5EF JUMPI PUSH0 DUP5 ISZERO PUSH2 0x5DD JUMPI DUP3 DUP8 ADD MLOAD SWAP1 POP JUMPDEST PUSH2 0x5E7 DUP6 DUP3 PUSH2 0x56C JUMP JUMPDEST DUP7 SSTORE POP PUSH2 0x64E JUMP JUMPDEST PUSH1 0x1F NOT DUP5 AND PUSH2 0x5FD DUP7 PUSH2 0x3DE JUMP JUMPDEST PUSH0 JUMPDEST DUP3 DUP2 LT ISZERO PUSH2 0x624 JUMPI DUP5 DUP10 ADD MLOAD DUP3 SSTORE PUSH1 0x1 DUP3 ADD SWAP2 POP PUSH1 0x20 DUP6 ADD SWAP5 POP PUSH1 0x20 DUP2 ADD SWAP1 POP PUSH2 0x5FF JUMP JUMPDEST DUP7 DUP4 LT ISZERO PUSH2 0x641 JUMPI DUP5 DUP10 ADD MLOAD PUSH2 0x63D PUSH1 0x1F DUP10 AND DUP3 PUSH2 0x550 JUMP JUMPDEST DUP4 SSTORE POP JUMPDEST PUSH1 0x1 PUSH1 0x2 DUP9 MUL ADD DUP9 SSTORE POP POP POP JUMPDEST POP POP POP POP POP POP JUMP INVALID LOG2 PUSH5 0x6970667358 0x22 SLT KECCAK256 0xAD 0xEA SWAP4 EXP 0xED 0x2C 0xBF 0xC4 0x1F 0xC8 EXTCALL SWAP8 NOT 0xDC PUSH31 0x66763C9881A7590C834BE829559853AB1064736F6C634300081E0033000000 "
				},
				"gasEstimates": {
					"creation": {
						"codeDepositCost": "335200",
						"executionCost": "372",
						"totalCost": "335572"
					},
					"external": {
						"saveMsg(string)": "infinite",
						"savedMessage()": "infinite",
						"viewMsg()": "infinite"
					}
				},
				"methodIdentifiers": {
					"saveMsg(string)": "b6e7385e",
					"savedMessage()": "d53335b0",
					"viewMsg()": "dcdbfac5"
				}
			},
			"storageLayout": {
				"storage": [
					{
						"astId": 3,
						"contract": "LearnCalldataMemoryStorage.sol:LearnCalldataMemoryStorage",
						"label": "savedMessage",
						"offset": 0,
						"slot": "0",
						"type": "t_string_storage"
					}
				],
				"types": {
					"t_string_storage": {
						"encoding": "bytes",
						"label": "string",
						"numberOfBytes": "32"
					}
				}
			},
			"userdoc": {
				"kind": "user",
				"methods": {},
				"version": 1
			}
		}
	}
}