{
	"MintCapTime.sol": {
		"KrunalToken": {
			"abi": [
				{
					"inputs": [
						{
							"internalType": "string",
							"name": "name_",
							"type": "string"
						},
						{
							"internalType": "string",
							"name": "symbol_",
							"type": "string"
						},
						{
							"internalType": "uint256",
							"name": "initialCap_",
							"type": "uint256"
						},
						{
							"internalType": "uint256",
							"name": "mintDurationInDays",
							"type": "uint256"
						}
					],
					"stateMutability": "nonpayable",
					"type": "constructor"
				},
				{
					"inputs": [
						{
							"internalType": "address",
							"name": "spender",
							"type": "address"
						},
						{
							"internalType": "uint256",
							"name": "allowance",
							"type": "uint256"
						},
						{
							"internalType": "uint256",
							"name": "needed",
							"type": "uint256"
						}
					],
					"name": "ERC20InsufficientAllowance",
					"type": "error"
				},
				{
					"inputs": [
						{
							"internalType": "address",
							"name": "sender",
							"type": "address"
						},
						{
							"internalType": "uint256",
							"name": "balance",
							"type": "uint256"
						},
						{
							"internalType": "uint256",
							"name": "needed",
							"type": "uint256"
						}
					],
					"name": "ERC20InsufficientBalance",
					"type": "error"
				},
				{
					"inputs": [
						{
							"internalType": "address",
							"name": "approver",
							"type": "address"
						}
					],
					"name": "ERC20InvalidApprover",
					"type": "error"
				},
				{
					"inputs": [
						{
							"internalType": "address",
							"name": "receiver",
							"type": "address"
						}
					],
					"name": "ERC20InvalidReceiver",
					"type": "error"
				},
				{
					"inputs": [
						{
							"internalType": "address",
							"name": "sender",
							"type": "address"
						}
					],
					"name": "ERC20InvalidSender",
					"type": "error"
				},
				{
					"inputs": [
						{
							"internalType": "address",
							"name": "spender",
							"type": "address"
						}
					],
					"name": "ERC20InvalidSpender",
					"type": "error"
				},
				{
					"inputs": [
						{
							"internalType": "address",
							"name": "owner",
							"type": "address"
						}
					],
					"name": "OwnableInvalidOwner",
					"type": "error"
				},
				{
					"inputs": [
						{
							"internalType": "address",
							"name": "account",
							"type": "address"
						}
					],
					"name": "OwnableUnauthorizedAccount",
					"type": "error"
				},
				{
					"anonymous": false,
					"inputs": [
						{
							"indexed": true,
							"internalType": "address",
							"name": "owner",
							"type": "address"
						},
						{
							"indexed": true,
							"internalType": "address",
							"name": "spender",
							"type": "address"
						},
						{
							"indexed": false,
							"internalType": "uint256",
							"name": "value",
							"type": "uint256"
						}
					],
					"name": "Approval",
					"type": "event"
				},
				{
					"anonymous": false,
					"inputs": [
						{
							"indexed": true,
							"internalType": "address",
							"name": "previousOwner",
							"type": "address"
						},
						{
							"indexed": true,
							"internalType": "address",
							"name": "newOwner",
							"type": "address"
						}
					],
					"name": "OwnershipTransferred",
					"type": "event"
				},
				{
					"anonymous": false,
					"inputs": [
						{
							"indexed": true,
							"internalType": "address",
							"name": "from",
							"type": "address"
						},
						{
							"indexed": true,
							"internalType": "address",
							"name": "to",
							"type": "address"
						},
						{
							"indexed": false,
							"internalType": "uint256",
							"name": "value",
							"type": "uint256"
						}
					],
					"name": "Transfer",
					"type": "event"
				},
				{
					"inputs": [
						{
							"internalType": "address",
							"name": "owner",
							"type": "address"
						},
						{
							"internalType": "address",
							"name": "spender",
							"type": "address"
						}
					],
					"name": "allowance",
					"outputs": [
						{
							"internalType": "uint256",
							"name": "",
							"type": "uint256"
						}
					],
					"stateMutability": "view",
					"type": "function"
				},
				{
					"inputs": [
						{
							"internalType": "address",
							"name": "spender",
							"type": "address"
						},
						{
							"internalType": "uint256",
							"name": "value",
							"type": "uint256"
						}
					],
					"name": "approve",
					"outputs": [
						{
							"internalType": "bool",
							"name": "",
							"type": "bool"
						}
					],
					"stateMutability": "nonpayable",
					"type": "function"
				},
				{
					"inputs": [
						{
							"internalType": "address",
							"name": "account",
							"type": "address"
						}
					],
					"name": "balanceOf",
					"outputs": [
						{
							"internalType": "uint256",
							"name": "",
							"type": "uint256"
						}
					],
					"stateMutability": "view",
					"type": "function"
				},
				{
					"inputs": [],
					"name": "cap",
					"outputs": [
						{
							"internalType": "uint256",
							"name": "",
							"type": "uint256"
						}
					],
					"stateMutability": "view",
					"type": "function"
				},
				{
					"inputs": [],
					"name": "decimals",
					"outputs": [
						{
							"internalType": "uint8",
							"name": "",
							"type": "uint8"
						}
					],
					"stateMutability": "view",
					"type": "function"
				},
				{
					"inputs": [],
					"name": "deploymentTime",
					"outputs": [
						{
							"internalType": "uint256",
							"name": "",
							"type": "uint256"
						}
					],
					"stateMutability": "view",
					"type": "function"
				},
				{
					"inputs": [
						{
							"internalType": "address",
							"name": "to",
							"type": "address"
						},
						{
							"internalType": "uint256",
							"name": "amount",
							"type": "uint256"
						}
					],
					"name": "mint",
					"outputs": [],
					"stateMutability": "nonpayable",
					"type": "function"
				},
				{
					"inputs": [],
					"name": "mintTimeLimit",
					"outputs": [
						{
							"internalType": "uint256",
							"name": "",
							"type": "uint256"
						}
					],
					"stateMutability": "view",
					"type": "function"
				},
				{
					"inputs": [],
					"name": "name",
					"outputs": [
						{
							"internalType": "string",
							"name": "",
							"type": "string"
						}
					],
					"stateMutability": "view",
					"type": "function"
				},
				{
					"inputs": [],
					"name": "owner",
					"outputs": [
						{
							"internalType": "address",
							"name": "",
							"type": "address"
						}
					],
					"stateMutability": "view",
					"type": "function"
				},
				{
					"inputs": [],
					"name": "renounceOwnership",
					"outputs": [],
					"stateMutability": "nonpayable",
					"type": "function"
				},
				{
					"inputs": [],
					"name": "symbol",
					"outputs": [
						{
							"internalType": "string",
							"name": "",
							"type": "string"
						}
					],
					"stateMutability": "view",
					"type": "function"
				},
				{
					"inputs": [],
					"name": "totalSupply",
					"outputs": [
						{
							"internalType": "uint256",
							"name": "",
							"type": "uint256"
						}
					],
					"stateMutability": "view",
					"type": "function"
				},
				{
					"inputs": [
						{
							"internalType": "address",
							"name": "to",
							"type": "address"
						},
						{
							"internalType": "uint256",
							"name": "value",
							"type": "uint256"
						}
					],
					"name": "transfer",
					"outputs": [
						{
							"internalType": "bool",
							"name": "",
							"type": "bool"
						}
					],
					"stateMutability": "nonpayable",
					"type": "function"
				},
				{
					"inputs": [
						{
							"internalType": "address",
							"name": "from",
							"type": "address"
						},
						{
							"internalType": "address",
							"name": "to",
							"type": "address"
						},
						{
							"internalType": "uint256",
							"name": "value",
							"type": "uint256"
						}
					],
					"name": "transferFrom",
					"outputs": [
						{
							"internalType": "bool",
							"name": "",
							"type": "bool"
						}
					],
					"stateMutability": "nonpayable",
					"type": "function"
				},
				{
					"inputs": [
						{
							"internalType": "address",
							"name": "newOwner",
							"type": "address"
						}
					],
					"name": "transferOwnership",
					"outputs": [],
					"stateMutability": "nonpayable",
					"type": "function"
				},
				{
					"inputs": [
						{
							"internalType": "uint256",
							"name": "newCap",
							"type": "uint256"
						}
					],
					"name": "updateCap",
					"outputs": [],
					"stateMutability": "nonpayable",
					"type": "function"
				}
			],
			"devdoc": {
				"errors": {
					"ERC20InsufficientAllowance(address,uint256,uint256)": [
						{
							"details": "Indicates a failure with the `spender`’s `allowance`. Used in transfers.",
							"params": {
								"allowance": "Amount of tokens a `spender` is allowed to operate with.",
								"needed": "Minimum amount required to perform a transfer.",
								"spender": "Address that may be allowed to operate on tokens without being their owner."
							}
						}
					],
					"ERC20InsufficientBalance(address,uint256,uint256)": [
						{
							"details": "Indicates an error related to the current `balance` of a `sender`. Used in transfers.",
							"params": {
								"balance": "Current balance for the interacting account.",
								"needed": "Minimum amount required to perform a transfer.",
								"sender": "Address whose tokens are being transferred."
							}
						}
					],
					"ERC20InvalidApprover(address)": [
						{
							"details": "Indicates a failure with the `approver` of a token to be approved. Used in approvals.",
							"params": {
								"approver": "Address initiating an approval operation."
							}
						}
					],
					"ERC20InvalidReceiver(address)": [
						{
							"details": "Indicates a failure with the token `receiver`. Used in transfers.",
							"params": {
								"receiver": "Address to which tokens are being transferred."
							}
						}
					],
					"ERC20InvalidSender(address)": [
						{
							"details": "Indicates a failure with the token `sender`. Used in transfers.",
							"params": {
								"sender": "Address whose tokens are being transferred."
							}
						}
					],
					"ERC20InvalidSpender(address)": [
						{
							"details": "Indicates a failure with the `spender` to be approved. Used in approvals.",
							"params": {
								"spender": "Address that may be allowed to operate on tokens without being their owner."
							}
						}
					],
					"OwnableInvalidOwner(address)": [
						{
							"details": "The owner is not a valid owner account. (eg. `address(0)`)"
						}
					],
					"OwnableUnauthorizedAccount(address)": [
						{
							"details": "The caller account is not authorized to perform an operation."
						}
					]
				},
				"events": {
					"Approval(address,address,uint256)": {
						"details": "Emitted when the allowance of a `spender` for an `owner` is set by a call to {approve}. `value` is the new allowance."
					},
					"Transfer(address,address,uint256)": {
						"details": "Emitted when `value` tokens are moved from one account (`from`) to another (`to`). Note that `value` may be zero."
					}
				},
				"kind": "dev",
				"methods": {
					"allowance(address,address)": {
						"details": "See {IERC20-allowance}."
					},
					"approve(address,uint256)": {
						"details": "See {IERC20-approve}. NOTE: If `value` is the maximum `uint256`, the allowance is not updated on `transferFrom`. This is semantically equivalent to an infinite approval. Requirements: - `spender` cannot be the zero address."
					},
					"balanceOf(address)": {
						"details": "See {IERC20-balanceOf}."
					},
					"decimals()": {
						"details": "Returns the number of decimals used to get its user representation. For example, if `decimals` equals `2`, a balance of `505` tokens should be displayed to a user as `5.05` (`505 / 10 ** 2`). Tokens usually opt for a value of 18, imitating the relationship between Ether and Wei. This is the default value returned by this function, unless it's overridden. NOTE: This information is only used for _display_ purposes: it in no way affects any of the arithmetic of the contract, including {IERC20-balanceOf} and {IERC20-transfer}."
					},
					"name()": {
						"details": "Returns the name of the token."
					},
					"owner()": {
						"details": "Returns the address of the current owner."
					},
					"renounceOwnership()": {
						"details": "Leaves the contract without owner. It will not be possible to call `onlyOwner` functions. Can only be called by the current owner. NOTE: Renouncing ownership will leave the contract without an owner, thereby disabling any functionality that is only available to the owner."
					},
					"symbol()": {
						"details": "Returns the symbol of the token, usually a shorter version of the name."
					},
					"totalSupply()": {
						"details": "See {IERC20-totalSupply}."
					},
					"transfer(address,uint256)": {
						"details": "See {IERC20-transfer}. Requirements: - `to` cannot be the zero address. - the caller must have a balance of at least `value`."
					},
					"transferFrom(address,address,uint256)": {
						"details": "See {IERC20-transferFrom}. Skips emitting an {Approval} event indicating an allowance update. This is not required by the ERC. See {xref-ERC20-_approve-address-address-uint256-bool-}[_approve]. NOTE: Does not update the allowance if the current allowance is the maximum `uint256`. Requirements: - `from` and `to` cannot be the zero address. - `from` must have a balance of at least `value`. - the caller must have allowance for ``from``'s tokens of at least `value`."
					},
					"transferOwnership(address)": {
						"details": "Transfers ownership of the contract to a new account (`newOwner`). Can only be called by the current owner."
					}
				},
				"version": 1
			},
			"evm": {
				"assembly": "    /* \"MintCapTime.sol\":168:1113  contract KrunalToken is ERC20, Ownable {... */\n  mstore(0x40, 0x80)\n    /* \"MintCapTime.sol\":324:710  constructor(... */\n  callvalue\n  dup1\n  iszero\n  tag_1\n  jumpi\n  revert(0x00, 0x00)\ntag_1:\n  pop\n  mload(0x40)\n  sub(codesize, bytecodeSize)\n  dup1\n  bytecodeSize\n  dup4\n  codecopy\n  dup2\n  dup2\n  add\n  0x40\n  mstore\n  dup2\n  add\n  swap1\n  tag_2\n  swap2\n  swap1\n  tag_3\n  jump\t// in\ntag_2:\n    /* \"MintCapTime.sol\":514:524  msg.sender */\n  caller\n    /* \"MintCapTime.sol\":482:487  name_ */\n  dup5\n    /* \"MintCapTime.sol\":489:496  symbol_ */\n  dup5\n    /* \"@openzeppelin/contracts/token/ERC20/ERC20.sol\":1656:1661  name_ */\n  dup2\n    /* \"@openzeppelin/contracts/token/ERC20/ERC20.sol\":1648:1653  _name */\n  0x03\n    /* \"@openzeppelin/contracts/token/ERC20/ERC20.sol\":1648:1661  _name = name_ */\n  swap1\n  dup2\n  tag_8\n  swap2\n  swap1\n  tag_9\n  jump\t// in\ntag_8:\n  pop\n    /* \"@openzeppelin/contracts/token/ERC20/ERC20.sol\":1681:1688  symbol_ */\n  dup1\n    /* \"@openzeppelin/contracts/token/ERC20/ERC20.sol\":1671:1678  _symbol */\n  0x04\n    /* \"@openzeppelin/contracts/token/ERC20/ERC20.sol\":1671:1688  _symbol = symbol_ */\n  swap1\n  dup2\n  tag_10\n  swap2\n  swap1\n  tag_9\n  jump\t// in\ntag_10:\n  pop\n    /* \"@openzeppelin/contracts/token/ERC20/ERC20.sol\":1582:1695  constructor(string memory name_, string memory symbol_) {... */\n  pop\n  pop\n    /* \"@openzeppelin/contracts/access/Ownable.sol\":1297:1298  0 */\n  0x00\n    /* \"@openzeppelin/contracts/access/Ownable.sol\":1273:1299  initialOwner == address(0) */\n  0xffffffffffffffffffffffffffffffffffffffff\n  and\n    /* \"@openzeppelin/contracts/access/Ownable.sol\":1273:1285  initialOwner */\n  dup2\n    /* \"@openzeppelin/contracts/access/Ownable.sol\":1273:1299  initialOwner == address(0) */\n  0xffffffffffffffffffffffffffffffffffffffff\n  and\n  sub\n    /* \"@openzeppelin/contracts/access/Ownable.sol\":1269:1364  if (initialOwner == address(0)) {... */\n  tag_12\n  jumpi\n    /* \"@openzeppelin/contracts/access/Ownable.sol\":1350:1351  0 */\n  0x00\n    /* \"@openzeppelin/contracts/access/Ownable.sol\":1322:1353  OwnableInvalidOwner(address(0)) */\n  mload(0x40)\n  0x1e4fbdf700000000000000000000000000000000000000000000000000000000\n  dup2\n  mstore\n  0x04\n  add\n  tag_13\n  swap2\n  swap1\n  tag_14\n  jump\t// in\ntag_13:\n  mload(0x40)\n  dup1\n  swap2\n  sub\n  swap1\n  revert\n    /* \"@openzeppelin/contracts/access/Ownable.sol\":1269:1364  if (initialOwner == address(0)) {... */\ntag_12:\n    /* \"@openzeppelin/contracts/access/Ownable.sol\":1373:1405  _transferOwnership(initialOwner) */\n  tag_15\n    /* \"@openzeppelin/contracts/access/Ownable.sol\":1392:1404  initialOwner */\n  dup2\n    /* \"@openzeppelin/contracts/access/Ownable.sol\":1373:1391  _transferOwnership */\n  shl(0x20, tag_16)\n    /* \"@openzeppelin/contracts/access/Ownable.sol\":1373:1405  _transferOwnership(initialOwner) */\n  0x20\n  shr\n  jump\t// in\ntag_15:\n    /* \"@openzeppelin/contracts/access/Ownable.sol\":1225:1412  constructor(address initialOwner) {... */\n  pop\n    /* \"MintCapTime.sol\":598:608  decimals() */\n  tag_18\n    /* \"MintCapTime.sol\":598:606  decimals */\n  shl(0x20, tag_19)\n    /* \"MintCapTime.sol\":598:608  decimals() */\n  0x20\n  shr\n  jump\t// in\ntag_18:\n    /* \"MintCapTime.sol\":592:594  10 */\n  0x0a\n    /* \"MintCapTime.sol\":592:608  10 ** decimals() */\n  tag_20\n  swap2\n  swap1\n  tag_21\n  jump\t// in\ntag_20:\n    /* \"MintCapTime.sol\":578:589  initialCap_ */\n  dup3\n    /* \"MintCapTime.sol\":578:608  initialCap_ * 10 ** decimals() */\n  tag_22\n  swap2\n  swap1\n  tag_23\n  jump\t// in\ntag_22:\n    /* \"MintCapTime.sol\":572:575  cap */\n  0x06\n    /* \"MintCapTime.sol\":572:608  cap = initialCap_ * 10 ** decimals() */\n  dup2\n  swap1\n  sstore\n  pop\n    /* \"MintCapTime.sol\":635:650  block.timestamp */\n  timestamp\n    /* \"MintCapTime.sol\":618:632  deploymentTime */\n  0x07\n    /* \"MintCapTime.sol\":618:650  deploymentTime = block.timestamp */\n  dup2\n  swap1\n  sstore\n  pop\n    /* \"MintCapTime.sol\":697:703  1 days */\n  0x015180\n    /* \"MintCapTime.sol\":676:694  mintDurationInDays */\n  dup2\n    /* \"MintCapTime.sol\":676:703  mintDurationInDays * 1 days */\n  tag_24\n  swap2\n  swap1\n  tag_23\n  jump\t// in\ntag_24:\n    /* \"MintCapTime.sol\":660:673  mintTimeLimit */\n  0x08\n    /* \"MintCapTime.sol\":660:703  mintTimeLimit = mintDurationInDays * 1 days */\n  dup2\n  swap1\n  sstore\n  pop\n    /* \"MintCapTime.sol\":324:710  constructor(... */\n  pop\n  pop\n  pop\n  pop\n    /* \"MintCapTime.sol\":168:1113  contract KrunalToken is ERC20, Ownable {... */\n  jump(tag_25)\n    /* \"@openzeppelin/contracts/access/Ownable.sol\":2912:3099  function _transferOwnership(address newOwner) internal virtual {... */\ntag_16:\n    /* \"@openzeppelin/contracts/access/Ownable.sol\":2985:3001  address oldOwner */\n  0x00\n    /* \"@openzeppelin/contracts/access/Ownable.sol\":3004:3010  _owner */\n  0x05\n  0x00\n  swap1\n  sload\n  swap1\n  0x0100\n  exp\n  swap1\n  div\n  0xffffffffffffffffffffffffffffffffffffffff\n  and\n    /* \"@openzeppelin/contracts/access/Ownable.sol\":2985:3010  address oldOwner = _owner */\n  swap1\n  pop\n    /* \"@openzeppelin/contracts/access/Ownable.sol\":3029:3037  newOwner */\n  dup2\n    /* \"@openzeppelin/contracts/access/Ownable.sol\":3020:3026  _owner */\n  0x05\n  0x00\n    /* \"@openzeppelin/contracts/access/Ownable.sol\":3020:3037  _owner = newOwner */\n  0x0100\n  exp\n  dup2\n  sload\n  dup2\n  0xffffffffffffffffffffffffffffffffffffffff\n  mul\n  not\n  and\n  swap1\n  dup4\n  0xffffffffffffffffffffffffffffffffffffffff\n  and\n  mul\n  or\n  swap1\n  sstore\n  pop\n    /* \"@openzeppelin/contracts/access/Ownable.sol\":3083:3091  newOwner */\n  dup2\n    /* \"@openzeppelin/contracts/access/Ownable.sol\":3052:3092  OwnershipTransferred(oldOwner, newOwner) */\n  0xffffffffffffffffffffffffffffffffffffffff\n  and\n    /* \"@openzeppelin/contracts/access/Ownable.sol\":3073:3081  oldOwner */\n  dup2\n    /* \"@openzeppelin/contracts/access/Ownable.sol\":3052:3092  OwnershipTransferred(oldOwner, newOwner) */\n  0xffffffffffffffffffffffffffffffffffffffff\n  and\n  0x8be0079c531659141344cd1fd0a4f28419497f9722a3daafe3b4186f6b6457e0\n  mload(0x40)\n  mload(0x40)\n  dup1\n  swap2\n  sub\n  swap1\n  log3\n    /* \"@openzeppelin/contracts/access/Ownable.sol\":2975:3099  {... */\n  pop\n    /* \"@openzeppelin/contracts/access/Ownable.sol\":2912:3099  function _transferOwnership(address newOwner) internal virtual {... */\n  pop\n  jump\t// out\n    /* \"@openzeppelin/contracts/token/ERC20/ERC20.sol\":2688:2770  function decimals() public view virtual returns (uint8) {... */\ntag_19:\n    /* \"@openzeppelin/contracts/token/ERC20/ERC20.sol\":2737:2742  uint8 */\n  0x00\n    /* \"@openzeppelin/contracts/token/ERC20/ERC20.sol\":2761:2763  18 */\n  0x12\n    /* \"@openzeppelin/contracts/token/ERC20/ERC20.sol\":2754:2763  return 18 */\n  swap1\n  pop\n    /* \"@openzeppelin/contracts/token/ERC20/ERC20.sol\":2688:2770  function decimals() public view virtual returns (uint8) {... */\n  swap1\n  jump\t// out\n    /* \"#utility.yul\":7:82   */\ntag_28:\n    /* \"#utility.yul\":40:46   */\n  0x00\n    /* \"#utility.yul\":73:75   */\n  0x40\n    /* \"#utility.yul\":67:76   */\n  mload\n    /* \"#utility.yul\":57:76   */\n  swap1\n  pop\n    /* \"#utility.yul\":7:82   */\n  swap1\n  jump\t// out\n    /* \"#utility.yul\":88:205   */\ntag_29:\n    /* \"#utility.yul\":197:198   */\n  0x00\n    /* \"#utility.yul\":194:195   */\n  0x00\n    /* \"#utility.yul\":187:199   */\n  revert\n    /* \"#utility.yul\":211:328   */\ntag_30:\n    /* \"#utility.yul\":320:321   */\n  0x00\n    /* \"#utility.yul\":317:318   */\n  0x00\n    /* \"#utility.yul\":310:322   */\n  revert\n    /* \"#utility.yul\":334:451   */\ntag_31:\n    /* \"#utility.yul\":443:444   */\n  0x00\n    /* \"#utility.yul\":440:441   */\n  0x00\n    /* \"#utility.yul\":433:445   */\n  revert\n    /* \"#utility.yul\":457:574   */\ntag_32:\n    /* \"#utility.yul\":566:567   */\n  0x00\n    /* \"#utility.yul\":563:564   */\n  0x00\n    /* \"#utility.yul\":556:568   */\n  revert\n    /* \"#utility.yul\":580:682   */\ntag_33:\n    /* \"#utility.yul\":621:627   */\n  0x00\n    /* \"#utility.yul\":672:674   */\n  0x1f\n    /* \"#utility.yul\":668:675   */\n  not\n    /* \"#utility.yul\":663:665   */\n  0x1f\n    /* \"#utility.yul\":656:661   */\n  dup4\n    /* \"#utility.yul\":652:666   */\n  add\n    /* \"#utility.yul\":648:676   */\n  and\n    /* \"#utility.yul\":638:676   */\n  swap1\n  pop\n    /* \"#utility.yul\":580:682   */\n  swap2\n  swap1\n  pop\n  jump\t// out\n    /* \"#utility.yul\":688:868   */\ntag_34:\n    /* \"#utility.yul\":736:813   */\n  0x4e487b7100000000000000000000000000000000000000000000000000000000\n    /* \"#utility.yul\":733:734   */\n  0x00\n    /* \"#utility.yul\":726:814   */\n  mstore\n    /* \"#utility.yul\":833:837   */\n  0x41\n    /* \"#utility.yul\":830:831   */\n  0x04\n    /* \"#utility.yul\":823:838   */\n  mstore\n    /* \"#utility.yul\":857:861   */\n  0x24\n    /* \"#utility.yul\":854:855   */\n  0x00\n    /* \"#utility.yul\":847:862   */\n  revert\n    /* \"#utility.yul\":874:1155   */\ntag_35:\n    /* \"#utility.yul\":957:984   */\n  tag_79\n    /* \"#utility.yul\":979:983   */\n  dup3\n    /* \"#utility.yul\":957:984   */\n  tag_33\n  jump\t// in\ntag_79:\n    /* \"#utility.yul\":949:955   */\n  dup2\n    /* \"#utility.yul\":945:985   */\n  add\n    /* \"#utility.yul\":1087:1093   */\n  dup2\n    /* \"#utility.yul\":1075:1085   */\n  dup2\n    /* \"#utility.yul\":1072:1094   */\n  lt\n    /* \"#utility.yul\":1051:1069   */\n  0xffffffffffffffff\n    /* \"#utility.yul\":1039:1049   */\n  dup3\n    /* \"#utility.yul\":1036:1070   */\n  gt\n    /* \"#utility.yul\":1033:1095   */\n  or\n    /* \"#utility.yul\":1030:1118   */\n  iszero\n  tag_80\n  jumpi\n    /* \"#utility.yul\":1098:1116   */\n  tag_81\n  tag_34\n  jump\t// in\ntag_81:\n    /* \"#utility.yul\":1030:1118   */\ntag_80:\n    /* \"#utility.yul\":1138:1148   */\n  dup1\n    /* \"#utility.yul\":1134:1136   */\n  0x40\n    /* \"#utility.yul\":1127:1149   */\n  mstore\n    /* \"#utility.yul\":917:1155   */\n  pop\n    /* \"#utility.yul\":874:1155   */\n  pop\n  pop\n  jump\t// out\n    /* \"#utility.yul\":1161:1290   */\ntag_36:\n    /* \"#utility.yul\":1195:1201   */\n  0x00\n    /* \"#utility.yul\":1222:1242   */\n  tag_83\n  tag_28\n  jump\t// in\ntag_83:\n    /* \"#utility.yul\":1212:1242   */\n  swap1\n  pop\n    /* \"#utility.yul\":1251:1284   */\n  tag_84\n    /* \"#utility.yul\":1279:1283   */\n  dup3\n    /* \"#utility.yul\":1271:1277   */\n  dup3\n    /* \"#utility.yul\":1251:1284   */\n  tag_35\n  jump\t// in\ntag_84:\n    /* \"#utility.yul\":1161:1290   */\n  swap2\n  swap1\n  pop\n  jump\t// out\n    /* \"#utility.yul\":1296:1604   */\ntag_37:\n    /* \"#utility.yul\":1358:1362   */\n  0x00\n    /* \"#utility.yul\":1448:1466   */\n  0xffffffffffffffff\n    /* \"#utility.yul\":1440:1446   */\n  dup3\n    /* \"#utility.yul\":1437:1467   */\n  gt\n    /* \"#utility.yul\":1434:1490   */\n  iszero\n  tag_86\n  jumpi\n    /* \"#utility.yul\":1470:1488   */\n  tag_87\n  tag_34\n  jump\t// in\ntag_87:\n    /* \"#utility.yul\":1434:1490   */\ntag_86:\n    /* \"#utility.yul\":1508:1537   */\n  tag_88\n    /* \"#utility.yul\":1530:1536   */\n  dup3\n    /* \"#utility.yul\":1508:1537   */\n  tag_33\n  jump\t// in\ntag_88:\n    /* \"#utility.yul\":1500:1537   */\n  swap1\n  pop\n    /* \"#utility.yul\":1592:1596   */\n  0x20\n    /* \"#utility.yul\":1586:1590   */\n  dup2\n    /* \"#utility.yul\":1582:1597   */\n  add\n    /* \"#utility.yul\":1574:1597   */\n  swap1\n  pop\n    /* \"#utility.yul\":1296:1604   */\n  swap2\n  swap1\n  pop\n  jump\t// out\n    /* \"#utility.yul\":1610:1749   */\ntag_38:\n    /* \"#utility.yul\":1699:1705   */\n  dup3\n    /* \"#utility.yul\":1694:1697   */\n  dup2\n    /* \"#utility.yul\":1689:1692   */\n  dup4\n    /* \"#utility.yul\":1683:1706   */\n  mcopy\n    /* \"#utility.yul\":1740:1741   */\n  0x00\n    /* \"#utility.yul\":1731:1737   */\n  dup4\n    /* \"#utility.yul\":1726:1729   */\n  dup4\n    /* \"#utility.yul\":1722:1738   */\n  add\n    /* \"#utility.yul\":1715:1742   */\n  mstore\n    /* \"#utility.yul\":1610:1749   */\n  pop\n  pop\n  pop\n  jump\t// out\n    /* \"#utility.yul\":1755:2189   */\ntag_39:\n    /* \"#utility.yul\":1844:1849   */\n  0x00\n    /* \"#utility.yul\":1869:1935   */\n  tag_91\n    /* \"#utility.yul\":1885:1934   */\n  tag_92\n    /* \"#utility.yul\":1927:1933   */\n  dup5\n    /* \"#utility.yul\":1885:1934   */\n  tag_37\n  jump\t// in\ntag_92:\n    /* \"#utility.yul\":1869:1935   */\n  tag_36\n  jump\t// in\ntag_91:\n    /* \"#utility.yul\":1860:1935   */\n  swap1\n  pop\n    /* \"#utility.yul\":1958:1964   */\n  dup3\n    /* \"#utility.yul\":1951:1956   */\n  dup2\n    /* \"#utility.yul\":1944:1965   */\n  mstore\n    /* \"#utility.yul\":1996:2000   */\n  0x20\n    /* \"#utility.yul\":1989:1994   */\n  dup2\n    /* \"#utility.yul\":1985:2001   */\n  add\n    /* \"#utility.yul\":2034:2037   */\n  dup5\n    /* \"#utility.yul\":2025:2031   */\n  dup5\n    /* \"#utility.yul\":2020:2023   */\n  dup5\n    /* \"#utility.yul\":2016:2032   */\n  add\n    /* \"#utility.yul\":2013:2038   */\n  gt\n    /* \"#utility.yul\":2010:2122   */\n  iszero\n  tag_93\n  jumpi\n    /* \"#utility.yul\":2041:2120   */\n  tag_94\n  tag_32\n  jump\t// in\ntag_94:\n    /* \"#utility.yul\":2010:2122   */\ntag_93:\n    /* \"#utility.yul\":2131:2183   */\n  tag_95\n    /* \"#utility.yul\":2176:2182   */\n  dup5\n    /* \"#utility.yul\":2171:2174   */\n  dup3\n    /* \"#utility.yul\":2166:2169   */\n  dup6\n    /* \"#utility.yul\":2131:2183   */\n  tag_38\n  jump\t// in\ntag_95:\n    /* \"#utility.yul\":1850:2189   */\n  pop\n    /* \"#utility.yul\":1755:2189   */\n  swap4\n  swap3\n  pop\n  pop\n  pop\n  jump\t// out\n    /* \"#utility.yul\":2209:2564   */\ntag_40:\n    /* \"#utility.yul\":2276:2281   */\n  0x00\n    /* \"#utility.yul\":2325:2328   */\n  dup3\n    /* \"#utility.yul\":2318:2322   */\n  0x1f\n    /* \"#utility.yul\":2310:2316   */\n  dup4\n    /* \"#utility.yul\":2306:2323   */\n  add\n    /* \"#utility.yul\":2302:2329   */\n  slt\n    /* \"#utility.yul\":2292:2414   */\n  tag_97\n  jumpi\n    /* \"#utility.yul\":2333:2412   */\n  tag_98\n  tag_31\n  jump\t// in\ntag_98:\n    /* \"#utility.yul\":2292:2414   */\ntag_97:\n    /* \"#utility.yul\":2443:2449   */\n  dup2\n    /* \"#utility.yul\":2437:2450   */\n  mload\n    /* \"#utility.yul\":2468:2558   */\n  tag_99\n    /* \"#utility.yul\":2554:2557   */\n  dup5\n    /* \"#utility.yul\":2546:2552   */\n  dup3\n    /* \"#utility.yul\":2539:2543   */\n  0x20\n    /* \"#utility.yul\":2531:2537   */\n  dup7\n    /* \"#utility.yul\":2527:2544   */\n  add\n    /* \"#utility.yul\":2468:2558   */\n  tag_39\n  jump\t// in\ntag_99:\n    /* \"#utility.yul\":2459:2558   */\n  swap2\n  pop\n    /* \"#utility.yul\":2282:2564   */\n  pop\n    /* \"#utility.yul\":2209:2564   */\n  swap3\n  swap2\n  pop\n  pop\n  jump\t// out\n    /* \"#utility.yul\":2570:2647   */\ntag_41:\n    /* \"#utility.yul\":2607:2614   */\n  0x00\n    /* \"#utility.yul\":2636:2641   */\n  dup2\n    /* \"#utility.yul\":2625:2641   */\n  swap1\n  pop\n    /* \"#utility.yul\":2570:2647   */\n  swap2\n  swap1\n  pop\n  jump\t// out\n    /* \"#utility.yul\":2653:2775   */\ntag_42:\n    /* \"#utility.yul\":2726:2750   */\n  tag_102\n    /* \"#utility.yul\":2744:2749   */\n  dup2\n    /* \"#utility.yul\":2726:2750   */\n  tag_41\n  jump\t// in\ntag_102:\n    /* \"#utility.yul\":2719:2724   */\n  dup2\n    /* \"#utility.yul\":2716:2751   */\n  eq\n    /* \"#utility.yul\":2706:2769   */\n  tag_103\n  jumpi\n    /* \"#utility.yul\":2765:2766   */\n  0x00\n    /* \"#utility.yul\":2762:2763   */\n  0x00\n    /* \"#utility.yul\":2755:2767   */\n  revert\n    /* \"#utility.yul\":2706:2769   */\ntag_103:\n    /* \"#utility.yul\":2653:2775   */\n  pop\n  jump\t// out\n    /* \"#utility.yul\":2781:2924   */\ntag_43:\n    /* \"#utility.yul\":2838:2843   */\n  0x00\n    /* \"#utility.yul\":2869:2875   */\n  dup2\n    /* \"#utility.yul\":2863:2876   */\n  mload\n    /* \"#utility.yul\":2854:2876   */\n  swap1\n  pop\n    /* \"#utility.yul\":2885:2918   */\n  tag_105\n    /* \"#utility.yul\":2912:2917   */\n  dup2\n    /* \"#utility.yul\":2885:2918   */\n  tag_42\n  jump\t// in\ntag_105:\n    /* \"#utility.yul\":2781:2924   */\n  swap3\n  swap2\n  pop\n  pop\n  jump\t// out\n    /* \"#utility.yul\":2930:4096   */\ntag_3:\n    /* \"#utility.yul\":3047:3053   */\n  0x00\n    /* \"#utility.yul\":3055:3061   */\n  0x00\n    /* \"#utility.yul\":3063:3069   */\n  0x00\n    /* \"#utility.yul\":3071:3077   */\n  0x00\n    /* \"#utility.yul\":3120:3123   */\n  0x80\n    /* \"#utility.yul\":3108:3117   */\n  dup6\n    /* \"#utility.yul\":3099:3106   */\n  dup8\n    /* \"#utility.yul\":3095:3118   */\n  sub\n    /* \"#utility.yul\":3091:3124   */\n  slt\n    /* \"#utility.yul\":3088:3208   */\n  iszero\n  tag_107\n  jumpi\n    /* \"#utility.yul\":3127:3206   */\n  tag_108\n  tag_29\n  jump\t// in\ntag_108:\n    /* \"#utility.yul\":3088:3208   */\ntag_107:\n    /* \"#utility.yul\":3268:3269   */\n  0x00\n    /* \"#utility.yul\":3257:3266   */\n  dup6\n    /* \"#utility.yul\":3253:3270   */\n  add\n    /* \"#utility.yul\":3247:3271   */\n  mload\n    /* \"#utility.yul\":3298:3316   */\n  0xffffffffffffffff\n    /* \"#utility.yul\":3290:3296   */\n  dup2\n    /* \"#utility.yul\":3287:3317   */\n  gt\n    /* \"#utility.yul\":3284:3401   */\n  iszero\n  tag_109\n  jumpi\n    /* \"#utility.yul\":3320:3399   */\n  tag_110\n  tag_30\n  jump\t// in\ntag_110:\n    /* \"#utility.yul\":3284:3401   */\ntag_109:\n    /* \"#utility.yul\":3425:3499   */\n  tag_111\n    /* \"#utility.yul\":3491:3498   */\n  dup8\n    /* \"#utility.yul\":3482:3488   */\n  dup3\n    /* \"#utility.yul\":3471:3480   */\n  dup9\n    /* \"#utility.yul\":3467:3489   */\n  add\n    /* \"#utility.yul\":3425:3499   */\n  tag_40\n  jump\t// in\ntag_111:\n    /* \"#utility.yul\":3415:3499   */\n  swap5\n  pop\n    /* \"#utility.yul\":3218:3509   */\n  pop\n    /* \"#utility.yul\":3569:3571   */\n  0x20\n    /* \"#utility.yul\":3558:3567   */\n  dup6\n    /* \"#utility.yul\":3554:3572   */\n  add\n    /* \"#utility.yul\":3548:3573   */\n  mload\n    /* \"#utility.yul\":3600:3618   */\n  0xffffffffffffffff\n    /* \"#utility.yul\":3592:3598   */\n  dup2\n    /* \"#utility.yul\":3589:3619   */\n  gt\n    /* \"#utility.yul\":3586:3703   */\n  iszero\n  tag_112\n  jumpi\n    /* \"#utility.yul\":3622:3701   */\n  tag_113\n  tag_30\n  jump\t// in\ntag_113:\n    /* \"#utility.yul\":3586:3703   */\ntag_112:\n    /* \"#utility.yul\":3727:3801   */\n  tag_114\n    /* \"#utility.yul\":3793:3800   */\n  dup8\n    /* \"#utility.yul\":3784:3790   */\n  dup3\n    /* \"#utility.yul\":3773:3782   */\n  dup9\n    /* \"#utility.yul\":3769:3791   */\n  add\n    /* \"#utility.yul\":3727:3801   */\n  tag_40\n  jump\t// in\ntag_114:\n    /* \"#utility.yul\":3717:3801   */\n  swap4\n  pop\n    /* \"#utility.yul\":3519:3811   */\n  pop\n    /* \"#utility.yul\":3850:3852   */\n  0x40\n    /* \"#utility.yul\":3876:3940   */\n  tag_115\n    /* \"#utility.yul\":3932:3939   */\n  dup8\n    /* \"#utility.yul\":3923:3929   */\n  dup3\n    /* \"#utility.yul\":3912:3921   */\n  dup9\n    /* \"#utility.yul\":3908:3930   */\n  add\n    /* \"#utility.yul\":3876:3940   */\n  tag_43\n  jump\t// in\ntag_115:\n    /* \"#utility.yul\":3866:3940   */\n  swap3\n  pop\n    /* \"#utility.yul\":3821:3950   */\n  pop\n    /* \"#utility.yul\":3989:3991   */\n  0x60\n    /* \"#utility.yul\":4015:4079   */\n  tag_116\n    /* \"#utility.yul\":4071:4078   */\n  dup8\n    /* \"#utility.yul\":4062:4068   */\n  dup3\n    /* \"#utility.yul\":4051:4060   */\n  dup9\n    /* \"#utility.yul\":4047:4069   */\n  add\n    /* \"#utility.yul\":4015:4079   */\n  tag_43\n  jump\t// in\ntag_116:\n    /* \"#utility.yul\":4005:4079   */\n  swap2\n  pop\n    /* \"#utility.yul\":3960:4089   */\n  pop\n    /* \"#utility.yul\":2930:4096   */\n  swap3\n  swap6\n  swap2\n  swap5\n  pop\n  swap3\n  pop\n  jump\t// out\n    /* \"#utility.yul\":4102:4201   */\ntag_44:\n    /* \"#utility.yul\":4154:4160   */\n  0x00\n    /* \"#utility.yul\":4188:4193   */\n  dup2\n    /* \"#utility.yul\":4182:4194   */\n  mload\n    /* \"#utility.yul\":4172:4194   */\n  swap1\n  pop\n    /* \"#utility.yul\":4102:4201   */\n  swap2\n  swap1\n  pop\n  jump\t// out\n    /* \"#utility.yul\":4207:4387   */\ntag_45:\n    /* \"#utility.yul\":4255:4332   */\n  0x4e487b7100000000000000000000000000000000000000000000000000000000\n    /* \"#utility.yul\":4252:4253   */\n  0x00\n    /* \"#utility.yul\":4245:4333   */\n  mstore\n    /* \"#utility.yul\":4352:4356   */\n  0x22\n    /* \"#utility.yul\":4349:4350   */\n  0x04\n    /* \"#utility.yul\":4342:4357   */\n  mstore\n    /* \"#utility.yul\":4376:4380   */\n  0x24\n    /* \"#utility.yul\":4373:4374   */\n  0x00\n    /* \"#utility.yul\":4366:4381   */\n  revert\n    /* \"#utility.yul\":4393:4713   */\ntag_46:\n    /* \"#utility.yul\":4437:4443   */\n  0x00\n    /* \"#utility.yul\":4474:4475   */\n  0x02\n    /* \"#utility.yul\":4468:4472   */\n  dup3\n    /* \"#utility.yul\":4464:4476   */\n  div\n    /* \"#utility.yul\":4454:4476   */\n  swap1\n  pop\n    /* \"#utility.yul\":4521:4522   */\n  0x01\n    /* \"#utility.yul\":4515:4519   */\n  dup3\n    /* \"#utility.yul\":4511:4523   */\n  and\n    /* \"#utility.yul\":4542:4560   */\n  dup1\n    /* \"#utility.yul\":4532:4613   */\n  tag_120\n  jumpi\n    /* \"#utility.yul\":4598:4602   */\n  0x7f\n    /* \"#utility.yul\":4590:4596   */\n  dup3\n    /* \"#utility.yul\":4586:4603   */\n  and\n    /* \"#utility.yul\":4576:4603   */\n  swap2\n  pop\n    /* \"#utility.yul\":4532:4613   */\ntag_120:\n    /* \"#utility.yul\":4660:4662   */\n  0x20\n    /* \"#utility.yul\":4652:4658   */\n  dup3\n    /* \"#utility.yul\":4649:4663   */\n  lt\n    /* \"#utility.yul\":4629:4647   */\n  dup2\n    /* \"#utility.yul\":4626:4664   */\n  sub\n    /* \"#utility.yul\":4623:4707   */\n  tag_121\n  jumpi\n    /* \"#utility.yul\":4679:4697   */\n  tag_122\n  tag_45\n  jump\t// in\ntag_122:\n    /* \"#utility.yul\":4623:4707   */\ntag_121:\n    /* \"#utility.yul\":4444:4713   */\n  pop\n    /* \"#utility.yul\":4393:4713   */\n  swap2\n  swap1\n  pop\n  jump\t// out\n    /* \"#utility.yul\":4719:4860   */\ntag_47:\n    /* \"#utility.yul\":4768:4772   */\n  0x00\n    /* \"#utility.yul\":4791:4794   */\n  dup2\n    /* \"#utility.yul\":4783:4794   */\n  swap1\n  pop\n    /* \"#utility.yul\":4814:4817   */\n  dup2\n    /* \"#utility.yul\":4811:4812   */\n  0x00\n    /* \"#utility.yul\":4804:4818   */\n  mstore\n    /* \"#utility.yul\":4848:4852   */\n  0x20\n    /* \"#utility.yul\":4845:4846   */\n  0x00\n    /* \"#utility.yul\":4835:4853   */\n  keccak256\n    /* \"#utility.yul\":4827:4853   */\n  swap1\n  pop\n    /* \"#utility.yul\":4719:4860   */\n  swap2\n  swap1\n  pop\n  jump\t// out\n    /* \"#utility.yul\":4866:4959   */\ntag_48:\n    /* \"#utility.yul\":4903:4909   */\n  0x00\n    /* \"#utility.yul\":4950:4952   */\n  0x20\n    /* \"#utility.yul\":4945:4947   */\n  0x1f\n    /* \"#utility.yul\":4938:4943   */\n  dup4\n    /* \"#utility.yul\":4934:4948   */\n  add\n    /* \"#utility.yul\":4930:4953   */\n  div\n    /* \"#utility.yul\":4920:4953   */\n  swap1\n  pop\n    /* \"#utility.yul\":4866:4959   */\n  swap2\n  swap1\n  pop\n  jump\t// out\n    /* \"#utility.yul\":4965:5072   */\ntag_49:\n    /* \"#utility.yul\":5009:5017   */\n  0x00\n    /* \"#utility.yul\":5059:5064   */\n  dup3\n    /* \"#utility.yul\":5053:5057   */\n  dup3\n    /* \"#utility.yul\":5049:5065   */\n  shl\n    /* \"#utility.yul\":5028:5065   */\n  swap1\n  pop\n    /* \"#utility.yul\":4965:5072   */\n  swap3\n  swap2\n  pop\n  pop\n  jump\t// out\n    /* \"#utility.yul\":5078:5471   */\ntag_50:\n    /* \"#utility.yul\":5147:5153   */\n  0x00\n    /* \"#utility.yul\":5197:5198   */\n  0x08\n    /* \"#utility.yul\":5185:5195   */\n  dup4\n    /* \"#utility.yul\":5181:5199   */\n  mul\n    /* \"#utility.yul\":5220:5317   */\n  tag_127\n    /* \"#utility.yul\":5250:5316   */\n  0xffffffffffffffffffffffffffffffffffffffffffffffffffffffffffffffff\n    /* \"#utility.yul\":5239:5248   */\n  dup3\n    /* \"#utility.yul\":5220:5317   */\n  tag_49\n  jump\t// in\ntag_127:\n    /* \"#utility.yul\":5338:5377   */\n  tag_128\n    /* \"#utility.yul\":5368:5376   */\n  dup7\n    /* \"#utility.yul\":5357:5366   */\n  dup4\n    /* \"#utility.yul\":5338:5377   */\n  tag_49\n  jump\t// in\ntag_128:\n    /* \"#utility.yul\":5326:5377   */\n  swap6\n  pop\n    /* \"#utility.yul\":5410:5414   */\n  dup1\n    /* \"#utility.yul\":5406:5415   */\n  not\n    /* \"#utility.yul\":5399:5404   */\n  dup5\n    /* \"#utility.yul\":5395:5416   */\n  and\n    /* \"#utility.yul\":5386:5416   */\n  swap4\n  pop\n    /* \"#utility.yul\":5459:5463   */\n  dup1\n    /* \"#utility.yul\":5449:5457   */\n  dup7\n    /* \"#utility.yul\":5445:5464   */\n  and\n    /* \"#utility.yul\":5438:5443   */\n  dup5\n    /* \"#utility.yul\":5435:5465   */\n  or\n    /* \"#utility.yul\":5425:5465   */\n  swap3\n  pop\n    /* \"#utility.yul\":5154:5471   */\n  pop\n  pop\n    /* \"#utility.yul\":5078:5471   */\n  swap4\n  swap3\n  pop\n  pop\n  pop\n  jump\t// out\n    /* \"#utility.yul\":5477:5537   */\ntag_51:\n    /* \"#utility.yul\":5505:5508   */\n  0x00\n    /* \"#utility.yul\":5526:5531   */\n  dup2\n    /* \"#utility.yul\":5519:5531   */\n  swap1\n  pop\n    /* \"#utility.yul\":5477:5537   */\n  swap2\n  swap1\n  pop\n  jump\t// out\n    /* \"#utility.yul\":5543:5685   */\ntag_52:\n    /* \"#utility.yul\":5593:5602   */\n  0x00\n    /* \"#utility.yul\":5626:5679   */\n  tag_131\n    /* \"#utility.yul\":5644:5678   */\n  tag_132\n    /* \"#utility.yul\":5653:5677   */\n  tag_133\n    /* \"#utility.yul\":5671:5676   */\n  dup5\n    /* \"#utility.yul\":5653:5677   */\n  tag_41\n  jump\t// in\ntag_133:\n    /* \"#utility.yul\":5644:5678   */\n  tag_51\n  jump\t// in\ntag_132:\n    /* \"#utility.yul\":5626:5679   */\n  tag_41\n  jump\t// in\ntag_131:\n    /* \"#utility.yul\":5613:5679   */\n  swap1\n  pop\n    /* \"#utility.yul\":5543:5685   */\n  swap2\n  swap1\n  pop\n  jump\t// out\n    /* \"#utility.yul\":5691:5766   */\ntag_53:\n    /* \"#utility.yul\":5734:5737   */\n  0x00\n    /* \"#utility.yul\":5755:5760   */\n  dup2\n    /* \"#utility.yul\":5748:5760   */\n  swap1\n  pop\n    /* \"#utility.yul\":5691:5766   */\n  swap2\n  swap1\n  pop\n  jump\t// out\n    /* \"#utility.yul\":5772:6041   */\ntag_54:\n    /* \"#utility.yul\":5882:5921   */\n  tag_136\n    /* \"#utility.yul\":5913:5920   */\n  dup4\n    /* \"#utility.yul\":5882:5921   */\n  tag_52\n  jump\t// in\ntag_136:\n    /* \"#utility.yul\":5943:6034   */\n  tag_137\n    /* \"#utility.yul\":5992:6033   */\n  tag_138\n    /* \"#utility.yul\":6016:6032   */\n  dup3\n    /* \"#utility.yul\":5992:6033   */\n  tag_53\n  jump\t// in\ntag_138:\n    /* \"#utility.yul\":5984:5990   */\n  dup5\n    /* \"#utility.yul\":5977:5981   */\n  dup5\n    /* \"#utility.yul\":5971:5982   */\n  sload\n    /* \"#utility.yul\":5943:6034   */\n  tag_50\n  jump\t// in\ntag_137:\n    /* \"#utility.yul\":5937:5941   */\n  dup3\n    /* \"#utility.yul\":5930:6035   */\n  sstore\n    /* \"#utility.yul\":5848:6041   */\n  pop\n    /* \"#utility.yul\":5772:6041   */\n  pop\n  pop\n  pop\n  jump\t// out\n    /* \"#utility.yul\":6047:6120   */\ntag_55:\n    /* \"#utility.yul\":6092:6095   */\n  0x00\n    /* \"#utility.yul\":6113:6114   */\n  0x00\n    /* \"#utility.yul\":6106:6114   */\n  swap1\n  pop\n    /* \"#utility.yul\":6047:6120   */\n  swap1\n  jump\t// out\n    /* \"#utility.yul\":6126:6315   */\ntag_56:\n    /* \"#utility.yul\":6203:6235   */\n  tag_141\n  tag_55\n  jump\t// in\ntag_141:\n    /* \"#utility.yul\":6244:6309   */\n  tag_142\n    /* \"#utility.yul\":6302:6308   */\n  dup2\n    /* \"#utility.yul\":6294:6300   */\n  dup5\n    /* \"#utility.yul\":6288:6292   */\n  dup5\n    /* \"#utility.yul\":6244:6309   */\n  tag_54\n  jump\t// in\ntag_142:\n    /* \"#utility.yul\":6179:6315   */\n  pop\n    /* \"#utility.yul\":6126:6315   */\n  pop\n  pop\n  jump\t// out\n    /* \"#utility.yul\":6321:6507   */\ntag_57:\n    /* \"#utility.yul\":6381:6501   */\ntag_144:\n    /* \"#utility.yul\":6398:6401   */\n  dup2\n    /* \"#utility.yul\":6391:6396   */\n  dup2\n    /* \"#utility.yul\":6388:6402   */\n  lt\n    /* \"#utility.yul\":6381:6501   */\n  iszero\n  tag_146\n  jumpi\n    /* \"#utility.yul\":6452:6491   */\n  tag_147\n    /* \"#utility.yul\":6489:6490   */\n  0x00\n    /* \"#utility.yul\":6482:6487   */\n  dup3\n    /* \"#utility.yul\":6452:6491   */\n  tag_56\n  jump\t// in\ntag_147:\n    /* \"#utility.yul\":6425:6426   */\n  0x01\n    /* \"#utility.yul\":6418:6423   */\n  dup2\n    /* \"#utility.yul\":6414:6427   */\n  add\n    /* \"#utility.yul\":6405:6427   */\n  swap1\n  pop\n    /* \"#utility.yul\":6381:6501   */\n  jump(tag_144)\ntag_146:\n    /* \"#utility.yul\":6321:6507   */\n  pop\n  pop\n  jump\t// out\n    /* \"#utility.yul\":6513:7056   */\ntag_58:\n    /* \"#utility.yul\":6614:6616   */\n  0x1f\n    /* \"#utility.yul\":6609:6612   */\n  dup3\n    /* \"#utility.yul\":6606:6617   */\n  gt\n    /* \"#utility.yul\":6603:7049   */\n  iszero\n  tag_149\n  jumpi\n    /* \"#utility.yul\":6648:6686   */\n  tag_150\n    /* \"#utility.yul\":6680:6685   */\n  dup2\n    /* \"#utility.yul\":6648:6686   */\n  tag_47\n  jump\t// in\ntag_150:\n    /* \"#utility.yul\":6732:6761   */\n  tag_151\n    /* \"#utility.yul\":6750:6760   */\n  dup5\n    /* \"#utility.yul\":6732:6761   */\n  tag_48\n  jump\t// in\ntag_151:\n    /* \"#utility.yul\":6722:6730   */\n  dup2\n    /* \"#utility.yul\":6718:6762   */\n  add\n    /* \"#utility.yul\":6915:6917   */\n  0x20\n    /* \"#utility.yul\":6903:6913   */\n  dup6\n    /* \"#utility.yul\":6900:6918   */\n  lt\n    /* \"#utility.yul\":6897:6946   */\n  iszero\n  tag_152\n  jumpi\n    /* \"#utility.yul\":6936:6944   */\n  dup2\n    /* \"#utility.yul\":6921:6944   */\n  swap1\n  pop\n    /* \"#utility.yul\":6897:6946   */\ntag_152:\n    /* \"#utility.yul\":6959:7039   */\n  tag_153\n    /* \"#utility.yul\":7015:7037   */\n  tag_154\n    /* \"#utility.yul\":7033:7036   */\n  dup6\n    /* \"#utility.yul\":7015:7037   */\n  tag_48\n  jump\t// in\ntag_154:\n    /* \"#utility.yul\":7005:7013   */\n  dup4\n    /* \"#utility.yul\":7001:7038   */\n  add\n    /* \"#utility.yul\":6988:6999   */\n  dup3\n    /* \"#utility.yul\":6959:7039   */\n  tag_57\n  jump\t// in\ntag_153:\n    /* \"#utility.yul\":6618:7049   */\n  pop\n  pop\n    /* \"#utility.yul\":6603:7049   */\ntag_149:\n    /* \"#utility.yul\":6513:7056   */\n  pop\n  pop\n  pop\n  jump\t// out\n    /* \"#utility.yul\":7062:7179   */\ntag_59:\n    /* \"#utility.yul\":7116:7124   */\n  0x00\n    /* \"#utility.yul\":7166:7171   */\n  dup3\n    /* \"#utility.yul\":7160:7164   */\n  dup3\n    /* \"#utility.yul\":7156:7172   */\n  shr\n    /* \"#utility.yul\":7135:7172   */\n  swap1\n  pop\n    /* \"#utility.yul\":7062:7179   */\n  swap3\n  swap2\n  pop\n  pop\n  jump\t// out\n    /* \"#utility.yul\":7185:7354   */\ntag_60:\n    /* \"#utility.yul\":7229:7235   */\n  0x00\n    /* \"#utility.yul\":7262:7313   */\n  tag_157\n    /* \"#utility.yul\":7310:7311   */\n  0x00\n    /* \"#utility.yul\":7306:7312   */\n  not\n    /* \"#utility.yul\":7298:7303   */\n  dup5\n    /* \"#utility.yul\":7295:7296   */\n  0x08\n    /* \"#utility.yul\":7291:7304   */\n  mul\n    /* \"#utility.yul\":7262:7313   */\n  tag_59\n  jump\t// in\ntag_157:\n    /* \"#utility.yul\":7258:7314   */\n  not\n    /* \"#utility.yul\":7343:7347   */\n  dup1\n    /* \"#utility.yul\":7337:7341   */\n  dup4\n    /* \"#utility.yul\":7333:7348   */\n  and\n    /* \"#utility.yul\":7323:7348   */\n  swap2\n  pop\n    /* \"#utility.yul\":7236:7354   */\n  pop\n    /* \"#utility.yul\":7185:7354   */\n  swap3\n  swap2\n  pop\n  pop\n  jump\t// out\n    /* \"#utility.yul\":7359:7654   */\ntag_61:\n    /* \"#utility.yul\":7435:7439   */\n  0x00\n    /* \"#utility.yul\":7581:7610   */\n  tag_159\n    /* \"#utility.yul\":7606:7609   */\n  dup4\n    /* \"#utility.yul\":7600:7604   */\n  dup4\n    /* \"#utility.yul\":7581:7610   */\n  tag_60\n  jump\t// in\ntag_159:\n    /* \"#utility.yul\":7573:7610   */\n  swap2\n  pop\n    /* \"#utility.yul\":7643:7646   */\n  dup3\n    /* \"#utility.yul\":7640:7641   */\n  0x02\n    /* \"#utility.yul\":7636:7647   */\n  mul\n    /* \"#utility.yul\":7630:7634   */\n  dup3\n    /* \"#utility.yul\":7627:7648   */\n  or\n    /* \"#utility.yul\":7619:7648   */\n  swap1\n  pop\n    /* \"#utility.yul\":7359:7654   */\n  swap3\n  swap2\n  pop\n  pop\n  jump\t// out\n    /* \"#utility.yul\":7659:9054   */\ntag_9:\n    /* \"#utility.yul\":7776:7813   */\n  tag_161\n    /* \"#utility.yul\":7809:7812   */\n  dup3\n    /* \"#utility.yul\":7776:7813   */\n  tag_44\n  jump\t// in\ntag_161:\n    /* \"#utility.yul\":7878:7896   */\n  0xffffffffffffffff\n    /* \"#utility.yul\":7870:7876   */\n  dup2\n    /* \"#utility.yul\":7867:7897   */\n  gt\n    /* \"#utility.yul\":7864:7920   */\n  iszero\n  tag_162\n  jumpi\n    /* \"#utility.yul\":7900:7918   */\n  tag_163\n  tag_34\n  jump\t// in\ntag_163:\n    /* \"#utility.yul\":7864:7920   */\ntag_162:\n    /* \"#utility.yul\":7944:7982   */\n  tag_164\n    /* \"#utility.yul\":7976:7980   */\n  dup3\n    /* \"#utility.yul\":7970:7981   */\n  sload\n    /* \"#utility.yul\":7944:7982   */\n  tag_46\n  jump\t// in\ntag_164:\n    /* \"#utility.yul\":8029:8096   */\n  tag_165\n    /* \"#utility.yul\":8089:8095   */\n  dup3\n    /* \"#utility.yul\":8081:8087   */\n  dup3\n    /* \"#utility.yul\":8075:8079   */\n  dup6\n    /* \"#utility.yul\":8029:8096   */\n  tag_58\n  jump\t// in\ntag_165:\n    /* \"#utility.yul\":8123:8124   */\n  0x00\n    /* \"#utility.yul\":8147:8151   */\n  0x20\n    /* \"#utility.yul\":8134:8151   */\n  swap1\n  pop\n    /* \"#utility.yul\":8179:8181   */\n  0x1f\n    /* \"#utility.yul\":8171:8177   */\n  dup4\n    /* \"#utility.yul\":8168:8182   */\n  gt\n    /* \"#utility.yul\":8196:8197   */\n  0x01\n    /* \"#utility.yul\":8191:8809   */\n  dup2\n  eq\n  tag_167\n  jumpi\n    /* \"#utility.yul\":8853:8854   */\n  0x00\n    /* \"#utility.yul\":8870:8876   */\n  dup5\n    /* \"#utility.yul\":8867:8944   */\n  iszero\n  tag_168\n  jumpi\n    /* \"#utility.yul\":8919:8928   */\n  dup3\n    /* \"#utility.yul\":8914:8917   */\n  dup8\n    /* \"#utility.yul\":8910:8929   */\n  add\n    /* \"#utility.yul\":8904:8930   */\n  mload\n    /* \"#utility.yul\":8895:8930   */\n  swap1\n  pop\n    /* \"#utility.yul\":8867:8944   */\ntag_168:\n    /* \"#utility.yul\":8970:9037   */\n  tag_169\n    /* \"#utility.yul\":9030:9036   */\n  dup6\n    /* \"#utility.yul\":9023:9028   */\n  dup3\n    /* \"#utility.yul\":8970:9037   */\n  tag_61\n  jump\t// in\ntag_169:\n    /* \"#utility.yul\":8964:8968   */\n  dup7\n    /* \"#utility.yul\":8957:9038   */\n  sstore\n    /* \"#utility.yul\":8826:9048   */\n  pop\n    /* \"#utility.yul\":8161:9048   */\n  jump(tag_166)\n    /* \"#utility.yul\":8191:8809   */\ntag_167:\n    /* \"#utility.yul\":8243:8247   */\n  0x1f\n    /* \"#utility.yul\":8239:8248   */\n  not\n    /* \"#utility.yul\":8231:8237   */\n  dup5\n    /* \"#utility.yul\":8227:8249   */\n  and\n    /* \"#utility.yul\":8277:8314   */\n  tag_170\n    /* \"#utility.yul\":8309:8313   */\n  dup7\n    /* \"#utility.yul\":8277:8314   */\n  tag_47\n  jump\t// in\ntag_170:\n    /* \"#utility.yul\":8336:8337   */\n  0x00\n    /* \"#utility.yul\":8350:8558   */\ntag_171:\n    /* \"#utility.yul\":8364:8371   */\n  dup3\n    /* \"#utility.yul\":8361:8362   */\n  dup2\n    /* \"#utility.yul\":8358:8372   */\n  lt\n    /* \"#utility.yul\":8350:8558   */\n  iszero\n  tag_173\n  jumpi\n    /* \"#utility.yul\":8443:8452   */\n  dup5\n    /* \"#utility.yul\":8438:8441   */\n  dup10\n    /* \"#utility.yul\":8434:8453   */\n  add\n    /* \"#utility.yul\":8428:8454   */\n  mload\n    /* \"#utility.yul\":8420:8426   */\n  dup3\n    /* \"#utility.yul\":8413:8455   */\n  sstore\n    /* \"#utility.yul\":8494:8495   */\n  0x01\n    /* \"#utility.yul\":8486:8492   */\n  dup3\n    /* \"#utility.yul\":8482:8496   */\n  add\n    /* \"#utility.yul\":8472:8496   */\n  swap2\n  pop\n    /* \"#utility.yul\":8541:8543   */\n  0x20\n    /* \"#utility.yul\":8530:8539   */\n  dup6\n    /* \"#utility.yul\":8526:8544   */\n  add\n    /* \"#utility.yul\":8513:8544   */\n  swap5\n  pop\n    /* \"#utility.yul\":8387:8391   */\n  0x20\n    /* \"#utility.yul\":8384:8385   */\n  dup2\n    /* \"#utility.yul\":8380:8392   */\n  add\n    /* \"#utility.yul\":8375:8392   */\n  swap1\n  pop\n    /* \"#utility.yul\":8350:8558   */\n  jump(tag_171)\ntag_173:\n    /* \"#utility.yul\":8586:8592   */\n  dup7\n    /* \"#utility.yul\":8577:8584   */\n  dup4\n    /* \"#utility.yul\":8574:8593   */\n  lt\n    /* \"#utility.yul\":8571:8750   */\n  iszero\n  tag_174\n  jumpi\n    /* \"#utility.yul\":8644:8653   */\n  dup5\n    /* \"#utility.yul\":8639:8642   */\n  dup10\n    /* \"#utility.yul\":8635:8654   */\n  add\n    /* \"#utility.yul\":8629:8655   */\n  mload\n    /* \"#utility.yul\":8687:8735   */\n  tag_175\n    /* \"#utility.yul\":8729:8733   */\n  0x1f\n    /* \"#utility.yul\":8721:8727   */\n  dup10\n    /* \"#utility.yul\":8717:8734   */\n  and\n    /* \"#utility.yul\":8706:8715   */\n  dup3\n    /* \"#utility.yul\":8687:8735   */\n  tag_60\n  jump\t// in\ntag_175:\n    /* \"#utility.yul\":8679:8685   */\n  dup4\n    /* \"#utility.yul\":8672:8736   */\n  sstore\n    /* \"#utility.yul\":8594:8750   */\n  pop\n    /* \"#utility.yul\":8571:8750   */\ntag_174:\n    /* \"#utility.yul\":8796:8797   */\n  0x01\n    /* \"#utility.yul\":8792:8793   */\n  0x02\n    /* \"#utility.yul\":8784:8790   */\n  dup9\n    /* \"#utility.yul\":8780:8794   */\n  mul\n    /* \"#utility.yul\":8776:8798   */\n  add\n    /* \"#utility.yul\":8770:8774   */\n  dup9\n    /* \"#utility.yul\":8763:8799   */\n  sstore\n    /* \"#utility.yul\":8198:8809   */\n  pop\n  pop\n  pop\n    /* \"#utility.yul\":8161:9048   */\ntag_166:\n  pop\n    /* \"#utility.yul\":7751:9054   */\n  pop\n  pop\n  pop\n    /* \"#utility.yul\":7659:9054   */\n  pop\n  pop\n  jump\t// out\n    /* \"#utility.yul\":9060:9186   */\ntag_62:\n    /* \"#utility.yul\":9097:9104   */\n  0x00\n    /* \"#utility.yul\":9137:9179   */\n  0xffffffffffffffffffffffffffffffffffffffff\n    /* \"#utility.yul\":9130:9135   */\n  dup3\n    /* \"#utility.yul\":9126:9180   */\n  and\n    /* \"#utility.yul\":9115:9180   */\n  swap1\n  pop\n    /* \"#utility.yul\":9060:9186   */\n  swap2\n  swap1\n  pop\n  jump\t// out\n    /* \"#utility.yul\":9192:9288   */\ntag_63:\n    /* \"#utility.yul\":9229:9236   */\n  0x00\n    /* \"#utility.yul\":9258:9282   */\n  tag_178\n    /* \"#utility.yul\":9276:9281   */\n  dup3\n    /* \"#utility.yul\":9258:9282   */\n  tag_62\n  jump\t// in\ntag_178:\n    /* \"#utility.yul\":9247:9282   */\n  swap1\n  pop\n    /* \"#utility.yul\":9192:9288   */\n  swap2\n  swap1\n  pop\n  jump\t// out\n    /* \"#utility.yul\":9294:9412   */\ntag_64:\n    /* \"#utility.yul\":9381:9405   */\n  tag_180\n    /* \"#utility.yul\":9399:9404   */\n  dup2\n    /* \"#utility.yul\":9381:9405   */\n  tag_63\n  jump\t// in\ntag_180:\n    /* \"#utility.yul\":9376:9379   */\n  dup3\n    /* \"#utility.yul\":9369:9406   */\n  mstore\n    /* \"#utility.yul\":9294:9412   */\n  pop\n  pop\n  jump\t// out\n    /* \"#utility.yul\":9418:9640   */\ntag_14:\n    /* \"#utility.yul\":9511:9515   */\n  0x00\n    /* \"#utility.yul\":9549:9551   */\n  0x20\n    /* \"#utility.yul\":9538:9547   */\n  dup3\n    /* \"#utility.yul\":9534:9552   */\n  add\n    /* \"#utility.yul\":9526:9552   */\n  swap1\n  pop\n    /* \"#utility.yul\":9562:9633   */\n  tag_182\n    /* \"#utility.yul\":9630:9631   */\n  0x00\n    /* \"#utility.yul\":9619:9628   */\n  dup4\n    /* \"#utility.yul\":9615:9632   */\n  add\n    /* \"#utility.yul\":9606:9612   */\n  dup5\n    /* \"#utility.yul\":9562:9633   */\n  tag_64\n  jump\t// in\ntag_182:\n    /* \"#utility.yul\":9418:9640   */\n  swap3\n  swap2\n  pop\n  pop\n  jump\t// out\n    /* \"#utility.yul\":9646:9826   */\ntag_65:\n    /* \"#utility.yul\":9694:9771   */\n  0x4e487b7100000000000000000000000000000000000000000000000000000000\n    /* \"#utility.yul\":9691:9692   */\n  0x00\n    /* \"#utility.yul\":9684:9772   */\n  mstore\n    /* \"#utility.yul\":9791:9795   */\n  0x11\n    /* \"#utility.yul\":9788:9789   */\n  0x04\n    /* \"#utility.yul\":9781:9796   */\n  mstore\n    /* \"#utility.yul\":9815:9819   */\n  0x24\n    /* \"#utility.yul\":9812:9813   */\n  0x00\n    /* \"#utility.yul\":9805:9820   */\n  revert\n    /* \"#utility.yul\":9832:9934   */\ntag_66:\n    /* \"#utility.yul\":9874:9882   */\n  0x00\n    /* \"#utility.yul\":9921:9926   */\n  dup2\n    /* \"#utility.yul\":9918:9919   */\n  0x01\n    /* \"#utility.yul\":9914:9927   */\n  shr\n    /* \"#utility.yul\":9893:9927   */\n  swap1\n  pop\n    /* \"#utility.yul\":9832:9934   */\n  swap2\n  swap1\n  pop\n  jump\t// out\n    /* \"#utility.yul\":9940:10788   */\ntag_67:\n    /* \"#utility.yul\":10001:10006   */\n  0x00\n    /* \"#utility.yul\":10008:10012   */\n  0x00\n    /* \"#utility.yul\":10032:10038   */\n  dup3\n    /* \"#utility.yul\":10023:10038   */\n  swap2\n  pop\n    /* \"#utility.yul\":10056:10061   */\n  dup4\n    /* \"#utility.yul\":10047:10061   */\n  swap1\n  pop\n    /* \"#utility.yul\":10070:10782   */\ntag_186:\n    /* \"#utility.yul\":10091:10092   */\n  0x01\n    /* \"#utility.yul\":10081:10089   */\n  dup6\n    /* \"#utility.yul\":10078:10093   */\n  gt\n    /* \"#utility.yul\":10070:10782   */\n  iszero\n  tag_188\n  jumpi\n    /* \"#utility.yul\":10186:10190   */\n  dup1\n    /* \"#utility.yul\":10181:10184   */\n  dup7\n    /* \"#utility.yul\":10177:10191   */\n  div\n    /* \"#utility.yul\":10171:10175   */\n  dup2\n    /* \"#utility.yul\":10168:10192   */\n  gt\n    /* \"#utility.yul\":10165:10215   */\n  iszero\n  tag_189\n  jumpi\n    /* \"#utility.yul\":10195:10213   */\n  tag_190\n  tag_65\n  jump\t// in\ntag_190:\n    /* \"#utility.yul\":10165:10215   */\ntag_189:\n    /* \"#utility.yul\":10245:10246   */\n  0x01\n    /* \"#utility.yul\":10235:10243   */\n  dup6\n    /* \"#utility.yul\":10231:10247   */\n  and\n    /* \"#utility.yul\":10228:10679   */\n  iszero\n  tag_191\n  jumpi\n    /* \"#utility.yul\":10660:10664   */\n  dup1\n    /* \"#utility.yul\":10653:10658   */\n  dup3\n    /* \"#utility.yul\":10649:10665   */\n  mul\n    /* \"#utility.yul\":10640:10665   */\n  swap2\n  pop\n    /* \"#utility.yul\":10228:10679   */\ntag_191:\n    /* \"#utility.yul\":10710:10714   */\n  dup1\n    /* \"#utility.yul\":10704:10708   */\n  dup2\n    /* \"#utility.yul\":10700:10715   */\n  mul\n    /* \"#utility.yul\":10692:10715   */\n  swap1\n  pop\n    /* \"#utility.yul\":10740:10772   */\n  tag_192\n    /* \"#utility.yul\":10763:10771   */\n  dup6\n    /* \"#utility.yul\":10740:10772   */\n  tag_66\n  jump\t// in\ntag_192:\n    /* \"#utility.yul\":10728:10772   */\n  swap5\n  pop\n    /* \"#utility.yul\":10070:10782   */\n  jump(tag_186)\ntag_188:\n    /* \"#utility.yul\":9940:10788   */\n  swap5\n  pop\n  swap5\n  swap3\n  pop\n  pop\n  pop\n  jump\t// out\n    /* \"#utility.yul\":10794:11867   */\ntag_68:\n    /* \"#utility.yul\":10848:10853   */\n  0x00\n    /* \"#utility.yul\":11039:11047   */\n  dup3\n    /* \"#utility.yul\":11029:11069   */\n  tag_194\n  jumpi\n    /* \"#utility.yul\":11060:11061   */\n  0x01\n    /* \"#utility.yul\":11051:11061   */\n  swap1\n  pop\n    /* \"#utility.yul\":11062:11067   */\n  jump(tag_193)\n    /* \"#utility.yul\":11029:11069   */\ntag_194:\n    /* \"#utility.yul\":11088:11092   */\n  dup2\n    /* \"#utility.yul\":11078:11114   */\n  tag_195\n  jumpi\n    /* \"#utility.yul\":11105:11106   */\n  0x00\n    /* \"#utility.yul\":11096:11106   */\n  swap1\n  pop\n    /* \"#utility.yul\":11107:11112   */\n  jump(tag_193)\n    /* \"#utility.yul\":11078:11114   */\ntag_195:\n    /* \"#utility.yul\":11174:11178   */\n  dup2\n    /* \"#utility.yul\":11222:11223   */\n  0x01\n    /* \"#utility.yul\":11217:11244   */\n  dup2\n  eq\n  tag_197\n  jumpi\n    /* \"#utility.yul\":11258:11259   */\n  0x02\n    /* \"#utility.yul\":11253:11444   */\n  dup2\n  eq\n  tag_198\n  jumpi\n    /* \"#utility.yul\":11167:11444   */\n  jump(tag_196)\n    /* \"#utility.yul\":11217:11244   */\ntag_197:\n    /* \"#utility.yul\":11235:11236   */\n  0x01\n    /* \"#utility.yul\":11226:11236   */\n  swap2\n  pop\n    /* \"#utility.yul\":11237:11242   */\n  pop\n  jump(tag_193)\n    /* \"#utility.yul\":11253:11444   */\ntag_198:\n    /* \"#utility.yul\":11298:11301   */\n  0xff\n    /* \"#utility.yul\":11288:11296   */\n  dup5\n    /* \"#utility.yul\":11285:11302   */\n  gt\n    /* \"#utility.yul\":11282:11325   */\n  iszero\n  tag_199\n  jumpi\n    /* \"#utility.yul\":11305:11323   */\n  tag_200\n  tag_65\n  jump\t// in\ntag_200:\n    /* \"#utility.yul\":11282:11325   */\ntag_199:\n    /* \"#utility.yul\":11354:11362   */\n  dup4\n    /* \"#utility.yul\":11351:11352   */\n  0x02\n    /* \"#utility.yul\":11347:11363   */\n  exp\n    /* \"#utility.yul\":11338:11363   */\n  swap2\n  pop\n    /* \"#utility.yul\":11389:11392   */\n  dup5\n    /* \"#utility.yul\":11382:11387   */\n  dup3\n    /* \"#utility.yul\":11379:11393   */\n  gt\n    /* \"#utility.yul\":11376:11416   */\n  iszero\n  tag_201\n  jumpi\n    /* \"#utility.yul\":11396:11414   */\n  tag_202\n  tag_65\n  jump\t// in\ntag_202:\n    /* \"#utility.yul\":11376:11416   */\ntag_201:\n    /* \"#utility.yul\":11429:11434   */\n  pop\n  jump(tag_193)\n    /* \"#utility.yul\":11167:11444   */\ntag_196:\n  pop\n    /* \"#utility.yul\":11553:11555   */\n  0x20\n    /* \"#utility.yul\":11543:11551   */\n  dup4\n    /* \"#utility.yul\":11540:11556   */\n  lt\n    /* \"#utility.yul\":11534:11537   */\n  0x0133\n    /* \"#utility.yul\":11528:11532   */\n  dup4\n    /* \"#utility.yul\":11525:11538   */\n  lt\n    /* \"#utility.yul\":11521:11557   */\n  and\n    /* \"#utility.yul\":11503:11505   */\n  0x4e\n    /* \"#utility.yul\":11493:11501   */\n  dup5\n    /* \"#utility.yul\":11490:11506   */\n  lt\n    /* \"#utility.yul\":11485:11487   */\n  0x0b\n    /* \"#utility.yul\":11479:11483   */\n  dup5\n    /* \"#utility.yul\":11476:11488   */\n  lt\n    /* \"#utility.yul\":11472:11507   */\n  and\n    /* \"#utility.yul\":11456:11567   */\n  or\n    /* \"#utility.yul\":11453:11699   */\n  iszero\n  tag_203\n  jumpi\n    /* \"#utility.yul\":11609:11617   */\n  dup3\n    /* \"#utility.yul\":11603:11607   */\n  dup3\n    /* \"#utility.yul\":11599:11618   */\n  exp\n    /* \"#utility.yul\":11590:11618   */\n  swap1\n  pop\n    /* \"#utility.yul\":11644:11647   */\n  dup4\n    /* \"#utility.yul\":11637:11642   */\n  dup2\n    /* \"#utility.yul\":11634:11648   */\n  gt\n    /* \"#utility.yul\":11631:11671   */\n  iszero\n  tag_204\n  jumpi\n    /* \"#utility.yul\":11651:11669   */\n  tag_205\n  tag_65\n  jump\t// in\ntag_205:\n    /* \"#utility.yul\":11631:11671   */\ntag_204:\n    /* \"#utility.yul\":11684:11689   */\n  jump(tag_193)\n    /* \"#utility.yul\":11453:11699   */\ntag_203:\n    /* \"#utility.yul\":11724:11766   */\n  tag_206\n    /* \"#utility.yul\":11762:11765   */\n  dup5\n    /* \"#utility.yul\":11752:11760   */\n  dup5\n    /* \"#utility.yul\":11746:11750   */\n  dup5\n    /* \"#utility.yul\":11743:11744   */\n  0x01\n    /* \"#utility.yul\":11724:11766   */\n  tag_67\n  jump\t// in\ntag_206:\n    /* \"#utility.yul\":11709:11766   */\n  swap3\n  pop\n  swap1\n  pop\n    /* \"#utility.yul\":11798:11802   */\n  dup2\n    /* \"#utility.yul\":11793:11796   */\n  dup5\n    /* \"#utility.yul\":11789:11803   */\n  div\n    /* \"#utility.yul\":11782:11787   */\n  dup2\n    /* \"#utility.yul\":11779:11804   */\n  gt\n    /* \"#utility.yul\":11776:11827   */\n  iszero\n  tag_207\n  jumpi\n    /* \"#utility.yul\":11807:11825   */\n  tag_208\n  tag_65\n  jump\t// in\ntag_208:\n    /* \"#utility.yul\":11776:11827   */\ntag_207:\n    /* \"#utility.yul\":11856:11860   */\n  dup2\n    /* \"#utility.yul\":11849:11854   */\n  dup2\n    /* \"#utility.yul\":11845:11861   */\n  mul\n    /* \"#utility.yul\":11836:11861   */\n  swap1\n  pop\n    /* \"#utility.yul\":10794:11867   */\ntag_193:\n  swap4\n  swap3\n  pop\n  pop\n  pop\n  jump\t// out\n    /* \"#utility.yul\":11873:11959   */\ntag_69:\n    /* \"#utility.yul\":11908:11915   */\n  0x00\n    /* \"#utility.yul\":11948:11952   */\n  0xff\n    /* \"#utility.yul\":11941:11946   */\n  dup3\n    /* \"#utility.yul\":11937:11953   */\n  and\n    /* \"#utility.yul\":11926:11953   */\n  swap1\n  pop\n    /* \"#utility.yul\":11873:11959   */\n  swap2\n  swap1\n  pop\n  jump\t// out\n    /* \"#utility.yul\":11965:12246   */\ntag_21:\n    /* \"#utility.yul\":12023:12028   */\n  0x00\n    /* \"#utility.yul\":12047:12070   */\n  tag_211\n    /* \"#utility.yul\":12065:12069   */\n  dup3\n    /* \"#utility.yul\":12047:12070   */\n  tag_41\n  jump\t// in\ntag_211:\n    /* \"#utility.yul\":12039:12070   */\n  swap2\n  pop\n    /* \"#utility.yul\":12091:12116   */\n  tag_212\n    /* \"#utility.yul\":12107:12115   */\n  dup4\n    /* \"#utility.yul\":12091:12116   */\n  tag_69\n  jump\t// in\ntag_212:\n    /* \"#utility.yul\":12079:12116   */\n  swap3\n  pop\n    /* \"#utility.yul\":12135:12239   */\n  tag_213\n    /* \"#utility.yul\":12172:12238   */\n  0xffffffffffffffffffffffffffffffffffffffffffffffffffffffffffffffff\n    /* \"#utility.yul\":12162:12170   */\n  dup5\n    /* \"#utility.yul\":12156:12160   */\n  dup5\n    /* \"#utility.yul\":12135:12239   */\n  tag_68\n  jump\t// in\ntag_213:\n    /* \"#utility.yul\":12126:12239   */\n  swap1\n  pop\n    /* \"#utility.yul\":11965:12246   */\n  swap3\n  swap2\n  pop\n  pop\n  jump\t// out\n    /* \"#utility.yul\":12252:12662   */\ntag_23:\n    /* \"#utility.yul\":12292:12299   */\n  0x00\n    /* \"#utility.yul\":12315:12335   */\n  tag_215\n    /* \"#utility.yul\":12333:12334   */\n  dup3\n    /* \"#utility.yul\":12315:12335   */\n  tag_41\n  jump\t// in\ntag_215:\n    /* \"#utility.yul\":12310:12335   */\n  swap2\n  pop\n    /* \"#utility.yul\":12349:12369   */\n  tag_216\n    /* \"#utility.yul\":12367:12368   */\n  dup4\n    /* \"#utility.yul\":12349:12369   */\n  tag_41\n  jump\t// in\ntag_216:\n    /* \"#utility.yul\":12344:12369   */\n  swap3\n  pop\n    /* \"#utility.yul\":12404:12405   */\n  dup3\n    /* \"#utility.yul\":12401:12402   */\n  dup3\n    /* \"#utility.yul\":12397:12406   */\n  mul\n    /* \"#utility.yul\":12426:12456   */\n  tag_217\n    /* \"#utility.yul\":12444:12455   */\n  dup2\n    /* \"#utility.yul\":12426:12456   */\n  tag_41\n  jump\t// in\ntag_217:\n    /* \"#utility.yul\":12415:12456   */\n  swap2\n  pop\n    /* \"#utility.yul\":12605:12606   */\n  dup3\n    /* \"#utility.yul\":12596:12603   */\n  dup3\n    /* \"#utility.yul\":12592:12607   */\n  div\n    /* \"#utility.yul\":12589:12590   */\n  dup5\n    /* \"#utility.yul\":12586:12608   */\n  eq\n    /* \"#utility.yul\":12566:12567   */\n  dup4\n    /* \"#utility.yul\":12559:12568   */\n  iszero\n    /* \"#utility.yul\":12539:12622   */\n  or\n    /* \"#utility.yul\":12516:12655   */\n  tag_218\n  jumpi\n    /* \"#utility.yul\":12635:12653   */\n  tag_219\n  tag_65\n  jump\t// in\ntag_219:\n    /* \"#utility.yul\":12516:12655   */\ntag_218:\n    /* \"#utility.yul\":12300:12662   */\n  pop\n    /* \"#utility.yul\":12252:12662   */\n  swap3\n  swap2\n  pop\n  pop\n  jump\t// out\n    /* \"MintCapTime.sol\":168:1113  contract KrunalToken is ERC20, Ownable {... */\ntag_25:\n  dataSize(sub_0)\n  dup1\n  dataOffset(sub_0)\n  0x00\n  codecopy\n  0x00\n  return\nstop\n\nsub_0: assembly {\n        /* \"MintCapTime.sol\":168:1113  contract KrunalToken is ERC20, Ownable {... */\n      mstore(0x40, 0x80)\n      callvalue\n      dup1\n      iszero\n      tag_1\n      jumpi\n      revert(0x00, 0x00)\n    tag_1:\n      pop\n      jumpi(tag_2, lt(calldatasize, 0x04))\n      shr(0xe0, calldataload(0x00))\n      dup1\n      0x70a08231\n      gt\n      tag_20\n      jumpi\n      dup1\n      0xa7d68896\n      gt\n      tag_21\n      jumpi\n      dup1\n      0xa7d68896\n      eq\n      tag_15\n      jumpi\n      dup1\n      0xa9059cbb\n      eq\n      tag_16\n      jumpi\n      dup1\n      0xdd62ed3e\n      eq\n      tag_17\n      jumpi\n      dup1\n      0xecda10f5\n      eq\n      tag_18\n      jumpi\n      dup1\n      0xf2fde38b\n      eq\n      tag_19\n      jumpi\n      jump(tag_2)\n    tag_21:\n      dup1\n      0x70a08231\n      eq\n      tag_11\n      jumpi\n      dup1\n      0x715018a6\n      eq\n      tag_12\n      jumpi\n      dup1\n      0x8da5cb5b\n      eq\n      tag_13\n      jumpi\n      dup1\n      0x95d89b41\n      eq\n      tag_14\n      jumpi\n      jump(tag_2)\n    tag_20:\n      dup1\n      0x313ce567\n      gt\n      tag_22\n      jumpi\n      dup1\n      0x313ce567\n      eq\n      tag_7\n      jumpi\n      dup1\n      0x355274ea\n      eq\n      tag_8\n      jumpi\n      dup1\n      0x40c10f19\n      eq\n      tag_9\n      jumpi\n      dup1\n      0x55012685\n      eq\n      tag_10\n      jumpi\n      jump(tag_2)\n    tag_22:\n      dup1\n      0x06fdde03\n      eq\n      tag_3\n      jumpi\n      dup1\n      0x095ea7b3\n      eq\n      tag_4\n      jumpi\n      dup1\n      0x18160ddd\n      eq\n      tag_5\n      jumpi\n      dup1\n      0x23b872dd\n      eq\n      tag_6\n      jumpi\n    tag_2:\n      revert(0x00, 0x00)\n        /* \"@openzeppelin/contracts/token/ERC20/ERC20.sol\":1760:1849  function name() public view virtual returns (string memory) {... */\n    tag_3:\n      tag_23\n      tag_24\n      jump\t// in\n    tag_23:\n      mload(0x40)\n      tag_25\n      swap2\n      swap1\n      tag_26\n      jump\t// in\n    tag_25:\n      mload(0x40)\n      dup1\n      swap2\n      sub\n      swap1\n      return\n        /* \"@openzeppelin/contracts/token/ERC20/ERC20.sol\":3979:4165  function approve(address spender, uint256 value) public virtual returns (bool) {... */\n    tag_4:\n      tag_27\n      0x04\n      dup1\n      calldatasize\n      sub\n      dup2\n      add\n      swap1\n      tag_28\n      swap2\n      swap1\n      tag_29\n      jump\t// in\n    tag_28:\n      tag_30\n      jump\t// in\n    tag_27:\n      mload(0x40)\n      tag_31\n      swap2\n      swap1\n      tag_32\n      jump\t// in\n    tag_31:\n      mload(0x40)\n      dup1\n      swap2\n      sub\n      swap1\n      return\n        /* \"@openzeppelin/contracts/token/ERC20/ERC20.sol\":2830:2927  function totalSupply() public view virtual returns (uint256) {... */\n    tag_5:\n      tag_33\n      tag_34\n      jump\t// in\n    tag_33:\n      mload(0x40)\n      tag_35\n      swap2\n      swap1\n      tag_36\n      jump\t// in\n    tag_35:\n      mload(0x40)\n      dup1\n      swap2\n      sub\n      swap1\n      return\n        /* \"@openzeppelin/contracts/token/ERC20/ERC20.sol\":4757:5001  function transferFrom(address from, address to, uint256 value) public virtual returns (bool) {... */\n    tag_6:\n      tag_37\n      0x04\n      dup1\n      calldatasize\n      sub\n      dup2\n      add\n      swap1\n      tag_38\n      swap2\n      swap1\n      tag_39\n      jump\t// in\n    tag_38:\n      tag_40\n      jump\t// in\n    tag_37:\n      mload(0x40)\n      tag_41\n      swap2\n      swap1\n      tag_32\n      jump\t// in\n    tag_41:\n      mload(0x40)\n      dup1\n      swap2\n      sub\n      swap1\n      return\n        /* \"@openzeppelin/contracts/token/ERC20/ERC20.sol\":2688:2770  function decimals() public view virtual returns (uint8) {... */\n    tag_7:\n      tag_42\n      tag_43\n      jump\t// in\n    tag_42:\n      mload(0x40)\n      tag_44\n      swap2\n      swap1\n      tag_45\n      jump\t// in\n    tag_44:\n      mload(0x40)\n      dup1\n      swap2\n      sub\n      swap1\n      return\n        /* \"MintCapTime.sol\":213:231  uint256 public cap */\n    tag_8:\n      tag_46\n      tag_47\n      jump\t// in\n    tag_46:\n      mload(0x40)\n      tag_48\n      swap2\n      swap1\n      tag_36\n      jump\t// in\n    tag_48:\n      mload(0x40)\n      dup1\n      swap2\n      sub\n      swap1\n      return\n        /* \"MintCapTime.sol\":861:1111  function mint(address to, uint256 amount) public onlyOwner {... */\n    tag_9:\n      tag_49\n      0x04\n      dup1\n      calldatasize\n      sub\n      dup2\n      add\n      swap1\n      tag_50\n      swap2\n      swap1\n      tag_29\n      jump\t// in\n    tag_50:\n      tag_51\n      jump\t// in\n    tag_49:\n      stop\n        /* \"MintCapTime.sol\":272:300  uint256 public mintTimeLimit */\n    tag_10:\n      tag_52\n      tag_53\n      jump\t// in\n    tag_52:\n      mload(0x40)\n      tag_54\n      swap2\n      swap1\n      tag_36\n      jump\t// in\n    tag_54:\n      mload(0x40)\n      dup1\n      swap2\n      sub\n      swap1\n      return\n        /* \"@openzeppelin/contracts/token/ERC20/ERC20.sol\":2985:3101  function balanceOf(address account) public view virtual returns (uint256) {... */\n    tag_11:\n      tag_55\n      0x04\n      dup1\n      calldatasize\n      sub\n      dup2\n      add\n      swap1\n      tag_56\n      swap2\n      swap1\n      tag_57\n      jump\t// in\n    tag_56:\n      tag_58\n      jump\t// in\n    tag_55:\n      mload(0x40)\n      tag_59\n      swap2\n      swap1\n      tag_36\n      jump\t// in\n    tag_59:\n      mload(0x40)\n      dup1\n      swap2\n      sub\n      swap1\n      return\n        /* \"@openzeppelin/contracts/access/Ownable.sol\":2293:2394  function renounceOwnership() public virtual onlyOwner {... */\n    tag_12:\n      tag_60\n      tag_61\n      jump\t// in\n    tag_60:\n      stop\n        /* \"@openzeppelin/contracts/access/Ownable.sol\":1638:1723  function owner() public view virtual returns (address) {... */\n    tag_13:\n      tag_62\n      tag_63\n      jump\t// in\n    tag_62:\n      mload(0x40)\n      tag_64\n      swap2\n      swap1\n      tag_65\n      jump\t// in\n    tag_64:\n      mload(0x40)\n      dup1\n      swap2\n      sub\n      swap1\n      return\n        /* \"@openzeppelin/contracts/token/ERC20/ERC20.sol\":1962:2055  function symbol() public view virtual returns (string memory) {... */\n    tag_14:\n      tag_66\n      tag_67\n      jump\t// in\n    tag_66:\n      mload(0x40)\n      tag_68\n      swap2\n      swap1\n      tag_26\n      jump\t// in\n    tag_68:\n      mload(0x40)\n      dup1\n      swap2\n      sub\n      swap1\n      return\n        /* \"MintCapTime.sol\":716:855  function updateCap(uint256 newCap) public onlyOwner {... */\n    tag_15:\n      tag_69\n      0x04\n      dup1\n      calldatasize\n      sub\n      dup2\n      add\n      swap1\n      tag_70\n      swap2\n      swap1\n      tag_71\n      jump\t// in\n    tag_70:\n      tag_72\n      jump\t// in\n    tag_69:\n      stop\n        /* \"@openzeppelin/contracts/token/ERC20/ERC20.sol\":3296:3474  function transfer(address to, uint256 value) public virtual returns (bool) {... */\n    tag_16:\n      tag_73\n      0x04\n      dup1\n      calldatasize\n      sub\n      dup2\n      add\n      swap1\n      tag_74\n      swap2\n      swap1\n      tag_29\n      jump\t// in\n    tag_74:\n      tag_75\n      jump\t// in\n    tag_73:\n      mload(0x40)\n      tag_76\n      swap2\n      swap1\n      tag_32\n      jump\t// in\n    tag_76:\n      mload(0x40)\n      dup1\n      swap2\n      sub\n      swap1\n      return\n        /* \"@openzeppelin/contracts/token/ERC20/ERC20.sol\":3532:3672  function allowance(address owner, address spender) public view virtual returns (uint256) {... */\n    tag_17:\n      tag_77\n      0x04\n      dup1\n      calldatasize\n      sub\n      dup2\n      add\n      swap1\n      tag_78\n      swap2\n      swap1\n      tag_79\n      jump\t// in\n    tag_78:\n      tag_80\n      jump\t// in\n    tag_77:\n      mload(0x40)\n      tag_81\n      swap2\n      swap1\n      tag_36\n      jump\t// in\n    tag_81:\n      mload(0x40)\n      dup1\n      swap2\n      sub\n      swap1\n      return\n        /* \"MintCapTime.sol\":237:266  uint256 public deploymentTime */\n    tag_18:\n      tag_82\n      tag_83\n      jump\t// in\n    tag_82:\n      mload(0x40)\n      tag_84\n      swap2\n      swap1\n      tag_36\n      jump\t// in\n    tag_84:\n      mload(0x40)\n      dup1\n      swap2\n      sub\n      swap1\n      return\n        /* \"@openzeppelin/contracts/access/Ownable.sol\":2543:2758  function transferOwnership(address newOwner) public virtual onlyOwner {... */\n    tag_19:\n      tag_85\n      0x04\n      dup1\n      calldatasize\n      sub\n      dup2\n      add\n      swap1\n      tag_86\n      swap2\n      swap1\n      tag_57\n      jump\t// in\n    tag_86:\n      tag_87\n      jump\t// in\n    tag_85:\n      stop\n        /* \"@openzeppelin/contracts/token/ERC20/ERC20.sol\":1760:1849  function name() public view virtual returns (string memory) {... */\n    tag_24:\n        /* \"@openzeppelin/contracts/token/ERC20/ERC20.sol\":1805:1818  string memory */\n      0x60\n        /* \"@openzeppelin/contracts/token/ERC20/ERC20.sol\":1837:1842  _name */\n      0x03\n        /* \"@openzeppelin/contracts/token/ERC20/ERC20.sol\":1830:1842  return _name */\n      dup1\n      sload\n      tag_89\n      swap1\n      tag_90\n      jump\t// in\n    tag_89:\n      dup1\n      0x1f\n      add\n      0x20\n      dup1\n      swap2\n      div\n      mul\n      0x20\n      add\n      mload(0x40)\n      swap1\n      dup2\n      add\n      0x40\n      mstore\n      dup1\n      swap3\n      swap2\n      swap1\n      dup2\n      dup2\n      mstore\n      0x20\n      add\n      dup3\n      dup1\n      sload\n      tag_91\n      swap1\n      tag_90\n      jump\t// in\n    tag_91:\n      dup1\n      iszero\n      tag_92\n      jumpi\n      dup1\n      0x1f\n      lt\n      tag_93\n      jumpi\n      0x0100\n      dup1\n      dup4\n      sload\n      div\n      mul\n      dup4\n      mstore\n      swap2\n      0x20\n      add\n      swap2\n      jump(tag_92)\n    tag_93:\n      dup3\n      add\n      swap2\n      swap1\n      0x00\n      mstore\n      keccak256(0x00, 0x20)\n      swap1\n    tag_94:\n      dup2\n      sload\n      dup2\n      mstore\n      swap1\n      0x01\n      add\n      swap1\n      0x20\n      add\n      dup1\n      dup4\n      gt\n      tag_94\n      jumpi\n      dup3\n      swap1\n      sub\n      0x1f\n      and\n      dup3\n      add\n      swap2\n    tag_92:\n      pop\n      pop\n      pop\n      pop\n      pop\n      swap1\n      pop\n        /* \"@openzeppelin/contracts/token/ERC20/ERC20.sol\":1760:1849  function name() public view virtual returns (string memory) {... */\n      swap1\n      jump\t// out\n        /* \"@openzeppelin/contracts/token/ERC20/ERC20.sol\":3979:4165  function approve(address spender, uint256 value) public virtual returns (bool) {... */\n    tag_30:\n        /* \"@openzeppelin/contracts/token/ERC20/ERC20.sol\":4052:4056  bool */\n      0x00\n        /* \"@openzeppelin/contracts/token/ERC20/ERC20.sol\":4068:4081  address owner */\n      0x00\n        /* \"@openzeppelin/contracts/token/ERC20/ERC20.sol\":4084:4096  _msgSender() */\n      tag_96\n        /* \"@openzeppelin/contracts/token/ERC20/ERC20.sol\":4084:4094  _msgSender */\n      tag_97\n        /* \"@openzeppelin/contracts/token/ERC20/ERC20.sol\":4084:4096  _msgSender() */\n      jump\t// in\n    tag_96:\n        /* \"@openzeppelin/contracts/token/ERC20/ERC20.sol\":4068:4096  address owner = _msgSender() */\n      swap1\n      pop\n        /* \"@openzeppelin/contracts/token/ERC20/ERC20.sol\":4106:4137  _approve(owner, spender, value) */\n      tag_98\n        /* \"@openzeppelin/contracts/token/ERC20/ERC20.sol\":4115:4120  owner */\n      dup2\n        /* \"@openzeppelin/contracts/token/ERC20/ERC20.sol\":4122:4129  spender */\n      dup6\n        /* \"@openzeppelin/contracts/token/ERC20/ERC20.sol\":4131:4136  value */\n      dup6\n        /* \"@openzeppelin/contracts/token/ERC20/ERC20.sol\":4106:4114  _approve */\n      tag_99\n        /* \"@openzeppelin/contracts/token/ERC20/ERC20.sol\":4106:4137  _approve(owner, spender, value) */\n      jump\t// in\n    tag_98:\n        /* \"@openzeppelin/contracts/token/ERC20/ERC20.sol\":4154:4158  true */\n      0x01\n        /* \"@openzeppelin/contracts/token/ERC20/ERC20.sol\":4147:4158  return true */\n      swap2\n      pop\n      pop\n        /* \"@openzeppelin/contracts/token/ERC20/ERC20.sol\":3979:4165  function approve(address spender, uint256 value) public virtual returns (bool) {... */\n      swap3\n      swap2\n      pop\n      pop\n      jump\t// out\n        /* \"@openzeppelin/contracts/token/ERC20/ERC20.sol\":2830:2927  function totalSupply() public view virtual returns (uint256) {... */\n    tag_34:\n        /* \"@openzeppelin/contracts/token/ERC20/ERC20.sol\":2882:2889  uint256 */\n      0x00\n        /* \"@openzeppelin/contracts/token/ERC20/ERC20.sol\":2908:2920  _totalSupply */\n      sload(0x02)\n        /* \"@openzeppelin/contracts/token/ERC20/ERC20.sol\":2901:2920  return _totalSupply */\n      swap1\n      pop\n        /* \"@openzeppelin/contracts/token/ERC20/ERC20.sol\":2830:2927  function totalSupply() public view virtual returns (uint256) {... */\n      swap1\n      jump\t// out\n        /* \"@openzeppelin/contracts/token/ERC20/ERC20.sol\":4757:5001  function transferFrom(address from, address to, uint256 value) public virtual returns (bool) {... */\n    tag_40:\n        /* \"@openzeppelin/contracts/token/ERC20/ERC20.sol\":4844:4848  bool */\n      0x00\n        /* \"@openzeppelin/contracts/token/ERC20/ERC20.sol\":4860:4875  address spender */\n      0x00\n        /* \"@openzeppelin/contracts/token/ERC20/ERC20.sol\":4878:4890  _msgSender() */\n      tag_102\n        /* \"@openzeppelin/contracts/token/ERC20/ERC20.sol\":4878:4888  _msgSender */\n      tag_97\n        /* \"@openzeppelin/contracts/token/ERC20/ERC20.sol\":4878:4890  _msgSender() */\n      jump\t// in\n    tag_102:\n        /* \"@openzeppelin/contracts/token/ERC20/ERC20.sol\":4860:4890  address spender = _msgSender() */\n      swap1\n      pop\n        /* \"@openzeppelin/contracts/token/ERC20/ERC20.sol\":4900:4937  _spendAllowance(from, spender, value) */\n      tag_103\n        /* \"@openzeppelin/contracts/token/ERC20/ERC20.sol\":4916:4920  from */\n      dup6\n        /* \"@openzeppelin/contracts/token/ERC20/ERC20.sol\":4922:4929  spender */\n      dup3\n        /* \"@openzeppelin/contracts/token/ERC20/ERC20.sol\":4931:4936  value */\n      dup6\n        /* \"@openzeppelin/contracts/token/ERC20/ERC20.sol\":4900:4915  _spendAllowance */\n      tag_104\n        /* \"@openzeppelin/contracts/token/ERC20/ERC20.sol\":4900:4937  _spendAllowance(from, spender, value) */\n      jump\t// in\n    tag_103:\n        /* \"@openzeppelin/contracts/token/ERC20/ERC20.sol\":4947:4973  _transfer(from, to, value) */\n      tag_105\n        /* \"@openzeppelin/contracts/token/ERC20/ERC20.sol\":4957:4961  from */\n      dup6\n        /* \"@openzeppelin/contracts/token/ERC20/ERC20.sol\":4963:4965  to */\n      dup6\n        /* \"@openzeppelin/contracts/token/ERC20/ERC20.sol\":4967:4972  value */\n      dup6\n        /* \"@openzeppelin/contracts/token/ERC20/ERC20.sol\":4947:4956  _transfer */\n      tag_106\n        /* \"@openzeppelin/contracts/token/ERC20/ERC20.sol\":4947:4973  _transfer(from, to, value) */\n      jump\t// in\n    tag_105:\n        /* \"@openzeppelin/contracts/token/ERC20/ERC20.sol\":4990:4994  true */\n      0x01\n        /* \"@openzeppelin/contracts/token/ERC20/ERC20.sol\":4983:4994  return true */\n      swap2\n      pop\n      pop\n        /* \"@openzeppelin/contracts/token/ERC20/ERC20.sol\":4757:5001  function transferFrom(address from, address to, uint256 value) public virtual returns (bool) {... */\n      swap4\n      swap3\n      pop\n      pop\n      pop\n      jump\t// out\n        /* \"@openzeppelin/contracts/token/ERC20/ERC20.sol\":2688:2770  function decimals() public view virtual returns (uint8) {... */\n    tag_43:\n        /* \"@openzeppelin/contracts/token/ERC20/ERC20.sol\":2737:2742  uint8 */\n      0x00\n        /* \"@openzeppelin/contracts/token/ERC20/ERC20.sol\":2761:2763  18 */\n      0x12\n        /* \"@openzeppelin/contracts/token/ERC20/ERC20.sol\":2754:2763  return 18 */\n      swap1\n      pop\n        /* \"@openzeppelin/contracts/token/ERC20/ERC20.sol\":2688:2770  function decimals() public view virtual returns (uint8) {... */\n      swap1\n      jump\t// out\n        /* \"MintCapTime.sol\":213:231  uint256 public cap */\n    tag_47:\n      sload(0x06)\n      dup2\n      jump\t// out\n        /* \"MintCapTime.sol\":861:1111  function mint(address to, uint256 amount) public onlyOwner {... */\n    tag_51:\n        /* \"@openzeppelin/contracts/access/Ownable.sol\":1531:1544  _checkOwner() */\n      tag_109\n        /* \"@openzeppelin/contracts/access/Ownable.sol\":1531:1542  _checkOwner */\n      tag_110\n        /* \"@openzeppelin/contracts/access/Ownable.sol\":1531:1544  _checkOwner() */\n      jump\t// in\n    tag_109:\n        /* \"MintCapTime.sol\":974:987  mintTimeLimit */\n      sload(0x08)\n        /* \"MintCapTime.sol\":957:971  deploymentTime */\n      sload(0x07)\n        /* \"MintCapTime.sol\":957:987  deploymentTime + mintTimeLimit */\n      tag_112\n      swap2\n      swap1\n      tag_113\n      jump\t// in\n    tag_112:\n        /* \"MintCapTime.sol\":938:953  block.timestamp */\n      timestamp\n        /* \"MintCapTime.sol\":938:987  block.timestamp <= deploymentTime + mintTimeLimit */\n      gt\n      iszero\n        /* \"MintCapTime.sol\":930:1014  require(block.timestamp <= deploymentTime + mintTimeLimit, \"Minting period expired\") */\n      tag_114\n      jumpi\n      mload(0x40)\n      0x08c379a000000000000000000000000000000000000000000000000000000000\n      dup2\n      mstore\n      0x04\n      add\n      tag_115\n      swap1\n      tag_116\n      jump\t// in\n    tag_115:\n      mload(0x40)\n      dup1\n      swap2\n      sub\n      swap1\n      revert\n    tag_114:\n        /* \"MintCapTime.sol\":1058:1061  cap */\n      sload(0x06)\n        /* \"MintCapTime.sol\":1048:1054  amount */\n      dup2\n        /* \"MintCapTime.sol\":1032:1045  totalSupply() */\n      tag_117\n        /* \"MintCapTime.sol\":1032:1043  totalSupply */\n      tag_34\n        /* \"MintCapTime.sol\":1032:1045  totalSupply() */\n      jump\t// in\n    tag_117:\n        /* \"MintCapTime.sol\":1032:1054  totalSupply() + amount */\n      tag_118\n      swap2\n      swap1\n      tag_113\n      jump\t// in\n    tag_118:\n        /* \"MintCapTime.sol\":1032:1061  totalSupply() + amount <= cap */\n      gt\n      iszero\n        /* \"MintCapTime.sol\":1024:1077  require(totalSupply() + amount <= cap, \"Exceeds cap\") */\n      tag_119\n      jumpi\n      mload(0x40)\n      0x08c379a000000000000000000000000000000000000000000000000000000000\n      dup2\n      mstore\n      0x04\n      add\n      tag_120\n      swap1\n      tag_121\n      jump\t// in\n    tag_120:\n      mload(0x40)\n      dup1\n      swap2\n      sub\n      swap1\n      revert\n    tag_119:\n        /* \"MintCapTime.sol\":1087:1104  _mint(to, amount) */\n      tag_122\n        /* \"MintCapTime.sol\":1093:1095  to */\n      dup3\n        /* \"MintCapTime.sol\":1097:1103  amount */\n      dup3\n        /* \"MintCapTime.sol\":1087:1092  _mint */\n      tag_123\n        /* \"MintCapTime.sol\":1087:1104  _mint(to, amount) */\n      jump\t// in\n    tag_122:\n        /* \"MintCapTime.sol\":861:1111  function mint(address to, uint256 amount) public onlyOwner {... */\n      pop\n      pop\n      jump\t// out\n        /* \"MintCapTime.sol\":272:300  uint256 public mintTimeLimit */\n    tag_53:\n      sload(0x08)\n      dup2\n      jump\t// out\n        /* \"@openzeppelin/contracts/token/ERC20/ERC20.sol\":2985:3101  function balanceOf(address account) public view virtual returns (uint256) {... */\n    tag_58:\n        /* \"@openzeppelin/contracts/token/ERC20/ERC20.sol\":3050:3057  uint256 */\n      0x00\n        /* \"@openzeppelin/contracts/token/ERC20/ERC20.sol\":3076:3085  _balances */\n      0x00\n        /* \"@openzeppelin/contracts/token/ERC20/ERC20.sol\":3076:3094  _balances[account] */\n      0x00\n        /* \"@openzeppelin/contracts/token/ERC20/ERC20.sol\":3086:3093  account */\n      dup4\n        /* \"@openzeppelin/contracts/token/ERC20/ERC20.sol\":3076:3094  _balances[account] */\n      0xffffffffffffffffffffffffffffffffffffffff\n      and\n      0xffffffffffffffffffffffffffffffffffffffff\n      and\n      dup2\n      mstore\n      0x20\n      add\n      swap1\n      dup2\n      mstore\n      0x20\n      add\n      0x00\n      keccak256\n      sload\n        /* \"@openzeppelin/contracts/token/ERC20/ERC20.sol\":3069:3094  return _balances[account] */\n      swap1\n      pop\n        /* \"@openzeppelin/contracts/token/ERC20/ERC20.sol\":2985:3101  function balanceOf(address account) public view virtual returns (uint256) {... */\n      swap2\n      swap1\n      pop\n      jump\t// out\n        /* \"@openzeppelin/contracts/access/Ownable.sol\":2293:2394  function renounceOwnership() public virtual onlyOwner {... */\n    tag_61:\n        /* \"@openzeppelin/contracts/access/Ownable.sol\":1531:1544  _checkOwner() */\n      tag_126\n        /* \"@openzeppelin/contracts/access/Ownable.sol\":1531:1542  _checkOwner */\n      tag_110\n        /* \"@openzeppelin/contracts/access/Ownable.sol\":1531:1544  _checkOwner() */\n      jump\t// in\n    tag_126:\n        /* \"@openzeppelin/contracts/access/Ownable.sol\":2357:2387  _transferOwnership(address(0)) */\n      tag_128\n        /* \"@openzeppelin/contracts/access/Ownable.sol\":2384:2385  0 */\n      0x00\n        /* \"@openzeppelin/contracts/access/Ownable.sol\":2357:2375  _transferOwnership */\n      tag_129\n        /* \"@openzeppelin/contracts/access/Ownable.sol\":2357:2387  _transferOwnership(address(0)) */\n      jump\t// in\n    tag_128:\n        /* \"@openzeppelin/contracts/access/Ownable.sol\":2293:2394  function renounceOwnership() public virtual onlyOwner {... */\n      jump\t// out\n        /* \"@openzeppelin/contracts/access/Ownable.sol\":1638:1723  function owner() public view virtual returns (address) {... */\n    tag_63:\n        /* \"@openzeppelin/contracts/access/Ownable.sol\":1684:1691  address */\n      0x00\n        /* \"@openzeppelin/contracts/access/Ownable.sol\":1710:1716  _owner */\n      0x05\n      0x00\n      swap1\n      sload\n      swap1\n      0x0100\n      exp\n      swap1\n      div\n      0xffffffffffffffffffffffffffffffffffffffff\n      and\n        /* \"@openzeppelin/contracts/access/Ownable.sol\":1703:1716  return _owner */\n      swap1\n      pop\n        /* \"@openzeppelin/contracts/access/Ownable.sol\":1638:1723  function owner() public view virtual returns (address) {... */\n      swap1\n      jump\t// out\n        /* \"@openzeppelin/contracts/token/ERC20/ERC20.sol\":1962:2055  function symbol() public view virtual returns (string memory) {... */\n    tag_67:\n        /* \"@openzeppelin/contracts/token/ERC20/ERC20.sol\":2009:2022  string memory */\n      0x60\n        /* \"@openzeppelin/contracts/token/ERC20/ERC20.sol\":2041:2048  _symbol */\n      0x04\n        /* \"@openzeppelin/contracts/token/ERC20/ERC20.sol\":2034:2048  return _symbol */\n      dup1\n      sload\n      tag_132\n      swap1\n      tag_90\n      jump\t// in\n    tag_132:\n      dup1\n      0x1f\n      add\n      0x20\n      dup1\n      swap2\n      div\n      mul\n      0x20\n      add\n      mload(0x40)\n      swap1\n      dup2\n      add\n      0x40\n      mstore\n      dup1\n      swap3\n      swap2\n      swap1\n      dup2\n      dup2\n      mstore\n      0x20\n      add\n      dup3\n      dup1\n      sload\n      tag_133\n      swap1\n      tag_90\n      jump\t// in\n    tag_133:\n      dup1\n      iszero\n      tag_134\n      jumpi\n      dup1\n      0x1f\n      lt\n      tag_135\n      jumpi\n      0x0100\n      dup1\n      dup4\n      sload\n      div\n      mul\n      dup4\n      mstore\n      swap2\n      0x20\n      add\n      swap2\n      jump(tag_134)\n    tag_135:\n      dup3\n      add\n      swap2\n      swap1\n      0x00\n      mstore\n      keccak256(0x00, 0x20)\n      swap1\n    tag_136:\n      dup2\n      sload\n      dup2\n      mstore\n      swap1\n      0x01\n      add\n      swap1\n      0x20\n      add\n      dup1\n      dup4\n      gt\n      tag_136\n      jumpi\n      dup3\n      swap1\n      sub\n      0x1f\n      and\n      dup3\n      add\n      swap2\n    tag_134:\n      pop\n      pop\n      pop\n      pop\n      pop\n      swap1\n      pop\n        /* \"@openzeppelin/contracts/token/ERC20/ERC20.sol\":1962:2055  function symbol() public view virtual returns (string memory) {... */\n      swap1\n      jump\t// out\n        /* \"MintCapTime.sol\":716:855  function updateCap(uint256 newCap) public onlyOwner {... */\n    tag_72:\n        /* \"@openzeppelin/contracts/access/Ownable.sol\":1531:1544  _checkOwner() */\n      tag_138\n        /* \"@openzeppelin/contracts/access/Ownable.sol\":1531:1542  _checkOwner */\n      tag_110\n        /* \"@openzeppelin/contracts/access/Ownable.sol\":1531:1544  _checkOwner() */\n      jump\t// in\n    tag_138:\n        /* \"MintCapTime.sol\":795:798  cap */\n      sload(0x06)\n        /* \"MintCapTime.sol\":786:792  newCap */\n      dup2\n        /* \"MintCapTime.sol\":786:798  newCap > cap */\n      gt\n        /* \"MintCapTime.sol\":778:826  require(newCap > cap, \"New cap must be greater\") */\n      tag_140\n      jumpi\n      mload(0x40)\n      0x08c379a000000000000000000000000000000000000000000000000000000000\n      dup2\n      mstore\n      0x04\n      add\n      tag_141\n      swap1\n      tag_142\n      jump\t// in\n    tag_141:\n      mload(0x40)\n      dup1\n      swap2\n      sub\n      swap1\n      revert\n    tag_140:\n        /* \"MintCapTime.sol\":842:848  newCap */\n      dup1\n        /* \"MintCapTime.sol\":836:839  cap */\n      0x06\n        /* \"MintCapTime.sol\":836:848  cap = newCap */\n      dup2\n      swap1\n      sstore\n      pop\n        /* \"MintCapTime.sol\":716:855  function updateCap(uint256 newCap) public onlyOwner {... */\n      pop\n      jump\t// out\n        /* \"@openzeppelin/contracts/token/ERC20/ERC20.sol\":3296:3474  function transfer(address to, uint256 value) public virtual returns (bool) {... */\n    tag_75:\n        /* \"@openzeppelin/contracts/token/ERC20/ERC20.sol\":3365:3369  bool */\n      0x00\n        /* \"@openzeppelin/contracts/token/ERC20/ERC20.sol\":3381:3394  address owner */\n      0x00\n        /* \"@openzeppelin/contracts/token/ERC20/ERC20.sol\":3397:3409  _msgSender() */\n      tag_144\n        /* \"@openzeppelin/contracts/token/ERC20/ERC20.sol\":3397:3407  _msgSender */\n      tag_97\n        /* \"@openzeppelin/contracts/token/ERC20/ERC20.sol\":3397:3409  _msgSender() */\n      jump\t// in\n    tag_144:\n        /* \"@openzeppelin/contracts/token/ERC20/ERC20.sol\":3381:3409  address owner = _msgSender() */\n      swap1\n      pop\n        /* \"@openzeppelin/contracts/token/ERC20/ERC20.sol\":3419:3446  _transfer(owner, to, value) */\n      tag_145\n        /* \"@openzeppelin/contracts/token/ERC20/ERC20.sol\":3429:3434  owner */\n      dup2\n        /* \"@openzeppelin/contracts/token/ERC20/ERC20.sol\":3436:3438  to */\n      dup6\n        /* \"@openzeppelin/contracts/token/ERC20/ERC20.sol\":3440:3445  value */\n      dup6\n        /* \"@openzeppelin/contracts/token/ERC20/ERC20.sol\":3419:3428  _transfer */\n      tag_106\n        /* \"@openzeppelin/contracts/token/ERC20/ERC20.sol\":3419:3446  _transfer(owner, to, value) */\n      jump\t// in\n    tag_145:\n        /* \"@openzeppelin/contracts/token/ERC20/ERC20.sol\":3463:3467  true */\n      0x01\n        /* \"@openzeppelin/contracts/token/ERC20/ERC20.sol\":3456:3467  return true */\n      swap2\n      pop\n      pop\n        /* \"@openzeppelin/contracts/token/ERC20/ERC20.sol\":3296:3474  function transfer(address to, uint256 value) public virtual returns (bool) {... */\n      swap3\n      swap2\n      pop\n      pop\n      jump\t// out\n        /* \"@openzeppelin/contracts/token/ERC20/ERC20.sol\":3532:3672  function allowance(address owner, address spender) public view virtual returns (uint256) {... */\n    tag_80:\n        /* \"@openzeppelin/contracts/token/ERC20/ERC20.sol\":3612:3619  uint256 */\n      0x00\n        /* \"@openzeppelin/contracts/token/ERC20/ERC20.sol\":3638:3649  _allowances */\n      0x01\n        /* \"@openzeppelin/contracts/token/ERC20/ERC20.sol\":3638:3656  _allowances[owner] */\n      0x00\n        /* \"@openzeppelin/contracts/token/ERC20/ERC20.sol\":3650:3655  owner */\n      dup5\n        /* \"@openzeppelin/contracts/token/ERC20/ERC20.sol\":3638:3656  _allowances[owner] */\n      0xffffffffffffffffffffffffffffffffffffffff\n      and\n      0xffffffffffffffffffffffffffffffffffffffff\n      and\n      dup2\n      mstore\n      0x20\n      add\n      swap1\n      dup2\n      mstore\n      0x20\n      add\n      0x00\n      keccak256\n        /* \"@openzeppelin/contracts/token/ERC20/ERC20.sol\":3638:3665  _allowances[owner][spender] */\n      0x00\n        /* \"@openzeppelin/contracts/token/ERC20/ERC20.sol\":3657:3664  spender */\n      dup4\n        /* \"@openzeppelin/contracts/token/ERC20/ERC20.sol\":3638:3665  _allowances[owner][spender] */\n      0xffffffffffffffffffffffffffffffffffffffff\n      and\n      0xffffffffffffffffffffffffffffffffffffffff\n      and\n      dup2\n      mstore\n      0x20\n      add\n      swap1\n      dup2\n      mstore\n      0x20\n      add\n      0x00\n      keccak256\n      sload\n        /* \"@openzeppelin/contracts/token/ERC20/ERC20.sol\":3631:3665  return _allowances[owner][spender] */\n      swap1\n      pop\n        /* \"@openzeppelin/contracts/token/ERC20/ERC20.sol\":3532:3672  function allowance(address owner, address spender) public view virtual returns (uint256) {... */\n      swap3\n      swap2\n      pop\n      pop\n      jump\t// out\n        /* \"MintCapTime.sol\":237:266  uint256 public deploymentTime */\n    tag_83:\n      sload(0x07)\n      dup2\n      jump\t// out\n        /* \"@openzeppelin/contracts/access/Ownable.sol\":2543:2758  function transferOwnership(address newOwner) public virtual onlyOwner {... */\n    tag_87:\n        /* \"@openzeppelin/contracts/access/Ownable.sol\":1531:1544  _checkOwner() */\n      tag_148\n        /* \"@openzeppelin/contracts/access/Ownable.sol\":1531:1542  _checkOwner */\n      tag_110\n        /* \"@openzeppelin/contracts/access/Ownable.sol\":1531:1544  _checkOwner() */\n      jump\t// in\n    tag_148:\n        /* \"@openzeppelin/contracts/access/Ownable.sol\":2647:2648  0 */\n      0x00\n        /* \"@openzeppelin/contracts/access/Ownable.sol\":2627:2649  newOwner == address(0) */\n      0xffffffffffffffffffffffffffffffffffffffff\n      and\n        /* \"@openzeppelin/contracts/access/Ownable.sol\":2627:2635  newOwner */\n      dup2\n        /* \"@openzeppelin/contracts/access/Ownable.sol\":2627:2649  newOwner == address(0) */\n      0xffffffffffffffffffffffffffffffffffffffff\n      and\n      sub\n        /* \"@openzeppelin/contracts/access/Ownable.sol\":2623:2714  if (newOwner == address(0)) {... */\n      tag_150\n      jumpi\n        /* \"@openzeppelin/contracts/access/Ownable.sol\":2700:2701  0 */\n      0x00\n        /* \"@openzeppelin/contracts/access/Ownable.sol\":2672:2703  OwnableInvalidOwner(address(0)) */\n      mload(0x40)\n      0x1e4fbdf700000000000000000000000000000000000000000000000000000000\n      dup2\n      mstore\n      0x04\n      add\n      tag_151\n      swap2\n      swap1\n      tag_65\n      jump\t// in\n    tag_151:\n      mload(0x40)\n      dup1\n      swap2\n      sub\n      swap1\n      revert\n        /* \"@openzeppelin/contracts/access/Ownable.sol\":2623:2714  if (newOwner == address(0)) {... */\n    tag_150:\n        /* \"@openzeppelin/contracts/access/Ownable.sol\":2723:2751  _transferOwnership(newOwner) */\n      tag_152\n        /* \"@openzeppelin/contracts/access/Ownable.sol\":2742:2750  newOwner */\n      dup2\n        /* \"@openzeppelin/contracts/access/Ownable.sol\":2723:2741  _transferOwnership */\n      tag_129\n        /* \"@openzeppelin/contracts/access/Ownable.sol\":2723:2751  _transferOwnership(newOwner) */\n      jump\t// in\n    tag_152:\n        /* \"@openzeppelin/contracts/access/Ownable.sol\":2543:2758  function transferOwnership(address newOwner) public virtual onlyOwner {... */\n      pop\n      jump\t// out\n        /* \"@openzeppelin/contracts/utils/Context.sol\":656:752  function _msgSender() internal view virtual returns (address) {... */\n    tag_97:\n        /* \"@openzeppelin/contracts/utils/Context.sol\":709:716  address */\n      0x00\n        /* \"@openzeppelin/contracts/utils/Context.sol\":735:745  msg.sender */\n      caller\n        /* \"@openzeppelin/contracts/utils/Context.sol\":728:745  return msg.sender */\n      swap1\n      pop\n        /* \"@openzeppelin/contracts/utils/Context.sol\":656:752  function _msgSender() internal view virtual returns (address) {... */\n      swap1\n      jump\t// out\n        /* \"@openzeppelin/contracts/token/ERC20/ERC20.sol\":8707:8835  function _approve(address owner, address spender, uint256 value) internal {... */\n    tag_99:\n        /* \"@openzeppelin/contracts/token/ERC20/ERC20.sol\":8791:8828  _approve(owner, spender, value, true) */\n      tag_155\n        /* \"@openzeppelin/contracts/token/ERC20/ERC20.sol\":8800:8805  owner */\n      dup4\n        /* \"@openzeppelin/contracts/token/ERC20/ERC20.sol\":8807:8814  spender */\n      dup4\n        /* \"@openzeppelin/contracts/token/ERC20/ERC20.sol\":8816:8821  value */\n      dup4\n        /* \"@openzeppelin/contracts/token/ERC20/ERC20.sol\":8823:8827  true */\n      0x01\n        /* \"@openzeppelin/contracts/token/ERC20/ERC20.sol\":8791:8799  _approve */\n      tag_156\n        /* \"@openzeppelin/contracts/token/ERC20/ERC20.sol\":8791:8828  _approve(owner, spender, value, true) */\n      jump\t// in\n    tag_155:\n        /* \"@openzeppelin/contracts/token/ERC20/ERC20.sol\":8707:8835  function _approve(address owner, address spender, uint256 value) internal {... */\n      pop\n      pop\n      pop\n      jump\t// out\n        /* \"@openzeppelin/contracts/token/ERC20/ERC20.sol\":10396:10872  function _spendAllowance(address owner, address spender, uint256 value) internal virtual {... */\n    tag_104:\n        /* \"@openzeppelin/contracts/token/ERC20/ERC20.sol\":10495:10519  uint256 currentAllowance */\n      0x00\n        /* \"@openzeppelin/contracts/token/ERC20/ERC20.sol\":10522:10547  allowance(owner, spender) */\n      tag_158\n        /* \"@openzeppelin/contracts/token/ERC20/ERC20.sol\":10532:10537  owner */\n      dup5\n        /* \"@openzeppelin/contracts/token/ERC20/ERC20.sol\":10539:10546  spender */\n      dup5\n        /* \"@openzeppelin/contracts/token/ERC20/ERC20.sol\":10522:10531  allowance */\n      tag_80\n        /* \"@openzeppelin/contracts/token/ERC20/ERC20.sol\":10522:10547  allowance(owner, spender) */\n      jump\t// in\n    tag_158:\n        /* \"@openzeppelin/contracts/token/ERC20/ERC20.sol\":10495:10547  uint256 currentAllowance = allowance(owner, spender) */\n      swap1\n      pop\n        /* \"@openzeppelin/contracts/token/ERC20/ERC20.sol\":10580:10597  type(uint256).max */\n      0xffffffffffffffffffffffffffffffffffffffffffffffffffffffffffffffff\n        /* \"@openzeppelin/contracts/token/ERC20/ERC20.sol\":10561:10577  currentAllowance */\n      dup2\n        /* \"@openzeppelin/contracts/token/ERC20/ERC20.sol\":10561:10597  currentAllowance < type(uint256).max */\n      lt\n        /* \"@openzeppelin/contracts/token/ERC20/ERC20.sol\":10557:10866  if (currentAllowance < type(uint256).max) {... */\n      iszero\n      tag_159\n      jumpi\n        /* \"@openzeppelin/contracts/token/ERC20/ERC20.sol\":10636:10641  value */\n      dup2\n        /* \"@openzeppelin/contracts/token/ERC20/ERC20.sol\":10617:10633  currentAllowance */\n      dup2\n        /* \"@openzeppelin/contracts/token/ERC20/ERC20.sol\":10617:10641  currentAllowance < value */\n      lt\n        /* \"@openzeppelin/contracts/token/ERC20/ERC20.sol\":10613:10743  if (currentAllowance < value) {... */\n      iszero\n      tag_160\n      jumpi\n        /* \"@openzeppelin/contracts/token/ERC20/ERC20.sol\":10695:10702  spender */\n      dup3\n        /* \"@openzeppelin/contracts/token/ERC20/ERC20.sol\":10704:10720  currentAllowance */\n      dup2\n        /* \"@openzeppelin/contracts/token/ERC20/ERC20.sol\":10722:10727  value */\n      dup4\n        /* \"@openzeppelin/contracts/token/ERC20/ERC20.sol\":10668:10728  ERC20InsufficientAllowance(spender, currentAllowance, value) */\n      mload(0x40)\n      0xfb8f41b200000000000000000000000000000000000000000000000000000000\n      dup2\n      mstore\n      0x04\n      add\n      tag_161\n      swap4\n      swap3\n      swap2\n      swap1\n      tag_162\n      jump\t// in\n    tag_161:\n      mload(0x40)\n      dup1\n      swap2\n      sub\n      swap1\n      revert\n        /* \"@openzeppelin/contracts/token/ERC20/ERC20.sol\":10613:10743  if (currentAllowance < value) {... */\n    tag_160:\n        /* \"@openzeppelin/contracts/token/ERC20/ERC20.sol\":10784:10841  _approve(owner, spender, currentAllowance - value, false) */\n      tag_163\n        /* \"@openzeppelin/contracts/token/ERC20/ERC20.sol\":10793:10798  owner */\n      dup5\n        /* \"@openzeppelin/contracts/token/ERC20/ERC20.sol\":10800:10807  spender */\n      dup5\n        /* \"@openzeppelin/contracts/token/ERC20/ERC20.sol\":10828:10833  value */\n      dup5\n        /* \"@openzeppelin/contracts/token/ERC20/ERC20.sol\":10809:10825  currentAllowance */\n      dup5\n        /* \"@openzeppelin/contracts/token/ERC20/ERC20.sol\":10809:10833  currentAllowance - value */\n      sub\n        /* \"@openzeppelin/contracts/token/ERC20/ERC20.sol\":10835:10840  false */\n      0x00\n        /* \"@openzeppelin/contracts/token/ERC20/ERC20.sol\":10784:10792  _approve */\n      tag_156\n        /* \"@openzeppelin/contracts/token/ERC20/ERC20.sol\":10784:10841  _approve(owner, spender, currentAllowance - value, false) */\n      jump\t// in\n    tag_163:\n        /* \"@openzeppelin/contracts/token/ERC20/ERC20.sol\":10557:10866  if (currentAllowance < type(uint256).max) {... */\n    tag_159:\n        /* \"@openzeppelin/contracts/token/ERC20/ERC20.sol\":10485:10872  {... */\n      pop\n        /* \"@openzeppelin/contracts/token/ERC20/ERC20.sol\":10396:10872  function _spendAllowance(address owner, address spender, uint256 value) internal virtual {... */\n      pop\n      pop\n      pop\n      jump\t// out\n        /* \"@openzeppelin/contracts/token/ERC20/ERC20.sol\":5374:5674  function _transfer(address from, address to, uint256 value) internal {... */\n    tag_106:\n        /* \"@openzeppelin/contracts/token/ERC20/ERC20.sol\":5473:5474  0 */\n      0x00\n        /* \"@openzeppelin/contracts/token/ERC20/ERC20.sol\":5457:5475  from == address(0) */\n      0xffffffffffffffffffffffffffffffffffffffff\n      and\n        /* \"@openzeppelin/contracts/token/ERC20/ERC20.sol\":5457:5461  from */\n      dup4\n        /* \"@openzeppelin/contracts/token/ERC20/ERC20.sol\":5457:5475  from == address(0) */\n      0xffffffffffffffffffffffffffffffffffffffff\n      and\n      sub\n        /* \"@openzeppelin/contracts/token/ERC20/ERC20.sol\":5453:5539  if (from == address(0)) {... */\n      tag_165\n      jumpi\n        /* \"@openzeppelin/contracts/token/ERC20/ERC20.sol\":5525:5526  0 */\n      0x00\n        /* \"@openzeppelin/contracts/token/ERC20/ERC20.sol\":5498:5528  ERC20InvalidSender(address(0)) */\n      mload(0x40)\n      0x96c6fd1e00000000000000000000000000000000000000000000000000000000\n      dup2\n      mstore\n      0x04\n      add\n      tag_166\n      swap2\n      swap1\n      tag_65\n      jump\t// in\n    tag_166:\n      mload(0x40)\n      dup1\n      swap2\n      sub\n      swap1\n      revert\n        /* \"@openzeppelin/contracts/token/ERC20/ERC20.sol\":5453:5539  if (from == address(0)) {... */\n    tag_165:\n        /* \"@openzeppelin/contracts/token/ERC20/ERC20.sol\":5566:5567  0 */\n      0x00\n        /* \"@openzeppelin/contracts/token/ERC20/ERC20.sol\":5552:5568  to == address(0) */\n      0xffffffffffffffffffffffffffffffffffffffff\n      and\n        /* \"@openzeppelin/contracts/token/ERC20/ERC20.sol\":5552:5554  to */\n      dup3\n        /* \"@openzeppelin/contracts/token/ERC20/ERC20.sol\":5552:5568  to == address(0) */\n      0xffffffffffffffffffffffffffffffffffffffff\n      and\n      sub\n        /* \"@openzeppelin/contracts/token/ERC20/ERC20.sol\":5548:5634  if (to == address(0)) {... */\n      tag_167\n      jumpi\n        /* \"@openzeppelin/contracts/token/ERC20/ERC20.sol\":5620:5621  0 */\n      0x00\n        /* \"@openzeppelin/contracts/token/ERC20/ERC20.sol\":5591:5623  ERC20InvalidReceiver(address(0)) */\n      mload(0x40)\n      0xec442f0500000000000000000000000000000000000000000000000000000000\n      dup2\n      mstore\n      0x04\n      add\n      tag_168\n      swap2\n      swap1\n      tag_65\n      jump\t// in\n    tag_168:\n      mload(0x40)\n      dup1\n      swap2\n      sub\n      swap1\n      revert\n        /* \"@openzeppelin/contracts/token/ERC20/ERC20.sol\":5548:5634  if (to == address(0)) {... */\n    tag_167:\n        /* \"@openzeppelin/contracts/token/ERC20/ERC20.sol\":5643:5667  _update(from, to, value) */\n      tag_169\n        /* \"@openzeppelin/contracts/token/ERC20/ERC20.sol\":5651:5655  from */\n      dup4\n        /* \"@openzeppelin/contracts/token/ERC20/ERC20.sol\":5657:5659  to */\n      dup4\n        /* \"@openzeppelin/contracts/token/ERC20/ERC20.sol\":5661:5666  value */\n      dup4\n        /* \"@openzeppelin/contracts/token/ERC20/ERC20.sol\":5643:5650  _update */\n      tag_170\n        /* \"@openzeppelin/contracts/token/ERC20/ERC20.sol\":5643:5667  _update(from, to, value) */\n      jump\t// in\n    tag_169:\n        /* \"@openzeppelin/contracts/token/ERC20/ERC20.sol\":5374:5674  function _transfer(address from, address to, uint256 value) internal {... */\n      pop\n      pop\n      pop\n      jump\t// out\n        /* \"@openzeppelin/contracts/access/Ownable.sol\":1796:1958  function _checkOwner() internal view virtual {... */\n    tag_110:\n        /* \"@openzeppelin/contracts/access/Ownable.sol\":1866:1878  _msgSender() */\n      tag_172\n        /* \"@openzeppelin/contracts/access/Ownable.sol\":1866:1876  _msgSender */\n      tag_97\n        /* \"@openzeppelin/contracts/access/Ownable.sol\":1866:1878  _msgSender() */\n      jump\t// in\n    tag_172:\n        /* \"@openzeppelin/contracts/access/Ownable.sol\":1855:1878  owner() != _msgSender() */\n      0xffffffffffffffffffffffffffffffffffffffff\n      and\n        /* \"@openzeppelin/contracts/access/Ownable.sol\":1855:1862  owner() */\n      tag_173\n        /* \"@openzeppelin/contracts/access/Ownable.sol\":1855:1860  owner */\n      tag_63\n        /* \"@openzeppelin/contracts/access/Ownable.sol\":1855:1862  owner() */\n      jump\t// in\n    tag_173:\n        /* \"@openzeppelin/contracts/access/Ownable.sol\":1855:1878  owner() != _msgSender() */\n      0xffffffffffffffffffffffffffffffffffffffff\n      and\n      eq\n        /* \"@openzeppelin/contracts/access/Ownable.sol\":1851:1952  if (owner() != _msgSender()) {... */\n      tag_174\n      jumpi\n        /* \"@openzeppelin/contracts/access/Ownable.sol\":1928:1940  _msgSender() */\n      tag_175\n        /* \"@openzeppelin/contracts/access/Ownable.sol\":1928:1938  _msgSender */\n      tag_97\n        /* \"@openzeppelin/contracts/access/Ownable.sol\":1928:1940  _msgSender() */\n      jump\t// in\n    tag_175:\n        /* \"@openzeppelin/contracts/access/Ownable.sol\":1901:1941  OwnableUnauthorizedAccount(_msgSender()) */\n      mload(0x40)\n      0x118cdaa700000000000000000000000000000000000000000000000000000000\n      dup2\n      mstore\n      0x04\n      add\n      tag_176\n      swap2\n      swap1\n      tag_65\n      jump\t// in\n    tag_176:\n      mload(0x40)\n      dup1\n      swap2\n      sub\n      swap1\n      revert\n        /* \"@openzeppelin/contracts/access/Ownable.sol\":1851:1952  if (owner() != _msgSender()) {... */\n    tag_174:\n        /* \"@openzeppelin/contracts/access/Ownable.sol\":1796:1958  function _checkOwner() internal view virtual {... */\n      jump\t// out\n        /* \"@openzeppelin/contracts/token/ERC20/ERC20.sol\":7439:7647  function _mint(address account, uint256 value) internal {... */\n    tag_123:\n        /* \"@openzeppelin/contracts/token/ERC20/ERC20.sol\":7528:7529  0 */\n      0x00\n        /* \"@openzeppelin/contracts/token/ERC20/ERC20.sol\":7509:7530  account == address(0) */\n      0xffffffffffffffffffffffffffffffffffffffff\n      and\n        /* \"@openzeppelin/contracts/token/ERC20/ERC20.sol\":7509:7516  account */\n      dup3\n        /* \"@openzeppelin/contracts/token/ERC20/ERC20.sol\":7509:7530  account == address(0) */\n      0xffffffffffffffffffffffffffffffffffffffff\n      and\n      sub\n        /* \"@openzeppelin/contracts/token/ERC20/ERC20.sol\":7505:7596  if (account == address(0)) {... */\n      tag_178\n      jumpi\n        /* \"@openzeppelin/contracts/token/ERC20/ERC20.sol\":7582:7583  0 */\n      0x00\n        /* \"@openzeppelin/contracts/token/ERC20/ERC20.sol\":7553:7585  ERC20InvalidReceiver(address(0)) */\n      mload(0x40)\n      0xec442f0500000000000000000000000000000000000000000000000000000000\n      dup2\n      mstore\n      0x04\n      add\n      tag_179\n      swap2\n      swap1\n      tag_65\n      jump\t// in\n    tag_179:\n      mload(0x40)\n      dup1\n      swap2\n      sub\n      swap1\n      revert\n        /* \"@openzeppelin/contracts/token/ERC20/ERC20.sol\":7505:7596  if (account == address(0)) {... */\n    tag_178:\n        /* \"@openzeppelin/contracts/token/ERC20/ERC20.sol\":7605:7640  _update(address(0), account, value) */\n      tag_180\n        /* \"@openzeppelin/contracts/token/ERC20/ERC20.sol\":7621:7622  0 */\n      0x00\n        /* \"@openzeppelin/contracts/token/ERC20/ERC20.sol\":7625:7632  account */\n      dup4\n        /* \"@openzeppelin/contracts/token/ERC20/ERC20.sol\":7634:7639  value */\n      dup4\n        /* \"@openzeppelin/contracts/token/ERC20/ERC20.sol\":7605:7612  _update */\n      tag_170\n        /* \"@openzeppelin/contracts/token/ERC20/ERC20.sol\":7605:7640  _update(address(0), account, value) */\n      jump\t// in\n    tag_180:\n        /* \"@openzeppelin/contracts/token/ERC20/ERC20.sol\":7439:7647  function _mint(address account, uint256 value) internal {... */\n      pop\n      pop\n      jump\t// out\n        /* \"@openzeppelin/contracts/access/Ownable.sol\":2912:3099  function _transferOwnership(address newOwner) internal virtual {... */\n    tag_129:\n        /* \"@openzeppelin/contracts/access/Ownable.sol\":2985:3001  address oldOwner */\n      0x00\n        /* \"@openzeppelin/contracts/access/Ownable.sol\":3004:3010  _owner */\n      0x05\n      0x00\n      swap1\n      sload\n      swap1\n      0x0100\n      exp\n      swap1\n      div\n      0xffffffffffffffffffffffffffffffffffffffff\n      and\n        /* \"@openzeppelin/contracts/access/Ownable.sol\":2985:3010  address oldOwner = _owner */\n      swap1\n      pop\n        /* \"@openzeppelin/contracts/access/Ownable.sol\":3029:3037  newOwner */\n      dup2\n        /* \"@openzeppelin/contracts/access/Ownable.sol\":3020:3026  _owner */\n      0x05\n      0x00\n        /* \"@openzeppelin/contracts/access/Ownable.sol\":3020:3037  _owner = newOwner */\n      0x0100\n      exp\n      dup2\n      sload\n      dup2\n      0xffffffffffffffffffffffffffffffffffffffff\n      mul\n      not\n      and\n      swap1\n      dup4\n      0xffffffffffffffffffffffffffffffffffffffff\n      and\n      mul\n      or\n      swap1\n      sstore\n      pop\n        /* \"@openzeppelin/contracts/access/Ownable.sol\":3083:3091  newOwner */\n      dup2\n        /* \"@openzeppelin/contracts/access/Ownable.sol\":3052:3092  OwnershipTransferred(oldOwner, newOwner) */\n      0xffffffffffffffffffffffffffffffffffffffff\n      and\n        /* \"@openzeppelin/contracts/access/Ownable.sol\":3073:3081  oldOwner */\n      dup2\n        /* \"@openzeppelin/contracts/access/Ownable.sol\":3052:3092  OwnershipTransferred(oldOwner, newOwner) */\n      0xffffffffffffffffffffffffffffffffffffffff\n      and\n      0x8be0079c531659141344cd1fd0a4f28419497f9722a3daafe3b4186f6b6457e0\n      mload(0x40)\n      mload(0x40)\n      dup1\n      swap2\n      sub\n      swap1\n      log3\n        /* \"@openzeppelin/contracts/access/Ownable.sol\":2975:3099  {... */\n      pop\n        /* \"@openzeppelin/contracts/access/Ownable.sol\":2912:3099  function _transferOwnership(address newOwner) internal virtual {... */\n      pop\n      jump\t// out\n        /* \"@openzeppelin/contracts/token/ERC20/ERC20.sol\":9682:10114  function _approve(address owner, address spender, uint256 value, bool emitEvent) internal virtual {... */\n    tag_156:\n        /* \"@openzeppelin/contracts/token/ERC20/ERC20.sol\":9811:9812  0 */\n      0x00\n        /* \"@openzeppelin/contracts/token/ERC20/ERC20.sol\":9794:9813  owner == address(0) */\n      0xffffffffffffffffffffffffffffffffffffffff\n      and\n        /* \"@openzeppelin/contracts/token/ERC20/ERC20.sol\":9794:9799  owner */\n      dup5\n        /* \"@openzeppelin/contracts/token/ERC20/ERC20.sol\":9794:9813  owner == address(0) */\n      0xffffffffffffffffffffffffffffffffffffffff\n      and\n      sub\n        /* \"@openzeppelin/contracts/token/ERC20/ERC20.sol\":9790:9879  if (owner == address(0)) {... */\n      tag_183\n      jumpi\n        /* \"@openzeppelin/contracts/token/ERC20/ERC20.sol\":9865:9866  0 */\n      0x00\n        /* \"@openzeppelin/contracts/token/ERC20/ERC20.sol\":9836:9868  ERC20InvalidApprover(address(0)) */\n      mload(0x40)\n      0xe602df0500000000000000000000000000000000000000000000000000000000\n      dup2\n      mstore\n      0x04\n      add\n      tag_184\n      swap2\n      swap1\n      tag_65\n      jump\t// in\n    tag_184:\n      mload(0x40)\n      dup1\n      swap2\n      sub\n      swap1\n      revert\n        /* \"@openzeppelin/contracts/token/ERC20/ERC20.sol\":9790:9879  if (owner == address(0)) {... */\n    tag_183:\n        /* \"@openzeppelin/contracts/token/ERC20/ERC20.sol\":9911:9912  0 */\n      0x00\n        /* \"@openzeppelin/contracts/token/ERC20/ERC20.sol\":9892:9913  spender == address(0) */\n      0xffffffffffffffffffffffffffffffffffffffff\n      and\n        /* \"@openzeppelin/contracts/token/ERC20/ERC20.sol\":9892:9899  spender */\n      dup4\n        /* \"@openzeppelin/contracts/token/ERC20/ERC20.sol\":9892:9913  spender == address(0) */\n      0xffffffffffffffffffffffffffffffffffffffff\n      and\n      sub\n        /* \"@openzeppelin/contracts/token/ERC20/ERC20.sol\":9888:9978  if (spender == address(0)) {... */\n      tag_185\n      jumpi\n        /* \"@openzeppelin/contracts/token/ERC20/ERC20.sol\":9964:9965  0 */\n      0x00\n        /* \"@openzeppelin/contracts/token/ERC20/ERC20.sol\":9936:9967  ERC20InvalidSpender(address(0)) */\n      mload(0x40)\n      0x94280d6200000000000000000000000000000000000000000000000000000000\n      dup2\n      mstore\n      0x04\n      add\n      tag_186\n      swap2\n      swap1\n      tag_65\n      jump\t// in\n    tag_186:\n      mload(0x40)\n      dup1\n      swap2\n      sub\n      swap1\n      revert\n        /* \"@openzeppelin/contracts/token/ERC20/ERC20.sol\":9888:9978  if (spender == address(0)) {... */\n    tag_185:\n        /* \"@openzeppelin/contracts/token/ERC20/ERC20.sol\":10017:10022  value */\n      dup2\n        /* \"@openzeppelin/contracts/token/ERC20/ERC20.sol\":9987:9998  _allowances */\n      0x01\n        /* \"@openzeppelin/contracts/token/ERC20/ERC20.sol\":9987:10005  _allowances[owner] */\n      0x00\n        /* \"@openzeppelin/contracts/token/ERC20/ERC20.sol\":9999:10004  owner */\n      dup7\n        /* \"@openzeppelin/contracts/token/ERC20/ERC20.sol\":9987:10005  _allowances[owner] */\n      0xffffffffffffffffffffffffffffffffffffffff\n      and\n      0xffffffffffffffffffffffffffffffffffffffff\n      and\n      dup2\n      mstore\n      0x20\n      add\n      swap1\n      dup2\n      mstore\n      0x20\n      add\n      0x00\n      keccak256\n        /* \"@openzeppelin/contracts/token/ERC20/ERC20.sol\":9987:10014  _allowances[owner][spender] */\n      0x00\n        /* \"@openzeppelin/contracts/token/ERC20/ERC20.sol\":10006:10013  spender */\n      dup6\n        /* \"@openzeppelin/contracts/token/ERC20/ERC20.sol\":9987:10014  _allowances[owner][spender] */\n      0xffffffffffffffffffffffffffffffffffffffff\n      and\n      0xffffffffffffffffffffffffffffffffffffffff\n      and\n      dup2\n      mstore\n      0x20\n      add\n      swap1\n      dup2\n      mstore\n      0x20\n      add\n      0x00\n      keccak256\n        /* \"@openzeppelin/contracts/token/ERC20/ERC20.sol\":9987:10022  _allowances[owner][spender] = value */\n      dup2\n      swap1\n      sstore\n      pop\n        /* \"@openzeppelin/contracts/token/ERC20/ERC20.sol\":10036:10045  emitEvent */\n      dup1\n        /* \"@openzeppelin/contracts/token/ERC20/ERC20.sol\":10032:10108  if (emitEvent) {... */\n      iszero\n      tag_187\n      jumpi\n        /* \"@openzeppelin/contracts/token/ERC20/ERC20.sol\":10082:10089  spender */\n      dup3\n        /* \"@openzeppelin/contracts/token/ERC20/ERC20.sol\":10066:10097  Approval(owner, spender, value) */\n      0xffffffffffffffffffffffffffffffffffffffff\n      and\n        /* \"@openzeppelin/contracts/token/ERC20/ERC20.sol\":10075:10080  owner */\n      dup5\n        /* \"@openzeppelin/contracts/token/ERC20/ERC20.sol\":10066:10097  Approval(owner, spender, value) */\n      0xffffffffffffffffffffffffffffffffffffffff\n      and\n      0x8c5be1e5ebec7d5bd14f71427d1e84f3dd0314c0f7b2291e5b200ac8c7c3b925\n        /* \"@openzeppelin/contracts/token/ERC20/ERC20.sol\":10091:10096  value */\n      dup5\n        /* \"@openzeppelin/contracts/token/ERC20/ERC20.sol\":10066:10097  Approval(owner, spender, value) */\n      mload(0x40)\n      tag_188\n      swap2\n      swap1\n      tag_36\n      jump\t// in\n    tag_188:\n      mload(0x40)\n      dup1\n      swap2\n      sub\n      swap1\n      log3\n        /* \"@openzeppelin/contracts/token/ERC20/ERC20.sol\":10032:10108  if (emitEvent) {... */\n    tag_187:\n        /* \"@openzeppelin/contracts/token/ERC20/ERC20.sol\":9682:10114  function _approve(address owner, address spender, uint256 value, bool emitEvent) internal virtual {... */\n      pop\n      pop\n      pop\n      pop\n      jump\t// out\n        /* \"@openzeppelin/contracts/token/ERC20/ERC20.sol\":5989:7096  function _update(address from, address to, uint256 value) internal virtual {... */\n    tag_170:\n        /* \"@openzeppelin/contracts/token/ERC20/ERC20.sol\":6094:6095  0 */\n      0x00\n        /* \"@openzeppelin/contracts/token/ERC20/ERC20.sol\":6078:6096  from == address(0) */\n      0xffffffffffffffffffffffffffffffffffffffff\n      and\n        /* \"@openzeppelin/contracts/token/ERC20/ERC20.sol\":6078:6082  from */\n      dup4\n        /* \"@openzeppelin/contracts/token/ERC20/ERC20.sol\":6078:6096  from == address(0) */\n      0xffffffffffffffffffffffffffffffffffffffff\n      and\n      sub\n        /* \"@openzeppelin/contracts/token/ERC20/ERC20.sol\":6074:6614  if (from == address(0)) {... */\n      tag_190\n      jumpi\n        /* \"@openzeppelin/contracts/token/ERC20/ERC20.sol\":6230:6235  value */\n      dup1\n        /* \"@openzeppelin/contracts/token/ERC20/ERC20.sol\":6214:6226  _totalSupply */\n      0x02\n      0x00\n        /* \"@openzeppelin/contracts/token/ERC20/ERC20.sol\":6214:6235  _totalSupply += value */\n      dup3\n      dup3\n      sload\n      tag_191\n      swap2\n      swap1\n      tag_113\n      jump\t// in\n    tag_191:\n      swap3\n      pop\n      pop\n      dup2\n      swap1\n      sstore\n      pop\n        /* \"@openzeppelin/contracts/token/ERC20/ERC20.sol\":6074:6614  if (from == address(0)) {... */\n      jump(tag_192)\n    tag_190:\n        /* \"@openzeppelin/contracts/token/ERC20/ERC20.sol\":6266:6285  uint256 fromBalance */\n      0x00\n        /* \"@openzeppelin/contracts/token/ERC20/ERC20.sol\":6288:6297  _balances */\n      0x00\n        /* \"@openzeppelin/contracts/token/ERC20/ERC20.sol\":6288:6303  _balances[from] */\n      0x00\n        /* \"@openzeppelin/contracts/token/ERC20/ERC20.sol\":6298:6302  from */\n      dup6\n        /* \"@openzeppelin/contracts/token/ERC20/ERC20.sol\":6288:6303  _balances[from] */\n      0xffffffffffffffffffffffffffffffffffffffff\n      and\n      0xffffffffffffffffffffffffffffffffffffffff\n      and\n      dup2\n      mstore\n      0x20\n      add\n      swap1\n      dup2\n      mstore\n      0x20\n      add\n      0x00\n      keccak256\n      sload\n        /* \"@openzeppelin/contracts/token/ERC20/ERC20.sol\":6266:6303  uint256 fromBalance = _balances[from] */\n      swap1\n      pop\n        /* \"@openzeppelin/contracts/token/ERC20/ERC20.sol\":6335:6340  value */\n      dup2\n        /* \"@openzeppelin/contracts/token/ERC20/ERC20.sol\":6321:6332  fromBalance */\n      dup2\n        /* \"@openzeppelin/contracts/token/ERC20/ERC20.sol\":6321:6340  fromBalance < value */\n      lt\n        /* \"@openzeppelin/contracts/token/ERC20/ERC20.sol\":6317:6432  if (fromBalance < value) {... */\n      iszero\n      tag_193\n      jumpi\n        /* \"@openzeppelin/contracts/token/ERC20/ERC20.sol\":6392:6396  from */\n      dup4\n        /* \"@openzeppelin/contracts/token/ERC20/ERC20.sol\":6398:6409  fromBalance */\n      dup2\n        /* \"@openzeppelin/contracts/token/ERC20/ERC20.sol\":6411:6416  value */\n      dup4\n        /* \"@openzeppelin/contracts/token/ERC20/ERC20.sol\":6367:6417  ERC20InsufficientBalance(from, fromBalance, value) */\n      mload(0x40)\n      0xe450d38c00000000000000000000000000000000000000000000000000000000\n      dup2\n      mstore\n      0x04\n      add\n      tag_194\n      swap4\n      swap3\n      swap2\n      swap1\n      tag_162\n      jump\t// in\n    tag_194:\n      mload(0x40)\n      dup1\n      swap2\n      sub\n      swap1\n      revert\n        /* \"@openzeppelin/contracts/token/ERC20/ERC20.sol\":6317:6432  if (fromBalance < value) {... */\n    tag_193:\n        /* \"@openzeppelin/contracts/token/ERC20/ERC20.sol\":6584:6589  value */\n      dup2\n        /* \"@openzeppelin/contracts/token/ERC20/ERC20.sol\":6570:6581  fromBalance */\n      dup2\n        /* \"@openzeppelin/contracts/token/ERC20/ERC20.sol\":6570:6589  fromBalance - value */\n      sub\n        /* \"@openzeppelin/contracts/token/ERC20/ERC20.sol\":6552:6561  _balances */\n      0x00\n        /* \"@openzeppelin/contracts/token/ERC20/ERC20.sol\":6552:6567  _balances[from] */\n      0x00\n        /* \"@openzeppelin/contracts/token/ERC20/ERC20.sol\":6562:6566  from */\n      dup7\n        /* \"@openzeppelin/contracts/token/ERC20/ERC20.sol\":6552:6567  _balances[from] */\n      0xffffffffffffffffffffffffffffffffffffffff\n      and\n      0xffffffffffffffffffffffffffffffffffffffff\n      and\n      dup2\n      mstore\n      0x20\n      add\n      swap1\n      dup2\n      mstore\n      0x20\n      add\n      0x00\n      keccak256\n        /* \"@openzeppelin/contracts/token/ERC20/ERC20.sol\":6552:6589  _balances[from] = fromBalance - value */\n      dup2\n      swap1\n      sstore\n      pop\n        /* \"@openzeppelin/contracts/token/ERC20/ERC20.sol\":6252:6614  {... */\n      pop\n        /* \"@openzeppelin/contracts/token/ERC20/ERC20.sol\":6074:6614  if (from == address(0)) {... */\n    tag_192:\n        /* \"@openzeppelin/contracts/token/ERC20/ERC20.sol\":6642:6643  0 */\n      0x00\n        /* \"@openzeppelin/contracts/token/ERC20/ERC20.sol\":6628:6644  to == address(0) */\n      0xffffffffffffffffffffffffffffffffffffffff\n      and\n        /* \"@openzeppelin/contracts/token/ERC20/ERC20.sol\":6628:6630  to */\n      dup3\n        /* \"@openzeppelin/contracts/token/ERC20/ERC20.sol\":6628:6644  to == address(0) */\n      0xffffffffffffffffffffffffffffffffffffffff\n      and\n      sub\n        /* \"@openzeppelin/contracts/token/ERC20/ERC20.sol\":6624:7049  if (to == address(0)) {... */\n      tag_195\n      jumpi\n        /* \"@openzeppelin/contracts/token/ERC20/ERC20.sol\":6807:6812  value */\n      dup1\n        /* \"@openzeppelin/contracts/token/ERC20/ERC20.sol\":6791:6803  _totalSupply */\n      0x02\n      0x00\n        /* \"@openzeppelin/contracts/token/ERC20/ERC20.sol\":6791:6812  _totalSupply -= value */\n      dup3\n      dup3\n      sload\n      sub\n      swap3\n      pop\n      pop\n      dup2\n      swap1\n      sstore\n      pop\n        /* \"@openzeppelin/contracts/token/ERC20/ERC20.sol\":6624:7049  if (to == address(0)) {... */\n      jump(tag_196)\n    tag_195:\n        /* \"@openzeppelin/contracts/token/ERC20/ERC20.sol\":7019:7024  value */\n      dup1\n        /* \"@openzeppelin/contracts/token/ERC20/ERC20.sol\":7002:7011  _balances */\n      0x00\n        /* \"@openzeppelin/contracts/token/ERC20/ERC20.sol\":7002:7015  _balances[to] */\n      0x00\n        /* \"@openzeppelin/contracts/token/ERC20/ERC20.sol\":7012:7014  to */\n      dup5\n        /* \"@openzeppelin/contracts/token/ERC20/ERC20.sol\":7002:7015  _balances[to] */\n      0xffffffffffffffffffffffffffffffffffffffff\n      and\n      0xffffffffffffffffffffffffffffffffffffffff\n      and\n      dup2\n      mstore\n      0x20\n      add\n      swap1\n      dup2\n      mstore\n      0x20\n      add\n      0x00\n      keccak256\n      0x00\n        /* \"@openzeppelin/contracts/token/ERC20/ERC20.sol\":7002:7024  _balances[to] += value */\n      dup3\n      dup3\n      sload\n      add\n      swap3\n      pop\n      pop\n      dup2\n      swap1\n      sstore\n      pop\n        /* \"@openzeppelin/contracts/token/ERC20/ERC20.sol\":6624:7049  if (to == address(0)) {... */\n    tag_196:\n        /* \"@openzeppelin/contracts/token/ERC20/ERC20.sol\":7079:7081  to */\n      dup2\n        /* \"@openzeppelin/contracts/token/ERC20/ERC20.sol\":7064:7089  Transfer(from, to, value) */\n      0xffffffffffffffffffffffffffffffffffffffff\n      and\n        /* \"@openzeppelin/contracts/token/ERC20/ERC20.sol\":7073:7077  from */\n      dup4\n        /* \"@openzeppelin/contracts/token/ERC20/ERC20.sol\":7064:7089  Transfer(from, to, value) */\n      0xffffffffffffffffffffffffffffffffffffffff\n      and\n      0xddf252ad1be2c89b69c2b068fc378daa952ba7f163c4a11628f55a4df523b3ef\n        /* \"@openzeppelin/contracts/token/ERC20/ERC20.sol\":7083:7088  value */\n      dup4\n        /* \"@openzeppelin/contracts/token/ERC20/ERC20.sol\":7064:7089  Transfer(from, to, value) */\n      mload(0x40)\n      tag_197\n      swap2\n      swap1\n      tag_36\n      jump\t// in\n    tag_197:\n      mload(0x40)\n      dup1\n      swap2\n      sub\n      swap1\n      log3\n        /* \"@openzeppelin/contracts/token/ERC20/ERC20.sol\":5989:7096  function _update(address from, address to, uint256 value) internal virtual {... */\n      pop\n      pop\n      pop\n      jump\t// out\n        /* \"#utility.yul\":7:106   */\n    tag_198:\n        /* \"#utility.yul\":59:65   */\n      0x00\n        /* \"#utility.yul\":93:98   */\n      dup2\n        /* \"#utility.yul\":87:99   */\n      mload\n        /* \"#utility.yul\":77:99   */\n      swap1\n      pop\n        /* \"#utility.yul\":7:106   */\n      swap2\n      swap1\n      pop\n      jump\t// out\n        /* \"#utility.yul\":112:281   */\n    tag_199:\n        /* \"#utility.yul\":196:207   */\n      0x00\n        /* \"#utility.yul\":230:236   */\n      dup3\n        /* \"#utility.yul\":225:228   */\n      dup3\n        /* \"#utility.yul\":218:237   */\n      mstore\n        /* \"#utility.yul\":270:274   */\n      0x20\n        /* \"#utility.yul\":265:268   */\n      dup3\n        /* \"#utility.yul\":261:275   */\n      add\n        /* \"#utility.yul\":246:275   */\n      swap1\n      pop\n        /* \"#utility.yul\":112:281   */\n      swap3\n      swap2\n      pop\n      pop\n      jump\t// out\n        /* \"#utility.yul\":287:426   */\n    tag_200:\n        /* \"#utility.yul\":376:382   */\n      dup3\n        /* \"#utility.yul\":371:374   */\n      dup2\n        /* \"#utility.yul\":366:369   */\n      dup4\n        /* \"#utility.yul\":360:383   */\n      mcopy\n        /* \"#utility.yul\":417:418   */\n      0x00\n        /* \"#utility.yul\":408:414   */\n      dup4\n        /* \"#utility.yul\":403:406   */\n      dup4\n        /* \"#utility.yul\":399:415   */\n      add\n        /* \"#utility.yul\":392:419   */\n      mstore\n        /* \"#utility.yul\":287:426   */\n      pop\n      pop\n      pop\n      jump\t// out\n        /* \"#utility.yul\":432:534   */\n    tag_201:\n        /* \"#utility.yul\":473:479   */\n      0x00\n        /* \"#utility.yul\":524:526   */\n      0x1f\n        /* \"#utility.yul\":520:527   */\n      not\n        /* \"#utility.yul\":515:517   */\n      0x1f\n        /* \"#utility.yul\":508:513   */\n      dup4\n        /* \"#utility.yul\":504:518   */\n      add\n        /* \"#utility.yul\":500:528   */\n      and\n        /* \"#utility.yul\":490:528   */\n      swap1\n      pop\n        /* \"#utility.yul\":432:534   */\n      swap2\n      swap1\n      pop\n      jump\t// out\n        /* \"#utility.yul\":540:917   */\n    tag_202:\n        /* \"#utility.yul\":628:631   */\n      0x00\n        /* \"#utility.yul\":656:695   */\n      tag_233\n        /* \"#utility.yul\":689:694   */\n      dup3\n        /* \"#utility.yul\":656:695   */\n      tag_198\n      jump\t// in\n    tag_233:\n        /* \"#utility.yul\":711:782   */\n      tag_234\n        /* \"#utility.yul\":775:781   */\n      dup2\n        /* \"#utility.yul\":770:773   */\n      dup6\n        /* \"#utility.yul\":711:782   */\n      tag_199\n      jump\t// in\n    tag_234:\n        /* \"#utility.yul\":704:782   */\n      swap4\n      pop\n        /* \"#utility.yul\":791:856   */\n      tag_235\n        /* \"#utility.yul\":849:855   */\n      dup2\n        /* \"#utility.yul\":844:847   */\n      dup6\n        /* \"#utility.yul\":837:841   */\n      0x20\n        /* \"#utility.yul\":830:835   */\n      dup7\n        /* \"#utility.yul\":826:842   */\n      add\n        /* \"#utility.yul\":791:856   */\n      tag_200\n      jump\t// in\n    tag_235:\n        /* \"#utility.yul\":881:910   */\n      tag_236\n        /* \"#utility.yul\":903:909   */\n      dup2\n        /* \"#utility.yul\":881:910   */\n      tag_201\n      jump\t// in\n    tag_236:\n        /* \"#utility.yul\":876:879   */\n      dup5\n        /* \"#utility.yul\":872:911   */\n      add\n        /* \"#utility.yul\":865:911   */\n      swap2\n      pop\n        /* \"#utility.yul\":632:917   */\n      pop\n        /* \"#utility.yul\":540:917   */\n      swap3\n      swap2\n      pop\n      pop\n      jump\t// out\n        /* \"#utility.yul\":923:1236   */\n    tag_26:\n        /* \"#utility.yul\":1036:1040   */\n      0x00\n        /* \"#utility.yul\":1074:1076   */\n      0x20\n        /* \"#utility.yul\":1063:1072   */\n      dup3\n        /* \"#utility.yul\":1059:1077   */\n      add\n        /* \"#utility.yul\":1051:1077   */\n      swap1\n      pop\n        /* \"#utility.yul\":1123:1132   */\n      dup2\n        /* \"#utility.yul\":1117:1121   */\n      dup2\n        /* \"#utility.yul\":1113:1133   */\n      sub\n        /* \"#utility.yul\":1109:1110   */\n      0x00\n        /* \"#utility.yul\":1098:1107   */\n      dup4\n        /* \"#utility.yul\":1094:1111   */\n      add\n        /* \"#utility.yul\":1087:1134   */\n      mstore\n        /* \"#utility.yul\":1151:1229   */\n      tag_238\n        /* \"#utility.yul\":1224:1228   */\n      dup2\n        /* \"#utility.yul\":1215:1221   */\n      dup5\n        /* \"#utility.yul\":1151:1229   */\n      tag_202\n      jump\t// in\n    tag_238:\n        /* \"#utility.yul\":1143:1229   */\n      swap1\n      pop\n        /* \"#utility.yul\":923:1236   */\n      swap3\n      swap2\n      pop\n      pop\n      jump\t// out\n        /* \"#utility.yul\":1323:1440   */\n    tag_204:\n        /* \"#utility.yul\":1432:1433   */\n      0x00\n        /* \"#utility.yul\":1429:1430   */\n      0x00\n        /* \"#utility.yul\":1422:1434   */\n      revert\n        /* \"#utility.yul\":1569:1695   */\n    tag_206:\n        /* \"#utility.yul\":1606:1613   */\n      0x00\n        /* \"#utility.yul\":1646:1688   */\n      0xffffffffffffffffffffffffffffffffffffffff\n        /* \"#utility.yul\":1639:1644   */\n      dup3\n        /* \"#utility.yul\":1635:1689   */\n      and\n        /* \"#utility.yul\":1624:1689   */\n      swap1\n      pop\n        /* \"#utility.yul\":1569:1695   */\n      swap2\n      swap1\n      pop\n      jump\t// out\n        /* \"#utility.yul\":1701:1797   */\n    tag_207:\n        /* \"#utility.yul\":1738:1745   */\n      0x00\n        /* \"#utility.yul\":1767:1791   */\n      tag_244\n        /* \"#utility.yul\":1785:1790   */\n      dup3\n        /* \"#utility.yul\":1767:1791   */\n      tag_206\n      jump\t// in\n    tag_244:\n        /* \"#utility.yul\":1756:1791   */\n      swap1\n      pop\n        /* \"#utility.yul\":1701:1797   */\n      swap2\n      swap1\n      pop\n      jump\t// out\n        /* \"#utility.yul\":1803:1925   */\n    tag_208:\n        /* \"#utility.yul\":1876:1900   */\n      tag_246\n        /* \"#utility.yul\":1894:1899   */\n      dup2\n        /* \"#utility.yul\":1876:1900   */\n      tag_207\n      jump\t// in\n    tag_246:\n        /* \"#utility.yul\":1869:1874   */\n      dup2\n        /* \"#utility.yul\":1866:1901   */\n      eq\n        /* \"#utility.yul\":1856:1919   */\n      tag_247\n      jumpi\n        /* \"#utility.yul\":1915:1916   */\n      0x00\n        /* \"#utility.yul\":1912:1913   */\n      0x00\n        /* \"#utility.yul\":1905:1917   */\n      revert\n        /* \"#utility.yul\":1856:1919   */\n    tag_247:\n        /* \"#utility.yul\":1803:1925   */\n      pop\n      jump\t// out\n        /* \"#utility.yul\":1931:2070   */\n    tag_209:\n        /* \"#utility.yul\":1977:1982   */\n      0x00\n        /* \"#utility.yul\":2015:2021   */\n      dup2\n        /* \"#utility.yul\":2002:2022   */\n      calldataload\n        /* \"#utility.yul\":1993:2022   */\n      swap1\n      pop\n        /* \"#utility.yul\":2031:2064   */\n      tag_249\n        /* \"#utility.yul\":2058:2063   */\n      dup2\n        /* \"#utility.yul\":2031:2064   */\n      tag_208\n      jump\t// in\n    tag_249:\n        /* \"#utility.yul\":1931:2070   */\n      swap3\n      swap2\n      pop\n      pop\n      jump\t// out\n        /* \"#utility.yul\":2076:2153   */\n    tag_210:\n        /* \"#utility.yul\":2113:2120   */\n      0x00\n        /* \"#utility.yul\":2142:2147   */\n      dup2\n        /* \"#utility.yul\":2131:2147   */\n      swap1\n      pop\n        /* \"#utility.yul\":2076:2153   */\n      swap2\n      swap1\n      pop\n      jump\t// out\n        /* \"#utility.yul\":2159:2281   */\n    tag_211:\n        /* \"#utility.yul\":2232:2256   */\n      tag_252\n        /* \"#utility.yul\":2250:2255   */\n      dup2\n        /* \"#utility.yul\":2232:2256   */\n      tag_210\n      jump\t// in\n    tag_252:\n        /* \"#utility.yul\":2225:2230   */\n      dup2\n        /* \"#utility.yul\":2222:2257   */\n      eq\n        /* \"#utility.yul\":2212:2275   */\n      tag_253\n      jumpi\n        /* \"#utility.yul\":2271:2272   */\n      0x00\n        /* \"#utility.yul\":2268:2269   */\n      0x00\n        /* \"#utility.yul\":2261:2273   */\n      revert\n        /* \"#utility.yul\":2212:2275   */\n    tag_253:\n        /* \"#utility.yul\":2159:2281   */\n      pop\n      jump\t// out\n        /* \"#utility.yul\":2287:2426   */\n    tag_212:\n        /* \"#utility.yul\":2333:2338   */\n      0x00\n        /* \"#utility.yul\":2371:2377   */\n      dup2\n        /* \"#utility.yul\":2358:2378   */\n      calldataload\n        /* \"#utility.yul\":2349:2378   */\n      swap1\n      pop\n        /* \"#utility.yul\":2387:2420   */\n      tag_255\n        /* \"#utility.yul\":2414:2419   */\n      dup2\n        /* \"#utility.yul\":2387:2420   */\n      tag_211\n      jump\t// in\n    tag_255:\n        /* \"#utility.yul\":2287:2426   */\n      swap3\n      swap2\n      pop\n      pop\n      jump\t// out\n        /* \"#utility.yul\":2432:2906   */\n    tag_29:\n        /* \"#utility.yul\":2500:2506   */\n      0x00\n        /* \"#utility.yul\":2508:2514   */\n      0x00\n        /* \"#utility.yul\":2557:2559   */\n      0x40\n        /* \"#utility.yul\":2545:2554   */\n      dup4\n        /* \"#utility.yul\":2536:2543   */\n      dup6\n        /* \"#utility.yul\":2532:2555   */\n      sub\n        /* \"#utility.yul\":2528:2560   */\n      slt\n        /* \"#utility.yul\":2525:2644   */\n      iszero\n      tag_257\n      jumpi\n        /* \"#utility.yul\":2563:2642   */\n      tag_258\n      tag_204\n      jump\t// in\n    tag_258:\n        /* \"#utility.yul\":2525:2644   */\n    tag_257:\n        /* \"#utility.yul\":2683:2684   */\n      0x00\n        /* \"#utility.yul\":2708:2761   */\n      tag_259\n        /* \"#utility.yul\":2753:2760   */\n      dup6\n        /* \"#utility.yul\":2744:2750   */\n      dup3\n        /* \"#utility.yul\":2733:2742   */\n      dup7\n        /* \"#utility.yul\":2729:2751   */\n      add\n        /* \"#utility.yul\":2708:2761   */\n      tag_209\n      jump\t// in\n    tag_259:\n        /* \"#utility.yul\":2698:2761   */\n      swap3\n      pop\n        /* \"#utility.yul\":2654:2771   */\n      pop\n        /* \"#utility.yul\":2810:2812   */\n      0x20\n        /* \"#utility.yul\":2836:2889   */\n      tag_260\n        /* \"#utility.yul\":2881:2888   */\n      dup6\n        /* \"#utility.yul\":2872:2878   */\n      dup3\n        /* \"#utility.yul\":2861:2870   */\n      dup7\n        /* \"#utility.yul\":2857:2879   */\n      add\n        /* \"#utility.yul\":2836:2889   */\n      tag_212\n      jump\t// in\n    tag_260:\n        /* \"#utility.yul\":2826:2889   */\n      swap2\n      pop\n        /* \"#utility.yul\":2781:2899   */\n      pop\n        /* \"#utility.yul\":2432:2906   */\n      swap3\n      pop\n      swap3\n      swap1\n      pop\n      jump\t// out\n        /* \"#utility.yul\":2912:3002   */\n    tag_213:\n        /* \"#utility.yul\":2946:2953   */\n      0x00\n        /* \"#utility.yul\":2989:2994   */\n      dup2\n        /* \"#utility.yul\":2982:2995   */\n      iszero\n        /* \"#utility.yul\":2975:2996   */\n      iszero\n        /* \"#utility.yul\":2964:2996   */\n      swap1\n      pop\n        /* \"#utility.yul\":2912:3002   */\n      swap2\n      swap1\n      pop\n      jump\t// out\n        /* \"#utility.yul\":3008:3117   */\n    tag_214:\n        /* \"#utility.yul\":3089:3110   */\n      tag_263\n        /* \"#utility.yul\":3104:3109   */\n      dup2\n        /* \"#utility.yul\":3089:3110   */\n      tag_213\n      jump\t// in\n    tag_263:\n        /* \"#utility.yul\":3084:3087   */\n      dup3\n        /* \"#utility.yul\":3077:3111   */\n      mstore\n        /* \"#utility.yul\":3008:3117   */\n      pop\n      pop\n      jump\t// out\n        /* \"#utility.yul\":3123:3333   */\n    tag_32:\n        /* \"#utility.yul\":3210:3214   */\n      0x00\n        /* \"#utility.yul\":3248:3250   */\n      0x20\n        /* \"#utility.yul\":3237:3246   */\n      dup3\n        /* \"#utility.yul\":3233:3251   */\n      add\n        /* \"#utility.yul\":3225:3251   */\n      swap1\n      pop\n        /* \"#utility.yul\":3261:3326   */\n      tag_265\n        /* \"#utility.yul\":3323:3324   */\n      0x00\n        /* \"#utility.yul\":3312:3321   */\n      dup4\n        /* \"#utility.yul\":3308:3325   */\n      add\n        /* \"#utility.yul\":3299:3305   */\n      dup5\n        /* \"#utility.yul\":3261:3326   */\n      tag_214\n      jump\t// in\n    tag_265:\n        /* \"#utility.yul\":3123:3333   */\n      swap3\n      swap2\n      pop\n      pop\n      jump\t// out\n        /* \"#utility.yul\":3339:3457   */\n    tag_215:\n        /* \"#utility.yul\":3426:3450   */\n      tag_267\n        /* \"#utility.yul\":3444:3449   */\n      dup2\n        /* \"#utility.yul\":3426:3450   */\n      tag_210\n      jump\t// in\n    tag_267:\n        /* \"#utility.yul\":3421:3424   */\n      dup3\n        /* \"#utility.yul\":3414:3451   */\n      mstore\n        /* \"#utility.yul\":3339:3457   */\n      pop\n      pop\n      jump\t// out\n        /* \"#utility.yul\":3463:3685   */\n    tag_36:\n        /* \"#utility.yul\":3556:3560   */\n      0x00\n        /* \"#utility.yul\":3594:3596   */\n      0x20\n        /* \"#utility.yul\":3583:3592   */\n      dup3\n        /* \"#utility.yul\":3579:3597   */\n      add\n        /* \"#utility.yul\":3571:3597   */\n      swap1\n      pop\n        /* \"#utility.yul\":3607:3678   */\n      tag_269\n        /* \"#utility.yul\":3675:3676   */\n      0x00\n        /* \"#utility.yul\":3664:3673   */\n      dup4\n        /* \"#utility.yul\":3660:3677   */\n      add\n        /* \"#utility.yul\":3651:3657   */\n      dup5\n        /* \"#utility.yul\":3607:3678   */\n      tag_215\n      jump\t// in\n    tag_269:\n        /* \"#utility.yul\":3463:3685   */\n      swap3\n      swap2\n      pop\n      pop\n      jump\t// out\n        /* \"#utility.yul\":3691:4310   */\n    tag_39:\n        /* \"#utility.yul\":3768:3774   */\n      0x00\n        /* \"#utility.yul\":3776:3782   */\n      0x00\n        /* \"#utility.yul\":3784:3790   */\n      0x00\n        /* \"#utility.yul\":3833:3835   */\n      0x60\n        /* \"#utility.yul\":3821:3830   */\n      dup5\n        /* \"#utility.yul\":3812:3819   */\n      dup7\n        /* \"#utility.yul\":3808:3831   */\n      sub\n        /* \"#utility.yul\":3804:3836   */\n      slt\n        /* \"#utility.yul\":3801:3920   */\n      iszero\n      tag_271\n      jumpi\n        /* \"#utility.yul\":3839:3918   */\n      tag_272\n      tag_204\n      jump\t// in\n    tag_272:\n        /* \"#utility.yul\":3801:3920   */\n    tag_271:\n        /* \"#utility.yul\":3959:3960   */\n      0x00\n        /* \"#utility.yul\":3984:4037   */\n      tag_273\n        /* \"#utility.yul\":4029:4036   */\n      dup7\n        /* \"#utility.yul\":4020:4026   */\n      dup3\n        /* \"#utility.yul\":4009:4018   */\n      dup8\n        /* \"#utility.yul\":4005:4027   */\n      add\n        /* \"#utility.yul\":3984:4037   */\n      tag_209\n      jump\t// in\n    tag_273:\n        /* \"#utility.yul\":3974:4037   */\n      swap4\n      pop\n        /* \"#utility.yul\":3930:4047   */\n      pop\n        /* \"#utility.yul\":4086:4088   */\n      0x20\n        /* \"#utility.yul\":4112:4165   */\n      tag_274\n        /* \"#utility.yul\":4157:4164   */\n      dup7\n        /* \"#utility.yul\":4148:4154   */\n      dup3\n        /* \"#utility.yul\":4137:4146   */\n      dup8\n        /* \"#utility.yul\":4133:4155   */\n      add\n        /* \"#utility.yul\":4112:4165   */\n      tag_209\n      jump\t// in\n    tag_274:\n        /* \"#utility.yul\":4102:4165   */\n      swap3\n      pop\n        /* \"#utility.yul\":4057:4175   */\n      pop\n        /* \"#utility.yul\":4214:4216   */\n      0x40\n        /* \"#utility.yul\":4240:4293   */\n      tag_275\n        /* \"#utility.yul\":4285:4292   */\n      dup7\n        /* \"#utility.yul\":4276:4282   */\n      dup3\n        /* \"#utility.yul\":4265:4274   */\n      dup8\n        /* \"#utility.yul\":4261:4283   */\n      add\n        /* \"#utility.yul\":4240:4293   */\n      tag_212\n      jump\t// in\n    tag_275:\n        /* \"#utility.yul\":4230:4293   */\n      swap2\n      pop\n        /* \"#utility.yul\":4185:4303   */\n      pop\n        /* \"#utility.yul\":3691:4310   */\n      swap3\n      pop\n      swap3\n      pop\n      swap3\n      jump\t// out\n        /* \"#utility.yul\":4316:4402   */\n    tag_216:\n        /* \"#utility.yul\":4351:4358   */\n      0x00\n        /* \"#utility.yul\":4391:4395   */\n      0xff\n        /* \"#utility.yul\":4384:4389   */\n      dup3\n        /* \"#utility.yul\":4380:4396   */\n      and\n        /* \"#utility.yul\":4369:4396   */\n      swap1\n      pop\n        /* \"#utility.yul\":4316:4402   */\n      swap2\n      swap1\n      pop\n      jump\t// out\n        /* \"#utility.yul\":4408:4520   */\n    tag_217:\n        /* \"#utility.yul\":4491:4513   */\n      tag_278\n        /* \"#utility.yul\":4507:4512   */\n      dup2\n        /* \"#utility.yul\":4491:4513   */\n      tag_216\n      jump\t// in\n    tag_278:\n        /* \"#utility.yul\":4486:4489   */\n      dup3\n        /* \"#utility.yul\":4479:4514   */\n      mstore\n        /* \"#utility.yul\":4408:4520   */\n      pop\n      pop\n      jump\t// out\n        /* \"#utility.yul\":4526:4740   */\n    tag_45:\n        /* \"#utility.yul\":4615:4619   */\n      0x00\n        /* \"#utility.yul\":4653:4655   */\n      0x20\n        /* \"#utility.yul\":4642:4651   */\n      dup3\n        /* \"#utility.yul\":4638:4656   */\n      add\n        /* \"#utility.yul\":4630:4656   */\n      swap1\n      pop\n        /* \"#utility.yul\":4666:4733   */\n      tag_280\n        /* \"#utility.yul\":4730:4731   */\n      0x00\n        /* \"#utility.yul\":4719:4728   */\n      dup4\n        /* \"#utility.yul\":4715:4732   */\n      add\n        /* \"#utility.yul\":4706:4712   */\n      dup5\n        /* \"#utility.yul\":4666:4733   */\n      tag_217\n      jump\t// in\n    tag_280:\n        /* \"#utility.yul\":4526:4740   */\n      swap3\n      swap2\n      pop\n      pop\n      jump\t// out\n        /* \"#utility.yul\":4746:5075   */\n    tag_57:\n        /* \"#utility.yul\":4805:4811   */\n      0x00\n        /* \"#utility.yul\":4854:4856   */\n      0x20\n        /* \"#utility.yul\":4842:4851   */\n      dup3\n        /* \"#utility.yul\":4833:4840   */\n      dup5\n        /* \"#utility.yul\":4829:4852   */\n      sub\n        /* \"#utility.yul\":4825:4857   */\n      slt\n        /* \"#utility.yul\":4822:4941   */\n      iszero\n      tag_282\n      jumpi\n        /* \"#utility.yul\":4860:4939   */\n      tag_283\n      tag_204\n      jump\t// in\n    tag_283:\n        /* \"#utility.yul\":4822:4941   */\n    tag_282:\n        /* \"#utility.yul\":4980:4981   */\n      0x00\n        /* \"#utility.yul\":5005:5058   */\n      tag_284\n        /* \"#utility.yul\":5050:5057   */\n      dup5\n        /* \"#utility.yul\":5041:5047   */\n      dup3\n        /* \"#utility.yul\":5030:5039   */\n      dup6\n        /* \"#utility.yul\":5026:5048   */\n      add\n        /* \"#utility.yul\":5005:5058   */\n      tag_209\n      jump\t// in\n    tag_284:\n        /* \"#utility.yul\":4995:5058   */\n      swap2\n      pop\n        /* \"#utility.yul\":4951:5068   */\n      pop\n        /* \"#utility.yul\":4746:5075   */\n      swap3\n      swap2\n      pop\n      pop\n      jump\t// out\n        /* \"#utility.yul\":5081:5199   */\n    tag_218:\n        /* \"#utility.yul\":5168:5192   */\n      tag_286\n        /* \"#utility.yul\":5186:5191   */\n      dup2\n        /* \"#utility.yul\":5168:5192   */\n      tag_207\n      jump\t// in\n    tag_286:\n        /* \"#utility.yul\":5163:5166   */\n      dup3\n        /* \"#utility.yul\":5156:5193   */\n      mstore\n        /* \"#utility.yul\":5081:5199   */\n      pop\n      pop\n      jump\t// out\n        /* \"#utility.yul\":5205:5427   */\n    tag_65:\n        /* \"#utility.yul\":5298:5302   */\n      0x00\n        /* \"#utility.yul\":5336:5338   */\n      0x20\n        /* \"#utility.yul\":5325:5334   */\n      dup3\n        /* \"#utility.yul\":5321:5339   */\n      add\n        /* \"#utility.yul\":5313:5339   */\n      swap1\n      pop\n        /* \"#utility.yul\":5349:5420   */\n      tag_288\n        /* \"#utility.yul\":5417:5418   */\n      0x00\n        /* \"#utility.yul\":5406:5415   */\n      dup4\n        /* \"#utility.yul\":5402:5419   */\n      add\n        /* \"#utility.yul\":5393:5399   */\n      dup5\n        /* \"#utility.yul\":5349:5420   */\n      tag_218\n      jump\t// in\n    tag_288:\n        /* \"#utility.yul\":5205:5427   */\n      swap3\n      swap2\n      pop\n      pop\n      jump\t// out\n        /* \"#utility.yul\":5433:5762   */\n    tag_71:\n        /* \"#utility.yul\":5492:5498   */\n      0x00\n        /* \"#utility.yul\":5541:5543   */\n      0x20\n        /* \"#utility.yul\":5529:5538   */\n      dup3\n        /* \"#utility.yul\":5520:5527   */\n      dup5\n        /* \"#utility.yul\":5516:5539   */\n      sub\n        /* \"#utility.yul\":5512:5544   */\n      slt\n        /* \"#utility.yul\":5509:5628   */\n      iszero\n      tag_290\n      jumpi\n        /* \"#utility.yul\":5547:5626   */\n      tag_291\n      tag_204\n      jump\t// in\n    tag_291:\n        /* \"#utility.yul\":5509:5628   */\n    tag_290:\n        /* \"#utility.yul\":5667:5668   */\n      0x00\n        /* \"#utility.yul\":5692:5745   */\n      tag_292\n        /* \"#utility.yul\":5737:5744   */\n      dup5\n        /* \"#utility.yul\":5728:5734   */\n      dup3\n        /* \"#utility.yul\":5717:5726   */\n      dup6\n        /* \"#utility.yul\":5713:5735   */\n      add\n        /* \"#utility.yul\":5692:5745   */\n      tag_212\n      jump\t// in\n    tag_292:\n        /* \"#utility.yul\":5682:5745   */\n      swap2\n      pop\n        /* \"#utility.yul\":5638:5755   */\n      pop\n        /* \"#utility.yul\":5433:5762   */\n      swap3\n      swap2\n      pop\n      pop\n      jump\t// out\n        /* \"#utility.yul\":5768:6242   */\n    tag_79:\n        /* \"#utility.yul\":5836:5842   */\n      0x00\n        /* \"#utility.yul\":5844:5850   */\n      0x00\n        /* \"#utility.yul\":5893:5895   */\n      0x40\n        /* \"#utility.yul\":5881:5890   */\n      dup4\n        /* \"#utility.yul\":5872:5879   */\n      dup6\n        /* \"#utility.yul\":5868:5891   */\n      sub\n        /* \"#utility.yul\":5864:5896   */\n      slt\n        /* \"#utility.yul\":5861:5980   */\n      iszero\n      tag_294\n      jumpi\n        /* \"#utility.yul\":5899:5978   */\n      tag_295\n      tag_204\n      jump\t// in\n    tag_295:\n        /* \"#utility.yul\":5861:5980   */\n    tag_294:\n        /* \"#utility.yul\":6019:6020   */\n      0x00\n        /* \"#utility.yul\":6044:6097   */\n      tag_296\n        /* \"#utility.yul\":6089:6096   */\n      dup6\n        /* \"#utility.yul\":6080:6086   */\n      dup3\n        /* \"#utility.yul\":6069:6078   */\n      dup7\n        /* \"#utility.yul\":6065:6087   */\n      add\n        /* \"#utility.yul\":6044:6097   */\n      tag_209\n      jump\t// in\n    tag_296:\n        /* \"#utility.yul\":6034:6097   */\n      swap3\n      pop\n        /* \"#utility.yul\":5990:6107   */\n      pop\n        /* \"#utility.yul\":6146:6148   */\n      0x20\n        /* \"#utility.yul\":6172:6225   */\n      tag_297\n        /* \"#utility.yul\":6217:6224   */\n      dup6\n        /* \"#utility.yul\":6208:6214   */\n      dup3\n        /* \"#utility.yul\":6197:6206   */\n      dup7\n        /* \"#utility.yul\":6193:6215   */\n      add\n        /* \"#utility.yul\":6172:6225   */\n      tag_209\n      jump\t// in\n    tag_297:\n        /* \"#utility.yul\":6162:6225   */\n      swap2\n      pop\n        /* \"#utility.yul\":6117:6235   */\n      pop\n        /* \"#utility.yul\":5768:6242   */\n      swap3\n      pop\n      swap3\n      swap1\n      pop\n      jump\t// out\n        /* \"#utility.yul\":6248:6428   */\n    tag_219:\n        /* \"#utility.yul\":6296:6373   */\n      0x4e487b7100000000000000000000000000000000000000000000000000000000\n        /* \"#utility.yul\":6293:6294   */\n      0x00\n        /* \"#utility.yul\":6286:6374   */\n      mstore\n        /* \"#utility.yul\":6393:6397   */\n      0x22\n        /* \"#utility.yul\":6390:6391   */\n      0x04\n        /* \"#utility.yul\":6383:6398   */\n      mstore\n        /* \"#utility.yul\":6417:6421   */\n      0x24\n        /* \"#utility.yul\":6414:6415   */\n      0x00\n        /* \"#utility.yul\":6407:6422   */\n      revert\n        /* \"#utility.yul\":6434:6754   */\n    tag_90:\n        /* \"#utility.yul\":6478:6484   */\n      0x00\n        /* \"#utility.yul\":6515:6516   */\n      0x02\n        /* \"#utility.yul\":6509:6513   */\n      dup3\n        /* \"#utility.yul\":6505:6517   */\n      div\n        /* \"#utility.yul\":6495:6517   */\n      swap1\n      pop\n        /* \"#utility.yul\":6562:6563   */\n      0x01\n        /* \"#utility.yul\":6556:6560   */\n      dup3\n        /* \"#utility.yul\":6552:6564   */\n      and\n        /* \"#utility.yul\":6583:6601   */\n      dup1\n        /* \"#utility.yul\":6573:6654   */\n      tag_300\n      jumpi\n        /* \"#utility.yul\":6639:6643   */\n      0x7f\n        /* \"#utility.yul\":6631:6637   */\n      dup3\n        /* \"#utility.yul\":6627:6644   */\n      and\n        /* \"#utility.yul\":6617:6644   */\n      swap2\n      pop\n        /* \"#utility.yul\":6573:6654   */\n    tag_300:\n        /* \"#utility.yul\":6701:6703   */\n      0x20\n        /* \"#utility.yul\":6693:6699   */\n      dup3\n        /* \"#utility.yul\":6690:6704   */\n      lt\n        /* \"#utility.yul\":6670:6688   */\n      dup2\n        /* \"#utility.yul\":6667:6705   */\n      sub\n        /* \"#utility.yul\":6664:6748   */\n      tag_301\n      jumpi\n        /* \"#utility.yul\":6720:6738   */\n      tag_302\n      tag_219\n      jump\t// in\n    tag_302:\n        /* \"#utility.yul\":6664:6748   */\n    tag_301:\n        /* \"#utility.yul\":6485:6754   */\n      pop\n        /* \"#utility.yul\":6434:6754   */\n      swap2\n      swap1\n      pop\n      jump\t// out\n        /* \"#utility.yul\":6760:6940   */\n    tag_220:\n        /* \"#utility.yul\":6808:6885   */\n      0x4e487b7100000000000000000000000000000000000000000000000000000000\n        /* \"#utility.yul\":6805:6806   */\n      0x00\n        /* \"#utility.yul\":6798:6886   */\n      mstore\n        /* \"#utility.yul\":6905:6909   */\n      0x11\n        /* \"#utility.yul\":6902:6903   */\n      0x04\n        /* \"#utility.yul\":6895:6910   */\n      mstore\n        /* \"#utility.yul\":6929:6933   */\n      0x24\n        /* \"#utility.yul\":6926:6927   */\n      0x00\n        /* \"#utility.yul\":6919:6934   */\n      revert\n        /* \"#utility.yul\":6946:7137   */\n    tag_113:\n        /* \"#utility.yul\":6986:6989   */\n      0x00\n        /* \"#utility.yul\":7005:7025   */\n      tag_305\n        /* \"#utility.yul\":7023:7024   */\n      dup3\n        /* \"#utility.yul\":7005:7025   */\n      tag_210\n      jump\t// in\n    tag_305:\n        /* \"#utility.yul\":7000:7025   */\n      swap2\n      pop\n        /* \"#utility.yul\":7039:7059   */\n      tag_306\n        /* \"#utility.yul\":7057:7058   */\n      dup4\n        /* \"#utility.yul\":7039:7059   */\n      tag_210\n      jump\t// in\n    tag_306:\n        /* \"#utility.yul\":7034:7059   */\n      swap3\n      pop\n        /* \"#utility.yul\":7082:7083   */\n      dup3\n        /* \"#utility.yul\":7079:7080   */\n      dup3\n        /* \"#utility.yul\":7075:7084   */\n      add\n        /* \"#utility.yul\":7068:7084   */\n      swap1\n      pop\n        /* \"#utility.yul\":7103:7106   */\n      dup1\n        /* \"#utility.yul\":7100:7101   */\n      dup3\n        /* \"#utility.yul\":7097:7107   */\n      gt\n        /* \"#utility.yul\":7094:7130   */\n      iszero\n      tag_307\n      jumpi\n        /* \"#utility.yul\":7110:7128   */\n      tag_308\n      tag_220\n      jump\t// in\n    tag_308:\n        /* \"#utility.yul\":7094:7130   */\n    tag_307:\n        /* \"#utility.yul\":6946:7137   */\n      swap3\n      swap2\n      pop\n      pop\n      jump\t// out\n        /* \"#utility.yul\":7143:7315   */\n    tag_221:\n        /* \"#utility.yul\":7283:7307   */\n      0x4d696e74696e6720706572696f64206578706972656400000000000000000000\n        /* \"#utility.yul\":7279:7280   */\n      0x00\n        /* \"#utility.yul\":7271:7277   */\n      dup3\n        /* \"#utility.yul\":7267:7281   */\n      add\n        /* \"#utility.yul\":7260:7308   */\n      mstore\n        /* \"#utility.yul\":7143:7315   */\n      pop\n      jump\t// out\n        /* \"#utility.yul\":7321:7687   */\n    tag_222:\n        /* \"#utility.yul\":7463:7466   */\n      0x00\n        /* \"#utility.yul\":7484:7551   */\n      tag_311\n        /* \"#utility.yul\":7548:7550   */\n      0x16\n        /* \"#utility.yul\":7543:7546   */\n      dup4\n        /* \"#utility.yul\":7484:7551   */\n      tag_199\n      jump\t// in\n    tag_311:\n        /* \"#utility.yul\":7477:7551   */\n      swap2\n      pop\n        /* \"#utility.yul\":7560:7653   */\n      tag_312\n        /* \"#utility.yul\":7649:7652   */\n      dup3\n        /* \"#utility.yul\":7560:7653   */\n      tag_221\n      jump\t// in\n    tag_312:\n        /* \"#utility.yul\":7678:7680   */\n      0x20\n        /* \"#utility.yul\":7673:7676   */\n      dup3\n        /* \"#utility.yul\":7669:7681   */\n      add\n        /* \"#utility.yul\":7662:7681   */\n      swap1\n      pop\n        /* \"#utility.yul\":7321:7687   */\n      swap2\n      swap1\n      pop\n      jump\t// out\n        /* \"#utility.yul\":7693:8112   */\n    tag_116:\n        /* \"#utility.yul\":7859:7863   */\n      0x00\n        /* \"#utility.yul\":7897:7899   */\n      0x20\n        /* \"#utility.yul\":7886:7895   */\n      dup3\n        /* \"#utility.yul\":7882:7900   */\n      add\n        /* \"#utility.yul\":7874:7900   */\n      swap1\n      pop\n        /* \"#utility.yul\":7946:7955   */\n      dup2\n        /* \"#utility.yul\":7940:7944   */\n      dup2\n        /* \"#utility.yul\":7936:7956   */\n      sub\n        /* \"#utility.yul\":7932:7933   */\n      0x00\n        /* \"#utility.yul\":7921:7930   */\n      dup4\n        /* \"#utility.yul\":7917:7934   */\n      add\n        /* \"#utility.yul\":7910:7957   */\n      mstore\n        /* \"#utility.yul\":7974:8105   */\n      tag_314\n        /* \"#utility.yul\":8100:8104   */\n      dup2\n        /* \"#utility.yul\":7974:8105   */\n      tag_222\n      jump\t// in\n    tag_314:\n        /* \"#utility.yul\":7966:8105   */\n      swap1\n      pop\n        /* \"#utility.yul\":7693:8112   */\n      swap2\n      swap1\n      pop\n      jump\t// out\n        /* \"#utility.yul\":8118:8279   */\n    tag_223:\n        /* \"#utility.yul\":8258:8271   */\n      0x4578636565647320636170000000000000000000000000000000000000000000\n        /* \"#utility.yul\":8254:8255   */\n      0x00\n        /* \"#utility.yul\":8246:8252   */\n      dup3\n        /* \"#utility.yul\":8242:8256   */\n      add\n        /* \"#utility.yul\":8235:8272   */\n      mstore\n        /* \"#utility.yul\":8118:8279   */\n      pop\n      jump\t// out\n        /* \"#utility.yul\":8285:8651   */\n    tag_224:\n        /* \"#utility.yul\":8427:8430   */\n      0x00\n        /* \"#utility.yul\":8448:8515   */\n      tag_317\n        /* \"#utility.yul\":8512:8514   */\n      0x0b\n        /* \"#utility.yul\":8507:8510   */\n      dup4\n        /* \"#utility.yul\":8448:8515   */\n      tag_199\n      jump\t// in\n    tag_317:\n        /* \"#utility.yul\":8441:8515   */\n      swap2\n      pop\n        /* \"#utility.yul\":8524:8617   */\n      tag_318\n        /* \"#utility.yul\":8613:8616   */\n      dup3\n        /* \"#utility.yul\":8524:8617   */\n      tag_223\n      jump\t// in\n    tag_318:\n        /* \"#utility.yul\":8642:8644   */\n      0x20\n        /* \"#utility.yul\":8637:8640   */\n      dup3\n        /* \"#utility.yul\":8633:8645   */\n      add\n        /* \"#utility.yul\":8626:8645   */\n      swap1\n      pop\n        /* \"#utility.yul\":8285:8651   */\n      swap2\n      swap1\n      pop\n      jump\t// out\n        /* \"#utility.yul\":8657:9076   */\n    tag_121:\n        /* \"#utility.yul\":8823:8827   */\n      0x00\n        /* \"#utility.yul\":8861:8863   */\n      0x20\n        /* \"#utility.yul\":8850:8859   */\n      dup3\n        /* \"#utility.yul\":8846:8864   */\n      add\n        /* \"#utility.yul\":8838:8864   */\n      swap1\n      pop\n        /* \"#utility.yul\":8910:8919   */\n      dup2\n        /* \"#utility.yul\":8904:8908   */\n      dup2\n        /* \"#utility.yul\":8900:8920   */\n      sub\n        /* \"#utility.yul\":8896:8897   */\n      0x00\n        /* \"#utility.yul\":8885:8894   */\n      dup4\n        /* \"#utility.yul\":8881:8898   */\n      add\n        /* \"#utility.yul\":8874:8921   */\n      mstore\n        /* \"#utility.yul\":8938:9069   */\n      tag_320\n        /* \"#utility.yul\":9064:9068   */\n      dup2\n        /* \"#utility.yul\":8938:9069   */\n      tag_224\n      jump\t// in\n    tag_320:\n        /* \"#utility.yul\":8930:9069   */\n      swap1\n      pop\n        /* \"#utility.yul\":8657:9076   */\n      swap2\n      swap1\n      pop\n      jump\t// out\n        /* \"#utility.yul\":9082:9255   */\n    tag_225:\n        /* \"#utility.yul\":9222:9247   */\n      0x4e657720636170206d7573742062652067726561746572000000000000000000\n        /* \"#utility.yul\":9218:9219   */\n      0x00\n        /* \"#utility.yul\":9210:9216   */\n      dup3\n        /* \"#utility.yul\":9206:9220   */\n      add\n        /* \"#utility.yul\":9199:9248   */\n      mstore\n        /* \"#utility.yul\":9082:9255   */\n      pop\n      jump\t// out\n        /* \"#utility.yul\":9261:9627   */\n    tag_226:\n        /* \"#utility.yul\":9403:9406   */\n      0x00\n        /* \"#utility.yul\":9424:9491   */\n      tag_323\n        /* \"#utility.yul\":9488:9490   */\n      0x17\n        /* \"#utility.yul\":9483:9486   */\n      dup4\n        /* \"#utility.yul\":9424:9491   */\n      tag_199\n      jump\t// in\n    tag_323:\n        /* \"#utility.yul\":9417:9491   */\n      swap2\n      pop\n        /* \"#utility.yul\":9500:9593   */\n      tag_324\n        /* \"#utility.yul\":9589:9592   */\n      dup3\n        /* \"#utility.yul\":9500:9593   */\n      tag_225\n      jump\t// in\n    tag_324:\n        /* \"#utility.yul\":9618:9620   */\n      0x20\n        /* \"#utility.yul\":9613:9616   */\n      dup3\n        /* \"#utility.yul\":9609:9621   */\n      add\n        /* \"#utility.yul\":9602:9621   */\n      swap1\n      pop\n        /* \"#utility.yul\":9261:9627   */\n      swap2\n      swap1\n      pop\n      jump\t// out\n        /* \"#utility.yul\":9633:10052   */\n    tag_142:\n        /* \"#utility.yul\":9799:9803   */\n      0x00\n        /* \"#utility.yul\":9837:9839   */\n      0x20\n        /* \"#utility.yul\":9826:9835   */\n      dup3\n        /* \"#utility.yul\":9822:9840   */\n      add\n        /* \"#utility.yul\":9814:9840   */\n      swap1\n      pop\n        /* \"#utility.yul\":9886:9895   */\n      dup2\n        /* \"#utility.yul\":9880:9884   */\n      dup2\n        /* \"#utility.yul\":9876:9896   */\n      sub\n        /* \"#utility.yul\":9872:9873   */\n      0x00\n        /* \"#utility.yul\":9861:9870   */\n      dup4\n        /* \"#utility.yul\":9857:9874   */\n      add\n        /* \"#utility.yul\":9850:9897   */\n      mstore\n        /* \"#utility.yul\":9914:10045   */\n      tag_326\n        /* \"#utility.yul\":10040:10044   */\n      dup2\n        /* \"#utility.yul\":9914:10045   */\n      tag_226\n      jump\t// in\n    tag_326:\n        /* \"#utility.yul\":9906:10045   */\n      swap1\n      pop\n        /* \"#utility.yul\":9633:10052   */\n      swap2\n      swap1\n      pop\n      jump\t// out\n        /* \"#utility.yul\":10058:10500   */\n    tag_162:\n        /* \"#utility.yul\":10207:10211   */\n      0x00\n        /* \"#utility.yul\":10245:10247   */\n      0x60\n        /* \"#utility.yul\":10234:10243   */\n      dup3\n        /* \"#utility.yul\":10230:10248   */\n      add\n        /* \"#utility.yul\":10222:10248   */\n      swap1\n      pop\n        /* \"#utility.yul\":10258:10329   */\n      tag_328\n        /* \"#utility.yul\":10326:10327   */\n      0x00\n        /* \"#utility.yul\":10315:10324   */\n      dup4\n        /* \"#utility.yul\":10311:10328   */\n      add\n        /* \"#utility.yul\":10302:10308   */\n      dup7\n        /* \"#utility.yul\":10258:10329   */\n      tag_218\n      jump\t// in\n    tag_328:\n        /* \"#utility.yul\":10339:10411   */\n      tag_329\n        /* \"#utility.yul\":10407:10409   */\n      0x20\n        /* \"#utility.yul\":10396:10405   */\n      dup4\n        /* \"#utility.yul\":10392:10410   */\n      add\n        /* \"#utility.yul\":10383:10389   */\n      dup6\n        /* \"#utility.yul\":10339:10411   */\n      tag_215\n      jump\t// in\n    tag_329:\n        /* \"#utility.yul\":10421:10493   */\n      tag_330\n        /* \"#utility.yul\":10489:10491   */\n      0x40\n        /* \"#utility.yul\":10478:10487   */\n      dup4\n        /* \"#utility.yul\":10474:10492   */\n      add\n        /* \"#utility.yul\":10465:10471   */\n      dup5\n        /* \"#utility.yul\":10421:10493   */\n      tag_215\n      jump\t// in\n    tag_330:\n        /* \"#utility.yul\":10058:10500   */\n      swap5\n      swap4\n      pop\n      pop\n      pop\n      pop\n      jump\t// out\n\n    auxdata: 0xa26469706673582212204192a7fb5d3e0382c168cd030540e16820a7a2b7096533a209d00c949c53773464736f6c634300081e0033\n}\n",
				"bytecode": {
					"linkReferences": {},
					"object": "608060405234801561000f575f5ffd5b50604051611d7d380380611d7d83398181016040528101906100319190610371565b33848481600390816100439190610614565b5080600490816100539190610614565b5050505f73ffffffffffffffffffffffffffffffffffffffff168173ffffffffffffffffffffffffffffffffffffffff16036100c6575f6040517f1e4fbdf70000000000000000000000000000000000000000000000000000000081526004016100bd9190610722565b60405180910390fd5b6100d58161012660201b60201c565b506100e46101e960201b60201c565b600a6100f091906108a3565b826100fb91906108ed565b60068190555042600781905550620151808161011791906108ed565b6008819055505050505061092e565b5f60055f9054906101000a900473ffffffffffffffffffffffffffffffffffffffff1690508160055f6101000a81548173ffffffffffffffffffffffffffffffffffffffff021916908373ffffffffffffffffffffffffffffffffffffffff1602179055508173ffffffffffffffffffffffffffffffffffffffff168173ffffffffffffffffffffffffffffffffffffffff167f8be0079c531659141344cd1fd0a4f28419497f9722a3daafe3b4186f6b6457e060405160405180910390a35050565b5f6012905090565b5f604051905090565b5f5ffd5b5f5ffd5b5f5ffd5b5f5ffd5b5f601f19601f8301169050919050565b7f4e487b71000000000000000000000000000000000000000000000000000000005f52604160045260245ffd5b6102508261020a565b810181811067ffffffffffffffff8211171561026f5761026e61021a565b5b80604052505050565b5f6102816101f1565b905061028d8282610247565b919050565b5f67ffffffffffffffff8211156102ac576102ab61021a565b5b6102b58261020a565b9050602081019050919050565b8281835e5f83830152505050565b5f6102e26102dd84610292565b610278565b9050828152602081018484840111156102fe576102fd610206565b5b6103098482856102c2565b509392505050565b5f82601f83011261032557610324610202565b5b81516103358482602086016102d0565b91505092915050565b5f819050919050565b6103508161033e565b811461035a575f5ffd5b50565b5f8151905061036b81610347565b92915050565b5f5f5f5f60808587031215610389576103886101fa565b5b5f85015167ffffffffffffffff8111156103a6576103a56101fe565b5b6103b287828801610311565b945050602085015167ffffffffffffffff8111156103d3576103d26101fe565b5b6103df87828801610311565b93505060406103f08782880161035d565b92505060606104018782880161035d565b91505092959194509250565b5f81519050919050565b7f4e487b71000000000000000000000000000000000000000000000000000000005f52602260045260245ffd5b5f600282049050600182168061045b57607f821691505b60208210810361046e5761046d610417565b5b50919050565b5f819050815f5260205f209050919050565b5f6020601f8301049050919050565b5f82821b905092915050565b5f600883026104d07fffffffffffffffffffffffffffffffffffffffffffffffffffffffffffffffff82610495565b6104da8683610495565b95508019841693508086168417925050509392505050565b5f819050919050565b5f61051561051061050b8461033e565b6104f2565b61033e565b9050919050565b5f819050919050565b61052e836104fb565b61054261053a8261051c565b8484546104a1565b825550505050565b5f5f905090565b61055961054a565b610564818484610525565b505050565b5b818110156105875761057c5f82610551565b60018101905061056a565b5050565b601f8211156105cc5761059d81610474565b6105a684610486565b810160208510156105b5578190505b6105c96105c185610486565b830182610569565b50505b505050565b5f82821c905092915050565b5f6105ec5f19846008026105d1565b1980831691505092915050565b5f61060483836105dd565b9150826002028217905092915050565b61061d8261040d565b67ffffffffffffffff8111156106365761063561021a565b5b6106408254610444565b61064b82828561058b565b5f60209050601f83116001811461067c575f841561066a578287015190505b61067485826105f9565b8655506106db565b601f19841661068a86610474565b5f5b828110156106b15784890151825560018201915060208501945060208101905061068c565b868310156106ce57848901516106ca601f8916826105dd565b8355505b6001600288020188555050505b505050505050565b5f73ffffffffffffffffffffffffffffffffffffffff82169050919050565b5f61070c826106e3565b9050919050565b61071c81610702565b82525050565b5f6020820190506107355f830184610713565b92915050565b7f4e487b71000000000000000000000000000000000000000000000000000000005f52601160045260245ffd5b5f8160011c9050919050565b5f5f8291508390505b60018511156107bd578086048111156107995761079861073b565b5b60018516156107a85780820291505b80810290506107b685610768565b945061077d565b94509492505050565b5f826107d55760019050610890565b816107e2575f9050610890565b81600181146107f8576002811461080257610831565b6001915050610890565b60ff8411156108145761081361073b565b5b8360020a91508482111561082b5761082a61073b565b5b50610890565b5060208310610133831016604e8410600b84101617156108665782820a9050838111156108615761086061073b565b5b610890565b6108738484846001610774565b9250905081840481111561088a5761088961073b565b5b81810290505b9392505050565b5f60ff82169050919050565b5f6108ad8261033e565b91506108b883610897565b92506108e57fffffffffffffffffffffffffffffffffffffffffffffffffffffffffffffffff84846107c6565b905092915050565b5f6108f78261033e565b91506109028361033e565b92508282026109108161033e565b915082820484148315176109275761092661073b565b5b5092915050565b6114428061093b5f395ff3fe608060405234801561000f575f5ffd5b5060043610610109575f3560e01c806370a08231116100a0578063a7d688961161006f578063a7d6889614610295578063a9059cbb146102b1578063dd62ed3e146102e1578063ecda10f514610311578063f2fde38b1461032f57610109565b806370a082311461021f578063715018a61461024f5780638da5cb5b1461025957806395d89b411461027757610109565b8063313ce567116100dc578063313ce567146101a9578063355274ea146101c757806340c10f19146101e5578063550126851461020157610109565b806306fdde031461010d578063095ea7b31461012b57806318160ddd1461015b57806323b872dd14610179575b5f5ffd5b61011561034b565b6040516101229190610f58565b60405180910390f35b61014560048036038101906101409190611009565b6103db565b6040516101529190611061565b60405180910390f35b6101636103fd565b6040516101709190611089565b60405180910390f35b610193600480360381019061018e91906110a2565b610406565b6040516101a09190611061565b60405180910390f35b6101b1610434565b6040516101be919061110d565b60405180910390f35b6101cf61043c565b6040516101dc9190611089565b60405180910390f35b6101ff60048036038101906101fa9190611009565b610442565b005b610209610501565b6040516102169190611089565b60405180910390f35b61023960048036038101906102349190611126565b610507565b6040516102469190611089565b60405180910390f35b61025761054c565b005b61026161055f565b60405161026e9190611160565b60405180910390f35b61027f610587565b60405161028c9190610f58565b60405180910390f35b6102af60048036038101906102aa9190611179565b610617565b005b6102cb60048036038101906102c69190611009565b61066d565b6040516102d89190611061565b60405180910390f35b6102fb60048036038101906102f691906111a4565b61068f565b6040516103089190611089565b60405180910390f35b610319610711565b6040516103269190611089565b60405180910390f35b61034960048036038101906103449190611126565b610717565b005b60606003805461035a9061120f565b80601f01602080910402602001604051908101604052809291908181526020018280546103869061120f565b80156103d15780601f106103a8576101008083540402835291602001916103d1565b820191905f5260205f20905b8154815290600101906020018083116103b457829003601f168201915b5050505050905090565b5f5f6103e561079b565b90506103f28185856107a2565b600191505092915050565b5f600254905090565b5f5f61041061079b565b905061041d8582856107b4565b610428858585610847565b60019150509392505050565b5f6012905090565b60065481565b61044a610937565b60085460075461045a919061126c565b42111561049c576040517f08c379a0000000000000000000000000000000000000000000000000000000008152600401610493906112e9565b60405180910390fd5b600654816104a86103fd565b6104b2919061126c565b11156104f3576040517f08c379a00000000000000000000000000000000000000000000000000000000081526004016104ea90611351565b60405180910390fd5b6104fd82826109be565b5050565b60085481565b5f5f5f8373ffffffffffffffffffffffffffffffffffffffff1673ffffffffffffffffffffffffffffffffffffffff1681526020019081526020015f20549050919050565b610554610937565b61055d5f610a3d565b565b5f60055f9054906101000a900473ffffffffffffffffffffffffffffffffffffffff16905090565b6060600480546105969061120f565b80601f01602080910402602001604051908101604052809291908181526020018280546105c29061120f565b801561060d5780601f106105e45761010080835404028352916020019161060d565b820191905f5260205f20905b8154815290600101906020018083116105f057829003601f168201915b5050505050905090565b61061f610937565b6006548111610663576040517f08c379a000000000000000000000000000000000000000000000000000000000815260040161065a906113b9565b60405180910390fd5b8060068190555050565b5f5f61067761079b565b9050610684818585610847565b600191505092915050565b5f60015f8473ffffffffffffffffffffffffffffffffffffffff1673ffffffffffffffffffffffffffffffffffffffff1681526020019081526020015f205f8373ffffffffffffffffffffffffffffffffffffffff1673ffffffffffffffffffffffffffffffffffffffff1681526020019081526020015f2054905092915050565b60075481565b61071f610937565b5f73ffffffffffffffffffffffffffffffffffffffff168173ffffffffffffffffffffffffffffffffffffffff160361078f575f6040517f1e4fbdf70000000000000000000000000000000000000000000000000000000081526004016107869190611160565b60405180910390fd5b61079881610a3d565b50565b5f33905090565b6107af8383836001610b00565b505050565b5f6107bf848461068f565b90507fffffffffffffffffffffffffffffffffffffffffffffffffffffffffffffffff8110156108415781811015610832578281836040517ffb8f41b2000000000000000000000000000000000000000000000000000000008152600401610829939291906113d7565b60405180910390fd5b61084084848484035f610b00565b5b50505050565b5f73ffffffffffffffffffffffffffffffffffffffff168373ffffffffffffffffffffffffffffffffffffffff16036108b7575f6040517f96c6fd1e0000000000000000000000000000000000000000000000000000000081526004016108ae9190611160565b60405180910390fd5b5f73ffffffffffffffffffffffffffffffffffffffff168273ffffffffffffffffffffffffffffffffffffffff1603610927575f6040517fec442f0500000000000000000000000000000000000000000000000000000000815260040161091e9190611160565b60405180910390fd5b610932838383610ccf565b505050565b61093f61079b565b73ffffffffffffffffffffffffffffffffffffffff1661095d61055f565b73ffffffffffffffffffffffffffffffffffffffff16146109bc5761098061079b565b6040517f118cdaa70000000000000000000000000000000000000000000000000000000081526004016109b39190611160565b60405180910390fd5b565b5f73ffffffffffffffffffffffffffffffffffffffff168273ffffffffffffffffffffffffffffffffffffffff1603610a2e575f6040517fec442f05000000000000000000000000000000000000000000000000000000008152600401610a259190611160565b60405180910390fd5b610a395f8383610ccf565b5050565b5f60055f9054906101000a900473ffffffffffffffffffffffffffffffffffffffff1690508160055f6101000a81548173ffffffffffffffffffffffffffffffffffffffff021916908373ffffffffffffffffffffffffffffffffffffffff1602179055508173ffffffffffffffffffffffffffffffffffffffff168173ffffffffffffffffffffffffffffffffffffffff167f8be0079c531659141344cd1fd0a4f28419497f9722a3daafe3b4186f6b6457e060405160405180910390a35050565b5f73ffffffffffffffffffffffffffffffffffffffff168473ffffffffffffffffffffffffffffffffffffffff1603610b70575f6040517fe602df05000000000000000000000000000000000000000000000000000000008152600401610b679190611160565b60405180910390fd5b5f73ffffffffffffffffffffffffffffffffffffffff168373ffffffffffffffffffffffffffffffffffffffff1603610be0575f6040517f94280d62000000000000000000000000000000000000000000000000000000008152600401610bd79190611160565b60405180910390fd5b8160015f8673ffffffffffffffffffffffffffffffffffffffff1673ffffffffffffffffffffffffffffffffffffffff1681526020019081526020015f205f8573ffffffffffffffffffffffffffffffffffffffff1673ffffffffffffffffffffffffffffffffffffffff1681526020019081526020015f20819055508015610cc9578273ffffffffffffffffffffffffffffffffffffffff168473ffffffffffffffffffffffffffffffffffffffff167f8c5be1e5ebec7d5bd14f71427d1e84f3dd0314c0f7b2291e5b200ac8c7c3b92584604051610cc09190611089565b60405180910390a35b50505050565b5f73ffffffffffffffffffffffffffffffffffffffff168373ffffffffffffffffffffffffffffffffffffffff1603610d1f578060025f828254610d13919061126c565b92505081905550610ded565b5f5f5f8573ffffffffffffffffffffffffffffffffffffffff1673ffffffffffffffffffffffffffffffffffffffff1681526020019081526020015f2054905081811015610da8578381836040517fe450d38c000000000000000000000000000000000000000000000000000000008152600401610d9f939291906113d7565b60405180910390fd5b8181035f5f8673ffffffffffffffffffffffffffffffffffffffff1673ffffffffffffffffffffffffffffffffffffffff1681526020019081526020015f2081905550505b5f73ffffffffffffffffffffffffffffffffffffffff168273ffffffffffffffffffffffffffffffffffffffff1603610e34578060025f8282540392505081905550610e7e565b805f5f8473ffffffffffffffffffffffffffffffffffffffff1673ffffffffffffffffffffffffffffffffffffffff1681526020019081526020015f205f82825401925050819055505b8173ffffffffffffffffffffffffffffffffffffffff168373ffffffffffffffffffffffffffffffffffffffff167fddf252ad1be2c89b69c2b068fc378daa952ba7f163c4a11628f55a4df523b3ef83604051610edb9190611089565b60405180910390a3505050565b5f81519050919050565b5f82825260208201905092915050565b8281835e5f83830152505050565b5f601f19601f8301169050919050565b5f610f2a82610ee8565b610f348185610ef2565b9350610f44818560208601610f02565b610f4d81610f10565b840191505092915050565b5f6020820190508181035f830152610f708184610f20565b905092915050565b5f5ffd5b5f73ffffffffffffffffffffffffffffffffffffffff82169050919050565b5f610fa582610f7c565b9050919050565b610fb581610f9b565b8114610fbf575f5ffd5b50565b5f81359050610fd081610fac565b92915050565b5f819050919050565b610fe881610fd6565b8114610ff2575f5ffd5b50565b5f8135905061100381610fdf565b92915050565b5f5f6040838503121561101f5761101e610f78565b5b5f61102c85828601610fc2565b925050602061103d85828601610ff5565b9150509250929050565b5f8115159050919050565b61105b81611047565b82525050565b5f6020820190506110745f830184611052565b92915050565b61108381610fd6565b82525050565b5f60208201905061109c5f83018461107a565b92915050565b5f5f5f606084860312156110b9576110b8610f78565b5b5f6110c686828701610fc2565b93505060206110d786828701610fc2565b92505060406110e886828701610ff5565b9150509250925092565b5f60ff82169050919050565b611107816110f2565b82525050565b5f6020820190506111205f8301846110fe565b92915050565b5f6020828403121561113b5761113a610f78565b5b5f61114884828501610fc2565b91505092915050565b61115a81610f9b565b82525050565b5f6020820190506111735f830184611151565b92915050565b5f6020828403121561118e5761118d610f78565b5b5f61119b84828501610ff5565b91505092915050565b5f5f604083850312156111ba576111b9610f78565b5b5f6111c785828601610fc2565b92505060206111d885828601610fc2565b9150509250929050565b7f4e487b71000000000000000000000000000000000000000000000000000000005f52602260045260245ffd5b5f600282049050600182168061122657607f821691505b602082108103611239576112386111e2565b5b50919050565b7f4e487b71000000000000000000000000000000000000000000000000000000005f52601160045260245ffd5b5f61127682610fd6565b915061128183610fd6565b92508282019050808211156112995761129861123f565b5b92915050565b7f4d696e74696e6720706572696f642065787069726564000000000000000000005f82015250565b5f6112d3601683610ef2565b91506112de8261129f565b602082019050919050565b5f6020820190508181035f830152611300816112c7565b9050919050565b7f45786365656473206361700000000000000000000000000000000000000000005f82015250565b5f61133b600b83610ef2565b915061134682611307565b602082019050919050565b5f6020820190508181035f8301526113688161132f565b9050919050565b7f4e657720636170206d75737420626520677265617465720000000000000000005f82015250565b5f6113a3601783610ef2565b91506113ae8261136f565b602082019050919050565b5f6020820190508181035f8301526113d081611397565b9050919050565b5f6060820190506113ea5f830186611151565b6113f7602083018561107a565b611404604083018461107a565b94935050505056fea26469706673582212204192a7fb5d3e0382c168cd030540e16820a7a2b7096533a209d00c949c53773464736f6c634300081e0033",
					"opcodes": "PUSH1 0x80 PUSH1 0x40 MSTORE CALLVALUE DUP1 ISZERO PUSH2 0xF JUMPI PUSH0 PUSH0 REVERT JUMPDEST POP PUSH1 0x40 MLOAD PUSH2 0x1D7D CODESIZE SUB DUP1 PUSH2 0x1D7D DUP4 CODECOPY DUP2 DUP2 ADD PUSH1 0x40 MSTORE DUP2 ADD SWAP1 PUSH2 0x31 SWAP2 SWAP1 PUSH2 0x371 JUMP JUMPDEST CALLER DUP5 DUP5 DUP2 PUSH1 0x3 SWAP1 DUP2 PUSH2 0x43 SWAP2 SWAP1 PUSH2 0x614 JUMP JUMPDEST POP DUP1 PUSH1 0x4 SWAP1 DUP2 PUSH2 0x53 SWAP2 SWAP1 PUSH2 0x614 JUMP JUMPDEST POP POP POP PUSH0 PUSH20 0xFFFFFFFFFFFFFFFFFFFFFFFFFFFFFFFFFFFFFFFF AND DUP2 PUSH20 0xFFFFFFFFFFFFFFFFFFFFFFFFFFFFFFFFFFFFFFFF AND SUB PUSH2 0xC6 JUMPI PUSH0 PUSH1 0x40 MLOAD PUSH32 0x1E4FBDF700000000000000000000000000000000000000000000000000000000 DUP2 MSTORE PUSH1 0x4 ADD PUSH2 0xBD SWAP2 SWAP1 PUSH2 0x722 JUMP JUMPDEST PUSH1 0x40 MLOAD DUP1 SWAP2 SUB SWAP1 REVERT JUMPDEST PUSH2 0xD5 DUP2 PUSH2 0x126 PUSH1 0x20 SHL PUSH1 0x20 SHR JUMP JUMPDEST POP PUSH2 0xE4 PUSH2 0x1E9 PUSH1 0x20 SHL PUSH1 0x20 SHR JUMP JUMPDEST PUSH1 0xA PUSH2 0xF0 SWAP2 SWAP1 PUSH2 0x8A3 JUMP JUMPDEST DUP3 PUSH2 0xFB SWAP2 SWAP1 PUSH2 0x8ED JUMP JUMPDEST PUSH1 0x6 DUP2 SWAP1 SSTORE POP TIMESTAMP PUSH1 0x7 DUP2 SWAP1 SSTORE POP PUSH3 0x15180 DUP2 PUSH2 0x117 SWAP2 SWAP1 PUSH2 0x8ED JUMP JUMPDEST PUSH1 0x8 DUP2 SWAP1 SSTORE POP POP POP POP POP PUSH2 0x92E JUMP JUMPDEST PUSH0 PUSH1 0x5 PUSH0 SWAP1 SLOAD SWAP1 PUSH2 0x100 EXP SWAP1 DIV PUSH20 0xFFFFFFFFFFFFFFFFFFFFFFFFFFFFFFFFFFFFFFFF AND SWAP1 POP DUP2 PUSH1 0x5 PUSH0 PUSH2 0x100 EXP DUP2 SLOAD DUP2 PUSH20 0xFFFFFFFFFFFFFFFFFFFFFFFFFFFFFFFFFFFFFFFF MUL NOT AND SWAP1 DUP4 PUSH20 0xFFFFFFFFFFFFFFFFFFFFFFFFFFFFFFFFFFFFFFFF AND MUL OR SWAP1 SSTORE POP DUP2 PUSH20 0xFFFFFFFFFFFFFFFFFFFFFFFFFFFFFFFFFFFFFFFF AND DUP2 PUSH20 0xFFFFFFFFFFFFFFFFFFFFFFFFFFFFFFFFFFFFFFFF AND PUSH32 0x8BE0079C531659141344CD1FD0A4F28419497F9722A3DAAFE3B4186F6B6457E0 PUSH1 0x40 MLOAD PUSH1 0x40 MLOAD DUP1 SWAP2 SUB SWAP1 LOG3 POP POP JUMP JUMPDEST PUSH0 PUSH1 0x12 SWAP1 POP SWAP1 JUMP JUMPDEST PUSH0 PUSH1 0x40 MLOAD SWAP1 POP SWAP1 JUMP JUMPDEST PUSH0 PUSH0 REVERT JUMPDEST PUSH0 PUSH0 REVERT JUMPDEST PUSH0 PUSH0 REVERT JUMPDEST PUSH0 PUSH0 REVERT JUMPDEST PUSH0 PUSH1 0x1F NOT PUSH1 0x1F DUP4 ADD AND SWAP1 POP SWAP2 SWAP1 POP JUMP JUMPDEST PUSH32 0x4E487B7100000000000000000000000000000000000000000000000000000000 PUSH0 MSTORE PUSH1 0x41 PUSH1 0x4 MSTORE PUSH1 0x24 PUSH0 REVERT JUMPDEST PUSH2 0x250 DUP3 PUSH2 0x20A JUMP JUMPDEST DUP2 ADD DUP2 DUP2 LT PUSH8 0xFFFFFFFFFFFFFFFF DUP3 GT OR ISZERO PUSH2 0x26F JUMPI PUSH2 0x26E PUSH2 0x21A JUMP JUMPDEST JUMPDEST DUP1 PUSH1 0x40 MSTORE POP POP POP JUMP JUMPDEST PUSH0 PUSH2 0x281 PUSH2 0x1F1 JUMP JUMPDEST SWAP1 POP PUSH2 0x28D DUP3 DUP3 PUSH2 0x247 JUMP JUMPDEST SWAP2 SWAP1 POP JUMP JUMPDEST PUSH0 PUSH8 0xFFFFFFFFFFFFFFFF DUP3 GT ISZERO PUSH2 0x2AC JUMPI PUSH2 0x2AB PUSH2 0x21A JUMP JUMPDEST JUMPDEST PUSH2 0x2B5 DUP3 PUSH2 0x20A JUMP JUMPDEST SWAP1 POP PUSH1 0x20 DUP2 ADD SWAP1 POP SWAP2 SWAP1 POP JUMP JUMPDEST DUP3 DUP2 DUP4 MCOPY PUSH0 DUP4 DUP4 ADD MSTORE POP POP POP JUMP JUMPDEST PUSH0 PUSH2 0x2E2 PUSH2 0x2DD DUP5 PUSH2 0x292 JUMP JUMPDEST PUSH2 0x278 JUMP JUMPDEST SWAP1 POP DUP3 DUP2 MSTORE PUSH1 0x20 DUP2 ADD DUP5 DUP5 DUP5 ADD GT ISZERO PUSH2 0x2FE JUMPI PUSH2 0x2FD PUSH2 0x206 JUMP JUMPDEST JUMPDEST PUSH2 0x309 DUP5 DUP3 DUP6 PUSH2 0x2C2 JUMP JUMPDEST POP SWAP4 SWAP3 POP POP POP JUMP JUMPDEST PUSH0 DUP3 PUSH1 0x1F DUP4 ADD SLT PUSH2 0x325 JUMPI PUSH2 0x324 PUSH2 0x202 JUMP JUMPDEST JUMPDEST DUP2 MLOAD PUSH2 0x335 DUP5 DUP3 PUSH1 0x20 DUP7 ADD PUSH2 0x2D0 JUMP JUMPDEST SWAP2 POP POP SWAP3 SWAP2 POP POP JUMP JUMPDEST PUSH0 DUP2 SWAP1 POP SWAP2 SWAP1 POP JUMP JUMPDEST PUSH2 0x350 DUP2 PUSH2 0x33E JUMP JUMPDEST DUP2 EQ PUSH2 0x35A JUMPI PUSH0 PUSH0 REVERT JUMPDEST POP JUMP JUMPDEST PUSH0 DUP2 MLOAD SWAP1 POP PUSH2 0x36B DUP2 PUSH2 0x347 JUMP JUMPDEST SWAP3 SWAP2 POP POP JUMP JUMPDEST PUSH0 PUSH0 PUSH0 PUSH0 PUSH1 0x80 DUP6 DUP8 SUB SLT ISZERO PUSH2 0x389 JUMPI PUSH2 0x388 PUSH2 0x1FA JUMP JUMPDEST JUMPDEST PUSH0 DUP6 ADD MLOAD PUSH8 0xFFFFFFFFFFFFFFFF DUP2 GT ISZERO PUSH2 0x3A6 JUMPI PUSH2 0x3A5 PUSH2 0x1FE JUMP JUMPDEST JUMPDEST PUSH2 0x3B2 DUP8 DUP3 DUP9 ADD PUSH2 0x311 JUMP JUMPDEST SWAP5 POP POP PUSH1 0x20 DUP6 ADD MLOAD PUSH8 0xFFFFFFFFFFFFFFFF DUP2 GT ISZERO PUSH2 0x3D3 JUMPI PUSH2 0x3D2 PUSH2 0x1FE JUMP JUMPDEST JUMPDEST PUSH2 0x3DF DUP8 DUP3 DUP9 ADD PUSH2 0x311 JUMP JUMPDEST SWAP4 POP POP PUSH1 0x40 PUSH2 0x3F0 DUP8 DUP3 DUP9 ADD PUSH2 0x35D JUMP JUMPDEST SWAP3 POP POP PUSH1 0x60 PUSH2 0x401 DUP8 DUP3 DUP9 ADD PUSH2 0x35D JUMP JUMPDEST SWAP2 POP POP SWAP3 SWAP6 SWAP2 SWAP5 POP SWAP3 POP JUMP JUMPDEST PUSH0 DUP2 MLOAD SWAP1 POP SWAP2 SWAP1 POP JUMP JUMPDEST PUSH32 0x4E487B7100000000000000000000000000000000000000000000000000000000 PUSH0 MSTORE PUSH1 0x22 PUSH1 0x4 MSTORE PUSH1 0x24 PUSH0 REVERT JUMPDEST PUSH0 PUSH1 0x2 DUP3 DIV SWAP1 POP PUSH1 0x1 DUP3 AND DUP1 PUSH2 0x45B JUMPI PUSH1 0x7F DUP3 AND SWAP2 POP JUMPDEST PUSH1 0x20 DUP3 LT DUP2 SUB PUSH2 0x46E JUMPI PUSH2 0x46D PUSH2 0x417 JUMP JUMPDEST JUMPDEST POP SWAP2 SWAP1 POP JUMP JUMPDEST PUSH0 DUP2 SWAP1 POP DUP2 PUSH0 MSTORE PUSH1 0x20 PUSH0 KECCAK256 SWAP1 POP SWAP2 SWAP1 POP JUMP JUMPDEST PUSH0 PUSH1 0x20 PUSH1 0x1F DUP4 ADD DIV SWAP1 POP SWAP2 SWAP1 POP JUMP JUMPDEST PUSH0 DUP3 DUP3 SHL SWAP1 POP SWAP3 SWAP2 POP POP JUMP JUMPDEST PUSH0 PUSH1 0x8 DUP4 MUL PUSH2 0x4D0 PUSH32 0xFFFFFFFFFFFFFFFFFFFFFFFFFFFFFFFFFFFFFFFFFFFFFFFFFFFFFFFFFFFFFFFF DUP3 PUSH2 0x495 JUMP JUMPDEST PUSH2 0x4DA DUP7 DUP4 PUSH2 0x495 JUMP JUMPDEST SWAP6 POP DUP1 NOT DUP5 AND SWAP4 POP DUP1 DUP7 AND DUP5 OR SWAP3 POP POP POP SWAP4 SWAP3 POP POP POP JUMP JUMPDEST PUSH0 DUP2 SWAP1 POP SWAP2 SWAP1 POP JUMP JUMPDEST PUSH0 PUSH2 0x515 PUSH2 0x510 PUSH2 0x50B DUP5 PUSH2 0x33E JUMP JUMPDEST PUSH2 0x4F2 JUMP JUMPDEST PUSH2 0x33E JUMP JUMPDEST SWAP1 POP SWAP2 SWAP1 POP JUMP JUMPDEST PUSH0 DUP2 SWAP1 POP SWAP2 SWAP1 POP JUMP JUMPDEST PUSH2 0x52E DUP4 PUSH2 0x4FB JUMP JUMPDEST PUSH2 0x542 PUSH2 0x53A DUP3 PUSH2 0x51C JUMP JUMPDEST DUP5 DUP5 SLOAD PUSH2 0x4A1 JUMP JUMPDEST DUP3 SSTORE POP POP POP POP JUMP JUMPDEST PUSH0 PUSH0 SWAP1 POP SWAP1 JUMP JUMPDEST PUSH2 0x559 PUSH2 0x54A JUMP JUMPDEST PUSH2 0x564 DUP2 DUP5 DUP5 PUSH2 0x525 JUMP JUMPDEST POP POP POP JUMP JUMPDEST JUMPDEST DUP2 DUP2 LT ISZERO PUSH2 0x587 JUMPI PUSH2 0x57C PUSH0 DUP3 PUSH2 0x551 JUMP JUMPDEST PUSH1 0x1 DUP2 ADD SWAP1 POP PUSH2 0x56A JUMP JUMPDEST POP POP JUMP JUMPDEST PUSH1 0x1F DUP3 GT ISZERO PUSH2 0x5CC JUMPI PUSH2 0x59D DUP2 PUSH2 0x474 JUMP JUMPDEST PUSH2 0x5A6 DUP5 PUSH2 0x486 JUMP JUMPDEST DUP2 ADD PUSH1 0x20 DUP6 LT ISZERO PUSH2 0x5B5 JUMPI DUP2 SWAP1 POP JUMPDEST PUSH2 0x5C9 PUSH2 0x5C1 DUP6 PUSH2 0x486 JUMP JUMPDEST DUP4 ADD DUP3 PUSH2 0x569 JUMP JUMPDEST POP POP JUMPDEST POP POP POP JUMP JUMPDEST PUSH0 DUP3 DUP3 SHR SWAP1 POP SWAP3 SWAP2 POP POP JUMP JUMPDEST PUSH0 PUSH2 0x5EC PUSH0 NOT DUP5 PUSH1 0x8 MUL PUSH2 0x5D1 JUMP JUMPDEST NOT DUP1 DUP4 AND SWAP2 POP POP SWAP3 SWAP2 POP POP JUMP JUMPDEST PUSH0 PUSH2 0x604 DUP4 DUP4 PUSH2 0x5DD JUMP JUMPDEST SWAP2 POP DUP3 PUSH1 0x2 MUL DUP3 OR SWAP1 POP SWAP3 SWAP2 POP POP JUMP JUMPDEST PUSH2 0x61D DUP3 PUSH2 0x40D JUMP JUMPDEST PUSH8 0xFFFFFFFFFFFFFFFF DUP2 GT ISZERO PUSH2 0x636 JUMPI PUSH2 0x635 PUSH2 0x21A JUMP JUMPDEST JUMPDEST PUSH2 0x640 DUP3 SLOAD PUSH2 0x444 JUMP JUMPDEST PUSH2 0x64B DUP3 DUP3 DUP6 PUSH2 0x58B JUMP JUMPDEST PUSH0 PUSH1 0x20 SWAP1 POP PUSH1 0x1F DUP4 GT PUSH1 0x1 DUP2 EQ PUSH2 0x67C JUMPI PUSH0 DUP5 ISZERO PUSH2 0x66A JUMPI DUP3 DUP8 ADD MLOAD SWAP1 POP JUMPDEST PUSH2 0x674 DUP6 DUP3 PUSH2 0x5F9 JUMP JUMPDEST DUP7 SSTORE POP PUSH2 0x6DB JUMP JUMPDEST PUSH1 0x1F NOT DUP5 AND PUSH2 0x68A DUP7 PUSH2 0x474 JUMP JUMPDEST PUSH0 JUMPDEST DUP3 DUP2 LT ISZERO PUSH2 0x6B1 JUMPI DUP5 DUP10 ADD MLOAD DUP3 SSTORE PUSH1 0x1 DUP3 ADD SWAP2 POP PUSH1 0x20 DUP6 ADD SWAP5 POP PUSH1 0x20 DUP2 ADD SWAP1 POP PUSH2 0x68C JUMP JUMPDEST DUP7 DUP4 LT ISZERO PUSH2 0x6CE JUMPI DUP5 DUP10 ADD MLOAD PUSH2 0x6CA PUSH1 0x1F DUP10 AND DUP3 PUSH2 0x5DD JUMP JUMPDEST DUP4 SSTORE POP JUMPDEST PUSH1 0x1 PUSH1 0x2 DUP9 MUL ADD DUP9 SSTORE POP POP POP JUMPDEST POP POP POP POP POP POP JUMP JUMPDEST PUSH0 PUSH20 0xFFFFFFFFFFFFFFFFFFFFFFFFFFFFFFFFFFFFFFFF DUP3 AND SWAP1 POP SWAP2 SWAP1 POP JUMP JUMPDEST PUSH0 PUSH2 0x70C DUP3 PUSH2 0x6E3 JUMP JUMPDEST SWAP1 POP SWAP2 SWAP1 POP JUMP JUMPDEST PUSH2 0x71C DUP2 PUSH2 0x702 JUMP JUMPDEST DUP3 MSTORE POP POP JUMP JUMPDEST PUSH0 PUSH1 0x20 DUP3 ADD SWAP1 POP PUSH2 0x735 PUSH0 DUP4 ADD DUP5 PUSH2 0x713 JUMP JUMPDEST SWAP3 SWAP2 POP POP JUMP JUMPDEST PUSH32 0x4E487B7100000000000000000000000000000000000000000000000000000000 PUSH0 MSTORE PUSH1 0x11 PUSH1 0x4 MSTORE PUSH1 0x24 PUSH0 REVERT JUMPDEST PUSH0 DUP2 PUSH1 0x1 SHR SWAP1 POP SWAP2 SWAP1 POP JUMP JUMPDEST PUSH0 PUSH0 DUP3 SWAP2 POP DUP4 SWAP1 POP JUMPDEST PUSH1 0x1 DUP6 GT ISZERO PUSH2 0x7BD JUMPI DUP1 DUP7 DIV DUP2 GT ISZERO PUSH2 0x799 JUMPI PUSH2 0x798 PUSH2 0x73B JUMP JUMPDEST JUMPDEST PUSH1 0x1 DUP6 AND ISZERO PUSH2 0x7A8 JUMPI DUP1 DUP3 MUL SWAP2 POP JUMPDEST DUP1 DUP2 MUL SWAP1 POP PUSH2 0x7B6 DUP6 PUSH2 0x768 JUMP JUMPDEST SWAP5 POP PUSH2 0x77D JUMP JUMPDEST SWAP5 POP SWAP5 SWAP3 POP POP POP JUMP JUMPDEST PUSH0 DUP3 PUSH2 0x7D5 JUMPI PUSH1 0x1 SWAP1 POP PUSH2 0x890 JUMP JUMPDEST DUP2 PUSH2 0x7E2 JUMPI PUSH0 SWAP1 POP PUSH2 0x890 JUMP JUMPDEST DUP2 PUSH1 0x1 DUP2 EQ PUSH2 0x7F8 JUMPI PUSH1 0x2 DUP2 EQ PUSH2 0x802 JUMPI PUSH2 0x831 JUMP JUMPDEST PUSH1 0x1 SWAP2 POP POP PUSH2 0x890 JUMP JUMPDEST PUSH1 0xFF DUP5 GT ISZERO PUSH2 0x814 JUMPI PUSH2 0x813 PUSH2 0x73B JUMP JUMPDEST JUMPDEST DUP4 PUSH1 0x2 EXP SWAP2 POP DUP5 DUP3 GT ISZERO PUSH2 0x82B JUMPI PUSH2 0x82A PUSH2 0x73B JUMP JUMPDEST JUMPDEST POP PUSH2 0x890 JUMP JUMPDEST POP PUSH1 0x20 DUP4 LT PUSH2 0x133 DUP4 LT AND PUSH1 0x4E DUP5 LT PUSH1 0xB DUP5 LT AND OR ISZERO PUSH2 0x866 JUMPI DUP3 DUP3 EXP SWAP1 POP DUP4 DUP2 GT ISZERO PUSH2 0x861 JUMPI PUSH2 0x860 PUSH2 0x73B JUMP JUMPDEST JUMPDEST PUSH2 0x890 JUMP JUMPDEST PUSH2 0x873 DUP5 DUP5 DUP5 PUSH1 0x1 PUSH2 0x774 JUMP JUMPDEST SWAP3 POP SWAP1 POP DUP2 DUP5 DIV DUP2 GT ISZERO PUSH2 0x88A JUMPI PUSH2 0x889 PUSH2 0x73B JUMP JUMPDEST JUMPDEST DUP2 DUP2 MUL SWAP1 POP JUMPDEST SWAP4 SWAP3 POP POP POP JUMP JUMPDEST PUSH0 PUSH1 0xFF DUP3 AND SWAP1 POP SWAP2 SWAP1 POP JUMP JUMPDEST PUSH0 PUSH2 0x8AD DUP3 PUSH2 0x33E JUMP JUMPDEST SWAP2 POP PUSH2 0x8B8 DUP4 PUSH2 0x897 JUMP JUMPDEST SWAP3 POP PUSH2 0x8E5 PUSH32 0xFFFFFFFFFFFFFFFFFFFFFFFFFFFFFFFFFFFFFFFFFFFFFFFFFFFFFFFFFFFFFFFF DUP5 DUP5 PUSH2 0x7C6 JUMP JUMPDEST SWAP1 POP SWAP3 SWAP2 POP POP JUMP JUMPDEST PUSH0 PUSH2 0x8F7 DUP3 PUSH2 0x33E JUMP JUMPDEST SWAP2 POP PUSH2 0x902 DUP4 PUSH2 0x33E JUMP JUMPDEST SWAP3 POP DUP3 DUP3 MUL PUSH2 0x910 DUP2 PUSH2 0x33E JUMP JUMPDEST SWAP2 POP DUP3 DUP3 DIV DUP5 EQ DUP4 ISZERO OR PUSH2 0x927 JUMPI PUSH2 0x926 PUSH2 0x73B JUMP JUMPDEST JUMPDEST POP SWAP3 SWAP2 POP POP JUMP JUMPDEST PUSH2 0x1442 DUP1 PUSH2 0x93B PUSH0 CODECOPY PUSH0 RETURN INVALID PUSH1 0x80 PUSH1 0x40 MSTORE CALLVALUE DUP1 ISZERO PUSH2 0xF JUMPI PUSH0 PUSH0 REVERT JUMPDEST POP PUSH1 0x4 CALLDATASIZE LT PUSH2 0x109 JUMPI PUSH0 CALLDATALOAD PUSH1 0xE0 SHR DUP1 PUSH4 0x70A08231 GT PUSH2 0xA0 JUMPI DUP1 PUSH4 0xA7D68896 GT PUSH2 0x6F JUMPI DUP1 PUSH4 0xA7D68896 EQ PUSH2 0x295 JUMPI DUP1 PUSH4 0xA9059CBB EQ PUSH2 0x2B1 JUMPI DUP1 PUSH4 0xDD62ED3E EQ PUSH2 0x2E1 JUMPI DUP1 PUSH4 0xECDA10F5 EQ PUSH2 0x311 JUMPI DUP1 PUSH4 0xF2FDE38B EQ PUSH2 0x32F JUMPI PUSH2 0x109 JUMP JUMPDEST DUP1 PUSH4 0x70A08231 EQ PUSH2 0x21F JUMPI DUP1 PUSH4 0x715018A6 EQ PUSH2 0x24F JUMPI DUP1 PUSH4 0x8DA5CB5B EQ PUSH2 0x259 JUMPI DUP1 PUSH4 0x95D89B41 EQ PUSH2 0x277 JUMPI PUSH2 0x109 JUMP JUMPDEST DUP1 PUSH4 0x313CE567 GT PUSH2 0xDC JUMPI DUP1 PUSH4 0x313CE567 EQ PUSH2 0x1A9 JUMPI DUP1 PUSH4 0x355274EA EQ PUSH2 0x1C7 JUMPI DUP1 PUSH4 0x40C10F19 EQ PUSH2 0x1E5 JUMPI DUP1 PUSH4 0x55012685 EQ PUSH2 0x201 JUMPI PUSH2 0x109 JUMP JUMPDEST DUP1 PUSH4 0x6FDDE03 EQ PUSH2 0x10D JUMPI DUP1 PUSH4 0x95EA7B3 EQ PUSH2 0x12B JUMPI DUP1 PUSH4 0x18160DDD EQ PUSH2 0x15B JUMPI DUP1 PUSH4 0x23B872DD EQ PUSH2 0x179 JUMPI JUMPDEST PUSH0 PUSH0 REVERT JUMPDEST PUSH2 0x115 PUSH2 0x34B JUMP JUMPDEST PUSH1 0x40 MLOAD PUSH2 0x122 SWAP2 SWAP1 PUSH2 0xF58 JUMP JUMPDEST PUSH1 0x40 MLOAD DUP1 SWAP2 SUB SWAP1 RETURN JUMPDEST PUSH2 0x145 PUSH1 0x4 DUP1 CALLDATASIZE SUB DUP2 ADD SWAP1 PUSH2 0x140 SWAP2 SWAP1 PUSH2 0x1009 JUMP JUMPDEST PUSH2 0x3DB JUMP JUMPDEST PUSH1 0x40 MLOAD PUSH2 0x152 SWAP2 SWAP1 PUSH2 0x1061 JUMP JUMPDEST PUSH1 0x40 MLOAD DUP1 SWAP2 SUB SWAP1 RETURN JUMPDEST PUSH2 0x163 PUSH2 0x3FD JUMP JUMPDEST PUSH1 0x40 MLOAD PUSH2 0x170 SWAP2 SWAP1 PUSH2 0x1089 JUMP JUMPDEST PUSH1 0x40 MLOAD DUP1 SWAP2 SUB SWAP1 RETURN JUMPDEST PUSH2 0x193 PUSH1 0x4 DUP1 CALLDATASIZE SUB DUP2 ADD SWAP1 PUSH2 0x18E SWAP2 SWAP1 PUSH2 0x10A2 JUMP JUMPDEST PUSH2 0x406 JUMP JUMPDEST PUSH1 0x40 MLOAD PUSH2 0x1A0 SWAP2 SWAP1 PUSH2 0x1061 JUMP JUMPDEST PUSH1 0x40 MLOAD DUP1 SWAP2 SUB SWAP1 RETURN JUMPDEST PUSH2 0x1B1 PUSH2 0x434 JUMP JUMPDEST PUSH1 0x40 MLOAD PUSH2 0x1BE SWAP2 SWAP1 PUSH2 0x110D JUMP JUMPDEST PUSH1 0x40 MLOAD DUP1 SWAP2 SUB SWAP1 RETURN JUMPDEST PUSH2 0x1CF PUSH2 0x43C JUMP JUMPDEST PUSH1 0x40 MLOAD PUSH2 0x1DC SWAP2 SWAP1 PUSH2 0x1089 JUMP JUMPDEST PUSH1 0x40 MLOAD DUP1 SWAP2 SUB SWAP1 RETURN JUMPDEST PUSH2 0x1FF PUSH1 0x4 DUP1 CALLDATASIZE SUB DUP2 ADD SWAP1 PUSH2 0x1FA SWAP2 SWAP1 PUSH2 0x1009 JUMP JUMPDEST PUSH2 0x442 JUMP JUMPDEST STOP JUMPDEST PUSH2 0x209 PUSH2 0x501 JUMP JUMPDEST PUSH1 0x40 MLOAD PUSH2 0x216 SWAP2 SWAP1 PUSH2 0x1089 JUMP JUMPDEST PUSH1 0x40 MLOAD DUP1 SWAP2 SUB SWAP1 RETURN JUMPDEST PUSH2 0x239 PUSH1 0x4 DUP1 CALLDATASIZE SUB DUP2 ADD SWAP1 PUSH2 0x234 SWAP2 SWAP1 PUSH2 0x1126 JUMP JUMPDEST PUSH2 0x507 JUMP JUMPDEST PUSH1 0x40 MLOAD PUSH2 0x246 SWAP2 SWAP1 PUSH2 0x1089 JUMP JUMPDEST PUSH1 0x40 MLOAD DUP1 SWAP2 SUB SWAP1 RETURN JUMPDEST PUSH2 0x257 PUSH2 0x54C JUMP JUMPDEST STOP JUMPDEST PUSH2 0x261 PUSH2 0x55F JUMP JUMPDEST PUSH1 0x40 MLOAD PUSH2 0x26E SWAP2 SWAP1 PUSH2 0x1160 JUMP JUMPDEST PUSH1 0x40 MLOAD DUP1 SWAP2 SUB SWAP1 RETURN JUMPDEST PUSH2 0x27F PUSH2 0x587 JUMP JUMPDEST PUSH1 0x40 MLOAD PUSH2 0x28C SWAP2 SWAP1 PUSH2 0xF58 JUMP JUMPDEST PUSH1 0x40 MLOAD DUP1 SWAP2 SUB SWAP1 RETURN JUMPDEST PUSH2 0x2AF PUSH1 0x4 DUP1 CALLDATASIZE SUB DUP2 ADD SWAP1 PUSH2 0x2AA SWAP2 SWAP1 PUSH2 0x1179 JUMP JUMPDEST PUSH2 0x617 JUMP JUMPDEST STOP JUMPDEST PUSH2 0x2CB PUSH1 0x4 DUP1 CALLDATASIZE SUB DUP2 ADD SWAP1 PUSH2 0x2C6 SWAP2 SWAP1 PUSH2 0x1009 JUMP JUMPDEST PUSH2 0x66D JUMP JUMPDEST PUSH1 0x40 MLOAD PUSH2 0x2D8 SWAP2 SWAP1 PUSH2 0x1061 JUMP JUMPDEST PUSH1 0x40 MLOAD DUP1 SWAP2 SUB SWAP1 RETURN JUMPDEST PUSH2 0x2FB PUSH1 0x4 DUP1 CALLDATASIZE SUB DUP2 ADD SWAP1 PUSH2 0x2F6 SWAP2 SWAP1 PUSH2 0x11A4 JUMP JUMPDEST PUSH2 0x68F JUMP JUMPDEST PUSH1 0x40 MLOAD PUSH2 0x308 SWAP2 SWAP1 PUSH2 0x1089 JUMP JUMPDEST PUSH1 0x40 MLOAD DUP1 SWAP2 SUB SWAP1 RETURN JUMPDEST PUSH2 0x319 PUSH2 0x711 JUMP JUMPDEST PUSH1 0x40 MLOAD PUSH2 0x326 SWAP2 SWAP1 PUSH2 0x1089 JUMP JUMPDEST PUSH1 0x40 MLOAD DUP1 SWAP2 SUB SWAP1 RETURN JUMPDEST PUSH2 0x349 PUSH1 0x4 DUP1 CALLDATASIZE SUB DUP2 ADD SWAP1 PUSH2 0x344 SWAP2 SWAP1 PUSH2 0x1126 JUMP JUMPDEST PUSH2 0x717 JUMP JUMPDEST STOP JUMPDEST PUSH1 0x60 PUSH1 0x3 DUP1 SLOAD PUSH2 0x35A SWAP1 PUSH2 0x120F JUMP JUMPDEST DUP1 PUSH1 0x1F ADD PUSH1 0x20 DUP1 SWAP2 DIV MUL PUSH1 0x20 ADD PUSH1 0x40 MLOAD SWAP1 DUP2 ADD PUSH1 0x40 MSTORE DUP1 SWAP3 SWAP2 SWAP1 DUP2 DUP2 MSTORE PUSH1 0x20 ADD DUP3 DUP1 SLOAD PUSH2 0x386 SWAP1 PUSH2 0x120F JUMP JUMPDEST DUP1 ISZERO PUSH2 0x3D1 JUMPI DUP1 PUSH1 0x1F LT PUSH2 0x3A8 JUMPI PUSH2 0x100 DUP1 DUP4 SLOAD DIV MUL DUP4 MSTORE SWAP2 PUSH1 0x20 ADD SWAP2 PUSH2 0x3D1 JUMP JUMPDEST DUP3 ADD SWAP2 SWAP1 PUSH0 MSTORE PUSH1 0x20 PUSH0 KECCAK256 SWAP1 JUMPDEST DUP2 SLOAD DUP2 MSTORE SWAP1 PUSH1 0x1 ADD SWAP1 PUSH1 0x20 ADD DUP1 DUP4 GT PUSH2 0x3B4 JUMPI DUP3 SWAP1 SUB PUSH1 0x1F AND DUP3 ADD SWAP2 JUMPDEST POP POP POP POP POP SWAP1 POP SWAP1 JUMP JUMPDEST PUSH0 PUSH0 PUSH2 0x3E5 PUSH2 0x79B JUMP JUMPDEST SWAP1 POP PUSH2 0x3F2 DUP2 DUP6 DUP6 PUSH2 0x7A2 JUMP JUMPDEST PUSH1 0x1 SWAP2 POP POP SWAP3 SWAP2 POP POP JUMP JUMPDEST PUSH0 PUSH1 0x2 SLOAD SWAP1 POP SWAP1 JUMP JUMPDEST PUSH0 PUSH0 PUSH2 0x410 PUSH2 0x79B JUMP JUMPDEST SWAP1 POP PUSH2 0x41D DUP6 DUP3 DUP6 PUSH2 0x7B4 JUMP JUMPDEST PUSH2 0x428 DUP6 DUP6 DUP6 PUSH2 0x847 JUMP JUMPDEST PUSH1 0x1 SWAP2 POP POP SWAP4 SWAP3 POP POP POP JUMP JUMPDEST PUSH0 PUSH1 0x12 SWAP1 POP SWAP1 JUMP JUMPDEST PUSH1 0x6 SLOAD DUP2 JUMP JUMPDEST PUSH2 0x44A PUSH2 0x937 JUMP JUMPDEST PUSH1 0x8 SLOAD PUSH1 0x7 SLOAD PUSH2 0x45A SWAP2 SWAP1 PUSH2 0x126C JUMP JUMPDEST TIMESTAMP GT ISZERO PUSH2 0x49C JUMPI PUSH1 0x40 MLOAD PUSH32 0x8C379A000000000000000000000000000000000000000000000000000000000 DUP2 MSTORE PUSH1 0x4 ADD PUSH2 0x493 SWAP1 PUSH2 0x12E9 JUMP JUMPDEST PUSH1 0x40 MLOAD DUP1 SWAP2 SUB SWAP1 REVERT JUMPDEST PUSH1 0x6 SLOAD DUP2 PUSH2 0x4A8 PUSH2 0x3FD JUMP JUMPDEST PUSH2 0x4B2 SWAP2 SWAP1 PUSH2 0x126C JUMP JUMPDEST GT ISZERO PUSH2 0x4F3 JUMPI PUSH1 0x40 MLOAD PUSH32 0x8C379A000000000000000000000000000000000000000000000000000000000 DUP2 MSTORE PUSH1 0x4 ADD PUSH2 0x4EA SWAP1 PUSH2 0x1351 JUMP JUMPDEST PUSH1 0x40 MLOAD DUP1 SWAP2 SUB SWAP1 REVERT JUMPDEST PUSH2 0x4FD DUP3 DUP3 PUSH2 0x9BE JUMP JUMPDEST POP POP JUMP JUMPDEST PUSH1 0x8 SLOAD DUP2 JUMP JUMPDEST PUSH0 PUSH0 PUSH0 DUP4 PUSH20 0xFFFFFFFFFFFFFFFFFFFFFFFFFFFFFFFFFFFFFFFF AND PUSH20 0xFFFFFFFFFFFFFFFFFFFFFFFFFFFFFFFFFFFFFFFF AND DUP2 MSTORE PUSH1 0x20 ADD SWAP1 DUP2 MSTORE PUSH1 0x20 ADD PUSH0 KECCAK256 SLOAD SWAP1 POP SWAP2 SWAP1 POP JUMP JUMPDEST PUSH2 0x554 PUSH2 0x937 JUMP JUMPDEST PUSH2 0x55D PUSH0 PUSH2 0xA3D JUMP JUMPDEST JUMP JUMPDEST PUSH0 PUSH1 0x5 PUSH0 SWAP1 SLOAD SWAP1 PUSH2 0x100 EXP SWAP1 DIV PUSH20 0xFFFFFFFFFFFFFFFFFFFFFFFFFFFFFFFFFFFFFFFF AND SWAP1 POP SWAP1 JUMP JUMPDEST PUSH1 0x60 PUSH1 0x4 DUP1 SLOAD PUSH2 0x596 SWAP1 PUSH2 0x120F JUMP JUMPDEST DUP1 PUSH1 0x1F ADD PUSH1 0x20 DUP1 SWAP2 DIV MUL PUSH1 0x20 ADD PUSH1 0x40 MLOAD SWAP1 DUP2 ADD PUSH1 0x40 MSTORE DUP1 SWAP3 SWAP2 SWAP1 DUP2 DUP2 MSTORE PUSH1 0x20 ADD DUP3 DUP1 SLOAD PUSH2 0x5C2 SWAP1 PUSH2 0x120F JUMP JUMPDEST DUP1 ISZERO PUSH2 0x60D JUMPI DUP1 PUSH1 0x1F LT PUSH2 0x5E4 JUMPI PUSH2 0x100 DUP1 DUP4 SLOAD DIV MUL DUP4 MSTORE SWAP2 PUSH1 0x20 ADD SWAP2 PUSH2 0x60D JUMP JUMPDEST DUP3 ADD SWAP2 SWAP1 PUSH0 MSTORE PUSH1 0x20 PUSH0 KECCAK256 SWAP1 JUMPDEST DUP2 SLOAD DUP2 MSTORE SWAP1 PUSH1 0x1 ADD SWAP1 PUSH1 0x20 ADD DUP1 DUP4 GT PUSH2 0x5F0 JUMPI DUP3 SWAP1 SUB PUSH1 0x1F AND DUP3 ADD SWAP2 JUMPDEST POP POP POP POP POP SWAP1 POP SWAP1 JUMP JUMPDEST PUSH2 0x61F PUSH2 0x937 JUMP JUMPDEST PUSH1 0x6 SLOAD DUP2 GT PUSH2 0x663 JUMPI PUSH1 0x40 MLOAD PUSH32 0x8C379A000000000000000000000000000000000000000000000000000000000 DUP2 MSTORE PUSH1 0x4 ADD PUSH2 0x65A SWAP1 PUSH2 0x13B9 JUMP JUMPDEST PUSH1 0x40 MLOAD DUP1 SWAP2 SUB SWAP1 REVERT JUMPDEST DUP1 PUSH1 0x6 DUP2 SWAP1 SSTORE POP POP JUMP JUMPDEST PUSH0 PUSH0 PUSH2 0x677 PUSH2 0x79B JUMP JUMPDEST SWAP1 POP PUSH2 0x684 DUP2 DUP6 DUP6 PUSH2 0x847 JUMP JUMPDEST PUSH1 0x1 SWAP2 POP POP SWAP3 SWAP2 POP POP JUMP JUMPDEST PUSH0 PUSH1 0x1 PUSH0 DUP5 PUSH20 0xFFFFFFFFFFFFFFFFFFFFFFFFFFFFFFFFFFFFFFFF AND PUSH20 0xFFFFFFFFFFFFFFFFFFFFFFFFFFFFFFFFFFFFFFFF AND DUP2 MSTORE PUSH1 0x20 ADD SWAP1 DUP2 MSTORE PUSH1 0x20 ADD PUSH0 KECCAK256 PUSH0 DUP4 PUSH20 0xFFFFFFFFFFFFFFFFFFFFFFFFFFFFFFFFFFFFFFFF AND PUSH20 0xFFFFFFFFFFFFFFFFFFFFFFFFFFFFFFFFFFFFFFFF AND DUP2 MSTORE PUSH1 0x20 ADD SWAP1 DUP2 MSTORE PUSH1 0x20 ADD PUSH0 KECCAK256 SLOAD SWAP1 POP SWAP3 SWAP2 POP POP JUMP JUMPDEST PUSH1 0x7 SLOAD DUP2 JUMP JUMPDEST PUSH2 0x71F PUSH2 0x937 JUMP JUMPDEST PUSH0 PUSH20 0xFFFFFFFFFFFFFFFFFFFFFFFFFFFFFFFFFFFFFFFF AND DUP2 PUSH20 0xFFFFFFFFFFFFFFFFFFFFFFFFFFFFFFFFFFFFFFFF AND SUB PUSH2 0x78F JUMPI PUSH0 PUSH1 0x40 MLOAD PUSH32 0x1E4FBDF700000000000000000000000000000000000000000000000000000000 DUP2 MSTORE PUSH1 0x4 ADD PUSH2 0x786 SWAP2 SWAP1 PUSH2 0x1160 JUMP JUMPDEST PUSH1 0x40 MLOAD DUP1 SWAP2 SUB SWAP1 REVERT JUMPDEST PUSH2 0x798 DUP2 PUSH2 0xA3D JUMP JUMPDEST POP JUMP JUMPDEST PUSH0 CALLER SWAP1 POP SWAP1 JUMP JUMPDEST PUSH2 0x7AF DUP4 DUP4 DUP4 PUSH1 0x1 PUSH2 0xB00 JUMP JUMPDEST POP POP POP JUMP JUMPDEST PUSH0 PUSH2 0x7BF DUP5 DUP5 PUSH2 0x68F JUMP JUMPDEST SWAP1 POP PUSH32 0xFFFFFFFFFFFFFFFFFFFFFFFFFFFFFFFFFFFFFFFFFFFFFFFFFFFFFFFFFFFFFFFF DUP2 LT ISZERO PUSH2 0x841 JUMPI DUP2 DUP2 LT ISZERO PUSH2 0x832 JUMPI DUP3 DUP2 DUP4 PUSH1 0x40 MLOAD PUSH32 0xFB8F41B200000000000000000000000000000000000000000000000000000000 DUP2 MSTORE PUSH1 0x4 ADD PUSH2 0x829 SWAP4 SWAP3 SWAP2 SWAP1 PUSH2 0x13D7 JUMP JUMPDEST PUSH1 0x40 MLOAD DUP1 SWAP2 SUB SWAP1 REVERT JUMPDEST PUSH2 0x840 DUP5 DUP5 DUP5 DUP5 SUB PUSH0 PUSH2 0xB00 JUMP JUMPDEST JUMPDEST POP POP POP POP JUMP JUMPDEST PUSH0 PUSH20 0xFFFFFFFFFFFFFFFFFFFFFFFFFFFFFFFFFFFFFFFF AND DUP4 PUSH20 0xFFFFFFFFFFFFFFFFFFFFFFFFFFFFFFFFFFFFFFFF AND SUB PUSH2 0x8B7 JUMPI PUSH0 PUSH1 0x40 MLOAD PUSH32 0x96C6FD1E00000000000000000000000000000000000000000000000000000000 DUP2 MSTORE PUSH1 0x4 ADD PUSH2 0x8AE SWAP2 SWAP1 PUSH2 0x1160 JUMP JUMPDEST PUSH1 0x40 MLOAD DUP1 SWAP2 SUB SWAP1 REVERT JUMPDEST PUSH0 PUSH20 0xFFFFFFFFFFFFFFFFFFFFFFFFFFFFFFFFFFFFFFFF AND DUP3 PUSH20 0xFFFFFFFFFFFFFFFFFFFFFFFFFFFFFFFFFFFFFFFF AND SUB PUSH2 0x927 JUMPI PUSH0 PUSH1 0x40 MLOAD PUSH32 0xEC442F0500000000000000000000000000000000000000000000000000000000 DUP2 MSTORE PUSH1 0x4 ADD PUSH2 0x91E SWAP2 SWAP1 PUSH2 0x1160 JUMP JUMPDEST PUSH1 0x40 MLOAD DUP1 SWAP2 SUB SWAP1 REVERT JUMPDEST PUSH2 0x932 DUP4 DUP4 DUP4 PUSH2 0xCCF JUMP JUMPDEST POP POP POP JUMP JUMPDEST PUSH2 0x93F PUSH2 0x79B JUMP JUMPDEST PUSH20 0xFFFFFFFFFFFFFFFFFFFFFFFFFFFFFFFFFFFFFFFF AND PUSH2 0x95D PUSH2 0x55F JUMP JUMPDEST PUSH20 0xFFFFFFFFFFFFFFFFFFFFFFFFFFFFFFFFFFFFFFFF AND EQ PUSH2 0x9BC JUMPI PUSH2 0x980 PUSH2 0x79B JUMP JUMPDEST PUSH1 0x40 MLOAD PUSH32 0x118CDAA700000000000000000000000000000000000000000000000000000000 DUP2 MSTORE PUSH1 0x4 ADD PUSH2 0x9B3 SWAP2 SWAP1 PUSH2 0x1160 JUMP JUMPDEST PUSH1 0x40 MLOAD DUP1 SWAP2 SUB SWAP1 REVERT JUMPDEST JUMP JUMPDEST PUSH0 PUSH20 0xFFFFFFFFFFFFFFFFFFFFFFFFFFFFFFFFFFFFFFFF AND DUP3 PUSH20 0xFFFFFFFFFFFFFFFFFFFFFFFFFFFFFFFFFFFFFFFF AND SUB PUSH2 0xA2E JUMPI PUSH0 PUSH1 0x40 MLOAD PUSH32 0xEC442F0500000000000000000000000000000000000000000000000000000000 DUP2 MSTORE PUSH1 0x4 ADD PUSH2 0xA25 SWAP2 SWAP1 PUSH2 0x1160 JUMP JUMPDEST PUSH1 0x40 MLOAD DUP1 SWAP2 SUB SWAP1 REVERT JUMPDEST PUSH2 0xA39 PUSH0 DUP4 DUP4 PUSH2 0xCCF JUMP JUMPDEST POP POP JUMP JUMPDEST PUSH0 PUSH1 0x5 PUSH0 SWAP1 SLOAD SWAP1 PUSH2 0x100 EXP SWAP1 DIV PUSH20 0xFFFFFFFFFFFFFFFFFFFFFFFFFFFFFFFFFFFFFFFF AND SWAP1 POP DUP2 PUSH1 0x5 PUSH0 PUSH2 0x100 EXP DUP2 SLOAD DUP2 PUSH20 0xFFFFFFFFFFFFFFFFFFFFFFFFFFFFFFFFFFFFFFFF MUL NOT AND SWAP1 DUP4 PUSH20 0xFFFFFFFFFFFFFFFFFFFFFFFFFFFFFFFFFFFFFFFF AND MUL OR SWAP1 SSTORE POP DUP2 PUSH20 0xFFFFFFFFFFFFFFFFFFFFFFFFFFFFFFFFFFFFFFFF AND DUP2 PUSH20 0xFFFFFFFFFFFFFFFFFFFFFFFFFFFFFFFFFFFFFFFF AND PUSH32 0x8BE0079C531659141344CD1FD0A4F28419497F9722A3DAAFE3B4186F6B6457E0 PUSH1 0x40 MLOAD PUSH1 0x40 MLOAD DUP1 SWAP2 SUB SWAP1 LOG3 POP POP JUMP JUMPDEST PUSH0 PUSH20 0xFFFFFFFFFFFFFFFFFFFFFFFFFFFFFFFFFFFFFFFF AND DUP5 PUSH20 0xFFFFFFFFFFFFFFFFFFFFFFFFFFFFFFFFFFFFFFFF AND SUB PUSH2 0xB70 JUMPI PUSH0 PUSH1 0x40 MLOAD PUSH32 0xE602DF0500000000000000000000000000000000000000000000000000000000 DUP2 MSTORE PUSH1 0x4 ADD PUSH2 0xB67 SWAP2 SWAP1 PUSH2 0x1160 JUMP JUMPDEST PUSH1 0x40 MLOAD DUP1 SWAP2 SUB SWAP1 REVERT JUMPDEST PUSH0 PUSH20 0xFFFFFFFFFFFFFFFFFFFFFFFFFFFFFFFFFFFFFFFF AND DUP4 PUSH20 0xFFFFFFFFFFFFFFFFFFFFFFFFFFFFFFFFFFFFFFFF AND SUB PUSH2 0xBE0 JUMPI PUSH0 PUSH1 0x40 MLOAD PUSH32 0x94280D6200000000000000000000000000000000000000000000000000000000 DUP2 MSTORE PUSH1 0x4 ADD PUSH2 0xBD7 SWAP2 SWAP1 PUSH2 0x1160 JUMP JUMPDEST PUSH1 0x40 MLOAD DUP1 SWAP2 SUB SWAP1 REVERT JUMPDEST DUP2 PUSH1 0x1 PUSH0 DUP7 PUSH20 0xFFFFFFFFFFFFFFFFFFFFFFFFFFFFFFFFFFFFFFFF AND PUSH20 0xFFFFFFFFFFFFFFFFFFFFFFFFFFFFFFFFFFFFFFFF AND DUP2 MSTORE PUSH1 0x20 ADD SWAP1 DUP2 MSTORE PUSH1 0x20 ADD PUSH0 KECCAK256 PUSH0 DUP6 PUSH20 0xFFFFFFFFFFFFFFFFFFFFFFFFFFFFFFFFFFFFFFFF AND PUSH20 0xFFFFFFFFFFFFFFFFFFFFFFFFFFFFFFFFFFFFFFFF AND DUP2 MSTORE PUSH1 0x20 ADD SWAP1 DUP2 MSTORE PUSH1 0x20 ADD PUSH0 KECCAK256 DUP2 SWAP1 SSTORE POP DUP1 ISZERO PUSH2 0xCC9 JUMPI DUP3 PUSH20 0xFFFFFFFFFFFFFFFFFFFFFFFFFFFFFFFFFFFFFFFF AND DUP5 PUSH20 0xFFFFFFFFFFFFFFFFFFFFFFFFFFFFFFFFFFFFFFFF AND PUSH32 0x8C5BE1E5EBEC7D5BD14F71427D1E84F3DD0314C0F7B2291E5B200AC8C7C3B925 DUP5 PUSH1 0x40 MLOAD PUSH2 0xCC0 SWAP2 SWAP1 PUSH2 0x1089 JUMP JUMPDEST PUSH1 0x40 MLOAD DUP1 SWAP2 SUB SWAP1 LOG3 JUMPDEST POP POP POP POP JUMP JUMPDEST PUSH0 PUSH20 0xFFFFFFFFFFFFFFFFFFFFFFFFFFFFFFFFFFFFFFFF AND DUP4 PUSH20 0xFFFFFFFFFFFFFFFFFFFFFFFFFFFFFFFFFFFFFFFF AND SUB PUSH2 0xD1F JUMPI DUP1 PUSH1 0x2 PUSH0 DUP3 DUP3 SLOAD PUSH2 0xD13 SWAP2 SWAP1 PUSH2 0x126C JUMP JUMPDEST SWAP3 POP POP DUP2 SWAP1 SSTORE POP PUSH2 0xDED JUMP JUMPDEST PUSH0 PUSH0 PUSH0 DUP6 PUSH20 0xFFFFFFFFFFFFFFFFFFFFFFFFFFFFFFFFFFFFFFFF AND PUSH20 0xFFFFFFFFFFFFFFFFFFFFFFFFFFFFFFFFFFFFFFFF AND DUP2 MSTORE PUSH1 0x20 ADD SWAP1 DUP2 MSTORE PUSH1 0x20 ADD PUSH0 KECCAK256 SLOAD SWAP1 POP DUP2 DUP2 LT ISZERO PUSH2 0xDA8 JUMPI DUP4 DUP2 DUP4 PUSH1 0x40 MLOAD PUSH32 0xE450D38C00000000000000000000000000000000000000000000000000000000 DUP2 MSTORE PUSH1 0x4 ADD PUSH2 0xD9F SWAP4 SWAP3 SWAP2 SWAP1 PUSH2 0x13D7 JUMP JUMPDEST PUSH1 0x40 MLOAD DUP1 SWAP2 SUB SWAP1 REVERT JUMPDEST DUP2 DUP2 SUB PUSH0 PUSH0 DUP7 PUSH20 0xFFFFFFFFFFFFFFFFFFFFFFFFFFFFFFFFFFFFFFFF AND PUSH20 0xFFFFFFFFFFFFFFFFFFFFFFFFFFFFFFFFFFFFFFFF AND DUP2 MSTORE PUSH1 0x20 ADD SWAP1 DUP2 MSTORE PUSH1 0x20 ADD PUSH0 KECCAK256 DUP2 SWAP1 SSTORE POP POP JUMPDEST PUSH0 PUSH20 0xFFFFFFFFFFFFFFFFFFFFFFFFFFFFFFFFFFFFFFFF AND DUP3 PUSH20 0xFFFFFFFFFFFFFFFFFFFFFFFFFFFFFFFFFFFFFFFF AND SUB PUSH2 0xE34 JUMPI DUP1 PUSH1 0x2 PUSH0 DUP3 DUP3 SLOAD SUB SWAP3 POP POP DUP2 SWAP1 SSTORE POP PUSH2 0xE7E JUMP JUMPDEST DUP1 PUSH0 PUSH0 DUP5 PUSH20 0xFFFFFFFFFFFFFFFFFFFFFFFFFFFFFFFFFFFFFFFF AND PUSH20 0xFFFFFFFFFFFFFFFFFFFFFFFFFFFFFFFFFFFFFFFF AND DUP2 MSTORE PUSH1 0x20 ADD SWAP1 DUP2 MSTORE PUSH1 0x20 ADD PUSH0 KECCAK256 PUSH0 DUP3 DUP3 SLOAD ADD SWAP3 POP POP DUP2 SWAP1 SSTORE POP JUMPDEST DUP2 PUSH20 0xFFFFFFFFFFFFFFFFFFFFFFFFFFFFFFFFFFFFFFFF AND DUP4 PUSH20 0xFFFFFFFFFFFFFFFFFFFFFFFFFFFFFFFFFFFFFFFF AND PUSH32 0xDDF252AD1BE2C89B69C2B068FC378DAA952BA7F163C4A11628F55A4DF523B3EF DUP4 PUSH1 0x40 MLOAD PUSH2 0xEDB SWAP2 SWAP1 PUSH2 0x1089 JUMP JUMPDEST PUSH1 0x40 MLOAD DUP1 SWAP2 SUB SWAP1 LOG3 POP POP POP JUMP JUMPDEST PUSH0 DUP2 MLOAD SWAP1 POP SWAP2 SWAP1 POP JUMP JUMPDEST PUSH0 DUP3 DUP3 MSTORE PUSH1 0x20 DUP3 ADD SWAP1 POP SWAP3 SWAP2 POP POP JUMP JUMPDEST DUP3 DUP2 DUP4 MCOPY PUSH0 DUP4 DUP4 ADD MSTORE POP POP POP JUMP JUMPDEST PUSH0 PUSH1 0x1F NOT PUSH1 0x1F DUP4 ADD AND SWAP1 POP SWAP2 SWAP1 POP JUMP JUMPDEST PUSH0 PUSH2 0xF2A DUP3 PUSH2 0xEE8 JUMP JUMPDEST PUSH2 0xF34 DUP2 DUP6 PUSH2 0xEF2 JUMP JUMPDEST SWAP4 POP PUSH2 0xF44 DUP2 DUP6 PUSH1 0x20 DUP7 ADD PUSH2 0xF02 JUMP JUMPDEST PUSH2 0xF4D DUP2 PUSH2 0xF10 JUMP JUMPDEST DUP5 ADD SWAP2 POP POP SWAP3 SWAP2 POP POP JUMP JUMPDEST PUSH0 PUSH1 0x20 DUP3 ADD SWAP1 POP DUP2 DUP2 SUB PUSH0 DUP4 ADD MSTORE PUSH2 0xF70 DUP2 DUP5 PUSH2 0xF20 JUMP JUMPDEST SWAP1 POP SWAP3 SWAP2 POP POP JUMP JUMPDEST PUSH0 PUSH0 REVERT JUMPDEST PUSH0 PUSH20 0xFFFFFFFFFFFFFFFFFFFFFFFFFFFFFFFFFFFFFFFF DUP3 AND SWAP1 POP SWAP2 SWAP1 POP JUMP JUMPDEST PUSH0 PUSH2 0xFA5 DUP3 PUSH2 0xF7C JUMP JUMPDEST SWAP1 POP SWAP2 SWAP1 POP JUMP JUMPDEST PUSH2 0xFB5 DUP2 PUSH2 0xF9B JUMP JUMPDEST DUP2 EQ PUSH2 0xFBF JUMPI PUSH0 PUSH0 REVERT JUMPDEST POP JUMP JUMPDEST PUSH0 DUP2 CALLDATALOAD SWAP1 POP PUSH2 0xFD0 DUP2 PUSH2 0xFAC JUMP JUMPDEST SWAP3 SWAP2 POP POP JUMP JUMPDEST PUSH0 DUP2 SWAP1 POP SWAP2 SWAP1 POP JUMP JUMPDEST PUSH2 0xFE8 DUP2 PUSH2 0xFD6 JUMP JUMPDEST DUP2 EQ PUSH2 0xFF2 JUMPI PUSH0 PUSH0 REVERT JUMPDEST POP JUMP JUMPDEST PUSH0 DUP2 CALLDATALOAD SWAP1 POP PUSH2 0x1003 DUP2 PUSH2 0xFDF JUMP JUMPDEST SWAP3 SWAP2 POP POP JUMP JUMPDEST PUSH0 PUSH0 PUSH1 0x40 DUP4 DUP6 SUB SLT ISZERO PUSH2 0x101F JUMPI PUSH2 0x101E PUSH2 0xF78 JUMP JUMPDEST JUMPDEST PUSH0 PUSH2 0x102C DUP6 DUP3 DUP7 ADD PUSH2 0xFC2 JUMP JUMPDEST SWAP3 POP POP PUSH1 0x20 PUSH2 0x103D DUP6 DUP3 DUP7 ADD PUSH2 0xFF5 JUMP JUMPDEST SWAP2 POP POP SWAP3 POP SWAP3 SWAP1 POP JUMP JUMPDEST PUSH0 DUP2 ISZERO ISZERO SWAP1 POP SWAP2 SWAP1 POP JUMP JUMPDEST PUSH2 0x105B DUP2 PUSH2 0x1047 JUMP JUMPDEST DUP3 MSTORE POP POP JUMP JUMPDEST PUSH0 PUSH1 0x20 DUP3 ADD SWAP1 POP PUSH2 0x1074 PUSH0 DUP4 ADD DUP5 PUSH2 0x1052 JUMP JUMPDEST SWAP3 SWAP2 POP POP JUMP JUMPDEST PUSH2 0x1083 DUP2 PUSH2 0xFD6 JUMP JUMPDEST DUP3 MSTORE POP POP JUMP JUMPDEST PUSH0 PUSH1 0x20 DUP3 ADD SWAP1 POP PUSH2 0x109C PUSH0 DUP4 ADD DUP5 PUSH2 0x107A JUMP JUMPDEST SWAP3 SWAP2 POP POP JUMP JUMPDEST PUSH0 PUSH0 PUSH0 PUSH1 0x60 DUP5 DUP7 SUB SLT ISZERO PUSH2 0x10B9 JUMPI PUSH2 0x10B8 PUSH2 0xF78 JUMP JUMPDEST JUMPDEST PUSH0 PUSH2 0x10C6 DUP7 DUP3 DUP8 ADD PUSH2 0xFC2 JUMP JUMPDEST SWAP4 POP POP PUSH1 0x20 PUSH2 0x10D7 DUP7 DUP3 DUP8 ADD PUSH2 0xFC2 JUMP JUMPDEST SWAP3 POP POP PUSH1 0x40 PUSH2 0x10E8 DUP7 DUP3 DUP8 ADD PUSH2 0xFF5 JUMP JUMPDEST SWAP2 POP POP SWAP3 POP SWAP3 POP SWAP3 JUMP JUMPDEST PUSH0 PUSH1 0xFF DUP3 AND SWAP1 POP SWAP2 SWAP1 POP JUMP JUMPDEST PUSH2 0x1107 DUP2 PUSH2 0x10F2 JUMP JUMPDEST DUP3 MSTORE POP POP JUMP JUMPDEST PUSH0 PUSH1 0x20 DUP3 ADD SWAP1 POP PUSH2 0x1120 PUSH0 DUP4 ADD DUP5 PUSH2 0x10FE JUMP JUMPDEST SWAP3 SWAP2 POP POP JUMP JUMPDEST PUSH0 PUSH1 0x20 DUP3 DUP5 SUB SLT ISZERO PUSH2 0x113B JUMPI PUSH2 0x113A PUSH2 0xF78 JUMP JUMPDEST JUMPDEST PUSH0 PUSH2 0x1148 DUP5 DUP3 DUP6 ADD PUSH2 0xFC2 JUMP JUMPDEST SWAP2 POP POP SWAP3 SWAP2 POP POP JUMP JUMPDEST PUSH2 0x115A DUP2 PUSH2 0xF9B JUMP JUMPDEST DUP3 MSTORE POP POP JUMP JUMPDEST PUSH0 PUSH1 0x20 DUP3 ADD SWAP1 POP PUSH2 0x1173 PUSH0 DUP4 ADD DUP5 PUSH2 0x1151 JUMP JUMPDEST SWAP3 SWAP2 POP POP JUMP JUMPDEST PUSH0 PUSH1 0x20 DUP3 DUP5 SUB SLT ISZERO PUSH2 0x118E JUMPI PUSH2 0x118D PUSH2 0xF78 JUMP JUMPDEST JUMPDEST PUSH0 PUSH2 0x119B DUP5 DUP3 DUP6 ADD PUSH2 0xFF5 JUMP JUMPDEST SWAP2 POP POP SWAP3 SWAP2 POP POP JUMP JUMPDEST PUSH0 PUSH0 PUSH1 0x40 DUP4 DUP6 SUB SLT ISZERO PUSH2 0x11BA JUMPI PUSH2 0x11B9 PUSH2 0xF78 JUMP JUMPDEST JUMPDEST PUSH0 PUSH2 0x11C7 DUP6 DUP3 DUP7 ADD PUSH2 0xFC2 JUMP JUMPDEST SWAP3 POP POP PUSH1 0x20 PUSH2 0x11D8 DUP6 DUP3 DUP7 ADD PUSH2 0xFC2 JUMP JUMPDEST SWAP2 POP POP SWAP3 POP SWAP3 SWAP1 POP JUMP JUMPDEST PUSH32 0x4E487B7100000000000000000000000000000000000000000000000000000000 PUSH0 MSTORE PUSH1 0x22 PUSH1 0x4 MSTORE PUSH1 0x24 PUSH0 REVERT JUMPDEST PUSH0 PUSH1 0x2 DUP3 DIV SWAP1 POP PUSH1 0x1 DUP3 AND DUP1 PUSH2 0x1226 JUMPI PUSH1 0x7F DUP3 AND SWAP2 POP JUMPDEST PUSH1 0x20 DUP3 LT DUP2 SUB PUSH2 0x1239 JUMPI PUSH2 0x1238 PUSH2 0x11E2 JUMP JUMPDEST JUMPDEST POP SWAP2 SWAP1 POP JUMP JUMPDEST PUSH32 0x4E487B7100000000000000000000000000000000000000000000000000000000 PUSH0 MSTORE PUSH1 0x11 PUSH1 0x4 MSTORE PUSH1 0x24 PUSH0 REVERT JUMPDEST PUSH0 PUSH2 0x1276 DUP3 PUSH2 0xFD6 JUMP JUMPDEST SWAP2 POP PUSH2 0x1281 DUP4 PUSH2 0xFD6 JUMP JUMPDEST SWAP3 POP DUP3 DUP3 ADD SWAP1 POP DUP1 DUP3 GT ISZERO PUSH2 0x1299 JUMPI PUSH2 0x1298 PUSH2 0x123F JUMP JUMPDEST JUMPDEST SWAP3 SWAP2 POP POP JUMP JUMPDEST PUSH32 0x4D696E74696E6720706572696F64206578706972656400000000000000000000 PUSH0 DUP3 ADD MSTORE POP JUMP JUMPDEST PUSH0 PUSH2 0x12D3 PUSH1 0x16 DUP4 PUSH2 0xEF2 JUMP JUMPDEST SWAP2 POP PUSH2 0x12DE DUP3 PUSH2 0x129F JUMP JUMPDEST PUSH1 0x20 DUP3 ADD SWAP1 POP SWAP2 SWAP1 POP JUMP JUMPDEST PUSH0 PUSH1 0x20 DUP3 ADD SWAP1 POP DUP2 DUP2 SUB PUSH0 DUP4 ADD MSTORE PUSH2 0x1300 DUP2 PUSH2 0x12C7 JUMP JUMPDEST SWAP1 POP SWAP2 SWAP1 POP JUMP JUMPDEST PUSH32 0x4578636565647320636170000000000000000000000000000000000000000000 PUSH0 DUP3 ADD MSTORE POP JUMP JUMPDEST PUSH0 PUSH2 0x133B PUSH1 0xB DUP4 PUSH2 0xEF2 JUMP JUMPDEST SWAP2 POP PUSH2 0x1346 DUP3 PUSH2 0x1307 JUMP JUMPDEST PUSH1 0x20 DUP3 ADD SWAP1 POP SWAP2 SWAP1 POP JUMP JUMPDEST PUSH0 PUSH1 0x20 DUP3 ADD SWAP1 POP DUP2 DUP2 SUB PUSH0 DUP4 ADD MSTORE PUSH2 0x1368 DUP2 PUSH2 0x132F JUMP JUMPDEST SWAP1 POP SWAP2 SWAP1 POP JUMP JUMPDEST PUSH32 0x4E657720636170206D7573742062652067726561746572000000000000000000 PUSH0 DUP3 ADD MSTORE POP JUMP JUMPDEST PUSH0 PUSH2 0x13A3 PUSH1 0x17 DUP4 PUSH2 0xEF2 JUMP JUMPDEST SWAP2 POP PUSH2 0x13AE DUP3 PUSH2 0x136F JUMP JUMPDEST PUSH1 0x20 DUP3 ADD SWAP1 POP SWAP2 SWAP1 POP JUMP JUMPDEST PUSH0 PUSH1 0x20 DUP3 ADD SWAP1 POP DUP2 DUP2 SUB PUSH0 DUP4 ADD MSTORE PUSH2 0x13D0 DUP2 PUSH2 0x1397 JUMP JUMPDEST SWAP1 POP SWAP2 SWAP1 POP JUMP JUMPDEST PUSH0 PUSH1 0x60 DUP3 ADD SWAP1 POP PUSH2 0x13EA PUSH0 DUP4 ADD DUP7 PUSH2 0x1151 JUMP JUMPDEST PUSH2 0x13F7 PUSH1 0x20 DUP4 ADD DUP6 PUSH2 0x107A JUMP JUMPDEST PUSH2 0x1404 PUSH1 0x40 DUP4 ADD DUP5 PUSH2 0x107A JUMP JUMPDEST SWAP5 SWAP4 POP POP POP POP JUMP INVALID LOG2 PUSH5 0x6970667358 0x22 SLT KECCAK256 COINBASE SWAP3 0xA7 EXTSTATICCALL TSTORE RETURNDATACOPY SUB DUP3 0xC1 PUSH9 0xCD030540E16820A7A2 0xB7 MULMOD PUSH6 0x33A209D00C94 SWAP13 MSTORE8 PUSH24 0x3464736F6C634300081E0033000000000000000000000000 "
				},
				"gasEstimates": {
					"creation": {
						"codeDepositCost": "1037200",
						"executionCost": "infinite",
						"totalCost": "infinite"
					},
					"external": {
						"allowance(address,address)": "infinite",
						"approve(address,uint256)": "infinite",
						"balanceOf(address)": "2851",
						"cap()": "2470",
						"decimals()": "361",
						"deploymentTime()": "2513",
						"mint(address,uint256)": "infinite",
						"mintTimeLimit()": "2514",
						"name()": "infinite",
						"owner()": "2582",
						"renounceOwnership()": "infinite",
						"symbol()": "infinite",
						"totalSupply()": "2500",
						"transfer(address,uint256)": "infinite",
						"transferFrom(address,address,uint256)": "infinite",
						"transferOwnership(address)": "infinite",
						"updateCap(uint256)": "infinite"
					}
				},
				"methodIdentifiers": {
					"allowance(address,address)": "dd62ed3e",
					"approve(address,uint256)": "095ea7b3",
					"balanceOf(address)": "70a08231",
					"cap()": "355274ea",
					"decimals()": "313ce567",
					"deploymentTime()": "ecda10f5",
					"mint(address,uint256)": "40c10f19",
					"mintTimeLimit()": "55012685",
					"name()": "06fdde03",
					"owner()": "8da5cb5b",
					"renounceOwnership()": "715018a6",
					"symbol()": "95d89b41",
					"totalSupply()": "18160ddd",
					"transfer(address,uint256)": "a9059cbb",
					"transferFrom(address,address,uint256)": "23b872dd",
					"transferOwnership(address)": "f2fde38b",
					"updateCap(uint256)": "a7d68896"
				}
			},
			"storageLayout": {
				"storage": [
					{
						"astId": 307,
						"contract": "MintCapTime.sol:KrunalToken",
						"label": "_balances",
						"offset": 0,
						"slot": "0",
						"type": "t_mapping(t_address,t_uint256)"
					},
					{
						"astId": 313,
						"contract": "MintCapTime.sol:KrunalToken",
						"label": "_allowances",
						"offset": 0,
						"slot": "1",
						"type": "t_mapping(t_address,t_mapping(t_address,t_uint256))"
					},
					{
						"astId": 315,
						"contract": "MintCapTime.sol:KrunalToken",
						"label": "_totalSupply",
						"offset": 0,
						"slot": "2",
						"type": "t_uint256"
					},
					{
						"astId": 317,
						"contract": "MintCapTime.sol:KrunalToken",
						"label": "_name",
						"offset": 0,
						"slot": "3",
						"type": "t_string_storage"
					},
					{
						"astId": 319,
						"contract": "MintCapTime.sol:KrunalToken",
						"label": "_symbol",
						"offset": 0,
						"slot": "4",
						"type": "t_string_storage"
					},
					{
						"astId": 8,
						"contract": "MintCapTime.sol:KrunalToken",
						"label": "_owner",
						"offset": 0,
						"slot": "5",
						"type": "t_address"
					},
					{
						"astId": 943,
						"contract": "MintCapTime.sol:KrunalToken",
						"label": "cap",
						"offset": 0,
						"slot": "6",
						"type": "t_uint256"
					},
					{
						"astId": 945,
						"contract": "MintCapTime.sol:KrunalToken",
						"label": "deploymentTime",
						"offset": 0,
						"slot": "7",
						"type": "t_uint256"
					},
					{
						"astId": 947,
						"contract": "MintCapTime.sol:KrunalToken",
						"label": "mintTimeLimit",
						"offset": 0,
						"slot": "8",
						"type": "t_uint256"
					}
				],
				"types": {
					"t_address": {
						"encoding": "inplace",
						"label": "address",
						"numberOfBytes": "20"
					},
					"t_mapping(t_address,t_mapping(t_address,t_uint256))": {
						"encoding": "mapping",
						"key": "t_address",
						"label": "mapping(address => mapping(address => uint256))",
						"numberOfBytes": "32",
						"value": "t_mapping(t_address,t_uint256)"
					},
					"t_mapping(t_address,t_uint256)": {
						"encoding": "mapping",
						"key": "t_address",
						"label": "mapping(address => uint256)",
						"numberOfBytes": "32",
						"value": "t_uint256"
					},
					"t_string_storage": {
						"encoding": "bytes",
						"label": "string",
						"numberOfBytes": "32"
					},
					"t_uint256": {
						"encoding": "inplace",
						"label": "uint256",
						"numberOfBytes": "32"
					}
				}
			},
			"userdoc": {
				"kind": "user",
				"methods": {},
				"version": 1
			}
		}
	}
}