{
	"CommunityWallet.sol": {
		"CommunityWallet": {
			"abi": [
				{
					"inputs": [],
					"stateMutability": "nonpayable",
					"type": "constructor"
				},
				{
					"anonymous": false,
					"inputs": [
						{
							"indexed": true,
							"internalType": "address",
							"name": "from",
							"type": "address"
						},
						{
							"indexed": false,
							"internalType": "uint256",
							"name": "amount",
							"type": "uint256"
						}
					],
					"name": "Donated",
					"type": "event"
				},
				{
					"anonymous": false,
					"inputs": [
						{
							"indexed": false,
							"internalType": "address",
							"name": "caller",
							"type": "address"
						},
						{
							"indexed": false,
							"internalType": "uint256",
							"name": "value",
							"type": "uint256"
						}
					],
					"name": "FallbackCalled",
					"type": "event"
				},
				{
					"anonymous": false,
					"inputs": [
						{
							"indexed": false,
							"internalType": "address",
							"name": "to",
							"type": "address"
						},
						{
							"indexed": false,
							"internalType": "uint256",
							"name": "amount",
							"type": "uint256"
						}
					],
					"name": "Withdrawn",
					"type": "event"
				},
				{
					"stateMutability": "payable",
					"type": "fallback"
				},
				{
					"inputs": [
						{
							"internalType": "uint256",
							"name": "_x",
							"type": "uint256"
						}
					],
					"name": "assertExample",
					"outputs": [
						{
							"internalType": "string",
							"name": "",
							"type": "string"
						}
					],
					"stateMutability": "pure",
					"type": "function"
				},
				{
					"inputs": [],
					"name": "donate",
					"outputs": [],
					"stateMutability": "payable",
					"type": "function"
				},
				{
					"inputs": [
						{
							"internalType": "uint256",
							"name": "",
							"type": "uint256"
						}
					],
					"name": "donorList",
					"outputs": [
						{
							"internalType": "address",
							"name": "",
							"type": "address"
						}
					],
					"stateMutability": "view",
					"type": "function"
				},
				{
					"inputs": [
						{
							"internalType": "address",
							"name": "",
							"type": "address"
						}
					],
					"name": "donors",
					"outputs": [
						{
							"internalType": "uint256",
							"name": "totalDonated",
							"type": "uint256"
						},
						{
							"internalType": "uint256",
							"name": "lastDonation",
							"type": "uint256"
						},
						{
							"internalType": "uint256",
							"name": "donationsCount",
							"type": "uint256"
						}
					],
					"stateMutability": "view",
					"type": "function"
				},
				{
					"inputs": [
						{
							"internalType": "uint256",
							"name": "x",
							"type": "uint256"
						}
					],
					"name": "double",
					"outputs": [
						{
							"internalType": "uint256",
							"name": "",
							"type": "uint256"
						}
					],
					"stateMutability": "pure",
					"type": "function"
				},
				{
					"inputs": [],
					"name": "getBalance",
					"outputs": [
						{
							"internalType": "uint256",
							"name": "",
							"type": "uint256"
						}
					],
					"stateMutability": "view",
					"type": "function"
				},
				{
					"inputs": [],
					"name": "getDonorCount",
					"outputs": [
						{
							"internalType": "uint256",
							"name": "",
							"type": "uint256"
						}
					],
					"stateMutability": "view",
					"type": "function"
				},
				{
					"inputs": [],
					"name": "owner",
					"outputs": [
						{
							"internalType": "address",
							"name": "",
							"type": "address"
						}
					],
					"stateMutability": "view",
					"type": "function"
				},
				{
					"inputs": [
						{
							"internalType": "address payable",
							"name": "_to",
							"type": "address"
						},
						{
							"internalType": "uint256",
							"name": "_amount",
							"type": "uint256"
						}
					],
					"name": "withdraw",
					"outputs": [],
					"stateMutability": "nonpayable",
					"type": "function"
				},
				{
					"stateMutability": "payable",
					"type": "receive"
				}
			],
			"devdoc": {
				"kind": "dev",
				"methods": {},
				"version": 1
			},
			"evm": {
				"assembly": "    /* \"CommunityWallet.sol\":58:2465  contract CommunityWallet {... */\n  mstore(0x40, 0x80)\n    /* \"CommunityWallet.sol\":140:189  constructor() {... */\n  callvalue\n  dup1\n  iszero\n  tag_1\n  jumpi\n  revert(0x00, 0x00)\ntag_1:\n  pop\n    /* \"CommunityWallet.sol\":172:182  msg.sender */\n  caller\n    /* \"CommunityWallet.sol\":164:169  owner */\n  0x00\n  0x00\n    /* \"CommunityWallet.sol\":164:182  owner = msg.sender */\n  0x0100\n  exp\n  dup2\n  sload\n  dup2\n  0xffffffffffffffffffffffffffffffffffffffff\n  mul\n  not\n  and\n  swap1\n  dup4\n  0xffffffffffffffffffffffffffffffffffffffff\n  and\n  mul\n  or\n  swap1\n  sstore\n  pop\n    /* \"CommunityWallet.sol\":58:2465  contract CommunityWallet {... */\n  dataSize(sub_0)\n  dup1\n  dataOffset(sub_0)\n  0x00\n  codecopy\n  0x00\n  return\nstop\n\nsub_0: assembly {\n        /* \"CommunityWallet.sol\":58:2465  contract CommunityWallet {... */\n      mstore(0x40, 0x80)\n      jumpi(tag_1, lt(calldatasize, 0x04))\n      shr(0xe0, calldataload(0x00))\n      dup1\n      0xca0cdea8\n      gt\n      tag_12\n      jumpi\n      dup1\n      0xca0cdea8\n      eq\n      tag_7\n      jumpi\n      dup1\n      0xeb11813b\n      eq\n      tag_8\n      jumpi\n      dup1\n      0xed88c68e\n      eq\n      tag_9\n      jumpi\n      dup1\n      0xeee97206\n      eq\n      tag_10\n      jumpi\n      dup1\n      0xf3fef3a3\n      eq\n      tag_11\n      jumpi\n      jump(tag_2)\n    tag_12:\n      dup1\n      0x12065fe0\n      eq\n      tag_3\n      jumpi\n      dup1\n      0x5eed3dcb\n      eq\n      tag_4\n      jumpi\n      dup1\n      0x69bc2f1e\n      eq\n      tag_5\n      jumpi\n      dup1\n      0x8da5cb5b\n      eq\n      tag_6\n      jumpi\n      jump(tag_2)\n    tag_1:\n      jumpi(tag_2, calldatasize)\n        /* \"CommunityWallet.sol\":2208:2218  msg.sender */\n      caller\n        /* \"CommunityWallet.sol\":2200:2230  Donated(msg.sender, msg.value) */\n      0xffffffffffffffffffffffffffffffffffffffff\n      and\n      0x2a01595cddf097c90216094025db714da3f4e5bd8877b56ba86a24ecead8e543\n        /* \"CommunityWallet.sol\":2220:2229  msg.value */\n      callvalue\n        /* \"CommunityWallet.sol\":2200:2230  Donated(msg.sender, msg.value) */\n      mload(0x40)\n      tag_15\n      swap2\n      swap1\n      tag_16\n      jump\t// in\n    tag_15:\n      mload(0x40)\n      dup1\n      swap2\n      sub\n      swap1\n      log2\n        /* \"CommunityWallet.sol\":58:2465  contract CommunityWallet {... */\n      stop\n    tag_2:\n        /* \"CommunityWallet.sol\":2055:2092  FallbackCalled(msg.sender, msg.value) */\n      0x4fdfaf7cd2ae67f3639149bddef2addc991d3f26e0121df03517ec62523649ca\n        /* \"CommunityWallet.sol\":2070:2080  msg.sender */\n      caller\n        /* \"CommunityWallet.sol\":2082:2091  msg.value */\n      callvalue\n        /* \"CommunityWallet.sol\":2055:2092  FallbackCalled(msg.sender, msg.value) */\n      mload(0x40)\n      tag_19\n      swap3\n      swap2\n      swap1\n      tag_20\n      jump\t// in\n    tag_19:\n      mload(0x40)\n      dup1\n      swap2\n      sub\n      swap1\n      log1\n        /* \"CommunityWallet.sol\":58:2465  contract CommunityWallet {... */\n      stop\n        /* \"CommunityWallet.sol\":1573:1669  function getBalance() external view returns (uint) {... */\n    tag_3:\n      callvalue\n      dup1\n      iszero\n      tag_21\n      jumpi\n      revert(0x00, 0x00)\n    tag_21:\n      pop\n      tag_22\n      tag_23\n      jump\t// in\n    tag_22:\n      mload(0x40)\n      tag_24\n      swap2\n      swap1\n      tag_16\n      jump\t// in\n    tag_24:\n      mload(0x40)\n      dup1\n      swap2\n      sub\n      swap1\n      return\n        /* \"CommunityWallet.sol\":550:576  address[] public donorList */\n    tag_4:\n      callvalue\n      dup1\n      iszero\n      tag_25\n      jumpi\n      revert(0x00, 0x00)\n    tag_25:\n      pop\n      tag_26\n      0x04\n      dup1\n      calldatasize\n      sub\n      dup2\n      add\n      swap1\n      tag_27\n      swap2\n      swap1\n      tag_28\n      jump\t// in\n    tag_27:\n      tag_29\n      jump\t// in\n    tag_26:\n      mload(0x40)\n      tag_30\n      swap2\n      swap1\n      tag_31\n      jump\t// in\n    tag_30:\n      mload(0x40)\n      dup1\n      swap2\n      sub\n      swap1\n      return\n        /* \"CommunityWallet.sol\":1710:1804  function getDonorCount() external view returns (uint) {... */\n    tag_5:\n      callvalue\n      dup1\n      iszero\n      tag_32\n      jumpi\n      revert(0x00, 0x00)\n    tag_32:\n      pop\n      tag_33\n      tag_34\n      jump\t// in\n    tag_33:\n      mload(0x40)\n      tag_35\n      swap2\n      swap1\n      tag_16\n      jump\t// in\n    tag_35:\n      mload(0x40)\n      dup1\n      swap2\n      sub\n      swap1\n      return\n        /* \"CommunityWallet.sol\":113:133  address public owner */\n    tag_6:\n      callvalue\n      dup1\n      iszero\n      tag_36\n      jumpi\n      revert(0x00, 0x00)\n    tag_36:\n      pop\n      tag_37\n      tag_38\n      jump\t// in\n    tag_37:\n      mload(0x40)\n      tag_39\n      swap2\n      swap1\n      tag_31\n      jump\t// in\n    tag_39:\n      mload(0x40)\n      dup1\n      swap2\n      sub\n      swap1\n      return\n        /* \"CommunityWallet.sol\":505:544  mapping(address => Donor) public donors */\n    tag_7:\n      callvalue\n      dup1\n      iszero\n      tag_40\n      jumpi\n      revert(0x00, 0x00)\n    tag_40:\n      pop\n      tag_41\n      0x04\n      dup1\n      calldatasize\n      sub\n      dup2\n      add\n      swap1\n      tag_42\n      swap2\n      swap1\n      tag_43\n      jump\t// in\n    tag_42:\n      tag_44\n      jump\t// in\n    tag_41:\n      mload(0x40)\n      tag_45\n      swap4\n      swap3\n      swap2\n      swap1\n      tag_46\n      jump\t// in\n    tag_45:\n      mload(0x40)\n      dup1\n      swap2\n      sub\n      swap1\n      return\n        /* \"CommunityWallet.sol\":2306:2463  function assertExample(uint _x) external pure returns (string memory) {... */\n    tag_8:\n      callvalue\n      dup1\n      iszero\n      tag_47\n      jumpi\n      revert(0x00, 0x00)\n    tag_47:\n      pop\n      tag_48\n      0x04\n      dup1\n      calldatasize\n      sub\n      dup2\n      add\n      swap1\n      tag_49\n      swap2\n      swap1\n      tag_28\n      jump\t// in\n    tag_49:\n      tag_50\n      jump\t// in\n    tag_48:\n      mload(0x40)\n      tag_51\n      swap2\n      swap1\n      tag_52\n      jump\t// in\n    tag_51:\n      mload(0x40)\n      dup1\n      swap2\n      sub\n      swap1\n      return\n        /* \"CommunityWallet.sol\":782:1192  function donate() external payable {... */\n    tag_9:\n      tag_53\n      tag_54\n      jump\t// in\n    tag_53:\n      stop\n        /* \"CommunityWallet.sol\":1860:1942  function double(uint x) external pure returns (uint) {... */\n    tag_10:\n      callvalue\n      dup1\n      iszero\n      tag_55\n      jumpi\n      revert(0x00, 0x00)\n    tag_55:\n      pop\n      tag_56\n      0x04\n      dup1\n      calldatasize\n      sub\n      dup2\n      add\n      swap1\n      tag_57\n      swap2\n      swap1\n      tag_28\n      jump\t// in\n    tag_57:\n      tag_58\n      jump\t// in\n    tag_56:\n      mload(0x40)\n      tag_59\n      swap2\n      swap1\n      tag_16\n      jump\t// in\n    tag_59:\n      mload(0x40)\n      dup1\n      swap2\n      sub\n      swap1\n      return\n        /* \"CommunityWallet.sol\":1240:1534  function withdraw(address payable _to, uint _amount) external onlyOwner {... */\n    tag_11:\n      callvalue\n      dup1\n      iszero\n      tag_60\n      jumpi\n      revert(0x00, 0x00)\n    tag_60:\n      pop\n      tag_61\n      0x04\n      dup1\n      calldatasize\n      sub\n      dup2\n      add\n      swap1\n      tag_62\n      swap2\n      swap1\n      tag_63\n      jump\t// in\n    tag_62:\n      tag_64\n      jump\t// in\n    tag_61:\n      stop\n        /* \"CommunityWallet.sol\":1573:1669  function getBalance() external view returns (uint) {... */\n    tag_23:\n        /* \"CommunityWallet.sol\":1618:1622  uint */\n      0x00\n        /* \"CommunityWallet.sol\":1641:1662  address(this).balance */\n      selfbalance\n        /* \"CommunityWallet.sol\":1634:1662  return address(this).balance */\n      swap1\n      pop\n        /* \"CommunityWallet.sol\":1573:1669  function getBalance() external view returns (uint) {... */\n      swap1\n      jump\t// out\n        /* \"CommunityWallet.sol\":550:576  address[] public donorList */\n    tag_29:\n      0x02\n      dup2\n      dup2\n      sload\n      dup2\n      lt\n      tag_66\n      jumpi\n      0x00\n      dup1\n      revert\n    tag_66:\n      swap1\n      0x00\n      mstore\n      keccak256(0x00, 0x20)\n      add\n      0x00\n      swap2\n      pop\n      sload\n      swap1\n      0x0100\n      exp\n      swap1\n      div\n      0xffffffffffffffffffffffffffffffffffffffff\n      and\n      dup2\n      jump\t// out\n        /* \"CommunityWallet.sol\":1710:1804  function getDonorCount() external view returns (uint) {... */\n    tag_34:\n        /* \"CommunityWallet.sol\":1758:1762  uint */\n      0x00\n        /* \"CommunityWallet.sol\":1781:1790  donorList */\n      0x02\n        /* \"CommunityWallet.sol\":1781:1797  donorList.length */\n      dup1\n      sload\n      swap1\n      pop\n        /* \"CommunityWallet.sol\":1774:1797  return donorList.length */\n      swap1\n      pop\n        /* \"CommunityWallet.sol\":1710:1804  function getDonorCount() external view returns (uint) {... */\n      swap1\n      jump\t// out\n        /* \"CommunityWallet.sol\":113:133  address public owner */\n    tag_38:\n      0x00\n      0x00\n      swap1\n      sload\n      swap1\n      0x0100\n      exp\n      swap1\n      div\n      0xffffffffffffffffffffffffffffffffffffffff\n      and\n      dup2\n      jump\t// out\n        /* \"CommunityWallet.sol\":505:544  mapping(address => Donor) public donors */\n    tag_44:\n      mstore(0x20, 0x01)\n      dup1\n      0x00\n      mstore\n      keccak256(0x00, 0x40)\n      0x00\n      swap2\n      pop\n      swap1\n      pop\n      dup1\n      0x00\n      add\n      sload\n      swap1\n      dup1\n      0x01\n      add\n      sload\n      swap1\n      dup1\n      0x02\n      add\n      sload\n      swap1\n      pop\n      dup4\n      jump\t// out\n        /* \"CommunityWallet.sol\":2306:2463  function assertExample(uint _x) external pure returns (string memory) {... */\n    tag_50:\n        /* \"CommunityWallet.sol\":2361:2374  string memory */\n      0x60\n        /* \"CommunityWallet.sol\":2398:2402  1000 */\n      0x03e8\n        /* \"CommunityWallet.sol\":2393:2395  _x */\n      dup3\n        /* \"CommunityWallet.sol\":2393:2402  _x < 1000 */\n      lt\n        /* \"CommunityWallet.sol\":2386:2403  assert(_x < 1000) */\n      tag_70\n      jumpi\n      tag_71\n      tag_72\n      jump\t// in\n    tag_71:\n    tag_70:\n        /* \"CommunityWallet.sol\":2437:2456  return \"Safe input\" */\n      mload(0x40)\n      dup1\n      0x40\n      add\n      0x40\n      mstore\n      dup1\n      0x0a\n      dup2\n      mstore\n      0x20\n      add\n      0x5361666520696e70757400000000000000000000000000000000000000000000\n      dup2\n      mstore\n      pop\n      swap1\n      pop\n        /* \"CommunityWallet.sol\":2306:2463  function assertExample(uint _x) external pure returns (string memory) {... */\n      swap2\n      swap1\n      pop\n      jump\t// out\n        /* \"CommunityWallet.sol\":782:1192  function donate() external payable {... */\n    tag_54:\n        /* \"CommunityWallet.sol\":847:848  0 */\n      0x00\n        /* \"CommunityWallet.sol\":835:844  msg.value */\n      callvalue\n        /* \"CommunityWallet.sol\":835:848  msg.value > 0 */\n      gt\n        /* \"CommunityWallet.sol\":827:871  require(msg.value > 0, \"Must send some ETH\") */\n      tag_74\n      jumpi\n      mload(0x40)\n      0x08c379a000000000000000000000000000000000000000000000000000000000\n      dup2\n      mstore\n      0x04\n      add\n      tag_75\n      swap1\n      tag_76\n      jump\t// in\n    tag_75:\n      mload(0x40)\n      dup1\n      swap2\n      sub\n      swap1\n      revert\n    tag_74:\n        /* \"CommunityWallet.sol\":882:900  Donor storage user */\n      0x00\n        /* \"CommunityWallet.sol\":903:909  donors */\n      0x01\n        /* \"CommunityWallet.sol\":903:921  donors[msg.sender] */\n      0x00\n        /* \"CommunityWallet.sol\":910:920  msg.sender */\n      caller\n        /* \"CommunityWallet.sol\":903:921  donors[msg.sender] */\n      0xffffffffffffffffffffffffffffffffffffffff\n      and\n      0xffffffffffffffffffffffffffffffffffffffff\n      and\n      dup2\n      mstore\n      0x20\n      add\n      swap1\n      dup2\n      mstore\n      0x20\n      add\n      0x00\n      keccak256\n        /* \"CommunityWallet.sol\":882:921  Donor storage user = donors[msg.sender] */\n      swap1\n      pop\n        /* \"CommunityWallet.sol\":959:960  0 */\n      0x00\n        /* \"CommunityWallet.sol\":936:940  user */\n      dup2\n        /* \"CommunityWallet.sol\":936:955  user.donationsCount */\n      0x02\n      add\n      sload\n        /* \"CommunityWallet.sol\":936:960  user.donationsCount == 0 */\n      sub\n        /* \"CommunityWallet.sol\":932:1026  if (user.donationsCount == 0) {... */\n      tag_77\n      jumpi\n        /* \"CommunityWallet.sol\":976:985  donorList */\n      0x02\n        /* \"CommunityWallet.sol\":991:1001  msg.sender */\n      caller\n        /* \"CommunityWallet.sol\":976:1002  donorList.push(msg.sender) */\n      swap1\n      dup1\n      0x01\n      dup2\n      sload\n      add\n      dup1\n      dup3\n      sstore\n      dup1\n      swap2\n      pop\n      pop\n      0x01\n      swap1\n      sub\n      swap1\n      0x00\n      mstore\n      keccak256(0x00, 0x20)\n      add\n      0x00\n      swap1\n      swap2\n      swap1\n      swap2\n      swap1\n      swap2\n      0x0100\n      exp\n      dup2\n      sload\n      dup2\n      0xffffffffffffffffffffffffffffffffffffffff\n      mul\n      not\n      and\n      swap1\n      dup4\n      0xffffffffffffffffffffffffffffffffffffffff\n      and\n      mul\n      or\n      swap1\n      sstore\n      pop\n        /* \"CommunityWallet.sol\":932:1026  if (user.donationsCount == 0) {... */\n    tag_77:\n        /* \"CommunityWallet.sol\":1057:1066  msg.value */\n      callvalue\n        /* \"CommunityWallet.sol\":1036:1040  user */\n      dup2\n        /* \"CommunityWallet.sol\":1036:1053  user.totalDonated */\n      0x00\n      add\n      0x00\n        /* \"CommunityWallet.sol\":1036:1066  user.totalDonated += msg.value */\n      dup3\n      dup3\n      sload\n      tag_79\n      swap2\n      swap1\n      tag_80\n      jump\t// in\n    tag_79:\n      swap3\n      pop\n      pop\n      dup2\n      swap1\n      sstore\n      pop\n        /* \"CommunityWallet.sol\":1096:1105  msg.value */\n      callvalue\n        /* \"CommunityWallet.sol\":1076:1080  user */\n      dup2\n        /* \"CommunityWallet.sol\":1076:1093  user.lastDonation */\n      0x01\n      add\n        /* \"CommunityWallet.sol\":1076:1105  user.lastDonation = msg.value */\n      dup2\n      swap1\n      sstore\n      pop\n        /* \"CommunityWallet.sol\":1138:1139  1 */\n      0x01\n        /* \"CommunityWallet.sol\":1115:1119  user */\n      dup2\n        /* \"CommunityWallet.sol\":1115:1134  user.donationsCount */\n      0x02\n      add\n      0x00\n        /* \"CommunityWallet.sol\":1115:1139  user.donationsCount += 1 */\n      dup3\n      dup3\n      sload\n      tag_81\n      swap2\n      swap1\n      tag_80\n      jump\t// in\n    tag_81:\n      swap3\n      pop\n      pop\n      dup2\n      swap1\n      sstore\n      pop\n        /* \"CommunityWallet.sol\":1163:1173  msg.sender */\n      caller\n        /* \"CommunityWallet.sol\":1155:1185  Donated(msg.sender, msg.value) */\n      0xffffffffffffffffffffffffffffffffffffffff\n      and\n      0x2a01595cddf097c90216094025db714da3f4e5bd8877b56ba86a24ecead8e543\n        /* \"CommunityWallet.sol\":1175:1184  msg.value */\n      callvalue\n        /* \"CommunityWallet.sol\":1155:1185  Donated(msg.sender, msg.value) */\n      mload(0x40)\n      tag_82\n      swap2\n      swap1\n      tag_16\n      jump\t// in\n    tag_82:\n      mload(0x40)\n      dup1\n      swap2\n      sub\n      swap1\n      log2\n        /* \"CommunityWallet.sol\":817:1192  {... */\n      pop\n        /* \"CommunityWallet.sol\":782:1192  function donate() external payable {... */\n      jump\t// out\n        /* \"CommunityWallet.sol\":1860:1942  function double(uint x) external pure returns (uint) {... */\n    tag_58:\n        /* \"CommunityWallet.sol\":1907:1911  uint */\n      0x00\n        /* \"CommunityWallet.sol\":1934:1935  2 */\n      0x02\n        /* \"CommunityWallet.sol\":1930:1931  x */\n      dup3\n        /* \"CommunityWallet.sol\":1930:1935  x * 2 */\n      tag_84\n      swap2\n      swap1\n      tag_85\n      jump\t// in\n    tag_84:\n        /* \"CommunityWallet.sol\":1923:1935  return x * 2 */\n      swap1\n      pop\n        /* \"CommunityWallet.sol\":1860:1942  function double(uint x) external pure returns (uint) {... */\n      swap2\n      swap1\n      pop\n      jump\t// out\n        /* \"CommunityWallet.sol\":1240:1534  function withdraw(address payable _to, uint _amount) external onlyOwner {... */\n    tag_64:\n        /* \"CommunityWallet.sol\":290:295  owner */\n      0x00\n      0x00\n      swap1\n      sload\n      swap1\n      0x0100\n      exp\n      swap1\n      div\n      0xffffffffffffffffffffffffffffffffffffffff\n      and\n        /* \"CommunityWallet.sol\":276:295  msg.sender == owner */\n      0xffffffffffffffffffffffffffffffffffffffff\n      and\n        /* \"CommunityWallet.sol\":276:286  msg.sender */\n      caller\n        /* \"CommunityWallet.sol\":276:295  msg.sender == owner */\n      0xffffffffffffffffffffffffffffffffffffffff\n      and\n      eq\n        /* \"CommunityWallet.sol\":268:313  require(msg.sender == owner, \"Not the owner\") */\n      tag_87\n      jumpi\n      mload(0x40)\n      0x08c379a000000000000000000000000000000000000000000000000000000000\n      dup2\n      mstore\n      0x04\n      add\n      tag_88\n      swap1\n      tag_89\n      jump\t// in\n    tag_88:\n      mload(0x40)\n      dup1\n      swap2\n      sub\n      swap1\n      revert\n    tag_87:\n        /* \"CommunityWallet.sol\":1355:1362  _amount */\n      dup1\n        /* \"CommunityWallet.sol\":1330:1351  address(this).balance */\n      selfbalance\n        /* \"CommunityWallet.sol\":1330:1362  address(this).balance >= _amount */\n      lt\n      iszero\n        /* \"CommunityWallet.sol\":1322:1387  require(address(this).balance >= _amount, \"Insufficient balance\") */\n      tag_91\n      jumpi\n      mload(0x40)\n      0x08c379a000000000000000000000000000000000000000000000000000000000\n      dup2\n      mstore\n      0x04\n      add\n      tag_92\n      swap1\n      tag_93\n      jump\t// in\n    tag_92:\n      mload(0x40)\n      dup1\n      swap2\n      sub\n      swap1\n      revert\n    tag_91:\n        /* \"CommunityWallet.sol\":1399:1408  bool sent */\n      0x00\n        /* \"CommunityWallet.sol\":1414:1417  _to */\n      dup3\n        /* \"CommunityWallet.sol\":1414:1422  _to.call */\n      0xffffffffffffffffffffffffffffffffffffffff\n      and\n        /* \"CommunityWallet.sol\":1430:1437  _amount */\n      dup3\n        /* \"CommunityWallet.sol\":1414:1442  _to.call{value: _amount}(\"\") */\n      mload(0x40)\n      tag_94\n      swap1\n      tag_95\n      jump\t// in\n    tag_94:\n      0x00\n      mload(0x40)\n      dup1\n      dup4\n      sub\n      dup2\n      dup6\n      dup8\n      gas\n      call\n      swap3\n      pop\n      pop\n      pop\n      returndatasize\n      dup1\n      0x00\n      dup2\n      eq\n      tag_98\n      jumpi\n      mload(0x40)\n      swap2\n      pop\n      and(add(returndatasize, 0x3f), not(0x1f))\n      dup3\n      add\n      0x40\n      mstore\n      returndatasize\n      dup3\n      mstore\n      returndatasize\n      0x00\n      0x20\n      dup5\n      add\n      returndatacopy\n      jump(tag_97)\n    tag_98:\n      0x60\n      swap2\n      pop\n    tag_97:\n      pop\n        /* \"CommunityWallet.sol\":1398:1442  (bool sent, ) = _to.call{value: _amount}(\"\") */\n      pop\n      swap1\n      pop\n        /* \"CommunityWallet.sol\":1460:1464  sent */\n      dup1\n        /* \"CommunityWallet.sol\":1452:1488  require(sent, \"ETH transfer failed\") */\n      tag_99\n      jumpi\n      mload(0x40)\n      0x08c379a000000000000000000000000000000000000000000000000000000000\n      dup2\n      mstore\n      0x04\n      add\n      tag_100\n      swap1\n      tag_101\n      jump\t// in\n    tag_100:\n      mload(0x40)\n      dup1\n      swap2\n      sub\n      swap1\n      revert\n    tag_99:\n        /* \"CommunityWallet.sol\":1504:1527  Withdrawn(_to, _amount) */\n      0x7084f5476618d8e60b11ef0d7d3f06914655adb8793e28ff7f018d4c76d505d5\n        /* \"CommunityWallet.sol\":1514:1517  _to */\n      dup4\n        /* \"CommunityWallet.sol\":1519:1526  _amount */\n      dup4\n        /* \"CommunityWallet.sol\":1504:1527  Withdrawn(_to, _amount) */\n      mload(0x40)\n      tag_102\n      swap3\n      swap2\n      swap1\n      tag_103\n      jump\t// in\n    tag_102:\n      mload(0x40)\n      dup1\n      swap2\n      sub\n      swap1\n      log1\n        /* \"CommunityWallet.sol\":1312:1534  {... */\n      pop\n        /* \"CommunityWallet.sol\":1240:1534  function withdraw(address payable _to, uint _amount) external onlyOwner {... */\n      pop\n      pop\n      jump\t// out\n        /* \"#utility.yul\":7:84   */\n    tag_104:\n        /* \"#utility.yul\":44:51   */\n      0x00\n        /* \"#utility.yul\":73:78   */\n      dup2\n        /* \"#utility.yul\":62:78   */\n      swap1\n      pop\n        /* \"#utility.yul\":7:84   */\n      swap2\n      swap1\n      pop\n      jump\t// out\n        /* \"#utility.yul\":90:208   */\n    tag_105:\n        /* \"#utility.yul\":177:201   */\n      tag_144\n        /* \"#utility.yul\":195:200   */\n      dup2\n        /* \"#utility.yul\":177:201   */\n      tag_104\n      jump\t// in\n    tag_144:\n        /* \"#utility.yul\":172:175   */\n      dup3\n        /* \"#utility.yul\":165:202   */\n      mstore\n        /* \"#utility.yul\":90:208   */\n      pop\n      pop\n      jump\t// out\n        /* \"#utility.yul\":214:436   */\n    tag_16:\n        /* \"#utility.yul\":307:311   */\n      0x00\n        /* \"#utility.yul\":345:347   */\n      0x20\n        /* \"#utility.yul\":334:343   */\n      dup3\n        /* \"#utility.yul\":330:348   */\n      add\n        /* \"#utility.yul\":322:348   */\n      swap1\n      pop\n        /* \"#utility.yul\":358:429   */\n      tag_146\n        /* \"#utility.yul\":426:427   */\n      0x00\n        /* \"#utility.yul\":415:424   */\n      dup4\n        /* \"#utility.yul\":411:428   */\n      add\n        /* \"#utility.yul\":402:408   */\n      dup5\n        /* \"#utility.yul\":358:429   */\n      tag_105\n      jump\t// in\n    tag_146:\n        /* \"#utility.yul\":214:436   */\n      swap3\n      swap2\n      pop\n      pop\n      jump\t// out\n        /* \"#utility.yul\":442:568   */\n    tag_106:\n        /* \"#utility.yul\":479:486   */\n      0x00\n        /* \"#utility.yul\":519:561   */\n      0xffffffffffffffffffffffffffffffffffffffff\n        /* \"#utility.yul\":512:517   */\n      dup3\n        /* \"#utility.yul\":508:562   */\n      and\n        /* \"#utility.yul\":497:562   */\n      swap1\n      pop\n        /* \"#utility.yul\":442:568   */\n      swap2\n      swap1\n      pop\n      jump\t// out\n        /* \"#utility.yul\":574:670   */\n    tag_107:\n        /* \"#utility.yul\":611:618   */\n      0x00\n        /* \"#utility.yul\":640:664   */\n      tag_149\n        /* \"#utility.yul\":658:663   */\n      dup3\n        /* \"#utility.yul\":640:664   */\n      tag_106\n      jump\t// in\n    tag_149:\n        /* \"#utility.yul\":629:664   */\n      swap1\n      pop\n        /* \"#utility.yul\":574:670   */\n      swap2\n      swap1\n      pop\n      jump\t// out\n        /* \"#utility.yul\":676:794   */\n    tag_108:\n        /* \"#utility.yul\":763:787   */\n      tag_151\n        /* \"#utility.yul\":781:786   */\n      dup2\n        /* \"#utility.yul\":763:787   */\n      tag_107\n      jump\t// in\n    tag_151:\n        /* \"#utility.yul\":758:761   */\n      dup3\n        /* \"#utility.yul\":751:788   */\n      mstore\n        /* \"#utility.yul\":676:794   */\n      pop\n      pop\n      jump\t// out\n        /* \"#utility.yul\":800:1132   */\n    tag_20:\n        /* \"#utility.yul\":921:925   */\n      0x00\n        /* \"#utility.yul\":959:961   */\n      0x40\n        /* \"#utility.yul\":948:957   */\n      dup3\n        /* \"#utility.yul\":944:962   */\n      add\n        /* \"#utility.yul\":936:962   */\n      swap1\n      pop\n        /* \"#utility.yul\":972:1043   */\n      tag_153\n        /* \"#utility.yul\":1040:1041   */\n      0x00\n        /* \"#utility.yul\":1029:1038   */\n      dup4\n        /* \"#utility.yul\":1025:1042   */\n      add\n        /* \"#utility.yul\":1016:1022   */\n      dup6\n        /* \"#utility.yul\":972:1043   */\n      tag_108\n      jump\t// in\n    tag_153:\n        /* \"#utility.yul\":1053:1125   */\n      tag_154\n        /* \"#utility.yul\":1121:1123   */\n      0x20\n        /* \"#utility.yul\":1110:1119   */\n      dup4\n        /* \"#utility.yul\":1106:1124   */\n      add\n        /* \"#utility.yul\":1097:1103   */\n      dup5\n        /* \"#utility.yul\":1053:1125   */\n      tag_105\n      jump\t// in\n    tag_154:\n        /* \"#utility.yul\":800:1132   */\n      swap4\n      swap3\n      pop\n      pop\n      pop\n      jump\t// out\n        /* \"#utility.yul\":1219:1336   */\n    tag_110:\n        /* \"#utility.yul\":1328:1329   */\n      0x00\n        /* \"#utility.yul\":1325:1326   */\n      0x00\n        /* \"#utility.yul\":1318:1330   */\n      revert\n        /* \"#utility.yul\":1465:1587   */\n    tag_112:\n        /* \"#utility.yul\":1538:1562   */\n      tag_159\n        /* \"#utility.yul\":1556:1561   */\n      dup2\n        /* \"#utility.yul\":1538:1562   */\n      tag_104\n      jump\t// in\n    tag_159:\n        /* \"#utility.yul\":1531:1536   */\n      dup2\n        /* \"#utility.yul\":1528:1563   */\n      eq\n        /* \"#utility.yul\":1518:1581   */\n      tag_160\n      jumpi\n        /* \"#utility.yul\":1577:1578   */\n      0x00\n        /* \"#utility.yul\":1574:1575   */\n      0x00\n        /* \"#utility.yul\":1567:1579   */\n      revert\n        /* \"#utility.yul\":1518:1581   */\n    tag_160:\n        /* \"#utility.yul\":1465:1587   */\n      pop\n      jump\t// out\n        /* \"#utility.yul\":1593:1732   */\n    tag_113:\n        /* \"#utility.yul\":1639:1644   */\n      0x00\n        /* \"#utility.yul\":1677:1683   */\n      dup2\n        /* \"#utility.yul\":1664:1684   */\n      calldataload\n        /* \"#utility.yul\":1655:1684   */\n      swap1\n      pop\n        /* \"#utility.yul\":1693:1726   */\n      tag_162\n        /* \"#utility.yul\":1720:1725   */\n      dup2\n        /* \"#utility.yul\":1693:1726   */\n      tag_112\n      jump\t// in\n    tag_162:\n        /* \"#utility.yul\":1593:1732   */\n      swap3\n      swap2\n      pop\n      pop\n      jump\t// out\n        /* \"#utility.yul\":1738:2067   */\n    tag_28:\n        /* \"#utility.yul\":1797:1803   */\n      0x00\n        /* \"#utility.yul\":1846:1848   */\n      0x20\n        /* \"#utility.yul\":1834:1843   */\n      dup3\n        /* \"#utility.yul\":1825:1832   */\n      dup5\n        /* \"#utility.yul\":1821:1844   */\n      sub\n        /* \"#utility.yul\":1817:1849   */\n      slt\n        /* \"#utility.yul\":1814:1933   */\n      iszero\n      tag_164\n      jumpi\n        /* \"#utility.yul\":1852:1931   */\n      tag_165\n      tag_110\n      jump\t// in\n    tag_165:\n        /* \"#utility.yul\":1814:1933   */\n    tag_164:\n        /* \"#utility.yul\":1972:1973   */\n      0x00\n        /* \"#utility.yul\":1997:2050   */\n      tag_166\n        /* \"#utility.yul\":2042:2049   */\n      dup5\n        /* \"#utility.yul\":2033:2039   */\n      dup3\n        /* \"#utility.yul\":2022:2031   */\n      dup6\n        /* \"#utility.yul\":2018:2040   */\n      add\n        /* \"#utility.yul\":1997:2050   */\n      tag_113\n      jump\t// in\n    tag_166:\n        /* \"#utility.yul\":1987:2050   */\n      swap2\n      pop\n        /* \"#utility.yul\":1943:2060   */\n      pop\n        /* \"#utility.yul\":1738:2067   */\n      swap3\n      swap2\n      pop\n      pop\n      jump\t// out\n        /* \"#utility.yul\":2073:2295   */\n    tag_31:\n        /* \"#utility.yul\":2166:2170   */\n      0x00\n        /* \"#utility.yul\":2204:2206   */\n      0x20\n        /* \"#utility.yul\":2193:2202   */\n      dup3\n        /* \"#utility.yul\":2189:2207   */\n      add\n        /* \"#utility.yul\":2181:2207   */\n      swap1\n      pop\n        /* \"#utility.yul\":2217:2288   */\n      tag_168\n        /* \"#utility.yul\":2285:2286   */\n      0x00\n        /* \"#utility.yul\":2274:2283   */\n      dup4\n        /* \"#utility.yul\":2270:2287   */\n      add\n        /* \"#utility.yul\":2261:2267   */\n      dup5\n        /* \"#utility.yul\":2217:2288   */\n      tag_108\n      jump\t// in\n    tag_168:\n        /* \"#utility.yul\":2073:2295   */\n      swap3\n      swap2\n      pop\n      pop\n      jump\t// out\n        /* \"#utility.yul\":2301:2423   */\n    tag_114:\n        /* \"#utility.yul\":2374:2398   */\n      tag_170\n        /* \"#utility.yul\":2392:2397   */\n      dup2\n        /* \"#utility.yul\":2374:2398   */\n      tag_107\n      jump\t// in\n    tag_170:\n        /* \"#utility.yul\":2367:2372   */\n      dup2\n        /* \"#utility.yul\":2364:2399   */\n      eq\n        /* \"#utility.yul\":2354:2417   */\n      tag_171\n      jumpi\n        /* \"#utility.yul\":2413:2414   */\n      0x00\n        /* \"#utility.yul\":2410:2411   */\n      0x00\n        /* \"#utility.yul\":2403:2415   */\n      revert\n        /* \"#utility.yul\":2354:2417   */\n    tag_171:\n        /* \"#utility.yul\":2301:2423   */\n      pop\n      jump\t// out\n        /* \"#utility.yul\":2429:2568   */\n    tag_115:\n        /* \"#utility.yul\":2475:2480   */\n      0x00\n        /* \"#utility.yul\":2513:2519   */\n      dup2\n        /* \"#utility.yul\":2500:2520   */\n      calldataload\n        /* \"#utility.yul\":2491:2520   */\n      swap1\n      pop\n        /* \"#utility.yul\":2529:2562   */\n      tag_173\n        /* \"#utility.yul\":2556:2561   */\n      dup2\n        /* \"#utility.yul\":2529:2562   */\n      tag_114\n      jump\t// in\n    tag_173:\n        /* \"#utility.yul\":2429:2568   */\n      swap3\n      swap2\n      pop\n      pop\n      jump\t// out\n        /* \"#utility.yul\":2574:2903   */\n    tag_43:\n        /* \"#utility.yul\":2633:2639   */\n      0x00\n        /* \"#utility.yul\":2682:2684   */\n      0x20\n        /* \"#utility.yul\":2670:2679   */\n      dup3\n        /* \"#utility.yul\":2661:2668   */\n      dup5\n        /* \"#utility.yul\":2657:2680   */\n      sub\n        /* \"#utility.yul\":2653:2685   */\n      slt\n        /* \"#utility.yul\":2650:2769   */\n      iszero\n      tag_175\n      jumpi\n        /* \"#utility.yul\":2688:2767   */\n      tag_176\n      tag_110\n      jump\t// in\n    tag_176:\n        /* \"#utility.yul\":2650:2769   */\n    tag_175:\n        /* \"#utility.yul\":2808:2809   */\n      0x00\n        /* \"#utility.yul\":2833:2886   */\n      tag_177\n        /* \"#utility.yul\":2878:2885   */\n      dup5\n        /* \"#utility.yul\":2869:2875   */\n      dup3\n        /* \"#utility.yul\":2858:2867   */\n      dup6\n        /* \"#utility.yul\":2854:2876   */\n      add\n        /* \"#utility.yul\":2833:2886   */\n      tag_115\n      jump\t// in\n    tag_177:\n        /* \"#utility.yul\":2823:2886   */\n      swap2\n      pop\n        /* \"#utility.yul\":2779:2896   */\n      pop\n        /* \"#utility.yul\":2574:2903   */\n      swap3\n      swap2\n      pop\n      pop\n      jump\t// out\n        /* \"#utility.yul\":2909:3351   */\n    tag_46:\n        /* \"#utility.yul\":3058:3062   */\n      0x00\n        /* \"#utility.yul\":3096:3098   */\n      0x60\n        /* \"#utility.yul\":3085:3094   */\n      dup3\n        /* \"#utility.yul\":3081:3099   */\n      add\n        /* \"#utility.yul\":3073:3099   */\n      swap1\n      pop\n        /* \"#utility.yul\":3109:3180   */\n      tag_179\n        /* \"#utility.yul\":3177:3178   */\n      0x00\n        /* \"#utility.yul\":3166:3175   */\n      dup4\n        /* \"#utility.yul\":3162:3179   */\n      add\n        /* \"#utility.yul\":3153:3159   */\n      dup7\n        /* \"#utility.yul\":3109:3180   */\n      tag_105\n      jump\t// in\n    tag_179:\n        /* \"#utility.yul\":3190:3262   */\n      tag_180\n        /* \"#utility.yul\":3258:3260   */\n      0x20\n        /* \"#utility.yul\":3247:3256   */\n      dup4\n        /* \"#utility.yul\":3243:3261   */\n      add\n        /* \"#utility.yul\":3234:3240   */\n      dup6\n        /* \"#utility.yul\":3190:3262   */\n      tag_105\n      jump\t// in\n    tag_180:\n        /* \"#utility.yul\":3272:3344   */\n      tag_181\n        /* \"#utility.yul\":3340:3342   */\n      0x40\n        /* \"#utility.yul\":3329:3338   */\n      dup4\n        /* \"#utility.yul\":3325:3343   */\n      add\n        /* \"#utility.yul\":3316:3322   */\n      dup5\n        /* \"#utility.yul\":3272:3344   */\n      tag_105\n      jump\t// in\n    tag_181:\n        /* \"#utility.yul\":2909:3351   */\n      swap5\n      swap4\n      pop\n      pop\n      pop\n      pop\n      jump\t// out\n        /* \"#utility.yul\":3357:3456   */\n    tag_116:\n        /* \"#utility.yul\":3409:3415   */\n      0x00\n        /* \"#utility.yul\":3443:3448   */\n      dup2\n        /* \"#utility.yul\":3437:3449   */\n      mload\n        /* \"#utility.yul\":3427:3449   */\n      swap1\n      pop\n        /* \"#utility.yul\":3357:3456   */\n      swap2\n      swap1\n      pop\n      jump\t// out\n        /* \"#utility.yul\":3462:3631   */\n    tag_117:\n        /* \"#utility.yul\":3546:3557   */\n      0x00\n        /* \"#utility.yul\":3580:3586   */\n      dup3\n        /* \"#utility.yul\":3575:3578   */\n      dup3\n        /* \"#utility.yul\":3568:3587   */\n      mstore\n        /* \"#utility.yul\":3620:3624   */\n      0x20\n        /* \"#utility.yul\":3615:3618   */\n      dup3\n        /* \"#utility.yul\":3611:3625   */\n      add\n        /* \"#utility.yul\":3596:3625   */\n      swap1\n      pop\n        /* \"#utility.yul\":3462:3631   */\n      swap3\n      swap2\n      pop\n      pop\n      jump\t// out\n        /* \"#utility.yul\":3637:3776   */\n    tag_118:\n        /* \"#utility.yul\":3726:3732   */\n      dup3\n        /* \"#utility.yul\":3721:3724   */\n      dup2\n        /* \"#utility.yul\":3716:3719   */\n      dup4\n        /* \"#utility.yul\":3710:3733   */\n      mcopy\n        /* \"#utility.yul\":3767:3768   */\n      0x00\n        /* \"#utility.yul\":3758:3764   */\n      dup4\n        /* \"#utility.yul\":3753:3756   */\n      dup4\n        /* \"#utility.yul\":3749:3765   */\n      add\n        /* \"#utility.yul\":3742:3769   */\n      mstore\n        /* \"#utility.yul\":3637:3776   */\n      pop\n      pop\n      pop\n      jump\t// out\n        /* \"#utility.yul\":3782:3884   */\n    tag_119:\n        /* \"#utility.yul\":3823:3829   */\n      0x00\n        /* \"#utility.yul\":3874:3876   */\n      0x1f\n        /* \"#utility.yul\":3870:3877   */\n      not\n        /* \"#utility.yul\":3865:3867   */\n      0x1f\n        /* \"#utility.yul\":3858:3863   */\n      dup4\n        /* \"#utility.yul\":3854:3868   */\n      add\n        /* \"#utility.yul\":3850:3878   */\n      and\n        /* \"#utility.yul\":3840:3878   */\n      swap1\n      pop\n        /* \"#utility.yul\":3782:3884   */\n      swap2\n      swap1\n      pop\n      jump\t// out\n        /* \"#utility.yul\":3890:4267   */\n    tag_120:\n        /* \"#utility.yul\":3978:3981   */\n      0x00\n        /* \"#utility.yul\":4006:4045   */\n      tag_187\n        /* \"#utility.yul\":4039:4044   */\n      dup3\n        /* \"#utility.yul\":4006:4045   */\n      tag_116\n      jump\t// in\n    tag_187:\n        /* \"#utility.yul\":4061:4132   */\n      tag_188\n        /* \"#utility.yul\":4125:4131   */\n      dup2\n        /* \"#utility.yul\":4120:4123   */\n      dup6\n        /* \"#utility.yul\":4061:4132   */\n      tag_117\n      jump\t// in\n    tag_188:\n        /* \"#utility.yul\":4054:4132   */\n      swap4\n      pop\n        /* \"#utility.yul\":4141:4206   */\n      tag_189\n        /* \"#utility.yul\":4199:4205   */\n      dup2\n        /* \"#utility.yul\":4194:4197   */\n      dup6\n        /* \"#utility.yul\":4187:4191   */\n      0x20\n        /* \"#utility.yul\":4180:4185   */\n      dup7\n        /* \"#utility.yul\":4176:4192   */\n      add\n        /* \"#utility.yul\":4141:4206   */\n      tag_118\n      jump\t// in\n    tag_189:\n        /* \"#utility.yul\":4231:4260   */\n      tag_190\n        /* \"#utility.yul\":4253:4259   */\n      dup2\n        /* \"#utility.yul\":4231:4260   */\n      tag_119\n      jump\t// in\n    tag_190:\n        /* \"#utility.yul\":4226:4229   */\n      dup5\n        /* \"#utility.yul\":4222:4261   */\n      add\n        /* \"#utility.yul\":4215:4261   */\n      swap2\n      pop\n        /* \"#utility.yul\":3982:4267   */\n      pop\n        /* \"#utility.yul\":3890:4267   */\n      swap3\n      swap2\n      pop\n      pop\n      jump\t// out\n        /* \"#utility.yul\":4273:4586   */\n    tag_52:\n        /* \"#utility.yul\":4386:4390   */\n      0x00\n        /* \"#utility.yul\":4424:4426   */\n      0x20\n        /* \"#utility.yul\":4413:4422   */\n      dup3\n        /* \"#utility.yul\":4409:4427   */\n      add\n        /* \"#utility.yul\":4401:4427   */\n      swap1\n      pop\n        /* \"#utility.yul\":4473:4482   */\n      dup2\n        /* \"#utility.yul\":4467:4471   */\n      dup2\n        /* \"#utility.yul\":4463:4483   */\n      sub\n        /* \"#utility.yul\":4459:4460   */\n      0x00\n        /* \"#utility.yul\":4448:4457   */\n      dup4\n        /* \"#utility.yul\":4444:4461   */\n      add\n        /* \"#utility.yul\":4437:4484   */\n      mstore\n        /* \"#utility.yul\":4501:4579   */\n      tag_192\n        /* \"#utility.yul\":4574:4578   */\n      dup2\n        /* \"#utility.yul\":4565:4571   */\n      dup5\n        /* \"#utility.yul\":4501:4579   */\n      tag_120\n      jump\t// in\n    tag_192:\n        /* \"#utility.yul\":4493:4579   */\n      swap1\n      pop\n        /* \"#utility.yul\":4273:4586   */\n      swap3\n      swap2\n      pop\n      pop\n      jump\t// out\n        /* \"#utility.yul\":4592:4696   */\n    tag_121:\n        /* \"#utility.yul\":4637:4644   */\n      0x00\n        /* \"#utility.yul\":4666:4690   */\n      tag_194\n        /* \"#utility.yul\":4684:4689   */\n      dup3\n        /* \"#utility.yul\":4666:4690   */\n      tag_106\n      jump\t// in\n    tag_194:\n        /* \"#utility.yul\":4655:4690   */\n      swap1\n      pop\n        /* \"#utility.yul\":4592:4696   */\n      swap2\n      swap1\n      pop\n      jump\t// out\n        /* \"#utility.yul\":4702:4840   */\n    tag_122:\n        /* \"#utility.yul\":4783:4815   */\n      tag_196\n        /* \"#utility.yul\":4809:4814   */\n      dup2\n        /* \"#utility.yul\":4783:4815   */\n      tag_121\n      jump\t// in\n    tag_196:\n        /* \"#utility.yul\":4776:4781   */\n      dup2\n        /* \"#utility.yul\":4773:4816   */\n      eq\n        /* \"#utility.yul\":4763:4834   */\n      tag_197\n      jumpi\n        /* \"#utility.yul\":4830:4831   */\n      0x00\n        /* \"#utility.yul\":4827:4828   */\n      0x00\n        /* \"#utility.yul\":4820:4832   */\n      revert\n        /* \"#utility.yul\":4763:4834   */\n    tag_197:\n        /* \"#utility.yul\":4702:4840   */\n      pop\n      jump\t// out\n        /* \"#utility.yul\":4846:5001   */\n    tag_123:\n        /* \"#utility.yul\":4900:4905   */\n      0x00\n        /* \"#utility.yul\":4938:4944   */\n      dup2\n        /* \"#utility.yul\":4925:4945   */\n      calldataload\n        /* \"#utility.yul\":4916:4945   */\n      swap1\n      pop\n        /* \"#utility.yul\":4954:4995   */\n      tag_199\n        /* \"#utility.yul\":4989:4994   */\n      dup2\n        /* \"#utility.yul\":4954:4995   */\n      tag_122\n      jump\t// in\n    tag_199:\n        /* \"#utility.yul\":4846:5001   */\n      swap3\n      swap2\n      pop\n      pop\n      jump\t// out\n        /* \"#utility.yul\":5007:5497   */\n    tag_63:\n        /* \"#utility.yul\":5083:5089   */\n      0x00\n        /* \"#utility.yul\":5091:5097   */\n      0x00\n        /* \"#utility.yul\":5140:5142   */\n      0x40\n        /* \"#utility.yul\":5128:5137   */\n      dup4\n        /* \"#utility.yul\":5119:5126   */\n      dup6\n        /* \"#utility.yul\":5115:5138   */\n      sub\n        /* \"#utility.yul\":5111:5143   */\n      slt\n        /* \"#utility.yul\":5108:5227   */\n      iszero\n      tag_201\n      jumpi\n        /* \"#utility.yul\":5146:5225   */\n      tag_202\n      tag_110\n      jump\t// in\n    tag_202:\n        /* \"#utility.yul\":5108:5227   */\n    tag_201:\n        /* \"#utility.yul\":5266:5267   */\n      0x00\n        /* \"#utility.yul\":5291:5352   */\n      tag_203\n        /* \"#utility.yul\":5344:5351   */\n      dup6\n        /* \"#utility.yul\":5335:5341   */\n      dup3\n        /* \"#utility.yul\":5324:5333   */\n      dup7\n        /* \"#utility.yul\":5320:5342   */\n      add\n        /* \"#utility.yul\":5291:5352   */\n      tag_123\n      jump\t// in\n    tag_203:\n        /* \"#utility.yul\":5281:5352   */\n      swap3\n      pop\n        /* \"#utility.yul\":5237:5362   */\n      pop\n        /* \"#utility.yul\":5401:5403   */\n      0x20\n        /* \"#utility.yul\":5427:5480   */\n      tag_204\n        /* \"#utility.yul\":5472:5479   */\n      dup6\n        /* \"#utility.yul\":5463:5469   */\n      dup3\n        /* \"#utility.yul\":5452:5461   */\n      dup7\n        /* \"#utility.yul\":5448:5470   */\n      add\n        /* \"#utility.yul\":5427:5480   */\n      tag_113\n      jump\t// in\n    tag_204:\n        /* \"#utility.yul\":5417:5480   */\n      swap2\n      pop\n        /* \"#utility.yul\":5372:5490   */\n      pop\n        /* \"#utility.yul\":5007:5497   */\n      swap3\n      pop\n      swap3\n      swap1\n      pop\n      jump\t// out\n        /* \"#utility.yul\":5503:5683   */\n    tag_72:\n        /* \"#utility.yul\":5551:5628   */\n      0x4e487b7100000000000000000000000000000000000000000000000000000000\n        /* \"#utility.yul\":5548:5549   */\n      0x00\n        /* \"#utility.yul\":5541:5629   */\n      mstore\n        /* \"#utility.yul\":5648:5652   */\n      0x01\n        /* \"#utility.yul\":5645:5646   */\n      0x04\n        /* \"#utility.yul\":5638:5653   */\n      mstore\n        /* \"#utility.yul\":5672:5676   */\n      0x24\n        /* \"#utility.yul\":5669:5670   */\n      0x00\n        /* \"#utility.yul\":5662:5677   */\n      revert\n        /* \"#utility.yul\":5689:5857   */\n    tag_124:\n        /* \"#utility.yul\":5829:5849   */\n      0x4d7573742073656e6420736f6d65204554480000000000000000000000000000\n        /* \"#utility.yul\":5825:5826   */\n      0x00\n        /* \"#utility.yul\":5817:5823   */\n      dup3\n        /* \"#utility.yul\":5813:5827   */\n      add\n        /* \"#utility.yul\":5806:5850   */\n      mstore\n        /* \"#utility.yul\":5689:5857   */\n      pop\n      jump\t// out\n        /* \"#utility.yul\":5863:6229   */\n    tag_125:\n        /* \"#utility.yul\":6005:6008   */\n      0x00\n        /* \"#utility.yul\":6026:6093   */\n      tag_208\n        /* \"#utility.yul\":6090:6092   */\n      0x12\n        /* \"#utility.yul\":6085:6088   */\n      dup4\n        /* \"#utility.yul\":6026:6093   */\n      tag_117\n      jump\t// in\n    tag_208:\n        /* \"#utility.yul\":6019:6093   */\n      swap2\n      pop\n        /* \"#utility.yul\":6102:6195   */\n      tag_209\n        /* \"#utility.yul\":6191:6194   */\n      dup3\n        /* \"#utility.yul\":6102:6195   */\n      tag_124\n      jump\t// in\n    tag_209:\n        /* \"#utility.yul\":6220:6222   */\n      0x20\n        /* \"#utility.yul\":6215:6218   */\n      dup3\n        /* \"#utility.yul\":6211:6223   */\n      add\n        /* \"#utility.yul\":6204:6223   */\n      swap1\n      pop\n        /* \"#utility.yul\":5863:6229   */\n      swap2\n      swap1\n      pop\n      jump\t// out\n        /* \"#utility.yul\":6235:6654   */\n    tag_76:\n        /* \"#utility.yul\":6401:6405   */\n      0x00\n        /* \"#utility.yul\":6439:6441   */\n      0x20\n        /* \"#utility.yul\":6428:6437   */\n      dup3\n        /* \"#utility.yul\":6424:6442   */\n      add\n        /* \"#utility.yul\":6416:6442   */\n      swap1\n      pop\n        /* \"#utility.yul\":6488:6497   */\n      dup2\n        /* \"#utility.yul\":6482:6486   */\n      dup2\n        /* \"#utility.yul\":6478:6498   */\n      sub\n        /* \"#utility.yul\":6474:6475   */\n      0x00\n        /* \"#utility.yul\":6463:6472   */\n      dup4\n        /* \"#utility.yul\":6459:6476   */\n      add\n        /* \"#utility.yul\":6452:6499   */\n      mstore\n        /* \"#utility.yul\":6516:6647   */\n      tag_211\n        /* \"#utility.yul\":6642:6646   */\n      dup2\n        /* \"#utility.yul\":6516:6647   */\n      tag_125\n      jump\t// in\n    tag_211:\n        /* \"#utility.yul\":6508:6647   */\n      swap1\n      pop\n        /* \"#utility.yul\":6235:6654   */\n      swap2\n      swap1\n      pop\n      jump\t// out\n        /* \"#utility.yul\":6660:6840   */\n    tag_126:\n        /* \"#utility.yul\":6708:6785   */\n      0x4e487b7100000000000000000000000000000000000000000000000000000000\n        /* \"#utility.yul\":6705:6706   */\n      0x00\n        /* \"#utility.yul\":6698:6786   */\n      mstore\n        /* \"#utility.yul\":6805:6809   */\n      0x11\n        /* \"#utility.yul\":6802:6803   */\n      0x04\n        /* \"#utility.yul\":6795:6810   */\n      mstore\n        /* \"#utility.yul\":6829:6833   */\n      0x24\n        /* \"#utility.yul\":6826:6827   */\n      0x00\n        /* \"#utility.yul\":6819:6834   */\n      revert\n        /* \"#utility.yul\":6846:7037   */\n    tag_80:\n        /* \"#utility.yul\":6886:6889   */\n      0x00\n        /* \"#utility.yul\":6905:6925   */\n      tag_214\n        /* \"#utility.yul\":6923:6924   */\n      dup3\n        /* \"#utility.yul\":6905:6925   */\n      tag_104\n      jump\t// in\n    tag_214:\n        /* \"#utility.yul\":6900:6925   */\n      swap2\n      pop\n        /* \"#utility.yul\":6939:6959   */\n      tag_215\n        /* \"#utility.yul\":6957:6958   */\n      dup4\n        /* \"#utility.yul\":6939:6959   */\n      tag_104\n      jump\t// in\n    tag_215:\n        /* \"#utility.yul\":6934:6959   */\n      swap3\n      pop\n        /* \"#utility.yul\":6982:6983   */\n      dup3\n        /* \"#utility.yul\":6979:6980   */\n      dup3\n        /* \"#utility.yul\":6975:6984   */\n      add\n        /* \"#utility.yul\":6968:6984   */\n      swap1\n      pop\n        /* \"#utility.yul\":7003:7006   */\n      dup1\n        /* \"#utility.yul\":7000:7001   */\n      dup3\n        /* \"#utility.yul\":6997:7007   */\n      gt\n        /* \"#utility.yul\":6994:7030   */\n      iszero\n      tag_216\n      jumpi\n        /* \"#utility.yul\":7010:7028   */\n      tag_217\n      tag_126\n      jump\t// in\n    tag_217:\n        /* \"#utility.yul\":6994:7030   */\n    tag_216:\n        /* \"#utility.yul\":6846:7037   */\n      swap3\n      swap2\n      pop\n      pop\n      jump\t// out\n        /* \"#utility.yul\":7043:7453   */\n    tag_85:\n        /* \"#utility.yul\":7083:7090   */\n      0x00\n        /* \"#utility.yul\":7106:7126   */\n      tag_219\n        /* \"#utility.yul\":7124:7125   */\n      dup3\n        /* \"#utility.yul\":7106:7126   */\n      tag_104\n      jump\t// in\n    tag_219:\n        /* \"#utility.yul\":7101:7126   */\n      swap2\n      pop\n        /* \"#utility.yul\":7140:7160   */\n      tag_220\n        /* \"#utility.yul\":7158:7159   */\n      dup4\n        /* \"#utility.yul\":7140:7160   */\n      tag_104\n      jump\t// in\n    tag_220:\n        /* \"#utility.yul\":7135:7160   */\n      swap3\n      pop\n        /* \"#utility.yul\":7195:7196   */\n      dup3\n        /* \"#utility.yul\":7192:7193   */\n      dup3\n        /* \"#utility.yul\":7188:7197   */\n      mul\n        /* \"#utility.yul\":7217:7247   */\n      tag_221\n        /* \"#utility.yul\":7235:7246   */\n      dup2\n        /* \"#utility.yul\":7217:7247   */\n      tag_104\n      jump\t// in\n    tag_221:\n        /* \"#utility.yul\":7206:7247   */\n      swap2\n      pop\n        /* \"#utility.yul\":7396:7397   */\n      dup3\n        /* \"#utility.yul\":7387:7394   */\n      dup3\n        /* \"#utility.yul\":7383:7398   */\n      div\n        /* \"#utility.yul\":7380:7381   */\n      dup5\n        /* \"#utility.yul\":7377:7399   */\n      eq\n        /* \"#utility.yul\":7357:7358   */\n      dup4\n        /* \"#utility.yul\":7350:7359   */\n      iszero\n        /* \"#utility.yul\":7330:7413   */\n      or\n        /* \"#utility.yul\":7307:7446   */\n      tag_222\n      jumpi\n        /* \"#utility.yul\":7426:7444   */\n      tag_223\n      tag_126\n      jump\t// in\n    tag_223:\n        /* \"#utility.yul\":7307:7446   */\n    tag_222:\n        /* \"#utility.yul\":7091:7453   */\n      pop\n        /* \"#utility.yul\":7043:7453   */\n      swap3\n      swap2\n      pop\n      pop\n      jump\t// out\n        /* \"#utility.yul\":7459:7622   */\n    tag_127:\n        /* \"#utility.yul\":7599:7614   */\n      0x4e6f7420746865206f776e657200000000000000000000000000000000000000\n        /* \"#utility.yul\":7595:7596   */\n      0x00\n        /* \"#utility.yul\":7587:7593   */\n      dup3\n        /* \"#utility.yul\":7583:7597   */\n      add\n        /* \"#utility.yul\":7576:7615   */\n      mstore\n        /* \"#utility.yul\":7459:7622   */\n      pop\n      jump\t// out\n        /* \"#utility.yul\":7628:7994   */\n    tag_128:\n        /* \"#utility.yul\":7770:7773   */\n      0x00\n        /* \"#utility.yul\":7791:7858   */\n      tag_226\n        /* \"#utility.yul\":7855:7857   */\n      0x0d\n        /* \"#utility.yul\":7850:7853   */\n      dup4\n        /* \"#utility.yul\":7791:7858   */\n      tag_117\n      jump\t// in\n    tag_226:\n        /* \"#utility.yul\":7784:7858   */\n      swap2\n      pop\n        /* \"#utility.yul\":7867:7960   */\n      tag_227\n        /* \"#utility.yul\":7956:7959   */\n      dup3\n        /* \"#utility.yul\":7867:7960   */\n      tag_127\n      jump\t// in\n    tag_227:\n        /* \"#utility.yul\":7985:7987   */\n      0x20\n        /* \"#utility.yul\":7980:7983   */\n      dup3\n        /* \"#utility.yul\":7976:7988   */\n      add\n        /* \"#utility.yul\":7969:7988   */\n      swap1\n      pop\n        /* \"#utility.yul\":7628:7994   */\n      swap2\n      swap1\n      pop\n      jump\t// out\n        /* \"#utility.yul\":8000:8419   */\n    tag_89:\n        /* \"#utility.yul\":8166:8170   */\n      0x00\n        /* \"#utility.yul\":8204:8206   */\n      0x20\n        /* \"#utility.yul\":8193:8202   */\n      dup3\n        /* \"#utility.yul\":8189:8207   */\n      add\n        /* \"#utility.yul\":8181:8207   */\n      swap1\n      pop\n        /* \"#utility.yul\":8253:8262   */\n      dup2\n        /* \"#utility.yul\":8247:8251   */\n      dup2\n        /* \"#utility.yul\":8243:8263   */\n      sub\n        /* \"#utility.yul\":8239:8240   */\n      0x00\n        /* \"#utility.yul\":8228:8237   */\n      dup4\n        /* \"#utility.yul\":8224:8241   */\n      add\n        /* \"#utility.yul\":8217:8264   */\n      mstore\n        /* \"#utility.yul\":8281:8412   */\n      tag_229\n        /* \"#utility.yul\":8407:8411   */\n      dup2\n        /* \"#utility.yul\":8281:8412   */\n      tag_128\n      jump\t// in\n    tag_229:\n        /* \"#utility.yul\":8273:8412   */\n      swap1\n      pop\n        /* \"#utility.yul\":8000:8419   */\n      swap2\n      swap1\n      pop\n      jump\t// out\n        /* \"#utility.yul\":8425:8595   */\n    tag_129:\n        /* \"#utility.yul\":8565:8587   */\n      0x496e73756666696369656e742062616c616e6365000000000000000000000000\n        /* \"#utility.yul\":8561:8562   */\n      0x00\n        /* \"#utility.yul\":8553:8559   */\n      dup3\n        /* \"#utility.yul\":8549:8563   */\n      add\n        /* \"#utility.yul\":8542:8588   */\n      mstore\n        /* \"#utility.yul\":8425:8595   */\n      pop\n      jump\t// out\n        /* \"#utility.yul\":8601:8967   */\n    tag_130:\n        /* \"#utility.yul\":8743:8746   */\n      0x00\n        /* \"#utility.yul\":8764:8831   */\n      tag_232\n        /* \"#utility.yul\":8828:8830   */\n      0x14\n        /* \"#utility.yul\":8823:8826   */\n      dup4\n        /* \"#utility.yul\":8764:8831   */\n      tag_117\n      jump\t// in\n    tag_232:\n        /* \"#utility.yul\":8757:8831   */\n      swap2\n      pop\n        /* \"#utility.yul\":8840:8933   */\n      tag_233\n        /* \"#utility.yul\":8929:8932   */\n      dup3\n        /* \"#utility.yul\":8840:8933   */\n      tag_129\n      jump\t// in\n    tag_233:\n        /* \"#utility.yul\":8958:8960   */\n      0x20\n        /* \"#utility.yul\":8953:8956   */\n      dup3\n        /* \"#utility.yul\":8949:8961   */\n      add\n        /* \"#utility.yul\":8942:8961   */\n      swap1\n      pop\n        /* \"#utility.yul\":8601:8967   */\n      swap2\n      swap1\n      pop\n      jump\t// out\n        /* \"#utility.yul\":8973:9392   */\n    tag_93:\n        /* \"#utility.yul\":9139:9143   */\n      0x00\n        /* \"#utility.yul\":9177:9179   */\n      0x20\n        /* \"#utility.yul\":9166:9175   */\n      dup3\n        /* \"#utility.yul\":9162:9180   */\n      add\n        /* \"#utility.yul\":9154:9180   */\n      swap1\n      pop\n        /* \"#utility.yul\":9226:9235   */\n      dup2\n        /* \"#utility.yul\":9220:9224   */\n      dup2\n        /* \"#utility.yul\":9216:9236   */\n      sub\n        /* \"#utility.yul\":9212:9213   */\n      0x00\n        /* \"#utility.yul\":9201:9210   */\n      dup4\n        /* \"#utility.yul\":9197:9214   */\n      add\n        /* \"#utility.yul\":9190:9237   */\n      mstore\n        /* \"#utility.yul\":9254:9385   */\n      tag_235\n        /* \"#utility.yul\":9380:9384   */\n      dup2\n        /* \"#utility.yul\":9254:9385   */\n      tag_130\n      jump\t// in\n    tag_235:\n        /* \"#utility.yul\":9246:9385   */\n      swap1\n      pop\n        /* \"#utility.yul\":8973:9392   */\n      swap2\n      swap1\n      pop\n      jump\t// out\n        /* \"#utility.yul\":9398:9545   */\n    tag_131:\n        /* \"#utility.yul\":9499:9510   */\n      0x00\n        /* \"#utility.yul\":9536:9539   */\n      dup2\n        /* \"#utility.yul\":9521:9539   */\n      swap1\n      pop\n        /* \"#utility.yul\":9398:9545   */\n      swap3\n      swap2\n      pop\n      pop\n      jump\t// out\n        /* \"#utility.yul\":9551:9665   */\n    tag_132:\n      pop\n      jump\t// out\n        /* \"#utility.yul\":9671:10069   */\n    tag_133:\n        /* \"#utility.yul\":9830:9833   */\n      0x00\n        /* \"#utility.yul\":9851:9934   */\n      tag_239\n        /* \"#utility.yul\":9932:9933   */\n      0x00\n        /* \"#utility.yul\":9927:9930   */\n      dup4\n        /* \"#utility.yul\":9851:9934   */\n      tag_131\n      jump\t// in\n    tag_239:\n        /* \"#utility.yul\":9844:9934   */\n      swap2\n      pop\n        /* \"#utility.yul\":9943:10036   */\n      tag_240\n        /* \"#utility.yul\":10032:10035   */\n      dup3\n        /* \"#utility.yul\":9943:10036   */\n      tag_132\n      jump\t// in\n    tag_240:\n        /* \"#utility.yul\":10061:10062   */\n      0x00\n        /* \"#utility.yul\":10056:10059   */\n      dup3\n        /* \"#utility.yul\":10052:10063   */\n      add\n        /* \"#utility.yul\":10045:10063   */\n      swap1\n      pop\n        /* \"#utility.yul\":9671:10069   */\n      swap2\n      swap1\n      pop\n      jump\t// out\n        /* \"#utility.yul\":10075:10454   */\n    tag_95:\n        /* \"#utility.yul\":10259:10262   */\n      0x00\n        /* \"#utility.yul\":10281:10428   */\n      tag_242\n        /* \"#utility.yul\":10424:10427   */\n      dup3\n        /* \"#utility.yul\":10281:10428   */\n      tag_133\n      jump\t// in\n    tag_242:\n        /* \"#utility.yul\":10274:10428   */\n      swap2\n      pop\n        /* \"#utility.yul\":10445:10448   */\n      dup2\n        /* \"#utility.yul\":10438:10448   */\n      swap1\n      pop\n        /* \"#utility.yul\":10075:10454   */\n      swap2\n      swap1\n      pop\n      jump\t// out\n        /* \"#utility.yul\":10460:10629   */\n    tag_134:\n        /* \"#utility.yul\":10600:10621   */\n      0x455448207472616e73666572206661696c656400000000000000000000000000\n        /* \"#utility.yul\":10596:10597   */\n      0x00\n        /* \"#utility.yul\":10588:10594   */\n      dup3\n        /* \"#utility.yul\":10584:10598   */\n      add\n        /* \"#utility.yul\":10577:10622   */\n      mstore\n        /* \"#utility.yul\":10460:10629   */\n      pop\n      jump\t// out\n        /* \"#utility.yul\":10635:11001   */\n    tag_135:\n        /* \"#utility.yul\":10777:10780   */\n      0x00\n        /* \"#utility.yul\":10798:10865   */\n      tag_245\n        /* \"#utility.yul\":10862:10864   */\n      0x13\n        /* \"#utility.yul\":10857:10860   */\n      dup4\n        /* \"#utility.yul\":10798:10865   */\n      tag_117\n      jump\t// in\n    tag_245:\n        /* \"#utility.yul\":10791:10865   */\n      swap2\n      pop\n        /* \"#utility.yul\":10874:10967   */\n      tag_246\n        /* \"#utility.yul\":10963:10966   */\n      dup3\n        /* \"#utility.yul\":10874:10967   */\n      tag_134\n      jump\t// in\n    tag_246:\n        /* \"#utility.yul\":10992:10994   */\n      0x20\n        /* \"#utility.yul\":10987:10990   */\n      dup3\n        /* \"#utility.yul\":10983:10995   */\n      add\n        /* \"#utility.yul\":10976:10995   */\n      swap1\n      pop\n        /* \"#utility.yul\":10635:11001   */\n      swap2\n      swap1\n      pop\n      jump\t// out\n        /* \"#utility.yul\":11007:11426   */\n    tag_101:\n        /* \"#utility.yul\":11173:11177   */\n      0x00\n        /* \"#utility.yul\":11211:11213   */\n      0x20\n        /* \"#utility.yul\":11200:11209   */\n      dup3\n        /* \"#utility.yul\":11196:11214   */\n      add\n        /* \"#utility.yul\":11188:11214   */\n      swap1\n      pop\n        /* \"#utility.yul\":11260:11269   */\n      dup2\n        /* \"#utility.yul\":11254:11258   */\n      dup2\n        /* \"#utility.yul\":11250:11270   */\n      sub\n        /* \"#utility.yul\":11246:11247   */\n      0x00\n        /* \"#utility.yul\":11235:11244   */\n      dup4\n        /* \"#utility.yul\":11231:11248   */\n      add\n        /* \"#utility.yul\":11224:11271   */\n      mstore\n        /* \"#utility.yul\":11288:11419   */\n      tag_248\n        /* \"#utility.yul\":11414:11418   */\n      dup2\n        /* \"#utility.yul\":11288:11419   */\n      tag_135\n      jump\t// in\n    tag_248:\n        /* \"#utility.yul\":11280:11419   */\n      swap1\n      pop\n        /* \"#utility.yul\":11007:11426   */\n      swap2\n      swap1\n      pop\n      jump\t// out\n        /* \"#utility.yul\":11432:11492   */\n    tag_136:\n        /* \"#utility.yul\":11460:11463   */\n      0x00\n        /* \"#utility.yul\":11481:11486   */\n      dup2\n        /* \"#utility.yul\":11474:11486   */\n      swap1\n      pop\n        /* \"#utility.yul\":11432:11492   */\n      swap2\n      swap1\n      pop\n      jump\t// out\n        /* \"#utility.yul\":11498:11640   */\n    tag_137:\n        /* \"#utility.yul\":11548:11557   */\n      0x00\n        /* \"#utility.yul\":11581:11634   */\n      tag_251\n        /* \"#utility.yul\":11599:11633   */\n      tag_252\n        /* \"#utility.yul\":11608:11632   */\n      tag_253\n        /* \"#utility.yul\":11626:11631   */\n      dup5\n        /* \"#utility.yul\":11608:11632   */\n      tag_106\n      jump\t// in\n    tag_253:\n        /* \"#utility.yul\":11599:11633   */\n      tag_136\n      jump\t// in\n    tag_252:\n        /* \"#utility.yul\":11581:11634   */\n      tag_106\n      jump\t// in\n    tag_251:\n        /* \"#utility.yul\":11568:11634   */\n      swap1\n      pop\n        /* \"#utility.yul\":11498:11640   */\n      swap2\n      swap1\n      pop\n      jump\t// out\n        /* \"#utility.yul\":11646:11772   */\n    tag_138:\n        /* \"#utility.yul\":11696:11705   */\n      0x00\n        /* \"#utility.yul\":11729:11766   */\n      tag_255\n        /* \"#utility.yul\":11760:11765   */\n      dup3\n        /* \"#utility.yul\":11729:11766   */\n      tag_137\n      jump\t// in\n    tag_255:\n        /* \"#utility.yul\":11716:11766   */\n      swap1\n      pop\n        /* \"#utility.yul\":11646:11772   */\n      swap2\n      swap1\n      pop\n      jump\t// out\n        /* \"#utility.yul\":11778:11912   */\n    tag_139:\n        /* \"#utility.yul\":11836:11845   */\n      0x00\n        /* \"#utility.yul\":11869:11906   */\n      tag_257\n        /* \"#utility.yul\":11900:11905   */\n      dup3\n        /* \"#utility.yul\":11869:11906   */\n      tag_138\n      jump\t// in\n    tag_257:\n        /* \"#utility.yul\":11856:11906   */\n      swap1\n      pop\n        /* \"#utility.yul\":11778:11912   */\n      swap2\n      swap1\n      pop\n      jump\t// out\n        /* \"#utility.yul\":11918:12065   */\n    tag_140:\n        /* \"#utility.yul\":12013:12058   */\n      tag_259\n        /* \"#utility.yul\":12052:12057   */\n      dup2\n        /* \"#utility.yul\":12013:12058   */\n      tag_139\n      jump\t// in\n    tag_259:\n        /* \"#utility.yul\":12008:12011   */\n      dup3\n        /* \"#utility.yul\":12001:12059   */\n      mstore\n        /* \"#utility.yul\":11918:12065   */\n      pop\n      pop\n      jump\t// out\n        /* \"#utility.yul\":12071:12419   */\n    tag_103:\n        /* \"#utility.yul\":12200:12204   */\n      0x00\n        /* \"#utility.yul\":12238:12240   */\n      0x40\n        /* \"#utility.yul\":12227:12236   */\n      dup3\n        /* \"#utility.yul\":12223:12241   */\n      add\n        /* \"#utility.yul\":12215:12241   */\n      swap1\n      pop\n        /* \"#utility.yul\":12251:12330   */\n      tag_261\n        /* \"#utility.yul\":12327:12328   */\n      0x00\n        /* \"#utility.yul\":12316:12325   */\n      dup4\n        /* \"#utility.yul\":12312:12329   */\n      add\n        /* \"#utility.yul\":12303:12309   */\n      dup6\n        /* \"#utility.yul\":12251:12330   */\n      tag_140\n      jump\t// in\n    tag_261:\n        /* \"#utility.yul\":12340:12412   */\n      tag_262\n        /* \"#utility.yul\":12408:12410   */\n      0x20\n        /* \"#utility.yul\":12397:12406   */\n      dup4\n        /* \"#utility.yul\":12393:12411   */\n      add\n        /* \"#utility.yul\":12384:12390   */\n      dup5\n        /* \"#utility.yul\":12340:12412   */\n      tag_105\n      jump\t// in\n    tag_262:\n        /* \"#utility.yul\":12071:12419   */\n      swap4\n      swap3\n      pop\n      pop\n      pop\n      jump\t// out\n\n    auxdata: 0xa26469706673582212206ff074d68b0147c738a31f4ad017eed9e36b9838acc5b4f15e3b3d1fbb78d93364736f6c634300081e0033\n}\n",
				"bytecode": {
					"linkReferences": {},
					"object": "6080604052348015600e575f5ffd5b50335f5f6101000a81548173ffffffffffffffffffffffffffffffffffffffff021916908373ffffffffffffffffffffffffffffffffffffffff160217905550610cef8061005b5f395ff3fe608060405260043610610089575f3560e01c8063ca0cdea811610058578063ca0cdea8146101d3578063eb11813b14610211578063ed88c68e1461024d578063eee9720614610257578063f3fef3a314610293576100de565b806312065fe0146101195780635eed3dcb1461014357806369bc2f1e1461017f5780638da5cb5b146101a9576100de565b366100de573373ffffffffffffffffffffffffffffffffffffffff167f2a01595cddf097c90216094025db714da3f4e5bd8877b56ba86a24ecead8e543346040516100d49190610704565b60405180910390a2005b7f4fdfaf7cd2ae67f3639149bddef2addc991d3f26e0121df03517ec62523649ca333460405161010f92919061075c565b60405180910390a1005b348015610124575f5ffd5b5061012d6102bb565b60405161013a9190610704565b60405180910390f35b34801561014e575f5ffd5b50610169600480360381019061016491906107b1565b6102c2565b60405161017691906107dc565b60405180910390f35b34801561018a575f5ffd5b506101936102fd565b6040516101a09190610704565b60405180910390f35b3480156101b4575f5ffd5b506101bd610309565b6040516101ca91906107dc565b60405180910390f35b3480156101de575f5ffd5b506101f960048036038101906101f4919061081f565b61032d565b6040516102089392919061084a565b60405180910390f35b34801561021c575f5ffd5b50610237600480360381019061023291906107b1565b610353565b60405161024491906108ef565b60405180910390f35b6102556103a4565b005b348015610262575f5ffd5b5061027d600480360381019061027891906107b1565b610520565b60405161028a9190610704565b60405180910390f35b34801561029e575f5ffd5b506102b960048036038101906102b4919061094a565b610535565b005b5f47905090565b600281815481106102d1575f80fd5b905f5260205f20015f915054906101000a900473ffffffffffffffffffffffffffffffffffffffff1681565b5f600280549050905090565b5f5f9054906101000a900473ffffffffffffffffffffffffffffffffffffffff1681565b6001602052805f5260405f205f91509050805f0154908060010154908060020154905083565b60606103e8821061036757610366610988565b5b6040518060400160405280600a81526020017f5361666520696e707574000000000000000000000000000000000000000000008152509050919050565b5f34116103e6576040517f08c379a00000000000000000000000000000000000000000000000000000000081526004016103dd906109ff565b60405180910390fd5b5f60015f3373ffffffffffffffffffffffffffffffffffffffff1673ffffffffffffffffffffffffffffffffffffffff1681526020019081526020015f2090505f81600201540361049257600233908060018154018082558091505060019003905f5260205f20015f9091909190916101000a81548173ffffffffffffffffffffffffffffffffffffffff021916908373ffffffffffffffffffffffffffffffffffffffff1602179055505b34815f015f8282546104a49190610a4a565b925050819055503481600101819055506001816002015f8282546104c89190610a4a565b925050819055503373ffffffffffffffffffffffffffffffffffffffff167f2a01595cddf097c90216094025db714da3f4e5bd8877b56ba86a24ecead8e543346040516105159190610704565b60405180910390a250565b5f60028261052e9190610a7d565b9050919050565b5f5f9054906101000a900473ffffffffffffffffffffffffffffffffffffffff1673ffffffffffffffffffffffffffffffffffffffff163373ffffffffffffffffffffffffffffffffffffffff16146105c3576040517f08c379a00000000000000000000000000000000000000000000000000000000081526004016105ba90610b08565b60405180910390fd5b80471015610606576040517f08c379a00000000000000000000000000000000000000000000000000000000081526004016105fd90610b70565b60405180910390fd5b5f8273ffffffffffffffffffffffffffffffffffffffff168260405161062b90610bbb565b5f6040518083038185875af1925050503d805f8114610665576040519150601f19603f3d011682016040523d82523d5f602084013e61066a565b606091505b50509050806106ae576040517f08c379a00000000000000000000000000000000000000000000000000000000081526004016106a590610c19565b60405180910390fd5b7f7084f5476618d8e60b11ef0d7d3f06914655adb8793e28ff7f018d4c76d505d583836040516106df929190610c92565b60405180910390a1505050565b5f819050919050565b6106fe816106ec565b82525050565b5f6020820190506107175f8301846106f5565b92915050565b5f73ffffffffffffffffffffffffffffffffffffffff82169050919050565b5f6107468261071d565b9050919050565b6107568161073c565b82525050565b5f60408201905061076f5f83018561074d565b61077c60208301846106f5565b9392505050565b5f5ffd5b610790816106ec565b811461079a575f5ffd5b50565b5f813590506107ab81610787565b92915050565b5f602082840312156107c6576107c5610783565b5b5f6107d38482850161079d565b91505092915050565b5f6020820190506107ef5f83018461074d565b92915050565b6107fe8161073c565b8114610808575f5ffd5b50565b5f81359050610819816107f5565b92915050565b5f6020828403121561083457610833610783565b5b5f6108418482850161080b565b91505092915050565b5f60608201905061085d5f8301866106f5565b61086a60208301856106f5565b61087760408301846106f5565b949350505050565b5f81519050919050565b5f82825260208201905092915050565b8281835e5f83830152505050565b5f601f19601f8301169050919050565b5f6108c18261087f565b6108cb8185610889565b93506108db818560208601610899565b6108e4816108a7565b840191505092915050565b5f6020820190508181035f83015261090781846108b7565b905092915050565b5f6109198261071d565b9050919050565b6109298161090f565b8114610933575f5ffd5b50565b5f8135905061094481610920565b92915050565b5f5f604083850312156109605761095f610783565b5b5f61096d85828601610936565b925050602061097e8582860161079d565b9150509250929050565b7f4e487b71000000000000000000000000000000000000000000000000000000005f52600160045260245ffd5b7f4d7573742073656e6420736f6d652045544800000000000000000000000000005f82015250565b5f6109e9601283610889565b91506109f4826109b5565b602082019050919050565b5f6020820190508181035f830152610a16816109dd565b9050919050565b7f4e487b71000000000000000000000000000000000000000000000000000000005f52601160045260245ffd5b5f610a54826106ec565b9150610a5f836106ec565b9250828201905080821115610a7757610a76610a1d565b5b92915050565b5f610a87826106ec565b9150610a92836106ec565b9250828202610aa0816106ec565b91508282048414831517610ab757610ab6610a1d565b5b5092915050565b7f4e6f7420746865206f776e6572000000000000000000000000000000000000005f82015250565b5f610af2600d83610889565b9150610afd82610abe565b602082019050919050565b5f6020820190508181035f830152610b1f81610ae6565b9050919050565b7f496e73756666696369656e742062616c616e63650000000000000000000000005f82015250565b5f610b5a601483610889565b9150610b6582610b26565b602082019050919050565b5f6020820190508181035f830152610b8781610b4e565b9050919050565b5f81905092915050565b50565b5f610ba65f83610b8e565b9150610bb182610b98565b5f82019050919050565b5f610bc582610b9b565b9150819050919050565b7f455448207472616e73666572206661696c6564000000000000000000000000005f82015250565b5f610c03601383610889565b9150610c0e82610bcf565b602082019050919050565b5f6020820190508181035f830152610c3081610bf7565b9050919050565b5f819050919050565b5f610c5a610c55610c508461071d565b610c37565b61071d565b9050919050565b5f610c6b82610c40565b9050919050565b5f610c7c82610c61565b9050919050565b610c8c81610c72565b82525050565b5f604082019050610ca55f830185610c83565b610cb260208301846106f5565b939250505056fea26469706673582212206ff074d68b0147c738a31f4ad017eed9e36b9838acc5b4f15e3b3d1fbb78d93364736f6c634300081e0033",
					"opcodes": "PUSH1 0x80 PUSH1 0x40 MSTORE CALLVALUE DUP1 ISZERO PUSH1 0xE JUMPI PUSH0 PUSH0 REVERT JUMPDEST POP CALLER PUSH0 PUSH0 PUSH2 0x100 EXP DUP2 SLOAD DUP2 PUSH20 0xFFFFFFFFFFFFFFFFFFFFFFFFFFFFFFFFFFFFFFFF MUL NOT AND SWAP1 DUP4 PUSH20 0xFFFFFFFFFFFFFFFFFFFFFFFFFFFFFFFFFFFFFFFF AND MUL OR SWAP1 SSTORE POP PUSH2 0xCEF DUP1 PUSH2 0x5B PUSH0 CODECOPY PUSH0 RETURN INVALID PUSH1 0x80 PUSH1 0x40 MSTORE PUSH1 0x4 CALLDATASIZE LT PUSH2 0x89 JUMPI PUSH0 CALLDATALOAD PUSH1 0xE0 SHR DUP1 PUSH4 0xCA0CDEA8 GT PUSH2 0x58 JUMPI DUP1 PUSH4 0xCA0CDEA8 EQ PUSH2 0x1D3 JUMPI DUP1 PUSH4 0xEB11813B EQ PUSH2 0x211 JUMPI DUP1 PUSH4 0xED88C68E EQ PUSH2 0x24D JUMPI DUP1 PUSH4 0xEEE97206 EQ PUSH2 0x257 JUMPI DUP1 PUSH4 0xF3FEF3A3 EQ PUSH2 0x293 JUMPI PUSH2 0xDE JUMP JUMPDEST DUP1 PUSH4 0x12065FE0 EQ PUSH2 0x119 JUMPI DUP1 PUSH4 0x5EED3DCB EQ PUSH2 0x143 JUMPI DUP1 PUSH4 0x69BC2F1E EQ PUSH2 0x17F JUMPI DUP1 PUSH4 0x8DA5CB5B EQ PUSH2 0x1A9 JUMPI PUSH2 0xDE JUMP JUMPDEST CALLDATASIZE PUSH2 0xDE JUMPI CALLER PUSH20 0xFFFFFFFFFFFFFFFFFFFFFFFFFFFFFFFFFFFFFFFF AND PUSH32 0x2A01595CDDF097C90216094025DB714DA3F4E5BD8877B56BA86A24ECEAD8E543 CALLVALUE PUSH1 0x40 MLOAD PUSH2 0xD4 SWAP2 SWAP1 PUSH2 0x704 JUMP JUMPDEST PUSH1 0x40 MLOAD DUP1 SWAP2 SUB SWAP1 LOG2 STOP JUMPDEST PUSH32 0x4FDFAF7CD2AE67F3639149BDDEF2ADDC991D3F26E0121DF03517EC62523649CA CALLER CALLVALUE PUSH1 0x40 MLOAD PUSH2 0x10F SWAP3 SWAP2 SWAP1 PUSH2 0x75C JUMP JUMPDEST PUSH1 0x40 MLOAD DUP1 SWAP2 SUB SWAP1 LOG1 STOP JUMPDEST CALLVALUE DUP1 ISZERO PUSH2 0x124 JUMPI PUSH0 PUSH0 REVERT JUMPDEST POP PUSH2 0x12D PUSH2 0x2BB JUMP JUMPDEST PUSH1 0x40 MLOAD PUSH2 0x13A SWAP2 SWAP1 PUSH2 0x704 JUMP JUMPDEST PUSH1 0x40 MLOAD DUP1 SWAP2 SUB SWAP1 RETURN JUMPDEST CALLVALUE DUP1 ISZERO PUSH2 0x14E JUMPI PUSH0 PUSH0 REVERT JUMPDEST POP PUSH2 0x169 PUSH1 0x4 DUP1 CALLDATASIZE SUB DUP2 ADD SWAP1 PUSH2 0x164 SWAP2 SWAP1 PUSH2 0x7B1 JUMP JUMPDEST PUSH2 0x2C2 JUMP JUMPDEST PUSH1 0x40 MLOAD PUSH2 0x176 SWAP2 SWAP1 PUSH2 0x7DC JUMP JUMPDEST PUSH1 0x40 MLOAD DUP1 SWAP2 SUB SWAP1 RETURN JUMPDEST CALLVALUE DUP1 ISZERO PUSH2 0x18A JUMPI PUSH0 PUSH0 REVERT JUMPDEST POP PUSH2 0x193 PUSH2 0x2FD JUMP JUMPDEST PUSH1 0x40 MLOAD PUSH2 0x1A0 SWAP2 SWAP1 PUSH2 0x704 JUMP JUMPDEST PUSH1 0x40 MLOAD DUP1 SWAP2 SUB SWAP1 RETURN JUMPDEST CALLVALUE DUP1 ISZERO PUSH2 0x1B4 JUMPI PUSH0 PUSH0 REVERT JUMPDEST POP PUSH2 0x1BD PUSH2 0x309 JUMP JUMPDEST PUSH1 0x40 MLOAD PUSH2 0x1CA SWAP2 SWAP1 PUSH2 0x7DC JUMP JUMPDEST PUSH1 0x40 MLOAD DUP1 SWAP2 SUB SWAP1 RETURN JUMPDEST CALLVALUE DUP1 ISZERO PUSH2 0x1DE JUMPI PUSH0 PUSH0 REVERT JUMPDEST POP PUSH2 0x1F9 PUSH1 0x4 DUP1 CALLDATASIZE SUB DUP2 ADD SWAP1 PUSH2 0x1F4 SWAP2 SWAP1 PUSH2 0x81F JUMP JUMPDEST PUSH2 0x32D JUMP JUMPDEST PUSH1 0x40 MLOAD PUSH2 0x208 SWAP4 SWAP3 SWAP2 SWAP1 PUSH2 0x84A JUMP JUMPDEST PUSH1 0x40 MLOAD DUP1 SWAP2 SUB SWAP1 RETURN JUMPDEST CALLVALUE DUP1 ISZERO PUSH2 0x21C JUMPI PUSH0 PUSH0 REVERT JUMPDEST POP PUSH2 0x237 PUSH1 0x4 DUP1 CALLDATASIZE SUB DUP2 ADD SWAP1 PUSH2 0x232 SWAP2 SWAP1 PUSH2 0x7B1 JUMP JUMPDEST PUSH2 0x353 JUMP JUMPDEST PUSH1 0x40 MLOAD PUSH2 0x244 SWAP2 SWAP1 PUSH2 0x8EF JUMP JUMPDEST PUSH1 0x40 MLOAD DUP1 SWAP2 SUB SWAP1 RETURN JUMPDEST PUSH2 0x255 PUSH2 0x3A4 JUMP JUMPDEST STOP JUMPDEST CALLVALUE DUP1 ISZERO PUSH2 0x262 JUMPI PUSH0 PUSH0 REVERT JUMPDEST POP PUSH2 0x27D PUSH1 0x4 DUP1 CALLDATASIZE SUB DUP2 ADD SWAP1 PUSH2 0x278 SWAP2 SWAP1 PUSH2 0x7B1 JUMP JUMPDEST PUSH2 0x520 JUMP JUMPDEST PUSH1 0x40 MLOAD PUSH2 0x28A SWAP2 SWAP1 PUSH2 0x704 JUMP JUMPDEST PUSH1 0x40 MLOAD DUP1 SWAP2 SUB SWAP1 RETURN JUMPDEST CALLVALUE DUP1 ISZERO PUSH2 0x29E JUMPI PUSH0 PUSH0 REVERT JUMPDEST POP PUSH2 0x2B9 PUSH1 0x4 DUP1 CALLDATASIZE SUB DUP2 ADD SWAP1 PUSH2 0x2B4 SWAP2 SWAP1 PUSH2 0x94A JUMP JUMPDEST PUSH2 0x535 JUMP JUMPDEST STOP JUMPDEST PUSH0 SELFBALANCE SWAP1 POP SWAP1 JUMP JUMPDEST PUSH1 0x2 DUP2 DUP2 SLOAD DUP2 LT PUSH2 0x2D1 JUMPI PUSH0 DUP1 REVERT JUMPDEST SWAP1 PUSH0 MSTORE PUSH1 0x20 PUSH0 KECCAK256 ADD PUSH0 SWAP2 POP SLOAD SWAP1 PUSH2 0x100 EXP SWAP1 DIV PUSH20 0xFFFFFFFFFFFFFFFFFFFFFFFFFFFFFFFFFFFFFFFF AND DUP2 JUMP JUMPDEST PUSH0 PUSH1 0x2 DUP1 SLOAD SWAP1 POP SWAP1 POP SWAP1 JUMP JUMPDEST PUSH0 PUSH0 SWAP1 SLOAD SWAP1 PUSH2 0x100 EXP SWAP1 DIV PUSH20 0xFFFFFFFFFFFFFFFFFFFFFFFFFFFFFFFFFFFFFFFF AND DUP2 JUMP JUMPDEST PUSH1 0x1 PUSH1 0x20 MSTORE DUP1 PUSH0 MSTORE PUSH1 0x40 PUSH0 KECCAK256 PUSH0 SWAP2 POP SWAP1 POP DUP1 PUSH0 ADD SLOAD SWAP1 DUP1 PUSH1 0x1 ADD SLOAD SWAP1 DUP1 PUSH1 0x2 ADD SLOAD SWAP1 POP DUP4 JUMP JUMPDEST PUSH1 0x60 PUSH2 0x3E8 DUP3 LT PUSH2 0x367 JUMPI PUSH2 0x366 PUSH2 0x988 JUMP JUMPDEST JUMPDEST PUSH1 0x40 MLOAD DUP1 PUSH1 0x40 ADD PUSH1 0x40 MSTORE DUP1 PUSH1 0xA DUP2 MSTORE PUSH1 0x20 ADD PUSH32 0x5361666520696E70757400000000000000000000000000000000000000000000 DUP2 MSTORE POP SWAP1 POP SWAP2 SWAP1 POP JUMP JUMPDEST PUSH0 CALLVALUE GT PUSH2 0x3E6 JUMPI PUSH1 0x40 MLOAD PUSH32 0x8C379A000000000000000000000000000000000000000000000000000000000 DUP2 MSTORE PUSH1 0x4 ADD PUSH2 0x3DD SWAP1 PUSH2 0x9FF JUMP JUMPDEST PUSH1 0x40 MLOAD DUP1 SWAP2 SUB SWAP1 REVERT JUMPDEST PUSH0 PUSH1 0x1 PUSH0 CALLER PUSH20 0xFFFFFFFFFFFFFFFFFFFFFFFFFFFFFFFFFFFFFFFF AND PUSH20 0xFFFFFFFFFFFFFFFFFFFFFFFFFFFFFFFFFFFFFFFF AND DUP2 MSTORE PUSH1 0x20 ADD SWAP1 DUP2 MSTORE PUSH1 0x20 ADD PUSH0 KECCAK256 SWAP1 POP PUSH0 DUP2 PUSH1 0x2 ADD SLOAD SUB PUSH2 0x492 JUMPI PUSH1 0x2 CALLER SWAP1 DUP1 PUSH1 0x1 DUP2 SLOAD ADD DUP1 DUP3 SSTORE DUP1 SWAP2 POP POP PUSH1 0x1 SWAP1 SUB SWAP1 PUSH0 MSTORE PUSH1 0x20 PUSH0 KECCAK256 ADD PUSH0 SWAP1 SWAP2 SWAP1 SWAP2 SWAP1 SWAP2 PUSH2 0x100 EXP DUP2 SLOAD DUP2 PUSH20 0xFFFFFFFFFFFFFFFFFFFFFFFFFFFFFFFFFFFFFFFF MUL NOT AND SWAP1 DUP4 PUSH20 0xFFFFFFFFFFFFFFFFFFFFFFFFFFFFFFFFFFFFFFFF AND MUL OR SWAP1 SSTORE POP JUMPDEST CALLVALUE DUP2 PUSH0 ADD PUSH0 DUP3 DUP3 SLOAD PUSH2 0x4A4 SWAP2 SWAP1 PUSH2 0xA4A JUMP JUMPDEST SWAP3 POP POP DUP2 SWAP1 SSTORE POP CALLVALUE DUP2 PUSH1 0x1 ADD DUP2 SWAP1 SSTORE POP PUSH1 0x1 DUP2 PUSH1 0x2 ADD PUSH0 DUP3 DUP3 SLOAD PUSH2 0x4C8 SWAP2 SWAP1 PUSH2 0xA4A JUMP JUMPDEST SWAP3 POP POP DUP2 SWAP1 SSTORE POP CALLER PUSH20 0xFFFFFFFFFFFFFFFFFFFFFFFFFFFFFFFFFFFFFFFF AND PUSH32 0x2A01595CDDF097C90216094025DB714DA3F4E5BD8877B56BA86A24ECEAD8E543 CALLVALUE PUSH1 0x40 MLOAD PUSH2 0x515 SWAP2 SWAP1 PUSH2 0x704 JUMP JUMPDEST PUSH1 0x40 MLOAD DUP1 SWAP2 SUB SWAP1 LOG2 POP JUMP JUMPDEST PUSH0 PUSH1 0x2 DUP3 PUSH2 0x52E SWAP2 SWAP1 PUSH2 0xA7D JUMP JUMPDEST SWAP1 POP SWAP2 SWAP1 POP JUMP JUMPDEST PUSH0 PUSH0 SWAP1 SLOAD SWAP1 PUSH2 0x100 EXP SWAP1 DIV PUSH20 0xFFFFFFFFFFFFFFFFFFFFFFFFFFFFFFFFFFFFFFFF AND PUSH20 0xFFFFFFFFFFFFFFFFFFFFFFFFFFFFFFFFFFFFFFFF AND CALLER PUSH20 0xFFFFFFFFFFFFFFFFFFFFFFFFFFFFFFFFFFFFFFFF AND EQ PUSH2 0x5C3 JUMPI PUSH1 0x40 MLOAD PUSH32 0x8C379A000000000000000000000000000000000000000000000000000000000 DUP2 MSTORE PUSH1 0x4 ADD PUSH2 0x5BA SWAP1 PUSH2 0xB08 JUMP JUMPDEST PUSH1 0x40 MLOAD DUP1 SWAP2 SUB SWAP1 REVERT JUMPDEST DUP1 SELFBALANCE LT ISZERO PUSH2 0x606 JUMPI PUSH1 0x40 MLOAD PUSH32 0x8C379A000000000000000000000000000000000000000000000000000000000 DUP2 MSTORE PUSH1 0x4 ADD PUSH2 0x5FD SWAP1 PUSH2 0xB70 JUMP JUMPDEST PUSH1 0x40 MLOAD DUP1 SWAP2 SUB SWAP1 REVERT JUMPDEST PUSH0 DUP3 PUSH20 0xFFFFFFFFFFFFFFFFFFFFFFFFFFFFFFFFFFFFFFFF AND DUP3 PUSH1 0x40 MLOAD PUSH2 0x62B SWAP1 PUSH2 0xBBB JUMP JUMPDEST PUSH0 PUSH1 0x40 MLOAD DUP1 DUP4 SUB DUP2 DUP6 DUP8 GAS CALL SWAP3 POP POP POP RETURNDATASIZE DUP1 PUSH0 DUP2 EQ PUSH2 0x665 JUMPI PUSH1 0x40 MLOAD SWAP2 POP PUSH1 0x1F NOT PUSH1 0x3F RETURNDATASIZE ADD AND DUP3 ADD PUSH1 0x40 MSTORE RETURNDATASIZE DUP3 MSTORE RETURNDATASIZE PUSH0 PUSH1 0x20 DUP5 ADD RETURNDATACOPY PUSH2 0x66A JUMP JUMPDEST PUSH1 0x60 SWAP2 POP JUMPDEST POP POP SWAP1 POP DUP1 PUSH2 0x6AE JUMPI PUSH1 0x40 MLOAD PUSH32 0x8C379A000000000000000000000000000000000000000000000000000000000 DUP2 MSTORE PUSH1 0x4 ADD PUSH2 0x6A5 SWAP1 PUSH2 0xC19 JUMP JUMPDEST PUSH1 0x40 MLOAD DUP1 SWAP2 SUB SWAP1 REVERT JUMPDEST PUSH32 0x7084F5476618D8E60B11EF0D7D3F06914655ADB8793E28FF7F018D4C76D505D5 DUP4 DUP4 PUSH1 0x40 MLOAD PUSH2 0x6DF SWAP3 SWAP2 SWAP1 PUSH2 0xC92 JUMP JUMPDEST PUSH1 0x40 MLOAD DUP1 SWAP2 SUB SWAP1 LOG1 POP POP POP JUMP JUMPDEST PUSH0 DUP2 SWAP1 POP SWAP2 SWAP1 POP JUMP JUMPDEST PUSH2 0x6FE DUP2 PUSH2 0x6EC JUMP JUMPDEST DUP3 MSTORE POP POP JUMP JUMPDEST PUSH0 PUSH1 0x20 DUP3 ADD SWAP1 POP PUSH2 0x717 PUSH0 DUP4 ADD DUP5 PUSH2 0x6F5 JUMP JUMPDEST SWAP3 SWAP2 POP POP JUMP JUMPDEST PUSH0 PUSH20 0xFFFFFFFFFFFFFFFFFFFFFFFFFFFFFFFFFFFFFFFF DUP3 AND SWAP1 POP SWAP2 SWAP1 POP JUMP JUMPDEST PUSH0 PUSH2 0x746 DUP3 PUSH2 0x71D JUMP JUMPDEST SWAP1 POP SWAP2 SWAP1 POP JUMP JUMPDEST PUSH2 0x756 DUP2 PUSH2 0x73C JUMP JUMPDEST DUP3 MSTORE POP POP JUMP JUMPDEST PUSH0 PUSH1 0x40 DUP3 ADD SWAP1 POP PUSH2 0x76F PUSH0 DUP4 ADD DUP6 PUSH2 0x74D JUMP JUMPDEST PUSH2 0x77C PUSH1 0x20 DUP4 ADD DUP5 PUSH2 0x6F5 JUMP JUMPDEST SWAP4 SWAP3 POP POP POP JUMP JUMPDEST PUSH0 PUSH0 REVERT JUMPDEST PUSH2 0x790 DUP2 PUSH2 0x6EC JUMP JUMPDEST DUP2 EQ PUSH2 0x79A JUMPI PUSH0 PUSH0 REVERT JUMPDEST POP JUMP JUMPDEST PUSH0 DUP2 CALLDATALOAD SWAP1 POP PUSH2 0x7AB DUP2 PUSH2 0x787 JUMP JUMPDEST SWAP3 SWAP2 POP POP JUMP JUMPDEST PUSH0 PUSH1 0x20 DUP3 DUP5 SUB SLT ISZERO PUSH2 0x7C6 JUMPI PUSH2 0x7C5 PUSH2 0x783 JUMP JUMPDEST JUMPDEST PUSH0 PUSH2 0x7D3 DUP5 DUP3 DUP6 ADD PUSH2 0x79D JUMP JUMPDEST SWAP2 POP POP SWAP3 SWAP2 POP POP JUMP JUMPDEST PUSH0 PUSH1 0x20 DUP3 ADD SWAP1 POP PUSH2 0x7EF PUSH0 DUP4 ADD DUP5 PUSH2 0x74D JUMP JUMPDEST SWAP3 SWAP2 POP POP JUMP JUMPDEST PUSH2 0x7FE DUP2 PUSH2 0x73C JUMP JUMPDEST DUP2 EQ PUSH2 0x808 JUMPI PUSH0 PUSH0 REVERT JUMPDEST POP JUMP JUMPDEST PUSH0 DUP2 CALLDATALOAD SWAP1 POP PUSH2 0x819 DUP2 PUSH2 0x7F5 JUMP JUMPDEST SWAP3 SWAP2 POP POP JUMP JUMPDEST PUSH0 PUSH1 0x20 DUP3 DUP5 SUB SLT ISZERO PUSH2 0x834 JUMPI PUSH2 0x833 PUSH2 0x783 JUMP JUMPDEST JUMPDEST PUSH0 PUSH2 0x841 DUP5 DUP3 DUP6 ADD PUSH2 0x80B JUMP JUMPDEST SWAP2 POP POP SWAP3 SWAP2 POP POP JUMP JUMPDEST PUSH0 PUSH1 0x60 DUP3 ADD SWAP1 POP PUSH2 0x85D PUSH0 DUP4 ADD DUP7 PUSH2 0x6F5 JUMP JUMPDEST PUSH2 0x86A PUSH1 0x20 DUP4 ADD DUP6 PUSH2 0x6F5 JUMP JUMPDEST PUSH2 0x877 PUSH1 0x40 DUP4 ADD DUP5 PUSH2 0x6F5 JUMP JUMPDEST SWAP5 SWAP4 POP POP POP POP JUMP JUMPDEST PUSH0 DUP2 MLOAD SWAP1 POP SWAP2 SWAP1 POP JUMP JUMPDEST PUSH0 DUP3 DUP3 MSTORE PUSH1 0x20 DUP3 ADD SWAP1 POP SWAP3 SWAP2 POP POP JUMP JUMPDEST DUP3 DUP2 DUP4 MCOPY PUSH0 DUP4 DUP4 ADD MSTORE POP POP POP JUMP JUMPDEST PUSH0 PUSH1 0x1F NOT PUSH1 0x1F DUP4 ADD AND SWAP1 POP SWAP2 SWAP1 POP JUMP JUMPDEST PUSH0 PUSH2 0x8C1 DUP3 PUSH2 0x87F JUMP JUMPDEST PUSH2 0x8CB DUP2 DUP6 PUSH2 0x889 JUMP JUMPDEST SWAP4 POP PUSH2 0x8DB DUP2 DUP6 PUSH1 0x20 DUP7 ADD PUSH2 0x899 JUMP JUMPDEST PUSH2 0x8E4 DUP2 PUSH2 0x8A7 JUMP JUMPDEST DUP5 ADD SWAP2 POP POP SWAP3 SWAP2 POP POP JUMP JUMPDEST PUSH0 PUSH1 0x20 DUP3 ADD SWAP1 POP DUP2 DUP2 SUB PUSH0 DUP4 ADD MSTORE PUSH2 0x907 DUP2 DUP5 PUSH2 0x8B7 JUMP JUMPDEST SWAP1 POP SWAP3 SWAP2 POP POP JUMP JUMPDEST PUSH0 PUSH2 0x919 DUP3 PUSH2 0x71D JUMP JUMPDEST SWAP1 POP SWAP2 SWAP1 POP JUMP JUMPDEST PUSH2 0x929 DUP2 PUSH2 0x90F JUMP JUMPDEST DUP2 EQ PUSH2 0x933 JUMPI PUSH0 PUSH0 REVERT JUMPDEST POP JUMP JUMPDEST PUSH0 DUP2 CALLDATALOAD SWAP1 POP PUSH2 0x944 DUP2 PUSH2 0x920 JUMP JUMPDEST SWAP3 SWAP2 POP POP JUMP JUMPDEST PUSH0 PUSH0 PUSH1 0x40 DUP4 DUP6 SUB SLT ISZERO PUSH2 0x960 JUMPI PUSH2 0x95F PUSH2 0x783 JUMP JUMPDEST JUMPDEST PUSH0 PUSH2 0x96D DUP6 DUP3 DUP7 ADD PUSH2 0x936 JUMP JUMPDEST SWAP3 POP POP PUSH1 0x20 PUSH2 0x97E DUP6 DUP3 DUP7 ADD PUSH2 0x79D JUMP JUMPDEST SWAP2 POP POP SWAP3 POP SWAP3 SWAP1 POP JUMP JUMPDEST PUSH32 0x4E487B7100000000000000000000000000000000000000000000000000000000 PUSH0 MSTORE PUSH1 0x1 PUSH1 0x4 MSTORE PUSH1 0x24 PUSH0 REVERT JUMPDEST PUSH32 0x4D7573742073656E6420736F6D65204554480000000000000000000000000000 PUSH0 DUP3 ADD MSTORE POP JUMP JUMPDEST PUSH0 PUSH2 0x9E9 PUSH1 0x12 DUP4 PUSH2 0x889 JUMP JUMPDEST SWAP2 POP PUSH2 0x9F4 DUP3 PUSH2 0x9B5 JUMP JUMPDEST PUSH1 0x20 DUP3 ADD SWAP1 POP SWAP2 SWAP1 POP JUMP JUMPDEST PUSH0 PUSH1 0x20 DUP3 ADD SWAP1 POP DUP2 DUP2 SUB PUSH0 DUP4 ADD MSTORE PUSH2 0xA16 DUP2 PUSH2 0x9DD JUMP JUMPDEST SWAP1 POP SWAP2 SWAP1 POP JUMP JUMPDEST PUSH32 0x4E487B7100000000000000000000000000000000000000000000000000000000 PUSH0 MSTORE PUSH1 0x11 PUSH1 0x4 MSTORE PUSH1 0x24 PUSH0 REVERT JUMPDEST PUSH0 PUSH2 0xA54 DUP3 PUSH2 0x6EC JUMP JUMPDEST SWAP2 POP PUSH2 0xA5F DUP4 PUSH2 0x6EC JUMP JUMPDEST SWAP3 POP DUP3 DUP3 ADD SWAP1 POP DUP1 DUP3 GT ISZERO PUSH2 0xA77 JUMPI PUSH2 0xA76 PUSH2 0xA1D JUMP JUMPDEST JUMPDEST SWAP3 SWAP2 POP POP JUMP JUMPDEST PUSH0 PUSH2 0xA87 DUP3 PUSH2 0x6EC JUMP JUMPDEST SWAP2 POP PUSH2 0xA92 DUP4 PUSH2 0x6EC JUMP JUMPDEST SWAP3 POP DUP3 DUP3 MUL PUSH2 0xAA0 DUP2 PUSH2 0x6EC JUMP JUMPDEST SWAP2 POP DUP3 DUP3 DIV DUP5 EQ DUP4 ISZERO OR PUSH2 0xAB7 JUMPI PUSH2 0xAB6 PUSH2 0xA1D JUMP JUMPDEST JUMPDEST POP SWAP3 SWAP2 POP POP JUMP JUMPDEST PUSH32 0x4E6F7420746865206F776E657200000000000000000000000000000000000000 PUSH0 DUP3 ADD MSTORE POP JUMP JUMPDEST PUSH0 PUSH2 0xAF2 PUSH1 0xD DUP4 PUSH2 0x889 JUMP JUMPDEST SWAP2 POP PUSH2 0xAFD DUP3 PUSH2 0xABE JUMP JUMPDEST PUSH1 0x20 DUP3 ADD SWAP1 POP SWAP2 SWAP1 POP JUMP JUMPDEST PUSH0 PUSH1 0x20 DUP3 ADD SWAP1 POP DUP2 DUP2 SUB PUSH0 DUP4 ADD MSTORE PUSH2 0xB1F DUP2 PUSH2 0xAE6 JUMP JUMPDEST SWAP1 POP SWAP2 SWAP1 POP JUMP JUMPDEST PUSH32 0x496E73756666696369656E742062616C616E6365000000000000000000000000 PUSH0 DUP3 ADD MSTORE POP JUMP JUMPDEST PUSH0 PUSH2 0xB5A PUSH1 0x14 DUP4 PUSH2 0x889 JUMP JUMPDEST SWAP2 POP PUSH2 0xB65 DUP3 PUSH2 0xB26 JUMP JUMPDEST PUSH1 0x20 DUP3 ADD SWAP1 POP SWAP2 SWAP1 POP JUMP JUMPDEST PUSH0 PUSH1 0x20 DUP3 ADD SWAP1 POP DUP2 DUP2 SUB PUSH0 DUP4 ADD MSTORE PUSH2 0xB87 DUP2 PUSH2 0xB4E JUMP JUMPDEST SWAP1 POP SWAP2 SWAP1 POP JUMP JUMPDEST PUSH0 DUP2 SWAP1 POP SWAP3 SWAP2 POP POP JUMP JUMPDEST POP JUMP JUMPDEST PUSH0 PUSH2 0xBA6 PUSH0 DUP4 PUSH2 0xB8E JUMP JUMPDEST SWAP2 POP PUSH2 0xBB1 DUP3 PUSH2 0xB98 JUMP JUMPDEST PUSH0 DUP3 ADD SWAP1 POP SWAP2 SWAP1 POP JUMP JUMPDEST PUSH0 PUSH2 0xBC5 DUP3 PUSH2 0xB9B JUMP JUMPDEST SWAP2 POP DUP2 SWAP1 POP SWAP2 SWAP1 POP JUMP JUMPDEST PUSH32 0x455448207472616E73666572206661696C656400000000000000000000000000 PUSH0 DUP3 ADD MSTORE POP JUMP JUMPDEST PUSH0 PUSH2 0xC03 PUSH1 0x13 DUP4 PUSH2 0x889 JUMP JUMPDEST SWAP2 POP PUSH2 0xC0E DUP3 PUSH2 0xBCF JUMP JUMPDEST PUSH1 0x20 DUP3 ADD SWAP1 POP SWAP2 SWAP1 POP JUMP JUMPDEST PUSH0 PUSH1 0x20 DUP3 ADD SWAP1 POP DUP2 DUP2 SUB PUSH0 DUP4 ADD MSTORE PUSH2 0xC30 DUP2 PUSH2 0xBF7 JUMP JUMPDEST SWAP1 POP SWAP2 SWAP1 POP JUMP JUMPDEST PUSH0 DUP2 SWAP1 POP SWAP2 SWAP1 POP JUMP JUMPDEST PUSH0 PUSH2 0xC5A PUSH2 0xC55 PUSH2 0xC50 DUP5 PUSH2 0x71D JUMP JUMPDEST PUSH2 0xC37 JUMP JUMPDEST PUSH2 0x71D JUMP JUMPDEST SWAP1 POP SWAP2 SWAP1 POP JUMP JUMPDEST PUSH0 PUSH2 0xC6B DUP3 PUSH2 0xC40 JUMP JUMPDEST SWAP1 POP SWAP2 SWAP1 POP JUMP JUMPDEST PUSH0 PUSH2 0xC7C DUP3 PUSH2 0xC61 JUMP JUMPDEST SWAP1 POP SWAP2 SWAP1 POP JUMP JUMPDEST PUSH2 0xC8C DUP2 PUSH2 0xC72 JUMP JUMPDEST DUP3 MSTORE POP POP JUMP JUMPDEST PUSH0 PUSH1 0x40 DUP3 ADD SWAP1 POP PUSH2 0xCA5 PUSH0 DUP4 ADD DUP6 PUSH2 0xC83 JUMP JUMPDEST PUSH2 0xCB2 PUSH1 0x20 DUP4 ADD DUP5 PUSH2 0x6F5 JUMP JUMPDEST SWAP4 SWAP3 POP POP POP JUMP INVALID LOG2 PUSH5 0x6970667358 0x22 SLT KECCAK256 PUSH16 0xF074D68B0147C738A31F4AD017EED9E3 PUSH12 0x9838ACC5B4F15E3B3D1FBB78 0xD9 CALLER PUSH5 0x736F6C6343 STOP ADDMOD 0x1E STOP CALLER "
				},
				"gasEstimates": {
					"creation": {
						"codeDepositCost": "662200",
						"executionCost": "24958",
						"totalCost": "687158"
					},
					"external": {
						"": "1765",
						"assertExample(uint256)": "infinite",
						"donate()": "infinite",
						"donorList(uint256)": "4967",
						"donors(address)": "infinite",
						"double(uint256)": "infinite",
						"getBalance()": "335",
						"getDonorCount()": "2485",
						"owner()": "2574",
						"withdraw(address,uint256)": "infinite"
					}
				},
				"methodIdentifiers": {
					"assertExample(uint256)": "eb11813b",
					"donate()": "ed88c68e",
					"donorList(uint256)": "5eed3dcb",
					"donors(address)": "ca0cdea8",
					"double(uint256)": "eee97206",
					"getBalance()": "12065fe0",
					"getDonorCount()": "69bc2f1e",
					"owner()": "8da5cb5b",
					"withdraw(address,uint256)": "f3fef3a3"
				}
			},
			"storageLayout": {
				"storage": [
					{
						"astId": 3,
						"contract": "CommunityWallet.sol:CommunityWallet",
						"label": "owner",
						"offset": 0,
						"slot": "0",
						"type": "t_address"
					},
					{
						"astId": 36,
						"contract": "CommunityWallet.sol:CommunityWallet",
						"label": "donors",
						"offset": 0,
						"slot": "1",
						"type": "t_mapping(t_address,t_struct(Donor)31_storage)"
					},
					{
						"astId": 39,
						"contract": "CommunityWallet.sol:CommunityWallet",
						"label": "donorList",
						"offset": 0,
						"slot": "2",
						"type": "t_array(t_address)dyn_storage"
					}
				],
				"types": {
					"t_address": {
						"encoding": "inplace",
						"label": "address",
						"numberOfBytes": "20"
					},
					"t_array(t_address)dyn_storage": {
						"base": "t_address",
						"encoding": "dynamic_array",
						"label": "address[]",
						"numberOfBytes": "32"
					},
					"t_mapping(t_address,t_struct(Donor)31_storage)": {
						"encoding": "mapping",
						"key": "t_address",
						"label": "mapping(address => struct CommunityWallet.Donor)",
						"numberOfBytes": "32",
						"value": "t_struct(Donor)31_storage"
					},
					"t_struct(Donor)31_storage": {
						"encoding": "inplace",
						"label": "struct CommunityWallet.Donor",
						"members": [
							{
								"astId": 26,
								"contract": "CommunityWallet.sol:CommunityWallet",
								"label": "totalDonated",
								"offset": 0,
								"slot": "0",
								"type": "t_uint256"
							},
							{
								"astId": 28,
								"contract": "CommunityWallet.sol:CommunityWallet",
								"label": "lastDonation",
								"offset": 0,
								"slot": "1",
								"type": "t_uint256"
							},
							{
								"astId": 30,
								"contract": "CommunityWallet.sol:CommunityWallet",
								"label": "donationsCount",
								"offset": 0,
								"slot": "2",
								"type": "t_uint256"
							}
						],
						"numberOfBytes": "96"
					},
					"t_uint256": {
						"encoding": "inplace",
						"label": "uint256",
						"numberOfBytes": "32"
					}
				}
			},
			"userdoc": {
				"kind": "user",
				"methods": {},
				"version": 1
			}
		}
	}
}