{
	"tokensale.sol": {
		"TokenSale": {
			"abi": [
				{
					"inputs": [
						{
							"internalType": "address",
							"name": "_tokenAddress",
							"type": "address"
						}
					],
					"stateMutability": "nonpayable",
					"type": "constructor"
				},
				{
					"anonymous": false,
					"inputs": [
						{
							"indexed": true,
							"internalType": "address",
							"name": "buyer",
							"type": "address"
						},
						{
							"indexed": false,
							"internalType": "uint256",
							"name": "amount",
							"type": "uint256"
						}
					],
					"name": "TokensPurchased",
					"type": "event"
				},
				{
					"anonymous": false,
					"inputs": [
						{
							"indexed": true,
							"internalType": "address",
							"name": "to",
							"type": "address"
						},
						{
							"indexed": false,
							"internalType": "uint256",
							"name": "amount",
							"type": "uint256"
						}
					],
					"name": "Withdrawn",
					"type": "event"
				},
				{
					"inputs": [],
					"name": "buyTokens",
					"outputs": [],
					"stateMutability": "payable",
					"type": "function"
				},
				{
					"inputs": [],
					"name": "getContractETHBalance",
					"outputs": [
						{
							"internalType": "uint256",
							"name": "",
							"type": "uint256"
						}
					],
					"stateMutability": "view",
					"type": "function"
				},
				{
					"inputs": [],
					"name": "getTokenBalance",
					"outputs": [
						{
							"internalType": "uint256",
							"name": "",
							"type": "uint256"
						}
					],
					"stateMutability": "view",
					"type": "function"
				},
				{
					"inputs": [],
					"name": "owner",
					"outputs": [
						{
							"internalType": "address",
							"name": "",
							"type": "address"
						}
					],
					"stateMutability": "view",
					"type": "function"
				},
				{
					"inputs": [],
					"name": "rate",
					"outputs": [
						{
							"internalType": "uint256",
							"name": "",
							"type": "uint256"
						}
					],
					"stateMutability": "view",
					"type": "function"
				},
				{
					"inputs": [],
					"name": "token",
					"outputs": [
						{
							"internalType": "contract IERC20",
							"name": "",
							"type": "address"
						}
					],
					"stateMutability": "view",
					"type": "function"
				},
				{
					"inputs": [
						{
							"internalType": "address payable",
							"name": "_to",
							"type": "address"
						}
					],
					"name": "withdrawFunds",
					"outputs": [],
					"stateMutability": "nonpayable",
					"type": "function"
				}
			],
			"devdoc": {
				"kind": "dev",
				"methods": {},
				"version": 1
			},
			"evm": {
				"assembly": "    /* \"tokensale.sol\":116:1584  contract TokenSale {... */\n  mstore(0x40, 0x80)\n    /* \"tokensale.sol\":214:218  1000 */\n  0x03e8\n    /* \"tokensale.sol\":192:218  uint256 public rate = 1000 */\n  0x02\n  sstore\n    /* \"tokensale.sol\":372:481  constructor(address _tokenAddress) {... */\n  callvalue\n  dup1\n  iszero\n  tag_1\n  jumpi\n  revert(0x00, 0x00)\ntag_1:\n  pop\n  mload(0x40)\n  sub(codesize, bytecodeSize)\n  dup1\n  bytecodeSize\n  dup4\n  codecopy\n  dup2\n  dup2\n  add\n  0x40\n  mstore\n  dup2\n  add\n  swap1\n  tag_2\n  swap2\n  swap1\n  tag_3\n  jump\t// in\ntag_2:\n    /* \"tokensale.sol\":425:435  msg.sender */\n  caller\n    /* \"tokensale.sol\":417:422  owner */\n  0x00\n  0x00\n    /* \"tokensale.sol\":417:435  owner = msg.sender */\n  0x0100\n  exp\n  dup2\n  sload\n  dup2\n  0xffffffffffffffffffffffffffffffffffffffff\n  mul\n  not\n  and\n  swap1\n  dup4\n  0xffffffffffffffffffffffffffffffffffffffff\n  and\n  mul\n  or\n  swap1\n  sstore\n  pop\n    /* \"tokensale.sol\":460:473  _tokenAddress */\n  dup1\n    /* \"tokensale.sol\":445:450  token */\n  0x01\n  0x00\n    /* \"tokensale.sol\":445:474  token = IERC20(_tokenAddress) */\n  0x0100\n  exp\n  dup2\n  sload\n  dup2\n  0xffffffffffffffffffffffffffffffffffffffff\n  mul\n  not\n  and\n  swap1\n  dup4\n  0xffffffffffffffffffffffffffffffffffffffff\n  and\n  mul\n  or\n  swap1\n  sstore\n  pop\n    /* \"tokensale.sol\":372:481  constructor(address _tokenAddress) {... */\n  pop\n    /* \"tokensale.sol\":116:1584  contract TokenSale {... */\n  jump(tag_6)\n    /* \"#utility.yul\":88:205   */\ntag_8:\n    /* \"#utility.yul\":197:198   */\n  0x00\n    /* \"#utility.yul\":194:195   */\n  0x00\n    /* \"#utility.yul\":187:199   */\n  revert\n    /* \"#utility.yul\":334:460   */\ntag_10:\n    /* \"#utility.yul\":371:378   */\n  0x00\n    /* \"#utility.yul\":411:453   */\n  0xffffffffffffffffffffffffffffffffffffffff\n    /* \"#utility.yul\":404:409   */\n  dup3\n    /* \"#utility.yul\":400:454   */\n  and\n    /* \"#utility.yul\":389:454   */\n  swap1\n  pop\n    /* \"#utility.yul\":334:460   */\n  swap2\n  swap1\n  pop\n  jump\t// out\n    /* \"#utility.yul\":466:562   */\ntag_11:\n    /* \"#utility.yul\":503:510   */\n  0x00\n    /* \"#utility.yul\":532:556   */\n  tag_20\n    /* \"#utility.yul\":550:555   */\n  dup3\n    /* \"#utility.yul\":532:556   */\n  tag_10\n  jump\t// in\ntag_20:\n    /* \"#utility.yul\":521:556   */\n  swap1\n  pop\n    /* \"#utility.yul\":466:562   */\n  swap2\n  swap1\n  pop\n  jump\t// out\n    /* \"#utility.yul\":568:690   */\ntag_12:\n    /* \"#utility.yul\":641:665   */\n  tag_22\n    /* \"#utility.yul\":659:664   */\n  dup2\n    /* \"#utility.yul\":641:665   */\n  tag_11\n  jump\t// in\ntag_22:\n    /* \"#utility.yul\":634:639   */\n  dup2\n    /* \"#utility.yul\":631:666   */\n  eq\n    /* \"#utility.yul\":621:684   */\n  tag_23\n  jumpi\n    /* \"#utility.yul\":680:681   */\n  0x00\n    /* \"#utility.yul\":677:678   */\n  0x00\n    /* \"#utility.yul\":670:682   */\n  revert\n    /* \"#utility.yul\":621:684   */\ntag_23:\n    /* \"#utility.yul\":568:690   */\n  pop\n  jump\t// out\n    /* \"#utility.yul\":696:839   */\ntag_13:\n    /* \"#utility.yul\":753:758   */\n  0x00\n    /* \"#utility.yul\":784:790   */\n  dup2\n    /* \"#utility.yul\":778:791   */\n  mload\n    /* \"#utility.yul\":769:791   */\n  swap1\n  pop\n    /* \"#utility.yul\":800:833   */\n  tag_25\n    /* \"#utility.yul\":827:832   */\n  dup2\n    /* \"#utility.yul\":800:833   */\n  tag_12\n  jump\t// in\ntag_25:\n    /* \"#utility.yul\":696:839   */\n  swap3\n  swap2\n  pop\n  pop\n  jump\t// out\n    /* \"#utility.yul\":845:1196   */\ntag_3:\n    /* \"#utility.yul\":915:921   */\n  0x00\n    /* \"#utility.yul\":964:966   */\n  0x20\n    /* \"#utility.yul\":952:961   */\n  dup3\n    /* \"#utility.yul\":943:950   */\n  dup5\n    /* \"#utility.yul\":939:962   */\n  sub\n    /* \"#utility.yul\":935:967   */\n  slt\n    /* \"#utility.yul\":932:1051   */\n  iszero\n  tag_27\n  jumpi\n    /* \"#utility.yul\":970:1049   */\n  tag_28\n  tag_8\n  jump\t// in\ntag_28:\n    /* \"#utility.yul\":932:1051   */\ntag_27:\n    /* \"#utility.yul\":1090:1091   */\n  0x00\n    /* \"#utility.yul\":1115:1179   */\n  tag_29\n    /* \"#utility.yul\":1171:1178   */\n  dup5\n    /* \"#utility.yul\":1162:1168   */\n  dup3\n    /* \"#utility.yul\":1151:1160   */\n  dup6\n    /* \"#utility.yul\":1147:1169   */\n  add\n    /* \"#utility.yul\":1115:1179   */\n  tag_13\n  jump\t// in\ntag_29:\n    /* \"#utility.yul\":1105:1179   */\n  swap2\n  pop\n    /* \"#utility.yul\":1061:1189   */\n  pop\n    /* \"#utility.yul\":845:1196   */\n  swap3\n  swap2\n  pop\n  pop\n  jump\t// out\n    /* \"tokensale.sol\":116:1584  contract TokenSale {... */\ntag_6:\n  dataSize(sub_0)\n  dup1\n  dataOffset(sub_0)\n  0x00\n  codecopy\n  0x00\n  return\nstop\n\nsub_0: assembly {\n        /* \"tokensale.sol\":116:1584  contract TokenSale {... */\n      mstore(0x40, 0x80)\n      jumpi(tag_1, lt(calldatasize, 0x04))\n      shr(0xe0, calldataload(0x00))\n      dup1\n      0x8c89a0ad\n      gt\n      tag_9\n      jumpi\n      dup1\n      0x8c89a0ad\n      eq\n      tag_5\n      jumpi\n      dup1\n      0x8da5cb5b\n      eq\n      tag_6\n      jumpi\n      dup1\n      0xd0febe4c\n      eq\n      tag_7\n      jumpi\n      dup1\n      0xfc0c546a\n      eq\n      tag_8\n      jumpi\n      jump(tag_1)\n    tag_9:\n      dup1\n      0x2c4e722e\n      eq\n      tag_2\n      jumpi\n      dup1\n      0x68742da6\n      eq\n      tag_3\n      jumpi\n      dup1\n      0x82b2e257\n      eq\n      tag_4\n      jumpi\n    tag_1:\n      revert(0x00, 0x00)\n        /* \"tokensale.sol\":192:218  uint256 public rate = 1000 */\n    tag_2:\n      callvalue\n      dup1\n      iszero\n      tag_10\n      jumpi\n      revert(0x00, 0x00)\n    tag_10:\n      pop\n      tag_11\n      tag_12\n      jump\t// in\n    tag_11:\n      mload(0x40)\n      tag_13\n      swap2\n      swap1\n      tag_14\n      jump\t// in\n    tag_13:\n      mload(0x40)\n      dup1\n      swap2\n      sub\n      swap1\n      return\n        /* \"tokensale.sol\":1060:1299  function withdrawFunds(address payable _to) public onlyOwner {... */\n    tag_3:\n      callvalue\n      dup1\n      iszero\n      tag_15\n      jumpi\n      revert(0x00, 0x00)\n    tag_15:\n      pop\n      tag_16\n      0x04\n      dup1\n      calldatasize\n      sub\n      dup2\n      add\n      swap1\n      tag_17\n      swap2\n      swap1\n      tag_18\n      jump\t// in\n    tag_17:\n      tag_19\n      jump\t// in\n    tag_16:\n      stop\n        /* \"tokensale.sol\":1471:1582  function getTokenBalance() public view returns (uint256) {... */\n    tag_4:\n      callvalue\n      dup1\n      iszero\n      tag_20\n      jumpi\n      revert(0x00, 0x00)\n    tag_20:\n      pop\n      tag_21\n      tag_22\n      jump\t// in\n    tag_21:\n      mload(0x40)\n      tag_23\n      swap2\n      swap1\n      tag_14\n      jump\t// in\n    tag_23:\n      mload(0x40)\n      dup1\n      swap2\n      sub\n      swap1\n      return\n        /* \"tokensale.sol\":1330:1438  function getContractETHBalance() public view returns (uint256) {... */\n    tag_5:\n      callvalue\n      dup1\n      iszero\n      tag_24\n      jumpi\n      revert(0x00, 0x00)\n    tag_24:\n      pop\n      tag_25\n      tag_26\n      jump\t// in\n    tag_25:\n      mload(0x40)\n      tag_27\n      swap2\n      swap1\n      tag_14\n      jump\t// in\n    tag_27:\n      mload(0x40)\n      dup1\n      swap2\n      sub\n      swap1\n      return\n        /* \"tokensale.sol\":141:161  address public owner */\n    tag_6:\n      callvalue\n      dup1\n      iszero\n      tag_28\n      jumpi\n      revert(0x00, 0x00)\n    tag_28:\n      pop\n      tag_29\n      tag_30\n      jump\t// in\n    tag_29:\n      mload(0x40)\n      tag_31\n      swap2\n      swap1\n      tag_32\n      jump\t// in\n    tag_31:\n      mload(0x40)\n      dup1\n      swap2\n      sub\n      swap1\n      return\n        /* \"tokensale.sol\":616:1020  function buyTokens() public payable {... */\n    tag_7:\n      tag_33\n      tag_34\n      jump\t// in\n    tag_33:\n      stop\n        /* \"tokensale.sol\":167:186  IERC20 public token */\n    tag_8:\n      callvalue\n      dup1\n      iszero\n      tag_35\n      jumpi\n      revert(0x00, 0x00)\n    tag_35:\n      pop\n      tag_36\n      tag_37\n      jump\t// in\n    tag_36:\n      mload(0x40)\n      tag_38\n      swap2\n      swap1\n      tag_39\n      jump\t// in\n    tag_38:\n      mload(0x40)\n      dup1\n      swap2\n      sub\n      swap1\n      return\n        /* \"tokensale.sol\":192:218  uint256 public rate = 1000 */\n    tag_12:\n      sload(0x02)\n      dup2\n      jump\t// out\n        /* \"tokensale.sol\":1060:1299  function withdrawFunds(address payable _to) public onlyOwner {... */\n    tag_19:\n        /* \"tokensale.sol\":540:545  owner */\n      0x00\n      0x00\n      swap1\n      sload\n      swap1\n      0x0100\n      exp\n      swap1\n      div\n      0xffffffffffffffffffffffffffffffffffffffff\n      and\n        /* \"tokensale.sol\":526:545  msg.sender == owner */\n      0xffffffffffffffffffffffffffffffffffffffff\n      and\n        /* \"tokensale.sol\":526:536  msg.sender */\n      caller\n        /* \"tokensale.sol\":526:545  msg.sender == owner */\n      0xffffffffffffffffffffffffffffffffffffffff\n      and\n      eq\n        /* \"tokensale.sol\":518:559  require(msg.sender == owner, \"Not owner\") */\n      tag_41\n      jumpi\n      mload(0x40)\n      0x08c379a000000000000000000000000000000000000000000000000000000000\n      dup2\n      mstore\n      0x04\n      add\n      tag_42\n      swap1\n      tag_43\n      jump\t// in\n    tag_42:\n      mload(0x40)\n      dup1\n      swap2\n      sub\n      swap1\n      revert\n    tag_41:\n        /* \"tokensale.sol\":1131:1146  uint256 balance */\n      0x00\n        /* \"tokensale.sol\":1149:1170  address(this).balance */\n      selfbalance\n        /* \"tokensale.sol\":1131:1170  uint256 balance = address(this).balance */\n      swap1\n      pop\n        /* \"tokensale.sol\":1198:1199  0 */\n      0x00\n        /* \"tokensale.sol\":1188:1195  balance */\n      dup2\n        /* \"tokensale.sol\":1188:1199  balance > 0 */\n      gt\n        /* \"tokensale.sol\":1180:1222  require(balance > 0, \"No ETH to withdraw\") */\n      tag_45\n      jumpi\n      mload(0x40)\n      0x08c379a000000000000000000000000000000000000000000000000000000000\n      dup2\n      mstore\n      0x04\n      add\n      tag_46\n      swap1\n      tag_47\n      jump\t// in\n    tag_46:\n      mload(0x40)\n      dup1\n      swap2\n      sub\n      swap1\n      revert\n    tag_45:\n        /* \"tokensale.sol\":1232:1235  _to */\n      dup2\n        /* \"tokensale.sol\":1232:1244  _to.transfer */\n      0xffffffffffffffffffffffffffffffffffffffff\n      and\n        /* \"tokensale.sol\":1232:1253  _to.transfer(balance) */\n      0x08fc\n        /* \"tokensale.sol\":1245:1252  balance */\n      dup3\n        /* \"tokensale.sol\":1232:1253  _to.transfer(balance) */\n      swap1\n      dup2\n      iszero\n      mul\n      swap1\n      mload(0x40)\n      0x00\n      mload(0x40)\n      dup1\n      dup4\n      sub\n      dup2\n      dup6\n      dup9\n      dup9\n      call\n      swap4\n      pop\n      pop\n      pop\n      pop\n      iszero\n      dup1\n      iszero\n      tag_49\n      jumpi\n      returndatacopy(0x00, 0x00, returndatasize)\n      revert(0x00, returndatasize)\n    tag_49:\n      pop\n        /* \"tokensale.sol\":1279:1282  _to */\n      dup2\n        /* \"tokensale.sol\":1269:1292  Withdrawn(_to, balance) */\n      0xffffffffffffffffffffffffffffffffffffffff\n      and\n      0x7084f5476618d8e60b11ef0d7d3f06914655adb8793e28ff7f018d4c76d505d5\n        /* \"tokensale.sol\":1284:1291  balance */\n      dup3\n        /* \"tokensale.sol\":1269:1292  Withdrawn(_to, balance) */\n      mload(0x40)\n      tag_50\n      swap2\n      swap1\n      tag_14\n      jump\t// in\n    tag_50:\n      mload(0x40)\n      dup1\n      swap2\n      sub\n      swap1\n      log2\n        /* \"tokensale.sol\":1121:1299  {... */\n      pop\n        /* \"tokensale.sol\":1060:1299  function withdrawFunds(address payable _to) public onlyOwner {... */\n      pop\n      jump\t// out\n        /* \"tokensale.sol\":1471:1582  function getTokenBalance() public view returns (uint256) {... */\n    tag_22:\n        /* \"tokensale.sol\":1519:1526  uint256 */\n      0x00\n        /* \"tokensale.sol\":1545:1550  token */\n      0x01\n      0x00\n      swap1\n      sload\n      swap1\n      0x0100\n      exp\n      swap1\n      div\n      0xffffffffffffffffffffffffffffffffffffffff\n      and\n        /* \"tokensale.sol\":1545:1560  token.balanceOf */\n      0xffffffffffffffffffffffffffffffffffffffff\n      and\n      0x70a08231\n        /* \"tokensale.sol\":1569:1573  this */\n      address\n        /* \"tokensale.sol\":1545:1575  token.balanceOf(address(this)) */\n      mload(0x40)\n      dup3\n      0xffffffff\n      and\n      0xe0\n      shl\n      dup2\n      mstore\n      0x04\n      add\n      tag_52\n      swap2\n      swap1\n      tag_32\n      jump\t// in\n    tag_52:\n      0x20\n      mload(0x40)\n      dup1\n      dup4\n      sub\n      dup2\n      dup7\n      gas\n      staticcall\n      iszero\n      dup1\n      iszero\n      tag_54\n      jumpi\n      returndatacopy(0x00, 0x00, returndatasize)\n      revert(0x00, returndatasize)\n    tag_54:\n      pop\n      pop\n      pop\n      pop\n      mload(0x40)\n      returndatasize\n      not(0x1f)\n      0x1f\n      dup3\n      add\n      and\n      dup3\n      add\n      dup1\n      0x40\n      mstore\n      pop\n      dup2\n      add\n      swap1\n      tag_55\n      swap2\n      swap1\n      tag_56\n      jump\t// in\n    tag_55:\n        /* \"tokensale.sol\":1538:1575  return token.balanceOf(address(this)) */\n      swap1\n      pop\n        /* \"tokensale.sol\":1471:1582  function getTokenBalance() public view returns (uint256) {... */\n      swap1\n      jump\t// out\n        /* \"tokensale.sol\":1330:1438  function getContractETHBalance() public view returns (uint256) {... */\n    tag_26:\n        /* \"tokensale.sol\":1384:1391  uint256 */\n      0x00\n        /* \"tokensale.sol\":1410:1431  address(this).balance */\n      selfbalance\n        /* \"tokensale.sol\":1403:1431  return address(this).balance */\n      swap1\n      pop\n        /* \"tokensale.sol\":1330:1438  function getContractETHBalance() public view returns (uint256) {... */\n      swap1\n      jump\t// out\n        /* \"tokensale.sol\":141:161  address public owner */\n    tag_30:\n      0x00\n      0x00\n      swap1\n      sload\n      swap1\n      0x0100\n      exp\n      swap1\n      div\n      0xffffffffffffffffffffffffffffffffffffffff\n      and\n      dup2\n      jump\t// out\n        /* \"tokensale.sol\":616:1020  function buyTokens() public payable {... */\n    tag_34:\n        /* \"tokensale.sol\":682:683  0 */\n      0x00\n        /* \"tokensale.sol\":670:679  msg.value */\n      callvalue\n        /* \"tokensale.sol\":670:683  msg.value > 0 */\n      gt\n        /* \"tokensale.sol\":662:710  require(msg.value > 0, \"Send ETH to buy tokens\") */\n      tag_59\n      jumpi\n      mload(0x40)\n      0x08c379a000000000000000000000000000000000000000000000000000000000\n      dup2\n      mstore\n      0x04\n      add\n      tag_60\n      swap1\n      tag_61\n      jump\t// in\n    tag_60:\n      mload(0x40)\n      dup1\n      swap2\n      sub\n      swap1\n      revert\n    tag_59:\n        /* \"tokensale.sol\":721:740  uint256 tokensToBuy */\n      0x00\n        /* \"tokensale.sol\":755:759  rate */\n      sload(0x02)\n        /* \"tokensale.sol\":743:752  msg.value */\n      callvalue\n        /* \"tokensale.sol\":743:759  msg.value * rate */\n      tag_62\n      swap2\n      swap1\n      tag_63\n      jump\t// in\n    tag_62:\n        /* \"tokensale.sol\":721:759  uint256 tokensToBuy = msg.value * rate */\n      swap1\n      pop\n        /* \"tokensale.sol\":769:792  uint256 contractBalance */\n      0x00\n        /* \"tokensale.sol\":795:800  token */\n      0x01\n      0x00\n      swap1\n      sload\n      swap1\n      0x0100\n      exp\n      swap1\n      div\n      0xffffffffffffffffffffffffffffffffffffffff\n      and\n        /* \"tokensale.sol\":795:810  token.balanceOf */\n      0xffffffffffffffffffffffffffffffffffffffff\n      and\n      0x70a08231\n        /* \"tokensale.sol\":819:823  this */\n      address\n        /* \"tokensale.sol\":795:825  token.balanceOf(address(this)) */\n      mload(0x40)\n      dup3\n      0xffffffff\n      and\n      0xe0\n      shl\n      dup2\n      mstore\n      0x04\n      add\n      tag_64\n      swap2\n      swap1\n      tag_32\n      jump\t// in\n    tag_64:\n      0x20\n      mload(0x40)\n      dup1\n      dup4\n      sub\n      dup2\n      dup7\n      gas\n      staticcall\n      iszero\n      dup1\n      iszero\n      tag_66\n      jumpi\n      returndatacopy(0x00, 0x00, returndatasize)\n      revert(0x00, returndatasize)\n    tag_66:\n      pop\n      pop\n      pop\n      pop\n      mload(0x40)\n      returndatasize\n      not(0x1f)\n      0x1f\n      dup3\n      add\n      and\n      dup3\n      add\n      dup1\n      0x40\n      mstore\n      pop\n      dup2\n      add\n      swap1\n      tag_67\n      swap2\n      swap1\n      tag_56\n      jump\t// in\n    tag_67:\n        /* \"tokensale.sol\":769:825  uint256 contractBalance = token.balanceOf(address(this)) */\n      swap1\n      pop\n        /* \"tokensale.sol\":862:873  tokensToBuy */\n      dup2\n        /* \"tokensale.sol\":843:858  contractBalance */\n      dup2\n        /* \"tokensale.sol\":843:873  contractBalance >= tokensToBuy */\n      lt\n      iszero\n        /* \"tokensale.sol\":835:907  require(contractBalance >= tokensToBuy, \"Not enough tokens in contract\") */\n      tag_68\n      jumpi\n      mload(0x40)\n      0x08c379a000000000000000000000000000000000000000000000000000000000\n      dup2\n      mstore\n      0x04\n      add\n      tag_69\n      swap1\n      tag_70\n      jump\t// in\n    tag_69:\n      mload(0x40)\n      dup1\n      swap2\n      sub\n      swap1\n      revert\n    tag_68:\n        /* \"tokensale.sol\":918:923  token */\n      0x01\n      0x00\n      swap1\n      sload\n      swap1\n      0x0100\n      exp\n      swap1\n      div\n      0xffffffffffffffffffffffffffffffffffffffff\n      and\n        /* \"tokensale.sol\":918:932  token.transfer */\n      0xffffffffffffffffffffffffffffffffffffffff\n      and\n      0xa9059cbb\n        /* \"tokensale.sol\":933:943  msg.sender */\n      caller\n        /* \"tokensale.sol\":945:956  tokensToBuy */\n      dup5\n        /* \"tokensale.sol\":918:957  token.transfer(msg.sender, tokensToBuy) */\n      mload(0x40)\n      dup4\n      0xffffffff\n      and\n      0xe0\n      shl\n      dup2\n      mstore\n      0x04\n      add\n      tag_71\n      swap3\n      swap2\n      swap1\n      tag_72\n      jump\t// in\n    tag_71:\n      0x20\n      mload(0x40)\n      dup1\n      dup4\n      sub\n      dup2\n      0x00\n      dup8\n      gas\n      call\n      iszero\n      dup1\n      iszero\n      tag_74\n      jumpi\n      returndatacopy(0x00, 0x00, returndatasize)\n      revert(0x00, returndatasize)\n    tag_74:\n      pop\n      pop\n      pop\n      pop\n      mload(0x40)\n      returndatasize\n      not(0x1f)\n      0x1f\n      dup3\n      add\n      and\n      dup3\n      add\n      dup1\n      0x40\n      mstore\n      pop\n      dup2\n      add\n      swap1\n      tag_75\n      swap2\n      swap1\n      tag_76\n      jump\t// in\n    tag_75:\n      pop\n        /* \"tokensale.sol\":989:999  msg.sender */\n      caller\n        /* \"tokensale.sol\":973:1013  TokensPurchased(msg.sender, tokensToBuy) */\n      0xffffffffffffffffffffffffffffffffffffffff\n      and\n      0x8f28852646c20cc973d3a8218f7eefed58c25c909f78f0265af4818c3d4dc271\n        /* \"tokensale.sol\":1001:1012  tokensToBuy */\n      dup4\n        /* \"tokensale.sol\":973:1013  TokensPurchased(msg.sender, tokensToBuy) */\n      mload(0x40)\n      tag_77\n      swap2\n      swap1\n      tag_14\n      jump\t// in\n    tag_77:\n      mload(0x40)\n      dup1\n      swap2\n      sub\n      swap1\n      log2\n        /* \"tokensale.sol\":652:1020  {... */\n      pop\n      pop\n        /* \"tokensale.sol\":616:1020  function buyTokens() public payable {... */\n      jump\t// out\n        /* \"tokensale.sol\":167:186  IERC20 public token */\n    tag_37:\n      0x01\n      0x00\n      swap1\n      sload\n      swap1\n      0x0100\n      exp\n      swap1\n      div\n      0xffffffffffffffffffffffffffffffffffffffff\n      and\n      dup2\n      jump\t// out\n        /* \"#utility.yul\":7:84   */\n    tag_78:\n        /* \"#utility.yul\":44:51   */\n      0x00\n        /* \"#utility.yul\":73:78   */\n      dup2\n        /* \"#utility.yul\":62:78   */\n      swap1\n      pop\n        /* \"#utility.yul\":7:84   */\n      swap2\n      swap1\n      pop\n      jump\t// out\n        /* \"#utility.yul\":90:208   */\n    tag_79:\n        /* \"#utility.yul\":177:201   */\n      tag_112\n        /* \"#utility.yul\":195:200   */\n      dup2\n        /* \"#utility.yul\":177:201   */\n      tag_78\n      jump\t// in\n    tag_112:\n        /* \"#utility.yul\":172:175   */\n      dup3\n        /* \"#utility.yul\":165:202   */\n      mstore\n        /* \"#utility.yul\":90:208   */\n      pop\n      pop\n      jump\t// out\n        /* \"#utility.yul\":214:436   */\n    tag_14:\n        /* \"#utility.yul\":307:311   */\n      0x00\n        /* \"#utility.yul\":345:347   */\n      0x20\n        /* \"#utility.yul\":334:343   */\n      dup3\n        /* \"#utility.yul\":330:348   */\n      add\n        /* \"#utility.yul\":322:348   */\n      swap1\n      pop\n        /* \"#utility.yul\":358:429   */\n      tag_114\n        /* \"#utility.yul\":426:427   */\n      0x00\n        /* \"#utility.yul\":415:424   */\n      dup4\n        /* \"#utility.yul\":411:428   */\n      add\n        /* \"#utility.yul\":402:408   */\n      dup5\n        /* \"#utility.yul\":358:429   */\n      tag_79\n      jump\t// in\n    tag_114:\n        /* \"#utility.yul\":214:436   */\n      swap3\n      swap2\n      pop\n      pop\n      jump\t// out\n        /* \"#utility.yul\":523:640   */\n    tag_81:\n        /* \"#utility.yul\":632:633   */\n      0x00\n        /* \"#utility.yul\":629:630   */\n      0x00\n        /* \"#utility.yul\":622:634   */\n      revert\n        /* \"#utility.yul\":769:895   */\n    tag_83:\n        /* \"#utility.yul\":806:813   */\n      0x00\n        /* \"#utility.yul\":846:888   */\n      0xffffffffffffffffffffffffffffffffffffffff\n        /* \"#utility.yul\":839:844   */\n      dup3\n        /* \"#utility.yul\":835:889   */\n      and\n        /* \"#utility.yul\":824:889   */\n      swap1\n      pop\n        /* \"#utility.yul\":769:895   */\n      swap2\n      swap1\n      pop\n      jump\t// out\n        /* \"#utility.yul\":901:1005   */\n    tag_84:\n        /* \"#utility.yul\":946:953   */\n      0x00\n        /* \"#utility.yul\":975:999   */\n      tag_120\n        /* \"#utility.yul\":993:998   */\n      dup3\n        /* \"#utility.yul\":975:999   */\n      tag_83\n      jump\t// in\n    tag_120:\n        /* \"#utility.yul\":964:999   */\n      swap1\n      pop\n        /* \"#utility.yul\":901:1005   */\n      swap2\n      swap1\n      pop\n      jump\t// out\n        /* \"#utility.yul\":1011:1149   */\n    tag_85:\n        /* \"#utility.yul\":1092:1124   */\n      tag_122\n        /* \"#utility.yul\":1118:1123   */\n      dup2\n        /* \"#utility.yul\":1092:1124   */\n      tag_84\n      jump\t// in\n    tag_122:\n        /* \"#utility.yul\":1085:1090   */\n      dup2\n        /* \"#utility.yul\":1082:1125   */\n      eq\n        /* \"#utility.yul\":1072:1143   */\n      tag_123\n      jumpi\n        /* \"#utility.yul\":1139:1140   */\n      0x00\n        /* \"#utility.yul\":1136:1137   */\n      0x00\n        /* \"#utility.yul\":1129:1141   */\n      revert\n        /* \"#utility.yul\":1072:1143   */\n    tag_123:\n        /* \"#utility.yul\":1011:1149   */\n      pop\n      jump\t// out\n        /* \"#utility.yul\":1155:1310   */\n    tag_86:\n        /* \"#utility.yul\":1209:1214   */\n      0x00\n        /* \"#utility.yul\":1247:1253   */\n      dup2\n        /* \"#utility.yul\":1234:1254   */\n      calldataload\n        /* \"#utility.yul\":1225:1254   */\n      swap1\n      pop\n        /* \"#utility.yul\":1263:1304   */\n      tag_125\n        /* \"#utility.yul\":1298:1303   */\n      dup2\n        /* \"#utility.yul\":1263:1304   */\n      tag_85\n      jump\t// in\n    tag_125:\n        /* \"#utility.yul\":1155:1310   */\n      swap3\n      swap2\n      pop\n      pop\n      jump\t// out\n        /* \"#utility.yul\":1316:1661   */\n    tag_18:\n        /* \"#utility.yul\":1383:1389   */\n      0x00\n        /* \"#utility.yul\":1432:1434   */\n      0x20\n        /* \"#utility.yul\":1420:1429   */\n      dup3\n        /* \"#utility.yul\":1411:1418   */\n      dup5\n        /* \"#utility.yul\":1407:1430   */\n      sub\n        /* \"#utility.yul\":1403:1435   */\n      slt\n        /* \"#utility.yul\":1400:1519   */\n      iszero\n      tag_127\n      jumpi\n        /* \"#utility.yul\":1438:1517   */\n      tag_128\n      tag_81\n      jump\t// in\n    tag_128:\n        /* \"#utility.yul\":1400:1519   */\n    tag_127:\n        /* \"#utility.yul\":1558:1559   */\n      0x00\n        /* \"#utility.yul\":1583:1644   */\n      tag_129\n        /* \"#utility.yul\":1636:1643   */\n      dup5\n        /* \"#utility.yul\":1627:1633   */\n      dup3\n        /* \"#utility.yul\":1616:1625   */\n      dup6\n        /* \"#utility.yul\":1612:1634   */\n      add\n        /* \"#utility.yul\":1583:1644   */\n      tag_86\n      jump\t// in\n    tag_129:\n        /* \"#utility.yul\":1573:1644   */\n      swap2\n      pop\n        /* \"#utility.yul\":1529:1654   */\n      pop\n        /* \"#utility.yul\":1316:1661   */\n      swap3\n      swap2\n      pop\n      pop\n      jump\t// out\n        /* \"#utility.yul\":1667:1763   */\n    tag_87:\n        /* \"#utility.yul\":1704:1711   */\n      0x00\n        /* \"#utility.yul\":1733:1757   */\n      tag_131\n        /* \"#utility.yul\":1751:1756   */\n      dup3\n        /* \"#utility.yul\":1733:1757   */\n      tag_83\n      jump\t// in\n    tag_131:\n        /* \"#utility.yul\":1722:1757   */\n      swap1\n      pop\n        /* \"#utility.yul\":1667:1763   */\n      swap2\n      swap1\n      pop\n      jump\t// out\n        /* \"#utility.yul\":1769:1887   */\n    tag_88:\n        /* \"#utility.yul\":1856:1880   */\n      tag_133\n        /* \"#utility.yul\":1874:1879   */\n      dup2\n        /* \"#utility.yul\":1856:1880   */\n      tag_87\n      jump\t// in\n    tag_133:\n        /* \"#utility.yul\":1851:1854   */\n      dup3\n        /* \"#utility.yul\":1844:1881   */\n      mstore\n        /* \"#utility.yul\":1769:1887   */\n      pop\n      pop\n      jump\t// out\n        /* \"#utility.yul\":1893:2115   */\n    tag_32:\n        /* \"#utility.yul\":1986:1990   */\n      0x00\n        /* \"#utility.yul\":2024:2026   */\n      0x20\n        /* \"#utility.yul\":2013:2022   */\n      dup3\n        /* \"#utility.yul\":2009:2027   */\n      add\n        /* \"#utility.yul\":2001:2027   */\n      swap1\n      pop\n        /* \"#utility.yul\":2037:2108   */\n      tag_135\n        /* \"#utility.yul\":2105:2106   */\n      0x00\n        /* \"#utility.yul\":2094:2103   */\n      dup4\n        /* \"#utility.yul\":2090:2107   */\n      add\n        /* \"#utility.yul\":2081:2087   */\n      dup5\n        /* \"#utility.yul\":2037:2108   */\n      tag_88\n      jump\t// in\n    tag_135:\n        /* \"#utility.yul\":1893:2115   */\n      swap3\n      swap2\n      pop\n      pop\n      jump\t// out\n        /* \"#utility.yul\":2121:2181   */\n    tag_89:\n        /* \"#utility.yul\":2149:2152   */\n      0x00\n        /* \"#utility.yul\":2170:2175   */\n      dup2\n        /* \"#utility.yul\":2163:2175   */\n      swap1\n      pop\n        /* \"#utility.yul\":2121:2181   */\n      swap2\n      swap1\n      pop\n      jump\t// out\n        /* \"#utility.yul\":2187:2329   */\n    tag_90:\n        /* \"#utility.yul\":2237:2246   */\n      0x00\n        /* \"#utility.yul\":2270:2323   */\n      tag_138\n        /* \"#utility.yul\":2288:2322   */\n      tag_139\n        /* \"#utility.yul\":2297:2321   */\n      tag_140\n        /* \"#utility.yul\":2315:2320   */\n      dup5\n        /* \"#utility.yul\":2297:2321   */\n      tag_83\n      jump\t// in\n    tag_140:\n        /* \"#utility.yul\":2288:2322   */\n      tag_89\n      jump\t// in\n    tag_139:\n        /* \"#utility.yul\":2270:2323   */\n      tag_83\n      jump\t// in\n    tag_138:\n        /* \"#utility.yul\":2257:2323   */\n      swap1\n      pop\n        /* \"#utility.yul\":2187:2329   */\n      swap2\n      swap1\n      pop\n      jump\t// out\n        /* \"#utility.yul\":2335:2461   */\n    tag_91:\n        /* \"#utility.yul\":2385:2394   */\n      0x00\n        /* \"#utility.yul\":2418:2455   */\n      tag_142\n        /* \"#utility.yul\":2449:2454   */\n      dup3\n        /* \"#utility.yul\":2418:2455   */\n      tag_90\n      jump\t// in\n    tag_142:\n        /* \"#utility.yul\":2405:2455   */\n      swap1\n      pop\n        /* \"#utility.yul\":2335:2461   */\n      swap2\n      swap1\n      pop\n      jump\t// out\n        /* \"#utility.yul\":2467:2606   */\n    tag_92:\n        /* \"#utility.yul\":2530:2539   */\n      0x00\n        /* \"#utility.yul\":2563:2600   */\n      tag_144\n        /* \"#utility.yul\":2594:2599   */\n      dup3\n        /* \"#utility.yul\":2563:2600   */\n      tag_91\n      jump\t// in\n    tag_144:\n        /* \"#utility.yul\":2550:2600   */\n      swap1\n      pop\n        /* \"#utility.yul\":2467:2606   */\n      swap2\n      swap1\n      pop\n      jump\t// out\n        /* \"#utility.yul\":2612:2769   */\n    tag_93:\n        /* \"#utility.yul\":2712:2762   */\n      tag_146\n        /* \"#utility.yul\":2756:2761   */\n      dup2\n        /* \"#utility.yul\":2712:2762   */\n      tag_92\n      jump\t// in\n    tag_146:\n        /* \"#utility.yul\":2707:2710   */\n      dup3\n        /* \"#utility.yul\":2700:2763   */\n      mstore\n        /* \"#utility.yul\":2612:2769   */\n      pop\n      pop\n      jump\t// out\n        /* \"#utility.yul\":2775:3023   */\n    tag_39:\n        /* \"#utility.yul\":2881:2885   */\n      0x00\n        /* \"#utility.yul\":2919:2921   */\n      0x20\n        /* \"#utility.yul\":2908:2917   */\n      dup3\n        /* \"#utility.yul\":2904:2922   */\n      add\n        /* \"#utility.yul\":2896:2922   */\n      swap1\n      pop\n        /* \"#utility.yul\":2932:3016   */\n      tag_148\n        /* \"#utility.yul\":3013:3014   */\n      0x00\n        /* \"#utility.yul\":3002:3011   */\n      dup4\n        /* \"#utility.yul\":2998:3015   */\n      add\n        /* \"#utility.yul\":2989:2995   */\n      dup5\n        /* \"#utility.yul\":2932:3016   */\n      tag_93\n      jump\t// in\n    tag_148:\n        /* \"#utility.yul\":2775:3023   */\n      swap3\n      swap2\n      pop\n      pop\n      jump\t// out\n        /* \"#utility.yul\":3029:3198   */\n    tag_94:\n        /* \"#utility.yul\":3113:3124   */\n      0x00\n        /* \"#utility.yul\":3147:3153   */\n      dup3\n        /* \"#utility.yul\":3142:3145   */\n      dup3\n        /* \"#utility.yul\":3135:3154   */\n      mstore\n        /* \"#utility.yul\":3187:3191   */\n      0x20\n        /* \"#utility.yul\":3182:3185   */\n      dup3\n        /* \"#utility.yul\":3178:3192   */\n      add\n        /* \"#utility.yul\":3163:3192   */\n      swap1\n      pop\n        /* \"#utility.yul\":3029:3198   */\n      swap3\n      swap2\n      pop\n      pop\n      jump\t// out\n        /* \"#utility.yul\":3204:3363   */\n    tag_95:\n        /* \"#utility.yul\":3344:3355   */\n      0x4e6f74206f776e65720000000000000000000000000000000000000000000000\n        /* \"#utility.yul\":3340:3341   */\n      0x00\n        /* \"#utility.yul\":3332:3338   */\n      dup3\n        /* \"#utility.yul\":3328:3342   */\n      add\n        /* \"#utility.yul\":3321:3356   */\n      mstore\n        /* \"#utility.yul\":3204:3363   */\n      pop\n      jump\t// out\n        /* \"#utility.yul\":3369:3734   */\n    tag_96:\n        /* \"#utility.yul\":3511:3514   */\n      0x00\n        /* \"#utility.yul\":3532:3598   */\n      tag_152\n        /* \"#utility.yul\":3596:3597   */\n      0x09\n        /* \"#utility.yul\":3591:3594   */\n      dup4\n        /* \"#utility.yul\":3532:3598   */\n      tag_94\n      jump\t// in\n    tag_152:\n        /* \"#utility.yul\":3525:3598   */\n      swap2\n      pop\n        /* \"#utility.yul\":3607:3700   */\n      tag_153\n        /* \"#utility.yul\":3696:3699   */\n      dup3\n        /* \"#utility.yul\":3607:3700   */\n      tag_95\n      jump\t// in\n    tag_153:\n        /* \"#utility.yul\":3725:3727   */\n      0x20\n        /* \"#utility.yul\":3720:3723   */\n      dup3\n        /* \"#utility.yul\":3716:3728   */\n      add\n        /* \"#utility.yul\":3709:3728   */\n      swap1\n      pop\n        /* \"#utility.yul\":3369:3734   */\n      swap2\n      swap1\n      pop\n      jump\t// out\n        /* \"#utility.yul\":3740:4159   */\n    tag_43:\n        /* \"#utility.yul\":3906:3910   */\n      0x00\n        /* \"#utility.yul\":3944:3946   */\n      0x20\n        /* \"#utility.yul\":3933:3942   */\n      dup3\n        /* \"#utility.yul\":3929:3947   */\n      add\n        /* \"#utility.yul\":3921:3947   */\n      swap1\n      pop\n        /* \"#utility.yul\":3993:4002   */\n      dup2\n        /* \"#utility.yul\":3987:3991   */\n      dup2\n        /* \"#utility.yul\":3983:4003   */\n      sub\n        /* \"#utility.yul\":3979:3980   */\n      0x00\n        /* \"#utility.yul\":3968:3977   */\n      dup4\n        /* \"#utility.yul\":3964:3981   */\n      add\n        /* \"#utility.yul\":3957:4004   */\n      mstore\n        /* \"#utility.yul\":4021:4152   */\n      tag_155\n        /* \"#utility.yul\":4147:4151   */\n      dup2\n        /* \"#utility.yul\":4021:4152   */\n      tag_96\n      jump\t// in\n    tag_155:\n        /* \"#utility.yul\":4013:4152   */\n      swap1\n      pop\n        /* \"#utility.yul\":3740:4159   */\n      swap2\n      swap1\n      pop\n      jump\t// out\n        /* \"#utility.yul\":4165:4333   */\n    tag_97:\n        /* \"#utility.yul\":4305:4325   */\n      0x4e6f2045544820746f2077697468647261770000000000000000000000000000\n        /* \"#utility.yul\":4301:4302   */\n      0x00\n        /* \"#utility.yul\":4293:4299   */\n      dup3\n        /* \"#utility.yul\":4289:4303   */\n      add\n        /* \"#utility.yul\":4282:4326   */\n      mstore\n        /* \"#utility.yul\":4165:4333   */\n      pop\n      jump\t// out\n        /* \"#utility.yul\":4339:4705   */\n    tag_98:\n        /* \"#utility.yul\":4481:4484   */\n      0x00\n        /* \"#utility.yul\":4502:4569   */\n      tag_158\n        /* \"#utility.yul\":4566:4568   */\n      0x12\n        /* \"#utility.yul\":4561:4564   */\n      dup4\n        /* \"#utility.yul\":4502:4569   */\n      tag_94\n      jump\t// in\n    tag_158:\n        /* \"#utility.yul\":4495:4569   */\n      swap2\n      pop\n        /* \"#utility.yul\":4578:4671   */\n      tag_159\n        /* \"#utility.yul\":4667:4670   */\n      dup3\n        /* \"#utility.yul\":4578:4671   */\n      tag_97\n      jump\t// in\n    tag_159:\n        /* \"#utility.yul\":4696:4698   */\n      0x20\n        /* \"#utility.yul\":4691:4694   */\n      dup3\n        /* \"#utility.yul\":4687:4699   */\n      add\n        /* \"#utility.yul\":4680:4699   */\n      swap1\n      pop\n        /* \"#utility.yul\":4339:4705   */\n      swap2\n      swap1\n      pop\n      jump\t// out\n        /* \"#utility.yul\":4711:5130   */\n    tag_47:\n        /* \"#utility.yul\":4877:4881   */\n      0x00\n        /* \"#utility.yul\":4915:4917   */\n      0x20\n        /* \"#utility.yul\":4904:4913   */\n      dup3\n        /* \"#utility.yul\":4900:4918   */\n      add\n        /* \"#utility.yul\":4892:4918   */\n      swap1\n      pop\n        /* \"#utility.yul\":4964:4973   */\n      dup2\n        /* \"#utility.yul\":4958:4962   */\n      dup2\n        /* \"#utility.yul\":4954:4974   */\n      sub\n        /* \"#utility.yul\":4950:4951   */\n      0x00\n        /* \"#utility.yul\":4939:4948   */\n      dup4\n        /* \"#utility.yul\":4935:4952   */\n      add\n        /* \"#utility.yul\":4928:4975   */\n      mstore\n        /* \"#utility.yul\":4992:5123   */\n      tag_161\n        /* \"#utility.yul\":5118:5122   */\n      dup2\n        /* \"#utility.yul\":4992:5123   */\n      tag_98\n      jump\t// in\n    tag_161:\n        /* \"#utility.yul\":4984:5123   */\n      swap1\n      pop\n        /* \"#utility.yul\":4711:5130   */\n      swap2\n      swap1\n      pop\n      jump\t// out\n        /* \"#utility.yul\":5136:5258   */\n    tag_99:\n        /* \"#utility.yul\":5209:5233   */\n      tag_163\n        /* \"#utility.yul\":5227:5232   */\n      dup2\n        /* \"#utility.yul\":5209:5233   */\n      tag_78\n      jump\t// in\n    tag_163:\n        /* \"#utility.yul\":5202:5207   */\n      dup2\n        /* \"#utility.yul\":5199:5234   */\n      eq\n        /* \"#utility.yul\":5189:5252   */\n      tag_164\n      jumpi\n        /* \"#utility.yul\":5248:5249   */\n      0x00\n        /* \"#utility.yul\":5245:5246   */\n      0x00\n        /* \"#utility.yul\":5238:5250   */\n      revert\n        /* \"#utility.yul\":5189:5252   */\n    tag_164:\n        /* \"#utility.yul\":5136:5258   */\n      pop\n      jump\t// out\n        /* \"#utility.yul\":5264:5407   */\n    tag_100:\n        /* \"#utility.yul\":5321:5326   */\n      0x00\n        /* \"#utility.yul\":5352:5358   */\n      dup2\n        /* \"#utility.yul\":5346:5359   */\n      mload\n        /* \"#utility.yul\":5337:5359   */\n      swap1\n      pop\n        /* \"#utility.yul\":5368:5401   */\n      tag_166\n        /* \"#utility.yul\":5395:5400   */\n      dup2\n        /* \"#utility.yul\":5368:5401   */\n      tag_99\n      jump\t// in\n    tag_166:\n        /* \"#utility.yul\":5264:5407   */\n      swap3\n      swap2\n      pop\n      pop\n      jump\t// out\n        /* \"#utility.yul\":5413:5764   */\n    tag_56:\n        /* \"#utility.yul\":5483:5489   */\n      0x00\n        /* \"#utility.yul\":5532:5534   */\n      0x20\n        /* \"#utility.yul\":5520:5529   */\n      dup3\n        /* \"#utility.yul\":5511:5518   */\n      dup5\n        /* \"#utility.yul\":5507:5530   */\n      sub\n        /* \"#utility.yul\":5503:5535   */\n      slt\n        /* \"#utility.yul\":5500:5619   */\n      iszero\n      tag_168\n      jumpi\n        /* \"#utility.yul\":5538:5617   */\n      tag_169\n      tag_81\n      jump\t// in\n    tag_169:\n        /* \"#utility.yul\":5500:5619   */\n    tag_168:\n        /* \"#utility.yul\":5658:5659   */\n      0x00\n        /* \"#utility.yul\":5683:5747   */\n      tag_170\n        /* \"#utility.yul\":5739:5746   */\n      dup5\n        /* \"#utility.yul\":5730:5736   */\n      dup3\n        /* \"#utility.yul\":5719:5728   */\n      dup6\n        /* \"#utility.yul\":5715:5737   */\n      add\n        /* \"#utility.yul\":5683:5747   */\n      tag_100\n      jump\t// in\n    tag_170:\n        /* \"#utility.yul\":5673:5747   */\n      swap2\n      pop\n        /* \"#utility.yul\":5629:5757   */\n      pop\n        /* \"#utility.yul\":5413:5764   */\n      swap3\n      swap2\n      pop\n      pop\n      jump\t// out\n        /* \"#utility.yul\":5770:5942   */\n    tag_101:\n        /* \"#utility.yul\":5910:5934   */\n      0x53656e642045544820746f2062757920746f6b656e7300000000000000000000\n        /* \"#utility.yul\":5906:5907   */\n      0x00\n        /* \"#utility.yul\":5898:5904   */\n      dup3\n        /* \"#utility.yul\":5894:5908   */\n      add\n        /* \"#utility.yul\":5887:5935   */\n      mstore\n        /* \"#utility.yul\":5770:5942   */\n      pop\n      jump\t// out\n        /* \"#utility.yul\":5948:6314   */\n    tag_102:\n        /* \"#utility.yul\":6090:6093   */\n      0x00\n        /* \"#utility.yul\":6111:6178   */\n      tag_173\n        /* \"#utility.yul\":6175:6177   */\n      0x16\n        /* \"#utility.yul\":6170:6173   */\n      dup4\n        /* \"#utility.yul\":6111:6178   */\n      tag_94\n      jump\t// in\n    tag_173:\n        /* \"#utility.yul\":6104:6178   */\n      swap2\n      pop\n        /* \"#utility.yul\":6187:6280   */\n      tag_174\n        /* \"#utility.yul\":6276:6279   */\n      dup3\n        /* \"#utility.yul\":6187:6280   */\n      tag_101\n      jump\t// in\n    tag_174:\n        /* \"#utility.yul\":6305:6307   */\n      0x20\n        /* \"#utility.yul\":6300:6303   */\n      dup3\n        /* \"#utility.yul\":6296:6308   */\n      add\n        /* \"#utility.yul\":6289:6308   */\n      swap1\n      pop\n        /* \"#utility.yul\":5948:6314   */\n      swap2\n      swap1\n      pop\n      jump\t// out\n        /* \"#utility.yul\":6320:6739   */\n    tag_61:\n        /* \"#utility.yul\":6486:6490   */\n      0x00\n        /* \"#utility.yul\":6524:6526   */\n      0x20\n        /* \"#utility.yul\":6513:6522   */\n      dup3\n        /* \"#utility.yul\":6509:6527   */\n      add\n        /* \"#utility.yul\":6501:6527   */\n      swap1\n      pop\n        /* \"#utility.yul\":6573:6582   */\n      dup2\n        /* \"#utility.yul\":6567:6571   */\n      dup2\n        /* \"#utility.yul\":6563:6583   */\n      sub\n        /* \"#utility.yul\":6559:6560   */\n      0x00\n        /* \"#utility.yul\":6548:6557   */\n      dup4\n        /* \"#utility.yul\":6544:6561   */\n      add\n        /* \"#utility.yul\":6537:6584   */\n      mstore\n        /* \"#utility.yul\":6601:6732   */\n      tag_176\n        /* \"#utility.yul\":6727:6731   */\n      dup2\n        /* \"#utility.yul\":6601:6732   */\n      tag_102\n      jump\t// in\n    tag_176:\n        /* \"#utility.yul\":6593:6732   */\n      swap1\n      pop\n        /* \"#utility.yul\":6320:6739   */\n      swap2\n      swap1\n      pop\n      jump\t// out\n        /* \"#utility.yul\":6745:6925   */\n    tag_103:\n        /* \"#utility.yul\":6793:6870   */\n      0x4e487b7100000000000000000000000000000000000000000000000000000000\n        /* \"#utility.yul\":6790:6791   */\n      0x00\n        /* \"#utility.yul\":6783:6871   */\n      mstore\n        /* \"#utility.yul\":6890:6894   */\n      0x11\n        /* \"#utility.yul\":6887:6888   */\n      0x04\n        /* \"#utility.yul\":6880:6895   */\n      mstore\n        /* \"#utility.yul\":6914:6918   */\n      0x24\n        /* \"#utility.yul\":6911:6912   */\n      0x00\n        /* \"#utility.yul\":6904:6919   */\n      revert\n        /* \"#utility.yul\":6931:7341   */\n    tag_63:\n        /* \"#utility.yul\":6971:6978   */\n      0x00\n        /* \"#utility.yul\":6994:7014   */\n      tag_179\n        /* \"#utility.yul\":7012:7013   */\n      dup3\n        /* \"#utility.yul\":6994:7014   */\n      tag_78\n      jump\t// in\n    tag_179:\n        /* \"#utility.yul\":6989:7014   */\n      swap2\n      pop\n        /* \"#utility.yul\":7028:7048   */\n      tag_180\n        /* \"#utility.yul\":7046:7047   */\n      dup4\n        /* \"#utility.yul\":7028:7048   */\n      tag_78\n      jump\t// in\n    tag_180:\n        /* \"#utility.yul\":7023:7048   */\n      swap3\n      pop\n        /* \"#utility.yul\":7083:7084   */\n      dup3\n        /* \"#utility.yul\":7080:7081   */\n      dup3\n        /* \"#utility.yul\":7076:7085   */\n      mul\n        /* \"#utility.yul\":7105:7135   */\n      tag_181\n        /* \"#utility.yul\":7123:7134   */\n      dup2\n        /* \"#utility.yul\":7105:7135   */\n      tag_78\n      jump\t// in\n    tag_181:\n        /* \"#utility.yul\":7094:7135   */\n      swap2\n      pop\n        /* \"#utility.yul\":7284:7285   */\n      dup3\n        /* \"#utility.yul\":7275:7282   */\n      dup3\n        /* \"#utility.yul\":7271:7286   */\n      div\n        /* \"#utility.yul\":7268:7269   */\n      dup5\n        /* \"#utility.yul\":7265:7287   */\n      eq\n        /* \"#utility.yul\":7245:7246   */\n      dup4\n        /* \"#utility.yul\":7238:7247   */\n      iszero\n        /* \"#utility.yul\":7218:7301   */\n      or\n        /* \"#utility.yul\":7195:7334   */\n      tag_182\n      jumpi\n        /* \"#utility.yul\":7314:7332   */\n      tag_183\n      tag_103\n      jump\t// in\n    tag_183:\n        /* \"#utility.yul\":7195:7334   */\n    tag_182:\n        /* \"#utility.yul\":6979:7341   */\n      pop\n        /* \"#utility.yul\":6931:7341   */\n      swap3\n      swap2\n      pop\n      pop\n      jump\t// out\n        /* \"#utility.yul\":7347:7526   */\n    tag_104:\n        /* \"#utility.yul\":7487:7518   */\n      0x4e6f7420656e6f75676820746f6b656e7320696e20636f6e7472616374000000\n        /* \"#utility.yul\":7483:7484   */\n      0x00\n        /* \"#utility.yul\":7475:7481   */\n      dup3\n        /* \"#utility.yul\":7471:7485   */\n      add\n        /* \"#utility.yul\":7464:7519   */\n      mstore\n        /* \"#utility.yul\":7347:7526   */\n      pop\n      jump\t// out\n        /* \"#utility.yul\":7532:7898   */\n    tag_105:\n        /* \"#utility.yul\":7674:7677   */\n      0x00\n        /* \"#utility.yul\":7695:7762   */\n      tag_186\n        /* \"#utility.yul\":7759:7761   */\n      0x1d\n        /* \"#utility.yul\":7754:7757   */\n      dup4\n        /* \"#utility.yul\":7695:7762   */\n      tag_94\n      jump\t// in\n    tag_186:\n        /* \"#utility.yul\":7688:7762   */\n      swap2\n      pop\n        /* \"#utility.yul\":7771:7864   */\n      tag_187\n        /* \"#utility.yul\":7860:7863   */\n      dup3\n        /* \"#utility.yul\":7771:7864   */\n      tag_104\n      jump\t// in\n    tag_187:\n        /* \"#utility.yul\":7889:7891   */\n      0x20\n        /* \"#utility.yul\":7884:7887   */\n      dup3\n        /* \"#utility.yul\":7880:7892   */\n      add\n        /* \"#utility.yul\":7873:7892   */\n      swap1\n      pop\n        /* \"#utility.yul\":7532:7898   */\n      swap2\n      swap1\n      pop\n      jump\t// out\n        /* \"#utility.yul\":7904:8323   */\n    tag_70:\n        /* \"#utility.yul\":8070:8074   */\n      0x00\n        /* \"#utility.yul\":8108:8110   */\n      0x20\n        /* \"#utility.yul\":8097:8106   */\n      dup3\n        /* \"#utility.yul\":8093:8111   */\n      add\n        /* \"#utility.yul\":8085:8111   */\n      swap1\n      pop\n        /* \"#utility.yul\":8157:8166   */\n      dup2\n        /* \"#utility.yul\":8151:8155   */\n      dup2\n        /* \"#utility.yul\":8147:8167   */\n      sub\n        /* \"#utility.yul\":8143:8144   */\n      0x00\n        /* \"#utility.yul\":8132:8141   */\n      dup4\n        /* \"#utility.yul\":8128:8145   */\n      add\n        /* \"#utility.yul\":8121:8168   */\n      mstore\n        /* \"#utility.yul\":8185:8316   */\n      tag_189\n        /* \"#utility.yul\":8311:8315   */\n      dup2\n        /* \"#utility.yul\":8185:8316   */\n      tag_105\n      jump\t// in\n    tag_189:\n        /* \"#utility.yul\":8177:8316   */\n      swap1\n      pop\n        /* \"#utility.yul\":7904:8323   */\n      swap2\n      swap1\n      pop\n      jump\t// out\n        /* \"#utility.yul\":8329:8661   */\n    tag_72:\n        /* \"#utility.yul\":8450:8454   */\n      0x00\n        /* \"#utility.yul\":8488:8490   */\n      0x40\n        /* \"#utility.yul\":8477:8486   */\n      dup3\n        /* \"#utility.yul\":8473:8491   */\n      add\n        /* \"#utility.yul\":8465:8491   */\n      swap1\n      pop\n        /* \"#utility.yul\":8501:8572   */\n      tag_191\n        /* \"#utility.yul\":8569:8570   */\n      0x00\n        /* \"#utility.yul\":8558:8567   */\n      dup4\n        /* \"#utility.yul\":8554:8571   */\n      add\n        /* \"#utility.yul\":8545:8551   */\n      dup6\n        /* \"#utility.yul\":8501:8572   */\n      tag_88\n      jump\t// in\n    tag_191:\n        /* \"#utility.yul\":8582:8654   */\n      tag_192\n        /* \"#utility.yul\":8650:8652   */\n      0x20\n        /* \"#utility.yul\":8639:8648   */\n      dup4\n        /* \"#utility.yul\":8635:8653   */\n      add\n        /* \"#utility.yul\":8626:8632   */\n      dup5\n        /* \"#utility.yul\":8582:8654   */\n      tag_79\n      jump\t// in\n    tag_192:\n        /* \"#utility.yul\":8329:8661   */\n      swap4\n      swap3\n      pop\n      pop\n      pop\n      jump\t// out\n        /* \"#utility.yul\":8667:8757   */\n    tag_106:\n        /* \"#utility.yul\":8701:8708   */\n      0x00\n        /* \"#utility.yul\":8744:8749   */\n      dup2\n        /* \"#utility.yul\":8737:8750   */\n      iszero\n        /* \"#utility.yul\":8730:8751   */\n      iszero\n        /* \"#utility.yul\":8719:8751   */\n      swap1\n      pop\n        /* \"#utility.yul\":8667:8757   */\n      swap2\n      swap1\n      pop\n      jump\t// out\n        /* \"#utility.yul\":8763:8879   */\n    tag_107:\n        /* \"#utility.yul\":8833:8854   */\n      tag_195\n        /* \"#utility.yul\":8848:8853   */\n      dup2\n        /* \"#utility.yul\":8833:8854   */\n      tag_106\n      jump\t// in\n    tag_195:\n        /* \"#utility.yul\":8826:8831   */\n      dup2\n        /* \"#utility.yul\":8823:8855   */\n      eq\n        /* \"#utility.yul\":8813:8873   */\n      tag_196\n      jumpi\n        /* \"#utility.yul\":8869:8870   */\n      0x00\n        /* \"#utility.yul\":8866:8867   */\n      0x00\n        /* \"#utility.yul\":8859:8871   */\n      revert\n        /* \"#utility.yul\":8813:8873   */\n    tag_196:\n        /* \"#utility.yul\":8763:8879   */\n      pop\n      jump\t// out\n        /* \"#utility.yul\":8885:9022   */\n    tag_108:\n        /* \"#utility.yul\":8939:8944   */\n      0x00\n        /* \"#utility.yul\":8970:8976   */\n      dup2\n        /* \"#utility.yul\":8964:8977   */\n      mload\n        /* \"#utility.yul\":8955:8977   */\n      swap1\n      pop\n        /* \"#utility.yul\":8986:9016   */\n      tag_198\n        /* \"#utility.yul\":9010:9015   */\n      dup2\n        /* \"#utility.yul\":8986:9016   */\n      tag_107\n      jump\t// in\n    tag_198:\n        /* \"#utility.yul\":8885:9022   */\n      swap3\n      swap2\n      pop\n      pop\n      jump\t// out\n        /* \"#utility.yul\":9028:9373   */\n    tag_76:\n        /* \"#utility.yul\":9095:9101   */\n      0x00\n        /* \"#utility.yul\":9144:9146   */\n      0x20\n        /* \"#utility.yul\":9132:9141   */\n      dup3\n        /* \"#utility.yul\":9123:9130   */\n      dup5\n        /* \"#utility.yul\":9119:9142   */\n      sub\n        /* \"#utility.yul\":9115:9147   */\n      slt\n        /* \"#utility.yul\":9112:9231   */\n      iszero\n      tag_200\n      jumpi\n        /* \"#utility.yul\":9150:9229   */\n      tag_201\n      tag_81\n      jump\t// in\n    tag_201:\n        /* \"#utility.yul\":9112:9231   */\n    tag_200:\n        /* \"#utility.yul\":9270:9271   */\n      0x00\n        /* \"#utility.yul\":9295:9356   */\n      tag_202\n        /* \"#utility.yul\":9348:9355   */\n      dup5\n        /* \"#utility.yul\":9339:9345   */\n      dup3\n        /* \"#utility.yul\":9328:9337   */\n      dup6\n        /* \"#utility.yul\":9324:9346   */\n      add\n        /* \"#utility.yul\":9295:9356   */\n      tag_108\n      jump\t// in\n    tag_202:\n        /* \"#utility.yul\":9285:9356   */\n      swap2\n      pop\n        /* \"#utility.yul\":9241:9366   */\n      pop\n        /* \"#utility.yul\":9028:9373   */\n      swap3\n      swap2\n      pop\n      pop\n      jump\t// out\n\n    auxdata: 0xa2646970667358221220f1b5e73ea751cb0d69a0373a6841434c1b47965dbb1cde5e4e7d370813abd91864736f6c634300081e0033\n}\n",
				"bytecode": {
					"linkReferences": {},
					"object": "60806040526103e8600255348015610015575f5ffd5b50604051610be0380380610be08339818101604052810190610037919061011a565b335f5f6101000a81548173ffffffffffffffffffffffffffffffffffffffff021916908373ffffffffffffffffffffffffffffffffffffffff1602179055508060015f6101000a81548173ffffffffffffffffffffffffffffffffffffffff021916908373ffffffffffffffffffffffffffffffffffffffff16021790555050610145565b5f5ffd5b5f73ffffffffffffffffffffffffffffffffffffffff82169050919050565b5f6100e9826100c0565b9050919050565b6100f9816100df565b8114610103575f5ffd5b50565b5f81519050610114816100f0565b92915050565b5f6020828403121561012f5761012e6100bc565b5b5f61013c84828501610106565b91505092915050565b610a8e806101525f395ff3fe60806040526004361061006f575f3560e01c80638c89a0ad1161004d5780638c89a0ad146100ef5780638da5cb5b14610119578063d0febe4c14610143578063fc0c546a1461014d5761006f565b80632c4e722e1461007357806368742da61461009d57806382b2e257146100c5575b5f5ffd5b34801561007e575f5ffd5b50610087610177565b604051610094919061060f565b60405180910390f35b3480156100a8575f5ffd5b506100c360048036038101906100be9190610686565b61017d565b005b3480156100d0575f5ffd5b506100d96102e7565b6040516100e6919061060f565b60405180910390f35b3480156100fa575f5ffd5b50610103610386565b604051610110919061060f565b60405180910390f35b348015610124575f5ffd5b5061012d61038d565b60405161013a91906106d1565b60405180910390f35b61014b6103b1565b005b348015610158575f5ffd5b506101616105d2565b60405161016e9190610745565b60405180910390f35b60025481565b5f5f9054906101000a900473ffffffffffffffffffffffffffffffffffffffff1673ffffffffffffffffffffffffffffffffffffffff163373ffffffffffffffffffffffffffffffffffffffff161461020b576040517f08c379a0000000000000000000000000000000000000000000000000000000008152600401610202906107b8565b60405180910390fd5b5f4790505f8111610251576040517f08c379a000000000000000000000000000000000000000000000000000000000815260040161024890610820565b60405180910390fd5b8173ffffffffffffffffffffffffffffffffffffffff166108fc8290811502906040515f60405180830381858888f19350505050158015610294573d5f5f3e3d5ffd5b508173ffffffffffffffffffffffffffffffffffffffff167f7084f5476618d8e60b11ef0d7d3f06914655adb8793e28ff7f018d4c76d505d5826040516102db919061060f565b60405180910390a25050565b5f60015f9054906101000a900473ffffffffffffffffffffffffffffffffffffffff1673ffffffffffffffffffffffffffffffffffffffff166370a08231306040518263ffffffff1660e01b815260040161034291906106d1565b602060405180830381865afa15801561035d573d5f5f3e3d5ffd5b505050506040513d601f19601f820116820180604052508101906103819190610868565b905090565b5f47905090565b5f5f9054906101000a900473ffffffffffffffffffffffffffffffffffffffff1681565b5f34116103f3576040517f08c379a00000000000000000000000000000000000000000000000000000000081526004016103ea906108dd565b60405180910390fd5b5f600254346104029190610928565b90505f60015f9054906101000a900473ffffffffffffffffffffffffffffffffffffffff1673ffffffffffffffffffffffffffffffffffffffff166370a08231306040518263ffffffff1660e01b815260040161045f91906106d1565b602060405180830381865afa15801561047a573d5f5f3e3d5ffd5b505050506040513d601f19601f8201168201806040525081019061049e9190610868565b9050818110156104e3576040517f08c379a00000000000000000000000000000000000000000000000000000000081526004016104da906109b3565b60405180910390fd5b60015f9054906101000a900473ffffffffffffffffffffffffffffffffffffffff1673ffffffffffffffffffffffffffffffffffffffff1663a9059cbb33846040518363ffffffff1660e01b815260040161053f9291906109d1565b6020604051808303815f875af115801561055b573d5f5f3e3d5ffd5b505050506040513d601f19601f8201168201806040525081019061057f9190610a2d565b503373ffffffffffffffffffffffffffffffffffffffff167f8f28852646c20cc973d3a8218f7eefed58c25c909f78f0265af4818c3d4dc271836040516105c6919061060f565b60405180910390a25050565b60015f9054906101000a900473ffffffffffffffffffffffffffffffffffffffff1681565b5f819050919050565b610609816105f7565b82525050565b5f6020820190506106225f830184610600565b92915050565b5f5ffd5b5f73ffffffffffffffffffffffffffffffffffffffff82169050919050565b5f6106558261062c565b9050919050565b6106658161064b565b811461066f575f5ffd5b50565b5f813590506106808161065c565b92915050565b5f6020828403121561069b5761069a610628565b5b5f6106a884828501610672565b91505092915050565b5f6106bb8261062c565b9050919050565b6106cb816106b1565b82525050565b5f6020820190506106e45f8301846106c2565b92915050565b5f819050919050565b5f61070d6107086107038461062c565b6106ea565b61062c565b9050919050565b5f61071e826106f3565b9050919050565b5f61072f82610714565b9050919050565b61073f81610725565b82525050565b5f6020820190506107585f830184610736565b92915050565b5f82825260208201905092915050565b7f4e6f74206f776e657200000000000000000000000000000000000000000000005f82015250565b5f6107a260098361075e565b91506107ad8261076e565b602082019050919050565b5f6020820190508181035f8301526107cf81610796565b9050919050565b7f4e6f2045544820746f20776974686472617700000000000000000000000000005f82015250565b5f61080a60128361075e565b9150610815826107d6565b602082019050919050565b5f6020820190508181035f830152610837816107fe565b9050919050565b610847816105f7565b8114610851575f5ffd5b50565b5f815190506108628161083e565b92915050565b5f6020828403121561087d5761087c610628565b5b5f61088a84828501610854565b91505092915050565b7f53656e642045544820746f2062757920746f6b656e73000000000000000000005f82015250565b5f6108c760168361075e565b91506108d282610893565b602082019050919050565b5f6020820190508181035f8301526108f4816108bb565b9050919050565b7f4e487b71000000000000000000000000000000000000000000000000000000005f52601160045260245ffd5b5f610932826105f7565b915061093d836105f7565b925082820261094b816105f7565b91508282048414831517610962576109616108fb565b5b5092915050565b7f4e6f7420656e6f75676820746f6b656e7320696e20636f6e74726163740000005f82015250565b5f61099d601d8361075e565b91506109a882610969565b602082019050919050565b5f6020820190508181035f8301526109ca81610991565b9050919050565b5f6040820190506109e45f8301856106c2565b6109f16020830184610600565b9392505050565b5f8115159050919050565b610a0c816109f8565b8114610a16575f5ffd5b50565b5f81519050610a2781610a03565b92915050565b5f60208284031215610a4257610a41610628565b5b5f610a4f84828501610a19565b9150509291505056fea2646970667358221220f1b5e73ea751cb0d69a0373a6841434c1b47965dbb1cde5e4e7d370813abd91864736f6c634300081e0033",
					"opcodes": "PUSH1 0x80 PUSH1 0x40 MSTORE PUSH2 0x3E8 PUSH1 0x2 SSTORE CALLVALUE DUP1 ISZERO PUSH2 0x15 JUMPI PUSH0 PUSH0 REVERT JUMPDEST POP PUSH1 0x40 MLOAD PUSH2 0xBE0 CODESIZE SUB DUP1 PUSH2 0xBE0 DUP4 CODECOPY DUP2 DUP2 ADD PUSH1 0x40 MSTORE DUP2 ADD SWAP1 PUSH2 0x37 SWAP2 SWAP1 PUSH2 0x11A JUMP JUMPDEST CALLER PUSH0 PUSH0 PUSH2 0x100 EXP DUP2 SLOAD DUP2 PUSH20 0xFFFFFFFFFFFFFFFFFFFFFFFFFFFFFFFFFFFFFFFF MUL NOT AND SWAP1 DUP4 PUSH20 0xFFFFFFFFFFFFFFFFFFFFFFFFFFFFFFFFFFFFFFFF AND MUL OR SWAP1 SSTORE POP DUP1 PUSH1 0x1 PUSH0 PUSH2 0x100 EXP DUP2 SLOAD DUP2 PUSH20 0xFFFFFFFFFFFFFFFFFFFFFFFFFFFFFFFFFFFFFFFF MUL NOT AND SWAP1 DUP4 PUSH20 0xFFFFFFFFFFFFFFFFFFFFFFFFFFFFFFFFFFFFFFFF AND MUL OR SWAP1 SSTORE POP POP PUSH2 0x145 JUMP JUMPDEST PUSH0 PUSH0 REVERT JUMPDEST PUSH0 PUSH20 0xFFFFFFFFFFFFFFFFFFFFFFFFFFFFFFFFFFFFFFFF DUP3 AND SWAP1 POP SWAP2 SWAP1 POP JUMP JUMPDEST PUSH0 PUSH2 0xE9 DUP3 PUSH2 0xC0 JUMP JUMPDEST SWAP1 POP SWAP2 SWAP1 POP JUMP JUMPDEST PUSH2 0xF9 DUP2 PUSH2 0xDF JUMP JUMPDEST DUP2 EQ PUSH2 0x103 JUMPI PUSH0 PUSH0 REVERT JUMPDEST POP JUMP JUMPDEST PUSH0 DUP2 MLOAD SWAP1 POP PUSH2 0x114 DUP2 PUSH2 0xF0 JUMP JUMPDEST SWAP3 SWAP2 POP POP JUMP JUMPDEST PUSH0 PUSH1 0x20 DUP3 DUP5 SUB SLT ISZERO PUSH2 0x12F JUMPI PUSH2 0x12E PUSH2 0xBC JUMP JUMPDEST JUMPDEST PUSH0 PUSH2 0x13C DUP5 DUP3 DUP6 ADD PUSH2 0x106 JUMP JUMPDEST SWAP2 POP POP SWAP3 SWAP2 POP POP JUMP JUMPDEST PUSH2 0xA8E DUP1 PUSH2 0x152 PUSH0 CODECOPY PUSH0 RETURN INVALID PUSH1 0x80 PUSH1 0x40 MSTORE PUSH1 0x4 CALLDATASIZE LT PUSH2 0x6F JUMPI PUSH0 CALLDATALOAD PUSH1 0xE0 SHR DUP1 PUSH4 0x8C89A0AD GT PUSH2 0x4D JUMPI DUP1 PUSH4 0x8C89A0AD EQ PUSH2 0xEF JUMPI DUP1 PUSH4 0x8DA5CB5B EQ PUSH2 0x119 JUMPI DUP1 PUSH4 0xD0FEBE4C EQ PUSH2 0x143 JUMPI DUP1 PUSH4 0xFC0C546A EQ PUSH2 0x14D JUMPI PUSH2 0x6F JUMP JUMPDEST DUP1 PUSH4 0x2C4E722E EQ PUSH2 0x73 JUMPI DUP1 PUSH4 0x68742DA6 EQ PUSH2 0x9D JUMPI DUP1 PUSH4 0x82B2E257 EQ PUSH2 0xC5 JUMPI JUMPDEST PUSH0 PUSH0 REVERT JUMPDEST CALLVALUE DUP1 ISZERO PUSH2 0x7E JUMPI PUSH0 PUSH0 REVERT JUMPDEST POP PUSH2 0x87 PUSH2 0x177 JUMP JUMPDEST PUSH1 0x40 MLOAD PUSH2 0x94 SWAP2 SWAP1 PUSH2 0x60F JUMP JUMPDEST PUSH1 0x40 MLOAD DUP1 SWAP2 SUB SWAP1 RETURN JUMPDEST CALLVALUE DUP1 ISZERO PUSH2 0xA8 JUMPI PUSH0 PUSH0 REVERT JUMPDEST POP PUSH2 0xC3 PUSH1 0x4 DUP1 CALLDATASIZE SUB DUP2 ADD SWAP1 PUSH2 0xBE SWAP2 SWAP1 PUSH2 0x686 JUMP JUMPDEST PUSH2 0x17D JUMP JUMPDEST STOP JUMPDEST CALLVALUE DUP1 ISZERO PUSH2 0xD0 JUMPI PUSH0 PUSH0 REVERT JUMPDEST POP PUSH2 0xD9 PUSH2 0x2E7 JUMP JUMPDEST PUSH1 0x40 MLOAD PUSH2 0xE6 SWAP2 SWAP1 PUSH2 0x60F JUMP JUMPDEST PUSH1 0x40 MLOAD DUP1 SWAP2 SUB SWAP1 RETURN JUMPDEST CALLVALUE DUP1 ISZERO PUSH2 0xFA JUMPI PUSH0 PUSH0 REVERT JUMPDEST POP PUSH2 0x103 PUSH2 0x386 JUMP JUMPDEST PUSH1 0x40 MLOAD PUSH2 0x110 SWAP2 SWAP1 PUSH2 0x60F JUMP JUMPDEST PUSH1 0x40 MLOAD DUP1 SWAP2 SUB SWAP1 RETURN JUMPDEST CALLVALUE DUP1 ISZERO PUSH2 0x124 JUMPI PUSH0 PUSH0 REVERT JUMPDEST POP PUSH2 0x12D PUSH2 0x38D JUMP JUMPDEST PUSH1 0x40 MLOAD PUSH2 0x13A SWAP2 SWAP1 PUSH2 0x6D1 JUMP JUMPDEST PUSH1 0x40 MLOAD DUP1 SWAP2 SUB SWAP1 RETURN JUMPDEST PUSH2 0x14B PUSH2 0x3B1 JUMP JUMPDEST STOP JUMPDEST CALLVALUE DUP1 ISZERO PUSH2 0x158 JUMPI PUSH0 PUSH0 REVERT JUMPDEST POP PUSH2 0x161 PUSH2 0x5D2 JUMP JUMPDEST PUSH1 0x40 MLOAD PUSH2 0x16E SWAP2 SWAP1 PUSH2 0x745 JUMP JUMPDEST PUSH1 0x40 MLOAD DUP1 SWAP2 SUB SWAP1 RETURN JUMPDEST PUSH1 0x2 SLOAD DUP2 JUMP JUMPDEST PUSH0 PUSH0 SWAP1 SLOAD SWAP1 PUSH2 0x100 EXP SWAP1 DIV PUSH20 0xFFFFFFFFFFFFFFFFFFFFFFFFFFFFFFFFFFFFFFFF AND PUSH20 0xFFFFFFFFFFFFFFFFFFFFFFFFFFFFFFFFFFFFFFFF AND CALLER PUSH20 0xFFFFFFFFFFFFFFFFFFFFFFFFFFFFFFFFFFFFFFFF AND EQ PUSH2 0x20B JUMPI PUSH1 0x40 MLOAD PUSH32 0x8C379A000000000000000000000000000000000000000000000000000000000 DUP2 MSTORE PUSH1 0x4 ADD PUSH2 0x202 SWAP1 PUSH2 0x7B8 JUMP JUMPDEST PUSH1 0x40 MLOAD DUP1 SWAP2 SUB SWAP1 REVERT JUMPDEST PUSH0 SELFBALANCE SWAP1 POP PUSH0 DUP2 GT PUSH2 0x251 JUMPI PUSH1 0x40 MLOAD PUSH32 0x8C379A000000000000000000000000000000000000000000000000000000000 DUP2 MSTORE PUSH1 0x4 ADD PUSH2 0x248 SWAP1 PUSH2 0x820 JUMP JUMPDEST PUSH1 0x40 MLOAD DUP1 SWAP2 SUB SWAP1 REVERT JUMPDEST DUP2 PUSH20 0xFFFFFFFFFFFFFFFFFFFFFFFFFFFFFFFFFFFFFFFF AND PUSH2 0x8FC DUP3 SWAP1 DUP2 ISZERO MUL SWAP1 PUSH1 0x40 MLOAD PUSH0 PUSH1 0x40 MLOAD DUP1 DUP4 SUB DUP2 DUP6 DUP9 DUP9 CALL SWAP4 POP POP POP POP ISZERO DUP1 ISZERO PUSH2 0x294 JUMPI RETURNDATASIZE PUSH0 PUSH0 RETURNDATACOPY RETURNDATASIZE PUSH0 REVERT JUMPDEST POP DUP2 PUSH20 0xFFFFFFFFFFFFFFFFFFFFFFFFFFFFFFFFFFFFFFFF AND PUSH32 0x7084F5476618D8E60B11EF0D7D3F06914655ADB8793E28FF7F018D4C76D505D5 DUP3 PUSH1 0x40 MLOAD PUSH2 0x2DB SWAP2 SWAP1 PUSH2 0x60F JUMP JUMPDEST PUSH1 0x40 MLOAD DUP1 SWAP2 SUB SWAP1 LOG2 POP POP JUMP JUMPDEST PUSH0 PUSH1 0x1 PUSH0 SWAP1 SLOAD SWAP1 PUSH2 0x100 EXP SWAP1 DIV PUSH20 0xFFFFFFFFFFFFFFFFFFFFFFFFFFFFFFFFFFFFFFFF AND PUSH20 0xFFFFFFFFFFFFFFFFFFFFFFFFFFFFFFFFFFFFFFFF AND PUSH4 0x70A08231 ADDRESS PUSH1 0x40 MLOAD DUP3 PUSH4 0xFFFFFFFF AND PUSH1 0xE0 SHL DUP2 MSTORE PUSH1 0x4 ADD PUSH2 0x342 SWAP2 SWAP1 PUSH2 0x6D1 JUMP JUMPDEST PUSH1 0x20 PUSH1 0x40 MLOAD DUP1 DUP4 SUB DUP2 DUP7 GAS STATICCALL ISZERO DUP1 ISZERO PUSH2 0x35D JUMPI RETURNDATASIZE PUSH0 PUSH0 RETURNDATACOPY RETURNDATASIZE PUSH0 REVERT JUMPDEST POP POP POP POP PUSH1 0x40 MLOAD RETURNDATASIZE PUSH1 0x1F NOT PUSH1 0x1F DUP3 ADD AND DUP3 ADD DUP1 PUSH1 0x40 MSTORE POP DUP2 ADD SWAP1 PUSH2 0x381 SWAP2 SWAP1 PUSH2 0x868 JUMP JUMPDEST SWAP1 POP SWAP1 JUMP JUMPDEST PUSH0 SELFBALANCE SWAP1 POP SWAP1 JUMP JUMPDEST PUSH0 PUSH0 SWAP1 SLOAD SWAP1 PUSH2 0x100 EXP SWAP1 DIV PUSH20 0xFFFFFFFFFFFFFFFFFFFFFFFFFFFFFFFFFFFFFFFF AND DUP2 JUMP JUMPDEST PUSH0 CALLVALUE GT PUSH2 0x3F3 JUMPI PUSH1 0x40 MLOAD PUSH32 0x8C379A000000000000000000000000000000000000000000000000000000000 DUP2 MSTORE PUSH1 0x4 ADD PUSH2 0x3EA SWAP1 PUSH2 0x8DD JUMP JUMPDEST PUSH1 0x40 MLOAD DUP1 SWAP2 SUB SWAP1 REVERT JUMPDEST PUSH0 PUSH1 0x2 SLOAD CALLVALUE PUSH2 0x402 SWAP2 SWAP1 PUSH2 0x928 JUMP JUMPDEST SWAP1 POP PUSH0 PUSH1 0x1 PUSH0 SWAP1 SLOAD SWAP1 PUSH2 0x100 EXP SWAP1 DIV PUSH20 0xFFFFFFFFFFFFFFFFFFFFFFFFFFFFFFFFFFFFFFFF AND PUSH20 0xFFFFFFFFFFFFFFFFFFFFFFFFFFFFFFFFFFFFFFFF AND PUSH4 0x70A08231 ADDRESS PUSH1 0x40 MLOAD DUP3 PUSH4 0xFFFFFFFF AND PUSH1 0xE0 SHL DUP2 MSTORE PUSH1 0x4 ADD PUSH2 0x45F SWAP2 SWAP1 PUSH2 0x6D1 JUMP JUMPDEST PUSH1 0x20 PUSH1 0x40 MLOAD DUP1 DUP4 SUB DUP2 DUP7 GAS STATICCALL ISZERO DUP1 ISZERO PUSH2 0x47A JUMPI RETURNDATASIZE PUSH0 PUSH0 RETURNDATACOPY RETURNDATASIZE PUSH0 REVERT JUMPDEST POP POP POP POP PUSH1 0x40 MLOAD RETURNDATASIZE PUSH1 0x1F NOT PUSH1 0x1F DUP3 ADD AND DUP3 ADD DUP1 PUSH1 0x40 MSTORE POP DUP2 ADD SWAP1 PUSH2 0x49E SWAP2 SWAP1 PUSH2 0x868 JUMP JUMPDEST SWAP1 POP DUP2 DUP2 LT ISZERO PUSH2 0x4E3 JUMPI PUSH1 0x40 MLOAD PUSH32 0x8C379A000000000000000000000000000000000000000000000000000000000 DUP2 MSTORE PUSH1 0x4 ADD PUSH2 0x4DA SWAP1 PUSH2 0x9B3 JUMP JUMPDEST PUSH1 0x40 MLOAD DUP1 SWAP2 SUB SWAP1 REVERT JUMPDEST PUSH1 0x1 PUSH0 SWAP1 SLOAD SWAP1 PUSH2 0x100 EXP SWAP1 DIV PUSH20 0xFFFFFFFFFFFFFFFFFFFFFFFFFFFFFFFFFFFFFFFF AND PUSH20 0xFFFFFFFFFFFFFFFFFFFFFFFFFFFFFFFFFFFFFFFF AND PUSH4 0xA9059CBB CALLER DUP5 PUSH1 0x40 MLOAD DUP4 PUSH4 0xFFFFFFFF AND PUSH1 0xE0 SHL DUP2 MSTORE PUSH1 0x4 ADD PUSH2 0x53F SWAP3 SWAP2 SWAP1 PUSH2 0x9D1 JUMP JUMPDEST PUSH1 0x20 PUSH1 0x40 MLOAD DUP1 DUP4 SUB DUP2 PUSH0 DUP8 GAS CALL ISZERO DUP1 ISZERO PUSH2 0x55B JUMPI RETURNDATASIZE PUSH0 PUSH0 RETURNDATACOPY RETURNDATASIZE PUSH0 REVERT JUMPDEST POP POP POP POP PUSH1 0x40 MLOAD RETURNDATASIZE PUSH1 0x1F NOT PUSH1 0x1F DUP3 ADD AND DUP3 ADD DUP1 PUSH1 0x40 MSTORE POP DUP2 ADD SWAP1 PUSH2 0x57F SWAP2 SWAP1 PUSH2 0xA2D JUMP JUMPDEST POP CALLER PUSH20 0xFFFFFFFFFFFFFFFFFFFFFFFFFFFFFFFFFFFFFFFF AND PUSH32 0x8F28852646C20CC973D3A8218F7EEFED58C25C909F78F0265AF4818C3D4DC271 DUP4 PUSH1 0x40 MLOAD PUSH2 0x5C6 SWAP2 SWAP1 PUSH2 0x60F JUMP JUMPDEST PUSH1 0x40 MLOAD DUP1 SWAP2 SUB SWAP1 LOG2 POP POP JUMP JUMPDEST PUSH1 0x1 PUSH0 SWAP1 SLOAD SWAP1 PUSH2 0x100 EXP SWAP1 DIV PUSH20 0xFFFFFFFFFFFFFFFFFFFFFFFFFFFFFFFFFFFFFFFF AND DUP2 JUMP JUMPDEST PUSH0 DUP2 SWAP1 POP SWAP2 SWAP1 POP JUMP JUMPDEST PUSH2 0x609 DUP2 PUSH2 0x5F7 JUMP JUMPDEST DUP3 MSTORE POP POP JUMP JUMPDEST PUSH0 PUSH1 0x20 DUP3 ADD SWAP1 POP PUSH2 0x622 PUSH0 DUP4 ADD DUP5 PUSH2 0x600 JUMP JUMPDEST SWAP3 SWAP2 POP POP JUMP JUMPDEST PUSH0 PUSH0 REVERT JUMPDEST PUSH0 PUSH20 0xFFFFFFFFFFFFFFFFFFFFFFFFFFFFFFFFFFFFFFFF DUP3 AND SWAP1 POP SWAP2 SWAP1 POP JUMP JUMPDEST PUSH0 PUSH2 0x655 DUP3 PUSH2 0x62C JUMP JUMPDEST SWAP1 POP SWAP2 SWAP1 POP JUMP JUMPDEST PUSH2 0x665 DUP2 PUSH2 0x64B JUMP JUMPDEST DUP2 EQ PUSH2 0x66F JUMPI PUSH0 PUSH0 REVERT JUMPDEST POP JUMP JUMPDEST PUSH0 DUP2 CALLDATALOAD SWAP1 POP PUSH2 0x680 DUP2 PUSH2 0x65C JUMP JUMPDEST SWAP3 SWAP2 POP POP JUMP JUMPDEST PUSH0 PUSH1 0x20 DUP3 DUP5 SUB SLT ISZERO PUSH2 0x69B JUMPI PUSH2 0x69A PUSH2 0x628 JUMP JUMPDEST JUMPDEST PUSH0 PUSH2 0x6A8 DUP5 DUP3 DUP6 ADD PUSH2 0x672 JUMP JUMPDEST SWAP2 POP POP SWAP3 SWAP2 POP POP JUMP JUMPDEST PUSH0 PUSH2 0x6BB DUP3 PUSH2 0x62C JUMP JUMPDEST SWAP1 POP SWAP2 SWAP1 POP JUMP JUMPDEST PUSH2 0x6CB DUP2 PUSH2 0x6B1 JUMP JUMPDEST DUP3 MSTORE POP POP JUMP JUMPDEST PUSH0 PUSH1 0x20 DUP3 ADD SWAP1 POP PUSH2 0x6E4 PUSH0 DUP4 ADD DUP5 PUSH2 0x6C2 JUMP JUMPDEST SWAP3 SWAP2 POP POP JUMP JUMPDEST PUSH0 DUP2 SWAP1 POP SWAP2 SWAP1 POP JUMP JUMPDEST PUSH0 PUSH2 0x70D PUSH2 0x708 PUSH2 0x703 DUP5 PUSH2 0x62C JUMP JUMPDEST PUSH2 0x6EA JUMP JUMPDEST PUSH2 0x62C JUMP JUMPDEST SWAP1 POP SWAP2 SWAP1 POP JUMP JUMPDEST PUSH0 PUSH2 0x71E DUP3 PUSH2 0x6F3 JUMP JUMPDEST SWAP1 POP SWAP2 SWAP1 POP JUMP JUMPDEST PUSH0 PUSH2 0x72F DUP3 PUSH2 0x714 JUMP JUMPDEST SWAP1 POP SWAP2 SWAP1 POP JUMP JUMPDEST PUSH2 0x73F DUP2 PUSH2 0x725 JUMP JUMPDEST DUP3 MSTORE POP POP JUMP JUMPDEST PUSH0 PUSH1 0x20 DUP3 ADD SWAP1 POP PUSH2 0x758 PUSH0 DUP4 ADD DUP5 PUSH2 0x736 JUMP JUMPDEST SWAP3 SWAP2 POP POP JUMP JUMPDEST PUSH0 DUP3 DUP3 MSTORE PUSH1 0x20 DUP3 ADD SWAP1 POP SWAP3 SWAP2 POP POP JUMP JUMPDEST PUSH32 0x4E6F74206F776E65720000000000000000000000000000000000000000000000 PUSH0 DUP3 ADD MSTORE POP JUMP JUMPDEST PUSH0 PUSH2 0x7A2 PUSH1 0x9 DUP4 PUSH2 0x75E JUMP JUMPDEST SWAP2 POP PUSH2 0x7AD DUP3 PUSH2 0x76E JUMP JUMPDEST PUSH1 0x20 DUP3 ADD SWAP1 POP SWAP2 SWAP1 POP JUMP JUMPDEST PUSH0 PUSH1 0x20 DUP3 ADD SWAP1 POP DUP2 DUP2 SUB PUSH0 DUP4 ADD MSTORE PUSH2 0x7CF DUP2 PUSH2 0x796 JUMP JUMPDEST SWAP1 POP SWAP2 SWAP1 POP JUMP JUMPDEST PUSH32 0x4E6F2045544820746F2077697468647261770000000000000000000000000000 PUSH0 DUP3 ADD MSTORE POP JUMP JUMPDEST PUSH0 PUSH2 0x80A PUSH1 0x12 DUP4 PUSH2 0x75E JUMP JUMPDEST SWAP2 POP PUSH2 0x815 DUP3 PUSH2 0x7D6 JUMP JUMPDEST PUSH1 0x20 DUP3 ADD SWAP1 POP SWAP2 SWAP1 POP JUMP JUMPDEST PUSH0 PUSH1 0x20 DUP3 ADD SWAP1 POP DUP2 DUP2 SUB PUSH0 DUP4 ADD MSTORE PUSH2 0x837 DUP2 PUSH2 0x7FE JUMP JUMPDEST SWAP1 POP SWAP2 SWAP1 POP JUMP JUMPDEST PUSH2 0x847 DUP2 PUSH2 0x5F7 JUMP JUMPDEST DUP2 EQ PUSH2 0x851 JUMPI PUSH0 PUSH0 REVERT JUMPDEST POP JUMP JUMPDEST PUSH0 DUP2 MLOAD SWAP1 POP PUSH2 0x862 DUP2 PUSH2 0x83E JUMP JUMPDEST SWAP3 SWAP2 POP POP JUMP JUMPDEST PUSH0 PUSH1 0x20 DUP3 DUP5 SUB SLT ISZERO PUSH2 0x87D JUMPI PUSH2 0x87C PUSH2 0x628 JUMP JUMPDEST JUMPDEST PUSH0 PUSH2 0x88A DUP5 DUP3 DUP6 ADD PUSH2 0x854 JUMP JUMPDEST SWAP2 POP POP SWAP3 SWAP2 POP POP JUMP JUMPDEST PUSH32 0x53656E642045544820746F2062757920746F6B656E7300000000000000000000 PUSH0 DUP3 ADD MSTORE POP JUMP JUMPDEST PUSH0 PUSH2 0x8C7 PUSH1 0x16 DUP4 PUSH2 0x75E JUMP JUMPDEST SWAP2 POP PUSH2 0x8D2 DUP3 PUSH2 0x893 JUMP JUMPDEST PUSH1 0x20 DUP3 ADD SWAP1 POP SWAP2 SWAP1 POP JUMP JUMPDEST PUSH0 PUSH1 0x20 DUP3 ADD SWAP1 POP DUP2 DUP2 SUB PUSH0 DUP4 ADD MSTORE PUSH2 0x8F4 DUP2 PUSH2 0x8BB JUMP JUMPDEST SWAP1 POP SWAP2 SWAP1 POP JUMP JUMPDEST PUSH32 0x4E487B7100000000000000000000000000000000000000000000000000000000 PUSH0 MSTORE PUSH1 0x11 PUSH1 0x4 MSTORE PUSH1 0x24 PUSH0 REVERT JUMPDEST PUSH0 PUSH2 0x932 DUP3 PUSH2 0x5F7 JUMP JUMPDEST SWAP2 POP PUSH2 0x93D DUP4 PUSH2 0x5F7 JUMP JUMPDEST SWAP3 POP DUP3 DUP3 MUL PUSH2 0x94B DUP2 PUSH2 0x5F7 JUMP JUMPDEST SWAP2 POP DUP3 DUP3 DIV DUP5 EQ DUP4 ISZERO OR PUSH2 0x962 JUMPI PUSH2 0x961 PUSH2 0x8FB JUMP JUMPDEST JUMPDEST POP SWAP3 SWAP2 POP POP JUMP JUMPDEST PUSH32 0x4E6F7420656E6F75676820746F6B656E7320696E20636F6E7472616374000000 PUSH0 DUP3 ADD MSTORE POP JUMP JUMPDEST PUSH0 PUSH2 0x99D PUSH1 0x1D DUP4 PUSH2 0x75E JUMP JUMPDEST SWAP2 POP PUSH2 0x9A8 DUP3 PUSH2 0x969 JUMP JUMPDEST PUSH1 0x20 DUP3 ADD SWAP1 POP SWAP2 SWAP1 POP JUMP JUMPDEST PUSH0 PUSH1 0x20 DUP3 ADD SWAP1 POP DUP2 DUP2 SUB PUSH0 DUP4 ADD MSTORE PUSH2 0x9CA DUP2 PUSH2 0x991 JUMP JUMPDEST SWAP1 POP SWAP2 SWAP1 POP JUMP JUMPDEST PUSH0 PUSH1 0x40 DUP3 ADD SWAP1 POP PUSH2 0x9E4 PUSH0 DUP4 ADD DUP6 PUSH2 0x6C2 JUMP JUMPDEST PUSH2 0x9F1 PUSH1 0x20 DUP4 ADD DUP5 PUSH2 0x600 JUMP JUMPDEST SWAP4 SWAP3 POP POP POP JUMP JUMPDEST PUSH0 DUP2 ISZERO ISZERO SWAP1 POP SWAP2 SWAP1 POP JUMP JUMPDEST PUSH2 0xA0C DUP2 PUSH2 0x9F8 JUMP JUMPDEST DUP2 EQ PUSH2 0xA16 JUMPI PUSH0 PUSH0 REVERT JUMPDEST POP JUMP JUMPDEST PUSH0 DUP2 MLOAD SWAP1 POP PUSH2 0xA27 DUP2 PUSH2 0xA03 JUMP JUMPDEST SWAP3 SWAP2 POP POP JUMP JUMPDEST PUSH0 PUSH1 0x20 DUP3 DUP5 SUB SLT ISZERO PUSH2 0xA42 JUMPI PUSH2 0xA41 PUSH2 0x628 JUMP JUMPDEST JUMPDEST PUSH0 PUSH2 0xA4F DUP5 DUP3 DUP6 ADD PUSH2 0xA19 JUMP JUMPDEST SWAP2 POP POP SWAP3 SWAP2 POP POP JUMP INVALID LOG2 PUSH5 0x6970667358 0x22 SLT KECCAK256 CALL 0xB5 SWAPN 0x3E 0xA7 MLOAD 0xCB 0xD PUSH10 0xA0373A6841434C1B4796 TSTORE 0xBB SHR 0xDE MCOPY 0x4E PUSH30 0x370813ABD91864736F6C634300081E003300000000000000000000000000 "
				},
				"gasEstimates": {
					"creation": {
						"codeDepositCost": "540400",
						"executionCost": "infinite",
						"totalCost": "infinite"
					},
					"external": {
						"buyTokens()": "infinite",
						"getContractETHBalance()": "334",
						"getTokenBalance()": "infinite",
						"owner()": "2529",
						"rate()": "2426",
						"token()": "infinite",
						"withdrawFunds(address)": "infinite"
					}
				},
				"methodIdentifiers": {
					"buyTokens()": "d0febe4c",
					"getContractETHBalance()": "8c89a0ad",
					"getTokenBalance()": "82b2e257",
					"owner()": "8da5cb5b",
					"rate()": "2c4e722e",
					"token()": "fc0c546a",
					"withdrawFunds(address)": "68742da6"
				}
			},
			"storageLayout": {
				"storage": [
					{
						"astId": 82,
						"contract": "tokensale.sol:TokenSale",
						"label": "owner",
						"offset": 0,
						"slot": "0",
						"type": "t_address"
					},
					{
						"astId": 85,
						"contract": "tokensale.sol:TokenSale",
						"label": "token",
						"offset": 0,
						"slot": "1",
						"type": "t_contract(IERC20)77"
					},
					{
						"astId": 88,
						"contract": "tokensale.sol:TokenSale",
						"label": "rate",
						"offset": 0,
						"slot": "2",
						"type": "t_uint256"
					}
				],
				"types": {
					"t_address": {
						"encoding": "inplace",
						"label": "address",
						"numberOfBytes": "20"
					},
					"t_contract(IERC20)77": {
						"encoding": "inplace",
						"label": "contract IERC20",
						"numberOfBytes": "20"
					},
					"t_uint256": {
						"encoding": "inplace",
						"label": "uint256",
						"numberOfBytes": "32"
					}
				}
			},
			"userdoc": {
				"kind": "user",
				"methods": {},
				"version": 1
			}
		}
	}
}