{
	"TokenSale.sol": {
		"TokenSale": {
			"abi": [
				{
					"inputs": [
						{
							"internalType": "address",
							"name": "_token",
							"type": "address"
						}
					],
					"stateMutability": "nonpayable",
					"type": "constructor"
				},
				{
					"inputs": [
						{
							"internalType": "uint256",
							"name": "amount",
							"type": "uint256"
						}
					],
					"name": "buyTokens",
					"outputs": [],
					"stateMutability": "payable",
					"type": "function"
				},
				{
					"inputs": [],
					"name": "owner",
					"outputs": [
						{
							"internalType": "address",
							"name": "",
							"type": "address"
						}
					],
					"stateMutability": "view",
					"type": "function"
				},
				{
					"inputs": [],
					"name": "price",
					"outputs": [
						{
							"internalType": "uint256",
							"name": "",
							"type": "uint256"
						}
					],
					"stateMutability": "view",
					"type": "function"
				},
				{
					"inputs": [],
					"name": "token",
					"outputs": [
						{
							"internalType": "contract IERC20",
							"name": "",
							"type": "address"
						}
					],
					"stateMutability": "view",
					"type": "function"
				},
				{
					"inputs": [],
					"name": "withdraw",
					"outputs": [],
					"stateMutability": "nonpayable",
					"type": "function"
				}
			],
			"devdoc": {
				"kind": "dev",
				"methods": {},
				"version": 1
			},
			"evm": {
				"assembly": "    /* \"TokenSale.sol\":1120:1720  contract TokenSale {... */\n  mstore(0x40, 0x80)\n    /* \"TokenSale.sol\":1220:1230  0.01 ether */\n  0x2386f26fc10000\n    /* \"TokenSale.sol\":1197:1230  uint256 public price = 0.01 ether */\n  0x02\n  sstore\n    /* \"TokenSale.sol\":1237:1365  constructor(address _token) {... */\n  callvalue\n  dup1\n  iszero\n  tag_1\n  jumpi\n  revert(0x00, 0x00)\ntag_1:\n  pop\n  mload(0x40)\n  sub(codesize, bytecodeSize)\n  dup1\n  bytecodeSize\n  dup4\n  codecopy\n  dup2\n  dup2\n  add\n  0x40\n  mstore\n  dup2\n  add\n  swap1\n  tag_2\n  swap2\n  swap1\n  tag_3\n  jump\t// in\ntag_2:\n    /* \"TokenSale.sol\":1283:1293  msg.sender */\n  caller\n    /* \"TokenSale.sol\":1275:1280  owner */\n  0x00\n  0x00\n    /* \"TokenSale.sol\":1275:1293  owner = msg.sender */\n  0x0100\n  exp\n  dup2\n  sload\n  dup2\n  0xffffffffffffffffffffffffffffffffffffffff\n  mul\n  not\n  and\n  swap1\n  dup4\n  0xffffffffffffffffffffffffffffffffffffffff\n  and\n  mul\n  or\n  swap1\n  sstore\n  pop\n    /* \"TokenSale.sol\":1318:1324  _token */\n  dup1\n    /* \"TokenSale.sol\":1303:1308  token */\n  0x01\n  0x00\n    /* \"TokenSale.sol\":1303:1325  token = IERC20(_token) */\n  0x0100\n  exp\n  dup2\n  sload\n  dup2\n  0xffffffffffffffffffffffffffffffffffffffff\n  mul\n  not\n  and\n  swap1\n  dup4\n  0xffffffffffffffffffffffffffffffffffffffff\n  and\n  mul\n  or\n  swap1\n  sstore\n  pop\n    /* \"TokenSale.sol\":1237:1365  constructor(address _token) {... */\n  pop\n    /* \"TokenSale.sol\":1120:1720  contract TokenSale {... */\n  jump(tag_6)\n    /* \"#utility.yul\":88:205   */\ntag_8:\n    /* \"#utility.yul\":197:198   */\n  0x00\n    /* \"#utility.yul\":194:195   */\n  0x00\n    /* \"#utility.yul\":187:199   */\n  revert\n    /* \"#utility.yul\":334:460   */\ntag_10:\n    /* \"#utility.yul\":371:378   */\n  0x00\n    /* \"#utility.yul\":411:453   */\n  0xffffffffffffffffffffffffffffffffffffffff\n    /* \"#utility.yul\":404:409   */\n  dup3\n    /* \"#utility.yul\":400:454   */\n  and\n    /* \"#utility.yul\":389:454   */\n  swap1\n  pop\n    /* \"#utility.yul\":334:460   */\n  swap2\n  swap1\n  pop\n  jump\t// out\n    /* \"#utility.yul\":466:562   */\ntag_11:\n    /* \"#utility.yul\":503:510   */\n  0x00\n    /* \"#utility.yul\":532:556   */\n  tag_20\n    /* \"#utility.yul\":550:555   */\n  dup3\n    /* \"#utility.yul\":532:556   */\n  tag_10\n  jump\t// in\ntag_20:\n    /* \"#utility.yul\":521:556   */\n  swap1\n  pop\n    /* \"#utility.yul\":466:562   */\n  swap2\n  swap1\n  pop\n  jump\t// out\n    /* \"#utility.yul\":568:690   */\ntag_12:\n    /* \"#utility.yul\":641:665   */\n  tag_22\n    /* \"#utility.yul\":659:664   */\n  dup2\n    /* \"#utility.yul\":641:665   */\n  tag_11\n  jump\t// in\ntag_22:\n    /* \"#utility.yul\":634:639   */\n  dup2\n    /* \"#utility.yul\":631:666   */\n  eq\n    /* \"#utility.yul\":621:684   */\n  tag_23\n  jumpi\n    /* \"#utility.yul\":680:681   */\n  0x00\n    /* \"#utility.yul\":677:678   */\n  0x00\n    /* \"#utility.yul\":670:682   */\n  revert\n    /* \"#utility.yul\":621:684   */\ntag_23:\n    /* \"#utility.yul\":568:690   */\n  pop\n  jump\t// out\n    /* \"#utility.yul\":696:839   */\ntag_13:\n    /* \"#utility.yul\":753:758   */\n  0x00\n    /* \"#utility.yul\":784:790   */\n  dup2\n    /* \"#utility.yul\":778:791   */\n  mload\n    /* \"#utility.yul\":769:791   */\n  swap1\n  pop\n    /* \"#utility.yul\":800:833   */\n  tag_25\n    /* \"#utility.yul\":827:832   */\n  dup2\n    /* \"#utility.yul\":800:833   */\n  tag_12\n  jump\t// in\ntag_25:\n    /* \"#utility.yul\":696:839   */\n  swap3\n  swap2\n  pop\n  pop\n  jump\t// out\n    /* \"#utility.yul\":845:1196   */\ntag_3:\n    /* \"#utility.yul\":915:921   */\n  0x00\n    /* \"#utility.yul\":964:966   */\n  0x20\n    /* \"#utility.yul\":952:961   */\n  dup3\n    /* \"#utility.yul\":943:950   */\n  dup5\n    /* \"#utility.yul\":939:962   */\n  sub\n    /* \"#utility.yul\":935:967   */\n  slt\n    /* \"#utility.yul\":932:1051   */\n  iszero\n  tag_27\n  jumpi\n    /* \"#utility.yul\":970:1049   */\n  tag_28\n  tag_8\n  jump\t// in\ntag_28:\n    /* \"#utility.yul\":932:1051   */\ntag_27:\n    /* \"#utility.yul\":1090:1091   */\n  0x00\n    /* \"#utility.yul\":1115:1179   */\n  tag_29\n    /* \"#utility.yul\":1171:1178   */\n  dup5\n    /* \"#utility.yul\":1162:1168   */\n  dup3\n    /* \"#utility.yul\":1151:1160   */\n  dup6\n    /* \"#utility.yul\":1147:1169   */\n  add\n    /* \"#utility.yul\":1115:1179   */\n  tag_13\n  jump\t// in\ntag_29:\n    /* \"#utility.yul\":1105:1179   */\n  swap2\n  pop\n    /* \"#utility.yul\":1061:1189   */\n  pop\n    /* \"#utility.yul\":845:1196   */\n  swap3\n  swap2\n  pop\n  pop\n  jump\t// out\n    /* \"TokenSale.sol\":1120:1720  contract TokenSale {... */\ntag_6:\n  dataSize(sub_0)\n  dup1\n  dataOffset(sub_0)\n  0x00\n  codecopy\n  0x00\n  return\nstop\n\nsub_0: assembly {\n        /* \"TokenSale.sol\":1120:1720  contract TokenSale {... */\n      mstore(0x40, 0x80)\n      jumpi(tag_1, lt(calldatasize, 0x04))\n      shr(0xe0, calldataload(0x00))\n      dup1\n      0x3610724e\n      eq\n      tag_2\n      jumpi\n      dup1\n      0x3ccfd60b\n      eq\n      tag_3\n      jumpi\n      dup1\n      0x8da5cb5b\n      eq\n      tag_4\n      jumpi\n      dup1\n      0xa035b1fe\n      eq\n      tag_5\n      jumpi\n      dup1\n      0xfc0c546a\n      eq\n      tag_6\n      jumpi\n    tag_1:\n      revert(0x00, 0x00)\n        /* \"TokenSale.sol\":1371:1570  function buyTokens(uint256 amount) public payable {... */\n    tag_2:\n      tag_7\n      0x04\n      dup1\n      calldatasize\n      sub\n      dup2\n      add\n      swap1\n      tag_8\n      swap2\n      swap1\n      tag_9\n      jump\t// in\n    tag_8:\n      tag_10\n      jump\t// in\n    tag_7:\n      stop\n        /* \"TokenSale.sol\":1576:1718  function withdraw() public {... */\n    tag_3:\n      callvalue\n      dup1\n      iszero\n      tag_11\n      jumpi\n      revert(0x00, 0x00)\n    tag_11:\n      pop\n      tag_12\n      tag_13\n      jump\t// in\n    tag_12:\n      stop\n        /* \"TokenSale.sol\":1145:1165  address public owner */\n    tag_4:\n      callvalue\n      dup1\n      iszero\n      tag_14\n      jumpi\n      revert(0x00, 0x00)\n    tag_14:\n      pop\n      tag_15\n      tag_16\n      jump\t// in\n    tag_15:\n      mload(0x40)\n      tag_17\n      swap2\n      swap1\n      tag_18\n      jump\t// in\n    tag_17:\n      mload(0x40)\n      dup1\n      swap2\n      sub\n      swap1\n      return\n        /* \"TokenSale.sol\":1197:1230  uint256 public price = 0.01 ether */\n    tag_5:\n      callvalue\n      dup1\n      iszero\n      tag_19\n      jumpi\n      revert(0x00, 0x00)\n    tag_19:\n      pop\n      tag_20\n      tag_21\n      jump\t// in\n    tag_20:\n      mload(0x40)\n      tag_22\n      swap2\n      swap1\n      tag_23\n      jump\t// in\n    tag_22:\n      mload(0x40)\n      dup1\n      swap2\n      sub\n      swap1\n      return\n        /* \"TokenSale.sol\":1171:1190  IERC20 public token */\n    tag_6:\n      callvalue\n      dup1\n      iszero\n      tag_24\n      jumpi\n      revert(0x00, 0x00)\n    tag_24:\n      pop\n      tag_25\n      tag_26\n      jump\t// in\n    tag_25:\n      mload(0x40)\n      tag_27\n      swap2\n      swap1\n      tag_28\n      jump\t// in\n    tag_27:\n      mload(0x40)\n      dup1\n      swap2\n      sub\n      swap1\n      return\n        /* \"TokenSale.sol\":1371:1570  function buyTokens(uint256 amount) public payable {... */\n    tag_10:\n        /* \"TokenSale.sol\":1460:1466  amount */\n      dup1\n        /* \"TokenSale.sol\":1452:1457  price */\n      sload(0x02)\n        /* \"TokenSale.sol\":1452:1466  price * amount */\n      tag_30\n      swap2\n      swap1\n      tag_31\n      jump\t// in\n    tag_30:\n        /* \"TokenSale.sol\":1439:1448  msg.value */\n      callvalue\n        /* \"TokenSale.sol\":1439:1466  msg.value == price * amount */\n      eq\n        /* \"TokenSale.sol\":1431:1491  require(msg.value == price * amount, \"Incorrect ETH amount\") */\n      tag_32\n      jumpi\n      mload(0x40)\n      0x08c379a000000000000000000000000000000000000000000000000000000000\n      dup2\n      mstore\n      0x04\n      add\n      tag_33\n      swap1\n      tag_34\n      jump\t// in\n    tag_33:\n      mload(0x40)\n      dup1\n      swap2\n      sub\n      swap1\n      revert\n    tag_32:\n        /* \"TokenSale.sol\":1509:1514  token */\n      0x01\n      0x00\n      swap1\n      sload\n      swap1\n      0x0100\n      exp\n      swap1\n      div\n      0xffffffffffffffffffffffffffffffffffffffff\n      and\n        /* \"TokenSale.sol\":1509:1523  token.transfer */\n      0xffffffffffffffffffffffffffffffffffffffff\n      and\n      0xa9059cbb\n        /* \"TokenSale.sol\":1524:1534  msg.sender */\n      caller\n        /* \"TokenSale.sol\":1536:1542  amount */\n      dup4\n        /* \"TokenSale.sol\":1509:1543  token.transfer(msg.sender, amount) */\n      mload(0x40)\n      dup4\n      0xffffffff\n      and\n      0xe0\n      shl\n      dup2\n      mstore\n      0x04\n      add\n      tag_35\n      swap3\n      swap2\n      swap1\n      tag_36\n      jump\t// in\n    tag_35:\n      0x20\n      mload(0x40)\n      dup1\n      dup4\n      sub\n      dup2\n      0x00\n      dup8\n      gas\n      call\n      iszero\n      dup1\n      iszero\n      tag_38\n      jumpi\n      returndatacopy(0x00, 0x00, returndatasize)\n      revert(0x00, returndatasize)\n    tag_38:\n      pop\n      pop\n      pop\n      pop\n      mload(0x40)\n      returndatasize\n      not(0x1f)\n      0x1f\n      dup3\n      add\n      and\n      dup3\n      add\n      dup1\n      0x40\n      mstore\n      pop\n      dup2\n      add\n      swap1\n      tag_39\n      swap2\n      swap1\n      tag_40\n      jump\t// in\n    tag_39:\n        /* \"TokenSale.sol\":1501:1563  require(token.transfer(msg.sender, amount), \"Transfer failed\") */\n      tag_41\n      jumpi\n      mload(0x40)\n      0x08c379a000000000000000000000000000000000000000000000000000000000\n      dup2\n      mstore\n      0x04\n      add\n      tag_42\n      swap1\n      tag_43\n      jump\t// in\n    tag_42:\n      mload(0x40)\n      dup1\n      swap2\n      sub\n      swap1\n      revert\n    tag_41:\n        /* \"TokenSale.sol\":1371:1570  function buyTokens(uint256 amount) public payable {... */\n      pop\n      jump\t// out\n        /* \"TokenSale.sol\":1576:1718  function withdraw() public {... */\n    tag_13:\n        /* \"TokenSale.sol\":1635:1640  owner */\n      0x00\n      0x00\n      swap1\n      sload\n      swap1\n      0x0100\n      exp\n      swap1\n      div\n      0xffffffffffffffffffffffffffffffffffffffff\n      and\n        /* \"TokenSale.sol\":1621:1640  msg.sender == owner */\n      0xffffffffffffffffffffffffffffffffffffffff\n      and\n        /* \"TokenSale.sol\":1621:1631  msg.sender */\n      caller\n        /* \"TokenSale.sol\":1621:1640  msg.sender == owner */\n      0xffffffffffffffffffffffffffffffffffffffff\n      and\n      eq\n        /* \"TokenSale.sol\":1613:1655  require(msg.sender == owner, \"Only owner\") */\n      tag_45\n      jumpi\n      mload(0x40)\n      0x08c379a000000000000000000000000000000000000000000000000000000000\n      dup2\n      mstore\n      0x04\n      add\n      tag_46\n      swap1\n      tag_47\n      jump\t// in\n    tag_46:\n      mload(0x40)\n      dup1\n      swap2\n      sub\n      swap1\n      revert\n    tag_45:\n        /* \"TokenSale.sol\":1673:1678  owner */\n      0x00\n      0x00\n      swap1\n      sload\n      swap1\n      0x0100\n      exp\n      swap1\n      div\n      0xffffffffffffffffffffffffffffffffffffffff\n      and\n        /* \"TokenSale.sol\":1665:1688  payable(owner).transfer */\n      0xffffffffffffffffffffffffffffffffffffffff\n      and\n        /* \"TokenSale.sol\":1665:1711  payable(owner).transfer(address(this).balance) */\n      0x08fc\n        /* \"TokenSale.sol\":1689:1710  address(this).balance */\n      selfbalance\n        /* \"TokenSale.sol\":1665:1711  payable(owner).transfer(address(this).balance) */\n      swap1\n      dup2\n      iszero\n      mul\n      swap1\n      mload(0x40)\n      0x00\n      mload(0x40)\n      dup1\n      dup4\n      sub\n      dup2\n      dup6\n      dup9\n      dup9\n      call\n      swap4\n      pop\n      pop\n      pop\n      pop\n      iszero\n      dup1\n      iszero\n      tag_49\n      jumpi\n      returndatacopy(0x00, 0x00, returndatasize)\n      revert(0x00, returndatasize)\n    tag_49:\n      pop\n        /* \"TokenSale.sol\":1576:1718  function withdraw() public {... */\n      jump\t// out\n        /* \"TokenSale.sol\":1145:1165  address public owner */\n    tag_16:\n      0x00\n      0x00\n      swap1\n      sload\n      swap1\n      0x0100\n      exp\n      swap1\n      div\n      0xffffffffffffffffffffffffffffffffffffffff\n      and\n      dup2\n      jump\t// out\n        /* \"TokenSale.sol\":1197:1230  uint256 public price = 0.01 ether */\n    tag_21:\n      sload(0x02)\n      dup2\n      jump\t// out\n        /* \"TokenSale.sol\":1171:1190  IERC20 public token */\n    tag_26:\n      0x01\n      0x00\n      swap1\n      sload\n      swap1\n      0x0100\n      exp\n      swap1\n      div\n      0xffffffffffffffffffffffffffffffffffffffff\n      and\n      dup2\n      jump\t// out\n        /* \"#utility.yul\":88:205   */\n    tag_51:\n        /* \"#utility.yul\":197:198   */\n      0x00\n        /* \"#utility.yul\":194:195   */\n      0x00\n        /* \"#utility.yul\":187:199   */\n      revert\n        /* \"#utility.yul\":334:411   */\n    tag_53:\n        /* \"#utility.yul\":371:378   */\n      0x00\n        /* \"#utility.yul\":400:405   */\n      dup2\n        /* \"#utility.yul\":389:405   */\n      swap1\n      pop\n        /* \"#utility.yul\":334:411   */\n      swap2\n      swap1\n      pop\n      jump\t// out\n        /* \"#utility.yul\":417:539   */\n    tag_54:\n        /* \"#utility.yul\":490:514   */\n      tag_82\n        /* \"#utility.yul\":508:513   */\n      dup2\n        /* \"#utility.yul\":490:514   */\n      tag_53\n      jump\t// in\n    tag_82:\n        /* \"#utility.yul\":483:488   */\n      dup2\n        /* \"#utility.yul\":480:515   */\n      eq\n        /* \"#utility.yul\":470:533   */\n      tag_83\n      jumpi\n        /* \"#utility.yul\":529:530   */\n      0x00\n        /* \"#utility.yul\":526:527   */\n      0x00\n        /* \"#utility.yul\":519:531   */\n      revert\n        /* \"#utility.yul\":470:533   */\n    tag_83:\n        /* \"#utility.yul\":417:539   */\n      pop\n      jump\t// out\n        /* \"#utility.yul\":545:684   */\n    tag_55:\n        /* \"#utility.yul\":591:596   */\n      0x00\n        /* \"#utility.yul\":629:635   */\n      dup2\n        /* \"#utility.yul\":616:636   */\n      calldataload\n        /* \"#utility.yul\":607:636   */\n      swap1\n      pop\n        /* \"#utility.yul\":645:678   */\n      tag_85\n        /* \"#utility.yul\":672:677   */\n      dup2\n        /* \"#utility.yul\":645:678   */\n      tag_54\n      jump\t// in\n    tag_85:\n        /* \"#utility.yul\":545:684   */\n      swap3\n      swap2\n      pop\n      pop\n      jump\t// out\n        /* \"#utility.yul\":690:1019   */\n    tag_9:\n        /* \"#utility.yul\":749:755   */\n      0x00\n        /* \"#utility.yul\":798:800   */\n      0x20\n        /* \"#utility.yul\":786:795   */\n      dup3\n        /* \"#utility.yul\":777:784   */\n      dup5\n        /* \"#utility.yul\":773:796   */\n      sub\n        /* \"#utility.yul\":769:801   */\n      slt\n        /* \"#utility.yul\":766:885   */\n      iszero\n      tag_87\n      jumpi\n        /* \"#utility.yul\":804:883   */\n      tag_88\n      tag_51\n      jump\t// in\n    tag_88:\n        /* \"#utility.yul\":766:885   */\n    tag_87:\n        /* \"#utility.yul\":924:925   */\n      0x00\n        /* \"#utility.yul\":949:1002   */\n      tag_89\n        /* \"#utility.yul\":994:1001   */\n      dup5\n        /* \"#utility.yul\":985:991   */\n      dup3\n        /* \"#utility.yul\":974:983   */\n      dup6\n        /* \"#utility.yul\":970:992   */\n      add\n        /* \"#utility.yul\":949:1002   */\n      tag_55\n      jump\t// in\n    tag_89:\n        /* \"#utility.yul\":939:1002   */\n      swap2\n      pop\n        /* \"#utility.yul\":895:1012   */\n      pop\n        /* \"#utility.yul\":690:1019   */\n      swap3\n      swap2\n      pop\n      pop\n      jump\t// out\n        /* \"#utility.yul\":1025:1151   */\n    tag_56:\n        /* \"#utility.yul\":1062:1069   */\n      0x00\n        /* \"#utility.yul\":1102:1144   */\n      0xffffffffffffffffffffffffffffffffffffffff\n        /* \"#utility.yul\":1095:1100   */\n      dup3\n        /* \"#utility.yul\":1091:1145   */\n      and\n        /* \"#utility.yul\":1080:1145   */\n      swap1\n      pop\n        /* \"#utility.yul\":1025:1151   */\n      swap2\n      swap1\n      pop\n      jump\t// out\n        /* \"#utility.yul\":1157:1253   */\n    tag_57:\n        /* \"#utility.yul\":1194:1201   */\n      0x00\n        /* \"#utility.yul\":1223:1247   */\n      tag_92\n        /* \"#utility.yul\":1241:1246   */\n      dup3\n        /* \"#utility.yul\":1223:1247   */\n      tag_56\n      jump\t// in\n    tag_92:\n        /* \"#utility.yul\":1212:1247   */\n      swap1\n      pop\n        /* \"#utility.yul\":1157:1253   */\n      swap2\n      swap1\n      pop\n      jump\t// out\n        /* \"#utility.yul\":1259:1377   */\n    tag_58:\n        /* \"#utility.yul\":1346:1370   */\n      tag_94\n        /* \"#utility.yul\":1364:1369   */\n      dup2\n        /* \"#utility.yul\":1346:1370   */\n      tag_57\n      jump\t// in\n    tag_94:\n        /* \"#utility.yul\":1341:1344   */\n      dup3\n        /* \"#utility.yul\":1334:1371   */\n      mstore\n        /* \"#utility.yul\":1259:1377   */\n      pop\n      pop\n      jump\t// out\n        /* \"#utility.yul\":1383:1605   */\n    tag_18:\n        /* \"#utility.yul\":1476:1480   */\n      0x00\n        /* \"#utility.yul\":1514:1516   */\n      0x20\n        /* \"#utility.yul\":1503:1512   */\n      dup3\n        /* \"#utility.yul\":1499:1517   */\n      add\n        /* \"#utility.yul\":1491:1517   */\n      swap1\n      pop\n        /* \"#utility.yul\":1527:1598   */\n      tag_96\n        /* \"#utility.yul\":1595:1596   */\n      0x00\n        /* \"#utility.yul\":1584:1593   */\n      dup4\n        /* \"#utility.yul\":1580:1597   */\n      add\n        /* \"#utility.yul\":1571:1577   */\n      dup5\n        /* \"#utility.yul\":1527:1598   */\n      tag_58\n      jump\t// in\n    tag_96:\n        /* \"#utility.yul\":1383:1605   */\n      swap3\n      swap2\n      pop\n      pop\n      jump\t// out\n        /* \"#utility.yul\":1611:1729   */\n    tag_59:\n        /* \"#utility.yul\":1698:1722   */\n      tag_98\n        /* \"#utility.yul\":1716:1721   */\n      dup2\n        /* \"#utility.yul\":1698:1722   */\n      tag_53\n      jump\t// in\n    tag_98:\n        /* \"#utility.yul\":1693:1696   */\n      dup3\n        /* \"#utility.yul\":1686:1723   */\n      mstore\n        /* \"#utility.yul\":1611:1729   */\n      pop\n      pop\n      jump\t// out\n        /* \"#utility.yul\":1735:1957   */\n    tag_23:\n        /* \"#utility.yul\":1828:1832   */\n      0x00\n        /* \"#utility.yul\":1866:1868   */\n      0x20\n        /* \"#utility.yul\":1855:1864   */\n      dup3\n        /* \"#utility.yul\":1851:1869   */\n      add\n        /* \"#utility.yul\":1843:1869   */\n      swap1\n      pop\n        /* \"#utility.yul\":1879:1950   */\n      tag_100\n        /* \"#utility.yul\":1947:1948   */\n      0x00\n        /* \"#utility.yul\":1936:1945   */\n      dup4\n        /* \"#utility.yul\":1932:1949   */\n      add\n        /* \"#utility.yul\":1923:1929   */\n      dup5\n        /* \"#utility.yul\":1879:1950   */\n      tag_59\n      jump\t// in\n    tag_100:\n        /* \"#utility.yul\":1735:1957   */\n      swap3\n      swap2\n      pop\n      pop\n      jump\t// out\n        /* \"#utility.yul\":1963:2023   */\n    tag_60:\n        /* \"#utility.yul\":1991:1994   */\n      0x00\n        /* \"#utility.yul\":2012:2017   */\n      dup2\n        /* \"#utility.yul\":2005:2017   */\n      swap1\n      pop\n        /* \"#utility.yul\":1963:2023   */\n      swap2\n      swap1\n      pop\n      jump\t// out\n        /* \"#utility.yul\":2029:2171   */\n    tag_61:\n        /* \"#utility.yul\":2079:2088   */\n      0x00\n        /* \"#utility.yul\":2112:2165   */\n      tag_103\n        /* \"#utility.yul\":2130:2164   */\n      tag_104\n        /* \"#utility.yul\":2139:2163   */\n      tag_105\n        /* \"#utility.yul\":2157:2162   */\n      dup5\n        /* \"#utility.yul\":2139:2163   */\n      tag_56\n      jump\t// in\n    tag_105:\n        /* \"#utility.yul\":2130:2164   */\n      tag_60\n      jump\t// in\n    tag_104:\n        /* \"#utility.yul\":2112:2165   */\n      tag_56\n      jump\t// in\n    tag_103:\n        /* \"#utility.yul\":2099:2165   */\n      swap1\n      pop\n        /* \"#utility.yul\":2029:2171   */\n      swap2\n      swap1\n      pop\n      jump\t// out\n        /* \"#utility.yul\":2177:2303   */\n    tag_62:\n        /* \"#utility.yul\":2227:2236   */\n      0x00\n        /* \"#utility.yul\":2260:2297   */\n      tag_107\n        /* \"#utility.yul\":2291:2296   */\n      dup3\n        /* \"#utility.yul\":2260:2297   */\n      tag_61\n      jump\t// in\n    tag_107:\n        /* \"#utility.yul\":2247:2297   */\n      swap1\n      pop\n        /* \"#utility.yul\":2177:2303   */\n      swap2\n      swap1\n      pop\n      jump\t// out\n        /* \"#utility.yul\":2309:2448   */\n    tag_63:\n        /* \"#utility.yul\":2372:2381   */\n      0x00\n        /* \"#utility.yul\":2405:2442   */\n      tag_109\n        /* \"#utility.yul\":2436:2441   */\n      dup3\n        /* \"#utility.yul\":2405:2442   */\n      tag_62\n      jump\t// in\n    tag_109:\n        /* \"#utility.yul\":2392:2442   */\n      swap1\n      pop\n        /* \"#utility.yul\":2309:2448   */\n      swap2\n      swap1\n      pop\n      jump\t// out\n        /* \"#utility.yul\":2454:2611   */\n    tag_64:\n        /* \"#utility.yul\":2554:2604   */\n      tag_111\n        /* \"#utility.yul\":2598:2603   */\n      dup2\n        /* \"#utility.yul\":2554:2604   */\n      tag_63\n      jump\t// in\n    tag_111:\n        /* \"#utility.yul\":2549:2552   */\n      dup3\n        /* \"#utility.yul\":2542:2605   */\n      mstore\n        /* \"#utility.yul\":2454:2611   */\n      pop\n      pop\n      jump\t// out\n        /* \"#utility.yul\":2617:2865   */\n    tag_28:\n        /* \"#utility.yul\":2723:2727   */\n      0x00\n        /* \"#utility.yul\":2761:2763   */\n      0x20\n        /* \"#utility.yul\":2750:2759   */\n      dup3\n        /* \"#utility.yul\":2746:2764   */\n      add\n        /* \"#utility.yul\":2738:2764   */\n      swap1\n      pop\n        /* \"#utility.yul\":2774:2858   */\n      tag_113\n        /* \"#utility.yul\":2855:2856   */\n      0x00\n        /* \"#utility.yul\":2844:2853   */\n      dup4\n        /* \"#utility.yul\":2840:2857   */\n      add\n        /* \"#utility.yul\":2831:2837   */\n      dup5\n        /* \"#utility.yul\":2774:2858   */\n      tag_64\n      jump\t// in\n    tag_113:\n        /* \"#utility.yul\":2617:2865   */\n      swap3\n      swap2\n      pop\n      pop\n      jump\t// out\n        /* \"#utility.yul\":2871:3051   */\n    tag_65:\n        /* \"#utility.yul\":2919:2996   */\n      0x4e487b7100000000000000000000000000000000000000000000000000000000\n        /* \"#utility.yul\":2916:2917   */\n      0x00\n        /* \"#utility.yul\":2909:2997   */\n      mstore\n        /* \"#utility.yul\":3016:3020   */\n      0x11\n        /* \"#utility.yul\":3013:3014   */\n      0x04\n        /* \"#utility.yul\":3006:3021   */\n      mstore\n        /* \"#utility.yul\":3040:3044   */\n      0x24\n        /* \"#utility.yul\":3037:3038   */\n      0x00\n        /* \"#utility.yul\":3030:3045   */\n      revert\n        /* \"#utility.yul\":3057:3467   */\n    tag_31:\n        /* \"#utility.yul\":3097:3104   */\n      0x00\n        /* \"#utility.yul\":3120:3140   */\n      tag_116\n        /* \"#utility.yul\":3138:3139   */\n      dup3\n        /* \"#utility.yul\":3120:3140   */\n      tag_53\n      jump\t// in\n    tag_116:\n        /* \"#utility.yul\":3115:3140   */\n      swap2\n      pop\n        /* \"#utility.yul\":3154:3174   */\n      tag_117\n        /* \"#utility.yul\":3172:3173   */\n      dup4\n        /* \"#utility.yul\":3154:3174   */\n      tag_53\n      jump\t// in\n    tag_117:\n        /* \"#utility.yul\":3149:3174   */\n      swap3\n      pop\n        /* \"#utility.yul\":3209:3210   */\n      dup3\n        /* \"#utility.yul\":3206:3207   */\n      dup3\n        /* \"#utility.yul\":3202:3211   */\n      mul\n        /* \"#utility.yul\":3231:3261   */\n      tag_118\n        /* \"#utility.yul\":3249:3260   */\n      dup2\n        /* \"#utility.yul\":3231:3261   */\n      tag_53\n      jump\t// in\n    tag_118:\n        /* \"#utility.yul\":3220:3261   */\n      swap2\n      pop\n        /* \"#utility.yul\":3410:3411   */\n      dup3\n        /* \"#utility.yul\":3401:3408   */\n      dup3\n        /* \"#utility.yul\":3397:3412   */\n      div\n        /* \"#utility.yul\":3394:3395   */\n      dup5\n        /* \"#utility.yul\":3391:3413   */\n      eq\n        /* \"#utility.yul\":3371:3372   */\n      dup4\n        /* \"#utility.yul\":3364:3373   */\n      iszero\n        /* \"#utility.yul\":3344:3427   */\n      or\n        /* \"#utility.yul\":3321:3460   */\n      tag_119\n      jumpi\n        /* \"#utility.yul\":3440:3458   */\n      tag_120\n      tag_65\n      jump\t// in\n    tag_120:\n        /* \"#utility.yul\":3321:3460   */\n    tag_119:\n        /* \"#utility.yul\":3105:3467   */\n      pop\n        /* \"#utility.yul\":3057:3467   */\n      swap3\n      swap2\n      pop\n      pop\n      jump\t// out\n        /* \"#utility.yul\":3473:3642   */\n    tag_66:\n        /* \"#utility.yul\":3557:3568   */\n      0x00\n        /* \"#utility.yul\":3591:3597   */\n      dup3\n        /* \"#utility.yul\":3586:3589   */\n      dup3\n        /* \"#utility.yul\":3579:3598   */\n      mstore\n        /* \"#utility.yul\":3631:3635   */\n      0x20\n        /* \"#utility.yul\":3626:3629   */\n      dup3\n        /* \"#utility.yul\":3622:3636   */\n      add\n        /* \"#utility.yul\":3607:3636   */\n      swap1\n      pop\n        /* \"#utility.yul\":3473:3642   */\n      swap3\n      swap2\n      pop\n      pop\n      jump\t// out\n        /* \"#utility.yul\":3648:3818   */\n    tag_67:\n        /* \"#utility.yul\":3788:3810   */\n      0x496e636f72726563742045544820616d6f756e74000000000000000000000000\n        /* \"#utility.yul\":3784:3785   */\n      0x00\n        /* \"#utility.yul\":3776:3782   */\n      dup3\n        /* \"#utility.yul\":3772:3786   */\n      add\n        /* \"#utility.yul\":3765:3811   */\n      mstore\n        /* \"#utility.yul\":3648:3818   */\n      pop\n      jump\t// out\n        /* \"#utility.yul\":3824:4190   */\n    tag_68:\n        /* \"#utility.yul\":3966:3969   */\n      0x00\n        /* \"#utility.yul\":3987:4054   */\n      tag_124\n        /* \"#utility.yul\":4051:4053   */\n      0x14\n        /* \"#utility.yul\":4046:4049   */\n      dup4\n        /* \"#utility.yul\":3987:4054   */\n      tag_66\n      jump\t// in\n    tag_124:\n        /* \"#utility.yul\":3980:4054   */\n      swap2\n      pop\n        /* \"#utility.yul\":4063:4156   */\n      tag_125\n        /* \"#utility.yul\":4152:4155   */\n      dup3\n        /* \"#utility.yul\":4063:4156   */\n      tag_67\n      jump\t// in\n    tag_125:\n        /* \"#utility.yul\":4181:4183   */\n      0x20\n        /* \"#utility.yul\":4176:4179   */\n      dup3\n        /* \"#utility.yul\":4172:4184   */\n      add\n        /* \"#utility.yul\":4165:4184   */\n      swap1\n      pop\n        /* \"#utility.yul\":3824:4190   */\n      swap2\n      swap1\n      pop\n      jump\t// out\n        /* \"#utility.yul\":4196:4615   */\n    tag_34:\n        /* \"#utility.yul\":4362:4366   */\n      0x00\n        /* \"#utility.yul\":4400:4402   */\n      0x20\n        /* \"#utility.yul\":4389:4398   */\n      dup3\n        /* \"#utility.yul\":4385:4403   */\n      add\n        /* \"#utility.yul\":4377:4403   */\n      swap1\n      pop\n        /* \"#utility.yul\":4449:4458   */\n      dup2\n        /* \"#utility.yul\":4443:4447   */\n      dup2\n        /* \"#utility.yul\":4439:4459   */\n      sub\n        /* \"#utility.yul\":4435:4436   */\n      0x00\n        /* \"#utility.yul\":4424:4433   */\n      dup4\n        /* \"#utility.yul\":4420:4437   */\n      add\n        /* \"#utility.yul\":4413:4460   */\n      mstore\n        /* \"#utility.yul\":4477:4608   */\n      tag_127\n        /* \"#utility.yul\":4603:4607   */\n      dup2\n        /* \"#utility.yul\":4477:4608   */\n      tag_68\n      jump\t// in\n    tag_127:\n        /* \"#utility.yul\":4469:4608   */\n      swap1\n      pop\n        /* \"#utility.yul\":4196:4615   */\n      swap2\n      swap1\n      pop\n      jump\t// out\n        /* \"#utility.yul\":4621:4953   */\n    tag_36:\n        /* \"#utility.yul\":4742:4746   */\n      0x00\n        /* \"#utility.yul\":4780:4782   */\n      0x40\n        /* \"#utility.yul\":4769:4778   */\n      dup3\n        /* \"#utility.yul\":4765:4783   */\n      add\n        /* \"#utility.yul\":4757:4783   */\n      swap1\n      pop\n        /* \"#utility.yul\":4793:4864   */\n      tag_129\n        /* \"#utility.yul\":4861:4862   */\n      0x00\n        /* \"#utility.yul\":4850:4859   */\n      dup4\n        /* \"#utility.yul\":4846:4863   */\n      add\n        /* \"#utility.yul\":4837:4843   */\n      dup6\n        /* \"#utility.yul\":4793:4864   */\n      tag_58\n      jump\t// in\n    tag_129:\n        /* \"#utility.yul\":4874:4946   */\n      tag_130\n        /* \"#utility.yul\":4942:4944   */\n      0x20\n        /* \"#utility.yul\":4931:4940   */\n      dup4\n        /* \"#utility.yul\":4927:4945   */\n      add\n        /* \"#utility.yul\":4918:4924   */\n      dup5\n        /* \"#utility.yul\":4874:4946   */\n      tag_59\n      jump\t// in\n    tag_130:\n        /* \"#utility.yul\":4621:4953   */\n      swap4\n      swap3\n      pop\n      pop\n      pop\n      jump\t// out\n        /* \"#utility.yul\":4959:5049   */\n    tag_69:\n        /* \"#utility.yul\":4993:5000   */\n      0x00\n        /* \"#utility.yul\":5036:5041   */\n      dup2\n        /* \"#utility.yul\":5029:5042   */\n      iszero\n        /* \"#utility.yul\":5022:5043   */\n      iszero\n        /* \"#utility.yul\":5011:5043   */\n      swap1\n      pop\n        /* \"#utility.yul\":4959:5049   */\n      swap2\n      swap1\n      pop\n      jump\t// out\n        /* \"#utility.yul\":5055:5171   */\n    tag_70:\n        /* \"#utility.yul\":5125:5146   */\n      tag_133\n        /* \"#utility.yul\":5140:5145   */\n      dup2\n        /* \"#utility.yul\":5125:5146   */\n      tag_69\n      jump\t// in\n    tag_133:\n        /* \"#utility.yul\":5118:5123   */\n      dup2\n        /* \"#utility.yul\":5115:5147   */\n      eq\n        /* \"#utility.yul\":5105:5165   */\n      tag_134\n      jumpi\n        /* \"#utility.yul\":5161:5162   */\n      0x00\n        /* \"#utility.yul\":5158:5159   */\n      0x00\n        /* \"#utility.yul\":5151:5163   */\n      revert\n        /* \"#utility.yul\":5105:5165   */\n    tag_134:\n        /* \"#utility.yul\":5055:5171   */\n      pop\n      jump\t// out\n        /* \"#utility.yul\":5177:5314   */\n    tag_71:\n        /* \"#utility.yul\":5231:5236   */\n      0x00\n        /* \"#utility.yul\":5262:5268   */\n      dup2\n        /* \"#utility.yul\":5256:5269   */\n      mload\n        /* \"#utility.yul\":5247:5269   */\n      swap1\n      pop\n        /* \"#utility.yul\":5278:5308   */\n      tag_136\n        /* \"#utility.yul\":5302:5307   */\n      dup2\n        /* \"#utility.yul\":5278:5308   */\n      tag_70\n      jump\t// in\n    tag_136:\n        /* \"#utility.yul\":5177:5314   */\n      swap3\n      swap2\n      pop\n      pop\n      jump\t// out\n        /* \"#utility.yul\":5320:5665   */\n    tag_40:\n        /* \"#utility.yul\":5387:5393   */\n      0x00\n        /* \"#utility.yul\":5436:5438   */\n      0x20\n        /* \"#utility.yul\":5424:5433   */\n      dup3\n        /* \"#utility.yul\":5415:5422   */\n      dup5\n        /* \"#utility.yul\":5411:5434   */\n      sub\n        /* \"#utility.yul\":5407:5439   */\n      slt\n        /* \"#utility.yul\":5404:5523   */\n      iszero\n      tag_138\n      jumpi\n        /* \"#utility.yul\":5442:5521   */\n      tag_139\n      tag_51\n      jump\t// in\n    tag_139:\n        /* \"#utility.yul\":5404:5523   */\n    tag_138:\n        /* \"#utility.yul\":5562:5563   */\n      0x00\n        /* \"#utility.yul\":5587:5648   */\n      tag_140\n        /* \"#utility.yul\":5640:5647   */\n      dup5\n        /* \"#utility.yul\":5631:5637   */\n      dup3\n        /* \"#utility.yul\":5620:5629   */\n      dup6\n        /* \"#utility.yul\":5616:5638   */\n      add\n        /* \"#utility.yul\":5587:5648   */\n      tag_71\n      jump\t// in\n    tag_140:\n        /* \"#utility.yul\":5577:5648   */\n      swap2\n      pop\n        /* \"#utility.yul\":5533:5658   */\n      pop\n        /* \"#utility.yul\":5320:5665   */\n      swap3\n      swap2\n      pop\n      pop\n      jump\t// out\n        /* \"#utility.yul\":5671:5836   */\n    tag_72:\n        /* \"#utility.yul\":5811:5828   */\n      0x5472616e73666572206661696c65640000000000000000000000000000000000\n        /* \"#utility.yul\":5807:5808   */\n      0x00\n        /* \"#utility.yul\":5799:5805   */\n      dup3\n        /* \"#utility.yul\":5795:5809   */\n      add\n        /* \"#utility.yul\":5788:5829   */\n      mstore\n        /* \"#utility.yul\":5671:5836   */\n      pop\n      jump\t// out\n        /* \"#utility.yul\":5842:6208   */\n    tag_73:\n        /* \"#utility.yul\":5984:5987   */\n      0x00\n        /* \"#utility.yul\":6005:6072   */\n      tag_143\n        /* \"#utility.yul\":6069:6071   */\n      0x0f\n        /* \"#utility.yul\":6064:6067   */\n      dup4\n        /* \"#utility.yul\":6005:6072   */\n      tag_66\n      jump\t// in\n    tag_143:\n        /* \"#utility.yul\":5998:6072   */\n      swap2\n      pop\n        /* \"#utility.yul\":6081:6174   */\n      tag_144\n        /* \"#utility.yul\":6170:6173   */\n      dup3\n        /* \"#utility.yul\":6081:6174   */\n      tag_72\n      jump\t// in\n    tag_144:\n        /* \"#utility.yul\":6199:6201   */\n      0x20\n        /* \"#utility.yul\":6194:6197   */\n      dup3\n        /* \"#utility.yul\":6190:6202   */\n      add\n        /* \"#utility.yul\":6183:6202   */\n      swap1\n      pop\n        /* \"#utility.yul\":5842:6208   */\n      swap2\n      swap1\n      pop\n      jump\t// out\n        /* \"#utility.yul\":6214:6633   */\n    tag_43:\n        /* \"#utility.yul\":6380:6384   */\n      0x00\n        /* \"#utility.yul\":6418:6420   */\n      0x20\n        /* \"#utility.yul\":6407:6416   */\n      dup3\n        /* \"#utility.yul\":6403:6421   */\n      add\n        /* \"#utility.yul\":6395:6421   */\n      swap1\n      pop\n        /* \"#utility.yul\":6467:6476   */\n      dup2\n        /* \"#utility.yul\":6461:6465   */\n      dup2\n        /* \"#utility.yul\":6457:6477   */\n      sub\n        /* \"#utility.yul\":6453:6454   */\n      0x00\n        /* \"#utility.yul\":6442:6451   */\n      dup4\n        /* \"#utility.yul\":6438:6455   */\n      add\n        /* \"#utility.yul\":6431:6478   */\n      mstore\n        /* \"#utility.yul\":6495:6626   */\n      tag_146\n        /* \"#utility.yul\":6621:6625   */\n      dup2\n        /* \"#utility.yul\":6495:6626   */\n      tag_73\n      jump\t// in\n    tag_146:\n        /* \"#utility.yul\":6487:6626   */\n      swap1\n      pop\n        /* \"#utility.yul\":6214:6633   */\n      swap2\n      swap1\n      pop\n      jump\t// out\n        /* \"#utility.yul\":6639:6799   */\n    tag_74:\n        /* \"#utility.yul\":6779:6791   */\n      0x4f6e6c79206f776e657200000000000000000000000000000000000000000000\n        /* \"#utility.yul\":6775:6776   */\n      0x00\n        /* \"#utility.yul\":6767:6773   */\n      dup3\n        /* \"#utility.yul\":6763:6777   */\n      add\n        /* \"#utility.yul\":6756:6792   */\n      mstore\n        /* \"#utility.yul\":6639:6799   */\n      pop\n      jump\t// out\n        /* \"#utility.yul\":6805:7171   */\n    tag_75:\n        /* \"#utility.yul\":6947:6950   */\n      0x00\n        /* \"#utility.yul\":6968:7035   */\n      tag_149\n        /* \"#utility.yul\":7032:7034   */\n      0x0a\n        /* \"#utility.yul\":7027:7030   */\n      dup4\n        /* \"#utility.yul\":6968:7035   */\n      tag_66\n      jump\t// in\n    tag_149:\n        /* \"#utility.yul\":6961:7035   */\n      swap2\n      pop\n        /* \"#utility.yul\":7044:7137   */\n      tag_150\n        /* \"#utility.yul\":7133:7136   */\n      dup3\n        /* \"#utility.yul\":7044:7137   */\n      tag_74\n      jump\t// in\n    tag_150:\n        /* \"#utility.yul\":7162:7164   */\n      0x20\n        /* \"#utility.yul\":7157:7160   */\n      dup3\n        /* \"#utility.yul\":7153:7165   */\n      add\n        /* \"#utility.yul\":7146:7165   */\n      swap1\n      pop\n        /* \"#utility.yul\":6805:7171   */\n      swap2\n      swap1\n      pop\n      jump\t// out\n        /* \"#utility.yul\":7177:7596   */\n    tag_47:\n        /* \"#utility.yul\":7343:7347   */\n      0x00\n        /* \"#utility.yul\":7381:7383   */\n      0x20\n        /* \"#utility.yul\":7370:7379   */\n      dup3\n        /* \"#utility.yul\":7366:7384   */\n      add\n        /* \"#utility.yul\":7358:7384   */\n      swap1\n      pop\n        /* \"#utility.yul\":7430:7439   */\n      dup2\n        /* \"#utility.yul\":7424:7428   */\n      dup2\n        /* \"#utility.yul\":7420:7440   */\n      sub\n        /* \"#utility.yul\":7416:7417   */\n      0x00\n        /* \"#utility.yul\":7405:7414   */\n      dup4\n        /* \"#utility.yul\":7401:7418   */\n      add\n        /* \"#utility.yul\":7394:7441   */\n      mstore\n        /* \"#utility.yul\":7458:7589   */\n      tag_152\n        /* \"#utility.yul\":7584:7588   */\n      dup2\n        /* \"#utility.yul\":7458:7589   */\n      tag_75\n      jump\t// in\n    tag_152:\n        /* \"#utility.yul\":7450:7589   */\n      swap1\n      pop\n        /* \"#utility.yul\":7177:7596   */\n      swap2\n      swap1\n      pop\n      jump\t// out\n\n    auxdata: 0xa26469706673582212202e83b433e0ba2b0b761e91d7d5cb59d1c97d119918a4fd8dab731f3c866eab6b64736f6c634300081e0033\n}\n",
				"bytecode": {
					"linkReferences": {},
					"object": "6080604052662386f26fc1000060025534801561001a575f5ffd5b5060405161088d38038061088d833981810160405281019061003c919061011f565b335f5f6101000a81548173ffffffffffffffffffffffffffffffffffffffff021916908373ffffffffffffffffffffffffffffffffffffffff1602179055508060015f6101000a81548173ffffffffffffffffffffffffffffffffffffffff021916908373ffffffffffffffffffffffffffffffffffffffff1602179055505061014a565b5f5ffd5b5f73ffffffffffffffffffffffffffffffffffffffff82169050919050565b5f6100ee826100c5565b9050919050565b6100fe816100e4565b8114610108575f5ffd5b50565b5f81519050610119816100f5565b92915050565b5f60208284031215610134576101336100c1565b5b5f6101418482850161010b565b91505092915050565b610736806101575f395ff3fe608060405260043610610049575f3560e01c80633610724e1461004d5780633ccfd60b146100695780638da5cb5b1461007f578063a035b1fe146100a9578063fc0c546a146100d3575b5f5ffd5b610067600480360381019061006291906103a4565b6100fd565b005b348015610074575f5ffd5b5061007d61022a565b005b34801561008a575f5ffd5b5061009361031e565b6040516100a0919061040e565b60405180910390f35b3480156100b4575f5ffd5b506100bd610342565b6040516100ca9190610436565b60405180910390f35b3480156100de575f5ffd5b506100e7610348565b6040516100f491906104aa565b60405180910390f35b8060025461010b91906104f0565b341461014c576040517f08c379a00000000000000000000000000000000000000000000000000000000081526004016101439061058b565b60405180910390fd5b60015f9054906101000a900473ffffffffffffffffffffffffffffffffffffffff1673ffffffffffffffffffffffffffffffffffffffff1663a9059cbb33836040518363ffffffff1660e01b81526004016101a89291906105a9565b6020604051808303815f875af11580156101c4573d5f5f3e3d5ffd5b505050506040513d601f19601f820116820180604052508101906101e89190610605565b610227576040517f08c379a000000000000000000000000000000000000000000000000000000000815260040161021e9061067a565b60405180910390fd5b50565b5f5f9054906101000a900473ffffffffffffffffffffffffffffffffffffffff1673ffffffffffffffffffffffffffffffffffffffff163373ffffffffffffffffffffffffffffffffffffffff16146102b8576040517f08c379a00000000000000000000000000000000000000000000000000000000081526004016102af906106e2565b60405180910390fd5b5f5f9054906101000a900473ffffffffffffffffffffffffffffffffffffffff1673ffffffffffffffffffffffffffffffffffffffff166108fc4790811502906040515f60405180830381858888f1935050505015801561031b573d5f5f3e3d5ffd5b50565b5f5f9054906101000a900473ffffffffffffffffffffffffffffffffffffffff1681565b60025481565b60015f9054906101000a900473ffffffffffffffffffffffffffffffffffffffff1681565b5f5ffd5b5f819050919050565b61038381610371565b811461038d575f5ffd5b50565b5f8135905061039e8161037a565b92915050565b5f602082840312156103b9576103b861036d565b5b5f6103c684828501610390565b91505092915050565b5f73ffffffffffffffffffffffffffffffffffffffff82169050919050565b5f6103f8826103cf565b9050919050565b610408816103ee565b82525050565b5f6020820190506104215f8301846103ff565b92915050565b61043081610371565b82525050565b5f6020820190506104495f830184610427565b92915050565b5f819050919050565b5f61047261046d610468846103cf565b61044f565b6103cf565b9050919050565b5f61048382610458565b9050919050565b5f61049482610479565b9050919050565b6104a48161048a565b82525050565b5f6020820190506104bd5f83018461049b565b92915050565b7f4e487b71000000000000000000000000000000000000000000000000000000005f52601160045260245ffd5b5f6104fa82610371565b915061050583610371565b925082820261051381610371565b9150828204841483151761052a576105296104c3565b5b5092915050565b5f82825260208201905092915050565b7f496e636f72726563742045544820616d6f756e740000000000000000000000005f82015250565b5f610575601483610531565b915061058082610541565b602082019050919050565b5f6020820190508181035f8301526105a281610569565b9050919050565b5f6040820190506105bc5f8301856103ff565b6105c96020830184610427565b9392505050565b5f8115159050919050565b6105e4816105d0565b81146105ee575f5ffd5b50565b5f815190506105ff816105db565b92915050565b5f6020828403121561061a5761061961036d565b5b5f610627848285016105f1565b91505092915050565b7f5472616e73666572206661696c656400000000000000000000000000000000005f82015250565b5f610664600f83610531565b915061066f82610630565b602082019050919050565b5f6020820190508181035f83015261069181610658565b9050919050565b7f4f6e6c79206f776e6572000000000000000000000000000000000000000000005f82015250565b5f6106cc600a83610531565b91506106d782610698565b602082019050919050565b5f6020820190508181035f8301526106f9816106c0565b905091905056fea26469706673582212202e83b433e0ba2b0b761e91d7d5cb59d1c97d119918a4fd8dab731f3c866eab6b64736f6c634300081e0033",
					"opcodes": "PUSH1 0x80 PUSH1 0x40 MSTORE PUSH7 0x2386F26FC10000 PUSH1 0x2 SSTORE CALLVALUE DUP1 ISZERO PUSH2 0x1A JUMPI PUSH0 PUSH0 REVERT JUMPDEST POP PUSH1 0x40 MLOAD PUSH2 0x88D CODESIZE SUB DUP1 PUSH2 0x88D DUP4 CODECOPY DUP2 DUP2 ADD PUSH1 0x40 MSTORE DUP2 ADD SWAP1 PUSH2 0x3C SWAP2 SWAP1 PUSH2 0x11F JUMP JUMPDEST CALLER PUSH0 PUSH0 PUSH2 0x100 EXP DUP2 SLOAD DUP2 PUSH20 0xFFFFFFFFFFFFFFFFFFFFFFFFFFFFFFFFFFFFFFFF MUL NOT AND SWAP1 DUP4 PUSH20 0xFFFFFFFFFFFFFFFFFFFFFFFFFFFFFFFFFFFFFFFF AND MUL OR SWAP1 SSTORE POP DUP1 PUSH1 0x1 PUSH0 PUSH2 0x100 EXP DUP2 SLOAD DUP2 PUSH20 0xFFFFFFFFFFFFFFFFFFFFFFFFFFFFFFFFFFFFFFFF MUL NOT AND SWAP1 DUP4 PUSH20 0xFFFFFFFFFFFFFFFFFFFFFFFFFFFFFFFFFFFFFFFF AND MUL OR SWAP1 SSTORE POP POP PUSH2 0x14A JUMP JUMPDEST PUSH0 PUSH0 REVERT JUMPDEST PUSH0 PUSH20 0xFFFFFFFFFFFFFFFFFFFFFFFFFFFFFFFFFFFFFFFF DUP3 AND SWAP1 POP SWAP2 SWAP1 POP JUMP JUMPDEST PUSH0 PUSH2 0xEE DUP3 PUSH2 0xC5 JUMP JUMPDEST SWAP1 POP SWAP2 SWAP1 POP JUMP JUMPDEST PUSH2 0xFE DUP2 PUSH2 0xE4 JUMP JUMPDEST DUP2 EQ PUSH2 0x108 JUMPI PUSH0 PUSH0 REVERT JUMPDEST POP JUMP JUMPDEST PUSH0 DUP2 MLOAD SWAP1 POP PUSH2 0x119 DUP2 PUSH2 0xF5 JUMP JUMPDEST SWAP3 SWAP2 POP POP JUMP JUMPDEST PUSH0 PUSH1 0x20 DUP3 DUP5 SUB SLT ISZERO PUSH2 0x134 JUMPI PUSH2 0x133 PUSH2 0xC1 JUMP JUMPDEST JUMPDEST PUSH0 PUSH2 0x141 DUP5 DUP3 DUP6 ADD PUSH2 0x10B JUMP JUMPDEST SWAP2 POP POP SWAP3 SWAP2 POP POP JUMP JUMPDEST PUSH2 0x736 DUP1 PUSH2 0x157 PUSH0 CODECOPY PUSH0 RETURN INVALID PUSH1 0x80 PUSH1 0x40 MSTORE PUSH1 0x4 CALLDATASIZE LT PUSH2 0x49 JUMPI PUSH0 CALLDATALOAD PUSH1 0xE0 SHR DUP1 PUSH4 0x3610724E EQ PUSH2 0x4D JUMPI DUP1 PUSH4 0x3CCFD60B EQ PUSH2 0x69 JUMPI DUP1 PUSH4 0x8DA5CB5B EQ PUSH2 0x7F JUMPI DUP1 PUSH4 0xA035B1FE EQ PUSH2 0xA9 JUMPI DUP1 PUSH4 0xFC0C546A EQ PUSH2 0xD3 JUMPI JUMPDEST PUSH0 PUSH0 REVERT JUMPDEST PUSH2 0x67 PUSH1 0x4 DUP1 CALLDATASIZE SUB DUP2 ADD SWAP1 PUSH2 0x62 SWAP2 SWAP1 PUSH2 0x3A4 JUMP JUMPDEST PUSH2 0xFD JUMP JUMPDEST STOP JUMPDEST CALLVALUE DUP1 ISZERO PUSH2 0x74 JUMPI PUSH0 PUSH0 REVERT JUMPDEST POP PUSH2 0x7D PUSH2 0x22A JUMP JUMPDEST STOP JUMPDEST CALLVALUE DUP1 ISZERO PUSH2 0x8A JUMPI PUSH0 PUSH0 REVERT JUMPDEST POP PUSH2 0x93 PUSH2 0x31E JUMP JUMPDEST PUSH1 0x40 MLOAD PUSH2 0xA0 SWAP2 SWAP1 PUSH2 0x40E JUMP JUMPDEST PUSH1 0x40 MLOAD DUP1 SWAP2 SUB SWAP1 RETURN JUMPDEST CALLVALUE DUP1 ISZERO PUSH2 0xB4 JUMPI PUSH0 PUSH0 REVERT JUMPDEST POP PUSH2 0xBD PUSH2 0x342 JUMP JUMPDEST PUSH1 0x40 MLOAD PUSH2 0xCA SWAP2 SWAP1 PUSH2 0x436 JUMP JUMPDEST PUSH1 0x40 MLOAD DUP1 SWAP2 SUB SWAP1 RETURN JUMPDEST CALLVALUE DUP1 ISZERO PUSH2 0xDE JUMPI PUSH0 PUSH0 REVERT JUMPDEST POP PUSH2 0xE7 PUSH2 0x348 JUMP JUMPDEST PUSH1 0x40 MLOAD PUSH2 0xF4 SWAP2 SWAP1 PUSH2 0x4AA JUMP JUMPDEST PUSH1 0x40 MLOAD DUP1 SWAP2 SUB SWAP1 RETURN JUMPDEST DUP1 PUSH1 0x2 SLOAD PUSH2 0x10B SWAP2 SWAP1 PUSH2 0x4F0 JUMP JUMPDEST CALLVALUE EQ PUSH2 0x14C JUMPI PUSH1 0x40 MLOAD PUSH32 0x8C379A000000000000000000000000000000000000000000000000000000000 DUP2 MSTORE PUSH1 0x4 ADD PUSH2 0x143 SWAP1 PUSH2 0x58B JUMP JUMPDEST PUSH1 0x40 MLOAD DUP1 SWAP2 SUB SWAP1 REVERT JUMPDEST PUSH1 0x1 PUSH0 SWAP1 SLOAD SWAP1 PUSH2 0x100 EXP SWAP1 DIV PUSH20 0xFFFFFFFFFFFFFFFFFFFFFFFFFFFFFFFFFFFFFFFF AND PUSH20 0xFFFFFFFFFFFFFFFFFFFFFFFFFFFFFFFFFFFFFFFF AND PUSH4 0xA9059CBB CALLER DUP4 PUSH1 0x40 MLOAD DUP4 PUSH4 0xFFFFFFFF AND PUSH1 0xE0 SHL DUP2 MSTORE PUSH1 0x4 ADD PUSH2 0x1A8 SWAP3 SWAP2 SWAP1 PUSH2 0x5A9 JUMP JUMPDEST PUSH1 0x20 PUSH1 0x40 MLOAD DUP1 DUP4 SUB DUP2 PUSH0 DUP8 GAS CALL ISZERO DUP1 ISZERO PUSH2 0x1C4 JUMPI RETURNDATASIZE PUSH0 PUSH0 RETURNDATACOPY RETURNDATASIZE PUSH0 REVERT JUMPDEST POP POP POP POP PUSH1 0x40 MLOAD RETURNDATASIZE PUSH1 0x1F NOT PUSH1 0x1F DUP3 ADD AND DUP3 ADD DUP1 PUSH1 0x40 MSTORE POP DUP2 ADD SWAP1 PUSH2 0x1E8 SWAP2 SWAP1 PUSH2 0x605 JUMP JUMPDEST PUSH2 0x227 JUMPI PUSH1 0x40 MLOAD PUSH32 0x8C379A000000000000000000000000000000000000000000000000000000000 DUP2 MSTORE PUSH1 0x4 ADD PUSH2 0x21E SWAP1 PUSH2 0x67A JUMP JUMPDEST PUSH1 0x40 MLOAD DUP1 SWAP2 SUB SWAP1 REVERT JUMPDEST POP JUMP JUMPDEST PUSH0 PUSH0 SWAP1 SLOAD SWAP1 PUSH2 0x100 EXP SWAP1 DIV PUSH20 0xFFFFFFFFFFFFFFFFFFFFFFFFFFFFFFFFFFFFFFFF AND PUSH20 0xFFFFFFFFFFFFFFFFFFFFFFFFFFFFFFFFFFFFFFFF AND CALLER PUSH20 0xFFFFFFFFFFFFFFFFFFFFFFFFFFFFFFFFFFFFFFFF AND EQ PUSH2 0x2B8 JUMPI PUSH1 0x40 MLOAD PUSH32 0x8C379A000000000000000000000000000000000000000000000000000000000 DUP2 MSTORE PUSH1 0x4 ADD PUSH2 0x2AF SWAP1 PUSH2 0x6E2 JUMP JUMPDEST PUSH1 0x40 MLOAD DUP1 SWAP2 SUB SWAP1 REVERT JUMPDEST PUSH0 PUSH0 SWAP1 SLOAD SWAP1 PUSH2 0x100 EXP SWAP1 DIV PUSH20 0xFFFFFFFFFFFFFFFFFFFFFFFFFFFFFFFFFFFFFFFF AND PUSH20 0xFFFFFFFFFFFFFFFFFFFFFFFFFFFFFFFFFFFFFFFF AND PUSH2 0x8FC SELFBALANCE SWAP1 DUP2 ISZERO MUL SWAP1 PUSH1 0x40 MLOAD PUSH0 PUSH1 0x40 MLOAD DUP1 DUP4 SUB DUP2 DUP6 DUP9 DUP9 CALL SWAP4 POP POP POP POP ISZERO DUP1 ISZERO PUSH2 0x31B JUMPI RETURNDATASIZE PUSH0 PUSH0 RETURNDATACOPY RETURNDATASIZE PUSH0 REVERT JUMPDEST POP JUMP JUMPDEST PUSH0 PUSH0 SWAP1 SLOAD SWAP1 PUSH2 0x100 EXP SWAP1 DIV PUSH20 0xFFFFFFFFFFFFFFFFFFFFFFFFFFFFFFFFFFFFFFFF AND DUP2 JUMP JUMPDEST PUSH1 0x2 SLOAD DUP2 JUMP JUMPDEST PUSH1 0x1 PUSH0 SWAP1 SLOAD SWAP1 PUSH2 0x100 EXP SWAP1 DIV PUSH20 0xFFFFFFFFFFFFFFFFFFFFFFFFFFFFFFFFFFFFFFFF AND DUP2 JUMP JUMPDEST PUSH0 PUSH0 REVERT JUMPDEST PUSH0 DUP2 SWAP1 POP SWAP2 SWAP1 POP JUMP JUMPDEST PUSH2 0x383 DUP2 PUSH2 0x371 JUMP JUMPDEST DUP2 EQ PUSH2 0x38D JUMPI PUSH0 PUSH0 REVERT JUMPDEST POP JUMP JUMPDEST PUSH0 DUP2 CALLDATALOAD SWAP1 POP PUSH2 0x39E DUP2 PUSH2 0x37A JUMP JUMPDEST SWAP3 SWAP2 POP POP JUMP JUMPDEST PUSH0 PUSH1 0x20 DUP3 DUP5 SUB SLT ISZERO PUSH2 0x3B9 JUMPI PUSH2 0x3B8 PUSH2 0x36D JUMP JUMPDEST JUMPDEST PUSH0 PUSH2 0x3C6 DUP5 DUP3 DUP6 ADD PUSH2 0x390 JUMP JUMPDEST SWAP2 POP POP SWAP3 SWAP2 POP POP JUMP JUMPDEST PUSH0 PUSH20 0xFFFFFFFFFFFFFFFFFFFFFFFFFFFFFFFFFFFFFFFF DUP3 AND SWAP1 POP SWAP2 SWAP1 POP JUMP JUMPDEST PUSH0 PUSH2 0x3F8 DUP3 PUSH2 0x3CF JUMP JUMPDEST SWAP1 POP SWAP2 SWAP1 POP JUMP JUMPDEST PUSH2 0x408 DUP2 PUSH2 0x3EE JUMP JUMPDEST DUP3 MSTORE POP POP JUMP JUMPDEST PUSH0 PUSH1 0x20 DUP3 ADD SWAP1 POP PUSH2 0x421 PUSH0 DUP4 ADD DUP5 PUSH2 0x3FF JUMP JUMPDEST SWAP3 SWAP2 POP POP JUMP JUMPDEST PUSH2 0x430 DUP2 PUSH2 0x371 JUMP JUMPDEST DUP3 MSTORE POP POP JUMP JUMPDEST PUSH0 PUSH1 0x20 DUP3 ADD SWAP1 POP PUSH2 0x449 PUSH0 DUP4 ADD DUP5 PUSH2 0x427 JUMP JUMPDEST SWAP3 SWAP2 POP POP JUMP JUMPDEST PUSH0 DUP2 SWAP1 POP SWAP2 SWAP1 POP JUMP JUMPDEST PUSH0 PUSH2 0x472 PUSH2 0x46D PUSH2 0x468 DUP5 PUSH2 0x3CF JUMP JUMPDEST PUSH2 0x44F JUMP JUMPDEST PUSH2 0x3CF JUMP JUMPDEST SWAP1 POP SWAP2 SWAP1 POP JUMP JUMPDEST PUSH0 PUSH2 0x483 DUP3 PUSH2 0x458 JUMP JUMPDEST SWAP1 POP SWAP2 SWAP1 POP JUMP JUMPDEST PUSH0 PUSH2 0x494 DUP3 PUSH2 0x479 JUMP JUMPDEST SWAP1 POP SWAP2 SWAP1 POP JUMP JUMPDEST PUSH2 0x4A4 DUP2 PUSH2 0x48A JUMP JUMPDEST DUP3 MSTORE POP POP JUMP JUMPDEST PUSH0 PUSH1 0x20 DUP3 ADD SWAP1 POP PUSH2 0x4BD PUSH0 DUP4 ADD DUP5 PUSH2 0x49B JUMP JUMPDEST SWAP3 SWAP2 POP POP JUMP JUMPDEST PUSH32 0x4E487B7100000000000000000000000000000000000000000000000000000000 PUSH0 MSTORE PUSH1 0x11 PUSH1 0x4 MSTORE PUSH1 0x24 PUSH0 REVERT JUMPDEST PUSH0 PUSH2 0x4FA DUP3 PUSH2 0x371 JUMP JUMPDEST SWAP2 POP PUSH2 0x505 DUP4 PUSH2 0x371 JUMP JUMPDEST SWAP3 POP DUP3 DUP3 MUL PUSH2 0x513 DUP2 PUSH2 0x371 JUMP JUMPDEST SWAP2 POP DUP3 DUP3 DIV DUP5 EQ DUP4 ISZERO OR PUSH2 0x52A JUMPI PUSH2 0x529 PUSH2 0x4C3 JUMP JUMPDEST JUMPDEST POP SWAP3 SWAP2 POP POP JUMP JUMPDEST PUSH0 DUP3 DUP3 MSTORE PUSH1 0x20 DUP3 ADD SWAP1 POP SWAP3 SWAP2 POP POP JUMP JUMPDEST PUSH32 0x496E636F72726563742045544820616D6F756E74000000000000000000000000 PUSH0 DUP3 ADD MSTORE POP JUMP JUMPDEST PUSH0 PUSH2 0x575 PUSH1 0x14 DUP4 PUSH2 0x531 JUMP JUMPDEST SWAP2 POP PUSH2 0x580 DUP3 PUSH2 0x541 JUMP JUMPDEST PUSH1 0x20 DUP3 ADD SWAP1 POP SWAP2 SWAP1 POP JUMP JUMPDEST PUSH0 PUSH1 0x20 DUP3 ADD SWAP1 POP DUP2 DUP2 SUB PUSH0 DUP4 ADD MSTORE PUSH2 0x5A2 DUP2 PUSH2 0x569 JUMP JUMPDEST SWAP1 POP SWAP2 SWAP1 POP JUMP JUMPDEST PUSH0 PUSH1 0x40 DUP3 ADD SWAP1 POP PUSH2 0x5BC PUSH0 DUP4 ADD DUP6 PUSH2 0x3FF JUMP JUMPDEST PUSH2 0x5C9 PUSH1 0x20 DUP4 ADD DUP5 PUSH2 0x427 JUMP JUMPDEST SWAP4 SWAP3 POP POP POP JUMP JUMPDEST PUSH0 DUP2 ISZERO ISZERO SWAP1 POP SWAP2 SWAP1 POP JUMP JUMPDEST PUSH2 0x5E4 DUP2 PUSH2 0x5D0 JUMP JUMPDEST DUP2 EQ PUSH2 0x5EE JUMPI PUSH0 PUSH0 REVERT JUMPDEST POP JUMP JUMPDEST PUSH0 DUP2 MLOAD SWAP1 POP PUSH2 0x5FF DUP2 PUSH2 0x5DB JUMP JUMPDEST SWAP3 SWAP2 POP POP JUMP JUMPDEST PUSH0 PUSH1 0x20 DUP3 DUP5 SUB SLT ISZERO PUSH2 0x61A JUMPI PUSH2 0x619 PUSH2 0x36D JUMP JUMPDEST JUMPDEST PUSH0 PUSH2 0x627 DUP5 DUP3 DUP6 ADD PUSH2 0x5F1 JUMP JUMPDEST SWAP2 POP POP SWAP3 SWAP2 POP POP JUMP JUMPDEST PUSH32 0x5472616E73666572206661696C65640000000000000000000000000000000000 PUSH0 DUP3 ADD MSTORE POP JUMP JUMPDEST PUSH0 PUSH2 0x664 PUSH1 0xF DUP4 PUSH2 0x531 JUMP JUMPDEST SWAP2 POP PUSH2 0x66F DUP3 PUSH2 0x630 JUMP JUMPDEST PUSH1 0x20 DUP3 ADD SWAP1 POP SWAP2 SWAP1 POP JUMP JUMPDEST PUSH0 PUSH1 0x20 DUP3 ADD SWAP1 POP DUP2 DUP2 SUB PUSH0 DUP4 ADD MSTORE PUSH2 0x691 DUP2 PUSH2 0x658 JUMP JUMPDEST SWAP1 POP SWAP2 SWAP1 POP JUMP JUMPDEST PUSH32 0x4F6E6C79206F776E657200000000000000000000000000000000000000000000 PUSH0 DUP3 ADD MSTORE POP JUMP JUMPDEST PUSH0 PUSH2 0x6CC PUSH1 0xA DUP4 PUSH2 0x531 JUMP JUMPDEST SWAP2 POP PUSH2 0x6D7 DUP3 PUSH2 0x698 JUMP JUMPDEST PUSH1 0x20 DUP3 ADD SWAP1 POP SWAP2 SWAP1 POP JUMP JUMPDEST PUSH0 PUSH1 0x20 DUP3 ADD SWAP1 POP DUP2 DUP2 SUB PUSH0 DUP4 ADD MSTORE PUSH2 0x6F9 DUP2 PUSH2 0x6C0 JUMP JUMPDEST SWAP1 POP SWAP2 SWAP1 POP JUMP INVALID LOG2 PUSH5 0x6970667358 0x22 SLT KECCAK256 0x2E DUP4 0xB4 CALLER RJUMP 0xBA2B SIGNEXTEND PUSH23 0x1E91D7D5CB59D1C97D119918A4FD8DAB731F3C866EAB6B PUSH5 0x736F6C6343 STOP ADDMOD 0x1E STOP CALLER "
				},
				"gasEstimates": {
					"creation": {
						"codeDepositCost": "369200",
						"executionCost": "infinite",
						"totalCost": "infinite"
					},
					"external": {
						"buyTokens(uint256)": "infinite",
						"owner()": "2529",
						"price()": "2469",
						"token()": "infinite",
						"withdraw()": "infinite"
					}
				},
				"methodIdentifiers": {
					"buyTokens(uint256)": "3610724e",
					"owner()": "8da5cb5b",
					"price()": "a035b1fe",
					"token()": "fc0c546a",
					"withdraw()": "3ccfd60b"
				}
			},
			"storageLayout": {
				"storage": [
					{
						"astId": 82,
						"contract": "TokenSale.sol:TokenSale",
						"label": "owner",
						"offset": 0,
						"slot": "0",
						"type": "t_address"
					},
					{
						"astId": 85,
						"contract": "TokenSale.sol:TokenSale",
						"label": "token",
						"offset": 0,
						"slot": "1",
						"type": "t_contract(IERC20)77"
					},
					{
						"astId": 88,
						"contract": "TokenSale.sol:TokenSale",
						"label": "price",
						"offset": 0,
						"slot": "2",
						"type": "t_uint256"
					}
				],
				"types": {
					"t_address": {
						"encoding": "inplace",
						"label": "address",
						"numberOfBytes": "20"
					},
					"t_contract(IERC20)77": {
						"encoding": "inplace",
						"label": "contract IERC20",
						"numberOfBytes": "20"
					},
					"t_uint256": {
						"encoding": "inplace",
						"label": "uint256",
						"numberOfBytes": "32"
					}
				}
			},
			"userdoc": {
				"kind": "user",
				"methods": {},
				"version": 1
			}
		}
	}
}