{
	"data": {
		"bytecode": {
			"linkReferences": {},
			"object": "6080604052348015600e575f5ffd5b506102ba8061001c5f395ff3fe608060405234801561000f575f5ffd5b5060043610610029575f3560e01c8063e1cb0e521461002d575b5f5ffd5b61003561004b565b6040516100429190610154565b60405180910390f35b6060610055610079565b60405160200161006591906101f8565b604051602081830303815290604052905090565b60606100836100a7565b6040516020016100939190610263565b604051602081830303815290604052905090565b60606040518060400160405280600181526020017f4100000000000000000000000000000000000000000000000000000000000000815250905090565b5f81519050919050565b5f82825260208201905092915050565b8281835e5f83830152505050565b5f601f19601f8301169050919050565b5f610126826100e4565b61013081856100ee565b93506101408185602086016100fe565b6101498161010c565b840191505092915050565b5f6020820190508181035f83015261016c818461011c565b905092915050565b5f81905092915050565b5f610188826100e4565b6101928185610174565b93506101a28185602086016100fe565b80840191505092915050565b7f202b2043000000000000000000000000000000000000000000000000000000005f82015250565b5f6101e2600483610174565b91506101ed826101ae565b600482019050919050565b5f610203828461017e565b915061020e826101d6565b915081905092915050565b7f202b2042000000000000000000000000000000000000000000000000000000005f82015250565b5f61024d600483610174565b915061025882610219565b600482019050919050565b5f61026e828461017e565b915061027982610241565b91508190509291505056fea2646970667358221220d59464f5cb5d0408030bd2d0e3a74fcf664f0d800ba4fab32fe1eec38313050064736f6c634300081e0033",
			"opcodes": "PUSH1 0x80 PUSH1 0x40 MSTORE CALLVALUE DUP1 ISZERO PUSH1 0xE JUMPI PUSH0 PUSH0 REVERT JUMPDEST POP PUSH2 0x2BA DUP1 PUSH2 0x1C PUSH0 CODECOPY PUSH0 RETURN INVALID PUSH1 0x80 PUSH1 0x40 MSTORE CALLVALUE DUP1 ISZERO PUSH2 0xF JUMPI PUSH0 PUSH0 REVERT JUMPDEST POP PUSH1 0x4 CALLDATASIZE LT PUSH2 0x29 JUMPI PUSH0 CALLDATALOAD PUSH1 0xE0 SHR DUP1 PUSH4 0xE1CB0E52 EQ PUSH2 0x2D JUMPI JUMPDEST PUSH0 PUSH0 REVERT JUMPDEST PUSH2 0x35 PUSH2 0x4B JUMP JUMPDEST PUSH1 0x40 MLOAD PUSH2 0x42 SWAP2 SWAP1 PUSH2 0x154 JUMP JUMPDEST PUSH1 0x40 MLOAD DUP1 SWAP2 SUB SWAP1 RETURN JUMPDEST PUSH1 0x60 PUSH2 0x55 PUSH2 0x79 JUMP JUMPDEST PUSH1 0x40 MLOAD PUSH1 0x20 ADD PUSH2 0x65 SWAP2 SWAP1 PUSH2 0x1F8 JUMP JUMPDEST PUSH1 0x40 MLOAD PUSH1 0x20 DUP2 DUP4 SUB SUB DUP2 MSTORE SWAP1 PUSH1 0x40 MSTORE SWAP1 POP SWAP1 JUMP JUMPDEST PUSH1 0x60 PUSH2 0x83 PUSH2 0xA7 JUMP JUMPDEST PUSH1 0x40 MLOAD PUSH1 0x20 ADD PUSH2 0x93 SWAP2 SWAP1 PUSH2 0x263 JUMP JUMPDEST PUSH1 0x40 MLOAD PUSH1 0x20 DUP2 DUP4 SUB SUB DUP2 MSTORE SWAP1 PUSH1 0x40 MSTORE SWAP1 POP SWAP1 JUMP JUMPDEST PUSH1 0x60 PUSH1 0x40 MLOAD DUP1 PUSH1 0x40 ADD PUSH1 0x40 MSTORE DUP1 PUSH1 0x1 DUP2 MSTORE PUSH1 0x20 ADD PUSH32 0x4100000000000000000000000000000000000000000000000000000000000000 DUP2 MSTORE POP SWAP1 POP SWAP1 JUMP JUMPDEST PUSH0 DUP2 MLOAD SWAP1 POP SWAP2 SWAP1 POP JUMP JUMPDEST PUSH0 DUP3 DUP3 MSTORE PUSH1 0x20 DUP3 ADD SWAP1 POP SWAP3 SWAP2 POP POP JUMP JUMPDEST DUP3 DUP2 DUP4 MCOPY PUSH0 DUP4 DUP4 ADD MSTORE POP POP POP JUMP JUMPDEST PUSH0 PUSH1 0x1F NOT PUSH1 0x1F DUP4 ADD AND SWAP1 POP SWAP2 SWAP1 POP JUMP JUMPDEST PUSH0 PUSH2 0x126 DUP3 PUSH2 0xE4 JUMP JUMPDEST PUSH2 0x130 DUP2 DUP6 PUSH2 0xEE JUMP JUMPDEST SWAP4 POP PUSH2 0x140 DUP2 DUP6 PUSH1 0x20 DUP7 ADD PUSH2 0xFE JUMP JUMPDEST PUSH2 0x149 DUP2 PUSH2 0x10C JUMP JUMPDEST DUP5 ADD SWAP2 POP POP SWAP3 SWAP2 POP POP JUMP JUMPDEST PUSH0 PUSH1 0x20 DUP3 ADD SWAP1 POP DUP2 DUP2 SUB PUSH0 DUP4 ADD MSTORE PUSH2 0x16C DUP2 DUP5 PUSH2 0x11C JUMP JUMPDEST SWAP1 POP SWAP3 SWAP2 POP POP JUMP JUMPDEST PUSH0 DUP2 SWAP1 POP SWAP3 SWAP2 POP POP JUMP JUMPDEST PUSH0 PUSH2 0x188 DUP3 PUSH2 0xE4 JUMP JUMPDEST PUSH2 0x192 DUP2 DUP6 PUSH2 0x174 JUMP JUMPDEST SWAP4 POP PUSH2 0x1A2 DUP2 DUP6 PUSH1 0x20 DUP7 ADD PUSH2 0xFE JUMP JUMPDEST DUP1 DUP5 ADD SWAP2 POP POP SWAP3 SWAP2 POP POP JUMP JUMPDEST PUSH32 0x202B204300000000000000000000000000000000000000000000000000000000 PUSH0 DUP3 ADD MSTORE POP JUMP JUMPDEST PUSH0 PUSH2 0x1E2 PUSH1 0x4 DUP4 PUSH2 0x174 JUMP JUMPDEST SWAP2 POP PUSH2 0x1ED DUP3 PUSH2 0x1AE JUMP JUMPDEST PUSH1 0x4 DUP3 ADD SWAP1 POP SWAP2 SWAP1 POP JUMP JUMPDEST PUSH0 PUSH2 0x203 DUP3 DUP5 PUSH2 0x17E JUMP JUMPDEST SWAP2 POP PUSH2 0x20E DUP3 PUSH2 0x1D6 JUMP JUMPDEST SWAP2 POP DUP2 SWAP1 POP SWAP3 SWAP2 POP POP JUMP JUMPDEST PUSH32 0x202B204200000000000000000000000000000000000000000000000000000000 PUSH0 DUP3 ADD MSTORE POP JUMP JUMPDEST PUSH0 PUSH2 0x24D PUSH1 0x4 DUP4 PUSH2 0x174 JUMP JUMPDEST SWAP2 POP PUSH2 0x258 DUP3 PUSH2 0x219 JUMP JUMPDEST PUSH1 0x4 DUP3 ADD SWAP1 POP SWAP2 SWAP1 POP JUMP JUMPDEST PUSH0 PUSH2 0x26E DUP3 DUP5 PUSH2 0x17E JUMP JUMPDEST SWAP2 POP PUSH2 0x279 DUP3 PUSH2 0x241 JUMP JUMPDEST SWAP2 POP DUP2 SWAP1 POP SWAP3 SWAP2 POP POP JUMP INVALID LOG2 PUSH5 0x6970667358 0x22 SLT KECCAK256 0xD5 SWAP5 PUSH5 0xF5CB5D0408 SUB SIGNEXTEND 0xD2 0xD0 CALLF 0xA74F 0xCF PUSH7 0x4F0D800BA4FAB3 0x2F RJUMPI 0xEEC3 DUP4 SGT SDIV STOP PUSH5 0x736F6C6343 STOP ADDMOD 0x1E STOP CALLER "
		},
		"gasEstimates": {
			"creation": {
				"codeDepositCost": "139600",
				"executionCost": "181",
				"totalCost": "139781"
			},
			"external": {
				"getVal()": "infinite"
			}
		},
		"methodIdentifiers": {
			"getVal()": "e1cb0e52"
		}
	},
	"abi": [
		{
			"inputs": [],
			"name": "getVal",
			"outputs": [
				{
					"internalType": "string",
					"name": "",
					"type": "string"
				}
			],
			"stateMutability": "pure",
			"type": "function"
		}
	]
}